:100000000C94BB000C9485250C9485250C94DA0087
:100010000C94DA000C9441020C94DA000C94DA008F
:100020000C94DA000C94DA000C94DA000C94DA00E8
:100030000C94DA000C94DA000C94DA000C94DA00D8
:100040000C94B4020C94DA000C94DA000C94DA00EC
:100050000C945F290C945F2A0C94DA000C94DA005B
:100060000C9409260C94DA000C94DA000C94DA0053
:100070000C94DA000C94DA000C94DA000C94DA0098
:100080000C94DA000C94DA000C94DA00410EFE0DA8
:10009000C40DFC0CFC0C8A0CDE0E350C310F600D0F
:1000A000900D050CA10E3F1CE8103B1C4D1D4D1D75
:1000B000961C921C601C5C1C581C541C501C431C3D
:1000C000410E2B17C40DFC0CFC0C8A0CDE0E350CFB
:1000D000310F600D900D050CA10E400EC810C30D20
:1000E000FB0CFB0C890CDD0E340C300F5F0D8F0DFB
:1000F000040CA00E410E5C17C40DFC0CFC0C8A0C09
:10010000DE0E350C310F600D900D050CA10E4D1E4D
:10011000411E351E291E1D1E111E051EF91DED1D39
:10012000E11DD51DC91DBD1DB11DA51D211C151C21
:100130005D0F591E30253B25302546252F2551259D
:100140002F2546252F2559252F252F252F252F25CE
:100150002F252F252F252F252F252D25FF26E2267C
:10016000DF26D526D226C626C326B026AD269A2659
:1001700084264826022711241FBECFEFD0E4DEBF1D
:10018000CDBF14E0A0E0B1E0E2E7FBE500E00BBF8B
:1001900002C007900D92A63FB107D9F727E0A6EF5E
:1001A000B4E001C01D92A63FB207E1F70E94050727
:1001B0000C94B72D0C94000068279091F6042091C0
:1001C000F704292726232093F704909596239093EC
:1001D000F6046095622B962B9095892708950F93CE
:1001E0001F93CF93DF93CDB7DEB7A9970FB6F894DF
:1001F000DEBF0FBECDBF8E01075D1F4F20E044E183
:10020000BE016B5E7F4F8AEE97E00E947A2C8823B6
:1002100079F08E8990911005891709F490C090911A
:100220001105891729F08D898F3F69F0981759F0CA
:10023000A9960FB6F894DEBF0FBECDBFDF91CF9168
:100240001F910F9108950F89002309F480C010E0D9
:1002500020E030E09DEF910F923060F0E5E1F0E0BA
:10026000EC0FFD1FE10FF11D6081C9010E94A82B59
:100270009C010F891F5F101768F3832F90E0498D51
:1002800050E048175907A1F63327888D90E02817CA
:10029000390771F68A8D813409F49FC0873509F4D6
:1002A0007BC0823509F4CFC0863509F4A8C08835F3
:1002B00009F464C0843509F44FC08F7D863509F098
:1002C000B7CF9E89809110059813B2CF89A58093EE
:1002D0001A018C8D90E0A0E0B0E0DC01992788271E
:1002E0002E8DAC01BD01422B2D8D30E0922F882741
:1002F000A0E0B0E0842B952BA62BB72B8093E307CF
:100300009093E407A093E507B093E60748E050E038
:1003100060E270E08CE297E00E94672D1092340753
:10032000402F50E0043108F0A6C04C505109BE01E6
:100330006F5D7F4F8CE297E00E945E2D79CF92E354
:10034000909312059091110589136DCF71CF80E0C4
:1003500090E020E030E093CF809100018F3F49F0A2
:100360009E89891731F020911005921361CF811178
:100370005FCFCE0145960E9413295ACFF894A895D5
:1003800084B7877F84BF809160008861809360001C
:1003900088E080936000FFCF8E89898388E08B831B
:1003A00087E78E838B8D6C8D90E00E949C2D8B8DCA
:1003B0008F839C8D9887811161C080E090E00E94BE
:1003C0007E2D809311058A834B81BE016F5F7F4F25
:1003D00080EF97E00E94722C2BCF8E8989838091C9
:1003E00011058A8386E08B8381E68E8346E0BE0119
:1003F0006F5F7F4F80EF97E00E94722C19CF8E893C
:100400008983809111058A838FE08B8386E78E83B1
:1004100080E88F8387E8888782ED898781EB8A87E8
:1004200081E08B8782E08C8783E48D8783E58E87EC
:1004300084E58F874FE0BE016F5F7F4F80EF97E0CD
:100440000E94722CF5CE8E898983809111058A8352
:1004500088E08B8382E78E838B8D8F8390E00E9470
:100460007E2D888748E0BE016F5F7F4F80EF97E069
:100470000E94722CDDCE48E050E059CF80911105EA
:10048000A2CF1F920F920FB60F9211240F900FBEA2
:100490000F901F90189585FD16C081E0809305058B
:1004A000909104059817C1F082E390E090930701C2
:1004B00080930601809106019091070190930501B8
:1004C00080930401089584FD20C082E08093050597
:1004D000909104059813E8CF80910305853608F1C3
:1004E00080910601909107010A97F8F48091060126
:1004F00090910701059730F485E090E09093070113
:100500008093060110920305089586FF06C087FDBB
:1005100016C084E080930505C3CF83E08093050572
:10052000BFCF8F5F8093030508958091060190915E
:1005300007010A979093070180930601D7CF109285
:100540000505B2CF9091F90482FF07C09B7F81FD22
:1005500007C092609093F9040895946081FFF9CFE9
:100560009D7F9093F90408951F920F920FB60F92FA
:1005700011240BB60F922F933F934F935F936F937A
:100580007F938F939F93AF93BF93EF93FF9380914C
:1005900007058160809307058091E2078F5F809354
:1005A000E2078A3008F440C01092E20780910B0500
:1005B00090910C05019690930C0580930B0580910A
:1005C0001205882329F0809112058150809312052D
:1005D0008091090590910A05892B49F080910905C0
:1005E00090910A05019790930A05809309050E944E
:1005F0001C258091F804882319F081508093F80419
:100600008091CF058F5F8093CF052091CF0580919A
:100610001B0130E090E0880F991F880F991F281761
:10062000390794F50E94982880910805882329F0BD
:100630008091080581508093080520910401309134
:10064000050180910601909107012817390748F4A8
:10065000809104019091050101969093050180938A
:100660000401FF91EF91BF91AF919F918F917F9185
:100670006F915F914F913F912F910F900BBE0F9013
:100680000FBE0F901F9018951092CF05CBCFCF9330
:10069000DF9383E090E00E947E2DC82F82E090E0FF
:1006A0000E947E2D2C2F30E0A901582B4A30510595
:1006B00008F480C14536510508F0E4C150930301A8
:1006C000409302018DE190E00E947E2D8A3008F473
:1006D00051C18093010181E190E00E947E2D90E064
:1006E000009709F457C18F3F910509F4EBC1843697
:1006F000910508F0CAC148E552E0849F9001859FAA
:10070000300D949F300D1124309322072093210740
:1007100082E190E00E947E2DC82F0E9442298C1712
:1007200029F0682F82E190E00E949C2D8EE190E0FC
:100730000E947E2D8093000183E190E00E947E2D37
:100740008093D00580E090E00E947E2D803308F4F5
:100750004CC18A3408F08DC1809311058FE190E07F
:100760000E947E2D803D08F437C1803F08F078C19B
:100770008093100580E190E00E947E2D8F3109F476
:10078000F6C08FE190E09093DF078093DE076FE182
:1007900080E190E00E949C2DC091DE07D091DF07A0
:1007A000DD27D695DC2FCC27D795C795D093DF07CB
:1007B000C093DE07CE010E948C2D90930F0580938D
:1007C0000E0597FD1BC18031974208F039C1CE015B
:1007D00002960E947E2D80931901CE0103960E94FD
:1007E0007E2D80931801CE0108960E947E2D809365
:1007F0001701CE0109960E947E2D80931601CE012D
:100800000A960E947E2D80930D05CE010B960E94C4
:100810007E2D80931501CE010C960E947E2D809333
:100820001401CE010D960E947E2D80931301CE01FE
:100830000E960E947E2D80931201CE010F960E948B
:100840007E2D80931101CE0104960E947E2D80930F
:100850001001CE0143960E947E2D80930F01CE01A0
:1008600005960E947E2D80930E01CE0106960E9471
:100870007E2D80930D01CE0107960E947E2D8093E0
:100880000C01CE0140960E947E2D80930B01CE017B
:1008900041960E947E2D80930A01CE0142960E94CD
:1008A0007E2D80930901CE0144960E947E2D809377
:1008B0000801CE0148960E94862D6093FE04709335
:1008C000FF048093000590930105CE014C960E9491
:1008D000862D6093FA047093FB048093FC0490933C
:1008E000FD0480E290E00E947E2D8093E10781E28A
:1008F00090E00E947E2D8093E00782E290E00E94CB
:100900007E2D8093E70783E290E00E947E2D809306
:100910002B0784E290E00E947E2D823008F4C5C04F
:100920008B3008F080C080931B01BE01605E7F4F5A
:1009300048E050E083E297E00E946E2DE3E2F7E0AA
:1009400021E09EE706C09083319687E0EB32F807FE
:1009500059F080818F37B8F78111F6CF2083319617
:1009600087E0EB32F807A9F7DF91CF910895CFE147
:10097000D0E016CF8AE0809301016AE08DE190E03B
:100980000E949C2D81E190E00E947E2D90E00097D6
:1009900009F0A9CE81E090E090932207809321078F
:1009A00061E081E190E00E949C2D8091210790916F
:1009B0002207A1CE8AE090E0909303018093020188
:1009C00060E082E090E00E949C2D6091020183E053
:1009D00090E00E949C2D76CE80ED8093100560ED16
:1009E0008FE190E00E949C2DC5CE80E3809311059D
:1009F00060E380E090E00E949C2DB0CE9F7780382D
:100A0000910508F4E4CE8FE790E090930F05809372
:100A10000E056FE770E0CE010E94B22DC091DE0797
:100A2000D091DF07D4CE8AE080931B016AE084E294
:100A300090E00E949C2DC091DE07D091DF0775CF1A
:100A40008FE097E290930F0580930E056FE077E2B9
:100A5000CE010E94B22DC091DE07D091DF07B7CE44
:100A60008FEE809310056FEE8FE190E00E949C2D39
:100A700081CE89E48093110569E480E090E00E94D2
:100A80009C2D6CCE84E690E097CF83E690E0909327
:100A900022078093210763E681E190E00E949C2D6C
:100AA000809121079091220726CE82E080931B013E
:100AB00062E084E290E00E949C2DC091DE07D0911C
:100AC000DF0733CF85E090E09093220780932107E2
:100AD00065E081E190E00E949C2D8091210790913A
:100AE000220709CEEF92FF920F931F93CF93DF93CC
:100AF00020E8829FC001112420E8629F8001112418
:100B00007C0120E8E20EF11CEC01081B190BCE0160
:100B10000E947E2D682FC8018C0F9D1F0E949C2D66
:100B20002196CE15DF0599F7DF91CF911F910F9197
:100B3000FF90EF900895AF92BF92CF92DF92EF9225
:100B4000FF920F931F93CF93DF93A89560E082E00D
:100B500090E00E949C2D6AE083E090E00E949C2D32
:100B60006FE08DE190E00E949C2D65E081E190E0D6
:100B70000E949C2D64E682E190E00E949C2D63EF30
:100B800083E190E00E949C2D60E380E090E00E9471
:100B90009C2D60ED8FE190E00E949C2D60E08EE145
:100BA00090E00E949C2D65E084E290E00E949C2DE4
:100BB0006FE180E190E00E949C2DC0E8D0E087E0EA
:100BC000A82E97E1B92E27E2C22E37E3D32E47E4B1
:100BD000E42E57E5F52E07E617E7A895D093DF0733
:100BE000C093DE0763E070E8CE010E94B22D8091D1
:100BF000DE079091DF0762E002960E949C2D8091B3
:100C0000DE079091DF0761E003960E949C2D8091A2
:100C1000DE079091DF0760E808960E949C2D809186
:100C2000DE079091DF0760E809960E949C2D809175
:100C3000DE079091DF0760E00A960E949C2D80916C
:100C4000DE079091DF0760E80B960E949C2D809153
:100C5000DE079091DF0760E80C960E949C2D809142
:100C6000DE079091DF0760E80D960E949C2D809131
:100C7000DE079091DF0760E00E960E949C2D809128
:100C8000DE079091DF0760E80F960E949C2D80910F
:100C9000DE079091DF076AE004960E949C2D809108
:100CA000DE079091DF0760E843960E949C2D8091BB
:100CB000DE079091DF0769E005960E949C2D8091E8
:100CC000DE079091DF0768E006960E949C2D8091D8
:100CD000DE079091DF0760E807960E949C2D8091C7
:100CE000DE079091DF0765E040960E949C2D809181
:100CF000DE079091DF0766E041960E949C2D80916F
:100D0000DE079091DF0760E842960E949C2D80915B
:100D1000DE079091DF0760E844960E949C2D809149
:100D2000DE079091DF0740E050E0BA0148960E944C
:100D3000AA2D8091DE079091DF0740E050E0BA01D4
:100D40004C960E94AA2DA0922307B0922407C0922D
:100D50002507D0922607E0922707F09228070093F4
:100D6000290710932A076091DE077091DF07605E04
:100D70007F4F48E050E083E297E00E94922DC058F8
:100D8000DF4FC0388AE0D80709F027CF6FE181E054
:100D90000E947205A895DF91CF911F910F91FF904E
:100DA000EF90DF90CF90BF90AF900C94470314BEAC
:100DB000A8959EE088E10FB6F894A895809360000E
:100DC0000FBE90936000A895109212058FEF80934C
:100DD0001A010E9447030E94DD240E94F2250E940E
:100DE000692516BC8CE687BD1092E20710920C05AF
:100DF00010920B0582E084BD85E085BDEEE6F0E053
:100E0000808182608083239A0895CF93DF93CDB74A
:100E1000DEB7C654D1090FB6F894DEBF0FBECDBF02
:100E2000C0903105CEAA90903005D0900605D8AE7E
:100E30000E94D706809111058E8F809110058D8FAD
:100E4000809100018C8F20912107309122073695E7
:100E500027953695279536952795AFE4BBE10E94F7
:100E60003B2D9695879596958795969587958B8F2B
:100E70000E9457299DEC899F812D11248695869586
:100E800086958A8F2091020130910301ADECBCEC74
:100E90000E943B2D96958795969587959695879573
:100EA000898F28988FB7F8942091210730912207D5
:100EB00030930A05209309058FBF1698A89540E145
:100EC00061ED75E080EF97E00E944C2C48E065E30F
:100ED00077E08AEE97E00E944C2C0E94922A789448
:100EE000A8958FEF8983809111058A838FE08B838A
:100EF00086E78E8380E88F8387E8888782ED8987FD
:100F000081EB8A8781E08B8782E08C8783E48D8701
:100F100083E58E8784E58F874FE0BE016F5F7F4F4B
:100F200080EF97E00E94722CA8951092E9070E942A
:100F3000CD2483B1867F8FA785B1806F85B985B1B8
:100F4000866085B99FAA9E01255E3F4F5901AE017B
:100F5000425E5F4F5EA74DA751E05AA761E06BABC1
:100F600019AE1AAE1BAE1CAE19A21AA21BA21CA26D
:100F7000812C1CA619E1212E11E0312E1BA600E0C8
:100F80001DE01AAA1DA28DE0C82ED12CE12CF12C57
:100F900081E090E09DAB8CABDE015996B8A3AF8F9A
:100FA000412C512C32014394A8952B9A2B98809177
:100FB000070580FDA0C20E9437264091E1073091CD
:100FC0002E05842F90E00497632F70E0681779074F
:100FD0000CF002C38091F9048E7F8093F904309164
:100FE0002F054091E707341708F4EBC250E0E09179
:100FF0002B07632F70E0641B750BF4E6F69FC001AE
:10100000F79F900D11246E2F70E0641B750B0E94EA
:101010001E2D69ABA091D005A1FFD8C2E31728F41B
:1010200080910605816080930605A3FFBCC2809174
:10103000CF0529A9E22FF0E060911B010E94122D3B
:1010400090E0019634E1389FB001399F700D112472
:101050006E177F070CF098C28091F9048860809326
:10106000F90480913005A2FD16C09091080197FD0A
:1010700054C29F7129A13AA14BA15CA104C056950D
:101080004795379527959A95D2F72EA33FA348A762
:1010900059A720FF42C2813009F43EC208F49CC324
:1010A000823009F03AC241E0941609F468C581E043
:1010B000A4FD37C271E078AB409131054EA3982E64
:1010C00051E0851609F44DC264E0861609F474C334
:1010D00085E0881609F464C30E94E3289DE0C916E0
:1010E000D10408F45BC20E9495203091050510E000
:1010F000011147C2313009F490C6C12ED12C00E055
:1011000030930405A8958AEE97E00E94622C811125
:1011100074C2A89580911205811167C21092E307ED
:101120001092E4071092E5071092E6078FEF809384
:101130001A0189E0E6EDF3E0ACE2B7E001900D9230
:101140008A95E1F787E08093E9073091F90430FF51
:1011500021C28091190187FD1DC28F71B301A201C7
:1011600004C0440F551F661F771F8A95D2F7DB0115
:10117000CA0131FF13C04091180147FD0FC0242F51
:101180002F71B301A20104C0440F551F661F771FC2
:101190002A95D2F7842B952BA62BB72B32FF13C0A1
:1011A00040910E0147FD0FC0242F2F71B301A20102
:1011B00004C0440F551F661F771F2A95D2F7842B52
:1011C000952BA62BB72B33FF12C03091100137FDA2
:1011D0000EC03F71B301A20104C0440F551F661F2A
:1011E000771F3A95D2F7842B952BA62BB72B4091DE
:1011F0002F053091E707431790F430910F0137FD29
:101200000EC03F71B301A20104C0440F551F661FF9
:10121000771F3A95D2F7842B952BA62BB72B3FEF50
:10122000380D323008F464C255E0851609F44DC219
:101230006DA160FF12C030910B0137FD0EC03F71F0
:10124000B301A20104C0440F551F661F771F3A95D2
:10125000D2F7842B952BA62BB72B7DA171FF12C043
:1012600030910A0137FD0EC03F71B301A20104C0E5
:10127000440F551F661F771F3A95D2F7842B952B85
:10128000A62BB72BA89530912C05323009F4BEC19E
:10129000333009F460C2313009F446C2A895309168
:1012A0002A05323009F4CAC1333009F426C231307C
:1012B00009F4E6C12091FE043091FF04409100053D
:1012C00050910105282B392B4A2B5B2B29A33AA3DC
:1012D0004BA35CA34091FA045091FB046091FC0481
:1012E0007091FD04409550956095709589A19AA1E3
:1012F000ABA1BCA184239523A623B72389A39AA3DA
:10130000ABA3BCA39FA9991609F49DC161E070E04D
:1013100080910505811107C08FEF890D823018F08B
:101320006115710559F08FB7F894409121075091DC
:10133000220750930A05409309058FBFA8958FB7E0
:10134000F89440910B0550910C058FBF4FAF21963B
:101350005FAF21976DAF7EAF0E9435274FAD2196CD
:101360005FAD21976DAD7EAD882379F0672B39F4A1
:1013700080910201909103014817590730F0809144
:10138000F207882311F40C94C81B80EF97E00E94A9
:10139000622C882331F080910805882311F40C9485
:1013A000F11A3FB7F8948091090590910A053FBF63
:1013B000892B09F0F9CDA8951092E90780917A0060
:1013C0008F7780937A00289A169A88B1837088B9AB
:1013D000159880916E008D7F80936E005F985E9867
:1013E00085B1897F85B90E948225419840985D9892
:1013F00083B7817F846083BFF894A8950FB6F89473
:10140000A8958091600088618093600010926000D0
:101410000FBED99A809168008260809368008091A5
:101420006C00806F80936C0083B7816083BF789479
:101430008895F89483B78E7F83BF809168008D7FF5
:1014400080936800A8959EE088E10FB6F894A8956F
:10145000809360000FBE90936000A89578942898C0
:1014600016980E94CD241C3011F40C94C41B16BC99
:101470008CE687BD1092E20710920C0510920B05C6
:1014800082E084BD85E085BD80916E00826080939E
:101490006E0085B1866085B90E94692563B1667F5B
:1014A0008FA50E94DC0063B1667F0E94DC0063B1FF
:1014B000667F0E94DC0063B1667F0E94DC008FA71C
:1014C0000E944B028FA50E94A20280910505809385
:1014D00004058FB7F894409121075091220750934B
:1014E0000A05409309058FBFA8952B9A2B988091E8
:1014F000070580FF60CD809107058E7F80930705EB
:1015000063B1667F8FA50E94DC008FA70E944B020B
:101510008FA50E94A2024FCD82E0981681F1A4FF10
:101520002EC09091310588AB9111892D8111C4CDC8
:101530008091090187FD67C08F7129A13AA14BA154
:101540005CA104C056954795379527958A95D2F7A3
:1015500020FF59C0309131053EA3912C51E08512F6
:10156000B3CD8091F8048111B7CD0E94E328EDE05E
:10157000CE16D10408F40FC1F3E08F2EB4CD88ABA2
:10158000D5CFC12ED12CBCCD8091F904877F80931B
:10159000F90467CD80E090E0DC01EBCDF601EA5B79
:1015A000FF4F0C94322D5091E007852F90E0049767
:1015B000632F70E0681779073CF3351708F04CCDBE
:1015C00050CDA091D005A1FDDDC019AA80910605DE
:1015D0008E7F8093060529CD341708F400CD8091C5
:1015E000F90481608093F904FACC8091D00580FFE2
:1015F00007C081E08093E907A8CD0E94EF0089CD64
:101600001092E907A2CD912C1EA25ACD30910D0562
:1016100037FD44CE3F71B301A20104C0440F551FF2
:10162000661F771F3A95D2F7842B952BA62BB72BE5
:10163000A89530912A05323009F036CE309112014A
:1016400037FD38CE33C0AEA1BEA9AB135FCE29A102
:101650003AA14BA15CA169AD7AAD8BAD9CAD2617CB
:1016600037074807590709F051CE3091060591E038
:1016700080E078AD731301C090E0692F782F48CED9
:101680003091140137FD0EC03F71B301A20104C0B7
:10169000440F551F661F771F3A95D2F7842B952B61
:1016A000A62BB72B3091130137FD04CE3F71B30148
:1016B000A20104C0440F551F661F771F3A95D2F749
:1016C000842B952BA62BB72BF5CD30910C0137FD34
:1016D000AFCD3F71B301A20104C0440F551F661F77
:1016E000771F3A95D2F7842B952BA62BB72BA0CD3D
:1016F00030910D0137FD9CCDECCF3091120137FDBB
:101700000EC03F71B301A20104C0440F551F661FF4
:10171000771F3A95D2F7842B952BA62BB72B3091B8
:10172000110137FDC7CDC2CF3091170137FD0EC073
:101730003F71B301A20104C0440F551F661F771FFC
:101740003A95D2F7842B952BA62BB72B3091160107
:1017500037FDA4CD5FCF30910D0537FD0EC03F7131
:10176000B301A20104C0440F551F661F771F3A95AD
:10177000D2F7842B952BA62BB72B3091150137FD73
:101780008DCD48CF809106058E7F80930605E09130
:101790002B0719AA43CCF601ED5AFF4F0C94322DBA
:1017A0008091F804811124C00E94E3283DE0C31613
:1017B000D104C8F0812C97CC7EA1772309F4D5CE33
:1017C0000E94E328FDE0CF16D10408F08CCCF6018E
:1017D000E05AFF4F0C94322D992009F43FC3A4FD29
:1017E000A0CE88ABA5CEF601E359FF4F0C94322D65
:1017F0000E94E3282DE0C216D10408F074CCF60153
:10180000E658FF4F0C94322D812C159A01110C943F
:10181000671460E083E00E94852085EF92E00E94DB
:10182000D32061E080E00E9485208FE70E94A42001
:1018300081E793E00E94D32030910505323011F00A
:101840000C94641430910405323011F40C94471454
:101850000E9495203091050501E01BE05BE0C52E5C
:10186000D12CE12CF12C4CCC812C159A002311F4B5
:101870000C94661C8091020590E08331910508F478
:1018800017C161E080E00E9485208FE092E00E9415
:10189000D32061E081E00E948520D1018C9187FFF7
:1018A00002C00C941F208F710E94D52310E030914C
:1018B0000505323009F430C3333010F40C94111F95
:1018C000333011F40C94F91E343011F00C94EC1EEA
:1018D000409104015091050180910601909107010A
:1018E0004817590710F40C94EC1ED1018C91982FD5
:1018F0009F7111F40C94E31E81508C93109205019A
:101900001092040117E077E0C72ED12CE12CF12CC6
:10191000F7CB812C159A002311F40C949C1C9E018A
:101920002B5E3F4F10E0690160E0A2E0FA2EF10E5D
:101930008F2D0E948520D6018D916D01805D0E94C2
:10194000A42061E08F2D0E948520EBA41E1511F4C8
:101950000C94F21F80E20E94A4201F5F143021F734
:1019600030910505323011F40C94BE1F10F40C9424
:10197000941E333011F40C94801E343011F00C940A
:10198000781E4091040150910501809106019091CB
:1019900007014817590710F40C94781ECBA4C11006
:1019A0000C94651E8D8981110C94651E83E48D8BCA
:1019B0002E898F893AE0839FC001112444E6249F39
:1019C000800D911D1124288D820F911D8038910565
:1019D00034F081E08E8B82E08F8B87E0888F34E05B
:1019E000109205011092040115E0F5E0CF2ED12CE4
:1019F000E12CF12C85CB812C159A60E080E001115F
:101A00000C94561D0E948520133011F40C9419205B
:101A100089E991E00E94D3208EE991E00E94D320D1
:101A200061E080E00E9485208AA50E94D52383EA98
:101A300091E00E94D3202091DE073091DF073AA386
:101A400029A38CA99DA99695982F88279795879566
:101A50009093DF078093DE070E948C2D97FF02C0D2
:101A60000C940E20803137E2930710F08FE097E25C
:101A70000E94BB2449A15AA15093DF074093DE077F
:101A800030910505333011F40C944020343011F4BA
:101A90000C942D20323009F02DCB309104053230DA
:101AA00009F42DCB0E9495203091050501E028CB4B
:101AB000FC01E957FF4F60E080E00C94322D812C4F
:101AC000159A01110C94751760E080E00E94852042
:101AD0008EEA92E00E94D32061E080E00E9485209F
:101AE0008FE70E94A42087EB92E00E94D3203091E0
:101AF0000505323011F00C94721730910405323024
:101B000011F40C946A170E9495203091050501E0AC
:101B100019E089E0C82ED12CE12CF12CF1CA812CDE
:101B2000159A01110C94C71760E084E00E9485208B
:101B300088EC92E00E94D32061E080E00E94852042
:101B40008FE70E94A4208FE992E00E94D320309179
:101B50000505323011F00C94C41730910405323071
:101B600011F40C94BC170E9495203091050501E0FA
:101B70001AE0FAE0CF2ED12CE12CF12CC1CA51E0B1
:101B800058AB81E099CA812C159A60E080E00E94F0
:101B900085200E948827813011F40C94051710F4D9
:101BA0000C944617823011F40C944017833021F4C2
:101BB00086E891E00E94D32061E080E00E948520C9
:101BC0000E948827882311F40C941217843020F483
:101BD0008DE891E00E94D3200E946E273091050588
:101BE000333011F40C941E17343011F40C944F1749
:101BF000323011F40C944C1712E07ACA159A60E056
:101C000080E00E9485208CE391E00E94D32061E077
:101C100080E00E94852053E0581510F40C94F516CE
:101C200062E0861608F0E3C2882009F4BEC271E0C3
:101C3000871204C08FE591E00E94D3203091050502
:101C4000323009F4BCC2333010F40C94DC1A333057
:101C500011F40C94CE1A343011F00C94CB1A8091FC
:101C60000C0187FF02C00C94ED1ACEA0C1100C9499
:101C7000C91A82E38093F80455E0852E11E038CA32
:101C8000812C60E082E00E9485208091060580FD25
:101C900099C2C8A89C1409F470C287E391E00E941D
:101CA000D320159A61E081E00E9485200E947A2865
:101CB0000E94092580910B0187FDFFC560E087E048
:101CC0000E948520EDA0E0FE76C080910B01881F68
:101CD0008827881F94E0981B892F0E94A42061E028
:101CE00087E00E948520FDA0F1FE63C080910A017B
:101CF000881F8827881F94E0981B892F0E94A420A2
:101D000030910505323009F409C308F488C2333034
:101D100009F474C2343009F0A4C2809104058430FF
:101D200009F49FC280910B0187FD1CC280910A01BA
:101D300086FFBDC582E0CDA0C826CDA210E0D8C9DF
:101D4000812C159A002309F476C5013009F4C8C422
:101D5000023009F498C4033009F467C4043009F46C
:101D60001EC4053009F4DAC3063009F499C30730FC
:101D700009F484C3083009F46AC3093009F455C36F
:101D80000A3009F42BC30B3009F40AC301E0309187
:101D90000505323009F4F6C2343009F4E1C23130BD
:101DA00009F4C9C21CE09CE0C92ED12CE12CF12C15
:101DB000A7C983E0A3CF83E090CF812C159A60E080
:101DC00001110C94CC1883E00E94852080EE91E0F4
:101DD0000E94D32061E080E00E9485208FE70E946E
:101DE000A42086EE91E00E94D32030910505323088
:101DF00011F00C94C91830910405323009F44FC524
:101E00000E949520309105051CA601E016E066E0D1
:101E1000C62ED12CE12CF12C73C930910405313040
:101E200049F00E9495201F5F109205011092040155
:101E30003091050540910401509105018091060102
:101E40009091070100E04817590708F49ACB1DE06C
:101E50006DE0C62ED12CE12CF12C52C918AA68CB0A
:101E6000812C159A011137C160E083E00E94852022
:101E700089E992E00E94D32061E080E00E94852001
:101E80008FE70E94A4208FE992E00E94D320309136
:101E90000505323009F01CC130910405323009F4D7
:101EA00003C10E9495203091050501E018E048E04B
:101EB000C42ED12CE12CF12C23C90E94852089E766
:101EC00092E00E94D320FBE02F2EF1E03F2E61E054
:101ED00080E00E9485208FE092E00E94D32061E0A4
:101EE00081E00E948520F101808187FDEBC08F7128
:101EF0000E94D52361E085E00E948520D1018C916C
:101F000086FFDAC081E992E00E94D32011E030918F
:101F10000505323009F0D0CC30910405323011F48F
:101F20000C94EC1E8091DE079091DF0760911901FF
:101F300002960E949C2D8091DE079091DF076091B0
:101F4000180103960E949C2D8091DE079091DF0777
:101F50006091170108960E949C2D8091DE07909158
:101F6000DF076091160109960E949C2D8091DE0783
:101F70009091DF0760910D050A960E949C2D80913B
:101F8000DE079091DF07609115010B960E949C2D52
:101F90008091DE079091DF07609114010C960E94FA
:101FA0009C2D8091DE079091DF07609113010D96C3
:101FB0000E949C2D8091DE079091DF0760911201B5
:101FC0000E960E949C2D8091DE079091DF07609114
:101FD00011010F960E949C2D8091DE079091DF07E2
:101FE0006091100104960E949C2D8091DE079091D3
:101FF000DF0760910F0143960E949C2D8091DE07C0
:102000009091DF0760910E0105960E949C2D8091B2
:10201000DE079091DF0760910D0106960E949C2DCE
:102020008091DE079091DF0760910C0107960E9476
:102030009C2D8091DE079091DF0760910B01409607
:102040000E949C2D8091DE079091DF0760910A012C
:1020500041960E949C2D8091DE079091DF07609150
:10206000090142960E949C2D8091DE079091DF0726
:102070006091080144960E949C2D0E9447030E9493
:10208000952060E081E00E94852089ED91E00E942A
:10209000D32087E090E00E942A240E94952030916E
:1020A000050517E00C947A0818E098E0C92ED12CA9
:1020B000E12CF12C0C947F0885E992E00E94D3205A
:1020C00011E0F5CB11E089E892E00E94D320EFCB3C
:1020D00018E00C947A08159A60E080E00E94852050
:1020E00087EA92E00E94D32080E3800F0E94A42020
:1020F00061E080E00E948520802F90E0FC01EE5D91
:10210000F84F7F01808190E00E94582230910505B0
:10211000323009F4D8C008F4C5C0333009F4B0C077
:10212000343009F0A5C0409104015091050180911F
:102130000601909107014817590708F499C0D70183
:102140008C91823008F490C081508C9310920501DC
:102150001092040118E028E0C22ED12CE12CF12CC1
:102160000C94800880910A0187FFE2CD0E94972796
:102170003091050510E00C94780880910E0590913F
:102180000F050E94BB24DAA8DD20B1F1159A8ACD93
:10219000159A60E080E00E9485208CE391E00E9427
:1021A000D32061E080E00E94852084E491E00E94D9
:1021B000D320812C30910505323009F044CD1DE04B
:1021C0000C94DF1A82E391E00E94D320159A6ACD25
:1021D000159A60E080E00E9485208CE391E00E94E7
:1021E000D32061E080E00E94852083E0882E8DE48A
:1021F00091E00E94D32022CD159854CD8091040502
:10220000833079F180910B0187FD20C086FF18C0D3
:1022100081E0CDA0C826CDA210E00C947808809172
:102220000B0186FD03C02DA12E7F2DA380910A01F5
:1022300086FD17C04DA14D7F4DA310E00C9478088A
:102240002DA121602DA310E00C94780890910A0133
:1022500097FFDCCF0E948B273091050510E00C948E
:10226000780810E00C94780881E0F70180836ECF45
:1022700018E068E0C62ED12CE12CF12C0C948008DB
:102280004091040150910501809106019091070150
:102290004817590768F3D7018C918E37D8F58F5FAF
:1022A0008C9354CF313021F730910405313001F354
:1022B0000F5F093008F001E00E949520309105057C
:1022C00018E00C94780830910405323089F260915E
:1022D000DE077091DF07605E7F4F48E050E083E2E9
:1022E00097E00E94922D0E9447030E94952060E093
:1022F00081E00E94852089ED91E00E94D32087E053
:1023000090E00E942A240E9495203091050518E053
:102310000C947A088EE7F701808318CF809104052A
:10232000823009F49ECF81E0CAA8C11080E08AAB58
:1023300010E00C94780830910405313009F432CD66
:102340000F5F0E94952085E08093DD0730910505A1
:102350001CE0BCE0CB2ED12CE12CF12C0C9480089D
:1023600080910405843009F41DCD8091DD078150F2
:102370008093DD071CE0ACE0CA2ED12CE12CF12CBF
:102380000C94800830910405323009F40BCD0E9482
:10239000A2270E949520309105051CE00C947A0834
:1023A0008091DD078823A1F1159A60E080E00E940A
:1023B00085208EEB93E00E94D32061E080E00E94B4
:1023C000852086EC93E00E94D3208091DD07805D1C
:1023D0000E94A4208EE70E94A420D9CC159A60E028
:1023E00080E00E94852085EB93E00E94D32061E08D
:1023F00081E00E9485208091E5070E94392180912B
:10240000E4070E9439218091E3070E943921BFCC63
:102410000E94952060E080E00E9485208DEC93E092
:102420000E94D3200E949B05FFCF159A60E080E0B8
:102430000E9485208CEA93E00E94D32061E080E036
:102440000E9485208CE297E00E94D320A0CC159AB0
:1024500060E080E00E94852084EA93E00E94D3201F
:1024600061E081E00E94852087E80E94392182EDA9
:102470000E94392181EB0E94392189CC159A60E0B4
:1024800080E00E94852085E993E00E94D32061E0EE
:1024900080E00E9485208DE993E00E94D32077CCD4
:1024A000159A60E080E00E9485208DE893E00E940C
:1024B000D32061E081E00E9485200E94062590E003
:1024C00062E370E00E941E2DCB016AE070E00E9482
:1024D0001E2D805D0E94A4208EE20E94A4200E94F6
:1024E000062590E065E070E00E941E2DCB016AE0B9
:1024F00070E00E941E2D805D0E94A4200E9406258F
:1025000090E0880F991F6AE070E00E941E2D805DA8
:102510000E94A42086E50E94A42039CC159A60E090
:1025200080E00E94852081E893E00E94D32061E052
:1025300081E00E9485200E945A29F82E89E2F89EA7
:10254000812D112482958F7009F44FC0805D0E9407
:10255000A4208DECF89EE12C1124E694E694E694F8
:10256000E89E812D11248695869586953E2D2AE03C
:10257000829F30191124832F805D0E94A4208EE257
:102580000E94A4208F2D4AE0E49E80191124805DD2
:102590000E94A4208AE893E00E94D320F8CB159AE9
:1025A00060E080E00E9485208AE693E00E94D320CC
:1025B00061E080E00E94852080911A018F3F61F1E7
:1025C0008A3000F18436A8F480E793E00E94D3209B
:1025D00080911A010E94A92361E084E00E94852075
:1025E00083E793E00E94D320D2CB80E20E94A42014
:1025F000B0CF8DE20E94A42080911A0190E00E9449
:10260000D721EACF8FE693E00E94D32080911A0170
:10261000805D0E94A420E0CF61E080E00E948520E0
:1026200088E793E00E94D320B2CB159A60E080E067
:102630000E94852081E693E00E94D32061E080E043
:102640000E9485208BE50E94A42061E087E00E9423
:1026500085208DE50E94A42061E081E00E94852014
:102660008091120590E0069667E070E00E941E2DB2
:10267000F62E16E0FF2081F1FA948FEF0E94A4203D
:102680001150C1F784CB159A60E080E00E9485204C
:102690008BEF92E00E94D32061E080E00E948520D1
:1026A0008FB7F8942091090530910A058FBFADECE2
:1026B000BCEC0E943B2D96958795969587959695AF
:1026C00087950E94582261E085E00E9485208DE573
:1026D00093E00E94D3205BCB80E20E94A420D0CF65
:1026E000159A60E085E00E948520CEA0C1109EC0B2
:1026F00089E40E94A42060E080E00E94852080910F
:10270000060580FD8EC08091F90483FD88C083E0BA
:102710000E94A42089A9843608F083E60E94A92398
:1027200085E20E94A42060E087E00E948520DD24ED
:10273000D3949D1409F46FC09D1408F468C032E06E
:10274000E32E9E1003C082E50E94A42061E082E097
:102750000E9485208091F90482FD57C083E00E9489
:10276000A42061E084E00E9485208091F90481FD2D
:102770004AC080E20E94A42061E085E00E9485209A
:102780008091F90480FD2DC080E20E94A42061E0C8
:1027900087E00E94852080912C058130F1F018F1AE
:1027A0008230B9F0833019F48AE20E94A42061E0FB
:1027B00080E00E94852080912A05813001F1D8F0C7
:1027C0008230A9F0833009F0E2CA8AE20E94A42094
:1027D000DECA82E40E94A420EACF84E40E94A420FE
:1027E000E6CF82E0D2CF8DE20E94A420E0CF82E447
:1027F0000E94A420CCCA8DE20E94A420C8CA84E40E
:102800000E94A420C4CA81E0B5CF84E0A8CF8EE4A2
:102810000E94A4209BCF86E40E94A42097CF84E04E
:1028200077CF82E391E00E94D3207DCF8EA1805D9F
:102830000E94A42060CF60E083E00E94852087E5AD
:1028400093E00E94D32061E080E00E9485208FE722
:102850000E94A42081E793E00E94D32030910505D7
:10286000323009F04BC530910405323009F43EC5D1
:102870000E943E240E9495203091050501E01CE055
:102880004CE0C42ED12CE12CF12C0C9480081BE0E0
:10289000BBE0CB2ED12CE12CF12C0C947F0816E060
:1028A00046E0C42ED12CE12CF12C0C947F082DA1F4
:1028B00022602DA310E00C94780880910A0187FF14
:1028C000FDC90E946E271CCA1BE00C947A08159A59
:1028D00060E080E00E948520013009F46DC2023082
:1028E00009F451C2033009F43DC2043009F42DC289
:1028F000053009F423C2063009F46FC1073009F42A
:1029000016C2083009F40CC2093009F4F9C10A30C2
:1029100009F4D7C1B1E0AB16B1E0BB0609F492C12E
:1029200001E0BBE1AB16B1E0BB0609F462C161E0B6
:1029300084E00E948520D5018C9190E00E94D721EF
:1029400018E030910505323009F49CC008F487C0C6
:10295000333009F464C0343009F059C040910401A7
:102960005091050180910601909107014817590780
:1029700008F44DC0183099F081E090E001C0880F54
:102980001A95EAF78095F5019081892380831BE0F1
:10299000BBE0CB2ED12CE12CF12C0C948008CF8CF9
:1029A000D8A0AC14BD0479F121E0A21621E0B20652
:1029B00051F1D5018C91823010F081508C9380912F
:1029C00001018A3018F48AE0809301018B8D811116
:1029D00002C081E08B8F8A8D811102C081E08A8FD5
:1029E00080911B01823018F482E080931B011092C9
:1029F0000501109204011BE0ABE0CA2ED12CE12CA2
:102A0000F12C0C9480088091F90480FDD2CF1BE05A
:102A10002BE0C22ED12CE12CF12C0C94800840919B
:102A2000040150910501809106019091070148171A
:102A3000590768F3183009F4A3C081E090E001C0A1
:102A4000880F1A95EAF7F5019081892B80831BE0A6
:102A50008BE0C82ED12CE12CF12C0C948008313065
:102A6000B1F630910405313091F20F5F0E9495204C
:102A7000309105051BE06BE0C62ED12CE12CF12C2A
:102A80000C94800830910405323009F26B8D81E19D
:102A900090E00E949C2D8A8D880F682F660F660F2C
:102AA000680F82E190E00E949C2D60911B0184E2FE
:102AB00090E00E949C2D6091D00583E190E00E94FF
:102AC0009C2D609101018DE190E00E949C2D898DEB
:102AD000BAE08B9FC00111249093030180930201FF
:102AE000692F82E090E00E949C2D6091020183E0BA
:102AF00090E00E949C2D0E94470320912107309175
:102B00002207369527953695279536952795AFE474
:102B1000BBE10E943B2D9695879596958795969556
:102B200087958B8F0E9457299DEC899F812D1124B9
:102B30008695869586958A8F2091020130910301B2
:102B4000ADECBCEC0E943B2D9695879596958795AC
:102B500096958795898F0E94952060E081E00E947C
:102B6000852089ED91E00E94D32087E090E00E94CB
:102B70002A240E949520309105051BE00C947A08C8
:102B8000CF8CD8A0AC14BD0419F121E0A21621E02D
:102B9000B206F1F0D5018C918F3F11F08F5F8C93CD
:102BA000898D8B3010F08AE0898F8B8D843610F000
:102BB00083E68B8F8A8D8A3110F089E18A8F80912C
:102BC0001B018B3008F413CF8AE080931B010FCFD9
:102BD0008091F90480FF1BCFDDCF8FE293E00E944C
:102BE000D32061E087E00E94852083E193E00E948A
:102BF000D32061E084E00E94852080911B011DECC0
:102C0000819F812D1124869586958695805D0E94F1
:102C1000A4208EE20E94A42090911B01919F812DFF
:102C20001124869586958695EAE08E9F9019112449
:102C3000892F805D0E94A42018E09BE1A92E91E0DD
:102C4000B92E7FCE01E061E083E00E948520809173
:102C5000010199E2899F812D112482958F70805DF9
:102C60000E94A4208EE20E94A420809101011DEC0C
:102C7000819F812D1124869586958695819F912D22
:102C800011249695969596957AE0979F8019112430
:102C9000805D0E94A42090910101919F812D1124BB
:102CA000869586958695AAE08A9F90191124892F8A
:102CB000805D0E94A42018E021E0A22E21E0B22E27
:102CC00040CE89E493E00E94D32034E014E061E038
:102CD00084E03DAF0E9485208091D00590E03DAD1D
:102CE00002C0959587953A95E2F780FF10C082E57E
:102CF00093E00E94D32040EDA42E45E0B42E21CED7
:102D00008EE292E00E94D32032E012E0E0CF8CE02D
:102D100092E00E94D32030EDA32E35E0B32E11CEE9
:102D200080E493E00E94D32030E010E0D0CF87E32E
:102D300093E00E94D32031E011E0C9CF87E293E015
:102D40000E94D32033E013E0C2CF8EE193E00E94D3
:102D5000D32061E087E00E94852083E193E00E9418
:102D6000D32071CF85E193E00E94D32061E087E01A
:102D70000E94852083E193E00E94D320BE01675E1C
:102D80007F4F5B01D4CD86E093E00E94D32061E0C9
:102D900080E00E9485208EE093E00E94D32061E0D5
:102DA00087E00E94852083E193E00E94D320AE015A
:102DB000465E5F4F5A01BBCD8BEF92E00E94D3205D
:102DC00061E080E00E94852081E093E00E94D320B2
:102DD00061E087E00E9485208BEC92E00E94D32086
:102DE0009E01255E3F4F5901A2CD84E0881609F46B
:102DF0003FC095E089120C941E0E88E691E00E9477
:102E0000D32065E0862E0C941E0E88E791E00E9488
:102E1000D32061E080E00E9485200E9488278111F4
:102E20000C94E60D8DE391E00E94D3200E946E2762
:102E300030910505333011F00C94F40D30910405F8
:102E4000333011F40C94FC0D0E948B273091050552
:102E500012E00C947808159A60E080E00E948520CA
:102E60008CE391E00E94D32061E080E00E94852005
:102E700086E591E00E94D32074E0872E0C941E0E0C
:102E80008FE791E00E94D3200C94DC0D81E791E064
:102E90000E94D3200C94DC0D1DE00C947808309136
:102EA0000405343011F40C94FC0D0E9497273091E6
:102EB000050512E00C947808159A60E080E00E9405
:102EC00085208CE391E00E94D32061E080E00E94A5
:102ED000852093CF19E089E0C82ED12CE12CF12C6C
:102EE0000C947F0819E00C947A08159A60E080E051
:102EF0000E948520013009F43AC4023009F42AC442
:102F0000033009F412C4043009F4FAC331EEC32EBD
:102F100037E0D32E4EE2E42E45E0F42E01E060E0EF
:102F200087E00E948520D6018C918F3F09F4E4C38D
:102F3000F7019081981708F0DDC383E00E94A42078
:102F400061E085E00E948520D7018C9190E00E948D
:102F50006D2130910505323009F47EC3333009F418
:102F60005EC3313009F449C319E059E0C52ED12CB4
:102F7000E12CF12C0C9480081AE00AE0C02ED12C30
:102F8000E12CF12C0C947F081AE00C947A08159A25
:102F900060E080E00E948520013009F4D1C0023059
:102FA00009F4BCC0033009F49FC001E0309105056D
:102FB000323009F466C008F451C0333091F1343036
:102FC00041F54091040150910501809106019091D5
:102FD000070148175907E8F0EDA5FEA58081882371
:102FE00011F0815080838E8D803310F480E38E8FBA
:102FF0008D8D803D10F480ED8D8F10920501109223
:1030000004011AE0EAE0CE2ED12CE12CF12C0C9434
:1030100080081AE04AE0C42ED12CE12CF12C0C944B
:103020008008409104015091050180910601909122
:1030300007014817590768F3ADA5BEA58C918F3FCE
:1030400011F08F5F8C938E8D8A3410F089E48E8F0F
:103050008D8D803F90F28FEE8D8FCFCF3130C9F6BE
:10306000309104053130A9F20F5F0E949520309114
:1030700005051AE07AE0C72ED12CE12CF12C0C9436
:10308000800830910405323021F26E8D80E090E0AE
:103090000E949C2D6D8D8FE190E00E949C2D6C8D87
:1030A0008EE190E00E949C2D0E94470380911105C3
:1030B0008E8F809110058D8F809100018C8F0E94E2
:1030C000952060E081E00E94852089ED91E00E94DA
:1030D000D32087E090E00E942A240E94952030911E
:1030E00005051AE00C947A088FED92E00E94D32037
:1030F0001C8D61E082E0112309F43FC01F3F89F17C
:103100000E94852082EF92E00E94D320812F0E94AE
:103110003921CE014C969EA78DA748CF86ED92E02F
:103120000E94D32061E083E00E9485208D8D805D28
:103130000E94D5239E01235E3F4F3EA72DA736CF89
:103140008DEC92E00E94D32061E084E00E94852013
:103150008E8D8F5E0E94A420FE017E96FEA7EDA7B5
:1031600025CF0E9485208DEE92E00E94D320BE01E3
:10317000645E7F4F7EA76DA719CF0E94852088EEE1
:1031800092E00E94D320AE01445E5F4F5EA74DA740
:103190000DCF16E00C947A0880E00E9485208FE025
:1031A00092E00E94D3208CA50E94D52360E085E0A8
:1031B0000E948520DCA4CD2CD12C2396DFAECEAE90
:1031C00023978091FE049091FF04A0910005B09197
:1031D00001050CA404C0B695A795979587950A9408
:1031E000D2F780FD48C18091FA049091FB04A09130
:1031F000FC04B091FD040CA404C0B695A795979566
:1032000087950A94D2F780FF31C18DE092E00E9449
:10321000D32030910505323009F432C108F408C1D9
:10322000333009F4A7C0343009F09CC04091040148
:1032300050910501809106019091070148175907A7
:1032400008F490C08091FA049091FB04A091FC04D2
:10325000B091FD04AC01BD0122960FAC229704C0D1
:1032600076956795579547950A94D2F740FF49C0E0
:10327000B301A20122960FAC229704C0440F551F40
:10328000661F771F0A94D2F76A017B01C094D0941D
:10329000E094F0948C219D21AE21BF218093FA040B
:1032A0009093FB04A093FC04B093FD048091FE0472
:1032B0009091FF04A0910005B0910105482B592B76
:1032C0006A2B7B2B4093FE045093FF046093000510
:1032D00070930105109205011092040116E056E06A
:1032E000C52ED12CE12CF12C0C9480081CE0ACE014
:1032F000CA2ED12CE12CF12C0C947F081CE00C94EC
:103300007A08B301A20122960FAC229704C0440FA1
:10331000551F661F771F0A94D2F740955095609508
:10332000709584239523A623B7238093FA04909362
:10333000FB04A093FC04B093FD048091FE049091E3
:10334000FF04A0910005B0910105482359236A2389
:103350007B234093FE045093FF0460930005709319
:103360000105B8CF16E0E6E0CE2ED12CE12CF12CF1
:103370000C94800840910401509105018091060150
:10338000909107014817590768F34091FE04509146
:10339000FF046091000570910105DB01CA012296CE
:1033A0000FAC229704C0B695A795979587950A9478
:1033B000D2F780FF9FC08091FA049091FB04A09106
:1033C000FC04B091FD047301620122960FAC2297B8
:1033D00004C0CC0CDD1CEE1CFF1C0A94D2F727960F
:1033E000CCAEDDAEEEAEFFAE2797C094D094E094A5
:1033F000F0944C215D216E217F214093FE04509377
:10340000FF04609300057093010527964CAD5DADF8
:103410006EAD7FAD2797842B952BA62BB72B809372
:10342000FA049093FB04A093FC04B093FD0452CFE4
:10343000313009F097CF30910405313009F492CF43
:103440009CA59F5F9CA79D3108F01CA610920501CA
:10345000109204010E9495203091050516E046E087
:10346000C42ED12CE12CF12C0C9480088EEE91E02E
:103470000E94D320CECE88E192E00E94D320C9CE14
:1034800030910405323009F46DCF4091FE04509123
:10349000FF0460910005709101058091DE07909115
:1034A000DF0748960E94AA2D4091FA045091FB0430
:1034B0006091FC047091FD048091DE079091DF071C
:1034C0004C960E94AA2D0E9447030E94952060E01E
:1034D00081E00E94852089ED91E00E94D32087E061
:1034E00090E00E942A240E9495203091050516E064
:1034F0000C947A088091FA049091FB04A091FC044A
:10350000B091FD046C017D0122960FAC229704C09E
:10351000F694E794D794C7940A94D2F7C9A2DAA292
:10352000EBA2FCA2C0FC4FCF7301620122960FAC4C
:10353000229704C0CC0CDD1CEE1CFF1C0A94D2F7B1
:103540002796CCAEDDAEEEAEFFAE2797C094D094FA
:10355000E094F0948C219D21AE21BF218093FA0448
:103560009093FB04A093FC04B093FD0427968CADCC
:103570009DADAEADBFAD2797482B592B6A2B7B2B4A
:103580004093FE045093FF0460930005709301057F
:10359000A1CE74E0872E11E00C94780880910C0184
:1035A00087FD16C08110F7CF82E38093F80488244A
:1035B000839411E00C947808313069F711E044E00D
:1035C000D42E8D100C94780823E0822E0C94780869
:1035D000E2E08E2E11E00C947808812C11E00C941E
:1035E0007808A8950E94BD2A8FB7F89490910101A0
:1035F000909308058FBF0C94D109309104053130A8
:1036000009F4B2CC0F5F0E9495203091050519E0B6
:10361000B9E0CB2ED12CE12CF12C0C9480088091B8
:103620000405833009F4A0CCB7EECB16B7E0DB0677
:1036300009F453C0FBE2CF16F7E0DF0609F440C0FF
:10364000F7018081D6018C9319E089E0C82ED12C36
:10365000E12CF12C0C94800830910405323009F4EF
:1036600083CC6091E10780E290E00E949C2D609104
:10367000E00781E290E00E949C2D6091E70782E2E2
:1036800090E00E949C2D60912B0783E290E00E94C5
:103690009C2D0E9447030E94952060E081E00E94DB
:1036A000852089ED91E00E94D32087E090E00E9480
:1036B0002A240E9495203091050519E00C947A087F
:1036C000D7018C91855080932B0719E099E0C92E82
:1036D000D12CE12CF12C0C948008F70180818B5FB8
:1036E0008093E70719E029E0C22ED12CE12CF12CC0
:1036F0000C94800884E022CC8DE20E94A42020CC8F
:1037000083E092E00E94D32061E080E00E94852067
:1037100083EC92E00E94D3205BE2C52E57E0D52EC9
:103720006FE2E62E65E0F62EFACB83E092E00E948F
:10373000D32061E080E00E9485208FEB92E00E9420
:10374000D32077EEC72E77E0D72EEFE2EE2EE5E01E
:10375000FE2EE5CB83E092E00E94D320F0EECF2E48
:10376000F7E0DF2EAFE2EA2EA5E0FA2ED8CB89EF04
:1037700091E00E94D320B1EECB2EB7E0DB2E1EE20B
:10378000E12E15E0F12ECBCB0E943E240C94370A9B
:103790008FB7F89410920C0510920B058FBF809193
:1037A000060588AF809110058983809111058A8371
:1037B0008FE08B8383E58E8380910E0590910F05BA
:1037C0009F8388878091060580FF50C081E08987AC
:1037D000B1E09B1609F444C0E2E09E16F1F1FBA9AA
:1037E000F130F1F14CA14A875BA15B876AA16C873C
:1037F00079A17D87809106058E870E9406258F8797
:103800004B81BE016F5F7F4F80EF97E00E94722C6B
:1038100029A13AA14BA15CA129AF3AAF4BAF5CAF54
:103820009FAA3EA13EAB0C94C5090E94852081E66B
:1038300092E00E94D32013E1212E11E0312E0C944E
:10384000410C0E94852088E592E00E94D32084E10B
:10385000282E81E0382E0C94410C32E03BABC2CFD5
:1038600089858068898721E02BABBCCF9EA191110F
:103870000EC01986ADCF93E0892E0C94C40DE3E001
:103880008E2E0C94410E53E0852E0C94A10EAEA109
:10389000EA2FF0E0EE5DF84F80818F5F898798CF47
:1038A00063E0862E0C94050CA3E08A2E0C94900DF8
:1038B00093E0892E0C94600D53E0852E0C94310F0B
:1038C00023E0822E159A01110C943A0C60E082E0FC
:1038D0000E94852082EF91E00E94D32061E080E089
:1038E0000E9485208FE70E94A42086EE91E00E942E
:1038F000D32030910505323009F0ACC33091040576
:10390000323009F49FC3109202050E949520309135
:10391000050501E017E097E0C92ED12CE12CF12C30
:103920000C94800873E0872E0C94DE0E13E0812E39
:10393000159A01110C948F0C60E085E00E9485209F
:103940008DEC91E00E94D32061E080E00E94852010
:103950008FE70E94A42081ED91E00E94D320309156
:103960000505323009F0FBC230910405323009F40C
:10397000EEC240910E0550910F0557FD8DC29A0180
:10398000369527953695279536952795A5ECB0E27F
:103990000E943B2DFC01F295E295EF70EF27FF703E
:1039A000EF279F01ADECBCEC0E943B2D96958795CF
:1039B00096958795969587959C01220F331F880FC2
:1039C000991F880F991F880F991F820F931FE81B5B
:1039D000F90BED8B9A013695279536952795ABE730
:1039E000B4E10E943B2DFC01F695E7959F01ADECFB
:1039F000BCEC0E943B2D969587959695879596955C
:103A000087959C01220F331F880F991F880F991FDC
:103A1000880F991F820F931FE81BF90BEE8B9A01F9
:103A20000E943B2DFC01F695E795F695E795F695F6
:103A3000E7959F010E943B2D9695879596958795D2
:103A4000969587959C01220F331F880F991F880F29
:103A5000991F880F991F820F931F7F01E81AF90A97
:103A6000EF8ACF01880F991FEE0FFF1FEE0FFF1F88
:103A7000EE0FFF1F8E0F9F1F481B590B488F0E9490
:103A80009520309105051BA601E015E0B5E0CB2E91
:103A9000D12CE12CF12C0C94800883E0882E159A0F
:103AA00060E080E0002311F40C94020D0E94852058
:103AB00086EA91E00E94D32061E080E00E948520A8
:103AC000133009F456C286EB91E00E94D3208EE7B2
:103AD0000E94A42030910505313009F443C23430EE
:103AE00011F00C94800880910405823011F40C943C
:103AF00080080E94952060E080E00E9485201330BD
:103B000009F4C1C186EC91E00E94D3206AA58FE13F
:103B10000E9472050E94470361E080E00E948520B8
:103B200008E081E090E00E942A248EE20E94A42016
:103B30000150B9F783E090E00E942A240E9495206A
:103B4000309105051DE00C947A080E94852081E7DC
:103B500092E00E94D320A1E12A2EA1E03A2E0C94FB
:103B6000410C0E9485208AE692E00E94D320B2E1B7
:103B70002B2EB1E03B2E0C94410C0E94852080E45A
:103B800092E00E94D32036E1232E31E0332E0C94B4
:103B9000410C0E94852087E392E00E94D32047E1F8
:103BA000242E41E0342E0C94410C0E94852080E5A7
:103BB00092E00E94D32095E1292E91E0392E0C94B9
:103BC000410C0E94852089E492E00E94D3202DE0E0
:103BD000222E25E0322E0C94410C0E9485208EE28C
:103BE00092E00E94D32058E0252E51E0352E0C940F
:103BF000410C0E94852085E292E00E94D32069E07A
:103C0000262E61E0362E0C94410C0E9485208CE11A
:103C100092E00E94D3207CE0272E71E0372E0C9496
:103C2000410C0E94852085E192E00E94D320EDE0C6
:103C30002E2EE1E03E2E0C94410C0E94852081E165
:103C400092E00E94D320FEE02F2EF1E03F2E0C9454
:103C5000410C0E94852089E092E00E94D320AFE0D1
:103C60002A2EA1E03A2E0C94410C0E94852083E07C
:103C700092E00E94D320B0E12B2EB1E03B2E0C94B9
:103C8000410C0E9485208EEF91E00E94D32018E124
:103C9000212E11E0312E0C94410C0E94852089EFD9
:103CA00091E00E94D32089E1282E81E0382E0C94E7
:103CB000410C0E94852080E892E00E94D320EAE037
:103CC0002E2EE1E03E2E0C94670FE5E1F0E0EC0FC4
:103CD000FD1FDBA4ED0DF11D80818150893008F4BA
:103CE00080838D898A3010F40C94F00C0C94D80CDD
:103CF00015E0F5E0CF2ED12CE12CF12C0C948008AE
:103D000040910401509105018091060190910701B5
:103D10004817590768F3FBA4F11048C08D898A3011
:103D2000B8F01D8A0C94F00C313011F78091040525
:103D30008130F1F2EBA5EF5FEBA7E430C8F21BA6F0
:103D400015E0E5E0CE2ED12CE12CF12C0C9480086E
:103D5000893011F40C94F00C40E050E0E5E1F0E023
:103D6000EC0FFD1FE40FF51F8F5F80838D898A3074
:103D700010F40C94F00C2E898F894AE0849FC001C6
:103D8000112454E6259F800D911D1124288D820F4A
:103D9000911D8038910514F40C94F00C81E08E8B09
:103DA00082E08F8B87E0888F0C94F00CCBA44C2D95
:103DB00050E0E5E1F0E0EC0FFD1FE40FF51F80811E
:103DC0008930A0F6CBCF112379F086FF0DC08CE1AE
:103DD000F10180830C947E0C17E077E0C72ED12C84
:103DE000E12CF12C0C94800880E8D1018C930C9488
:103DF0007E0C409104015091050180910601909143
:103E000007014817590740F3D1018C9187FD33C052
:103E1000982F9F719C3120F58F5FF10180830C9466
:103E20007E0C3130C9F6309104053130A9F2809111
:103E300002058F5F80930205833110F01092020516
:103E400010920501109204010E9495203091050501
:103E500017E067E0C62ED12CE12CF12C0C948008E1
:103E6000982F9074112351F086FD08C080E4D10191
:103E70008C930C947E0C1C920C947E0C945EF1013D
:103E800090830C947E0C8EEB91E00E94D3206FE126
:103E90008AA50E9472053ECE83E48D8BFA01FF77DE
:103EA0009F013695279536952795ABE7B4E10E949B
:103EB0003B2DAC01569547959A01ADECBCEC0E94A8
:103EC0003B2D9695879596958795969587959C0118
:103ED000220F331F880F991F880F991F880F991F72
:103EE000820F931F481B590B4E8B9F010E943B2D45
:103EF000AC015695479556954795569547959A0125
:103F00000E943B2D969587959695879596958795D2
:103F10009C01220F331F880F991F880F991F880F4C
:103F2000991F820F931F6A01C81AD90ACF8ACA0142
:103F3000880F991F440F551F440F551F440F551FDD
:103F4000840F951FAF01481B590B488F98CD15E082
:103F500055E0C52ED12CE12CF12C0C947F0815E0F6
:103F60000C947A0811500E949520309105050C940C
:103F70007A088EEA91E00E94D320A9CD3091040501
:103F8000323009F4B5CE8D898A3088F18E896F89F7
:103F90005AE0659FB001112494E6899F600D711D60
:103FA0001124888D680F711D70688091DE079091D3
:103FB000DF070E94B22D0E9447030E94952060E017
:103FC00081E00E94852089ED91E00E94D32087E066
:103FD00090E00E942A240E9495203091050515E06A
:103FE0000C947A088EE50E94A4200C94AD0C4E89A6
:103FF0009F8928EE33E0829FB001839F700D1124CA
:10400000A4E64A9F600D711D1124BAE09B9F600DCC
:10401000711D1124888D680F711DC7CFAC015F77AA
:104020004038510510F40C94380D8FE790E80C944B
:10403000380D84E991E00E94D3200C940C0D10E01F
:104040000C94631017E027E0C22ED12CE12CF12C48
:104050000C947F0817E00C947A0880910405843052
:1040600011F40C947F088AA5813011F40C947F0818
:1040700081508AA7A82FB0E0BDABACAB0C947F08F1
:1040800080910405833011F40C947F085AA55431B3
:1040900010F00C947F085F5F5AA7652F70E07DAB2E
:1040A0006CAB0C947F08662341F1429A439898B117
:1040B0009F7098B998B1282F207F922B98B9439A76
:1040C00044E04A95F1F7439898B19F7098B998B138
:1040D00040E1849F90011124292B28B9439A94E050
:1040E0009A95F1F74398611103C08150833038F0FD
:1040F0009DED9A95F1F7000008954298D7CF89E990
:1041000095E10197F1F700C00895660F660F660FFD
:10411000860F809313050895662321F060E0805494
:104120000C94532080580C94532060E081E00E944E
:10413000532010921305E4E1F5E080E2819395E0CD
:10414000E432F907D9F70895CF9390911305482FDA
:10415000082E000C550BE92FF0E0EC5EFA4F2081A1
:1041600030E042175307A1F0C82F692F6695669576
:104170006695892F87700E948C2061E08C2F0E94A9
:10418000532090911305E92FF0E0EC5EFA4FC083C5
:104190009F5F903120F010921305CF910895909376
:1041A0001305CF910895CF93DF93EC012196FC0185
:1041B0008081882329F00E94A42089918111FBCF5E
:1041C000DF91CF910895CF93C82F97B19C6F97B986
:1041D00042982FEF8FE593E0215080409040E1F727
:1041E00000C00000439898B19F7098B998B190634F
:1041F00098B9439A24E02A95F1F743988FEF95E315
:104200000197F1F700C00000439A94E09A95F1F706
:10421000439881EF91E00197F1F700C0439A94E051
:104220009A95F1F7439881EF91E00197F1F700C07B
:1042300098B19F7098B9459A439A94E09A95F1F78E
:10424000439881EF91E00197F1F700C060E088E2C8
:104250000E94532060E088E00E9453200E94952035
:1042600060E086E00E94532060E08C2FCF910C9498
:1042700053201F93CF93DF93CDB7DEB760970FB670
:10428000F894DEBF0FBECDBF182F80E1E2E2F1E06F
:10429000DE01119601900D928A95E1F7812F8295AA
:1042A0008F70E1E0F0E0EC0FFD1FE80FF11D808161
:1042B0000E94A4201F70E1E0F0E0EC0FFD1FE10F71
:1042C000F11D808160960FB6F894DEBF0FBECDBFA2
:1042D000DF91CF911F910C94A4200F931F93CF9344
:1042E000DF938C019C013695279536952795ABE792
:1042F000B4E10E943B2DFC01F695E7959F01ADECE2
:10430000BCEC0E943B2DAC015695479556954795C0
:1043100056954795CA01880F991F440F551F440FA2
:10432000551F440F551F480F591FCF01841B950B74
:10433000805D0E94A4209801ADECBCEC0E943B2D56
:10434000EC01D695C795D695C795D695C7959E018C
:104350000E943B2DAC01569547955695479556952D
:104360004795CA01880F991F440F551F440F551FC9
:10437000440F551F480F591FCE01841B950B805DBC
:104380000E94A420CE01880F991FCC0FDD1FCC0FF7
:10439000DD1FCC0FDD1FC80FD91FC8018C1B9D0B63
:1043A000805DDF91CF911F910F910C94A420CF934A
:1043B000DF93EC018436910508F46FC09C013695BB
:1043C000279536952795ABE7B4E10E943B2DFC017C
:1043D000F695E7959F01ADECBCEC0E943B2DAC013E
:1043E000569547955695479556954795CA01880F16
:1043F000991F440F551F440F551F440F551F480F59
:10440000591FCF01841B950B805D0E94A4209E0143
:10441000ADECBCEC0E943B2DFC01F695E795F695C2
:10442000E795F695E7959F010E943B2DAC015695C7
:1044300047955695479556954795CA01880F991FF8
:10444000440F551F440F551F440F551F480F591F48
:10445000CF01841B950B805D0E94A4209E01ADECD2
:10446000BCEC0E943B2D96958795969587959695E1
:1044700087959C01220F331F880F991F880F991F62
:10448000880F991F820F931F9E01281B390BC901AA
:10449000805DDF91CF910C94A42080E20E94A42043
:1044A000CA30D10508F0B3CF80E20E94A420D6CF55
:1044B000CF93DF93EC01883E23E0920708F49EC07F
:1044C0009C01369527953695279536952795A5EC29
:1044D000B0E20E943B2DFC01F295E295EF70EF27D0
:1044E000FF70EF279F01ADECBCEC0E943B2DAC01AF
:1044F000569547955695479556954795CA01880F05
:10450000991F440F551F440F551F440F551F480F47
:10451000591FCF01841B950B805D0E94A4209E0132
:104520003695279536952795ABE7B4E10E943B2D4C
:10453000FC01F695E7959F01ADECBCEC0E943B2D8C
:10454000AC01569547955695479556954795CA019E
:10455000880F991F440F551F440F551F440F551FB7
:10456000480F591FCF01841B950B805D0E94A4202A
:104570009E01ADECBCEC0E943B2DFC01F695E7954D
:10458000F695E795F695E7959F010E943B2DAC01C6
:10459000569547955695479556954795CA01880F64
:1045A000991F440F551F440F551F440F551F480FA7
:1045B000591FCF01841B950B805D0E94A4209E0192
:1045C000ADECBCEC0E943B2D969587959695879512
:1045D000969587959C01220F331F880F991F880F8E
:1045E000991F880F991F820F931F9E01281B390B5B
:1045F000C901805DDF91CF910C94A42080E20E94DC
:10460000A420C436D10508F08ACF80E20E94A420FD
:10461000CA30D10508F0ACCF80E20E94A420CFCFF1
:104620000F931F93CF93DF938C019C0136952795B1
:104630003695279536952795A5ECB0E20E943B2D3F
:10464000FC01F295E295EF70EF27FF70EF279F01D5
:10465000ADECBCEC0E943B2DAC01569547955695B0
:10466000479556954795CA01880F991F440F551FC6
:10467000440F551F440F551F480F591FCF01841B6E
:10468000950B805D0E94A42098013695279536955C
:104690002795ABE7B4E10E943B2DFC01F695E79529
:1046A0009F01ADECBCEC0E943B2DAC0156954795AB
:1046B0005695479556954795CA01880F991F440FFF
:1046C000551F440F551F440F551F480F591FCF0149
:1046D000841B950B805D0E94A4209801ADECBCEC7E
:1046E0000E943B2DEC01D695C795D695C795D695DA
:1046F000C7959E010E943B2D969587959695879527
:10470000969587959C01220F331F880F991F880F5C
:10471000991F880F991F820F931F9E01281B390B29
:10472000C901805D0E94A420CE01880F991FCC0F83
:10473000DD1FCC0FDD1FCC0FDD1FC80FD91FC80137
:104740008C1B9D0B805DDF91CF911F910F910C947D
:10475000A420CF93C82F8A3098F480E20E94A4202E
:104760008DECC89F812D11248695869586959AE0BB
:10477000899FC01911248C2F805DCF910C94A420A7
:104780009DEC899F812D1124869586958695899F1C
:10479000912D11249695969596952AE0929F8019D1
:1047A0001124805D0E94A420DBCFCF93DF93D82F0C
:1047B0009DEC899FC12D1124C695C695C695C99FAC
:1047C000912D11249695969596958C2F2AE0929F7F
:1047D00080191124805D0E94A4208D2F9AE0C99F2A
:1047E00080191124805DDF91CF910C94A420CF9289
:1047F000DF92EF92FF921F93CF93DF931F92CDB77B
:10480000DEB7F62E880F880F880F10E4180F60E0CF
:10481000812F79830E945320CF2C7981D72E760166
:1048200088E0E80EF11C60E0812F0E94532061E0D7
:10483000F60181916F010E9453201F5FCE14DF04A7
:1048400091F70F90DF91CF911F91FF90EF90DF9044
:10485000CF900895009789F020E030E0A8954FEFC1
:104860005FE563E0415050406040E1F700C0000068
:104870002F5F3F4F2817390789F7089560E774E0E5
:1048800081E00E94F72368E674E082E00C94F7234D
:1048900060E674E083E00E94F72368E574E084E05A
:1048A0000C94F723CF930E94952060E574E080E09C
:1048B0000E94F72368E474E081E00E94F72360E43B
:1048C00074E082E00E94F72368E374E083E00E94D2
:1048D000F72360E374E084E00E94F72360E274E071
:1048E00085E00E94F72368E074E086E00E94F723E9
:1048F00060EF73E087E00E94F72360E080E00E94B1
:104900008520C0E08C2F0E94A420CF5FC830D1F753
:1049100061E080E00E9485208FED93E00E94D3202B
:1049200088E090E00E942A2468E174E085E00E941B
:10493000F72360E074E086E00E94F72368EE73E0FE
:1049400087E00E94F72384E090E00E942A2468E236
:1049500074E084E00E94F72360E174E085E00E9447
:10496000F72368EF73E086E00E94F7238FE090E082
:10497000CF910C942A24CF93DF9397FD04C0DF914D
:10498000CF910C941023EC0183E70E94A420CE0168
:104990009F77DF91CF910C946D218CE00E94E320F2
:1049A000159A0E9452240E9495200E94EF240E9492
:1049B00048240E943C270C94A22780E681B912B8B3
:1049C00089E084B985B1806F85B985B1866085B984
:1049D0008FEF87B918B880EF8AB91BB80895809116
:1049E0001D01813071F040F0823029F468E874E0F4
:1049F00080E00C94F723089568E774E080E00C945D
:104A0000F72360E874E080E00C94F723809132058E
:104A1000089590911D0180911C01981731F00E941A
:104A2000EF2480911D0180931C0160E080E00E94D2
:104A3000852080E00C94A42080912505E1E0E80F1A
:104A4000E09325058E2F90E0FC013197E431F105CC
:104A500030F4E656FF4F0C94322D10922505089540
:104A60008091E907853051F1873009F18111F7CF45
:104A70005E985F9808958091E9078430F9F020F1FD
:104A80008630A9F0C8F08730A9F008958091E90731
:104A90008630B8F4843080F4813071F0823051F087
:104AA00008958091E907843049F0863049F45E9A90
:104AB00008955F985E9808955F9808955F9A0895A5
:104AC00008958830B8F308958130C1F3823079F3C6
:104AD00008951DBAE9E6F0E08081856080835C9AE4
:104AE0008CEC9AE00197F1F700C0000089B18C705E
:104AF00090E095958795959587958093E80783E055
:104B00008DBB08951DBA5C9808951F920F920FB641
:104B10000F9211240BB60F922F933F934F935F93F5
:104B20008F939F93EF93FF93CF93DF93CDB7DEB730
:104B30002897DEBFCDBF89B18C7090E095958795A1
:104B40009595879531E03D8343E04E831F8252E087
:104B5000588759831A824B833C833091E807831727
:104B6000A1F03091E8073370FE01E30FF11D3581AC
:104B7000381721F13091E8073370FE01E30FF11D82
:104B80003181381729F1109231058093E807289672
:104B90000FB6F894DEBF0FBECDBFDF91CF91FF916E
:104BA000EF919F918F915F914F913F912F910F9036
:104BB0000BBE0F900FBE0F901F90189520913105DE
:104BC000222319F320913105215020933105DDCFA7
:104BD000209131052830C8F6209131052F5F2093B0
:104BE0003105D3CFE4E6F0E080818E7F80838FE8CB
:104BF00080937E0080E480937C00EAE7F0E086E327
:104C0000808310927B0080818865808310922905C3
:104C100008951F920F920FB60F9211242F933F9376
:104C20008F939F9380917800909179002091270530
:104C300030912805820F931F9093280580932705B4
:104C4000809126058F5F809326058091260580340C
:104C500028F080917A008F7780937A009F918F91CE
:104C60003F912F910F900FBE0F901F90189580913C
:104C70007A0087FD07C0E09124058E2F90E08D30EB
:104C8000910508F00895FC01E255FF4F0C94322D78
:104C900080912705909128050024880F991F001CFA
:104CA000880F991F001C892F902D909328058093C1
:104CB00027058091270590912805AC01440F551FC9
:104CC000440F551F480F591F9A01A3E4B8E00E94F2
:104CD0003B2D481B590B56954795840F951F929570
:104CE00082958F7089279F708927809332058E3631
:104CF00008F09CC0843608F4ADC081E080931D01AB
:104D00008CE080932405089587E480937C00809351
:104D10007C0010922805109227051092260580919C
:104D20007A00806C80937A00809124058F5F809355
:104D300024050895809127059091280590932B05CF
:104D4000913A08F070C0913608F47EC081E08093FB
:104D50002A058AE08093240508955D9A82E4D7CFDE
:104D6000809127059091280590932D05913A08F0A0
:104D700057C0913608F462C081E080932C0588E02A
:104D80008093240508955D9A83E4C1CF809127051F
:104D900090912805892F809580932E0586E0809339
:104DA00024050895419A84E4B2CF8091270590911B
:104DB000280590932F0584E0809324050895419A57
:104DC00081E4A5CF8091270590912805892F992707
:104DD00090932805809327058091270590912805B9
:104DE000C097D0F0809127059091280580379105D4
:104DF00008F51092300582E0809324050895409ACA
:104E000080E485CF809129058F3F19F08F5F8093D3
:104E1000290510922405089582E080933005EBCF98
:104E200010922C05ACCF10922A0593CF82E080938C
:104E30001D0166CF81E080933005DDCF913268F0AF
:104E400082E080932C059BCF913258F082E08093D2
:104E50002A057FCF10921D0153CF83E080932C054C
:104E60008ECF83E080932A0574CF81E0909129054D
:104E7000913208F480E0089580913405813021F169
:104E8000C8F0823019F0833059F0089568E974E071
:104E900085E00E94F72360E974E086E00C94F72334
:104EA00060E974E085E00E94F72360E974E086E041
:104EB0000C94F72360EA74E085E00E94F72360EB2E
:104EC00074E086E00C94F72360EA74E085E00E94C9
:104ED000F72368EA74E086E00C94F7239091330599
:104EE00080913405981731F00E943C278091340559
:104EF0008093330560E087E00E94852085E00E9472
:104F0000A42061E087E00E94852086E00C94A42024
:104F100080913405089580913405833020F48F5FAB
:104F200080933405089583E080933405089580913B
:104F300034058150833018F480933405089510921D
:104F4000340508956EEC74E081E00E94F72366EC6E
:104F500074E082E00C94F723FC01808170E0680F1C
:104F6000711D91816C3371055CF09F5F01C0922FC0
:104F70006C53710921E0290F6C337105C0F79183DF
:104F8000608322819C3350F02F5F01C0232F9C53FC
:104F900031E0320F9C33D0F722839183283158F0CF
:104FA0008BEA289F812D112482958F7098E1899F2B
:104FB0002019112422830895EF92FF920F931F93DB
:104FC000CF93DF9300D000D000D0CDB7DEB7FC0187
:104FD00021813DEC239F912D1124969596959695D0
:104FE0004AE0949F20191124205D2D83939F212D49
:104FF00011242695269526958AE0289F901911243C
:10500000905D9C838AE38B83662359F02281211172
:1050100040C081E3898382E38A8381E08E83898132
:105020001BC09281939F812D11248695869586952C
:105030004AE0849F90191124905D9A83839F312DBB
:1050400011243695369536959AE0399F80191124AA
:10505000805D898390E29E838E010E5F1F4F7E01EB
:1050600027E0E20EF11C03C0F80181918F010E943C
:10507000A4200E151F05C1F726960FB6F894DEBFC3
:105080000FBECDBFDF91CF911F910F91FF90EF9099
:1050900008952D3050F5922F8DEC989F312D1124CD
:1050A000369536953695389F812D112486958695AF
:1050B0008695EAE08E9F30191124832F3323C1F0A7
:1050C000805D89833DEC939F312D11243695369573
:1050D0003695FAE03F9F90191124905D9A832C3009
:1050E00008F49BCF92E09E83B7CF94EF920FD4CF7A
:1050F00080E2E7CF80913505882391F060914905E2
:10510000862F8370833081F060FD05C0647081E478
:1051100095E00C94DC27687089E395E00C94DC271B
:1051200088EB94E00C94D3208FEB94E00C94D32084
:1051300080913505882319F0815080933505809141
:1051400049058370813009F0089540911F01509105
:105150002001E0913705F09138059A01ADECBCECE7
:105160000E943B2D96958795969587959695879560
:10517000E80FF91FF0933805E093370520913605C5
:10518000BC01660F771F880F991F880F991F880F22
:10519000991F860F971F481B590B420F40933605E6
:1051A000809136058B3080F28091370590913805DB
:1051B00001969093380580933705809136058A5083
:1051C0008093360508958091490580FF08C081FDD0
:1051D00006C080913705909138050A9708F4089524
:1051E0004FB7F8942091370530913805ADECBCEC01
:1051F0000E943B2D969587959695879596958795D0
:1052000020913705309138055AE0859F20193109E2
:10521000112430933805209337054FBF682F89E359
:1052200095E00C94AC27FC0186818093430587812F
:10523000809342058085809341058185809349054F
:1052400082818E30A0F0828580933B058385809398
:105250003A05848580933905858590E0982F8827C5
:105260002685820F911D9093200180931F0110923B
:105270003805109237051092360580911E018093F3
:10528000350508958A3038F08F3F49F08B3F58F448
:1052900080931E0108958AE080931E01089584E69C
:1052A00080931E0108958AEF80931E0108958091D6
:1052B0001E01089580911F019091200108951F9271
:1052C0000F920FB60F9211240BB60F922F933F93AC
:1052D0004F935F936F937F938F939F93AF93BF93FE
:1052E000EF93FF938091C000887191F08091C60088
:1052F00080938E0510928E0510924B058091C6000A
:105300008D3709F45CC08E3709F059C082E06DC05A
:105310008091C6008D3709F47FC08E3709F462C0D2
:1053200090914B0591FF4BC090FF05C020E2822772
:105330009E7F90934B0590918E059F3308F074C02B
:10534000E0918E0591E09E0F90938E05F0E0E1577D
:10535000FA4F808380918E05843009F474C0809167
:105360008E05853060F120918E0580914A052813C5
:1053700026C083E080938E0580918E058217A0F46D
:1053800090E0E0918E05F0E0E157FA4F8081980FB0
:1053900080918E058F5F80938E0580918E05821798
:1053A00080F39F3F09F455C0EFE8F5E080E4DF01AA
:1053B0001D928A95E9F710928E0510924B05FF9188
:1053C000EF91BF91AF919F918F917F916F915F917D
:1053D0004F913F912F910F900BBE0F900FBE0F90EA
:1053E0001F90189580914B05826010928E0590E475
:1053F000EFE8F5E0DF011D929A95E9F780934B0500
:10540000E0918E0581E08E0F80938E05F0E0E157EC
:10541000FA4F8EE78083D3CF80914B0581FFCFCFAA
:10542000816080934B05CBCF80914B058D7F80931E
:105430004B0510928E0580E4EFE8F5E0DF011D9248
:105440008A95E9F7BCCF809191058C5F80934A05DE
:1054500086CF88E080938E0580919205803849F14F
:10546000813809F0A1CFE0918E05F0E0E357FA4FC3
:105470002081E0918E05F0E0E157FA4F828184317E
:10548000E0F4E0918E05F0E0E157FA4F428160913F
:105490008E0570E061577A4F8AEE97E00E946A2C81
:1054A000E0918E05F0E0E357FA4F8081809321016F
:1054B0007BCF8EE080938E05D6CF44E1E8CF1F925C
:1054C0000F920FB60F9211240BB60F928F939F93EA
:1054D000EF93FF93E0914D0581E08E0F80934D0592
:1054E000F0E0E25BFA4F80818093C60090914D0519
:1054F00080914C05981720F480914D05803438F048
:105500008091C1008F7D8093C10010924D05FF9165
:10551000EF919F918F910F900BBE0F900FBE0F9048
:105520001F9018958FEF80932101569A5E988AB14B
:105530008C7F8AB910928E0580E4EFE8F5E0DF01F8
:10554000982F1D929A95E9F710924D05EEE4F5E03B
:10555000DF011D928A95E9F785E090E09093C50000
:105560008093C4001092C000E1ECF0E0108286E06D
:105570008093C20088E980830895AF92BF92CF9252
:10558000DF92EF92FF920F931F93CF93DF93CDB7EC
:10559000DEB76E970FB6F894DEBF0FBECDBF80EFBB
:1055A00097E00E94622CE82E882349F08091C10088
:1055B000282F2072E22E85FF14C0EE24E3948E2D56
:1055C0006E960FB6F894DEBF0FBECDBFDF91CF91C0
:1055D0001F910F91FF90EF90DF90CF90BF90AF9011
:1055E00008958E010F5F1F4F8EE1D8011D928A959D
:1055F000E9F78EE7898381E08C838FEF8E838F8339
:1056000021E046E1BE01675F7F4F80EF97E00E9497
:10561000EC2CAB8485E08A0D8B83B4E0BA1508F0DE
:1056200092C0FE0139966F018DEFB82EBA0C9DEF36
:10563000F92E80E090E0F1E0FF1520F4D6016C91A6
:105640000E94A82BF394BFEFCB1ADB0AFB10F3CF19
:105650008C879D874A2D50E0BA01695F7F4F23E018
:1056600030E090E083E0F801E20FF31F2081920F19
:105670008F5F282F30E062177307ACF7485F5F4FEA
:10568000F801E40FF51F9095908310924C0580E48B
:10569000EEE4F5E0DF011D928A95E9F7E0914C0513
:1056A00081E08E0F80934C05F0E0E25BFA4F8EE7CD
:1056B000808321E030E081E07DE760E212C091313B
:1056C000D9F0E0914C0521E02E0F20934C05F0E03D
:1056D000E25BFA4F90838F5F282F30E04217530729
:1056E00034F1F801E20FF31F9081933129F038F380
:1056F00023E8290F223028F7E0914C0521E02E0FF6
:1057000020934C05F0E0E25BFA4F7083E0914C058A
:1057100021E02E0F20934C05F0E09627E25BFA4F34
:1057200090838F5F282F30E042175307D4F61092F2
:105730004D0580EF97E00E94F52C8091C1008062BA
:105740008093C1003CCF80EF97E00E94F52C37CFCB
:1057500041E0413021F1292F22959295907F582FD9
:105760005295507F26272F7030E0F901EA51FB4F08
:1057700082958F70982B80819827F901EA52FB4F10
:1057800080818527423011F04F5FE3CF292F30E031
:10579000322F2227A901480F511DCA010895E92F70
:1057A000E627392F3295307F582F5295507FE2955A
:1057B000EF70F0E0DF01AA51BB4F82958F70832B11
:1057C0009C919827EA52FB4F808185274F5FC1CF7C
:1057D000FC012FB7F89490818181981B892F6581F6
:1057E0000E94122D892F2FBF0895CF92DF92EF9242
:1057F000FF920F931F93CF93DF931F92CDB7DEB726
:105800006C01453108F044E1D6018C911396ED907E
:10581000FC901497B5E18B9FE00CF11C1124042F30
:1058200010E0A801C70129830E945E2D44E150E0E9
:10583000401B510B60E070E0C701800F911F0E9478
:10584000672DF60180810380F481E02D95E1899F29
:10585000E00DF11D11242981248BD6018C918F5FDD
:105860008C9315969C911597891708F01C928FB709
:10587000F894F60120819181291302C091E092836E
:105880008FBF81E00F90DF91CF911F910F91FF901B
:10589000EF90DF90CF900895CF93FC01CB01CFB76D
:1058A000F89474836383458311821082128225E108
:1058B000429FA001112460E070E00E94672DCFBFDD
:1058C000CF910895FC012281222311F08581089552
:1058D0000C94E82BFC013281332311F080E0089511
:1058E0000C94F52BFC012281222311F080E0089515
:1058F0000C94F52BAF92BF92CF92DF92EF92FF9272
:105900000F931F93CF93DF93EC016B01B42EA22E64
:10591000E42EF12CA70160E070E0C6010E94672D23
:105920000115110511F0F80110828A81882309F40C
:105930004FC08D818823A1F1EB81FC818981DF013A
:1059400095E1899FA00DB11D112412968C91B81676
:1059500090F58981BF0195E1899F600D711D11242A
:10596000A701C6010E945E2D0115110559F089811C
:10597000EB81FC8195E1899FE00DF11D1124848963
:10598000F8018083A11022C08FB7F89499819F5F9E
:1059900099832D81921708F019821A828FBF81E0B6
:1059A000DF91CF911F910F91FF90EF90DF90CF90FB
:1059B000BF90AF9008958981DF0195E1899FA00D87
:1059C000B11D11241296EC90F12CC3CF81E0E8CFE9
:1059D000CE010E94E82BAECF0F931F9300E010E0A2
:1059E0000E947A2C1F910F910895CF93DF93EC01C1
:1059F0008A81882399F08D81882359F08FB7F89494
:105A000099819F5F99832D81921730F41A828FBFFD
:105A100081E0DF91CF9108951982F8CFCE010E94E5
:105A2000E82BEACF991B79E004C0991F961708F07C
:105A3000961B881F7A95C9F78095089597FB072EC6
:105A400016F4009407D077FD09D00E944A2D07FC78
:105A500005D03EF4909581959F4F0895709561957E
:105A60007F4F0895EE0FFF1F0024001C0BBE079010
:105A7000F691E02D0994A29FB001B39FC001A39FAE
:105A8000700D811D1124911DB29F700D811D112477
:105A9000911D0895AA1BBB1B51E107C0AA1FBB1F84
:105AA000A617B70710F0A61BB70B881F991F5A95AA
:105AB000A9F780959095BC01CD010895FB01DC010B
:105AC00002C001900D9241505040D8F70895DC017A
:105AD00001C06D9341505040E0F70895DC01CB01C7
