:100000000C94CD000C94FA230C94FA230C94EC007D
:100010000C94EC000C9453020C94EC000C94EC0047
:100020000C94EC000C94EC000C94EC000C94EC00A0
:100030000C94EC000C94EC000C94EC000C94EC0090
:100040000C94C6020C94EC000C94EC000C94EC00A4
:100050000C94D4270C94D4280C94EC000C94EC0051
:100060000C947E240C94EC000C94EC000C94EC00AA
:100070000C94EC000C94EC000C94EC000C94EC0050
:100080000C94EC000C94EC000C94EC008A0DD01154
:10009000550DDE0CDE0C730C3F0CED0B780E4F0E85
:1000A000240EF80DD80EEC0D8A0D9F0E550DDE0CAA
:1000B000DE0C730C3F0CED0B780E4F0E240EF80D7A
:1000C000D80EEC0D8A0D4C12550DDE0CDE0C730CA7
:1000D0003F0CED0B780E4F0E240EF80DD80EEC0DE4
:1000E000880D3B1D530DDC0CDC0C710C3D0CEB0B37
:1000F000760E4D0E220EF60DD60EEA0D0A1CFE1BD4
:10010000F21BE61BDA1BCE1BC21BB61BAA1B9E1BD7
:10011000921B861B7A1B6E1B621B481B5B1A161CEC
:10012000891DBD11861D831D831D801D7D1D7A1DAA
:10013000771D741D711D6E1D6B1D8C1D8A0D210F89
:10014000550DDE0CDE0C730C3F0CED0B780E4F0ED4
:10015000240EF80DD80EEC0DA523B023A523BB2348
:10016000A423C623A423BB23A423CE23A423A423F4
:10017000A423A423A423A423A423A423A423A22349
:100180007425572554254A2547253B2538252525FF
:1001900022250F25F924BD24772511241FBECFEF7A
:1001A000D0E4DEBFCDBF14E0A0E0B1E0ECE5F8E5BF
:1001B00000E00BBF02C007900D92AE3DB107D9F72A
:1001C00027E0AEEDB4E001C01D92AE3DB207E1F70D
:1001D0000E9409070C942C2C0C9400006827909125
:1001E000DE042091DF04292726232093DF04909545
:1001F00096239093DE046095622B962B9095892729
:1002000008950F931F93CF93DF93CDB7DEB7A997D0
:100210000FB6F894DEBF0FBECDBF8E01075D1F4F36
:1002200020E044E1BE016B5E7F4F82ED97E00E94CB
:10023000EF2A882379F08E899091F804891709F4C0
:1002400090C09091F904891729F08D898F3F69F04A
:10025000981759F0A9960FB6F894DEBF0FBECDBF20
:10026000DF91CF911F910F9108950F89002309F419
:1002700080C010E020E030E09DEF910F923060F000
:10028000E5E1F0E0EC0FFD1FE10FF11D6081C90118
:100290000E941D2A9C010F891F5F101768F3832F8E
:1002A00090E0498D50E048175907A1F63327888D13
:1002B00090E02817390771F68A8D813409F49FC0C0
:1002C000873509F47BC0823509F4CFC0863509F43F
:1002D000A8C0883509F464C0843509F44FC08F7D07
:1002E000863509F0B7CF9E898091F8049813B2CF74
:1002F00089A5809319018C8D90E0A0E0B0E0DC012D
:10030000992788272E8DAC01BD01422B2D8D30E021
:10031000922F8827A0E0B0E0842B952BA62BB72B3B
:100320008093CB079093CC07A093CD07B093CE07D3
:1003300048E050E060E270E084E197E00E94DC2B4E
:1003400010921C07402F50E0043108F0A6C04C501A
:100350005109BE016F5D7F4F84E197E00E94D32B6E
:1003600079CF92E39093FA049091F90489136DCFB9
:1003700071CF80E090E020E030E093CF80910001E9
:100380008F3F49F09E89891731F02091F80492132C
:1003900061CF81115FCFCE0145960E9488275ACF49
:1003A000F894A89584B7877F84BF809160008861A6
:1003B0008093600088E080936000FFCF8E898983FE
:1003C00088E08B8387E78E838B8D6C8D90E00E9415
:1003D000112C8B8D8F839C8D9887811161C080E05B
:1003E00090E00E94F32B8093F9048A834B81BE0135
:1003F0006F5F7F4F88ED97E00E94E72A2BCF8E89B1
:1004000089838091F9048A8386E08B8381E68E83D9
:1004100046E0BE016F5F7F4F88ED97E00E94E72ABC
:1004200019CF8E8989838091F9048A838FE08B8329
:1004300086E78E8380E88F8386E488878EE18987CC
:1004400080ED8A8781E08B8782E08C8783E48D87CB
:1004500083E58E8784E58F874FE0BE016F5F7F4F16
:1004600088ED97E00E94E72AF5CE8E8989838091F6
:10047000F9048A8388E08B8382E78E838B8D8F8358
:1004800090E00E94F32B888748E0BE016F5F7F4FAA
:1004900088ED97E00E94E72ADDCE48E050E059CF92
:1004A0008091F904A2CF1F920F920FB60F921124E0
:1004B0000F900FBE0F901F90189585FD16C081E01C
:1004C0008093ED049091EC049817C1F082E390E0E2
:1004D0009093070180930601809106019091070196
:1004E0009093050180930401089584FD20C082E06B
:1004F0008093ED049091EC049813E8CF8091EB0485
:10050000853608F180910601909107010A97F8F469
:100510008091060190910701059730F485E090E005
:1005200090930701809306011092EB04089586FFD3
:1005300006C087FD16C084E08093ED04C3CF83E03E
:100540008093ED04BFCF8F5F8093EB04089580917B
:100550000601909107010A97909307018093060185
:10056000D7CF1092ED04B2CF9091E10482FF07C083
:100570009B7F81FD07C092609093E1040895946091
:1005800081FFF9CF9D7F9093E10408951F920F9210
:100590000FB60F9211240BB60F922F933F934F93E8
:1005A0005F936F937F938F939F93AF93BF93EF93DB
:1005B000FF938091EF0481608093EF048091CA07DC
:1005C0008F5F8093CA078A3008F440C01092CA0730
:1005D0008091F3049091F40401969093F404809335
:1005E000F3048091FA04882329F08091FA04815061
:1005F0008093FA048091F1049091F204892B49F0E0
:100600008091F1049091F20401979093F204809309
:10061000F1040E9491238091E004882319F0815015
:100620008093E0048091B7058F5F8093B705209198
:10063000B70580911A0130E090E0880F991F880F6C
:10064000991F2817390794F50E940D278091F0040F
:10065000882329F08091F00481508093F004209148
:10066000040130910501809106019091070128173E
:10067000390748F480910401909105010196909307
:10068000050180930401FF91EF91BF91AF919F917C
:100690008F917F916F915F914F913F912F910F902B
:1006A0000BBE0F900FBE0F901F9018951092B705BC
:1006B000CBCFCF93DF9383E090E00E94F32BC82F42
:1006C00082E090E00E94F32B2C2F30E0A901582B00
:1006D0004A30510508F47AC14536510508F0DEC1AB
:1006E00050930301409302018DE190E00E94F32BAF
:1006F0008A3008F44BC18093010181E190E00E94AF
:10070000F32B90E0009709F451C18F3F910509F454
:10071000E5C18436910508F0C4C148E552E0849FE4
:100720009001859F300D949F300D112430930A075E
:100730002093090782E190E00E94F32BC82F0E94CA
:10074000B7278C1729F0682F82E190E00E94112CC6
:100750008EE190E00E94F32B8093000183E190E012
:100760000E94F32B8093B80580E090E00E94F32B69
:10077000803308F446C18A3408F087C18093F904B5
:100780008FE190E00E94F32B803D08F431C1803F5F
:1007900008F072C18093F80480E190E00E94F32B8E
:1007A0008F3109F4F0C08FE190E09093C7078093F8
:1007B000C6076FE180E190E00E94112CC091C6074E
:1007C000D091C707DD27D695DC2FCC27D795C795C5
:1007D000D093C707C093C607CE010E94012C909307
:1007E000F7048093F60497FD15C18031974208F015
:1007F00033C1CE0102960E94F32B80931801CE01E3
:1008000003960E94F32B80931701CE0108960E9455
:10081000F32B80931601CE0109960E94F32B80934F
:100820001501CE010A960E94F32B8093F504CE01A8
:100830000B960E94F32B80931401CE010C960E941C
:10084000F32B80931301CE010D960E94F32B80931E
:100850001201CE010E960E94F32B80931101CE015E
:100860000F960E94F32B80931001CE0104960E94F4
:10087000F32B80930F01CE0143960E94F32B8093BC
:100880000E01CE0105960E94F32B80930D01CE013F
:1008900006960E94F32B80930C01CE0107960E94CE
:1008A000F32B80930B01CE0140960E94F32B809393
:1008B0000A01CE0141960E94F32B80930901CE01DB
:1008C00042960E94F32B80930801CE0148960E9425
:1008D000FB2B6093E6047093E7048093E804909305
:1008E000E904CE014C960E94FB2B6093E2047093C6
:1008F000E3048093E4049093E50480E290E00E9496
:10090000F32B8093C90781E290E00E94F32B809340
:10091000C80782E290E00E94F32B8093CF0783E226
:1009200090E00E94F32B8093130784E290E00E94F2
:10093000F32B823008F4C5C08B3008F080C0809360
:100940001A01BE01605E7F4F48E050E08BE097E007
:100950000E94E32BEBE0F7E021E09EE706C09083E6
:10096000319687E0E331F80759F080818F37B8F787
:100970008111F6CF2083319687E0E331F807A9F79C
:10098000DF91CF910895CFE1D0E01CCF8AE0809332
:1009900001016AE08DE190E00E94112C81E190E07C
:1009A0000E94F32B90E0009709F0AFCE81E090E039
:1009B00090930A078093090761E081E190E00E942B
:1009C000112C8091090790910A07A7CE8AE090E048
:1009D000909303018093020160E082E090E00E9426
:1009E000112C6091020183E090E00E94112C7CCEDA
:1009F00080ED8093F80460ED8FE190E00E94112C6F
:100A0000CBCE80E38093F90460E380E090E00E9425
:100A1000112CB6CE9F778038910508F4EACE8FE787
:100A200090E09093F7048093F6046FE770E0CE01B6
:100A30000E94272CC091C607D091C707DACE8AE062
:100A400080931A016AE084E290E00E94112CC09128
:100A5000C607D091C70775CF8FE097E29093F70450
:100A60008093F6046FE077E2CE010E94272CC091BC
:100A7000C607D091C707BDCE8FEE8093F8046FEE06
:100A80008FE190E00E94112C87CE89E48093F904D5
:100A900069E480E090E00E94112C72CE84E690E040
:100AA00097CF83E690E090930A078093090763E667
:100AB00081E190E00E94112C8091090790910A0732
:100AC0002CCE82E080931A0162E084E290E00E94E2
:100AD000112CC091C607D091C70733CF85E090E0B5
:100AE00090930A078093090765E081E190E00E94F6
:100AF000112C8091090790910A070FCEEF92FF9277
:100B00000F931F93CF93DF9320E8829FC00111249E
:100B100020E8629F800111247C0120E8E20EF11C94
:100B2000EC01081B190BCE010E94F32B682FC801A2
:100B30008C0F9D1F0E94112C2196CE15DF0599F771
:100B4000DF91CF911F910F91FF90EF900895AF9299
:100B5000BF92CF92DF92EF92FF920F931F93CF93AA
:100B6000DF93A89560E082E090E00E94112C6AE09B
:100B700083E090E00E94112C6FE08DE190E00E94F4
:100B8000112C65E081E190E00E94112C64E682E185
:100B900090E00E94112C63EF83E190E00E94112C01
:100BA00060E380E090E00E94112C60ED8FE190E026
:100BB0000E94112C60E08EE190E00E94112C65E013
:100BC00084E290E00E94112C6FE180E190E00E94AD
:100BD000112CC0E8D0E087E0A82E97E1B92E27E2DB
:100BE000C22E37E3D32E47E4E42E57E5F52E07E671
:100BF00017E7A895D093C707C093C60763E070E0D6
:100C0000CE010E94272C8091C6079091C70762E011
:100C100002960E94112C8091C6079091C70761E04F
:100C200003960E94112C8091C6079091C70760E837
:100C300008960E94112C8091C6079091C70760E822
:100C400009960E94112C8091C6079091C70760E019
:100C50000A960E94112C8091C6079091C70760E800
:100C60000B960E94112C8091C6079091C70760E8EF
:100C70000C960E94112C8091C6079091C70760E8DE
:100C80000D960E94112C8091C6079091C70760E0D5
:100C90000E960E94112C8091C6079091C70760E8BC
:100CA0000F960E94112C8091C6079091C7076AE0A9
:100CB00004960E94112C8091C6079091C70760E8A6
:100CC00043960E94112C8091C6079091C70769E056
:100CD00005960E94112C8091C6079091C70768E085
:100CE00006960E94112C8091C6079091C70760E874
:100CF00007960E94112C8091C6079091C70765E066
:100D000040960E94112C8091C6079091C70766E01B
:100D100041960E94112C8091C6079091C70769E007
:100D200042960E94112C8091C6079091C70740E01F
:100D300050E0BA0148960E941F2C8091C6079091FE
:100D4000C70740E050E0BA014C960E941F2CA092C9
:100D50000B07B0920C07C0920D07D0920E07E092DD
:100D60000F07F0921007009311071093120760917C
:100D7000C6077091C707605E7F4F48E050E08BE088
:100D800097E00E94072CC058DF4FC0388AE0D80790
:100D900009F02FCF6FE181E00E947E05A895DF91D9
:100DA000CF911F910F91FF90EF90DF90CF90BF9068
:100DB000AF900C94590314BEA8959EE088E10FB63D
:100DC000F894A895809360000FBE90936000A8955A
:100DD0001092FA048FEF809319010E9459030E9428
:100DE00052230E9467240E94DE2316BC8CE687BD36
:100DF0001092CA071092F4041092F30482E084BDAA
:100E000085E085BDEEE6F0E0808182608083239AF4
:100E10000895CF93DF93CDB7DEB7EE970FB6F89472
:100E2000DEBF0FBECDBF8090190589AA409018057E
:100E30009090EE049BAA0E94DB068091F9048E8FAD
:100E40008091F8048D8F809100018C8F209109078B
:100E500030910A073695279536952795369527952B
:100E6000AFE4BBE10E94B02B969587959695879548
:100E7000969587958B8F0E94CC279DEC899F812D1D
:100E800011248695869586958A8F2091020130914E
:100E90000301ADECBCEC0E94B02B9695879596951E
:100EA000879596958795898F28988FB7F894209184
:100EB000090730910A073093F2042093F1048FBFA1
:100EC0001698A89540E169EB75E088ED97E00E94DF
:100ED000C12A48E06DE177E082ED97E00E94C12AE7
:100EE0000E9407297894A8958FEF89838091F9044F
:100EF0008A838FE08B8386E78E8380E88F8386E406
:100F000088878EE1898780ED8A8781E08B8782E000
:100F10008C8783E48D8783E58E8784E58F874FE018
:100F2000BE016F5F7F4F88ED97E00E94E72AA8958A
:100F30001092D1070E94422383B1867F8CA785B18E
:100F4000806F85B985B1866085B94AAA9E01255E04
:100F50003F4F1901AE01425E5F4F5BA74AA751E0C8
:100F60005FA361E06EA71CAA1DAA1EAA1FAA1AA24F
:100F70001BA21CA21DA2512C19A688E1682E81E09B
:100F8000782E18A610E00DE01DA619A281E090E0D1
:100F900098AB8FA7DE015996B8A3AF8FC12CD12C87
:100FA0007601C394A8952B9A2B988091EF0480FD2D
:100FB00074C20E94AC244091C90730911605842F59
:100FC00090E00497632F70E0681779070CF0FCC27B
:100FD0008091E1048E7F8093E10430911705409168
:100FE000CF07341708F4D6C250E0E0911307632FFF
:100FF00070E0641B750BF4E6F69FC001F79F900D3F
:1010000011246E2F70E0641B750B0E94932BA62E8B
:101010004091B80541FFC3C2E31728F48091EE0464
:1010200081608093EE0443FFC1C28091B705EA2D31
:10103000F0E060911A010E94872B90E0019634E164
:10104000389FB001399F700D11246E177F070CF087
:101050008AC28091E10488608093E1048091180540
:1010600042FF49C2813009F445C208F4ACC3823062
:1010700009F041C2E1E04E1611F40C94941D81E098
:1010800044FD3DC2BB24B394909019059EA2482E06
:1010900021E0521609F453C234E0531609F47EC31A
:1010A000A5E09A2E591409F46BC30E945827802F8B
:1010B00090E08E30910508F468C23091ED04111172
:1010C00004C0313009F4FAC110E03093EC04A89563
:1010D00082ED97E00E94D72A811195C2A895809150
:1010E000FA0481114AC21092CB071092CC071092D9
:1010F000CD071092CE078FEF8093190189E0EDEBB9
:10110000F3E0A4E1B7E001900D928A95E1F787E062
:101110008093D1074091E10440FF2BC280911801D8
:1011200087FD27C28F714601570104C0880C991CA6
:10113000AA1CBB1C8A95D2F7D501C40141FF12C07D
:101140003091170137FD0EC03F714601570104C0B1
:10115000880C991CAA1CBB1C3A95D2F7882999299E
:10116000AA29BB2942FF12C030910D0137FD0EC0E4
:101170003F714601570104C0880C991CAA1CBB1C76
:101180003A95D2F788299929AA29BB2943FF12C089
:1011900030910F0137FD0EC03F71B701A60104C0A9
:1011A000440F551F661F771F3A95D2F7842B952B56
:1011B000A62BB72B409117053091CF07431790F41A
:1011C00030910E0137FD0EC03F71B701A60104C07A
:1011D000440F551F661F771F3A95D2F7842B952B26
:1011E000A62BB72B3FEF350D323008F4F9C135E0AF
:1011F000932E591409F48DC2A9A0A0FE12C03091FB
:101200000A0137FD0EC03F71B701A60104C0440FAB
:10121000551F661F771F3A95D2F7842B952BA62B67
:10122000B72BB9A0B1FE12C03091090137FD0EC035
:101230003F71B701A60104C0440F551F661F771FF9
:101240003A95D2F7842B952BA62BB72BA8953091E6
:101250001405323009F485C2333009F46BC23130E1
:1012600009F415C2A89530911205323009F40AC26A
:10127000333009F4F0C1313009F4C8C14091E604BB
:101280005091E7046091E8047091E904842B952B58
:10129000A62BB72B4091E2045091E3046091E40443
:1012A0007091E50440955095609570954C015D01F5
:1012B00084229522A622B7228AA29BA2ACA2BDA21A
:1012C0009AA8491409F408C288248394912C809127
:1012D000ED04811107C08FEF840D823018F0811466
:1012E000910459F08FB7F8944091090750910A077B
:1012F0005093F2044093F1048FBFA8958FB7F894F0
:10130000A090F304B090F4048FBF0E94AA25882314
:1013100079F0892839F48091020190910301A8168F
:10132000B90630F08091DA07882311F40C94E411A7
:1013300088ED97E00E94D72A882331F08091F0044D
:10134000882311F40C9432123FB7F8948091F10481
:101350009091F2043FBF892B09F024CEA8951092FA
:10136000D10780917A008F7780937A00289A169A15
:1013700088B1837088B9159880916E008D7F8093B5
:101380006E005F985E9885B1897F85B90E94F723CA
:10139000419840985D9883B7817F846083BFF894BB
:1013A000A8950FB6F894A895809160008861809305
:1013B0006000109260000FBED99A80916800826030
:1013C0008093680080916C00806F80936C0083B77D
:1013D000816083BF78948895F89483B78E7F83BFAC
:1013E000809168008D7F80936800A8959EE088E1D9
:1013F0000FB6F894A895809360000FBE909360009C
:10140000A8957894289816980E9442230C3009F4E5
:1014100015C516BC8CE687BD1092CA071092F4045D
:101420001092F30482E084BD85E085BD80916E005A
:10143000826080936E0085B1866085B90E94DE234C
:1014400063B1667F8CA50E94EE0063B1667F0E9447
:10145000EE0063B1667F0E94EE0063B1667F0E947A
:10146000EE008CA70E945D028CA50E94B4028091C0
:10147000ED048093EC048FB7F894409109075091E4
:101480000A075093F2044093F1048FBFA8952B9A5A
:101490002B988091EF0480FF8CCD8091EF048E7F9C
:1014A0008093EF0463B1667F8CA50E94EE008CA749
:1014B0000E945D028CA50E94B4027BCD3091EC04A9
:1014C000313049F00E940A1F0F5F109205011092FF
:1014D00004013091ED044091040150910501809187
:1014E00006019091070110E04817590708F4EDCD67
:1014F0000DE0EBCD82E04816A1F144FF32C090919F
:101500001905B82E9111842D8111BECD809108014D
:1015100087FD04C18F712AA13BA14CA15DA104C02C
:1015200056954795379527958A95D2F720FFF6C0AF
:10153000809019058EA2412C21E05212ADCD8091F0
:10154000E004882309F412C10E945827802F90E0FC
:101550008E30910508F0B1CDFC01EA5BFF4F0C9491
:10156000A72BB82ED1CF8091E104877F8093E1042F
:1015700075CD80E090E0DC01E1CD8091B80580FF81
:101580002CC081E08093D107C5CDFC01EC5AFF4F00
:101590000C94A72B4091B80541FDC3C0A12C8091AC
:1015A000EE048E7F8093EE0443FD3FCD5091C8073B
:1015B000852F90E00497632F70E0681779079CF2FD
:1015C000351708F046CD4ACD341708F406CD809182
:1015D000E10481608093E10400CD1092D1079ACD9F
:1015E00030910C0137FD08CE3F71B701A60104C050
:1015F000440F551F661F771F3A95D2F7842B952B02
:10160000A62BB72BF9CD0E94010168CD30911301B3
:1016100037FD0EC03F71B701A60104C0440F551F2E
:10162000661F771F3A95D2F7842B952BA62BB72BE5
:101630003091120137FD22CE3F71B701A60104C0DF
:10164000440F551F661F771F3A95D2F7842B952BB1
:10165000A62BB72B13CE3091110137FD0EC03F7171
:10166000B701A60104C0440F551F661F771F3A95A6
:10167000D2F7842B952BA62BB72B3091100137FD79
:10168000FDCDDACF3091110137FDF8CDD5CF3091B6
:10169000160137FD0EC03F71B701A60104C0440F0B
:1016A000551F661F771F3A95D2F7842B952BA62BD3
:1016B000B72B3091150137FDD5CD3F71B701A6018C
:1016C00004C0440F551F661F771F3A95D2F7842B2D
:1016D000952BA62BB72BC6CDAEA0B9A8AB10F4CDD9
:1016E0002AA13BA14CA15DA18CA89DA8AEA8BFA832
:1016F000281539054A055B0509F0E6CD3091EE0461
:1017000091E080E09BA8931201C090E0892E982E72
:10171000DECD30910B0137FD6FCD66CF412C1EA27F
:10172000B7CC8091EE048E7F8093EE04E091130796
:10173000A12C72CC3091F50437FD0EC03F71B7017A
:10174000A60104C0440F551F661F771F3A95D2F7B4
:10175000842B952BA62BB72B3091140137FD82CD0E
:10176000ACCF3091F50437FD7DCDA7CF0E9458272F
:10177000802F90E08E30910508F1F3E05F2E9DCC34
:101780008091E00481114DC30E945827802F90E082
:101790008E30910508F440C3512C8FCC8EA0882048
:1017A00029F30E945827802F90E08E30910508F091
:1017B00084CCFC01EE59FF4F0C94A72BFC01E0599F
:1017C000FF4F0C94A72B442011F40C94991D44FD59
:1017D00096CEB82E9BCEA3E05A2E159A112311F463
:1017E0000C946B1C8091EA0490E08231910508F41E
:1017F00071C061E080E00E94FA1E84EE91E00E94D8
:10180000481F61E081E00E94FA1ED3018C9187FF9E
:1018100002C00C94691C8F710E944A2200E0309132
:10182000ED04323011F40C948B1A333010F40C9414
:101830003A1C333011F40C94211C343011F00C9408
:10184000531A409104015091050180910601909135
:1018500007014817590710F40C94531AD3018C91BF
:10186000982F9F7111F40C944A1A81508C93109206
:1018700005011092040107E028CCB3E05B2E159A15
:1018800060E011110C949C1C83E00E94FA1E85EB11
:1018900091E00E94481F61E080E00E94FA1E8FE7FD
:1018A0000E94191F8BEB91E00E94481F3091ED04BC
:1018B000323011F00C94991C3091EC04323011F458
:1018C0000C94901C0E940A1F3091ED0419A611E09F
:1018D00006E0FBCBFC01E258FF4F60E080E00C9497
:1018E000A72B03E0502E159A112309F421C7AE014E
:1018F0004B5E5F4F00E04A0160E082E0B82EB00E20
:101900008B2D0E94FA1ED4018D914D01805D0E94A5
:10191000191F61E08B2D0E94FA1EA8A40A1509F474
:10192000E8C780E20E94191F0F5F043029F7309149
:10193000ED04323009F4A8C710F40C94001A3330C7
:1019400011F40C94EC19343011F00C94E919409115
:1019500004015091050180910601909107014817FB
:10196000590710F40C94E91988A481100C94D61925
:101970008D8981110C94D61983E48D8B2E898F89E2
:101980003AE0839FC001112444E6249F800D911DFD
:101990001124288D820F911D8038910534F081E04B
:1019A0008E8B82E08F8B87E0888F34E01092050168
:1019B0001092040105E089CB33E0532E159A60E0C4
:1019C00080E00E94FA1E033009F4ADC686E891E07B
:1019D0000E94481F8BE891E00E94481F61E080E070
:1019E0000E94FA1E8FA10E944A2280E991E00E9483
:1019F000481FA090C607B090C7078FA598A99695D5
:101A0000982F8827979587959093C7078093C60747
:101A10000E94012C97FD7EC6803127E2920710F0CC
:101A20008FE097E20E943023B092C707A092C607CA
:101A30003091ED04333011F40C94B117343011F4BB
:101A40000C948617323009F03ACB3091EC043230E6
:101A500009F435CB0E940A1F60E080E00E94FA1E64
:101A6000033009F437C58BE991E00E94481F6FA14C
:101A70008FE10E947E050E94590361E080E00E9490
:101A8000FA1E08E081E090E00E949F228EE20E9410
:101A9000191F0150B9F783E090E00E949F22309116
:101AA000ED040DE00CCB43E0542E159A60E080E08D
:101AB0000E94FA1E0E94FD25813009F426C608F412
:101AC00010C6823009F408C6833021F483E791E020
:101AD0000E94481F61E080E00E94FA1E0E94FD25DE
:101AE000882309F4F4C5843020F48AE791E00E9449
:101AF000481F0E94E3253091ED04333009F4DBC523
:101B0000343009F4F6C5323009F4F0C502E0D7CA22
:101B1000E3E05E2E60E082E00E94FA1E8091EE0417
:101B200080FDC1C54B1409F4B3C586E391E00E9462
:101B3000481F159A61E081E00E94FA1E0E94EF267C
:101B40000E947E2380910A0187FF02C00C94121725
:101B500060E087E00E94FA1EB9A0B0FE45C0809107
:101B60000A01881F8827881F94E0981B892F0E94EC
:101B7000191F61E087E00E94FA1E89A081FE32C031
:101B800080910901881F8827881F94E0981B892F5E
:101B90000E94191F3091ED04323009F42CC708F46B
:101BA00049C7333009F434C7343009F06EC5809129
:101BB000EC04843009F469C580910A0187FD5AC597
:101BC0008091090186FF11C782E089A0882689A239
:101BD00000E075CA63E0562E0E940A1F3091ED04A2
:101BE00000E06DCA83E0D4CF83E0C1CF43E0542E40
:101BF000159A11110C94221760E083E00E94FA1EDE
:101C000081EC92E00E94481F61E080E00E94FA1E91
:101C10008FE70E94191F86E493E00E94481F3091CD
:101C2000ED04323011F00C941F173091EC04323077
:101C300011F40C941C170E940A1F3091ED0411E05E
:101C40000BE043CA53E0552E159A11110C94361629
:101C500060E084E00E94FA1E84E992E00E94481F3E
:101C600061E080E00E94FA1E8FE70E94191F8BE658
:101C700092E00E94481F3091ED04323011F00C9434
:101C800033163091EC04323009F4F6C60E940A1F74
:101C90003091ED0411E00AE018CA33E0532E159A92
:101CA0001111F0C660E080E00E94FA1E8AE792E01F
:101CB0000E94481F61E080E00E94FA1E8FE70E94A8
:101CC000191F83E892E00E94481F3091ED043230E2
:101CD00009F0D5C63091EC04323009F412C70E94E5
:101CE0000A1F3091ED0411E009E0EFC943E0542EE2
:101CF000159A1111FBC360E083E00E94FA1E85E68D
:101D000092E00E94481F61E080E00E94FA1E8FE787
:101D10000E94191F8BE692E00E94481F3091ED044B
:101D2000323009F0E0C33091EC04323009F4CFC313
:101D30000E940A1F3091ED0411E008E0C6C9159A0F
:101D400060E080E00E94FA1E8BE391E00E94481F51
:101D500061E080E00E94FA1E51E0551609F42DC39F
:101D6000551608F417C363E0651520F08CE491E084
:101D70000E94481F3091ED04323009F478C03330AE
:101D800008F404C4333009F40DC4343009F0F0C34E
:101D900080910B0187FDEBC38EA08110ECC382E321
:101DA0008093E00475E0572E01E089C9A3E05A2E24
:101DB000159A112309F4BAC2113009F40CC2123079
:101DC00009F4DCC1133009F4ABC1143009F462C169
:101DD000153009F41EC1163009F4DDC0173009F4BE
:101DE000C8C0183009F4AEC0193009F499C01A30CF
:101DF00009F46FC01B30E9F111E03091ED0432308D
:101E000009F45AC0343011F40C944C1D313011F4E3
:101E10000C945A1D0CE059C9FC01E057FF4F0C947B
:101E2000A72B0E945827802F90E08E30910508F054
:101E300044C9FC01E256FF4F0C94A72B0E94B32229
:101E4000E8CA159A60E080E00E94FA1E8BE391E0F8
:101E50000E94481F61E080E00E94FA1E84EB93E03C
:101E60000E94481F3091ED04323009F088CF0DE018
:101E700090C38091C507882309F445C0159A60E096
:101E800080E00E94FA1E83E993E00E94481F61E00F
:101E900080E00E94FA1E8BE993E00E94481F809127
:101EA000C507805D0E94191F8EE70E94191F30919F
:101EB000ED04323009F0A6CF3091EC04323009F451
:101EC000A9CF0E9417260E940A1F3091ED040CE052
:101ED000F8C8159A60E080E00E94FA1E8AE893E054
:101EE0000E94481F61E081E00E94FA1E8091CD07A8
:101EF0000E94AE1F8091CC070E94AE1F8091CB073D
:101F00000E94AE1F7ACF0E940A1F60E080E00E940C
:101F1000FA1E82EA93E00E94481F0E94A705FFCFA5
:101F2000159A60E080E00E94FA1E81E893E00E942A
:101F3000481F61E080E00E94FA1E84E197E00E9461
:101F4000481F5BCF159A60E080E00E94FA1E89E787
:101F500093E00E94481F61E081E00E94FA1E86E43F
:101F60000E94AE1F8EE10E94AE1F80ED0E94AE1F48
:101F700044CF159A60E080E00E94FA1E8AE693E062
:101F80000E94481F61E080E00E94FA1E82E793E011
:101F90000E94481F32CF159A60E080E00E94FA1E2E
:101FA00082E693E00E94481F61E081E00E94FA1EF1
:101FB0000E947B2390E062E370E00E94932BCB01B0
:101FC0006AE070E00E94932B805D0E94191F8EE2F0
:101FD0000E94191F0E947B2390E065E070E00E9440
:101FE000932BCB016AE070E00E94932B805D0E94EE
:101FF000191F0E947B2390E0880F991F6AE070E010
:102000000E94932B805D0E94191F86E50E94191F74
:10201000F4CE159A60E080E00E94FA1E86E593E017
:102020000E94481F61E081E00E94FA1E0E94CF27B3
:10203000B82E89E2B89E812D112482958F7009F403
:102040004FC0805D0E94191F8DECB89EA12C1124F9
:10205000A694A694A694A89E812D11248695869573
:1020600086953A2D2AE0829F30191124832F805DB6
:102070000E94191F8EE20E94191F8B2D4AE0A49E18
:1020800080191124805D0E94191F8FE593E00E9442
:10209000481FB3CE159A60E080E00E94FA1E8FE3DD
:1020A00093E00E94481F61E080E00E94FA1E809148
:1020B00019018F3F61F18A3000F18436A8F485E47C
:1020C00093E00E94481F809119010E941E2261E046
:1020D00084E00E94FA1E88E493E00E94481F8DCE9F
:1020E00080E20E94191FB0CF8DE20E94191F8091DB
:1020F000190190E00E944C20EACF84E493E00E9412
:10210000481F80911901805D0E94191FE0CF61E096
:1021100080E00E94FA1E8DE493E00E94481F6DCE7D
:10212000159A60E080E00E94FA1E86E393E00E9428
:10213000481F61E080E00E94FA1E8BE50E94191F93
:1021400061E087E00E94FA1E8DE50E94191F61E0A0
:1021500081E00E94FA1E8091FA0490E0069667E002
:1021600070E00E94932BB62E06E0BB2081F1BA945A
:102170008FEF0E94191F0150C1F73FCE159A60E002
:1021800080E00E94FA1E87EC92E00E94481F61E006
:1021900080E00E94FA1E8FB7F8942091F1043091EC
:1021A000F2048FBFADECBCEC0E94B02B96958795E6
:1021B00096958795969587950E94CD2061E085E05C
:1021C0000E94FA1E82E393E00E94481F16CE80E22E
:1021D0000E94191FD0CF159A60E085E00E94FA1E78
:1021E0008EA081109EC089E40E94191F60E080E0EB
:1021F0000E94FA1E8091EE0480FD8EC08091E10461
:1022000083FD88C083E00E94191F8A2D843608F060
:1022100083E60E941E2285E20E94191F60E087E08B
:102220000E94FA1E99249394491409F46FC049142A
:1022300008F468C0F2E0AF2E4A1003C082E50E94A5
:10224000191F61E082E00E94FA1E8091E10482FD84
:1022500057C083E00E94191F61E084E00E94FA1ECB
:102260008091E10481FD4AC080E20E94191F61E073
:1022700085E00E94FA1E8091E10480FD2DC080E27D
:102280000E94191F61E087E00E94FA1E80911405E8
:102290008130F1F018F18230B9F0833019F48AE21C
:1022A0000E94191F61E080E00E94FA1E80911205D1
:1022B000813001F1D8F08230A9F0833009F09DCD52
:1022C0008AE20E94191F99CD82E40E94191FEACF69
:1022D00084E40E94191FE6CF82E0D2CF8DE20E94F3
:1022E000191FE0CF82E40E94191F87CD8DE20E9462
:1022F000191F83CD84E40E94191F7FCD81E0B5CFE3
:1023000084E0A8CF8EE40E94191F9BCF86E40E9430
:10231000191F97CF84E077CF81E391E00E94481F97
:102320007DCF8EA1805D0E94191F60CF60E083E0A9
:102330000E94FA1E8CE293E00E94481F61E080E058
:102340000E94FA1E8FE70E94191F86E493E00E9404
:10235000481F3091ED04323009F015C13091EC0482
:10236000323009F40DC10E94B3220E940A1F30913D
:10237000ED0411E00CE00C946508159A60E080E033
:102380000E94FA1E8BE391E00E94481F61E080E00A
:102390000E94FA1E83E491E00E94481F512CEACC6F
:1023A000159A60E080E00E94FA1E8BE391E00E94A3
:1023B000481F61E080E00E94FA1E85E591E00E94DE
:1023C000481F55245394D6CC8FB7F8941092F40438
:1023D0001092F3048FBFA090EE04ABAA8091F80492
:1023E00089838091F9048A838FE08B8383E58E83D0
:1023F0008091F6049091F7049F8388878091EE0482
:1024000080FF45C081E08987992493944914C9F1DC
:1024100092E0A92E4A1491F12EA5213091F15DA1EF
:102420005A876CA16B877BA17C878AA18D8780915D
:10243000EE048E870E947B238F874B81BE016F5FE6
:102440007F4F88ED97E00E94E72A8AA09BA0ACA06E
:10245000BDA08CAA9DAAAEAABFAA4AAA9EA099AA6C
:102460000C949809A8950E9432298FB7F8949091FE
:1024700001019093F0048FBF0C94A40942E04EA791
:10248000CECF89858068898731E03EA7C8CFBEA0BE
:10249000B11014C01986B8CF159A60E080E00E9490
:1024A000FA1E8BE391E00E94481F61E080E00E94E9
:1024B000FA1E8BEA93E00E94481F5CCC8EA0E82DA8
:1024C000F0E0E65FF84F80818F5F89879DCF08E05D
:1024D0000C94640883E991E00E94481F6FE18FA18A
:1024E0000E947E05C8CA08E00C946108159A60E055
:1024F00080E00E94FA1E83E792E00E94481F80E37A
:10250000810F0E94191F61E080E00E94FA1E812F56
:1025100090E0FC01E65FF84F5F01808190E00E944F
:10252000CD203091ED04323009F479C008F466C052
:10253000333009F451C0343009F04BC040910401EC
:1025400050910501809106019091070148175907A4
:1025500008F43FC0D5018C91823090F181508C936A
:10256000109205011092040108E00C946508512CAA
:1025700001E00C945F0844E0542E01E00C945F08E5
:102580000CE00C9464080CE00C946108313081F785
:1025900001E064E0962E59100C945F0853E0552E2C
:1025A0000C945F0880910B0187FD0EC05110E0CFA5
:1025B00082E38093E0045524539401E00C945F0877
:1025C00081E0F5018083CCCF52E0552E01E00C94E0
:1025D0005F0808E00C9465084091040150910501E2
:1025E00080910601909107014817590790F3D50192
:1025F0008C918E37D8F58F5F8C93B2CF313049F7FD
:102600003091EC04313029F31F5F193008F011E0EC
:102610000E940A1F3091ED0408E00C945F0830918D
:10262000EC043230B1F26091C6077091C707605E6A
:102630007F4F48E050E08BE097E00E94072C0E941B
:1026400059030E940A1F60E081E00E94FA1E8EEA90
:1026500091E00E94481F87E090E00E949F220E9424
:102660000A1F3091ED0408E00C9461088EE7F50133
:10267000808376CF8091090187FFA4CA0E940C262F
:102680003091ED0400E00C945F0800E00C945F08CA
:102690008091F6049091F7040E943023ADA4AA2003
:1026A00041F0159A47CA81E391E00E94481F159AAC
:1026B00041CA15983FCA3091EC04333009F426CA58
:1026C0000E9400263091ED0402E00C945F088CE338
:1026D00091E00E94481F0DCA8CE691E00E94481FBD
:1026E000F9C98EE591E00E94481FF4C90DE00C94F1
:1026F0005F083091EC04343009F408CA0E940C26BB
:102700003091ED0402E00C945F0885E691E00E94B0
:10271000481FE0C9AC015F774038510508F482C911
:102720008FE790E87FC981E891E00E94481F52C975
:1027300060E085E00E94FA1E82EA91E00E94481F54
:1027400061E080E00E94FA1E8FE70E94191F86EA6E
:1027500091E00E94481F3091ED04323009F0D0C062
:102760003091EC04323009F4C8C04091F604509125
:10277000F70457FDC8C09A013695279536952795D9
:1027800036952795A5ECB0E20E94B02BFC01F2959E
:10279000E295EF70EF27FF70EF279F01ADECBCECE7
:1027A0000E94B02B969587959695879596958795D7
:1027B0009C01220F331F880F991F880F991F880FC4
:1027C000991F820F931FE81BF90BED8B9A01369529
:1027D000279536952795ABE7B4E10E94B02BFC0115
:1027E000F695E7959F01ADECBCEC0E94B02B969559
:1027F000879596958795969587959C01220F331F0F
:10280000880F991F880F991F880F991F820F931F98
:10281000E81BF90BEE8B9A010E94B02BFC01F69598
:10282000E795F695E795F695E7959F010E94B02B01
:102830009695879596958795969587959C01220FF5
:10284000331F880F991F880F991F880F991F820FB8
:10285000931F9F01281B390B2F8BCF01880F991FC6
:10286000EE0FFF1FEE0FFF1FEE0FFF1F8E0F9F1FBC
:10287000481B590B488F0E940A1F3091ED0418A67F
:1028800011E005E00C9465083091EC04323009F455
:10289000A0C58D898A3008F491C08E896F895AE06D
:1028A000659FB001112494E6899F600D711D11246C
:1028B000888D680F711D70688091C6079091C70759
:1028C0000E94272C0E9459030E940A1F60E081E0A9
:1028D0000E94FA1E8EEA91E00E94481F87E090E075
:1028E0000E949F220E940A1F3091ED0405E00C9483
:1028F00061088EE50E94191F17C805E00C94640852
:1029000005E00C94610883E48D8BFA01FF779F0149
:102910003695279536952795ABE7B4E10E94B02B05
:10292000AC01569547959A01ADECBCEC0E94B02BDA
:102930009695879596958795969587959C01220FF4
:10294000331F880F991F880F991F880F991F820FB7
:10295000931F481B590B4E8B9F010E94B02BAC015B
:102960005695479556954795569547959A010E94D5
:10297000B02B9695879596958795969587959C010A
:10298000220F331F880F991F880F991F880F991FD7
:10299000820F931F5A01A81AB90AAF8ACA01880F79
:1029A000991F440F551F440F551F440F551F840F87
:1029B000951FAF01481B590B488F5DCF2E899F890A
:1029C00048EE53E0849FB001859F700D1124A4E66A
:1029D0002A9F600D711D1124BAE09B9F600D711D2F
:1029E0001124888D680F711D67CF29A1226029A34A
:1029F00000E00C945F088091EC04823009F445CE2D
:102A000081E08DA4811080E08DA700E00C945F0828
:102A10008091EC04833009F438CE80910A0187FD5F
:102A200020C086FF18C081E099A0982699A200E0F6
:102A30000C945F0880910A0186FD03C029A12E7FB6
:102A400029A38091090186FD20CE49A14D7F49A38C
:102A500000E00C945F0829A1216029A300E00C94F8
:102A60005F089091090197FFDCCF0E94002630910A
:102A7000ED0400E00C945F080AE00C94640809E09F
:102A80000C946108159A60E080E00E94FA1E1130F3
:102A900009F4DCC0123009F4CCC0133009F4B4C01E
:102AA000143009F49CC069EC862E67E0962E76E11E
:102AB000A72E75E0B72E11E060E087E00E94FA1EB5
:102AC000D4018C918F3F09F486C0F501908198174D
:102AD00008F07FC083E00E94191F61E085E00E943A
:102AE000FA1ED5018C9190E00E94E21F3091ED0416
:102AF000323061F13330A1F0313031F009E00C9423
:102B0000650809E00C9464083091EC043130B1F3AD
:102B10001F5F0E940A1F3091ED0409E00C946508C4
:102B20008091EC04833051F3BFEC8B16B7E09B0629
:102B300009F447C0F3E18F16F7E09F06D1F1F501E4
:102B40008081D4018C9309E00C9465083091EC04E9
:102B50003230A1F26091C90780E290E00E94112C0E
:102B60006091C80781E290E00E94112C6091CF072C
:102B700082E290E00E94112C6091130783E290E0C2
:102B80000E94112C0E9459030E940A1F60E081E0FC
:102B90000E94FA1E8EEA91E00E94481F87E090E0B2
:102BA0000E949F220E940A1F3091ED0409E00C94BC
:102BB0006108D5018C9185508093130709E00C942E
:102BC0006508F50180818B5F8093CF0709E00C9445
:102BD000650884E080CF8DE20E94191F7ECF88EDCA
:102BE00091E00E94481F61E080E00E94FA1E8FE899
:102BF00092E00E94481FE3E18E2EE7E09E2EF7E16F
:102C0000AF2EF5E0BF2E58CF88ED91E00E94481F0F
:102C100061E080E00E94FA1E8BE892E00E94481F6B
:102C2000AFEC8A2EA7E09A2EB7E1AB2EB5E0BB2E13
:102C300043CF88ED91E00E94481F08EC802E07E00A
:102C4000902E87E1A82E85E0B82E36CF8EEC91E04D
:102C50000E94481F99EC892E97E0992E26E1A22E1A
:102C600025E0B22E29CF0AE00C946108159A60E0A5
:102C700080E00E94FA1E113009F4C3C0123009F43A
:102C8000AEC0133009F490C011E03091ED04323041
:102C900009F457C008F447C0333041F1343019F516
:102CA0004091040150910501809106019091070126
:102CB00048175907C0F0EAA5FBA58081882311F0C9
:102CC000815080838E8D803310F480E38E8F8D8DC4
:102CD000803D10F480ED8D8F10920501109204015B
:102CE0000AE00C9465080AE00C9465084091040120
:102CF00050910501809106019091070148175907ED
:102D000090F3AAA5BBA58C918F3F11F08F5F8C9398
:102D10008E8D8A3410F089E48E8F8D8D803FE0F2A5
:102D20008FEE8D8FD9CF3130F1F63091EC04313008
:102D3000D1F21F5F0E940A1F3091ED040AE00C944B
:102D400065083091EC04323071F26E8D80E090E0D5
:102D50000E94112C6D8D8FE190E00E94112C6C8DE2
:102D60008EE190E00E94112C0E9459038091F90499
:102D70008E8F8091F8048D8F809100018C8F0E943E
:102D80000A1F60E081E00E94FA1E8EEA91E00E9434
:102D9000481F87E090E00E949F220E940A1F309106
:102DA000ED040AE00C9461088BEA92E00E94481F4F
:102DB0000C8D61E082E0002309F4C7C00F3F09F4E5
:102DC000B8C00E94FA1E8EEB92E00E94481F802F2E
:102DD0000E94AE1FCE014C969BA78AA756CF82EACF
:102DE00092E00E94481F61E083E00E94FA1E8D8DF0
:102DF000805D0E944A229E01235E3F4F3BA72AA787
:102E000044CF89E992E00E94481F61E084E00E947B
:102E1000FA1E8E8D8F5E0E94191FFE017E96FBA703
:102E2000EAA733CF8091090187FD02C00C94A80D59
:102E30000E94E3250C94CA0D0BE00C9464080BE08F
:102E40000C946108159A60E080E00E94FA1E11302F
:102E500009F493C2123009F477C2133009F463C243
:102E6000143009F453C2153009F449C2163009F47C
:102E700095C1173009F43CC2183009F432C2193038
:102E800009F41FC21A3009F4FDC1B1E02B16B1E0FC
:102E90003B0609F4B8C111E0BAE12B16B1E03B06DC
:102EA00009F488C161E084E00E94FA1ED1018C918E
:102EB00090E00E944C2008E03091ED04323009F49B
:102EC000C2C008F4B2C0333009F494C0343009F001
:102ED0008EC04091040150910501809106019091AE
:102EE00007014817590708F482C0083009F44CC09C
:102EF00081E090E001C0880F0A95EAF78095F10122
:102F00009081892380830BE00C9465088091EC0408
:102F1000843011F40C945F082FA1213011F40C942B
:102F20005F0821502FA3822E912C98AA8FA60C9473
:102F30005F080E94FA1E89EB92E00E94481FBE01C2
:102F4000645E7F4F7BA76AA7A0CE0E94FA1E84EB27
:102F500092E00E94481FAE01445E5F4F5BA74AA704
:102F600094CE8091EC04833011F40C945F084FA14F
:102F7000443110F00C945F084F5F4FA3842E912CC6
:102F800098AA8FA60C945F088F8C98A028143904F7
:102F900051F121E0221621E0320629F1D1018C9174
:102FA000823010F081508C93809101018A3018F4A6
:102FB0008AE0809301018B8D811102C081E08B8FAB
:102FC0008A8D811102C081E08A8F80911A0182303E
:102FD00018F482E080931A01109205011092040106
:102FE0000BE00C9465088091E10480FDD7CF0BE0E5
:102FF0000C946508409104015091050180910601EF
:10300000909107014817590790F3083009F499C0C7
:1030100081E090E001C0880F0A95EAF7F101908104
:10302000892B80830BE00C946508313001F73091D7
:10303000EC043130E1F21F5F0E940A1F3091ED0471
:103040000BE00C9465083091EC04323081F26B8D0A
:1030500081E190E00E94112C8A8D880F682F660F05
:10306000660F680F82E190E00E94112C60911A01B6
:1030700084E290E00E94112C6091B80583E190E019
:103080000E94112C609101018DE190E00E94112CB1
:10309000898DBAE08B9FC001112490930301809326
:1030A0000201692F82E090E00E94112C60910201E0
:1030B00083E090E00E94112C0E945903209109079F
:1030C00030910A0736952795369527953695279599
:1030D000AFE4BBE10E94B02B9695879596958795B6
:1030E000969587958B8F0E94CC279DEC899F812D8B
:1030F00011248695869586958A8F209102013091BC
:103100000301ADECBCEC0E94B02B9695879596958B
:10311000879596958795898F0E940A1F60E081E0C8
:103120000E94FA1E8EEA91E00E94481F87E090E01C
:103130000E949F220E940A1F3091ED040BE00C9424
:1031400061088F8C98A02814390419F121E0221607
:1031500021E03206F1F0D1018C918F3F11F08F5FA9
:103160008C93898D8B3010F08AE0898F8B8D84361B
:1031700010F083E68B8F8A8D8A3110F089E18A8F77
:1031800080911A018B3008F427CF8AE080931A01CE
:1031900023CF8091E10480FF2ACFDDCF8BEF92E037
:1031A0000E94481F61E087E00E94FA1E8FED92E0C6
:1031B0000E94481F61E084E00E94FA1E80911A017B
:1031C0000DEC809F812D1124869586958695805DD6
:1031D0000E94191F8EE20E94191F90911A01909F60
:1031E000812D1124869586958695EAE08E9F90190B
:1031F0001124892F805D0E94191F08E08AE1282E82
:1032000081E0382E59CE11E061E083E00E94FA1E81
:103210008091010199E2899F812D112482958F70FF
:10322000805D0E94191F8EE20E94191F809101018A
:103230000DEC809F812D1124869586958695809F23
:10324000912D11249695969596957AE0979F8019E1
:103250001124805D0E94191F90910101909F812D82
:103260001124869586958695AAE08A9F9019112447
:10327000892F805D0E94191F08E091E0292E91E0BE
:10328000392E1ACE8EE193E00E94481F34E004E00C
:1032900061E084E038AF0E94FA1E8091B80590E0AA
:1032A00038AD02C0959587953A95E2F780FF10C03A
:1032B00087E293E00E94481F38EB232E35E0332E3F
:1032C000FBCD85E193E00E94481F32E002E0E0CFB1
:1032D00081EE91E00E94481F28EB222E25E0322E3D
:1032E000EBCD8CE093E00E94481F30E000E0D0CFAF
:1032F00083E093E00E94481F31E001E0C9CF83EFF3
:1033000092E00E94481F33E003E0C2CF8AEE92E0D1
:103310000E94481F61E087E00E94FA1E8FED92E054
:103320000E94481F71CF81EE92E00E94481F61E029
:1033300087E00E94FA1E8FED92E00E94481FBE01B6
:10334000675E7F4F1B01AECD82ED92E00E94481F69
:1033500061E080E00E94FA1E8AED92E00E94481F20
:1033600061E087E00E94FA1E8FED92E00E94481F04
:10337000AE01465E5F4F1A0195CD87EC92E00E9448
:10338000481F61E080E00E94FA1E8DEC92E00E94EE
:10339000481F61E087E00E94FA1E87E992E00E94E0
:1033A000481F9E01255E3F4F19017CCDE5E1F0E00D
:1033B000EC0FFD1F98A4E90DF11D8081815089302B
:1033C00008F480838D898A3010F40C94D60C0C9408
:1033D000BE0C05E00C946508409104015091050174
:1033E00080910601909107014817590790F3B8A4FE
:1033F000B11043C08D898A3090F01D8A0C94D60C90
:10340000313039F78091EC04813019F3E8A5EF5F92
:10341000E8A7E430F0F218A605E00C9465088930BE
:1034200011F40C94D60C40E050E0E5E1F0E0EC0F34
:10343000FD1FE40FF51F8F5F80838D898A3010F4A4
:103440000C94D60C2E898F894AE0849FC0011124E8
:1034500054E6259F800D911D1124288D820F911D0A
:103460008038910514F40C94D60C81E08E8B82E0A8
:103470008F8B87E0888F0C94D60C88A4482D50E061
:10348000E5E1F0E0EC0FFD1FE40FF51F80818930CE
:10349000A0F6CBCF002351F086FF08C08CE1F301EA
:1034A00080830C94370C07E00C94650880E8D30106
:1034B0008C930C94370C0E94FA1E85E492E00E94D3
:1034C000481F6AE0662E61E0762E61E080E00E948F
:1034D000FA1E84EE91E00E94481F61E081E00E94A4
:1034E000FA1ED3018C9187FDE6C08F710E944A229B
:1034F00061E085E00E94FA1EF301808186FFD4C05E
:103500008DE592E00E94481F01E03091ED043230D9
:1035100011F00C94150C3091EC04323021F28091B2
:10352000C6079091C7076091180102960E94112C5E
:103530008091C6079091C7076091170103960E947A
:10354000112C8091C6079091C707609116010896CB
:103550000E94112C8091C6079091C70760911501B8
:1035600009960E94112C8091C6079091C70760911F
:10357000F5040A960E94112C8091C6079091C70706
:10358000609114010B960E94112C8091C6079091B6
:10359000C707609113010C960E94112C8091C607F9
:1035A0009091C707609112010D960E94112C809195
:1035B000C6079091C707609111010E960E94112CC9
:1035C0008091C6079091C707609110010F960E94E5
:1035D000112C8091C6079091C70760910F01049646
:1035E0000E94112C8091C6079091C70760910E012F
:1035F00043960E94112C8091C6079091C707609155
:103600000D0105960E94112C8091C6079091C70765
:1036100060910C0106960E94112C8091C607909132
:10362000C70760910B0107960E94112C8091C60775
:103630009091C70760910A0140960E94112C8091D9
:10364000C6079091C7076091090141960E94112C0D
:103650008091C6079091C7076091080142960E9429
:10366000112C0E9459030E940A1F60E081E00E9411
:10367000FA1E8EEA91E00E94481F87E090E00E94C7
:103680009F220E940A1F3091ED0407E00C9461080C
:103690000E94FA1E8DE292E00E94481FF2E16F2E16
:1036A000F1E07F2E0C94F90B81E692E00E94481F16
:1036B00001E00C940F0C01E085E592E00E94481FA8
:1036C0000C940F0C0E94FA1E84E292E00E94481FA4
:1036D000A3E16A2EA1E07A2E0C94F90B0E94FA1E47
:1036E0008DE392E00E94481F70E1672E71E0772E13
:1036F0000C94F90B0E94FA1E86E392E00E94481F88
:10370000E1E16E2EE1E07E2E0C94F90B0E94FA1E90
:103710008CE092E00E94481F85E1682E81E0782EBF
:103720000C94F90B0E94FA1E83E092E00E94481F5D
:1037300096E1692E91E0792E0C94F90B0E94FA1E05
:103740008CE192E00E94481FB4E16B2EB1E07B2E29
:103750000C94F90B0E94FA1E85E192E00E94481F2A
:1037600005EF602E04E0702E0C94F90B0E94FA1EF7
:103770008AEF91E00E94481F28E0622E21E0722E1D
:103780000C94F90B0E94FA1E81EF91E00E94481FF1
:103790003BE0632E31E0732E0C94F90B0E94FA1E6D
:1037A0008AEE91E00E94481F4CE0642E41E0742EA6
:1037B0000C94F90B0E94FA1E86EE91E00E94481FBD
:1037C0005DE0652E51E0752E0C94F90B0E94FA1EF7
:1037D0008EED91E00E94481F6EE0662E61E0762E2D
:1037E0000C94F90B0E94FA1E88ED91E00E94481F8C
:1037F0007FE0672E71E0772E0C94F90B0E94FA1E81
:1038000083ED91E00E94481FE7E16E2EE1E07E2EFD
:103810000C94F90B0E94FA1E8EEC91E00E94481F56
:10382000F8E16F2EF1E07F2E0C94F90B0E94FA1E46
:103830008CE492E00E94481F59E0652E51E0752EFD
:1038400044CE409104015091050180910601909170
:1038500007014817590708F426CED3018C9187FD3C
:1038600030C0982F9F719C3108F58F5FF3018083E2
:103870000C94370C313009F016CE3091EC04313015
:1038800009F411CE8091EA048F5F8093EA048231BB
:1038900010F01092EA0410920501109204010E94A7
:1038A0000A1F3091ED0407E00C946508982F90747E
:1038B000002351F086FD08C080E4D3018C930C9462
:1038C000370C1C920C94370C945EF30190830C948B
:1038D000370C00E0F1CE60E082E00E94FA1E87EC37
:1038E00091E00E94481F61E080E00E94FA1E8FE78D
:1038F0000E94191F8BEB91E00E94481F3091ED044C
:103900003230A1F43091EC04323069F01092EA04C4
:103910000E940A1F3091ED0411E007E00C94650845
:1039200006E00C94640807E00C94640807E00C942B
:10393000610806E00C94610880E00E94FA1E84EEA3
:1039400091E00E94481F89A50E944A2260E085E01C
:103950000E94FA1E99A4892C912C9AAE89AE80916E
:10396000E6049091E704A091E804B091E90409A469
:1039700004C0B695A795979587950A94D2F780FDD0
:1039800081C18091E2049091E304A091E404B0919C
:10399000E50409A404C0B695A795979587950A9460
:1039A000D2F780FF6AC182EE91E00E94481F3091F9
:1039B000ED04323009F46BC108F446C1333009F428
:1039C000EDC0343009F0E7C0409104015091050189
:1039D00080910601909107014817590708F4DBC050
:1039E0008091E2049091E304A091E404B091E50495
:1039F000AC01BD0109AC04C0769567955795479514
:103A00000A94D2F740FF98C0B701A60109AC04C0E0
:103A1000440F551F661F771F0A94D2F74A015B01B6
:103A200080949094A094B09488219921AA21BB21DC
:103A30008093E2049093E304A093E404B093E5043C
:103A40008091E6049091E704A091E804B091E90424
:103A5000482B592B6A2B7B2B4093E6045093E704A9
:103A60006093E8047093E904109205011092040138
:103A700006E00C946508159A60E080E00E94FA1E4A
:103A80008BE391E00E94481F61E080E00E94FA1EF3
:103A900083E0582E0C94B60E8091EC04843011F41F
:103AA0000C940A0F8091C50781508093C5070CE0E4
:103AB0000C9465083091EC04313011F40C940A0F29
:103AC0001F5F0E940A1F85E08093C5073091ED04B7
:103AD0000CE00C946508512C0C94D80E512C0C94CD
:103AE000F80D512C0C94240E512C0C944F0E512C8B
:103AF0000C94780E512C0C94ED0B512C0C943F0C23
:103B0000512C0C94730C512C0C94DE0C512C0C94F5
:103B1000550D512C0C948A0D512C0E940A1F309186
:103B2000ED0400E00C945F08BB24B39481E00C9496
:103B30004408B12C0C94860AB701A60109AC04C054
:103B4000440F551F661F771F0A94D2F74095509572
:103B50006095709584239523A623B7238093E20470
:103B60009093E304A093E404B093E5048091E60409
:103B70009091E704A091E804B091E9044823592307
:103B80006A237B234093E6045093E7046093E804A0
:103B90007093E90469CF06E00C9465084091040134
:103BA000509105018091060190910701481759072E
:103BB00090F34091E6045091E7046091E80470911D
:103BC000E904DB01CA0109AC04C0B695A795979535
:103BD00087950A94D2F780FF94C08091E204909177
:103BE000E304A091E404B091E5044601570109AC57
:103BF00004C0880C991CAA1CBB1C0A94D2F78BAE7B
:103C00009CAEADAEBEAE80949094A094B09448218A
:103C100059216A217B214093E6045093E704609385
:103C2000E8047093E9044BAD5CAD6DAD7EAD842BC3
:103C3000952BA62BB72B8093E2049093E304A093DB
:103C4000E404B093E50410CF313009F0A4CF3091F3
:103C5000EC04313009F49FCF99A59F5F99A79D315E
:103C600008F019A610920501109204010E940A1F83
:103C70003091ED0406E00C94650883EC91E00E941D
:103C8000481F95CE8DEE91E00E94481F90CE309156
:103C9000EC04323009F47FCF4091E6045091E70400
:103CA0006091E8047091E9048091C6079091C7077C
:103CB00048960E941F2C4091E2045091E3046091C9
:103CC000E4047091E5048091C6079091C7074C9673
:103CD0000E941F2C0E9459030E940A1F60E081E08D
:103CE0000E94FA1E8EEA91E00E94481F87E090E051
:103CF0000E949F220E940A1F3091ED0406E00C945E
:103D000061088091E2049091E304A091E404B091F1
:103D1000E5044C015D0109AC04C0B694A7949794E6
:103D200087940A94D2F78AA29BA2ACA2BDA280FC7F
:103D30005CCF4601570109AC04C0880C991CAA1C31
:103D4000BB1C0A94D2F78BAE9CAEADAEBEAE8094D7
:103D50009094A094B09488219921AA21BB218093AA
:103D6000E2049093E304A093E404B093E5048BADE4
:103D70009CADADADBEAD482B592B6A2B7B2B409330
:103D8000E6045093E7046093E8047093E9046CCE72
:103D9000662341F1429A439898B19F7098B998B1BF
:103DA000282F207F922B98B9439A44E04A95F1F747
:103DB000439898B19F7098B998B140E1849F900161
:103DC0001124292B28B9439A94E09A95F1F7439846
:103DD000611103C08150833038F09DED9A95F1F761
:103DE000000008954298D7CF89E995E10197F1F74E
:103DF00000C00895660F660F660F860F8093FB0460
:103E00000895662321F060E080540C94C81E805809
:103E10000C94C81E60E081E00E94C81E1092FB0452
:103E2000ECEFF4E080E2819395E0EC30F907D9F70C
:103E30000895CF939091FB04482F082E000C550B4A
:103E4000E92FF0E0E450FB4F208130E042175307A8
:103E5000A1F0C82F692F669566956695892F8770A2
:103E60000E94011F61E08C2F0E94C81E9091FB04EC
:103E7000E92FF0E0E450FB4FC0839F5F903120F0CA
:103E80001092FB04CF9108959093FB04CF91089575
:103E9000CF93DF93EC012196FC018081882329F0E8
:103EA0000E94191F89918111FBCFDF91CF91089555
:103EB000CF93C82F97B19C6F97B942982FEF8FE59A
:103EC00093E0215080409040E1F700C0000043980B
:103ED00098B19F7098B998B1906398B9439A24E0CB
:103EE0002A95F1F743988FEF95E30197F1F700C01A
:103EF0000000439A94E09A95F1F7439881EF91E09E
:103F00000197F1F700C0439A94E09A95F1F743982E
:103F100081EF91E00197F1F700C098B19F7098B9D7
:103F2000459A439A94E09A95F1F7439881EF91E08E
:103F30000197F1F700C060E088E20E94C81E60E0CF
:103F400088E00E94C81E0E940A1F60E086E00E946E
:103F5000C81E60E08C2FCF910C94C81E1F93CF9386
:103F6000DF93CDB7DEB760970FB6F894DEBF0FBE14
:103F7000CDBF182F80E1E1E2F1E0DE011196019062
:103F80000D928A95E1F7812F82958F70E1E0F0E044
:103F9000EC0FFD1FE80FF11D80810E94191F1F709B
:103FA000E1E0F0E0EC0FFD1FE10FF11D8081609674
:103FB0000FB6F894DEBF0FBECDBFDF91CF911F913A
:103FC0000C94191F0F931F93CF93DF938C019C01C7
:103FD0003695279536952795ABE7B4E10E94B02B2F
:103FE000FC01F695E7959F01ADECBCEC0E94B02B6F
:103FF000AC01569547955695479556954795CA01F4
:10400000880F991F440F551F440F551F440F551F0C
:10401000480F591FCF01841B950B805D0E94191F0B
:104020009801ADECBCEC0E94B02BEC01D695C79585
:10403000D695C795D695C7959E010E94B02BAC0129
:10404000569547955695479556954795CA01880FB9
:10405000991F440F551F440F551F440F551F480FFC
:10406000591FCE01841B950B805D0E94191FCE0144
:10407000880F991FCC0FDD1FCC0FDD1FCC0FDD1F6C
:10408000C80FD91FC8018C1B9D0B805DDF91CF919C
:104090001F910F910C94191FCF93DF93EC0184367D
:1040A000910508F46FC09C013695279536952795A4
:1040B000ABE7B4E10E94B02BFC01F695E7959F01B8
:1040C000ADECBCEC0E94B02BAC01569547955695D3
:1040D000479556954795CA01880F991F440F551F5C
:1040E000440F551F440F551F480F591FCF01841B04
:1040F000950B805D0E94191F9E01ADECBCEC0E94E7
:10410000B02BFC01F695E795F695E795F695E795C2
:104110009F010E94B02BAC01569547955695479547
:1041200056954795CA01880F991F440F551F440F94
:10413000551F440F551F480F591FCF01841B950B66
:10414000805D0E94191F9E01ADECBCEC0E94B02B5B
:104150009695879596958795969587959C01220FBC
:10416000331F880F991F880F991F880F991F820F7F
:10417000931F9E01281B390BC901805DDF91CF91F0
:104180000C94191F80E20E94191FCA30D10508F053
:10419000B3CF80E20E94191FD6CFCF93DF93EC01FB
:1041A000883E23E0920708F49EC09C01369527952F
:1041B0003695279536952795A5ECB0E20E94B02B51
:1041C000FC01F295E295EF70EF27FF70EF279F015A
:1041D000ADECBCEC0E94B02BAC01569547955695C2
:1041E000479556954795CA01880F991F440F551F4B
:1041F000440F551F440F551F480F591FCF01841BF3
:10420000950B805D0E94191F9E0136952795369566
:104210002795ABE7B4E10E94B02BFC01F695E7953A
:104220009F01ADECBCEC0E94B02BAC0156954795BC
:104230005695479556954795CA01880F991F440F83
:10424000551F440F551F440F551F480F591FCF01CD
:10425000841B950B805D0E94191F9E01ADECBCEC88
:104260000E94B02BFC01F695E795F695E795F6953B
:10427000E7959F010E94B02BAC0156954795569546
:10428000479556954795CA01880F991F440F551FAA
:10429000440F551F440F551F480F591FCF01841B52
:1042A000950B805D0E94191F9E01ADECBCEC0E9435
:1042B000B02B9695879596958795969587959C01B1
:1042C000220F331F880F991F880F991F880F991F7E
:1042D000820F931F9E01281B390BC901805DDF915E
:1042E000CF910C94191F80E20E94191FC436D1058A
:1042F00008F08ACF80E20E94191FCA30D10508F069
:10430000ACCF80E20E94191FCFCF0F931F93CF93A2
:10431000DF938C019C013695279536952795369528
:104320002795A5ECB0E20E94B02BFC01F295E29536
:10433000EF70EF27FF70EF279F01ADECBCEC0E9400
:10434000B02BAC0156954795569547955695479590
:10435000CA01880F991F440F551F440F551F440F62
:10436000551F480F591FCF01841B950B805D0E947C
:10437000191F98013695279536952795ABE7B4E137
:104380000E94B02BFC01F695E7959F01ADECBCECCB
:104390000E94B02BAC01569547955695479556957A
:1043A0004795CA01880F991F440F551F440F551F89
:1043B000440F551F480F591FCF01841B950B805D7B
:1043C0000E94191F9801ADECBCEC0E94B02BEC01CF
:1043D000D695C795D695C795D695C7959E010E9447
:1043E000B02B9695879596958795969587959C0180
:1043F000220F331F880F991F880F991F880F991F4D
:10440000820F931F9E01281B390BC901805D0E94FA
:10441000191FCE01880F991FCC0FDD1FCC0FDD1F98
:10442000CC0FDD1FC80FD91FC8018C1B9D0B805DF1
:10443000DF91CF911F910F910C94191FCF93C82F2B
:104440008A3098F480E20E94191F8DECC89F812D5C
:1044500011248695869586959AE0899FC019112426
:104460008C2F805DCF910C94191F9DEC899F812D1D
:104470001124869586958695899F912D1124969570
:10448000969596952AE0929F80191124805D0E944E
:10449000191FDBCFCF93DF93D82F9DEC899FC12DC0
:1044A0001124C695C695C695C99F912D1124969540
:1044B000969596958C2F2AE0929F80191124805D05
:1044C0000E94191F8D2F9AE0C99F80191124805DC9
:1044D000DF91CF910C94191FCF92DF92EF92FF9250
:1044E0001F93CF93DF931F92CDB7DEB7F62E880FC1
:1044F000880F880F10E4180F60E0812F79830E94E5
:10450000C81ECF2C7981D72E760188E0E80EF11CE9
:1045100060E0812F0E94C81E61E0F60181916F0169
:104520000E94C81E1F5FCE14DF0491F70F90DF9129
:10453000CF911F91FF90EF90DF90CF90089500975B
:1045400089F020E030E0A8954FEF5FE563E041504F
:1045500050406040E1F700C000002F5F3F4F281738
:10456000390789F7089567E574E081E00E946C22BD
:104570006FE474E082E00C946C2267E474E083E002
:104580000E946C226FE374E084E00C946C22CF9361
:104590000E940A1F67E374E080E00E946C226FE2D1
:1045A00074E081E00E946C2267E274E082E00E9485
:1045B0006C226FE174E083E00E946C2267E174E09A
:1045C00084E00E946C2267E074E085E00E946C2227
:1045D0006FEE73E086E00E946C2267ED73E087E087
:1045E0000E946C2260E080E00E94FA1EC0E08C2FE6
:1045F0000E94191FCF5FC830D1F761E080E00E94B0
:10460000FA1E86EC93E00E94481F88E090E00E942A
:104610009F226FEF73E085E00E946C2267EE73E0EB
:1046200086E00E946C226FEC73E087E00E946C22AF
:1046300084E090E00E949F226FE074E084E00E949A
:104640006C2267EF73E085E00E946C226FED73E0EF
:1046500086E00E946C228FE090E0CF910C949F2224
:10466000CF93DF9397FD04C0DF91CF910C94852108
:10467000EC0183E70E94191FCE019F77DF91CF9154
:104680000C94E21F8CE00E94581F159A0E94C722CA
:104690000E940A1F0E9464230E94BD220E94B1252D
:1046A0000C94172680E681B912B889E084B985B1E7
:1046B000806F85B985B1866085B98FEF87B918B8E5
:1046C00080EF8AB91BB8089580911C01813071F088
:1046D00040F0823029F46FE674E080E00C946C22A4
:1046E00008956FE574E080E00C946C2267E674E056
:1046F00080E00C946C2280911A05089590911C0121
:1047000080911B01981731F00E94642380911C0155
:1047100080931B0160E080E00E94FA1E80E00C9410
:10472000191F80910D05E1E0E80FE0930D058E2F34
:1047300090E0FC013197E431F10530F4E455FF4F8E
:104740000C94A72B10920D0508958091D107853008
:1047500051F1873009F18111F7CF5E985F98089584
:104760008091D1078430F9F020F18630A9F0C8F0AB
:104770008730A9F008958091D1078630B8F484304D
:1047800080F4813071F0823051F008958091D1072A
:10479000843049F0863049F45E9A08955F985E98B7
:1047A00008955F9808955F9A089508958830B8F342
:1047B00008958130C1F3823079F308951DBAE9E696
:1047C000F0E08081856080835C9A8CEC9AE00197B0
:1047D000F1F700C0000089B18C7090E09595879545
:1047E000959587958093D00783E08DBB08951DBA7A
:1047F0005C9808951F920F920FB60F9211240BB67A
:104800000F922F933F934F935F938F939F93EF93C9
:10481000FF93CF93DF93CDB7DEB72897DEBFCDBF31
:1048200089B18C7090E0959587959595879531E045
:104830003D8343E04E831F8252E0588759831A829A
:104840004B833C833091D0078317A1F03091D00780
:104850003370FE01E30FF11D3581381721F13091DE
:10486000D0073370FE01E30FF11D3181381729F1B4
:10487000109219058093D00728960FB6F894DEBFE2
:104880000FBECDBFDF91CF91FF91EF919F918F919F
:104890005F914F913F912F910F900BBE0F900FBEE4
:1048A0000F901F90189520911905222319F320913C
:1048B0001905215020931905DDCF209119052830C5
:1048C000C8F6209119052F5F20931905D3CFE4E690
:1048D000F0E080818E7F80838FE880937E0080E48B
:1048E00080937C00EAE7F0E086E3808310927B000F
:1048F0008081886580831092110508951F920F9220
:104900000FB60F9211242F933F938F939F93809113
:1049100078009091790020910F0530911005820F59
:10492000931F9093100580930F0580910E058F5F64
:1049300080930E0580910E05803428F080917A00D6
:104940008F7780937A009F918F913F912F910F9055
:104950000FBE0F901F90189580917A0087FD07C0B9
:10496000E0910C058E2F90E08D30910508F00895B0
:10497000FC01E054FF4F0C94A72B80910F05909100
:1049800010050024880F991F001C880F991F001C18
:10499000892F902D9093100580930F0580910F051E
:1049A00090911005AC01440F551F440F551F480F3F
:1049B000591F9A01A3E4B8E00E94B02B481B590B81
:1049C00056954795840F951F929582958F708927EC
:1049D0009F70892780931A058E3608F09CC0843614
:1049E00008F4ADC081E080931C018CE080930C053D
:1049F000089587E480937C0080937C0010921005DA
:104A000010920F0510920E0580917A00806C8093B1
:104A10007A0080910C058F5F80930C05089580913A
:104A20000F059091100590931305913A08F070C00E
:104A3000913608F47EC081E0809312058AE080936D
:104A40000C0508955D9A82E4D7CF80910F0590916F
:104A5000100590931505913A08F057C0913608F467
:104A600062C081E08093140588E080930C0508956E
:104A70005D9A83E4C1CF80910F0590911005892F35
:104A800080958093160586E080930C050895419AE1
:104A900084E4B2CF80910F05909110059093170593
:104AA00084E080930C050895419A81E4A5CF80911C
:104AB0000F0590911005892F9927909310058093E9
:104AC0000F0580910F0590911005C097D0F080914F
:104AD0000F05909110058037910508F51092180583
:104AE00082E080930C050895409A80E485CF809100
:104AF00011058F3F19F08F5F8093110510920C05FF
:104B0000089582E080931805EBCF10921405ACCF86
:104B10001092120593CF82E080931C0166CF81E052
:104B200080931805DDCF913268F082E08093140500
:104B30009BCF913258F082E0809312057FCF109284
:104B40001C0153CF83E0809314058ECF83E08093C4
:104B5000120574CF81E090911105913208F480E044
:104B6000089580911C05813021F1C8F0823019F040
:104B7000833059F008956FE774E085E00E946C225D
:104B800067E774E086E00C946C2267E774E085E0E8
:104B90000E946C2267E774E086E00C946C2267E860
:104BA00074E085E00E946C2267E974E086E00C9472
:104BB0006C2267E874E085E00E946C226FE874E084
:104BC00086E00C946C2290911B0580911C0598172F
:104BD00031F00E94B12580911C0580931B0560E097
:104BE00087E00E94FA1E85E00E94191F61E087E0BD
:104BF0000E94FA1E86E00C94191F80911C050895EE
:104C000080911C05833020F48F5F80931C050895EC
:104C100083E080931C05089580911C0581508330AA
:104C200018F480931C05089510921C05089565EBF7
:104C300074E081E00E946C226DEA74E082E00C94E2
:104C40006C22FC01808170E0680F711D91816C33D2
:104C500071055CF09F5F01C0922F6C53710921E0D8
:104C6000290F6C337105C0F79183608322819C33D7
:104C700050F02F5F01C0232F9C5331E0320F9C3343
:104C8000D0F722839183283158F08BEA289F812D19
:104C9000112482958F7098E1899F20191124228315
:104CA0000895EF92FF920F931F93CF93DF9300D05D
:104CB00000D000D0CDB7DEB7FC0121813DEC239FB1
:104CC000912D11249695969596954AE0949F2019DA
:104CD0001124205D2D83939F212D11242695269547
:104CE00026958AE0289F90191124905D9C838AE381
:104CF0008B83662359F02281211140C081E389838F
:104D000082E38A8381E08E8389811BC09281939F95
:104D1000812D11248695869586954AE0849F901969
:104D20001124905D9A83839F312D112436953695F9
:104D300036959AE0399F80191124805D898390E22D
:104D40009E838E010E5F1F4F7E0127E0E20EF11C55
:104D500003C0F80181918F010E94191F0E151F05D4
:104D6000C1F726960FB6F894DEBF0FBECDBFDF9118
:104D7000CF911F910F91FF90EF9008952D3050F536
:104D8000922F8DEC989F312D1124369536953695BE
:104D9000389F812D1124869586958695EAE08E9F11
:104DA00030191124832F3323C1F0805D89833DECBA
:104DB000939F312D1124369536953695FAE03F9F15
:104DC00090191124905D9A832C3008F49BCF92E0C7
:104DD0009E83B7CF94EF920FD4CF80E2E7CF80913C
:104DE0001D05882391F060913105862F83708330F3
:104DF00081F060FD05C0647089E295E00C94512655
:104E0000687081E295E00C9451268FE994E00C944F
:104E1000481F86EA94E00C94481F80911D05882362
:104E200019F0815080931D05809131058370813088
:104E300009F0089540911E0150911F01E0911F0556
:104E4000F09120059A01ADECBCEC0E94B02B969538
:104E500087959695879596958795E80FF91FF09316
:104E60002005E0931F0520911E05BC01660F771FEA
:104E7000880F991F880F991F880F991F860F971FFA
:104E8000481B590B420F40931E0580911E058B3025
:104E900080F280911F059091200501969093200546
:104EA00080931F0580911E058A5080931E050895EA
:104EB0008091310580FF08C081FD06C080911F05EB
:104EC000909120050A9708F408954FB7F89420911F
:104ED0001F0530912005ADECBCEC0E94B02B9695DF
:104EE0008795969587959695879520911F05309182
:104EF00020055AE0859F201931091124309320059F
:104F000020931F054FBF682F81E295E00C94212666
:104F1000FC01868180932B05878180932A058085FB
:104F20008093290581858093310582818E30A0F0A0
:104F300082858093230583858093220584858093D1
:104F40002105858590E0982F88272685820F911D61
:104F500090931F0180931E011092200510921F054F
:104F600010921E0580911D0180931D0508958A30C1
:104F700038F08F3F49F08B3F58F480931D0108951E
:104F80008AE080931D01089584E680931D010895B1
:104F90008AEF80931D01089580911D0108958091ED
:104FA0001E0190911F0108951F920F920FB60F924C
:104FB00011240BB60F922F933F934F935F936F93F0
:104FC0007F938F939F93AF93BF93EF93FF938091C2
:104FD000C000887191F08091C60080937605109290
:104FE0007605109233058091C6008D3709F45CC0B8
:104FF0008E3709F059C082E06DC08091C6008D37B0
:1050000009F47FC08E3709F462C09091330591FF97
:105010004BC090FF05C020E282279E7F909333050E
:10502000909176059F3308F074C0E091760591E089
:105030009E0F90937605F0E0E958FA4F80838091B7
:105040007605843009F474C080917605853060F16E
:105050002091760580913205281326C083E0809345
:105060007605809176058217A0F490E0E0917605B0
:10507000F0E0E958FA4F8081980F809176058F5FB4
:105080008093760580917605821780F39F3F09F41F
:1050900055C0E7E7F5E080E4DF011D928A95E9F766
:1050A0001092760510923305FF91EF91BF91AF9169
:1050B0009F918F917F916F915F914F913F912F9130
:1050C0000F900BBE0F900FBE0F901F901895809100
:1050D000330582601092760590E4E7E7F5E0DF01A2
:1050E0001D929A95E9F780933305E091760581E06A
:1050F0008E0F80937605F0E0E958FA4F8EE78083B3
:10510000D3CF8091330581FFCFCF8160809333056A
:10511000CBCF809133058D7F809333051092760538
:1051200080E4E7E7F5E0DF011D928A95E9F7BCCF5F
:10513000809179058C5F8093320586CF88E08093DB
:10514000760580917A05803849F1813809F0A1CF40
:10515000E0917605F0E0EB58FA4F2081E09176057A
:10516000F0E0E958FA4F82818431E0F4E09176056D
:10517000F0E0E958FA4F42816091760570E0695895
:105180007A4F82ED97E00E94DF2AE0917605F0E009
:10519000EB58FA4F8081809320017BCF8EE0809383
:1051A0007605D6CF44E1E8CF1F920F920FB60F924B
:1051B00011240BB60F928F939F93EF93FF93E0917F
:1051C000350581E08E0F80933505F0E0EA5CFA4FFB
:1051D00080818093C60090913505809134059817A1
:1051E00020F480913505803438F08091C1008F7DA6
:1051F0008093C10010923505FF91EF919F918F919F
:105200000F900BBE0F900FBE0F901F9018958FEF51
:1052100080932001569A5E988AB18C7F8AB9109249
:10522000760580E4E7E7F5E0DF01982F1D929A9577
:10523000E9F710923505E6E3F5E0DF011D928A9566
:10524000E9F785E090E09093C5008093C400109248
:10525000C000E1ECF0E0108286E08093C20088E9B3
:1052600080830895AF92BF92CF92DF92EF92FF9228
:105270000F931F93CF93DF93CDB7DEB76E970FB623
:10528000F894DEBF0FBECDBF88ED97E00E94D72A0D
:10529000E82E882349F08091C100282F2072E22E49
:1052A00085FF14C0EE24E3948E2D6E960FB6F8940D
:1052B000DEBF0FBECDBFDF91CF911F910F91FF9049
:1052C000EF90DF90CF90BF90AF9008958E010F5F69
:1052D0001F4F8EE1D8011D928A95E9F78EE78983E9
:1052E00081E08C838FEF8E838F8321E046E1BE01C6
:1052F000675F7F4F88ED97E00E94612BAB8485E06C
:105300008A0D8B83B4E0BA1508F092C0FE0139967D
:105310006F018DEFB82EBA0C9DEFF92E80E090E072
:10532000F1E0FF1520F4D6016C910E941D2AF39440
:10533000BFEFCB1ADB0AFB10F3CF8C879D874A2D7A
:1053400050E0BA01695F7F4F23E030E090E083E0F6
:10535000F801E20FF31F2081920F8F5F282F30E0BA
:1053600062177307ACF7485F5F4FF801E40FF51F52
:10537000909590831092340580E4E6E3F5E0DF0138
:105380001D928A95E9F7E091340581E08E0F8093B4
:105390003405F0E0EA5CFA4F8EE7808321E030E0EC
:1053A00081E07DE760E212C09131D9F0E0913405EF
:1053B00021E02E0F20933405F0E0EA5CFA4F908351
:1053C0008F5F282F30E04217530734F1F801E20FC6
:1053D000F31F9081933129F038F323E8290F22300D
:1053E00028F7E091340521E02E0F20933405F0E0FA
:1053F000EA5CFA4F7083E091340521E02E0F209390
:105400003405F0E09627EA5CFA4F90838F5F282FEF
:1054100030E042175307D4F61092350588ED97E037
:105420000E946A2B8091C10080628093C1003CCFB2
:1054300088ED97E00E946A2B37CF41E0413021F19F
:10544000292F22959295907F582F5295507F26278D
:105450002F7030E0F901E353FB4F82958F70982B4A
:1054600080819827F901E354FB4F808185274230E2
:1054700011F04F5FE3CF292F30E0322F2227A9010F
:10548000480F511DCA010895E92FE627392F32959B
:10549000307F582F5295507FE295EF70F0E0DF019A
:1054A000A353BB4F82958F70832B9C919827E35415
:1054B000FB4F808185274F5FC1CFFC012FB7F89448
:1054C00090818181981B892F65810E94872B892F6C
:1054D0002FBF0895CF92DF92EF92FF920F931F9309
:1054E000CF93DF931F92CDB7DEB76C01453108F043
:1054F00044E1D6018C911396ED90FC901497B5E1A0
:105500008B9FE00CF11C1124042F10E0A801C701AF
:1055100029830E94D32B44E150E0401B510B60E0F3
:1055200070E0C701800F911F0E94DC2BF601808183
:105530000380F481E02D95E1899FE00DF11D112498
:105540002981248BD6018C918F5F8C9315969C9129
:105550001597891708F01C928FB7F894F6012081EF
:105560009181291302C091E092838FBF81E00F9057
:10557000DF91CF911F910F91FF90EF90DF90CF902F
:105580000895CF93FC01CB01CFB7F8947483638364
:10559000458311821082128225E1429FA0011124CD
:1055A00060E070E00E94DC2BCFBFCF910895FC013A
:1055B0002281222311F0858108950C945D2AFC013B
:1055C0003281332311F080E008950C946A2AFC01A3
:1055D0002281222311F080E008950C946A2AAF9270
:1055E000BF92CF92DF92EF92FF920F931F93CF93D0
:1055F000DF93EC016B01B42EA22EE42EF12CA70157
:1056000060E070E0C6010E94DC2B0115110511F06D
:10561000F80110828A81882309F44FC08D81882384
:10562000A1F1EB81FC818981DF0195E1899FA00DCA
:10563000B11D112412968C91B81690F58981BF0185
:1056400095E1899F600D711D1124A701C6010E947B
:10565000D32B0115110559F08981EB81FC8195E16E
:10566000899FE00DF11D11248489F8018083A11028
:1056700022C08FB7F89499819F5F99832D819217EB
:1056800008F019821A828FBF81E0DF91CF911F91BC
:105690000F91FF90EF90DF90CF90BF90AF90089563
:1056A0008981DF0195E1899FA00DB11D112412961A
:1056B000EC90F12CC3CF81E0E8CFCE010E945D2AAF
:1056C000AECF0F931F9300E010E00E94EF2A1F91CE
:1056D0000F910895CF93DF93EC018A81882399F08D
:1056E0008D81882359F08FB7F89499819F5F9983B2
:1056F0002D81921730F41A828FBF81E0DF91CF9114
:1057000008951982F8CFCE010E945D2AEACF991B35
:1057100079E004C0991F961708F0961B881F7A95A8
:10572000C9F78095089597FB072E16F4009407D0CB
:1057300077FD09D00E94BF2B07FC05D03EF4909561
:1057400081959F4F0895709561957F4F0895EE0F55
:10575000FF1F0024001C0BBE0790F691E02D09945A
:10576000A29FB001B39FC001A39F700D811D1124A2
:10577000911DB29F700D811D1124911D0895AA1BCA
:10578000BB1B51E107C0AA1FBB1FA617B70710F02C
:10579000A61BB70B881F991F5A95A9F7809590955E
:1057A000BC01CD010895FB01DC0102C001900D9206
:1057B00041505040D8F70895DC0101C06D9341502D
:1057C0005040E0F70895DC01CB01FC01F999FECFD0
:1057D00006C0F2BDE1BDF89A319600B40D92415079
:1057E0005040B8F70895F999FECF92BD81BDF89A5F
:1057F000992780B50895A6E1B0E044E050E00C940C
:10580000E52BA8E1B0E042E050E00C94E52BDC0190
:10581000CB0103C02D910E94122C41505040D0F773
:105820000895262FF999FECF1FBA92BD81BD20BDE4
:105830000FB6F894FA9AF99A0FBE01960895242F9C
:105840000E94122C252F0E94122C0C94272C0E94AF
:0C585000112C272F0C94122CF894FFCF81
:10585C00FF0F0A00320032000980808008808080AF
:10586C00060580060380030702FF050202960A0064
:10587C00FF303132333435363738394142434445C1
:10588C0046454D524700524556210020454E47494A
:10589C004E45002020204F46462020002020204F3F
:1058AC004E202020005354415254494E47004C493D
:1058BC0047485420004C4F57202020004D45444968
:1058CC00554D0048454156592000574549474854C5
:1058DC00004C4F414400534156450020434E460076
:1058EC003A20004C4F4144494E4700534156494ED3
:1058FC004700534554002D20204C4F434F0053413B
:10590C005645442100464F524345002D2020465514
:10591C004E43002D2D2D00434F4E46494700484F16
:10592C00524E0042454C4C004252414B45004252B3
:10593C004B204F46460041555800454E47204F4E90
:10594C0000454E472053544F500054485220554E5A
:10595C004C4B00462E44494D20233100462E4449E1
:10596C004D20233200462E4845414400462E4449E2
:10597C0054434800522E44494D20233100522E44AA
:10598C00494D20233200522E4845414400522E44AA
:10599C00495443480055502042544E00444F574EF2
:1059AC002042544E002D2D2020202020004C41540C
:1059BC00004D4F4D004E4F544348002D20202043A6
:1059CC004647004E4F544348200054485253484FCA
:1059DC004C44002D20202043414C004C4F57004894
:1059EC0049474800434F4D4D00544852544C2049B0
:1059FC00440042415345204144520054494D4520F6
:105A0C0041445200424153450020414C4C003078F7
:105A1C0000505245465300534C45455000444C5998
:105A2C003A0054494D454F555400434C4B3A007382
:105A3C0000545820494E54564C00545820484C445D
:105A4C004F46005641522042524B0042524B20507E
:105A5C00574D0042524B2045535450004C45442066
:105A6C00424C4E4B00524556205357415000524524
:105A7C0056204C4F434B00204F4E20004449414789
:105A8C00530073656300504B542054494D450052EC
:105A9C005353490020202D0064426D20004E4F20AE
:105AAC005349474E4C00465420524154494F003AFA
:105ABC003100424154544552590056455253494FB6
:105ACC004E00302E392E323900474954205245565B
