:100000000C94C7000C94FB230C94FB230C94E60087
:100010000C94E6000C944D020C94E6000C94E6005F
:100020000C94E6000C94E6000C94E6000C94E600B8
:100030000C94E6000C94E6000C94E6000C94E600A8
:100040000C94C0020C94E6000C94E6000C94E600BC
:100050000C94D5270C94D5280C94E6000C94E6005B
:100060000C947F240C94E6000C94E6000C94E600BB
:100070000C94E6000C94E6000C94E6000C94E60068
:100080000C94E6000C94E6000C94E600A10D991483
:100090003A0D610E0B0EB40EEC0CB20C5C0C870C1E
:1000A000330CE50B000EA10D6D0D3A0D610E0B0E1C
:1000B000B40EEC0CB20C5C0C870C330CE50B000E90
:1000C000A10D321B3A0D610E0B0EB40EEC0CB20CEE
:1000D0005C0C870C330CE50B000EA00DAE1B390D2C
:1000E000600E0A0EB30EEB0CB10C5B0C860C320CDE
:1000F000E40BFF0D5B180315581855185218AC1770
:1001000080173817F016AA16A7167B165E18A10DD1
:10011000E60E3A0D610E0B0EB40EEC0CB20C5C0C3C
:10012000870C330CE50B000E9E10931088107D1089
:10013000721067105C10511046103B1030102510E3
:100140001A100F100410EB0FFE0EA910A623B123F6
:10015000A623BC23A523C723A523BC23A523CF23E4
:10016000A523A523A523A523A523A523A523A5234F
:10017000A523A3237525582555254B2548253C2522
:100180003925262523251025FA24BE247825112477
:100190001FBECFEFD0E4DEBFCDBF14E0A0E0B1E0E2
:1001A000EEE5F8E500E00BBF02C007900D92A03D20
:1001B000B107D9F727E0A0EDB4E001C01D92A03D42
:1001C000B207E1F70E94E3060C942D2C0C9400007A
:1001D00068279091D0042091D104292726232093C9
:1001E000D104909596239093D0046095622B962B22
:1001F0009095892708950F931F93CF93DF93CDB7E1
:10020000DEB7A9970FB6F894DEBF0FBECDBF8E0143
:10021000075D1F4F20E044E1BE016B5E7F4F84EC21
:1002200097E00E94F02A882379F08E899091EA0461
:10023000891709F490C09091EB04891729F08D89F2
:100240008F3F69F0981759F0A9960FB6F894DEBF62
:100250000FBECDBFDF91CF911F910F9108950F89F0
:10026000002309F480C010E020E030E09DEF910F02
:10027000923060F0E5E1F0E0EC0FFD1FE10FF11DC1
:100280006081C9010E941E2A9C010F891F5F1017FF
:1002900068F3832F90E0498D50E048175907A1F685
:1002A0003327888D90E02817390771F68A8D8134BD
:1002B00009F49FC0873509F47BC0823509F4CFC0AB
:1002C000863509F4A8C0883509F464C0843509F47A
:1002D0004FC08F7D863509F0B7CF9E898091EA04A3
:1002E0009813B2CF89A5809319018C8D90E0A0E07E
:1002F000B0E0DC01992788272E8DAC01BD01422B8F
:100300002D8D30E0922F8827A0E0B0E0842B952B34
:10031000A62BB72B8093BD079093BE07A093BF0772
:10032000B093C00748E050E060E270E086E097E0FC
:100330000E94DD2B10920E07402F50E0043108F090
:10034000A6C04C505109BE016F5D7F4F86E097E01B
:100350000E94D42B79CF92E39093EC049091EB041C
:1003600089136DCF71CF80E090E020E030E093CF33
:10037000809100018F3F49F09E89891731F02091CB
:10038000EA04921361CF81115FCFCE0145960E949E
:1003900089275ACFF894A89584B7877F84BF809126
:1003A000600088618093600088E080936000FFCFE8
:1003B0008E89898388E08B8387E78E838B8D6C8D14
:1003C00090E00E94122C8B8D8F839C8D98878111D9
:1003D00061C080E090E00E94F42B8093EB048A835C
:1003E0004B81BE016F5F7F4F8AEC97E00E94E82A45
:1003F0002BCF8E8989838091EB048A8386E08B835F
:1004000081E68E8346E0BE016F5F7F4F8AEC97E006
:100410000E94E82A19CF8E8989838091EB048A8310
:100420008FE08B8386E78E8380E88F8385E58887DE
:100430008BE389878FE48A8781E08B8782E08C87D2
:1004400083E48D8783E58E8784E58F874FE0BE0147
:100450006F5F7F4F8AEC97E00E94E82AF5CE8E8985
:1004600089838091EB048A8388E08B8382E78E8383
:100470008B8D8F8390E00E94F42B888748E0BE012B
:100480006F5F7F4F8AEC97E00E94E82ADDCE48E05C
:1004900050E059CF8091EB04A2CF1F920F920FB67C
:1004A0000F9211240F900FBE0F901F90189585FD8D
:1004B00016C081E08093DF049091DE049817C1F0AC
:1004C00082E390E0909307018093060180910601FA
:1004D000909107019093050180930401089584FD94
:1004E00020C082E08093DF049091DE049813E8CF6F
:1004F0008091DD04853608F1809106019091070115
:100500000A97F8F48091060190910701059730F45D
:1005100085E090E090930701809306011092DD043E
:10052000089586FF06C087FD16C084E08093DF042F
:10053000C3CF83E08093DF04BFCF8F5F8093DD0460
:10054000089580910601909107010A979093070101
:1005500080930601D7CF1092DF04B2CF9091D304DD
:1005600082FF07C09B7F81FD07C092609093D304F8
:100570000895946081FFF9CF9D7F9093D3040895EF
:100580001F920F920FB60F9211240BB60F922F935A
:100590003F934F935F936F937F938F939F93AF930B
:1005A000BF93EF93FF938091E10481608093E10416
:1005B0008091BC078F5F8093BC078A3008F440C0ED
:1005C0001092BC078091E5049091E6040196909307
:1005D000E6048093E5048091EC04882329F080915F
:1005E000EC0481508093EC048091E3049091E40446
:1005F000892B49F08091E3049091E4040197909352
:10060000E4048093E3040E9492238091D20488231F
:1006100019F081508093D2048091A9058F5F809357
:10062000A9052091A90580911A0130E090E0880F7A
:10063000991F880F991F2817390794F50E940E27D4
:100640008091E204882329F08091E2048150809314
:10065000E2042091040130910501809106019091FE
:1006600007012817390748F480910401909105018A
:1006700001969093050180930401FF91EF91BF9142
:10068000AF919F918F917F916F915F914F913F912A
:100690002F910F900BBE0F900FBE0F901F901895CB
:1006A0001092A905CBCFCF93DF9383E090E00E9417
:1006B000F42BC82F82E090E00E94F42B2C2F30E026
:1006C000A901582B4A30510508F465C1453651053A
:1006D00008F0D9C150930301409302018DE190E0ED
:1006E0000E94F42B8A3008F44DC18093010181E10E
:1006F00090E00E94F42B90E0009709F433C18F3F03
:10070000910509F4E0C18436910508F0BFC148E5C0
:1007100052E0849F9001859F300D949F300D1124ED
:100720003093FC062093FB0682E190E00E94F42BBC
:10073000C82F0E94B8278C1729F0682F82E190E01B
:100740000E94122C8EE190E00E94F42B8093000115
:1007500083E190E00E94F42B8093AA0580E090E072
:100760000E94F42B803308F441C18A3408F082C11E
:100770008093EB048FE190E00E94F42B803D08F41D
:100780002CC1803F08F06DC18093EA0480E190E0C5
:100790000E94F42BC82FD0E0CE0101970F9708F0EC
:1007A0000CC1DD27D695DC2FCC27D795C795D093E4
:1007B000B907C093B807CE010E94022C9093E904B8
:1007C0008093E80497FD1BC18031974208F039C13E
:1007D000CE0102960E94F42B80931801CE0103965D
:1007E0000E94F42B80931701CE0108960E94F42BEF
:1007F00080931601CE0109960E94F42B8093150177
:10080000CE010A960E94F42B8093E704CE010B964A
:100810000E94F42B80931401CE010C960E94F42BBD
:1008200080931301CE010D960E94F42B8093120148
:10083000CE010E960E94F42B80931101CE010F96EB
:100840000E94F42B80931001CE0104960E94F42B99
:1008500080930F01CE0143960E94F42B80930E01EA
:10086000CE0105960E94F42B80930D01CE010696D1
:100870000E94F42B80930C01CE0107960E94F42B6A
:1008800080930B01CE0140960E94F42B80930A01C5
:10089000CE0141960E94F42B80930901CE0142962D
:1008A0000E94F42B80930801CE0148960E94FC2BF5
:1008B0006093D8047093D9048093DA049093DB0496
:1008C000CE014C960E94FC2B6093D4047093D50407
:1008D0008093D6049093D70480E290E00E94F42B9A
:1008E0008093BB0781E290E00E94F42B8093BA07CB
:1008F00082E290E00E94F42B8093C10783E290E0B3
:100900000E94F42B8093050784E290E00E94F42B70
:10091000823008F4CBC08B3008F086C080931A0177
:10092000BE01605E7F4F48E050E08DEF96E00E9490
:10093000E42BEDEFF6E021E09EE706C090833196D0
:1009400087E0E530F80759F080818F37B8F78111DB
:10095000F6CF2083319687E0E530F807A9F7DF91DD
:10096000CF91089581E090E09093FC068093FB0680
:1009700061E081E190E00E94122C8091FB06909151
:10098000FC06C5CE8AE0809301016AE08DE190E02B
:100990000E94122CACCE8AE090E0909303018093E9
:1009A000020160E082E090E00E94122C609102015E
:1009B00083E090E00E94122C91CE81E090E0909331
:1009C000B9078093B80761E080E190E00E94122CA3
:1009D000C091B807D091B907E4CE80ED8093EA04C6
:1009E00060ED8FE190E00E94122CD0CE80E38093E6
:1009F000EB0460E380E090E00E94122CBBCE9F7776
:100A00008038910508F4E4CE8FE790E09093E904F4
:100A10008093E8046FE770E0CE010E94282CC0911B
:100A2000B807D091B907D4CE8AE080931A016AE062
:100A300084E290E00E94122CC091B807D091B907CF
:100A40006FCF8FE097E29093E9048093E8046FE022
:100A500077E2CE010E94282CC091B807D091B90747
:100A6000B7CE8FEE8093EA046FEE8FE190E00E94A4
:100A7000122C8CCE89E48093EB0469E480E090E052
:100A80000E94122C77CE84E690E087CF83E690E038
:100A90009093FC068093FB0663E681E190E00E9460
:100AA000122C8091FB069091FC0631CE82E080935F
:100AB0001A0162E084E290E00E94122CC091B80713
:100AC000D091B9072DCF85E090E09093FC068093FC
:100AD000FB0665E081E190E00E94122C8091FB060C
:100AE0009091FC0614CEAF92BF92CF92DF92EF921C
:100AF000FF920F931F93CF93DF93A89560E082E05E
:100B000090E00E94122C6AE083E090E00E94122C98
:100B10006FE08DE190E00E94122C65E081E190E0B1
:100B20000E94122C64E682E190E00E94122C63EF96
:100B300083E190E00E94122C60E380E090E00E944C
:100B4000122C60ED8FE190E00E94122C60E08EE1AB
:100B500090E00E94122C65E084E290E00E94122C4A
:100B600060E080E190E00E94122CC0E8D0E087E0D5
:100B7000A82E97E1B92E27E2C22E37E3D32E47E401
:100B8000E42E57E5F52E07E617E7A895D093B907A9
:100B9000C093B80763E070E0CE010E94282C8091DA
:100BA000B8079091B90762E002960E94122C8091DA
:100BB000B8079091B90761E003960E94122C8091CA
:100BC000B8079091B90760E808960E94122C8091AE
:100BD000B8079091B90760E809960E94122C80919D
:100BE000B8079091B90760E00A960E94122C809194
:100BF000B8079091B90760E80B960E94122C80917B
:100C0000B8079091B90760E80C960E94122C809169
:100C1000B8079091B90760E80D960E94122C809158
:100C2000B8079091B90760E00E960E94122C80914F
:100C3000B8079091B90760E80F960E94122C809136
:100C4000B8079091B9076AE004960E94122C80912F
:100C5000B8079091B90760E843960E94122C8091E2
:100C6000B8079091B90769E005960E94122C80910F
:100C7000B8079091B90768E006960E94122C8091FF
:100C8000B8079091B90760E807960E94122C8091EE
:100C9000B8079091B90765E040960E94122C8091A8
:100CA000B8079091B90766E041960E94122C809196
:100CB000B8079091B90769E042960E94122C809182
:100CC000B8079091B90740E050E0BA0148960E94F9
:100CD000202C8091B8079091B90740E050E0BA010C
:100CE0004C960E94202CA092FD06B092FE06C09267
:100CF000FF06D0920007E0920107F09202070093EE
:100D00000307109304076091B8077091B907605EFC
:100D10007F4F48E050E08DEF96E00E94082CC058CD
:100D2000DF4FC11588E0D80709F02FCFA895DF91D4
:100D3000CF911F910F91FF90EF90DF90CF90BF90D8
:100D4000AF900C94530314BEA8959EE088E10FB6B3
:100D5000F894A895809360000FBE90936000A895CA
:100D60001092EC048FEF809319010E9453030E94AC
:100D700053230E9468240E94DF2316BC8CE687BDA3
:100D80001092BC071092E6041092E50482E084BD44
:100D900085E085BDEEE6F0E0808182608083239A65
:100DA0000895CF93DF9397FD04C0DF91CF910C940A
:100DB0009821EC0183E70E942C1FCE019F77DF91E1
:100DC000CF910C94F51FCF93DF93CDB7DEB7C0540E
:100DD000D1090FB6F894DEBF0FBECDBF80900B05D2
:100DE0008AAA40900A059090E0049CAA0E94A3065B
:100DF0008091B8079091B90780589109880F892F81
:100E0000881F990B9195AA24A394A80EAEA2809056
:100E1000E8049090E9049DA68CA68091EB048E8F47
:100E20008091EA048D8F809100018C8F2091FB06C8
:100E30003091FC063695279536952795369527955A
:100E4000AFE4BBE10E94B12B969587959695879567
:100E5000969587958B8F0E94CD279DEC899F812D3C
:100E600011248695869586958A8F2091020130916E
:100E70000301ADECBCEC0E94B12B9695879596953D
:100E8000879596958795898F28988FB7F8942091A4
:100E9000FB063091FC063093E4042093E3048FBFFB
:100EA0001698A89540E16BEA75E08AEC97E00E94FD
:100EB000C22A48E06FE077E084EC97E00E94C22A03
:100EC0000E9408297894A8958FEF89838091EB047C
:100ED0008A838FE08B8386E78E8380E88F8385E526
:100EE00088878BE389878FE48A8781E08B8782E01C
:100EF0008C8783E48D8783E58E8784E58F874FE039
:100F0000BE016F5F7F4F8AEC97E00E94E82AA895A8
:100F10001092C3070E94432383B1867F8AA785B1BD
:100F2000806F85B985B1866085B94BAA9E01255E23
:100F30003F4F1901AE01425E5F4F59A748A751E0EC
:100F400059AB1DAA1EAA1FAA18AE1AA21BA21CA248
:100F50001DA2512C1FA218E1612E11E0712E1BA6BB
:100F600010E00CE018AA19A29EA0892C912C9FA633
:100F70008EA62250310938A32F8FC12CD12C760197
:100F8000C394202F052DA8952B9A2B988091E104CE
:100F900080FD76C22AAF0E94AD244091BB073091FC
:100FA0000805842F90E00497632F70E02AAD68173E
:100FB00079070CF0F9C28091D3048E7F8093D3041B
:100FC000309109054091C107341708F4D3C250E0AD
:100FD000E0910507632F70E0641B750BF4E6F69F44
:100FE000C001F79F900D11246E2F70E0641B750BEC
:100FF0000E94942BA62E4091AA0541FFC0C2E31780
:1010000028F48091E00481608093E00443FFBEC235
:101010008091A905EA2DF0E060911A010E94882BC9
:1010200090E0019634E1389FB001399F700D112492
:101030006E177F070CF08FC28091D3048860809375
:10104000D30480910A0542FF4DC2813009F449C2A0
:1010500008F400C4823009F045C2E1E04E1611F4F4
:101060000C94761681E044FD41C2BB24B3945090A9
:101070000B05482E013009F458C2043009F48EC320
:10108000053009F47BC32AAF0E9459272AAD822F6D
:1010900090E08D30910508F468C23091DF041111A1
:1010A00004C0313009F4FFC110E03093DE04A8958C
:1010B00084EC97E02AAF0E94D82A2AAD811188C219
:1010C000A8958091EC04811178C21092BD0710920E
:1010D000BE071092BF071092C0078FEF80931901CF
:1010E00089E0E0EBF3E0A6E0B7E001900D928A958D
:1010F000E1F787E08093C3074091D30440FF31C2FA
:101100008091180187FD2DC28F714601570104C0DF
:10111000880C991CAA1CBB1C8A95D2F7D501C40166
:1011200041FF12C03091170137FD0EC03F714601DB
:10113000570104C0880C991CAA1CBB1C3A95D2F715
:1011400088299929AA29BB2942FF12C030910D0193
:1011500037FD0EC03F714601570104C0880C991C31
:10116000AA1CBB1C3A95D2F788299929AA29BB2920
:1011700043FF12C030910F0137FD0EC03F71B70120
:10118000A60104C0440F551F661F771F3A95D2F77A
:10119000842B952BA62BB72B409109053091C107C5
:1011A000431790F430910E0137FD0EC03F71B70127
:1011B000A60104C0440F551F661F771F3A95D2F74A
:1011C000842B952BA62BB72B3FEF300F323008F432
:1011D00003C2053009F438C299A090FE12C03091C4
:1011E0000A0137FD0EC03F71B701A60104C0440FCC
:1011F000551F661F771F3A95D2F7842B952BA62B88
:10120000B72BA9A0A1FE12C03091090137FD0EC075
:101210003F71B701A60104C0440F551F661F771F19
:101220003A95D2F7842B952BA62BB72BA895309106
:101230000605323009F43CC2333009F40AC23130B9
:1012400009F477C2A89530910405323009F42BC215
:10125000333009F457C2313009F42FC24091D80419
:101260005091D9046091DA047091DB04842B952BA2
:10127000A62BB72B4091D4045091D5046091D6048D
:101280007091D70440955095609570954C015D0123
:1012900084229522A622B7228AA29BA2ACA2BDA23A
:1012A0009BA8491409F4B4C188248394912C80919B
:1012B000DF04811107C08FEF840D823018F0811494
:1012C000910459F08FB7F8944091FB065091FC06B9
:1012D0005093E4044093E3048FBFA8958FB7F8942C
:1012E000A090E504B090E6048FBF2AAF0E94AB2522
:1012F0002AAD882379F0892839F4809102019091F0
:101300000301A816B90630F08091CC07882311F4A8
:101310000C94451B8AEC97E02AAF0E94D82A2AAD8C
:10132000882331F08091E204882311F40C94941BFB
:101330003FB7F8948091E3049091E4043FBF892B78
:1013400009F021CEA8951092C30780917A008F777B
:1013500080937A00289A169A88B1837088B9159874
:1013600080916E008D7F80936E005F985E9885B14E
:10137000897F85B92AAF0E94F823419840985D98EB
:1013800083B7817F846083BFF894A8950FB6F894E3
:10139000A895809160008861809360001092600041
:1013A0000FBED99A80916800826080936800809116
:1013B0006C00806F80936C0083B7816083BF7894EA
:1013C0008895F89483B78E7F83BF809168008D7F66
:1013D00080936800A8959EE088E10FB6F894A895E0
:1013E000809360000FBE90936000A8957894289831
:1013F00016980E94432316BC8CE687BD1092BC074A
:101400001092E6041092E50482E084BD85E085BD7B
:1014100080916E00826080936E0085B1866085B990
:101420000E94DF2363B1667F8AA50E94E80063B152
:10143000667F0E94E80063B1667F0E94E80063B1A6
:10144000667F0E94E8008AA70E9457028AA50E9430
:10145000AE028091DF048093DE048FB7F894409150
:10146000FB065091FC065093E4044093E3048FBFC5
:101470002AADA8952B9A2B988091E10480FF8ACD04
:101480008091E1048E7F8093E10463B1667F8AA539
:101490002AAF0E94E8008AA70E9457028AA50E94EC
:1014A000AE022AAD77CD3091DE04313059F02AAF4B
:1014B0000E941D1F2AAD2F5F10920501109204019A
:1014C0003091DF04409104015091050180910601A3
:1014D0009091070110E04817590708F4E6CD2CE079
:1014E000E4CD82E04816A9F144FF33C090910B058A
:1014F000B82E9111842D8111BACD8091080187FDFC
:101500002FC18F714AA15BA16CA17DA104C076950A
:101510006795579547958A95D2F740FF21C150901E
:101520000B05412C013009F0A8CD8091D20488230D
:1015300009F419C12AAF0E9459272AAD822F90E0E1
:101540008D30910508F0A9CDFC01EA5BFF4F0C94AA
:10155000A82BB82ED0CF8091D304877F8093D3045B
:1015600070CD80E090E0DC01DBCDFC01ED5AFF4F57
:101570000C94A82B4091AA0541FD41C0A12C80915B
:10158000E0048E7F8093E00443FD42CD5091BA0782
:10159000852F90E00497632F70E068177907DCF2DD
:1015A000351708F049CD4DCD341708F409CD809199
:1015B000D30481608093D30403CD8091AA0580FF7A
:1015C00004C081E08093C30797CD1092C30794CDE8
:1015D0000E94FB002AAD74CD30910C0137FDFCCD8B
:1015E0003F71B701A60104C0440F551F661F771F46
:1015F0003A95D2F7842B952BA62BB72BEDCD809166
:10160000E0048E7F8093E004E0910507A12CF7CCE5
:10161000AAA85A1049CE8AA09BA0ACA0BDA04DA9F3
:101620005EA96FA978AD84169506A606B70609F0DF
:101630003BCE3091E00491E080E08CA8831201C0A1
:1016400090E0892E982E33CE30910B0137FDC4CD1A
:10165000C7CF3091E70437FD0EC03F71B701A60137
:1016600004C0440F551F661F771F3A95D2F7842B8D
:10167000952BA62BB72B3091140137FDE3CD3F718D
:10168000B701A60104C0440F551F661F771F3A9586
:10169000D2F7842B952BA62BB72BA8953091040558
:1016A000323009F0D5CD3091110137FDD7CD1BC0B7
:1016B0003091E70437FDC6CDE2CF3091130137FDFD
:1016C0000EC03F71B701A60104C0440F551F661F2D
:1016D000771F3A95D2F7842B952BA62BB72B3091F9
:1016E000120137FDBBCD3F71B701A60104C0440F05
:1016F000551F661F771F3A95D2F7842B952BA62B83
:10170000B72BACCD3091110137FD0EC03F71B70141
:10171000A60104C0440F551F661F771F3A95D2F7E4
:10172000842B952BA62BB72B3091100137FD96CD2E
:10173000DACF3091160137FD0EC03F71B701A60117
:1017400004C0440F551F661F771F3A95D2F7842BAC
:10175000952BA62BB72B3091150137FD73CD8FCF6D
:10176000412C512C87CC2AAF0E9459272AAD822FB9
:1017700090E08D30910518F103E08FCC8091D20478
:1017800081111AC12AAF0E9459272AAD822F90E0F9
:101790008D30910508F459C000E07FCC552019F335
:1017A0002AAF0E9459272AAD822F90E08D309105F3
:1017B00008F073CCFC01E05AFF4F0C94A82BFC01FD
:1017C000E359FF4F0C94A82B03E0159A112311F451
:1017D0000C948016113011F40C94A119123011F4EC
:1017E0000C947319133011F40C944219143011F441
:1017F0000C94FA18153011F40C94B818163011F432
:101800000C947918173011F40C946618183011F4F0
:101810000C94C51A193011F40C94AC1A1A3011F446
:101820000C946D1A1B3011F40C944E1A11E0309187
:10183000DF04323009F40DC5343009F4FDC4313011
:1018400011F40C94951A2BE030CCFC01E658FF4FB4
:101850000C94A82B442011F40C94C61B44FD46CED6
:10186000B82E4BCE03E0159A111183C460E083E0DB
:101870000E940D1F84EB92E00E945B1F61E080E0FC
:101880000E940D1F8FE70E942C1F89E393E00E94A6
:101890005B1F3091DF04323009F068C43091DE0400
:1018A000323011F40C94CF1B0E941D1F3091DF04C5
:1018B00011E02AE0FACB03E0159A11110C94F61608
:1018C00060E080E00E940D1F8DE692E00E945B1FA9
:1018D00061E080E00E940D1F8FE70E942C1F86E7C9
:1018E00092E00E945B1F3091DF04323011F00C94C3
:1018F000CC1B3091DE04323011F40C94C91B0E94D1
:101900001D1F3091DF0411E028E0CFCB03E0159AD2
:1019100011110C94B01660E084E00E940D1F87E85E
:1019200092E00E945B1F61E080E00E940D1F8FE744
:101930000E942C1F8EE592E00E945B1F3091DF0415
:10194000323011F00C94D21B3091DE04323011F49D
:101950000C94761C0E941D1F3091DF0411E029E0D9
:10196000A4CB03E0159A11110C943E1760E083E0BC
:101970000E940D1F88E592E00E945B1F61E080E0FD
:101980000E940D1F8FE70E942C1F8EE592E00E949F
:101990005B1F3091DF04323011F00C94A91A3091A2
:1019A000DE04323011F40C94A61A0E941D1F3091EF
:1019B000DF0411E027E079CB2AAF0E9459272AAD36
:1019C000822F90E08D30910508F067CBFC01E9573C
:1019D000FF4F0C94A82B03E0159A112311F40C94DB
:1019E00085178091DC0490E08231910508F4E7C10D
:1019F00061E080E00E940D1F87ED91E00E945B1F77
:101A000061E081E00E940D1FD3018C9187FDACC382
:101A10008F710E945D2220E03091DF04323009F4A2
:101A20001CC2333010F40C946E1D333011F40C943E
:101A3000561D343011F00C944E1D4091040150910C
:101A4000050180910601909107014817590710F48C
:101A50000C944E1DD3018C91982F9F7111F40C940E
:101A6000451D81508C93109205011092040126E0CF
:101A70001CCB03E0159A60E080E00E940D1F0E94DD
:101A8000FE25813009F468C708F4E9C7823009F4FB
:101A9000E1C7833021F483E791E00E945B1F61E09E
:101AA00080E00E940D1F0E94FE25882309F460C774
:101AB000843020F48AE791E00E945B1F0E94E425B5
:101AC0003091DF04333009F45EC7343009F4CFC7F6
:101AD000323009F4C9C722E0E2CA159A60E080E01A
:101AE0000E940D1F8BE391E00E945B1F61E080E08C
:101AF0000E940D1F013009F429C708F491C7043072
:101B000020F48CE491E00E945B1F3091DF043230BE
:101B100009F472C1333008F4CBC7333009F4BBC7C2
:101B2000343009F0B5C780910B01803809F4AFC794
:101B30005110A9C782E38093D20405E021E0AFCA27
:101B400003E060E082E00E940D1F8091E00480FDD0
:101B5000E8C64B1409F4DAC686E391E00E945B1FE5
:101B6000159A61E081E00E940D1F0E94F0260E94FC
:101B70007F2380910A0187FDC2C660E087E00E9452
:101B80000D1F99A090FE44C080910A01881F8827EC
:101B9000881F94E0981B892F0E942C1F61E087E02A
:101BA0000E940D1FA9A0A1FE31C080910901881FCC
:101BB0008827881F94E0981B892F0E942C1F309142
:101BC000DF04323009F48EC608F4FBC6333009F462
:101BD000E6C6343009F03BC78091DE04843009F456
:101BE00036C780910A0187FD27C78091090186FFCA
:101BF0001DC782E089A0882689A220E050CA03E0A0
:101C00000E941D1F3091DF0420E049CA83E0D5CF38
:101C100083E0C2CF03E0159A112309F44FC59E015A
:101C20002B5E3F4F912C802EA12E890160E072E047
:101C3000B72EB90C8B2D0E940D1FD8018D918D01EF
:101C4000805D0E942C1F61E08B2D0E940D1FBBA4A4
:101C50009B1409F42FC580E20E942C1F939424E06A
:101C60009212E4CF1A2D082D3091DF04323009F49E
:101C70007FC708F46BC7333009F42BC7343009F041
:101C800025C7409104015091050180910601909172
:101C900007014817590708F419C7E5E1F0E0EC0F10
:101CA000FD1F8BA4E80DF11D80818A3008F4B4C5B6
:101CB00089E08083109205011092040124E0F5C9A7
:101CC00003E0159A60E080E00E940D1F81E891E03A
:101CD0000E945B1F61E080E00E940D1F8EA10E94A8
:101CE0005D228AE891E00E945B1FA090B807B09047
:101CF000B9078EA59FA59695982F882797958795C4
:101D00009093B9078093B8070E94022C97FDC9C42D
:101D1000803157E2950710F08FE097E20E94D106DC
:101D2000B092B907A092B8073091DF04323009F4BD
:101D300072C708F45BC7333009F4AFC7343009F019
:101D400052C78091DE04843009F44DC72EA12230A1
:101D500008F449C721502EA323E09EA0892C912C82
:101D60009FA68EA69CC903E0159A60E011110C9401
:101D7000B31783E00E940D1F88EA91E00E945B1F69
:101D800061E080E00E940D1F8FE70E942C1F8EEA09
:101D900091E00E945B1F3091DF04323011F00C940F
:101DA000A41D3091DE04323011F40C949B1D0E946E
:101DB0001D1F3091DF041FA211E025E076C9FC0150
:101DC000EC56FF4F60E080E00C94A82B159A60E081
:101DD00080E00E940D1F8BE391E00E945B1F61E099
:101DE00080E00E940D1F87EA93E00E945B1F309104
:101DF000DF04323009F08ECE2CE05DC60E940D1F4C
:101E000088E392E00E945B1F9AE0692E91E0792EB0
:101E100061E080E00E940D1F87ED91E00E945B1F52
:101E200061E081E00E940D1FD3018C9187FDE4C029
:101E30008F710E945D2261E085E00E940D1FF30119
:101E4000808186FFD3C080E592E00E945B1F21E085
:101E50003091DF04323009F0E4CD3091DE043230CD
:101E600011F40C944E1D8091B8079091B9076091C0
:101E7000180102960E94122C8091B8079091B90720
:101E80006091170103960E94122C8091B8079091DF
:101E9000B9076091160108960E94122C8091B8072C
:101EA0009091B9076091150109960E94122C8091BA
:101EB000B8079091B9076091E7040A960E94122C26
:101EC0008091B8079091B907609114010B960E9418
:101ED000122C8091B8079091B907609113010C966C
:101EE0000E94122C8091B8079091B907609112015D
:101EF0000D960E94122C8091B8079091B9076091BD
:101F000011010E960E94122C8091B8079091B9078A
:101F1000609110010F960E94122C8091B807909149
:101F2000B90760910F0104960E94122C8091B807A6
:101F30009091B90760910E0143960E94122C8091F6
:101F4000B8079091B90760910D0105960E94122C77
:101F50008091B8079091B90760910C0106960E9494
:101F6000122C8091B8079091B90760910B010796E8
:101F70000E94122C8091B8079091B90760910A01D4
:101F800040960E94122C8091B8079091B9076091F9
:101F9000090141960E94122C8091B8079091B907CF
:101FA0006091080142960E94122C0E9453030E94E5
:101FB0001D1F60E081E00E940D1F81EA91E00E94F8
:101FC0005B1F87E090E00E94B2220E941D1F3091AB
:101FD000DF0426E066C80E940D1F80E292E00E94A6
:101FE0005B1F42E1642E41E0742E02CD84E592E055
:101FF0000E945B1F21E010CD21E088E492E02AAF2F
:102000000E945B1F2AAD08CD0E940D1F87E192E060
:102010000E945B1F53E1652E51E0752EE9CC0E94B2
:102020000D1F80E392E00E945B1F20E1622E21E001
:10203000722EDECC0E940D1F89E292E00E945B1F8F
:1020400031E1632E31E0732ED3CC0E940D1F8FEF50
:1020500091E00E945B1FE5E16E2EE1E07E2EC8CC90
:102060000E940D1F86EF91E00E945B1FF6E16F2E2C
:10207000F1E07F2EBDCC0E940D1F8FE092E00E9408
:102080005B1F64E1662E61E0762EB2CC0E940D1FCC
:1020900088E092E00E945B1F77EE672E74E0772E57
:1020A000A7CC0E940D1F8DEE91E00E945B1FA8E05F
:1020B0006A2EA1E07A2E9CCC0E940D1F84EE91E046
:1020C0000E945B1FBBE06B2EB1E07B2E91CC0E9487
:1020D0000D1F8DED91E00E945B1F8CE0682E81E06A
:1020E000782E86CC0E940D1F89ED91E00E945B1F27
:1020F0009DE0692E91E0792E7BCC0E940D1F81ED31
:1021000091E00E945B1F2EE0622E21E0722E70CCC7
:102110000E940D1F8BEC91E00E945B1F3FE0632E3D
:1021200031E0732E65CC0E940D1F86EC91E00E9479
:102130005B1F47E1642E41E0742E5ACC0E940D1FB4
:1021400081EC91E00E945B1F58E1652E51E0752EF5
:102150004FCC0E940D1F8FE392E00E945B1F89E02D
:10216000682E81E0782E54CE20E047CF2AE00C94F0
:102170005108159A60E080E00E940D1F113009F4AB
:1021800077C2123009F45BC2133009F447C214302D
:1021900009F437C2153009F42DC2163009F471C1A3
:1021A000173009F420C2183009F416C2193009F4A6
:1021B00001C21A3009F4DBC1B1E02B16B1E03B06D5
:1021C00009F495C111E0BAE12B16B1E03B0609F420
:1021D00064C161E084E00E940D1FD1018C9190E008
:1021E0000E945F2028E03091DF04323009F49EC065
:1021F00008F48EC0333009F470C0343009F06AC07E
:1022000040910401509105018091060190910701D0
:102210004817590708F45EC0283049F181E090E082
:1022200001C0880F2A95EAF78095F10190818923F2
:1022300080832AE00C9455088091DE04843009F4F0
:1022400002CB8091B70781508093B7072BE00C94A5
:1022500055083091DE04323009F4F5CA0E94182680
:102260000E941D1F3091DF042BE00C9451088F8CCD
:1022700098A02814390451F121E0221621E03206F9
:1022800029F1D1018C91823010F081508C93809192
:1022900001018A3018F48AE0809301018B8D81114D
:1022A00002C081E08B8F8A8D811102C081E08A8F0C
:1022B00080911A01823018F482E080931A01109202
:1022C0000501109204012AE00C9455088091D30472
:1022D00080FDD7CF2AE00C9455084091040150911D
:1022E000050180910601909107014817590790F365
:1022F000283009F499C081E090E001C0880F2A9548
:10230000EAF7F1019081892B80832AE00C9455082B
:10231000313001F73091DE043130E1F21F5F0E946D
:102320001D1F3091DF042AE00C9455083091DE0423
:10233000323081F26B8D81E190E00E94122C8A8D07
:10234000880F682F660F660F680F82E190E00E9489
:10235000122C60911A0184E290E00E94122C60918C
:10236000AA0583E190E00E94122C609101018DE1A9
:1023700090E00E94122C898DBAE08B9FC00111243D
:102380009093030180930201692F82E090E00E9404
:10239000122C6091020183E090E00E94122C0E94B6
:1023A00053032091FB063091FC0636952795369510
:1023B000279536952795AFE4BBE10E94B12B969502
:1023C000879596958795969587958B8F0E94CD27B3
:1023D0009DEC899F812D11248695869586958A8FFF
:1023E0002091020130910301ADECBCEC0E94B12BB5
:1023F000969587959695879596958795898F0E944E
:102400001D1F60E081E00E940D1F81EA91E00E94A3
:102410005B1F87E090E00E94B2220E941D1F309156
:10242000DF042AE00C9451088F8C98A028143904FA
:1024300019F121E0221621E03206F1F0D1018C9150
:102440008F3F11F08F5F8C93898D8B3010F08AE075
:10245000898F8B8D843610F083E68B8F8A8D8A313D
:1024600010F089E18A8F80911A018B3008F427CF10
:102470008AE080931A0123CF8091D30480FF2ACF72
:10248000DDCF8EEE92E00E945B1F61E087E00E944C
:102490000D1F82ED92E00E945B1F61E084E00E94CC
:1024A0000D1F80911A01EDECBE2E8B9D812D112404
:1024B000869586958695805D0E942C1F8EE20E94EF
:1024C0002C1F90911A019B9D812D11248695869534
:1024D0008695EAE08E9F90191124892F805D0E94D5
:1024E0002C1F28E0FAE12F2EF1E03F2E7CCE11E0E8
:1024F00061E083E00E940D1F8091010199E2899FB4
:10250000812D112482958F70805D0E942C1F8EE298
:102510000E942C1F80910101ADECBA2E8B9D812D64
:1025200011248695869586958B9D912D11249695DF
:10253000969596957AE0979F80191124805D0E9468
:102540002C1F909101019B9D812D112486958695CC
:102550008695AAE08A9F90191124892F805D0E9498
:102560002C1F28E0B1E02B2EB1E03B2E3CCE81E1C8
:1025700093E00E945B1F34E024E061E084E02AAF36
:1025800039AF0E940D1F8091AA0590E039AD02C0BD
:10259000959587953A95E2F72AAD80FF12C08AE1BA
:1025A00093E02AAF0E945B1F9AEA292E95E0392E0C
:1025B0002AAD19CE88E093E00E945B1F32E022E052
:1025C000DCCF84ED91E02AAF0E945B1F8AEA282EBF
:1025D00085E0382E2AAD07CE8FEF92E00E945B1F78
:1025E00030E020E0CACF86EF92E00E945B1F31E02E
:1025F00021E0C3CF86EE92E00E945B1F33E023E030
:10260000BCCF8DED92E00E945B1F61E087E00E94ED
:102610000D1F82ED92E00E945B1F6ACF84ED92E075
:102620000E945B1F61E087E00E940D1F82ED92E037
:102630000E945B1FBE01675E7F4F1B01CACD85EC08
:1026400092E00E945B1F61E080E00E940D1F8DEC14
:1026500092E00E945B1F61E087E00E940D1F82ED07
:1026600092E00E945B1FAE01465E5F4F1A01B1CD42
:102670008AEB92E00E945B1F61E080E00E940D1FE8
:1026800080EC92E00E945B1F61E087E00E940D1FDA
:102690008AE892E00E945B1F9E01255E3F4F190170
:1026A00098CD9C013F772038310508F437CB8FE770
:1026B00090E834CB8EE50E942C1FD0CA60E085E004
:1026C0000E940D1F85E991E00E945B1F61E080E0A0
:1026D0000E940D1F8FE70E942C1F89E991E00E9444
:1026E0005B1F3091DF04323009F0F9C03091DE0415
:1026F000323009F4F1C0ACA4BDA4B7FC93C02CA542
:102700003DA5369527953695279536952795A5ECC1
:10271000B0E20E94B12BAC01529542954F70452713
:102720005F7045279A01ADECBCEC0E94B12B9695E9
:10273000879596958795969587959C01220F331FCF
:10274000880F991F880F991F880F991F820F931F59
:10275000481B590B4D8B2CA53DA5369527953695D5
:102760002795ABE7B4E10E94B12BAC015695479594
:102770009A01ADECBCEC0E94B12B9695879596958D
:102780008795969587959C01220F331F880F991F77
:10279000880F991F880F991F820F931F481B590B91
:1027A0004E8B2CA53DA50E94B12BAC0156954795AB
:1027B00056954795569547959A010E94B12B969547
:1027C000879596958795969587959C01220F331F3F
:1027D000880F991F880F991F880F991F820F931FC9
:1027E000BA01681B790B6F8BCA01880F991F440FC0
:1027F000551F440F551F440F551F840F951F8CA460
:102800009DA4881A990A888E0E941D1F3091DF04AA
:1028100011E024E00C945508882309F44BCA815038
:10282000808348CA83E48D8BF501FF779F0136953D
:10283000279536952795ABE7B4E10E94B12BAC0103
:10284000569547959A01ADECBCEC0E94B12B96953C
:10285000879596958795969587959C01220F331FAE
:10286000880F991F880F991F880F991F820F931F38
:10287000481B590B4E8B9F010E94B12BAC01569502
:10288000479556954795569547959A010E94B12BC5
:102890009695879596958795969587959C01220F95
:1028A000331F880F991F880F991F880F991F820F58
:1028B000931F9A01281B390B2F8BCA01880F991F70
:1028C000440F551F440F551F440F551F840F951F6C
:1028D000E81BF90BE88F98CF24E00C94540824E00F
:1028E0000C9451088091DE04823009F4B0C081E07C
:1028F00088A8811080E088AB20E00C944F0880917C
:10290000090187FF3AC90E94E42559C98091E8046A
:102910009091E9040E94D10688A8882041F0159A78
:1029200020C981E391E00E945B1F159A1AC915988E
:1029300018C9159A60E080E00E940D1F8BE391E0BA
:102940000E945B1F61E080E00E940D1F85E591E021
:102950000E945B1F01E0D9C885E691E00E945B1FE1
:1029600061E080E00E940D1F0E94FE258111A0C839
:102970008CE391E00E945B1F0E94E4253091DF040C
:10298000333009F0A2C83091DE04333009F4A3C813
:102990000E9401263091DF0422E00C944F088091C0
:1029A000DE04833009F453C080910A0187FD20C002
:1029B00086FF18C081E0B9A0B826B9A220E00C9427
:1029C0004F0880910A0186FD03C029A12E7F29A30B
:1029D0008091090186FD3BC049A14D7F49A320E0BC
:1029E0000C944F0829A1216029A320E00C944F08E2
:1029F0009091090197FFDCCF0E9401263091DF04FE
:102A000020E00C944F08159A60E080E00E940D1FB2
:102A10008BE391E00E945B1F61E080E00E940D1F4C
:102A200083E491E00E945B1F00E06FC829A122604F
:102A300029A320E00C944F088091090187FFD7C893
:102A40000E940D263091DF0420E00C944F0820E016
:102A50000C944F088CE691E00E945B1F20C88EE525
:102A600091E00E945B1F1BC82CE00C944F08309132
:102A7000DE04343009F42FC80E940D263091DF04A3
:102A800022E00C944F0804E021E00C944F0800E091
:102A900021E00C944F0880910B01803899F00111CE
:102AA000F7CF82E38093D20401E021E00C944F0839
:102AB000313071F721E0043011F00C944F0803E03D
:102AC0000C944F0802E021E00C944F0824E00C9491
:102AD00055084091040150910501809106019091A3
:102AE00007014817590790F38BA4811003C08D8903
:102AF000893049F1E5E1F0E0EC0FFD1F9BA4E90D01
:102B0000F11D8081893010F48F5F80838D898A3038
:102B100008F4D0C82E898F893AE0839FC001112420
:102B200044E6249F800D911D1124288D820F911D54
:102B30008038910534F081E08E8B82E08F8B87E0C6
:102B4000888F33E0B7C883E48D8BE4CF313009F050
:102B5000BDCF8091DE04813009F4B8CF2BA52F5F63
:102B60002BA7243008F4B2CF1BA624E00C94550800
:102B70003091DE04323009F4A9CF8D898A3008F40F
:102B80009EC08E896F892AE0629FB001112434E6CD
:102B9000839F600D711D1124888D680F711D7068F1
:102BA0008091B8079091B9070E94282C0E94530386
:102BB0008090E8049090E9049DA68CA60E941D1FB9
:102BC00060E081E00E940D1F81EA91E00E945B1F9E
:102BD00087E090E00E94B2220E941D1F3091DF0426
:102BE00024E00C94510823E00C944F083130D9F7BD
:102BF000C50180589109880F892F881F990B9195DD
:102C0000AA24A394A80EAEA223E08A2C912C9FA6FE
:102C10008EA60C944F083091DE04323021F36EA161
:102C200080E190E00E94122C0E9453038091B8072B
:102C30009091B90780589109880F892F881F990BA7
:102C40009195AA24A394A80EAEA20E941D1F60E035
:102C500080E00E940D1F8DE891E00E945B1F61E003
:102C600080E00E940D1F68E0B62E81E090E00E9497
:102C7000B2228EE20E942C1FBA94B110F6CF83E0EC
:102C800090E00E94B2223091DF042CE09EA0892CBB
:102C9000912C9FA68EA60C944F088091DE04833061
:102CA00009F4A1CF6EA16F3008F09DCF6F5F6EA3C6
:102CB00023E0862E912C9FA68EA60C944F082E8979
:102CC0009F8948EE53E0849FB001859F700D1124C9
:102CD00044E6249F600D711D11245AE0959F600DFC
:102CE000711D1124888D680F711D5ACFBB24B394B8
:102CF00081E00C94370800E0159A11110C94EA0B4E
:102D000060E083E00E940D1F8FE193E00E945B1F53
:102D100061E080E00E940D1F8FE70E942C1F89E375
:102D200093E00E945B1F3091DF04323009F02AC427
:102D30003091DE04323009F422C40E94C6220E947F
:102D40001D1F3091DF0411E02BE00C94550800E0CA
:102D50000C94330C00E0159A112311F40C948B0C95
:102D6000159A60E080E00E940D1F113009F4ADC596
:102D7000123009F498C5133009F479C511E0309187
:102D8000DF04323009F440C508F430C5333009F4AB
:102D90000FC5343009F009C5409104015091050177
:102DA00080910601909107014817590708F4FDC466
:102DB000E8A5F9A58081882311F0815080838E8D4C
:102DC000803310F480E38E8F8D8D803D10F480ED84
:102DD0008D8F109205011092040129E00C94550882
:102DE00000E0159A112311F40C94600C159A60E020
:102DF00080E00E940D1F113009F43AC6123009F428
:102E00002AC6133009F412C6143009F4FAC52BEBA4
:102E1000822E27E0922E38E0A32E35E0B32E11E06B
:102E200060E087E00E940D1FD4018C918F3F09F470
:102E3000E4C5F5019081981708F0DDC583E00E9494
:102E40002C1F61E085E00E940D1FD5018C9190E060
:102E50000E94F51F3091DF04323009F488C5333009
:102E600009F46EC5313009F444C528E00C945508C6
:102E700000E0159A112311F40C94B60C159A60E039
:102E800080E00E940D1F86E692E00E945B1F80E3B7
:102E9000810F0E942C1F61E080E00E940D1F812F96
:102EA00090E0FC01E450F94F5F01808190E00E94C6
:102EB000E0203091DF04323009F4A9C308F496C34E
:102EC000333009F481C3343009F07BC340910401ED
:102ED000509105018091060190910701481759070B
:102EE00008F46FC3D5018C91823008F466C3815019
:102EF0008C93109205011092040127E00C94550860
:102F000000E0159A11110C94F10C60E082E00E942F
:102F10000D1F8AEB91E00E945B1F61E080E00E9440
:102F20000D1F8FE70E942C1F8EEA91E00E945B1F0D
:102F30003091DF04323009F004C63091DE043230C3
:102F400009F4FCC51092DC040E941D1F3091DF04BF
:102F500011E026E00C94550800E0159A60E011237A
:102F600011F40C94B90E80E00E940D1F87ED91E0E2
:102F70000E945B1F8FA10E945D2260E085E00E949D
:102F80000D1F5FA1452F50E05CAF4BAF8091D8047F
:102F90009091D904A091DA04B091DB040FA004C091
:102FA000B695A795979587950A94D2F780FDCFC5DA
:102FB0008091D4049091D504A091D604B091D70407
:102FC0000FA004C0B695A795979587950A94D2F758
:102FD00080FFECC685ED91E00E945B1F3091DF041D
:102FE000323009F4A9C608F443C6333009F4E6C503
:102FF000343009F0E0C54091040150910501809101
:103000000601909107014817590708F4D4C580912B
:10301000D4049091D504A091D604B091D704AC010A
:10302000BD010BAC04C076956795579547950A94FA
:10303000D2F740FF91C5B701A6010BAC04C0440F05
:10304000551F661F771F0A94D2F74A015B018094CF
:103050009094A094B09488219921AA21BB218093B7
:10306000D4049093D504A093D604B093D704809150
:10307000D8049091D904A091DA04B091DB04482BD4
:10308000592B6A2B7B2B4093D8045093D90460931F
:10309000DA047093DB04109205011092040125E01C
:1030A0000C94550800E00C940B0E00E00C94610E9B
:1030B00000E00C943A0D00E00C94A10D00E00E9499
:1030C0001D1F3091DF0420E00C944F08159A60E03A
:1030D00080E00E940D1F8DE593E00E945B1F61E080
:1030E00080E00E940D1F85E693E00E945B1F0C9418
:1030F000170C159A60E080E00E940D1F85E593E0B3
:103100000E945B1F61E081E00E940D1F0E947C23F2
:1031100090E062E370E00E94942BCB016AE070E0E3
:103120000E94942B805D0E942C1F8EE20E942C1F17
:103130000E947C2390E065E070E00E94942BCB011C
:103140006AE070E00E94942B805D0E942C1F0E9418
:103150007C2390E0880F991F6AE070E00E94942B16
:10316000805D0E942C1F86E50E942C1F0C94170C7A
:10317000159A60E080E00E940D1F89E493E00E94B0
:103180005B1F61E081E00E940D1F0E94D027B82ED6
:1031900089E2B89E812D112482958F7009F451C067
:1031A000805D0E942C1F8DECB89EA12C1124A6944A
:1031B000A694A694A89E812D112486958695869521
:1031C0003A2D2AE0829F30191124832F805D0E94BE
:1031D0002C1F8EE20E942C1F8B2D4AE0A49E80198A
:1031E0001124805D0E942C1F82E593E00E945B1FEA
:1031F0000C94170C159A60E080E00E940D1F82E38A
:1032000093E00E945B1F61E080E00E940D1F8091AF
:1032100019018F3F69F18A3008F18436B0F488E3F0
:1032200093E00E945B1F809119010E94312261E0AE
:1032300084E00E940D1F8BE393E00E945B1F0C94BF
:10324000170C80E20E942C1FAECF8DE20E942C1F33
:103250008091190190E00E945F20E9CF87E393E01D
:103260000E945B1F80911901805D0E942C1FDFCF9F
:1032700061E080E00E940D1F80E493E00E945B1FEC
:103280000C94170C159A60E080E00E940D1F89E2F3
:1032900093E00E945B1F61E080E00E940D1F8BE5C0
:1032A0000E942C1F61E087E00E940D1F8DE50E94A7
:1032B0002C1F61E081E00E940D1F8091EC0490E0E2
:1032C000069667E070E00E94942BB62E36E0A32E9F
:1032D000BB2099F1BA948FEF0E942C1FAA94A110E1
:1032E000F7CF0C94170C159A60E080E00E940D1F38
:1032F0008AEB92E00E945B1F61E080E00E940D1F5C
:103300008FB7F8942091E3043091E4048FBFADECC3
:10331000BCEC0E94B12B96958795969587959695CE
:1033200087950E94E02061E085E00E940D1F85E204
:1033300093E00E945B1F0C94170C80E20E942C1FEC
:10334000CDCF159A60E085E00E940D1F5110A1C0FD
:1033500089E40E942C1F60E080E00E940D1F809194
:10336000E00480FD91C08091D30483FD8BC083E095
:103370000E942C1F8A2D843608F083E60E94312299
:1033800085E20E942C1F60E087E00E940D1FE1E0B3
:103390004E1609F473C04E1608F46CC0F2E04F12DA
:1033A00003C082E50E942C1F61E082E00E940D1F95
:1033B0008091D30482FD5CC083E00E942C1F61E0F9
:1033C00084E00E940D1F8091D30481FD4FC080E2F4
:1033D0000E942C1F61E085E00E940D1F8091D304A4
:1033E00080FD2FC080E20E942C1F61E087E00E94D8
:1033F0000D1F80910605813001F128F18230C9F05E
:10340000833019F48AE20E942C1F61E080E00E9460
:103410000D1F80910405813021F1F0F08230B9F068
:10342000833011F00C94170C8AE20E942C1F0C942C
:10343000170C82E40E942C1FE8CF84E40E942C1F0A
:10344000E4CF82E0D0CF8DE20E942C1FDECF82E459
:103450000E942C1F0C94170C8DE20E942C1F0C94C0
:10346000170C84E40E942C1F0C94170C81E0B0CF41
:1034700084E0A3CF8EE40E942C1F96CF86E40E94A6
:103480002C1F92CF84E074CF81E391E00E945B1FF8
:103490007ACF80E3850D0E942C1F5DCF8091B70706
:1034A0008823B1F1159A60E080E00E940D1F86E844
:1034B00093E00E945B1F61E080E00E940D1F8EE898
:1034C00093E00E945B1F8091B707805D0E942C1FD4
:1034D0008EE70E942C1F0C94170C159A60E080E078
:1034E0000E940D1F8DE793E00E945B1F61E081E069
:1034F0000E940D1F8091BF070E94C11F8091BE07CF
:103500000E94C11F8091BD070E94C11F0C94170C1F
:103510000E941D1F60E080E00E940D1F85E993E07E
:103520000E945B1F0E947305FFCF3091DE04313093
:1035300011F40C94230C1F5F0E941D1F85E08093E3
:10354000B7073091DF042BE00C94550827E00C946A
:10355000540827E00C945108159A60E080E00E941E
:103560000D1F84E793E00E945B1F61E080E00E94F2
:103570000D1F86E097E00E945B1F0C94170C2BE058
:103580000C9454082BE00C945108159A60E080E0EC
:103590000E940D1F8CE693E00E945B1F61E081E0BA
:1035A0000E940D1F85E50E94C11F8BE30E94C11F71
:1035B0008FE40E94C11F0C94170C81E0F5018083F9
:1035C00098CC27E00C9455084091040150910501D6
:1035D00080910601909107014817590790F3D50192
:1035E0008C918E37D8F58F5F8C9383CC313049F72F
:1035F0003091DE04313029F31F5F193008F011E0FB
:103600000E941D1F3091DF0427E00C944F08309179
:10361000DE043230B1F26091B8077091B907605E94
:103620007F4F48E050E08DEF96E00E94082C0E940A
:1036300053030E941D1F60E081E00E940D1F81EA7C
:1036400091E00E945B1F87E090E00E94B2220E94FE
:103650001D1F3091DF0427E00C9451088EE7F5011F
:10366000808347CC159A60E080E00E940D1F8BE3B9
:1036700091E00E945B1F61E080E00E940D1F8EE9D7
:1036800093E00E945B1F0C94850D8FB7F894109205
:10369000E6041092E5048FBF9090E0049CAA80910C
:1036A000EA0489838091EB048A838FE08B8383E52E
:1036B0008E838091E8049091E9049F8388878091AC
:1036C000E00480FF47C081E08987AA24A3944A14BC
:1036D000D9F182E0B82E4B14A1F139A93130A1F112
:1036E0006DA16A877CA17B878BA18C879AA19D871E
:1036F0008091E0048E872AAF0E947C238F874B81C4
:10370000BE016F5F7F4F8AEC97E00E94E82A8AA093
:103710009BA0ACA0BDA08DAA9EAAAFAAB8AE4BAA92
:103720005AAA2AAD0C948A09A8950E9433298FB70A
:10373000F894909101019093E2048FBF2AAD0C940C
:10374000980952E059ABCCCF89858068898741E0E0
:1037500049ABC6CF511012C01986B7CF159A60E099
:1037600080E00E940D1F8BE391E00E945B1F61E0EF
:1037700080E00E940D1F03E00C94810DE52DF0E028
:10378000E450F94F80818F5F89879FCFB12C0C94D3
:103790007D0A28E00C94540828E00C9451082AE093
:1037A0000C94540829E00C94510829E00C94550815
:1037B000409104015091050180910601909107010B
:1037C0004817590790F3A8A5B9A58C918F3F11F020
:1037D0008F5F8C938E8D8A3410F089E48E8F8D8D5F
:1037E000803F08F4F6CA8FEE8D8FF3CA3130E9F6C8
:1037F0003091DE043130C9F21F5F0E941D1F3091ED
:10380000DF0429E00C9455083091DE04323069F26F
:103810006E8D80E090E00E94122C6D8D8FE190E023
:103820000E94122C6C8D8EE190E00E94122C0E945E
:1038300053038091EB048E8F8091EA048D8F8091E9
:1038400000018C8F0E941D1F60E081E00E940D1F0F
:1038500081EA91E00E945B1F87E090E00E94B22223
:103860000E941D1F3091DF0429E00C9451088EE95D
:1038700092E00E945B1FBC8CBB2009F453C05FEF39
:1038800061E082E0B51609F441C00E940D1F81EB92
:1038900092E00E945B1F8B2D0E94C11FCE014C96AF
:1038A00099A788A76CCA85E992E00E945B1F61E036
:1038B00083E00E940D1F8D8D805D0E945D229E0120
:1038C000235E3F4F39A728A75ACA8CE892E00E948E
:1038D0005B1F61E084E00E940D1F8E8D8F5E0E9451
:1038E0002C1FFE017E96F9A7E8A749CA29E00C948F
:1038F00054083091DE04313009F4B7CA1F5F0E94CA
:103900001D1F3091DF0428E00C9455080E940D1F04
:103910008CEA92E00E945B1FBE01645E7F4F79A734
:1039200068A72DCA61E082E00E940D1F87EA92E03D
:103930000E945B1FAE01445E5F4F59A748A71FCA94
:103940008091DE04833009F490CAB1EC8B16B7E0A5
:103950009B0609F448C0F5E08F16F7E09F06D9F101
:10396000F5018081D4018C9328E00C9455083091A6
:10397000DE04323009F479CA6091BB0780E290E03E
:103980000E94122C6091BA0781E290E00E94122CF2
:103990006091C10782E290E00E94122C60910507BD
:1039A00083E290E00E94122C0E9453030E941D1F8C
:1039B00060E081E00E940D1F81EA91E00E945B1FA0
:1039C00087E090E00E94B2220E941D1F3091DF0428
:1039D00028E00C945108D5018C91855080930507FF
:1039E00028E00C945508F50180818B5F8093C10716
:1039F00028E00C94550884E022CA8DE20E942C1F16
:103A000020CA8BEC91E00E945B1F61E080E00E9485
:103A10000D1F82E892E00E945B1F45E0842E47E084
:103A2000942E59E0A52E55E0B52EFAC98BEC91E005
:103A30000E945B1F61E080E00E940D1F8EE792E014
:103A40000E945B1F61EC862E67E0962E79E0A72E20
:103A500075E0B72EE5C98BEC91E00E945B1FEAEBA5
:103A60008E2EE7E09E2EF9E0AF2EF5E0BF2ED8C9EE
:103A700081EC91E00E945B1FABEB8A2EA7E09A2EAF
:103A8000B8E0AB2EB5E0BB2ECBC9222351F086FFA8
:103A900008C08CE1F30180830C94330D26E00C9474
:103AA000550880E8D3018C930C94330D40910401A8
:103AB000509105018091060190910701481759071F
:103AC00068F3D3018C9187FD2EC0982F9F719C3194
:103AD000F8F48F5FF30180830C94330D3130F1F6ED
:103AE0003091DE043130D1F28091DC048F5F80931D
:103AF000DC04823110F01092DC0410920501109267
:103B000004010E941D1F3091DF0426E00C9455082B
:103B1000982F9074222351F086FD08C080E4D301D1
:103B20008C930C94330D1C920C94330D945EF30122
:103B300090830C94330D25E00C94540826E00C94EB
:103B4000540826E00C94510825E00C94510880EEAE
:103B500091E00E945B1F42CAB701A6010BAC04C0F2
:103B6000440F551F661F771F0A94D2F74095509552
:103B70006095709584239523A623B7238093D4045E
:103B80009093D504A093D604B093D7048091D80421
:103B90009091D904A091DA04B091DB044823592311
:103BA0006A237B234093D8045093D9046093DA04AA
:103BB0007093DB0470CA25E00C9455084091040111
:103BC000509105018091060190910701481759070E
:103BD00090F34091D8045091D9046091DA04709127
:103BE000DB04DB01CA010BAC04C0B695A795979521
:103BF00087950A94D2F780FF54C08091D4049091A5
:103C0000D504A091D604B091D704460157010BAC5E
:103C100004C0880C991CAA1CBB1C0A94D2F72196DC
:103C20008CAE9DAEAEAEBFAE219780949094A09422
:103C3000B094482159216A217B214093D8045093A4
:103C4000D9046093DA047093DB0421964CAD5DAD2A
:103C50006EAD7FAD2197842B952BA62BB72B809330
:103C6000D4049093D504A093D604B093D70413CA78
:103C7000313009F0A0CF3091DE04313009F49BCF10
:103C80009FA19F5F9FA39D3108F01FA21092050185
:103C9000109204010E941D1F3091DF0425E00C9456
:103CA00055088091D4049091D504A091D604B09188
:103CB000D7044C015D010BAC04C0B694A794979453
:103CC00087940A94D2F78AA29BA2ACA2BDA280FCE0
:103CD0009CCF460157010BAC04C0880C991CAA1C50
:103CE000BB1C0A94D2F721968CAE9DAEAEAEBFAE91
:103CF000219780949094A094B09488219921AA212E
:103D0000BB218093D4049093D504A093D604B093A0
:103D1000D70421968CAD9DADAEADBFAD2197482B9C
:103D2000592B6A2B7B2B4093D8045093D904609372
:103D3000DA047093DB04AFC93091DE04323009F449
:103D40003ACF4091D8045091D9046091DA0470912F
:103D5000DB048091B8079091B90748960E94202C07
:103D60004091D4045091D5046091D6047091D70449
:103D70008091B8079091B9074C960E94202C0E9420
:103D800053030E941D1F60E081E00E940D1F81EA25
:103D900091E00E945B1F87E090E00E94B2220E94A7
:103DA0001D1F3091DF0425E00C94510886EB91E053
:103DB0000E945B1F13C9662341F1429A439898B150
:103DC0009F7098B998B1282F207F922B98B9439A69
:103DD00044E04A95F1F7439898B19F7098B998B12B
:103DE00040E1849F90011124292B28B9439A94E043
:103DF0009A95F1F74398611103C08150833038F0F0
:103E00009DED9A95F1F7000008954298D7CF89E982
:103E100095E10197F1F700C00895660F660F660FF0
:103E2000860F8093ED040895662321F060E08054AE
:103E30000C94DB1E80580C94DB1E60E081E00E9435
:103E4000DB1E1092ED04EEEEF4E080E2819394E04C
:103E5000EE3FF907D9F70895CF939091ED04482FDD
:103E6000082E000C550BE92FF0E0E251FB4F2081AA
:103E700030E042175307A1F0C82F692F6695669569
:103E80006695892F87700E94141F61E08C2F0E9415
:103E9000DB1E9091ED04E92FF0E0E251FB4FC0836F
:103EA0009F5F903120F01092ED04CF910895909390
:103EB000ED04CF910895CF93DF93EC012196FC019F
:103EC0008081882329F00E942C1F89918111FBCFCA
:103ED000DF91CF910895CF93C82F97B19C6F97B979
:103EE00042982FEF8FE593E0215080409040E1F71A
:103EF00000C00000439898B19F7098B998B1906342
:103F000098B9439A24E02A95F1F743988FEF95E307
:103F10000197F1F700C00000439A94E09A95F1F7F9
:103F2000439881EF91E00197F1F700C0439A94E044
:103F30009A95F1F7439881EF91E00197F1F700C06E
:103F400098B19F7098B9459A439A94E09A95F1F781
:103F5000439881EF91E00197F1F700C060E088E2BB
:103F60000E94DB1E60E088E00E94DB1E0E941D1F95
:103F700060E086E00E94DB1E60E08C2FCF910C9405
:103F8000DB1E1F93CF93DF93CDB7DEB760970FB6DD
:103F9000F894DEBF0FBECDBF182F80E1E1E2F1E063
:103FA000DE01119601900D928A95E1F7812F82959D
:103FB0008F70E1E0F0E0EC0FFD1FE80FF11D808154
:103FC0000E942C1F1F70E1E0F0E0EC0FFD1FE10FDD
:103FD000F11D808160960FB6F894DEBF0FBECDBF95
:103FE000DF91CF911F910C942C1F0F931F93CF93B0
:103FF000DF938C019C013695279536952795ABE785
:10400000B4E10E94B12BFC01F695E7959F01ADEC60
:10401000BCEC0E94B12BAC0156954795569547953F
:1040200056954795CA01880F991F440F551F440F95
:10403000551F440F551F480F591FCF01841B950B67
:10404000805D0E942C1F9801ADECBCEC0E94B12B4E
:10405000EC01D695C795D695C795D695C7959E017F
:104060000E94B12BAC0156954795569547955695AC
:104070004795CA01880F991F440F551F440F551FBC
:10408000440F551F480F591FCE01841B950B805DAF
:104090000E942C1FCE01880F991FCC0FDD1FCC0F63
:1040A000DD1FCC0FDD1FC80FD91FC8018C1B9D0B56
:1040B000805DDF91CF911F910F910C942C1FCF93B6
:1040C000DF93EC018436910508F46FC09C013695AE
:1040D000279536952795ABE7B4E10E94B12BFC01FB
:1040E000F695E7959F01ADECBCEC0E94B12BAC01BD
:1040F000569547955695479556954795CA01880F09
:10410000991F440F551F440F551F440F551F480F4B
:10411000591FCF01841B950B805D0E942C1F9E01AF
:10412000ADECBCEC0E94B12BFC01F695E795F69541
:10413000E795F695E7959F010E94B12BAC01569546
:1041400047955695479556954795CA01880F991FEB
:10415000440F551F440F551F440F551F480F591F3B
:10416000CF01841B950B805D0E942C1F9E01ADEC3E
:10417000BCEC0E94B12B9695879596958795969560
:1041800087959C01220F331F880F991F880F991F55
:10419000880F991F820F931F9E01281B390BC9019D
:1041A000805DDF91CF910C942C1F80E20E942C1F28
:1041B000CA30D10508F0B3CF80E20E942C1FD6CFC1
:1041C000CF93DF93EC01883E23E0920708F49EC072
:1041D0009C01369527953695279536952795A5EC1C
:1041E000B0E20E94B12BFC01F295E295EF70EF274F
:1041F000FF70EF279F01ADECBCEC0E94B12BAC012E
:10420000569547955695479556954795CA01880FF7
:10421000991F440F551F440F551F440F551F480F3A
:10422000591FCF01841B950B805D0E942C1F9E019E
:104230003695279536952795ABE7B4E10E94B12BCB
:10424000FC01F695E7959F01ADECBCEC0E94B12B0B
:10425000AC01569547955695479556954795CA0191
:10426000880F991F440F551F440F551F440F551FAA
:10427000480F591FCF01841B950B805D0E942C1F96
:104280009E01ADECBCEC0E94B12BFC01F695E795CC
:10429000F695E795F695E7959F010E94B12BAC0145
:1042A000569547955695479556954795CA01880F57
:1042B000991F440F551F440F551F440F551F480F9A
:1042C000591FCF01841B950B805D0E942C1F9E01FE
:1042D000ADECBCEC0E94B12B969587959695879591
:1042E000969587959C01220F331F880F991F880F81
:1042F000991F880F991F820F931F9E01281B390B4E
:10430000C901805DDF91CF910C942C1F80E20E9447
:104310002C1FC436D10508F08ACF80E20E942C1FE2
:10432000CA30D10508F0ACCF80E20E942C1FCFCF5D
:104330000F931F93CF93DF938C019C0136952795A4
:104340003695279536952795A5ECB0E20E94B12BBE
:10435000FC01F295E295EF70EF27FF70EF279F01C8
:10436000ADECBCEC0E94B12BAC015695479556952F
:10437000479556954795CA01880F991F440F551FB9
:10438000440F551F440F551F480F591FCF01841B61
:10439000950B805D0E942C1F9801369527953695C8
:1043A0002795ABE7B4E10E94B12BFC01F695E795A8
:1043B0009F01ADECBCEC0E94B12BAC01569547952A
:1043C0005695479556954795CA01880F991F440FF2
:1043D000551F440F551F440F551F480F591FCF013C
:1043E000841B950B805D0E942C1F9801ADECBCECEA
:1043F0000E94B12BEC01D695C795D695C795D69559
:10440000C7959E010E94B12B9695879596958795A5
:10441000969587959C01220F331F880F991F880F4F
:10442000991F880F991F820F931F9E01281B390B1C
:10443000C901805D0E942C1FCE01880F991FCC0FEF
:10444000DD1FCC0FDD1FCC0FDD1FC80FD91FC8012A
:104450008C1B9D0B805DDF91CF911F910F910C9470
:104460002C1FCF93C82F8A3098F480E20E942C1F13
:104470008DECC89F812D11248695869586959AE0AE
:10448000899FC01911248C2F805DCF910C942C1F13
:104490009DEC899F812D1124869586958695899F0F
:1044A000912D11249695969596952AE0929F8019C4
:1044B0001124805D0E942C1FDBCFCF93DF93D82F78
:1044C0009DEC899FC12D1124C695C695C695C99F9F
:1044D000912D11249695969596958C2F2AE0929F72
:1044E00080191124805D0E942C1F8D2F9AE0C99F96
:1044F00080191124805DDF91CF910C942C1FCF92F5
:10450000DF92EF92FF921F93CF93DF931F92CDB76D
:10451000DEB7F62E880F880F880F10E4180F60E0C2
:10452000812F79830E94DB1ECF2C7981D72E7601D3
:1045300088E0E80EF11C60E0812F0E94DB1E61E044
:10454000F60181916F010E94DB1E1F5FCE14DF0414
:1045500091F70F90DF91CF911F91FF90EF90DF9037
:10456000CF900895009789F020E030E0A8954FEFB4
:104570005FE563E0415050406040E1F700C000005B
:104580002F5F3F4F2817390789F708956AE474E0D1
:1045900081E00E947F2262E474E082E00C947F223A
:1045A0006AE374E083E00E947F2262E374E084E0C7
:1045B0000C947F22CF930E941D1F6AE274E080E07A
:1045C0000E947F2262E274E081E00E947F226AE121
:1045D00074E082E00E947F2262E174E083E00E9446
:1045E0007F226AE074E084E00E947F226AEF73E039
:1045F00085E00E947F2262EE73E086E00E947F22C7
:104600006AEC73E087E00E947F2260E080E00E9415
:104610000D1FC0E08C2F0E942C1FCF5FC830D1F738
:1046200061E080E00E940D1F89EB93E00E945B1F18
:1046300088E090E00E94B22262EF73E085E00E9481
:104640007F226AED73E086E00E947F2262EC73E0D5
:1046500087E00E947F2284E090E00E94B22262E024
:1046600074E084E00E947F226AEE73E085E00E949D
:104670007F2262ED73E086E00E947F228FE090E06F
:10468000CF910C94B2228CE00E946B1F159A0E946D
:10469000DA220E941D1F0E9465230E94D0220E94E0
:1046A000B2250C94182680E681B912B889E084B945
:1046B00085B1806F85B985B1866085B98FEF87B97F
:1046C00018B880EF8AB91BB8089580911C01813019
:1046D00071F040F0823029F462E674E080E00C94DE
:1046E0007F22089562E574E080E00C947F226AE501
:1046F00074E080E00C947F2280910C0508959091E5
:104700001C0180911B01981731F00E946523809154
:104710001C0180931B0160E080E00E940D1F80E07F
:104720000C942C1F8091FF04E1E0E80FE093FF045C
:104730008E2F90E0FC013197E431F10530F4EA5519
:10474000FF4F0C94A82B1092FF0408958091C3078B
:10475000853051F1873009F18111F7CF5E985F986C
:1047600008958091C3078430F9F020F18630A9F0D4
:10477000C8F08730A9F008958091C3078630B8F457
:10478000843080F4813071F0823051F0089580914E
:10479000C307843049F0863049F45E9A08955F98E3
:1047A0005E9808955F9808955F9A089508958830F7
:1047B000B8F308958130C1F3823079F308951DBABA
:1047C000E9E6F0E08081856080835C9A8CEC9AE079
:1047D0000197F1F700C0000089B18C7090E09595C9
:1047E0008795959587958093C20783E08DBB089543
:1047F0001DBA5C9808951F920F920FB60F92112464
:104800000BB60F922F933F934F935F938F939F938A
:10481000EF93FF93CF93DF93CDB7DEB72897DEBF3B
:10482000CDBF89B18C7090E09595879595958795CA
:1048300031E03D8343E04E831F8252E05887598325
:104840001A824B833C833091C2078317A1F03091C9
:10485000C2073370FE01E30FF11D3581381721F1D6
:104860003091C2073370FE01E30FF11D318138171B
:1048700029F110920B058093C20728960FB6F89481
:10488000DEBF0FBECDBFDF91CF91FF91EF919F9122
:104890008F915F914F913F912F910F900BBE0F9091
:1048A0000FBE0F901F90189520910B05222319F32E
:1048B00020910B05215020930B05DDCF20910B0596
:1048C0002830C8F620910B052F5F20930B05D3CF1E
:1048D000E4E6F0E080818E7F80838FE880937E0025
:1048E00080E480937C00EAE7F0E086E38083109226
:1048F0007B008081886580831092030508951F9254
:104900000F920FB60F9211242F933F938F939F9383
:1049100080917800909179002091010530910205F5
:10492000820F931F909302058093010580910005EB
:104930008F5F8093000580910005803428F080917E
:104940007A008F7780937A009F918F913F912F917A
:104950000F900FBE0F901F90189580917A0087FDE1
:1049600007C0E091FE048E2F90E08D30910508F095
:104970000895FC01E654FF4F0C94A82B809101058B
:10498000909102050024880F991F001C880F991F21
:10499000001C892F902D9093020580930105809132
:1049A000010590910205AC01440F551F440F551F9E
:1049B000480F591F9A01A3E4B8E00E94B12B481B8D
:1049C000590B56954795840F951F929582958F7038
:1049D00089279F70892780930C058E3608F09CC02C
:1049E000843608F4ADC081E080931C018CE0809394
:1049F000FE04089587E480937C0080937C001092ED
:104A00000205109201051092000580917A00806CD9
:104A100080937A008091FE048F5F8093FE04089556
:104A2000809101059091020590930505913A08F057
:104A300070C0913608F47EC081E0809304058AE05E
:104A40008093FE0408955D9A82E4D7CF809101059A
:104A50009091020590930705913A08F057C091365E
:104A600008F462C081E08093060588E08093FE042C
:104A700008955D9A83E4C1CF80910105909102056C
:104A8000892F80958093080586E08093FE04089521
:104A9000419A84E4B2CF80910105909102059093F0
:104AA000090584E08093FE040895419A81E4A5CF2E
:104AB0008091010590910205892F99279093020515
:104AC000809301058091010590910205C097D0F077
:104AD00080910105909102058037910508F51092AB
:104AE0000A0582E08093FE040895409A80E485CF11
:104AF000809103058F3F19F08F5F8093030510921B
:104B0000FE04089582E080930A05EBCF109206051B
:104B1000ACCF1092040593CF82E080931C0166CF46
:104B200081E080930A05DDCF913268F082E08093C6
:104B300006059BCF913258F082E0809304057FCF29
:104B400010921C0153CF83E0809306058ECF83E043
:104B50008093040574CF81E090910305913208F4AD
:104B600080E0089580910E05813021F1C8F08230F7
:104B700019F0833059F0089562E774E085E00E94EF
:104B80007F226AE674E086E00C947F226AE674E095
:104B900085E00E947F226AE674E086E00C947F2222
:104BA0006AE774E085E00E947F226AE874E086E0AC
:104BB0000C947F226AE774E085E00E947F2262E81D
:104BC00074E086E00C947F2290910D0580910E0593
:104BD000981731F00E94B22580910E0580930D0543
:104BE00060E087E00E940D1F85E00E942C1F61E0BD
:104BF00087E00E940D1F86E00C942C1F80910E050B
:104C0000089580910E05833020F48F5F80930E0508
:104C1000089583E080930E05089580910E058150DC
:104C2000833018F480930E05089510920E050895B0
:104C300068EA74E081E00E947F2260EA74E082E02A
:104C40000C947F22FC01808170E0680F711D9181BE
:104C50006C3371055CF09F5F01C0922F6C5371093A
:104C600021E0290F6C337105C0F7918360832281A5
:104C70009C3350F02F5F01C0232F9C5331E0320F43
:104C80009C33D0F722839183283158F08BEA289FF8
:104C9000812D112482958F7098E1899F201911240C
:104CA00022830895EF92FF920F931F93CF93DF9388
:104CB00000D000D000D0CDB7DEB7FC0121813DECA3
:104CC000239F912D11249695969596954AE0949F51
:104CD00020191124205D2D83939F212D11242695C9
:104CE000269526958AE0289F90191124905D9C8333
:104CF0008AE38B83662359F02281211140C081E32E
:104D0000898382E38A8381E08E8389811BC09281BB
:104D1000939F812D11248695869586954AE0849FE0
:104D200090191124905D9A83839F312D112436951B
:104D3000369536959AE0399F80191124805D8983D4
:104D400090E29E838E010E5F1F4F7E0127E0E20EF0
:104D5000F11C03C0F80181918F010E942C1F0E15D8
:104D60001F05C1F726960FB6F894DEBF0FBECDBF64
:104D7000DF91CF911F910F91FF90EF9008952D300B
:104D800050F5922F8DEC989F312D11243695369544
:104D90003695389F812D1124869586958695EAE073
:104DA0008E9F30191124832F3323C1F0805D8983B6
:104DB0003DEC939F312D1124369536953695FAE0CA
:104DC0003F9F90191124905D9A832C3008F49BCF5B
:104DD00092E09E83B7CF94EF920FD4CF80E2E7CFDB
:104DE00080910F05882391F060912305862F8370B1
:104DF000833081F060FD05C064708BE195E00C9418
:104E00005226687083E195E00C94522682E994E082
:104E10000C945B1F89E994E00C945B1F80910F0553
:104E2000882319F0815080930F05809123058370AA
:104E3000813009F0089540911E0150911F01E091C9
:104E40001105F09112059A01ADECBCEC0E94B12B5A
:104E5000969587959695879596958795E80FF91F6E
:104E6000F0931205E093110520911005BC01660F27
:104E7000771F880F991F880F991F880F991F860F1A
:104E8000971F481B590B420F409310058091100546
:104E90008B3080F2809111059091120501969093CC
:104EA000120580931105809110058A50809310059A
:104EB00008958091230580FF08C081FD06C0809180
:104EC0001105909112050A9708F408954FB7F894C8
:104ED0002091110530911205ADECBCEC0E94B12B74
:104EE0009695879596958795969587952091110526
:104EF000309112055AE0859F201931091124309311
:104F00001205209311054FBF682F83E195E00C94A3
:104F10002226FC01868180931D05878180931C05D4
:104F2000808580931B0581858093230582818E3047
:104F3000A0F0828580931505838580931405848570
:104F400080931305858590E0982F88272685820F0A
:104F5000911D90931F0180931E01109212051092D3
:104F600011051092100580911D0180930F05089581
:104F70008A3038F08F3F49F08B3F58F480931D0101
:104F800008958AE080931D01089584E680931D01B1
:104F900008958AEF80931D01089580911D01089561
:104FA00080911E0190911F0108951F920F920FB6DC
:104FB0000F9211240BB60F922F933F934F935F9351
:104FC0006F937F938F939F93AF93BF93EF93FF93D1
:104FD0008091C000887191F08091C600809368052F
:104FE00010926805109225058091C6008D3709F44E
:104FF0005CC08E3709F059C082E06DC08091C60058
:105000008D3709F47FC08E3709F462C09091250571
:1050100091FF4BC090FF05C020E282279E7F9093B6
:105020002505909168059F3308F074C0E0916805EC
:1050300091E09E0F90936805F0E0E759FA4F808366
:1050400080916805843009F474C0809168058530CA
:1050500060F12091680580912405281326C083E023
:1050600080936805809168058217A0F490E0E09134
:105070006805F0E0E759FA4F8081980F8091680544
:105080008F5F8093680580916805821780F39F3F4A
:1050900009F455C0E9E6F5E080E4DF011D928A9548
:1050A000E9F71092680510922505FF91EF91BF91E5
:1050B000AF919F918F917F916F915F914F913F91B0
:1050C0002F910F900BBE0F900FBE0F901F90189551
:1050D0008091250582601092680590E4E9E6F5E08C
:1050E000DF011D929A95E9F780932505E091680507
:1050F00081E08E0F80936805F0E0E759FA4F8EE764
:105100008083D3CF8091250581FFCFCF81608093AD
:105110002505CBCF809125058D7F809325051092A5
:10512000680580E4E9E6F5E0DF011D928A95E9F77C
:10513000BCCF80916B058C5F8093240586CF88E07F
:105140008093680580916C05803849F1813809F0B9
:10515000A1CFE0916805F0E0E959FA4F2081E09194
:105160006805F0E0E759FA4F82818431E0F4E0917C
:105170006805F0E0E759FA4F42816091680570E0F8
:1051800067597A4F84EC97E00E94E02AE091680525
:10519000F0E0E959FA4F8081809320017BCF8EE0C7
:1051A00080936805D6CF44E1E8CF1F920F920FB6E7
:1051B0000F9211240BB60F928F939F93EF93FF934F
:1051C000E091270581E08E0F80932705F0E0E85DF0
:1051D000FA4F80818093C600909127058091260523
:1051E000981720F480912705803438F08091C10011
:1051F0008F7D8093C10010922705FF91EF919F91C1
:105200008F910F900BBE0F900FBE0F901F901895AF
:105210008FEF80932001569A5E988AB18C7F8AB96D
:105220001092680580E4E9E6F5E0DF01982F1D9211
:105230009A95E9F710922705E8E2F5E0DF011D9263
:105240008A95E9F785E090E09093C5008093C400CB
:105250001092C000E1ECF0E0108286E08093C20082
:1052600088E980830895AF92BF92CF92DF92EF9248
:10527000FF920F931F93CF93DF93CDB7DEB76E9757
:105280000FB6F894DEBF0FBECDBF8AEC97E00E9448
:10529000D82AE82E882349F08091C100282F207257
:1052A000E22E85FF14C0EE24E3948E2D6E960FB689
:1052B000F894DEBF0FBECDBFDF91CF911F910F914C
:1052C000FF90EF90DF90CF90BF90AF9008958E0148
:1052D0000F5F1F4F8EE1D8011D928A95E9F78EE787
:1052E000898381E08C838FEF8E838F8321E046E179
:1052F000BE01675F7F4F8AEC97E00E94622BAB8410
:1053000085E08A0D8B83B4E0BA1508F092C0FE01E7
:1053100039966F018DEFB82EBA0C9DEFF92E80E013
:1053200090E0F1E0FF1520F4D6016C910E941E2A56
:10533000F394BFEFCB1ADB0AFB10F3CF8C879D876A
:105340004A2D50E0BA01695F7F4F23E030E090E0E2
:1053500083E0F801E20FF31F2081920F8F5F282F67
:1053600030E062177307ACF7485F5F4FF801E40F56
:10537000F51F909590831092260580E4E8E2F5E011
:10538000DF011D928A95E9F7E091260581E08E0FF5
:1053900080932605F0E0E85DFA4F8EE7808321E0F8
:1053A00030E081E07DE760E212C09131D9F0E09118
:1053B000260521E02E0F20932605F0E0E85DFA4F48
:1053C00090838F5F282F30E04217530734F1F801A4
:1053D000E20FF31F9081933129F038F323E8290F6E
:1053E000223028F7E091260521E02E0F2093260594
:1053F000F0E0E85DFA4F7083E091260521E02E0F82
:1054000020932605F0E09627E85DFA4F90838F5FA2
:10541000282F30E042175307D4F6109227058AEC64
:1054200097E00E946B2B8091C10080628093C10045
:105430003CCF8AEC97E00E946B2B37CF41E04130A4
:1054400021F1292F22959295907F582F5295507FC8
:1054500026272F7030E0F901E054FB4F82958F70C2
:10546000982B80819827F901E055FB4F8081852793
:10547000423011F04F5FE3CF292F30E0322F222747
:10548000A901480F511DCA010895E92FE627392FB8
:105490003295307F582F5295507FE295EF70F0E0B3
:1054A000DF01A054BB4F82958F70832B9C9198276E
:1054B000E055FB4F808185274F5FC1CFFC012FB79F
:1054C000F89490818181981B892F65810E94882B97
:1054D000892F2FBF0895CF92DF92EF92FF920F9303
:1054E0001F93CF93DF931F92CDB7DEB76C01453189
:1054F00008F044E1D6018C911396ED90FC9014973E
:10550000B5E18B9FE00CF11C1124042F10E0A801E1
:10551000C70129830E94D42B44E150E0401B510B6A
:1055200060E070E0C701800F911F0E94DD2BF60143
:1055300080810380F481E02D95E1899FE00DF11DCC
:1055400011242981248BD6018C918F5F8C93159621
:105550009C911597891708F01C928FB7F894F60163
:1055600020819181291302C091E092838FBF81E055
:105570000F90DF91CF911F910F91FF90EF90DF90EF
:10558000CF900895CF93FC01CB01CFB7F8947483EB
:105590006383458311821082128225E1429FA0011C
:1055A000112460E070E00E94DD2BCFBFCF91089501
:1055B000FC012281222311F0858108950C945E2A3A
:1055C000FC013281332311F080E008950C946B2AA2
:1055D000FC012281222311F080E008950C946B2AB3
:1055E000AF92BF92CF92DF92EF92FF920F931F93F1
:1055F000CF93DF93EC016B01B42EA22EE42EF12C9D
:10560000A70160E070E0C6010E94DD2B01151105C5
:1056100011F0F80110828A81882309F44FC08D812E
:105620008823A1F1EB81FC818981DF0195E1899FCC
:10563000A00DB11D112412968C91B81690F5898198
:10564000BF0195E1899F600D711D1124A701C6015D
:105650000E94D42B0115110559F08981EB81FC8141
:1056600095E1899FE00DF11D11248489F801808363
:10567000A11022C08FB7F89499819F5F99832D81E3
:10568000921708F019821A828FBF81E0DF91CF91C3
:105690001F910F91FF90EF90DF90CF90BF90AF9050
:1056A00008958981DF0195E1899FA00DB11D112425
:1056B0001296EC90F12CC3CF81E0E8CFCE010E948E
:1056C0005E2AAECF0F931F9300E010E00E94F02AF5
:1056D0001F910F910895CF93DF93EC018A81882366
:1056E00099F08D81882359F08FB7F89499819F5F45
:1056F00099832D81921730F41A828FBF81E0DF9158
:10570000CF9108951982F8CFCE010E945E2AEACF88
:10571000991B79E004C0991F961708F0961B881F03
:105720007A95C9F78095089597FB072E16F4009493
:1057300007D077FD09D00E94C02B07FC05D03EF4AE
:10574000909581959F4F0895709561957F4F08952D
:10575000EE0FFF1F0024001C0BBE0790F691E02DFA
:105760000994A29FB001B39FC001A39F700D811D3A
:105770001124911DB29F700D811D1124911D08955A
:10578000AA1BBB1B51E107C0AA1FBB1FA617B70767
:1057900010F0A61BB70B881F991F5A95A9F7809583
:1057A0009095BC01CD010895FB01DC0102C0019080
:1057B0000D9241505040D8F70895DC0101C06D931F
:1057C00041505040E0F70895DC01CB01FC01F9990C
:1057D000FECF06C0F2BDE1BDF89A319600B40D923D
:1057E00041505040B8F70895F999FECF92BD81BD60
:1057F000F89A992780B50895A6E1B0E044E050E01A
:105800000C94E62BA8E1B0E042E050E00C94E62BCB
:10581000DC01CB0103C02D910E94132C415050405C
:10582000D0F70895262FF999FECF1FBA92BD81BDFA
:1058300020BD0FB6F894FA9AF99A0FBE0196089512
:10584000242F0E94132C252F0E94132C0C94282CFB
:0E5850000E94122C272F0C94132CF894FFCFDB
:10585E00FF0F0A00320032000980808008808080AD
:10586E00060580060380030702FF050202960A0062
:10587E00FF303132333435363738394142434445BF
:10588E0046454D524700524556210020454E474948
:10589E004E45002020204F46462020002020204F3D
:1058AE004E202020005354415254494E47004C493B
:1058BE0047485420004C4F57202020004D45444966
:1058CE00554D0048454156592000574549474854C3
:1058DE00004C4F414420434E46003A20004C4F416D
:1058EE0044494E4700534554002D20204C4F434F02
:1058FE000053415645442100464F524345002D204A
:10590E002046554E43002D2D2D00434F4E46494700
:10591E0000484F524E0042454C4C004252414B45BE
:10592E000042524B204F46460041555800454E47C7
:10593E00204F4E00454E472053544F50005448526E
:10594E0020554E4C4B00462E44494D2023310046E7
:10595E002E44494D20233200462E484541440046F0
:10596E002E444954434800522E44494D20233100C1
:10597E00522E44494D20233200522E4845414400B8
:10598E00522E44495443480055502042544E004430
:10599E004F574E2042544E002D2D20202020200007
:1059AE004C4154004D4F4D004E4F544348002D2056
:1059BE002020434647004E4F54434820005448523F
:1059CE0053484F4C44002D20202043414C004C4F57
:1059DE0057004849474800434F4D4D0054485254D4
:1059EE004C20494400424153452041445200544901
:1059FE004D452041445200424153450020414C4CFC
:105A0E0000307800505245465300534C45455000E7
:105A1E00444C593A0054494D454F555400434C4B54
:105A2E003A007300545820494E54564C0054582096
:105A3E00484C444F46005641522042524B0042526F
:105A4E004B2050574D0042524B2045535450004C62
:105A5E00454420424C4E4B00524556205357415020
:105A6E0000524556204C4F434B00204F4E200044D1
:105A7E00494147530073656300504B542054494DC0
:105A8E004500525353490020202D0064426D2000E2
:105A9E004E4F205349474E4C0046542052415449D4
:105AAE004F003A3100424154544552590056455226
:105ABE0053494F4E00302E392E3135004749542070
:105ACE0052455600424153452054595000424153CD
