:100000000C94E4000C944A280C944A280C940301A4
:100010000C9403010C946A020C9403010C940301E8
:100020000C9403010C9403010C9403010C94030140
:100030000C9403010C9403010C9403010C94030130
:100040000C94DD020C9403010C9403010C94030145
:100050000C94822C0C94822D0C9403010C940301BB
:100060000C94CE280C9403010C9403010C9403010E
:100070000C9403010C9403010C9403010C940301F0
:100080000C9403010C9403010C94030115191C1921
:100090004D1773166C1654176516921A8B1AC816DC
:1000A000C1166A0DDF0E9E0E690EA60FA60FF70D84
:1000B000C60D740D00103B0D0C0DDB0CA60C470F8C
:1000C000A4169B168316831683168316951C951CFF
:1000D000951C951C8C1CAD16DF0EE412690EA60F44
:1000E000A60FF70DC60D740D00103B0D0C0DDB0CAB
:1000F000A60C470FDD0EBD14670EA40FA40FF50D5F
:10010000C40D720DFE0F390D0A0DD90CA40C450F4C
:10011000D114AA14A814A614A614ED1332130213B2
:10012000AE1562155F151215FE15E014DF0E4C16A4
:10013000690EA60FA60FF70DC60D740D00103B0D2E
:100140000C0DDB0CA60C470FE311D811CD11C21119
:10015000B711AC11A11196118B11801175116A1193
:100160005F115411491136112B110011EE11D020DD
:10017000D020CB20CB20C620C620DA20DA203620A3
:100180003620D520D520F5270028F5270B28F42781
:100190001628F4270B28F4271E28F427F427F42721
:1001A000F427F427F427F427F427F427F227BD29AE
:1001B000A0299D2993299029842981296E296B29B9
:1001C000582942290D29C02911241FBECFEFD0E4A0
:1001D000DEBFCDBF15E0A0E0B1E0E8EBF1E600E066
:1001E0000BBF02C007900D92A433B107D9F728E0E6
:1001F000A4E3B5E001C01D92A433B207E1F70E9469
:1002000047070C94DA300C9400006827909134056D
:10021000209135052927262320933505909596238F
:10022000909334056095622B962B909589270895BD
:100230000F931F93CF93DF93CDB7DEB7A9970FB678
:10024000F894DEBF0FBECDBF8E01075D1F4F20E0CB
:1002500044E1BE016B5E7F4F88E298E00E949D2FD3
:10026000882379F08E8990914E05891709F490C002
:1002700090914F05891729F08D898F3F69F0981764
:1002800059F0A9960FB6F894DEBF0FBECDBFDF912F
:10029000CF911F910F9108950F89002309F480C019
:1002A00010E020E030E09DEF910F923060F0E5E14A
:1002B000F0E0EC0FFD1FE10FF11D6081C9010E940C
:1002C000CB2E9C010F891F5F101768F3832F90E0DE
:1002D000498D50E048175907A1F63327888D90E0E3
:1002E0002817390771F68A8D813409F49FC0873544
:1002F00009F47BC0823509F4CFC0863509F4A8C063
:10030000883509F464C0843509F44FC08F7D863583
:1003100009F0B7CF9E8980914E059813B2CF89A579
:1003200080931A018C8D90E0A0E0B0E0DC01992769
:1003300088272E8DAC01BD01422B2D8D30E0922FF0
:100340008827A0E0B0E0842B952BA62BB72B8093B9
:10035000210890932208A0932308B093240848E032
:1003600050E060E270E082E697E00E948A301092EE
:100370006A07402F50E0043108F0A6C04C505109E4
:10038000BE016F5D7F4F82E697E00E94813079CF9A
:1003900092E39093500590914F0589136DCF71CFE3
:1003A00080E090E020E030E093CF809100018F3F2B
:1003B00049F09E89891731F020914E05921361CF43
:1003C00081115FCFCE0145960E94CA2B5ACFF89477
:1003D000A89584B7877F84BF8091600088618093EF
:1003E000600088E080936000FFCF8E89898388E079
:1003F0008B8387E78E838B8D6C8D90E00E94BF305E
:100400008B8D8F839C8D9887811161C080E090E0F7
:100410000E94A13080934F058A834B81BE016F5F9C
:100420007F4F8EE298E00E94952F2BCF8E89898393
:1004300080914F058A8386E08B8381E68E8346E038
:10044000BE016F5F7F4F8EE298E00E94952F19CF1B
:100450008E89898380914F058A838FE08B8386E71D
:100460008E8380E88F8384EA888789EA898783E896
:100470008A8781E08B8782E08C8783E48D8783E5A0
:100480008E8784E58F874FE0BE016F5F7F4F8EE2DE
:1004900098E00E94952FF5CE8E89898380914F0533
:1004A0008A8388E08B8382E78E838B8D8F8390E0B5
:1004B0000E94A130888748E0BE016F5F7F4F8EE2C7
:1004C00098E00E94952FDDCE48E050E059CF809112
:1004D0004F05A2CF1F920F920FB60F9211240F90CB
:1004E0000FBE0F901F90189585FD16C081E0809378
:1004F0004305909142059817C1F082E390E09093F4
:100500000701809306018091060190910701909365
:10051000050180930401089584FD20C082E080934A
:100520004305909142059813E8CF809141058536A7
:1005300008F180910601909107010A97F8F48091E3
:10054000060190910701059730F485E090E09093C3
:1005500007018093060110924105089586FF06C0A9
:1005600087FD16C084E080934305C3CF83E080936A
:100570004305BFCF8F5F80934105089580910601A9
:10058000909107010A979093070180930601D7CFB6
:1005900010924305B2CF9091370582FF07C09B7F31
:1005A00081FD07C09260909337050895946081FFA4
:1005B000F9CF9D7F9093370508951F920F920FB644
:1005C0000F9211240BB60F922F933F934F935F938B
:1005D0006F937F938F939F93AF93BF93EF93FF930B
:1005E00080914505816080934505809120088F5F4B
:1005F000809320088A3008F442C01092200880912D
:10060000490590914A05019690934A0580934905C2
:1006100080915005882329F0809150058150809366
:1006200050058091470590914805892B49F08091AC
:100630004705909148050197909348058093470599
:100640000E94E12780913605882329F080913605A4
:1006500081508093360580910E068F5F80930E0641
:1006600020910E0680911D0130E090E0880F991FC7
:10067000880F991F2817390794F50E944F2B8091F6
:100680004605882329F080914605815080934605D0
:10069000209104013091050180910601909107019C
:1006A0002817390748F480910401909105010196BB
:1006B0009093050180930401FF91EF91BF91AF9159
:1006C0009F918F917F916F915F914F913F912F916A
:1006D0000F900BBE0F900FBE0F901F9018951092A9
:1006E0000E06CBCF0F931F93CF93DF9383E090E061
:1006F0000E94A130C82F82E090E00E94A1302C2FF0
:1007000030E0A901582B4A30510508F48AC145361A
:10071000510508F0EDC150930301409302018DE1B2
:1007200090E00E94A1308A3008F45BC180930101FF
:1007300081E190E00E94A13090E0009709F461C14E
:100740008F3F910509F4F3C18436910508F0D3C1B8
:1007500048E552E0849F9001859F300D949F300DB5
:1007600011243093600720935F0782E190E00E949C
:10077000A130C82F0E94F92B8C1729F0682F82E135
:1007800090E00E94BF308EE190E00E94A130809303
:10079000000183E190E00E94A13080931C0180E081
:1007A00090E00E94A130803308F456C18A3408F0EA
:1007B00096C180934F058FE190E00E94A130803D6B
:1007C00008F441C1803F08F081C180934E0580E16B
:1007D00090E00E94A1308F3109F400C18FE190E0D8
:1007E00090931D0880931C086FE180E190E00E94C7
:1007F000BF30C0911C08D0911D08DD27D695DC2F95
:10080000CC27D795C795D0931D08C0931C08CE015F
:100810000E94AF3090934D0580934C0597FD25C104
:100820008031974208F042C1CE0102960E94A13069
:1008300080931901CE0103960E94A1308093180184
:10084000CE0108960E94A13080931701CE0109962F
:100850000E94A13080931601CE010A960E94A13019
:1008600080934B05CE010B960E94A1308093150119
:10087000CE010C960E94A13080931401CE010D96FA
:100880000E94A13080931301CE010E960E94A130E8
:1008900080931201CE010F960E94A1308093110126
:1008A000CE0104960E94A13080931001CE014396A0
:1008B0000E94A13080930F01CE0105960E94A130C5
:1008C00080930E01CE0106960E94A13080930D0107
:1008D000CE0107960E94A13080930C01CE01409674
:1008E0000E94A13080930B01CE0141960E94A1305D
:1008F00080930A01CE0142960E94A13080930901A3
:10090000CE0144960E94A13080930801CE01489602
:100910000E94A93060933C0570933D0580933E058D
:1009200090933F05CE014C960E94A9306093380504
:100930007093390580933A0590933B0580E290E0EF
:100940000E94A13080931F0881E290E00E94A130B4
:1009500080931E0882E290E00E94A13080932508D7
:1009600083E290E00E94A13080936107CE01479618
:100970000E94A13080931B018E010A5E1F4FC801A7
:100980000E94A130823008F4C6C08B3008F082C0CB
:1009900080931D01BE01605E7F4F48E050E084E11E
:1009A00098E00E949130E4E1F8E021E09EE706C083
:1009B0009083319688E0EC31F80759F080818F37C9
:1009C000B8F78111F6CF2083319688E0EC31F80733
:1009D000A9F7DF91CF911F910F910895CFE1D0E05A
:1009E0000CCF8AE0809301016AE08DE190E00E94E3
:1009F000BF3081E190E00E94A13090E0009709F0C3
:100A00009FCE81E090E09093600780935F0761E064
:100A100081E190E00E94BF3080915F079091600774
:100A200097CE8AE090E0909303018093020160E00A
:100A300082E090E00E94BF306091020183E090E08C
:100A40000E94BF306CCE80ED80934E0560ED8FE14B
:100A500090E00E94BF30BBCE80E380934F0560E3FF
:100A600080E090E00E94BF30A6CE9F77803891054D
:100A700008F4DACE8FE790E090934D0580934C0513
:100A80006FE770E0CE010E94D530C0911C08D09174
:100A90001D08CACE8AE080931D016AE0C8010E9449
:100AA000BF30C0911C08D0911D0874CF8FE097E231
:100AB00090934D0580934C056FE077E2CE010E9444
:100AC000D530C0911C08D0911D08AECE8FEE80931A
:100AD0004E056FEE8FE190E00E94BF3078CE89E442
:100AE00080934F0569E480E090E00E94BF3063CEC0
:100AF00084E690E098CF83E690E09093600780933F
:100B00005F0763E681E190E00E94BF3080915F075C
:100B1000909160071DCE82E080931D0162E0C801C4
:100B20000E94BF30C0911C08D0911D0833CF85E0D2
:100B300090E09093600780935F0765E081E190E02B
:100B40000E94BF3080915F079091600701CEEF92C5
:100B5000FF920F931F93CF93DF9320E8829FC001F2
:100B6000112420E8629F800111247C0120E8E20E1C
:100B7000F11CEC01081B190BCE010E94A130682F5B
:100B8000C8018C0F9D1F0E94BF302196CE15DF0536
:100B900099F7DF91CF911F910F91FF90EF900895FA
:100BA000AF92BF92CF92DF92EF92FF920F931F937B
:100BB000CF93DF93A89560E082E090E00E94BF3081
:100BC0006AE083E090E00E94BF306FE08DE190E04A
:100BD0000E94BF3065E081E190E00E94BF3064E692
:100BE00082E190E00E94BF3061E183E190E00E94E9
:100BF000BF3060E380E090E00E94BF3060ED8FE1A5
:100C000090E00E94BF3060E08EE190E00E94BF3033
:100C10006FE180E190E00E94BF30C0E8D0E087E063
:100C2000A82E97E1B92E27E2C22E37E3D32E47E450
:100C3000E42E57E5F52E07E617E7A895D0931D0893
:100C4000C0931C0863E070E8CE010E94D53080910B
:100C50001C0890911D0862E002960E94BF308091AE
:100C60001C0890911D0861E003960E94BF3080919E
:100C70001C0890911D0860E808960E94BF30809182
:100C80001C0890911D0860E809960E94BF30809171
:100C90001C0890911D0860E00A960E94BF30809168
:100CA0001C0890911D0860E80B960E94BF3080914F
:100CB0001C0890911D0860E80C960E94BF3080913E
:100CC0001C0890911D0860E80D960E94BF3080912D
:100CD0001C0890911D0860E00E960E94BF30809124
:100CE0001C0890911D0860E80F960E94BF3080910B
:100CF0001C0890911D086AE004960E94BF30809104
:100D00001C0890911D0860E843960E94BF308091B6
:100D10001C0890911D0869E005960E94BF308091E3
:100D20001C0890911D0868E006960E94BF308091D3
:100D30001C0890911D0860E807960E94BF308091C2
:100D40001C0890911D0865E040960E94BF3080917C
:100D50001C0890911D0866E041960E94BF3080916A
:100D60001C0890911D0860E842960E94BF30809157
:100D70001C0890911D0860E844960E94BF30809145
:100D80001C0890911D0840E050E0BA0148960E946E
:100D9000CD3080911C0890911D0840E050E0BA01D0
:100DA0004C960E94CD3080911C0890911D0865E002
:100DB00046960E94BF3080911C0890911D0861E00A
:100DC00047960E94BF30A0921408B0921508C092B6
:100DD0001608D0921708E0921808F09219080093AC
:100DE0001A0810931B0860911C0870911D08605E22
:100DF0007F4F48E050E084E198E00E94B530C05851
:100E0000DF4FC0388AE0D80709F017CF6FE181E0E3
:100E10000E94A705A895DF91CF911F910F91FF9098
:100E2000EF90DF90CF90BF90AF900C94720314BE00
:100E3000A8959EE088E10FB6F894A895809360008D
:100E40000FBE90936000A895109250058FEF80938D
:100E50001A010E94162C0E9472030E94CF270E9442
:100E6000B7280E942E2816BC8CE687BD1092200859
:100E700010924A051092490582E084BD85E085BD47
:100E8000EEE6F0E0808182608083239A0895CF931C
:100E9000DF93CDB7DEB7C854D1090FB6F894DEBFE3
:100EA0000FBECDBFC0906F05C8AE90906E05D090BC
:100EB0004405DAAE0E94170780914F058E8F80910E
:100EC0004E058D8F809100018C8F20915F073091AE
:100ED0006007369527953695279536952795AFE483
:100EE000BBE10E945E30969587959695879596957D
:100EF00087958B8F0E940E2C9DEC899F812D11244C
:100F00008695869586958A8F2091020130910301FE
:100F1000ADECBCEC0E945E309695879596958795D2
:100F200096958795898F28988FB7F89420915F07B9
:100F30003091600730934805209347058FBF16987E
:100F4000A89540E16FE076E08EE298E00E946F2F76
:100F500048E06BE677E088E298E00E946F2F0E94FD
:100F6000B52D7894A8958FEF898380914F058A835A
:100F70008FE08B8386E78E8380E88F8384EA88877F
:100F800089EA898783E88A8781E08B8782E08C877A
:100F900083E48D8783E58E8784E58F874FE0BE01EC
:100FA0006F5F7F4F8EE298E00E94952FA895109278
:100FB00027080E94BF2783B1867F89AB85B1806FE8
:100FC00085B985B1866085B999AE2BE131E039A745
:100FD00028A7AE01455E5F4F5A01BE01625E7F4F9A
:100FE0007FA76EA771E07BA781E08DAB1BAE1CAE27
:100FF0001DAE1EAE1CA21DA21EA21FA2812C1DA6EC
:1010000049E1242E41E0342E1CA61BA200E01EE084
:101010001CAA1AA25EE0C52ED12CE12CF12C1AAA32
:101020001BAAA1E0B0E0BFABAEABFE017996F8A37E
:10103000EF8F412C512C3201439489A2A8952B9A11
:101040002B988091450580FDACC20E94FC28409100
:101050001F0830916C05842F90E00497632F70E097
:10106000681779070CF005C3809137058E7F809350
:10107000370530916D0540912508341708F4E6C214
:10108000842F90E020916107632F70E0681B790B3B
:1010900054E6569FF001579FF00D1124622F70E027
:1010A000681B790BCF010E94413068AB50911B0146
:1010B00050FFD1C2231728F48091440581608093AA
:1010C000440552FF0FC053FFDDC2FBA18F2F90E0FC
:1010D0008C309105B8F4FC01EA5BFF4F8091370535
:1010E0000C9455308BA18A3008F0BEC3823008F0D2
:1010F0001BC480913705806180933705341710F049
:10110000A2E0ABA380916E0551FD12C09091080141
:1011100097FD59C29F714CA15DA16EA17FA104C032
:1011200076956795579547959A95D2F740FF4BC2AC
:10113000813009F447C208F4B8C3823009F043C2D1
:10114000B1E09B1609F431C481E090911C0194FD3B
:1011500040C28824839440916F054AA7982E59A1D4
:10116000513009F457C269A1643009F46DC389A1F3
:10117000853009F45CC30E949A2B9EE0C916D10405
:1011800008F45FC20E948723E091430510E001113B
:1011900055C2E13009F491C3C12ED12C00E0E09397
:1011A0004205A89588E298E00E94852F811130C3FE
:1011B000A89580915005811154C210922108109277
:1011C000220810922308109224088FEF80931A01AE
:1011D00089E0E3E1F4E0A2E6B7E001900D928A95A0
:1011E000E1F787E0809327083091370530FF22C26E
:1011F0008091190187FD1EC28F71B301A20104C045
:10120000440F551F661F771F8A95D2F7DB01CA016D
:1012100031FF13C04091180147FD0FC0242F2F71DB
:10122000B301A20104C0440F551F661F771F2A9502
:10123000D2F7842B952BA62BB72B32FF13C04091EE
:101240000E0147FD0FC0242F2F71B301A20104C06E
:10125000440F551F661F771F2A95D2F7842B952BB5
:10126000A62BB72B33FF13C04091100147FD0FC0D1
:10127000242F2F71B301A20104C0440F551F661F14
:10128000771F2A95D2F7842B952BA62BB72B34FFEB
:1012900012C030910F0137FD0EC03F71B301A201A2
:1012A00004C0440F551F661F771F3A95D2F7842B51
:1012B000952BA62BB72B39A13150323008F49EC2A2
:1012C00059A1553009F487C26AA9662391F030917B
:1012D0000B0137FD0EC03F71B301A20104C0440FE2
:1012E000551F661F771F3A95D2F7842B952BA62B97
:1012F000B72B7BA9772391F030910A0137FD0EC0FF
:101300003F71B301A20104C0440F551F661F771F30
:101310003A95D2F7842B952BA62BB72BA895309115
:101320006A05323009F46FC2333009F43DC23130FE
:1013300009F415C2A89530916805323009F40AC243
:10134000333009F4F0C1313009F4C8C120913C05B3
:1013500030913D0540913E0550913F05282B392B9A
:101360004A2B5B2B2CA33DA34EA35FA340913805D2
:101370005091390560913A0570913B054095509523
:10138000609570958CA19DA1AEA1BFA184239523EA
:10139000A623B7238CA39DA3AEA3BFA399AD991693
:1013A00009F47FC161E070E080914305811107C0BD
:1013B0008FEF890D823018F06115710559F08FB7E4
:1013C000F89440915F07509160075093480540930F
:1013D00047058FBFA8958FB7F89440914905509164
:1013E0004A058FBF22964FAF229723965FAF239770
:1013F0006FAF21967FAF21970E94EC2922964FADC7
:10140000229723965FAD23976FAD21967FAD2197ED
:10141000882379F0672B39F48091020190910301C0
:101420004817590730F080913008882311F40C9444
:101430005E1D8EE298E00E94852F882331F0809116
:101440004605882311F40C94AA1D3FB7F8948091A7
:101450004705909148053FBF892B09F0EFCDA8952E
:101460001092270880917A008F7780937A00289ACB
:10147000169A88B1837088B9159880916E008D7F17
:1014800080936E005F985E9885B1897F85B90E94D0
:101490004728419840985D9883B7817F846083BFD7
:1014A000F894A8950FB6F894A8958091600088618B
:1014B00080936000109260000FBED99A80916800FE
:1014C00082608093680080916C00806F80936C00D4
:1014D00083B7816083BF78948895F89483B78E7FB3
:1014E00083BF809168008D7F80936800A8959EE0FF
:1014F00088E10FB6F894A895809360000FBE909392
:101500006000A8957894289816980E94BF271D30EF
:1015100011F40C94FA1516BC8CE687BD10922008C5
:1015200010924A051092490582E084BD85E085BD90
:1015300080916E00826080936E0085B1866085B96F
:101540000E942E2863B1667F89A90E94050163B1BC
:10155000667F0E94050163B1667F0E94050163B149
:10156000667F0E94050189AB0E94740289A90E94CE
:10157000CB0280914305809342050E94162C8FB7C1
:10158000F89440915F07509160075093480540934D
:1015900047058FBFA8952B9A2B988091450580FF12
:1015A00054CD809145058E7F8093450563B1667F5C
:1015B00089A90E94050189AB0E94740289A90E9431
:1015C000CB0243CD82E0981699F190911C0194FFD3
:1015D0002FC090916F05882E9111892D8111BBCD5F
:1015E0008091090187FD17C18F712CA13DA14EA1EA
:1015F0005FA104C056954795379527958A95D2F7F0
:1016000020FF09C130916F053AA7912C59A15130A3
:1016100009F0A9CD809136058111ADCD0E949A2B9C
:10162000FEE0CF16D10408F43BC153E059A3AACD84
:10163000882ED4CF80E090E0DC01EACDC12ED12C01
:10164000AECDF601EE5AFF4F0C94553050911B0170
:1016500050FDE4C018AA809144058E7F8093440514
:1016600030CD80911C0180FF19C081E08093270854
:10167000BBCD341708F4FDCC809137058160809391
:101680003705F7CCEBA18E2F90E08C30910508F058
:1016900039CDFC01E05AFF4F0C94553010922708C9
:1016A000A3CDAAA5B8ADAB137DCE2CA13DA14EA173
:1016B0005FA16BAD7CAD8DAD9EAD2617370748079A
:1016C000590709F06FCE3091440591E080E07AAD82
:1016D000731301C090E0692F782F66CE309114010A
:1016E00037FD0EC03F71B301A20104C0440F551F66
:1016F000661F771F3A95D2F7842B952BA62BB72B15
:101700003091130137FD22CE3F71B301A20104C015
:10171000440F551F661F771F3A95D2F7842B952BE0
:10172000A62BB72B13CE3091120137FD0EC03F719F
:10173000B301A20104C0440F551F661F771F3A95DD
:10174000D2F7842B952BA62BB72B3091110137FDA7
:10175000FDCDDACF3091120137FDF8CDD5CF3091E4
:10176000170137FD0EC03F71B301A20104C0440F41
:10177000551F661F771F3A95D2F7842B952BA62B02
:10178000B72B3091160137FDD5CD3F71B301A201C2
:1017900004C0440F551F661F771F3A95D2F7842B5C
:1017A000952BA62BB72BC6CD30914B0537FD0EC020
:1017B0003F71B301A20104C0440F551F661F771F7C
:1017C0003A95D2F7842B952BA62BB72B3091150188
:1017D00037FDB0CDDACF30910C0137FD75CD3F71BB
:1017E000B301A20104C0440F551F661F771F3A952D
:1017F000D2F7842B952BA62BB72B66CD30910D01FC
:1018000037FD62CDECCF30914B0537FD93CDBDCF89
:101810000E941801CDCC912C1AA6A1CC8091440530
:101820008E7F809344052091610718AA43CC809154
:10183000360581116DC00E949A2BBEE0CB16D104F3
:1018400008F461C019A29ECC7AA5772309F4E6CEEC
:101850000E949A2B2EE0C216D10408F093CCF60118
:10186000E459FF4F0C9455309BA19C3008F04ACCB2
:1018700080913705886080933705632F70E0E42FEF
:10188000F0E080911E088630D8F190E005978E1721
:101890009F070CF4CF01681779070CF431CC32CCD8
:1018A000F601E658FF4F0C945530992039F190918C
:1018B0001C0194FD8ECE882E93CEE0914205E1303E
:1018C00049F00E9487231F5F1092050110920401C6
:1018D000E09143054091040150910501809106017A
:1018E0009091070100E04817590708F4A7CE1EE0C1
:1018F0007EE0C72ED12CE12CF12C51CC812C70CE66
:1019000080E090E0C4CFF601E857FF4F0C945530CB
:101910000E949A2B3EE0C316D10408F033CCF601A6
:10192000EA56FF4F0C94553080913705877E80939F
:101930003705341708F4D4C080911E08381708F40E
:10194000E1CB6AE06BA3DECBB3E0B9A3159A01113A
:101950000C94041660E083E00E94772380E393E018
:101960000E94C52361E080E00E9477238FE70E94F8
:1019700096238FEA93E00E94C523E0914305E2306D
:1019800011F00C946216E0914205E23011F40C94CF
:101990005A160E948723E091430501E01CE04CE0C9
:1019A000C42ED12CE12CF12CFACB8824839481E035
:1019B000D2CBB3E0B9A3159A01110C94181560E0CD
:1019C00084E00E94772383E093E00E94C52361E0D6
:1019D00080E00E9477238FE70E94962381EA92E0BD
:1019E0000E94C523E0914305E23011F00C94AE1C37
:1019F000E0914205E23011F40C941E1C0E948723F2
:101A0000E091430501E01BE07BE0C72ED12CE12CE7
:101A1000F12CC5CBB3E0B9A3159A0111FBC460E06A
:101A200080E00E94772389EE92E00E94C52361E066
:101A300080E00E9477238FE70E94962382EF92E056
:101A40000E94C523E0914305E23009F0E0C4E09133
:101A50004205E23011F40C94BD170E948723E091F7
:101A6000430501E01AE0BAE0CB2ED12CE12CF12C99
:101A700096CBB3E0B9A3159A01110C94681560E0F8
:101A800081E00E94772380EB92E00E94C52361E011
:101A900080E00E9477238FE70E9496238FEA93E0ED
:101AA0000E94C523E0914305E23011F00C94BE166C
:101AB000E0914205E23011F40C94B6160E9487239F
:101AC000E091430501E019E049E0C42ED12CE12C5E
:101AD000F12C65CB877F80933705341708F012CB44
:101AE0001BA210CBA3E0A9A3159A002309F48EC56D
:101AF0008091400590E08331910508F4ADC261E02A
:101B000080E00E94772381E192E00E94C52361E09A
:101B100081E00E947723D1018C9187FD6BC38F7187
:101B20000E94C72610E0E0914305E23009F49BC211
:101B300010F40C940517E33011F40C94ED16E43016
:101B400011F00C94E0164091040150910501809130
:101B50000601909107014817590710F40C94E016FC
:101B6000D1018C91982F9F7111F40C94D71681504C
:101B70008C93109205011092040117E0F7E0CF2E2C
:101B8000D12CE12CF12C0BCB23E029A3159A60E09A
:101B900001116EC583E00E94772382EE91E00E94DE
:101BA000C52361E080E00E9477238FE70E9496239F
:101BB00088EE91E00E94C523E0914305E23011F0E8
:101BC0000C94C321E0914205E23011F40C94C6213B
:101BD0000E948723E09143051DA601E016E066E020
:101BE000C62ED12CE12CF12CDACAE3E0E9A3159A38
:101BF000002309F4F6C59E012B5E3F4F10E06901FA
:101C000060E0A2E0FA2EF10E8F2D0E947723D6011C
:101C10008D916D01805D0E94962361E08F2D0E9461
:101C20007723ECA41E1511F40C94021C80E20E9490
:101C300096231F5F143021F7E0914305E23011F441
:101C40000C94CE1B10F40C947C1BE33011F40C9418
:101C5000671BE43011F00C94FA1D209104013091BF
:101C6000050180910601909107012817390710F4AA
:101C70000C94FA1DCCA4C1100C94E71D8D89811120
:101C80000C94E71D83E48D8B2E898F893AE0839F26
:101C9000C001112444E6249F800D911D1124288D3C
:101CA000820F911D8038910534F081E08E8B82E0A7
:101CB0008F8B87E0888FE4E0109205011092040179
:101CC00015E0F5E0CF2ED12CE12CF12C68CA53E0C1
:101CD00059A3159A60E080E00E9477230E943F2A72
:101CE000813009F44EC408F488C4823009F480C4F9
:101CF000833021F488E891E00E94C52361E080E010
:101D00000E9477230E943F2A882309F446C4843026
:101D100020F48FE891E00E94C5230E94252AE091DB
:101D20004305E33009F444C4E43011F40C945A1B25
:101D3000E23011F40C94571B12E029CA159A60E0A6
:101D400080E00E9477238EE391E00E94C52361E04A
:101D500080E00E94772359A1543008F0FDC352302F
:101D600008F01AC6552309F402C6513021F481E661
:101D700091E00E94C523E0914305E23009F4FEC3DF
:101D8000E33010F40C941A1EE33011F40C940B1E83
:101D9000E43011F00C94081E80910C0187FF02C002
:101DA0000C94071ECAA4C1100C94021E82E38093F7
:101DB000360525E029A311E0EAC9A3E0A9A360E064
:101DC00082E00E9477238091440580FDF3C598143A
:101DD00011F40C941E1B89E391E00E94C523159A0F
:101DE00061E081E00E9477230E94312B0E946F2CDA
:101DF00060E087E00E947723DAA8DD2009F4A2C022
:101E000080910B01881F8827881F94E0981B892FD9
:101E10000E94962361E087E00E947723EBA8EE20E2
:101E200009F47BC080910A01881F8827881F94E0ED
:101E3000981B892F0E949623E0914305E23009F414
:101E400074C0E23010F40C942A1BE33011F40C94AB
:101E5000091BE43011F00C94061B8091420584307C
:101E600011F40C94061B80910A0186FD02C00C94AB
:101E70002B1E82E0CAA0C826CAA210E02C2D217019
:101E80002AAB3C2D32703BAB82C9E3E0E9A3159A43
:101E9000002309F499C5013011F40C94122002308A
:101EA00011F40C94E41F033011F40C94B51F0430AA
:101EB00011F40C946D1F053011F40C942A1F063098
:101EC00011F40C94EB1E073011F40C94D81E08305A
:101ED00011F40C94C01E093011F40C94AD1E0A309C
:101EE00011F40C94851E0B3011F40C94661E01E065
:101EF000E0914305E23011F40C94571EE43011F4E4
:101F00000C94441EE13011F40C942E1E1DE0ADE043
:101F1000CA2ED12CE12CF12C42C983E00E949623D9
:101F2000E0914305E23009F08CCF80914205823088
:101F300011F40C94061B81E0CCA8C11080E08CAB9E
:101F400010E025C983E064CF63E069A3159A60E0DF
:101F500080E00111AFC20E947723133009F452C20E
:101F60008BE991E00E94C52380EA91E00E94C5239D
:101F700061E080E00E9477238BA50E94C72685EA56
:101F800091E00E94C52320911C0830911D083DA3BB
:101F90002CA38EA99FA99695982F8827979587950A
:101FA00090931D0880931C080E94AF3097FD21C2BA
:101FB000803137E2930710F08FE097E20E94AD275F
:101FC0004CA15DA150931D0840931C08E09143056E
:101FD000E33011F40C94CD1AE43011F40C94BA1AD5
:101FE000E23009F0D6C8E0914205E23009F4D6C8E3
:101FF0000E948723E091430501E0D1C8B3E0B9A373
:10200000159A0111B0C560E083E00E9477238BE947
:1020100092E00E94C52361E080E00E9477238FE771
:102020000E94962381EA92E00E94C523E091430535
:10203000E23009F02FC7E0914205E23009F417C7FA
:102040000E948723E091430501E018E068E0C62E76
:10205000D12CE12CF12CA3C8FC01EC55FF4F60E022
:1020600080E00C945530E0914205E23009F4A8C6B6
:1020700080911C0890911D086091190102960E94A0
:10208000BF3080911C0890911D0860911801039643
:102090000E94BF3080911C0890911D08609117012B
:1020A00008960E94BF3080911C0890911D08609195
:1020B000160109960E94BF3080911C0890911D085E
:1020C00060914B050A960E94BF3080911C08909148
:1020D0001D08609115010B960E94BF3080911C086D
:1020E00090911D08609114010C960E94BF30809160
:1020F0001C0890911D08609113010D960E94BF303D
:1021000080911C0890911D08609112010E960E940A
:10211000BF3080911C0890911D08609111010F96AD
:102120000E94BF3080911C0890911D0860911001A1
:1021300004960E94BF3080911C0890911D08609108
:102140000F0143960E94BF3080911C0890911D089A
:1021500060910E0105960E94BF3080911C089091FD
:102160001D0860910D0106960E94BF3080911C08E9
:1021700090911D0860910C0107960E94BF308091DC
:102180001C0890911D0860910B0140960E94BF3081
:1021900080911C0890911D0860910A0141960E944F
:1021A000BF3080911C0890911D08609109014296F2
:1021B0000E94BF3080911C0890911D086091080119
:1021C00044960E94BF300E9472030E94872360E001
:1021D00081E00E9477238BED91E00E94C52387E088
:1021E00090E00E941C270E948723E091430517E09E
:1021F0000C94C90810E08BE892E00E94C52393CCB0
:102200000E9477238BE792E00E94C523BBE02B2E30
:10221000B1E03B2E61E080E00E94772381E192E013
:102220000E94C52361E081E00E947723F101808153
:1022300087FD2DC08F710E94C72661E085E00E9456
:102240007723D1018C9186FF1CC083E992E00E9424
:10225000C52311E068CC0E94772383E692E00E94B8
:10226000C52393E1292E91E0392E49CC0E94772392
:102270008AE592E00E94C52324E1222E21E0322E3D
:102280003ECC87E992E00E94C52311E04CCC11E0DE
:10229000B2CF0E94772383E792E00E94C52311E129
:1022A000212E11E0312E2BCC0E9477238CE692E078
:1022B0000E94C52382E1282E81E0382E20CC0E9486
:1022C000772382E492E00E94C52356E1252E51E057
:1022D000352E15CC0E94772389E392E00E94C52316
:1022E00067E1262E61E0362E0ACC0E94772382E534
:1022F00092E00E94C52335E1232E31E0332EFFCB3F
:102300000E9477238BE492E00E94C5234BE4242EA5
:1023100045E0342EF4CB0E94772380E392E00E94C4
:10232000C52378E0272E71E0372EE9CB0E94772372
:1023300087E292E00E94C523E9E02E2EE1E03E2EE6
:10234000DECB0E9477238EE192E00E94C523FCE061
:102350002F2EF1E03F2ED3CB0E94772387E192E02E
:102360000E94C523ADE02A2EA1E03A2EC8CB0E94E0
:10237000772383E192E00E94C523BEE02B2EB1E0DB
:102380003B2EBDCB0E9477238BE092E00E94C523B9
:102390001FE0212E11E0312EB2CB0E94772385E081
:1023A00092E00E94C52380E1282E81E0382EA7CB41
:1023B0000E94772380E092E00E94C52398E1292EB5
:1023C00091E0392E9CCB0E9477238BEF91E00E9405
:1023D000C52329E1222E21E0322E91CB0E947723C2
:1023E00082E892E00E94C523AAE02A2EA1E03A2EBC
:1023F00011CFAC015F774038510508F4DFCD8FE78E
:1024000090E8DCCD86E991E00E94C523ADCD1AE0CD
:102410000C94C908159A60E080E00E94772301308F
:1024200011F40C94B521023011F40C94A72103305F
:1024300011F40C949121043011F40C947B219FE150
:10244000E92E98E0F92E2CE6C22E25E0D22E01E0EE
:1024500060E087E00E947723F70180818F3F11F4CD
:102460000C947621D6019C91981710F00C9473214E
:1024700083E00E94962361E085E00E947723F601C5
:10248000808190E00E945F24E0914305E23011F4E6
:102490000C942821E33011F40C940A21E13011F45A
:1024A0000C94CE211AE09AE0C92ED12CE12CF12C0B
:1024B0000C94CF080E94772388EA91E00E94C523FC
:1024C00061E080E00E947723133011F40C94A9227C
:1024D00088EB91E00E94C5238EE70E949623E0914D
:1024E0004305E13011F40C94A222E43011F00C9475
:1024F000CF0880914205823011F40C94CF080E94DD
:10250000872360E080E00E947723133011F40C945D
:10251000982288EC91E00E94C5236BA58FE10E9470
:10252000A7050E94720361E080E00E94772308E023
:1025300081E090E00E941C278EE20E9496230150C9
:10254000B9F783E090E00E941C270E948723E09166
:1025500043051EE00C94C90869A1643009F441C028
:10256000653009F008CC8AE691E00E94C52385E039
:1025700089A3E0914305E23009F002CC1EE00C94FF
:102580001D1E8AE791E00E94C52361E080E00E9461
:1025900077230E943F2A8111BACB8FE391E00E94FA
:1025A000C5230E94252AE0914305E33009F0BCCB06
:1025B000E0914205E33009F4BFCB0E94422AE0914A
:1025C000430512E00C94C708159A60E080E00E9471
:1025D00077238EE391E00E94C52361E080E00E94B2
:1025E000772388E591E00E94C52374E079A3C3CBEB
:1025F00081E891E00E94C52381CB83E791E00E94AE
:10260000C5237CCB19A2159A011172CA60E082E041
:102610000E94772384EF91E00E94C52361E080E06F
:102620000E9477238FE70E94962388EE91E00E9414
:10263000C523E0914305E23009F029C4E091420549
:10264000E23009F41CC4109240050E948723E091F7
:10265000430501E017E037E0C32ED12CE12CF12C2B
:102660000C94CF0819A2159A60E0002309F492CACD
:1026700080E00E94772381E192E00E94C5238DA52E
:102680000E94C72660E085E00E9477235DA5452F64
:1026900050E025965FAF4EAF259780913C05909115
:1026A0003D05A0913E05B0913F050DA404C0B6952F
:1026B000A795979587950A94D2F780FF02C00C944E
:1026C000B5228091380590913905A0913A05B091D5
:1026D0003B050DA404C0B695A795979587950A94D8
:1026E000D2F780FD02C00C94AF228FE092E00E94EE
:1026F000C523E0914305E23011F40C94BB2210F4A1
:102700000C947A22E33011F40C941B22E43011F083
:102710000C9413222091040130910501809106014F
:10272000909107012817390710F40C941322809117
:10273000380590913905A0913A05B0913B05AC015F
:10274000BD0124960FAC249704C0769567955795E4
:1027500047950A94D2F740FD02C00C94E121B301E1
:10276000A20124960FAC249704C0440F551F661F86
:10277000771F0A94D2F76A017B01C094D094E09449
:10278000F0948C219D21AE21BF2180933805909338
:102790003905A0933A05B0933B0580913C05909193
:1027A0003D05A0913E05B0913F05482B592B6A2B62
:1027B0007B2B40933C0550933D0560933E05709301
:1027C0003F05109205011092040116E056E0C52E57
:1027D000D12CE12CF12C0C94CF0819A2159A0111DF
:1027E0000ACA60E085E00E9477238FEC91E00E94A6
:1027F000C52361E080E00E9477238FE70E94962343
:1028000083ED91E00E94C523E0914305E23011F091
:102810000C94891CE0914205E23011F40C94811C67
:1028200040914C0550914D0557FF02C00C94261C59
:102830009A01369527953695279536952795A5ECD7
:10284000B0E20E945E30FC01F295E295EF70EF2756
:10285000FF70EF279F01ADECBCEC0E945E309695B7
:10286000879596958795969587959C01220F331F9E
:10287000880F991F880F991F880F991F820F931F28
:10288000E81BF90BED8B9A01369527953695279520
:10289000ABE7B4E10E945E30FC01F695E7959F013D
:1028A000ADECBCEC0E945E30969587959695879529
:1028B000969587959C01220F331F880F991F880FCB
:1028C000991F880F991F820F931FE81BF90BEE8B3E
:1028D0009A010E945E30FC01F695E795F695E79522
:1028E000F695E7959F010E945E309695879596959F
:1028F0008795969587959C01220F331F880F991F06
:10290000880F991F880F991F820F931F7F01E81A64
:10291000F90AEF8ACF01880F991FEE0FFF1FEE0F04
:10292000FF1FEE0FFF1F8E0F9F1F481B590B488F75
:102930000E948723E09143051CA601E015E0B5E065
:10294000CB2ED12CE12CF12C0C94CF0819A2FECA6D
:1029500019A2BFC9159A60E080E00E9477238EE338
:1029600091E00E94C52361E080E00E94772386E425
:1029700091E00E94C52319A2FEC9159A60E080E08B
:102980000E9477238EE391E00E94C52361E080E0FE
:102990000E947723E3E0E9A38FE491E00E94C5233E
:1029A000EAC919A260E082E00E9477238091440581
:1029B00080FF0DCA84E391E00E94C523159A10CAD6
:1029C00019A2159A011167CA60E083E00E9477237B
:1029D00087E793E00E94C52361E080E00E947723AF
:1029E0008FE70E9496238FEA93E00E94C523E0912F
:1029F0004305E23011F00C94C320E0914205E2302F
:102A000011F40C94BB200E9430270E948723E09190
:102A1000430501E01DE04DE0C42ED12CE12CF12C4A
:102A20000C94CF0819A2159A002311F40C94DF0C12
:102A3000159A60E080E00E947723013011F40C9435
:102A40004C1D023011F40C94391D033009F4F5C704
:102A500001E0E0914305E23009F4BCC708F4A7C7E0
:102A6000E33009F486C7E43009F07BC72091040104
:102A700030910501809106019091070128173907CF
:102A800008F46FC7AEA5BFA58C91882311F08150C3
:102A90008C938E8D803310F480E38E8F8D8D803DEE
:102AA00010F480ED8D8F10920501109204011BE04F
:102AB0006BE0C62ED12CE12CF12C0C94CF0819A27E
:102AC0000C940C0D19A2159A002311F40C943F0DCF
:102AD000159A60E080E00E947723013009F4CCC4AD
:102AE000023009F4B3C4033009F4D7C4043009F444
:102AF000A6C4053009F484C418E001E0E091430560
:102B0000E23009F44FC408F41EC4E33009F4FAC3F8
:102B1000E43009F027C540910401509105018091EE
:102B20000601909107014817590708F41BC5183092
:102B300008F008C581E090E001C0880F1A95EAF717
:102B40008095A8A5B9A59C9189238C9319E029E0CB
:102B5000C22ED12CE12CF12C0C94CF0819A2159A7D
:102B6000002309F450CA159A60E080E00E947723A0
:102B700089EA92E00E94C52380E3800F0E94962399
:102B800061E080E00E947723202F30E0F901ED5EC4
:102B9000F74F7F01808190E00E944A25E091430534
:102BA000E23009F484C308F471C3E33009F45CC370
:102BB000E43009F051C34091040150910501809126
:102BC0000601909107014817590708F445C3D7013A
:102BD0008C91823008F43CC381508C931092050193
:102BE0001092040118E058E0C52ED12CE12CF12CF4
:102BF0000C94CF080E9430270C948B0A19A2159AC6
:102C0000002311F40C94AA0C159A60E080E00E9455
:102C10007723013009F4F1C2023009F4D5C2033040
:102C200009F4B7C2043009F46AC2053009F457C286
:102C3000063009F436C218E001E0E0914305E230C5
:102C400009F4B6C108F4A1C1E33009F476C1E43057
:102C500009F06BC14091040150910501809106017A
:102C6000909107014817590708F45FC1183008F020
:102C70002BC181E090E001C0880F1A95EAF780959A
:102C8000D5019C9189238C931CE0ACE0CA2ED12CF9
:102C9000E12CF12C0C94CF08159A60E080E00E94A2
:102CA00077238EE391E00E94C52361E080E00E94DB
:102CB000772359CC1CE09CE0C92ED12CE12CF12CBF
:102CC0000C94CE081CE00C94C908886080933705EA
:102CD00047E04BA30C94820888608093370545E059
:102CE0004BA30C948208877F80933705341710F428
:102CF0000C94700D28A9283210F40C94820834E04A
:102D00003BA30C94820880910E0638A9E32FF0E0D3
:102D100060911D010E94353090E0019634E1389FAA
:102D2000B001399F700D1124E617F70714F00C94C9
:102D3000A10C0C948208809137058061809337053F
:102D400022E02BA30C94820880913705877F809323
:102D50003705F1E0FBA30C94820880913705886069
:102D60008093370576E07BA30C94820819E049E054
:102D7000C42ED12CE12CF12C0C94CE0819E00C942B
:102D8000C9088860809337057BE07BA30C94820898
:102D9000877F80933705341710F40C94700D809161
:102DA0006107831710F00C9482080C94A10C112376
:102DB00079F086FF0DC08CE1D1018C930C94B90D94
:102DC00017E047E0C42ED12CE12CF12C0C94CF0855
:102DD00080E8D1018C930C94B90D4091040150917D
:102DE000050180910601909107014817590740F3AA
:102DF000D1018C9187FD33C0982F9F719C3120F5B4
:102E00008F5FD1018C930C94B90DE130C9F6E0913C
:102E10004205E130A9F2809140058F5F8093400523
:102E2000833110F0109240051092050110920401B8
:102E30000E948723E091430517E077E0C72ED12C4D
:102E4000E12CF12C0C94CF08982F9074112351F0A1
:102E500086FD08C080E4D1018C930C94B90D1C92BE
:102E60000C94B90D945ED1019C930C94B90D18E0AB
:102E700058E0C52ED12CE12CF12C0C94CE0817E093
:102E800067E0C62ED12CE12CF12C0C94CE0817E073
:102E90000C94C90818E00C94C90888608093370521
:102EA00063E06BA30C948208877F80933705341707
:102EB00010F40C94700D28A92C3310F40C94820893
:102EC00036E03BA30C948208CF8CD8A0AC14BD0490
:102ED00041F121E0A21621E0B20619F1D5018C9151
:102EE000823010F081508C93809101018A3018F467
:102EF0008AE0809301018B8D811102C081E08B8F6C
:102F00008A8D811102C081E08A8F10920501109292
:102F100004011CE0FCE0CF2ED12CE12CF12C0C9410
:102F2000CF088091370580FDD9CF1CE0BCE0CB2EC7
:102F3000D12CE12CF12C0C94CF084091040150913C
:102F4000050180910601909107014817590768F320
:102F5000183008F035C381E090E001C0880F1A9561
:102F6000EAF7D5019C91892B8C931CE0BCE0CB2E19
:102F7000D12CE12CF12C0C94CF081AE03AE0C32EAE
:102F8000D12CE12CF12C0C94CE08E13071F6E091BB
:102F90004205E13051F20F5F0E948723E091430523
:102FA0001CE05CE0C52ED12CE12CF12C0C94CF0858
:102FB000E0914205E23009F4B8CF6B8D81E190E0F9
:102FC0000E94BF308A8D880F682F660F660F680FCA
:102FD00082E190E00E94BF3060911C0183E190E0AB
:102FE0000E94BF30609101018DE190E00E94BF30EE
:102FF000898DBAE08B9FC0011124909303018093C7
:103000000201692F82E090E00E94BF3060910201CE
:1030100083E090E00E94BF300E94720320915F071E
:1030200030916007369527953695279536952795E3
:10303000AFE4BBE10E945E309695879596958795A3
:10304000969587958B8F0E940E2C9DEC899F812DE4
:1030500011248695869586958A8F2091020130915C
:103060000301ADECBCEC0E945E3096958795969579
:10307000879596958795898F0E94872360E081E0E8
:103080000E9477238BED91E00E94C52387E090E0BA
:103090000E941C270E948723E09143051CE00C94AA
:1030A000C90889E693E00E94C52324E0B22E14E00B
:1030B00061E084E00E94772380911C0190E002C0CF
:1030C00095958795BA94E2F780FF10C082E793E068
:1030D0000E94C5239CE1A92E91E0B92EAECD80E6D9
:1030E00093E00E94C523B12C10E0E2CF8EE092E085
:1030F0000E94C5238CE1A82E81E0B82E9ECD87E5E5
:1031000093E00E94C52361E087E00E94772382ED6F
:1031100092E00E94C52361E083E00E9477238091C2
:10312000010199E2899F812D112482958F70805D24
:103130000E9496238EE20E949623809101011DEC4D
:10314000819F812D1124869586958695819F912D4D
:1031500011249695969596955AE0959F801911247D
:10316000805D0E94962390910101919F812D1124F1
:103170008695869586956AE0869F90191124892FF9
:10318000805D0E9496231FEF31E0A32E31E0B32E25
:1031900054CD8EE493E00E94C52361E087E00E9455
:1031A000772382ED92E00E94C523AE01475E5F4F18
:1031B0005A0161E084E00E947723D5018C9190E070
:1031C0000E94C9241FEF39CD81E493E00E94C523FA
:1031D00061E080E00E94772389E493E00E94C523A8
:1031E00061E087E00E94772382ED92E00E94C52390
:1031F0009E01265E3F4F5901DCCF86E393E00E949B
:10320000C52361E080E00E9477238CE393E00E9475
:10321000C52361E087E00E94772386E093E00E9467
:10322000C523FE017B965F01C4CF80618093370583
:1032300021E02BA30C9482088F7E8093370538A958
:10324000343110F40C94820842E04BA30C948208B1
:1032500081E0D7018C93C2CC18E038E0C32ED12C8A
:10326000E12CF12C0C94CF08409104015091050100
:1032700080910601909107014817590768F3D7011B
:103280008C918E37D8F58F5F8C93A8CCE13021F7E5
:10329000E0914205E13001F30F5F093008F001E0F1
:1032A0000E948723E091430518E00C94C708E09141
:1032B0004205E23089F260911C0870911D08605E41
:1032C0007F4F48E050E084E198E00E94B5300E94D2
:1032D00072030E94872360E081E00E9477238BEDD8
:1032E00091E00E94C52387E090E00E941C270E9485
:1032F0008723E091430518E00C94C9088EE7D701B5
:103300008C936CCC40910401509105018091060191
:10331000909107014817590708F424C1183040F567
:1033200081E090E001C0880F1A95EAF7A8A5B9A539
:103330009C91892B8C9319E039E0C32ED12CE12C80
:10334000F12C0C94CF08E13009F00CC1E09142055A
:10335000E13009F407C10F5F0E948723E091430524
:1033600019E089E0C82ED12CE12CF12C0C94CF0867
:10337000A8A5B9A58C918F3F11F08F5F8C93809198
:103380001D018B3018F08AE080931D011092050119
:103390001092040119E099E0C92ED12CE12CF12CF6
:1033A0000C94CF08E0914205E23009F4DBC0809133
:1033B0001C0890911D0860911D0146960E94BF3027
:1033C00080911C0890911D0860911B0147960E94F6
:1033D000BF300E9472030E94872360E081E00E9458
:1033E00077238BED91E00E94C52387E090E00E9457
:1033F0001C270E948723E091430519E00C94C9081B
:1034000080E392E00E94C52331E011E061E085E0B5
:103410003FAF0E94772380911B0190E03FAD02C037
:10342000959587953A95E2F780FF6CC083E793E026
:103430000E94C5238BE191E099A788A75FCB84ED1B
:1034400092E00E94C52330E010E0E0CF80EC92E0F3
:103450000E94C52361E083E00E94772380911B01D5
:1034600083FF11C08DED92E00E94C52313E04BE174
:1034700051E059A748A742CB88EB92E00E94C523B0
:1034800032E012E0C3CF83EE92E00E94C52313E046
:103490006BE171E079A768A731CB89EC92E00E94DB
:1034A000C52361E087E00E94772382ED92E00E94CD
:1034B000C52361E084E00E94772380911D011DEC0B
:1034C000819F812D1124869586958695805D0E9429
:1034D00096238EE20E94962390911D01919F812D4B
:1034E0001124869586958695EAE08E9F9019112481
:1034F000892F805D0E9496231FEF2DE131E039A7CF
:1035000028A7FCCA8FE092E00E94C523ABE1B1E09E
:10351000B9A7A8A7F3CA88608093370549E04BA3F1
:103520000C948208877F80933705341710F40C942D
:10353000700D28A9203510F40C94820838E03BA3C4
:103540000C948208A8A5B9A58C91823010F0815006
:103550008C9380911D01823008F018CF82E0809317
:103560001D0114CF19E029E0C22ED12CE12CF12C41
:103570000C94CF0880914205843011F40C94CE084D
:103580008BA5813011F40C94CE0881508BA7A82F05
:10359000B0E0BFABAEAB0C94CE0880914205833057
:1035A00011F40C94CE085BA5543110F00C94CE08A5
:1035B0005F5F5BA7652F70E07FAB6EAB0C94CE08AE
:1035C000CF8CD8A0AC14BD04E1F021E0A21621E01C
:1035D000B206B9F0D5018C918F3F11F08F5F8C93BB
:1035E000898D8B3010F08AE0898F8B8D843610F0B6
:1035F00083E68B8F8A8D8A3108F487CC89E18A8FA4
:1036000084CC8091370580FF90CCE4CF10E00C94FF
:10361000C708809142058330C9F380910B0186FF72
:1036200032C081E0FAA0F826FAA210E02F2D217016
:103630002AAB3F2D32703BAB0C94C70880914C05F0
:1036400090914D050E94AD27CCA8CC20C9F0159AC9
:103650000C94F00E80910B0186FD03C02AA12E7FF1
:103660002AA380910A0186FD19C03AA13D7F3AA3A1
:1036700010E031703AAB4AA142704BAB0C94C708D2
:1036800015980C94F00E4AA141604AA310E04170D5
:103690004AAB5AA152705BAB0C94C70810E06AA108
:1036A00061706AAB7AA172707BAB0C94C7081EE0A4
:1036B0000C94C708E0914205E43011F40C949C0E80
:1036C0000E944E2AE091430512E00C94C708209115
:1036D000040130910501809106019091070128179E
:1036E000390708F487C2FCA4F1104BC08D898A30D9
:1036F000D0F01D8A0C945C0EE13009F07BC2809101
:103700004205813009F476C2FCA5FF5FFCA7F430C6
:1037100008F470C21CA615E075E0C72ED12CE12C70
:10372000F12C0C94CF08893011F40C945C0E20E03D
:1037300030E0A5E1B0E0AC0FBD1FA20FB31F8F5F5B
:103740008C938D898A3010F40C945C0E2E898F89AD
:103750003AE0839FC001112444E6249F800D911D0F
:103760001124288D820F911D8038910514F40C943A
:103770005C0E81E08E8B82E08F8B87E0888F0C94CB
:103780005C0ECCA42C2D30E0A5E1B0E0AC0FBD1F49
:10379000A20FB31F8C918930A0F6CBCFE0914205E8
:1037A000E23009F427C28D898A3088F18E896F89C9
:1037B0005AE0659FB001112494E6899F600D711D48
:1037C0001124888D680F711D706880911C0890917C
:1037D0001D080E94D5300E9472030E94872360E07A
:1037E00081E00E9477238BED91E00E94C52387E062
:1037F00090E00E941C270E948723E091430515E07A
:103800000C94C9088EE50E9496230C94190E2E89FB
:103810009F8948EE53E0849FB001859F700D11246D
:10382000A4E62A9F600D711D1124BAE09B9F600DD4
:10383000711D1124888D680F711DC7CF1BE02BE00F
:10384000C22ED12CE12CF12C0C94CE0883E48D8B6C
:10385000FA01FF779F013695279536952795ABE7B7
:10386000B4E10E945E30AC01569547959A01ADECEB
:10387000BCEC0E945E3096958795969587959695B7
:1038800087959C01220F331F880F991F880F991F5E
:10389000880F991F820F931F481B590B4E8B9F0156
:1038A0000E945E30AC0156954795569547955695C2
:1038B00047959A010E945E309695879596958795D3
:1038C000969587959C01220F331F880F991F880FAB
:1038D000991F880F991F820F931F6A01C81AD90A6E
:1038E000CF8ACA01880F991F440F551F440F551FD7
:1038F000440F551F840F951FAF01481B590B488F6C
:1039000017C815E0F5E0CF2ED12CE12CF12C0C944A
:10391000CE0815E00C94C908809137058F7E8093FE
:1039200037056BE06BA30C94820880910E0648A9C2
:10393000E42FF0E060911D010E94353090E0019687
:1039400034E1389FB001399F700D1124E617F70755
:1039500014F00C9482081BA20C9482081BE00C94B7
:10396000C9081BE08BE0C82ED12CE12CF12C0C9463
:10397000CF082091040130910501809106019091BA
:1039800007012817390768F3AEA5BFA58C918F3FB3
:1039900011F08F5F8C938E8D8A3410F089E48E8FB6
:1039A0008D8D803F08F47FC88FEE8D8F7CC8E1300D
:1039B000C1F6E0914205E130A1F20F5F0E9487233A
:1039C000E09143051BE05BE0C52ED12CE12CF12CEE
:1039D0000C94CF08E0914205E23019F26E8D80E040
:1039E00090E00E94BF306D8D8FE190E00E94BF306B
:1039F0006C8D8EE190E00E94BF300E947203809136
:103A00004F058E8F80914E058D8F809100018C8F98
:103A10000E94872360E081E00E9477238BED91E094
:103A20000E94C52387E090E00E941C270E94872304
:103A3000E09143051BE00C94C9088AE193E00E94E1
:103A4000C5231C8D61E082E0112309F4AAC01F3F49
:103A500009F49AC00E9477238DE293E00E94C52367
:103A6000812F0E942B24CE014C969FA78EA70C94E9
:103A7000291581E193E00E94C52361E083E00E9463
:103A800077238D8D805D0E94C7269E01235E3F4F68
:103A90003FA72EA70C94291588E093E00E94C52328
:103AA00061E084E00E9477238E8D8F5E0E949623D2
:103AB000FE017E96FFA7EEA70C9429158FB7F89408
:103AC00010924A05109249058FBF809144058AAF34
:103AD00080914E05898380914F058A838FE08B8387
:103AE00083E58E8380914C0590914D059F83888757
:103AF0008091440580FF43C081E08987B1E09B1637
:103B0000C1F1E2E09E1691F1FDA9F13091F14FA1D2
:103B10004A875EA15B876DA16C877CA17D878091C0
:103B200044058E870E94302C8F874B81BE016F5FCA
:103B30007F4F8EE298E00E94952F2CA13DA14EA1CF
:103B40005FA12BAF3CAF4DAF5EAF99AE3AA538AF9A
:103B50000C94190AA8950E94E02D8FB7F8949091C3
:103B60000101909346058FBF0C94250A32E03DABCE
:103B7000CECF89858068898721E02DABC8CF9AA5F3
:103B800091111CC01986BACF0E94772388E293E076
:103B90000E94C523BE01645E7F4F7FA76EA70C9471
:103BA00029150E94772383E293E00E94C523AE018A
:103BB000445E5F4F5FA74EA70C942915AAA5EA2F74
:103BC000F0E0ED5EF74F80818F5F898797CFA5E1A9
:103BD000B0E0AC0FBD1FDCA4AD0DB11D8C918150C8
:103BE000893008F48C938D898A3010F40C945C0E23
:103BF0000C94440E15E065E0C62ED12CE12CF12C7E
:103C00000C94CF0894E099A311E00C94C70819A272
:103C100011E00C94C70880910C0187FD17C0C9A062
:103C2000C110F6CF82E38093360521E029A311E08D
:103C30000C94C708E13061F711E039A1343011F07C
:103C40000C94C70843E049A30C94C70882E089A3F9
:103C500011E00C94C7084AA1426017CDE0914205DB
:103C6000E13011F40C94860F0F5F0E94872385E0EA
:103C700080931308E09143051DE0ADE0CA2ED12CDE
:103C8000E12CF12C0C94CF0880914205843011F482
:103C90000C94860F809113088150809313081DE0C7
:103CA000FDE0CF2ED12CE12CF12C0C94CF08E0912B
:103CB0004205E23011F40C94860F0E94592A0E94AA
:103CC0008723E09143051DE00C94C90880911308F7
:103CD0008823B1F1159A60E080E00E9477238BEF92
:103CE00093E00E94C52361E080E00E94772383E097
:103CF00094E00E94C52380911308805D0E94962362
:103D00008EE70E9496230C94780F159A60E080E06D
:103D10000E94772382EF93E00E94C52361E081E057
:103D20000E947723809123080E942B2480912208EF
:103D30000E942B24809121080E942B240C94780F40
:103D40000E94872360E080E00E9477238AE094E06D
:103D50000E94C5230E94D005FFCF159A60E080E045
:103D60000E94772389EE93E00E94C52361E080E002
:103D70000E94772382E697E00E94C5230C94780F77
:103D8000159A60E080E00E94772381EE93E00E9424
:103D9000C52361E081E00E94772384EA0E942B24FE
:103DA00089EA0E942B2483E80E942B240C94780F2C
:103DB000159A60E080E00E94772383ED93E00E94F3
:103DC000C52361E080E00E9477238BED93E00E94A1
:103DD000C5230C94780F159A60E080E00E94772349
:103DE0008BEC93E00E94C52361E081E00E94772381
:103DF0000E94302C90E062E370E00E944130CB01E1
:103E0000BAE0EB2EF12CB7010E944130805D0E9498
:103E100096238EE20E9496230E94302C90E065E06B
:103E200070E00E944130CB01B7010E944130805DBB
:103E30000E9496230E94302C90E0880F991FB701B2
:103E40000E944130805D0E94962386E50E94962361
:103E50000C94780F159A60E080E00E9477238FEB36
:103E600093E00E94C52361E081E00E9477230E94D5
:103E7000112C882E89E2889E812D112482958F70C5
:103E800009F452C0805D0E9496238DEC889E912D8E
:103E90001124192F169516951695189F812D11240A
:103EA000869586958695312F2AE0829F30191124B8
:103EB000832F805D0E9496238EE20E949623882D98
:103EC0004AE0149F80191124805D0E94962388EC9B
:103ED00093E00E94C5230C94780F159A60E080E06F
:103EE0000E94772388EA93E00E94C52361E080E086
:103EF0000E94772380911A018F3F69F18A3008F17F
:103F00008436B0F48EEA93E00E94C52380911A01B2
:103F10000E949B2661E084E00E94772381EB93E07E
:103F20000E94C5230C94780F80E20E949623ADCFA7
:103F30008DE20E94962380911A0190E00E94C9248C
:103F4000E9CF8DEA93E00E94C52380911A01805D3C
:103F50000E949623DFCF61E080E00E94772386EB0A
:103F600093E00E94C5230C94780F159A60E080E0DE
:103F70000E9477238FE993E00E94C52361E080E0EF
:103F80000E9477238BE50E94962361E087E00E94E0
:103F900077238DE50E94962361E081E00E947723DC
:103FA0008091500590E0069667E070E00E944130F5
:103FB000862E16E0882091F18A948FEF0E94962336
:103FC0001150C1F70C94780F159A60E080E00E94C0
:103FD000772386E393E00E94C52361E080E00E949E
:103FE00077238FB7F89420914705309148058FBF0C
:103FF000ADECBCEC0E945E309695879596958795C2
:10400000969587950E944A2561E085E00E94772376
:104010008BE993E00E94C5230C94780F80E20E9404
:104020009623CECF159A60E085E00E947723CAA43C
:10403000C110E7C089E40E94962360E080E00E94FE
:1040400077238091440580FDD7C080911B018C703F
:104050008C3009F0B4C0DBA08D2D90E08C30910540
:1040600048F4FC01E954FF4F0C94553081E993E08A
:104070000E94C52360E087E00E947723EE24E3944A
:104080009E1409F474C09E1408F46DC032E0F32E3F
:104090009F1003C082E50E94962361E082E00E94A7
:1040A00077238091370582FD5CC083E00E949623D0
:1040B00061E084E00E9477238091370581FD4FC045
:1040C00080E20E94962361E085E00E947723809140
:1040D000370580FD42C080E20E94962361E087E0C0
:1040E0000E94772380916A05813099F1F8F082303F
:1040F000C9F0833019F48AE20E94962361E080E0DF
:104100000E947723809168058130F1F0C0F0823001
:1041100089F0833011F00C94780F8AE20E94962384
:104120000C94780F82E40E949623E8CF8DE20E94DF
:104130009623E4CF82E40E9496230C94780F8DE2BC
:104140000E9496230C94780F84E40E9496230C948A
:10415000780F84E40E949623D1CF82E0BDCF81E026
:10416000B0CF84E0A3CF8EE40E94962396CF86E45E
:104170000E94962392CF1DE08DE0C82ED12CE12C19
:10418000F12C0C94CE081DE00C94C90887E893E04C
:104190000E94C5236FCF82E893E00E94C5236ACFB7
:1041A0008DE793E00E94C52365CF86E993E00E94E6
:1041B000C52360CF8CE893E00E94C5235BCF80913C
:1041C000370583FD13C084FF0DC08AE20E94962349
:1041D00088A9843608F083E60E949B2685E20E9427
:1041E000962348CF83E00E949623F2CF84FF0EC02F
:1041F00081E20E949623ECCF84E391E00E94C523E4
:1042000039CF8AA5805D0E94962317CF84E00E9453
:104210009623DECF80914205833011F40C94521224
:10422000D6018C91F5E2EF16F8E0FF0609F450C0D4
:10423000B1E6EB16B7E0FB0609F43FC0D7018C935B
:104240001AE0AAE0CA2ED12CE12CF12C0C94CF0854
:10425000E0914205E23011F40C94521260911F0873
:1042600080E290E00E94BF3060911E0881E290E001
:104270000E94BF306091250882E290E00E94BF302A
:104280006091610783E290E00E94BF300E94720358
:104290000E94872360E081E00E9477238BED91E00C
:1042A0000E94C52387E090E00E941C270E9487237C
:1042B000E09143051AE00C94C9088550809361078A
:1042C0001AE0BAE0CB2ED12CE12CF12C0C94CF08C3
:1042D0008B5F809325081AE08AE0C82ED12CE12C50
:1042E000F12C0C94CF0884E00C9439128DE20E94DA
:1042F00096230C943B1285E092E00E94C52361E076
:1043000080E00E9477238EEF92E00E94C52331E681
:10431000E32E37E0F32E4DE6C42E45E0D42E0C9468
:10432000281285E092E00E94C52361E080E00E94AF
:1043300077238AEF92E00E94C52355E2E52E58E0EC
:10434000F52E6DE6C62E65E0D62E0C94281285E07B
:1043500092E00E94C5237EE1E72E78E0F72EEDE69D
:10436000CE2EE5E0DE2E0C9428128BEF91E00E9419
:10437000C523FFE1EF2EF8E0FF2EACE6CA2EA5E044
:10438000DA2E0C94281216E00C94C90816E076E098
:10439000C72ED12CE12CF12C0C94CE08E0914205D3
:1043A000E13011F40C9452120F5F0E948723E091C8
:1043B00043051AE0FAE0CF2ED12CE12CF12C0C941D
:1043C000CF08B301A20124960FAC249704C0440F78
:1043D000551F661F771F0A94D2F740955095609538
:1043E000709584239523A623B72380933805909353
:1043F0003905A0933A05B0933B0580913C05909117
:104400003D05A0913E05B0913F05482359236A23FD
:104410007B2340933C0550933D0560933E0570938C
:104420003F050C94E11316E056E0C52ED12CE12C8B
:10443000F12C0C94CF08209104013091050180915A
:104440000601909107012817390768F340913C0550
:1044500050913D0560913E0570913F05DB01CA0119
:1044600024960FAC249704C0B695A7959795879589
:104470000A94D2F780FFB9C0809138059091390530
:10448000A0913A05B0913B057301620124960FACEF
:10449000249704C0CC0CDD1CEE1CFF1C0A94D2F740
:1044A0002996CCAEDDAEEEAEFFAE2997C094D09487
:1044B000E094F0944C215D216E217F2140933C05D6
:1044C00050933D0560933E0570933F0529962CADB2
:1044D0003DAD4EAD5FAD2997822B932BA42BB52B11
:1044E0008093380590933905A0933A05B0933B0526
:1044F0000C94E113E13009F096CFE0914205E130F0
:1045000009F491CF9DA59F5F9DA79D3108F01DA641
:1045100010920501109204010E948723E091430547
:1045200016E046E0C42ED12CE12CF12C0C94CF08DF
:1045300080EC91E00E94C5236FE18BA50E94A70546
:104540000C94911211500E948723E09143050C9422
:10455000C90880EB91E00E94C5230C946C1280EF97
:1045600091E00E94C5230C9479138AE192E00E94A5
:10457000C5230C947913E0914205E23009F453CF3E
:1045800040913C0550913D0560913E0570913F057D
:1045900080911C0890911D0848960E94CD30409152
:1045A00038055091390560913A0570913B0580912D
:1045B0001C0890911D084C960E94CD300E947203F9
:1045C0000E94872360E081E00E9477238BED91E0D9
:1045D0000E94C52387E090E00E941C270E94872349
:1045E000E091430516E00C94C9088091380590913C
:1045F0003905A0913A05B0913B056C017D012496E7
:104600000FAC249704C0F694E794D794C7940A9407
:10461000D2F7CCA2DDA2EEA2FFA2C0FC35CF73017F
:10462000620124960FAC249704C0CC0CDD1CEE1C58
:10463000FF1C0A94D2F72996CCAEDDAEEEAEFFAEEB
:104640002997C094D094E094F0948C219D21AE21C0
:10465000BF218093380590933905A0933A05B09314
:104660003B0529968CAD9DADAEADBFAD2997482BCE
:10467000592B6A2B7B2B40933C0550933D0560934F
:104680003E0570933F050C94E113662341F1429A75
:10469000439898B19F7098B998B1282F207F922B9A
:1046A00098B9439A44E04A95F1F7439898B19F70BE
:1046B00098B998B140E1849F90011124292B28B921
:1046C000439A94E09A95F1F74398611103C08150A1
:1046D000833038F09DED9A95F1F7000008954298E7
:1046E000D7CF89E995E10197F1F700C00895660FEA
:1046F000660F660F860F809351050895662321F09B
:1047000060E080540C94452380580C94452360E06D
:1047100081E00E94452310925105E2E5F5E080E238
:10472000819395E0E236F907D9F70895CF939091F8
:104730005105482F082E000C550BE92FF0E0EE5ADA
:10474000FA4F208130E042175307A1F0C82F692F9C
:10475000669566956695892F87700E947E2361E035
:104760008C2F0E94452390915105E92FF0E0EE5ADD
:10477000FA4FC0839F5F903120F010925105CF9186
:10478000089590935105CF910895CF93DF93EC0155
:104790002196FC018081882329F00E94962389912B
:1047A0008111FBCFDF91CF910895CF93C82F97B19F
:1047B0009C6F97B942982FEF8FE593E0215080408E
:1047C0009040E1F700C00000439898B19F7098B9FD
:1047D00098B1906398B9439A24E02A95F1F74398E9
:1047E0008FEF95E30197F1F700C00000439A94E042
:1047F0009A95F1F7439881EF91E00197F1F700C0A6
:10480000439A94E09A95F1F7439881EF91E00197EC
:10481000F1F700C098B19F7098B9459A439A94E017
:104820009A95F1F7439881EF91E00197F1F700C075
:1048300060E088E20E94452360E088E00E94452312
:104840000E94872360E086E00E94452360E08C2F71
:10485000CF910C9445231F93CF93DF93CDB7DEB751
:1048600060970FB6F894DEBF0FBECDBF182F80E162
:10487000E4E2F1E0DE01119601900D928A95E1F7F4
:10488000812F82958F70E1E0F0E0EC0FFD1FE80FC3
:10489000F11D80810E9496231F70E1E0F0E0EC0F93
:1048A000FD1FE10FF11D808160960FB6F894DEBF09
:1048B0000FBECDBFDF91CF911F910C9496230F9324
:1048C0001F93CF93DF938C019C01369527953695E6
:1048D0002795ABE7B4E10E945E30FC01F695E795C1
:1048E0009F01ADECBCEC0E945E30AC015695479543
:1048F0005695479556954795CA01880F991F440FBD
:10490000551F440F551F440F551F480F591FCF0106
:10491000841B950B805D0E9496239801ADECBCEC46
:104920000E945E30EC01D695C795D695C795D69571
:10493000C7959E010E945E30AC01569547955695ED
:10494000479556954795CA01880F991F440F551FE3
:10495000440F551F440F551F480F591FCE01841B8C
:10496000950B805D0E949623CE01880F991FCC0F76
:10497000DD1FCC0FDD1FCC0FDD1FC80FD91FC801F5
:104980008C1B9D0B805DDF91CF911F910F910C943B
:104990009623CF93DF93EC018436910508F46FC022
:1049A0009C013695279536952795ABE7B4E10E9493
:1049B0005E30FC01F695E7959F01ADECBCEC0E94E2
:1049C0005E30AC0156954795569547955695479557
:1049D000CA01880F991F440F551F440F551F440FDC
:1049E000551F480F591FCF01841B950B805D0E94F6
:1049F00096239E01ADECBCEC0E945E30FC01F69566
:104A0000E795F695E795F695E7959F010E945E304C
:104A1000AC01569547955695479556954795CA01C9
:104A2000880F991F440F551F440F551F440F551FE2
:104A3000480F591FCF01841B950B805D0E94962360
:104A40009E01ADECBCEC0E945E30969587959695E4
:104A50008795969587959C01220F331F880F991F84
:104A6000880F991F880F991F820F931F9E01281B83
:104A7000390BC901805DDF91CF910C94962380E2C0
:104A80000E949623CA30D10508F0B3CF80E20E947D
:104A90009623D6CFCF93DF93EC01883E23E0920795
:104AA00008F49EC09C013695279536952795369536
:104AB0002795A5ECB0E20E945E30FC01F295E295EC
:104AC000EF70EF27FF70EF279F01ADECBCEC0E9469
:104AD0005E30AC0156954795569547955695479546
:104AE000CA01880F991F440F551F440F551F440FCB
:104AF000551F480F591FCF01841B950B805D0E94E5
:104B000096239E013695279536952795ABE7B4E118
:104B10000E945E30FC01F695E7959F01ADECBCEC80
:104B20000E945E30AC01569547955695479556952F
:104B30004795CA01880F991F440F551F440F551FF1
:104B4000440F551F480F591FCF01841B950B805DE3
:104B50000E9496239E01ADECBCEC0E945E30FC01ED
:104B6000F695E795F695E795F695E7959F010E94EE
:104B70005E30AC01569547955695479556954795A5
:104B8000CA01880F991F440F551F440F551F440F2A
:104B9000551F480F591FCF01841B950B805D0E9444
:104BA00096239E01ADECBCEC0E945E3096958795F5
:104BB00096958795969587959C01220F331F880FB0
:104BC000991F880F991F880F991F820F931F9E01AD
:104BD000281B390BC901805DDF91CF910C9496237E
:104BE00080E20E949623C436D10508F08ACF80E285
:104BF0000E949623CA30D10508F0ACCF80E20E9413
:104C00009623CFCF0F931F93CF93DF938C019C01FB
:104C1000369527953695279536952795A5ECB0E2DC
:104C20000E945E30FC01F295E295EF70EF27FF7075
:104C3000EF279F01ADECBCEC0E945E30AC015695B5
:104C400047955695479556954795CA01880F991FE0
:104C5000440F551F440F551F440F551F480F591F30
:104C6000CF01841B950B805D0E9496239801369599
:104C7000279536952795ABE7B4E10E945E30FC019D
:104C8000F695E7959F01ADECBCEC0E945E30AC015F
:104C9000569547955695479556954795CA01880F5D
:104CA000991F440F551F440F551F440F551F480FA0
:104CB000591FCF01841B950B805D0E94962398019C
:104CC000ADECBCEC0E945E30EC01D695C795D69554
:104CD000C795D695C7959E010E945E30969587959B
:104CE00096958795969587959C01220F331F880F7F
:104CF000991F880F991F880F991F820F931F9E017C
:104D0000281B390BC901805D0E949623CE01880FB4
:104D1000991FCC0FDD1FCC0FDD1FCC0FDD1FC80F7F
:104D2000D91FC8018C1B9D0B805DDF91CF911F9116
:104D30000F910C949623CF93C82F8A3098F480E279
:104D40000E9496238DECC89F812D1124869586950F
:104D500086959AE0899FC01911248C2F805DCF9190
:104D60000C9496239DEC899F812D11248695869520
:104D70008695899F912D11249695969596952AE072
:104D8000929F80191124805D0E949623DBCFCF93E0
:104D9000DF93D82F9DEC899FC12D1124C695C69510
:104DA000C695C99F912D11249695969596958C2F11
:104DB0002AE0929F80191124805D0E9496238D2FF6
:104DC0009AE0C99F80191124805DDF91CF910C94E6
:104DD0009623CF92DF92EF92FF921F93CF93DF93B0
:104DE0001F92CDB7DEB7F62E880F880F880F10E41C
:104DF000180F60E0812F79830E944523CF2C7981A1
:104E0000D72E760188E0E80EF11C60E0812F0E9429
:104E1000452361E0F60181916F010E9445231F5FE8
:104E2000CE14DF0491F70F90DF91CF911F91FF9087
:104E3000EF90DF90CF900895009789F020E030E068
:104E4000A8954FEF5FE563E0415050406040E1F7C7
:104E500000C000002F5F3F4F2817390789F70895DA
:104E60006DEA74E081E00E94E92665EA74E082E080
:104E70000C94E9266DE974E083E00E94E92665E977
:104E800074E084E00C94E926CF930E9487236DE8B8
:104E900074E080E00E94E92665E874E081E00E9409
:104EA000E9266DE774E082E00E94E92665E774E098
:104EB00083E00E94E9266DE674E084E00E94E92622
:104EC0006DE574E085E00E94E92665E474E086E023
:104ED0000E94E9266DE274E087E00E94E92660E026
:104EE00080E00E947723C0E08C2F0E949623CF5F42
:104EF000C830D1F761E080E00E9477238CE194E034
:104F00000E94C52388E090E00E941C2765E574E0BC
:104F100085E00E94E9266DE374E086E00E94E926C0
:104F200065E274E087E00E94E92684E090E00E9458
:104F30001C2765E674E084E00E94E9266DE474E0D5
:104F400085E00E94E92665E374E086E00E94E92698
:104F50008FE090E0CF910C941C27CF93DF9397FDC7
:104F600004C0DF91CF910C940226EC0183E70E94EC
:104F70009623CE019F77DF91CF910C945F248CE034
:104F80000E94D523159A0E9444270E9487230E94DD
:104F9000192C0E943A270E94F3290C94592A80E682
:104FA00081B912B889E084B985B1806F85B985B1BE
:104FB000866085B98FEF87B918B880EF8AB91BB8BA
:104FC000089580916305E1E0E80FE09363058E2F7B
:104FD00090E0FC013197E431F10530F4ED53FF4FDF
:104FE0000C94553010926305089580912708853000
:104FF00051F1873009F18111F7CF5E985F980895DC
:10500000809127088430F9F020F18630A9F0C8F0AB
:105010008730A9F00895809127088630B8F484304D
:1050200080F4813071F0823051F00895809127082A
:10503000843049F0863049F45E9A08955F985E980E
:1050400008955F9808955F9A089508958830B8F399
:1050500008958130C1F3823079F308951DBAE9E6ED
:10506000F0E08081856080835C9A8CEC9AE0019707
:10507000F1F700C0000089B18C7090E0959587959C
:10508000959587958093260883E08DBB08951DBA7A
:105090005C9808951F920F920FB60F9211240BB6D1
:1050A0000F922F933F934F935F938F939F93EF9321
:1050B000FF93CF93DF93CDB7DEB72897DEBFCDBF89
:1050C00089B18C7090E0959587959595879531E09D
:1050D0003D8343E04E831F8252E0588759831A82F2
:1050E0004B833C83309126088317A1F0309126082A
:1050F0003370FE01E30FF11D3581381721F1309136
:1051000026083370FE01E30FF11D3181381729F1B4
:1051100010926F058093260828960FB6F894DEBF8C
:105120000FBECDBFDF91CF91FF91EF919F918F91F6
:105130005F914F913F912F910F900BBE0F900FBE3B
:105140000F901F90189520916F05222319F320913D
:105150006F05215020936F05DDCF20916F0528301A
:10516000C8F620916F052F5F20936F05D3CFE4E63B
:10517000F0E080818E7F80838FE880937E0080E4E2
:1051800080937C00EAE7F0E086E3808310927B0066
:105190008081886580831092670508951F920F9221
:1051A0000FB60F9211242F933F938F939F9380916B
:1051B0007800909179002091650530916605820F05
:1051C000931F9093660580936505809164058F5FBA
:1051D0008093640580916405803428F080917A0082
:1051E0008F7780937A009F918F913F912F910F90AD
:1051F0000FBE0F901F90189580917A0087FD07C011
:10520000E09162058E2F90E08D30910508F00895B1
:10521000FC01E952FF4F0C94553080916505909147
:1052200066050024880F991F001C880F991F001C19
:10523000892F902D90936605809365058091650573
:1052400090916605AC01440F551F440F551F480F40
:10525000591F9A01A3E4B8E00E945E30481B590B25
:1052600056954795840F951F929582958F70892743
:105270009F7089270E94332C809162058F5F8093F5
:105280006205089587E480937C0080937C001092EF
:105290006605109265051092640580917A00806C15
:1052A00080937A00809162058F5F809362050895F4
:1052B000809165059091660590936905913A08F093
:1052C00070C0913608F470C081E0809368058AE070
:1052D0008093620508955D9A82E4D7CF8091650539
:1052E0009091660590936B05913A08F057C09136FE
:1052F00008F464C081E080936A0588E080936205C9
:1053000008955D9A83E4C1CF80916505909166050B
:10531000892F809580936C0586E0809362050895BF
:10532000419A84E4B2CF809165059091660590938F
:105330006D0584E0809362050895419A81E4A5CFCC
:105340008091650590916605892F99279093660550
:10535000809365058091650590916605C097D0F0B2
:1053600080916505909166058037910518F510923A
:105370006E0582E0809362050895409A80E485CFAF
:10538000809167058F3F19F08F5F809367051092BA
:105390006205089582E080936E05EBCF10926A0556
:1053A000ACCF1092680593CF913270F082E0809379
:1053B00068058DCF81E080936E05DBCF913240F0A0
:1053C00082E080936A0599CF83E0809368057FCF60
:1053D00083E080936A0591CF81E0909167059132D7
:1053E00008F480E0089580917105813021F1C8F0C2
:1053F000823019F0833059F008956DEB74E085E048
:105400000E94E92665EB74E086E00C94E92665EBE2
:1054100074E085E00E94E92665EB74E086E00C9478
:10542000E92665EC74E085E00E94E92665ED74E00C
:1054300086E00C94E92665EC74E085E00E94E9269C
:105440006DEC74E086E00C94E926909170058091F3
:105450007105981731F00E94F329809171058093AE
:10546000700560E087E00E94772385E00E94962324
:1054700061E087E00E94772386E00C949623809178
:105480007105089580917105833020F48F5F8093BA
:105490007105089583E080937105089580917105E9
:1054A0008150833018F4809371050895109271052E
:1054B000089563EF74E081E00E94E9266BEE74E0EA
:1054C00082E00C94E926FC01808170E0680F711D78
:1054D00091816C3371055CF09F5F01C0922F6C531A
:1054E000710921E0290F6C337105C0F79183608346
:1054F00022819C3350F02F5F01C0232F9C5331E059
:10550000320F9C33D0F722839183283158F08BEAF5
:10551000289F812D112482958F7098E1899F2019F1
:10552000112422830895EF92FF920F931F93CF933C
:10553000DF9300D000D000D0CDB7DEB7FC012181D1
:105540003DEC239F912D11249695969596954AE0D2
:10555000949F20191124205D2D83939F212D1124C8
:105560002695269526958AE0289F90191124905D0E
:105570009C838AE38B83662359F02281211140C0EA
:1055800081E3898382E38A8381E08E8389811BC0E2
:105590009281939F812D11248695869586954AE068
:1055A000849F90191124905D9A83839F312D11243B
:1055B0003695369536959AE0399F80191124805D8D
:1055C000898390E29E838E010E5F1F4F7E0127E04C
:1055D000E20EF11C03C0F80181918F010E94962315
:1055E0000E151F05C1F726960FB6F894DEBF0FBE45
:1055F000CDBFDF91CF911F910F91FF90EF90089554
:105600002D3050F5922F8DEC989F312D1124369529
:1056100036953695389F812D1124869586958695E9
:10562000EAE08E9F30191124832F3323C1F0805D6F
:1056300089833DEC939F312D11243695369536950F
:10564000FAE03F9F90191124905D9A832C3008F462
:105650009BCF92E09E83B7CF94EF920FD4CF80E29E
:10566000E7CF80917205882391F060918605862F9F
:105670008370833081F060FD05C064708EE795E033
:105680000C94932A687086E795E00C94932A8DED2C
:1056900094E00C94C52384EE94E00C94C52380918F
:1056A0007205882319F081508093720580918605D8
:1056B0008370813009F0089540911F0150912001BD
:1056C000E0917405F09175059A01ADECBCEC0E9477
:1056D0005E30969587959695879596958795E80F70
:1056E000F91FF0937505E093740520917305BC01D3
:1056F000660F771F880F991F880F991F880F991FB2
:10570000860F971F481B590B420F409373058091DA
:1057100073058B3080F28091740590917505019628
:105720009093750580937405809173058A508093DA
:10573000730508958091860580FF08C081FD06C02D
:1057400080917405909175050A9708F408954FB7F4
:10575000F8942091740530917505ADECBCEC0E9475
:105760005E30969587959695879596958795209125
:105770007405309175055AE0859F2019310911246F
:1057800030937505209374054FBF682F86E795E029
:105790000C94632AFC018681809380058781809325
:1057A0007F05808580937E05818580938605828133
:1057B0008E30A0F08285809378058385809377056D
:1057C000848580937605858590E0982F88272685A7
:1057D000820F911D9093200180931F0110927505F7
:1057E000109274051092730580911E0180937205CA
:1057F00008958A3038F08F3F49F08B3F58F48093FA
:105800001E0108958AE080931E01089584E6809326
:105810001E0108958AEF80931E01089580911E0154
:10582000089580911F0190912001089510927205B2
:10583000089580912201813071F040F0823029F486
:105840006BE075E080E00C94E92608956BEF74E05E
:1058500080E00C94E92663E075E080E00C94E92692
:1058600080918805089590E0982F882720918705DA
:105870003091880528173907A8F4821B930B92955D
:1058800082958F7089279F708927280F391F309341
:105890008805209387053E36D0F43436E0F4109224
:1058A0002201089582179307B0F7A901481B590BED
:1058B000CA01929582958F7089279F708927281B2E
:1058C000390B30938805209387053E3630F382E00C
:1058D00080932201089581E08093220108959091A0
:1058E000220180912101981731F00E94192C80919A
:1058F00022018093210160E080E00E94772380E014
:105900000C9496231F920F920FB60F9211240BB690
:105910000F922F933F934F935F936F937F938F9348
:105920009F93AF93BF93EF93FF938091C0008871D3
:1059300091F08091C6008093CD051092CD05109214
:105940008A058091C6008D3709F45CC08E3709F056
:1059500059C082E06DC08091C6008D3709F47FC0C8
:105960008E3709F462C090918A0591FF4BC090FF79
:1059700005C020E282279E7F90938A059091CD05F5
:105980009F3308F074C0E091CD0591E09E0F909395
:10599000CD05F0E0E253FA4F80838091CD0584304D
:1059A00009F474C08091CD05853060F12091CD055A
:1059B00080918905281326C083E08093CD058091CE
:1059C000CD058217A0F490E0E091CD05F0E0E25320
:1059D000FA4F8081980F8091CD058F5F8093CD0520
:1059E0008091CD05821780F39F3F09F455C0EEECFE
:1059F000F5E080E4DF011D928A95E9F71092CD056C
:105A000010928A05FF91EF91BF91AF919F918F9175
:105A10007F916F915F914F913F912F910F900BBEAE
:105A20000F900FBE0F901F90189580918A0582608D
:105A30001092CD0590E4EEECF5E0DF011D929A9511
:105A4000E9F780938A05E091CD0581E08E0F809380
:105A5000CD05F0E0E253FA4F8EE78083D3CF8091FB
:105A60008A0581FFCFCF816080938A05CBCF80915B
:105A70008A058D7F80938A051092CD0580E4EEEC37
:105A8000F5E0DF011D928A95E9F7BCCF8091D00542
:105A90008C5F8093890586CF88E08093CD058091C7
:105AA000D105803849F1813809F0A1CFE091CD05C9
:105AB000F0E0E453FA4F2081E091CD05F0E0E253AD
:105AC000FA4F82818431E0F4E091CD05F0E0E253B9
:105AD000FA4F42816091CD0570E062537A4F88E2BF
