:100000000C94FE000C94F82C0C94F82C0C941D010C
:100010000C941D010C9484020C941D010C941D0180
:100020000C941D010C941D010C941D010C941D01D8
:100030000C941D010C941D010C941D010C941D01C8
:100040000C94F7020C941D010C941D010C941D01DD
:100050000C94DE310C94DE320C941D010C941D01C5
:100060000C947C2D0C941D010C941D010C941D010D
:100070000C941D010C941D010C941D010C941D0188
:100080000C941D010C941D010C941D01520C400C8C
:100090006A0C580C640C1C0C340C280C3A0C0F0C19
:1000A0008C094A0C660ED818B50F5D0F5D0FEE0E69
:1000B0005810120E2910E20DB20D810D510D200DB8
:1000C000DB0CE60E660EEC0FB50F5D0F5D0FEE0E4E
:1000D0005810120E2910E20DB20D810D510D200D98
:1000E000DB0CE60ED810D010BB10BB10BB10BB1041
:1000F000A510A510A510A5109D10E010660E3F27B5
:10010000B50F5D0F5D0FEE0E5810120E2910E20DA7
:10011000B20D810D510D200DDB0CE60E640E1E128A
:10012000B30F5B0F5B0FEC0E5610100E2710E00D97
:10013000B00D7F0D4F0D1E0DD90CE40E660EFE2185
:10014000B50F5D0F5D0FEE0E5810120E2910E20D67
:10015000B20D810D510D200DDB0CE60EE81BBE1615
:10016000E51BC31AC31AC01ABD1ABA1AB71AB41AB1
:10017000B11AAE1AA321A0214621EB1BE01ED41E0A
:10018000C81EBC1EB01EA41E981E8C1E801E741E8F
:10019000681E5C1E501E441E381EA32097201F1F81
:1001A000EC1EEF24EF24EA24EA24E524E524E024ED
:1001B000E0242B242B24B524B524A32CAE2CA32C73
:1001C000B92CA22CC42CA22CB92CA22CCC2CA22C45
:1001D000A22CA22CA22CA22CA22CA22CA22CA22CAF
:1001E000A02C6B2E4E2E4B2E412E3E2E322E2F2E1D
:1001F0001C2E192E062EF02DBB2D6E2E11241FBE87
:10020000CFEFD0E4DEBFCDBF15E0A0E0B1E0E0E786
:10021000FCE600E00BBF02C007900D92A238B107C8
:10022000D9F728E0A2E8B5E001C01D92A538B207D1
:10023000E1F70E942D080C9436360C9400006827D4
:1002400090918205209183052927262320938305F9
:1002500090959623909382056095622B962B9095AE
:10026000892708950F931F93CF93DF93CDB7DEB700
:10027000A9970FB6F894DEBF0FBECDBF8E01075D04
:100280001F4F20E044E1BE016B5E7F4F89E798E09D
:100290000E94F934882379F08E8990919C05891702
:1002A00009F490C090919D05891729F08D898F3FA1
:1002B00069F0981759F0A9960FB6F894DEBF0FBEF3
:1002C000CDBFDF91CF911F910F9108950F8900232A
:1002D00009F480C010E020E030E09DEF910F9230F3
:1002E00060F0E5E1F0E0EC0FFD1FE10FF11D608132
:1002F000C9010E9427349C010F891F5F101768F302
:10030000832F90E0498D50E048175907A1F6332715
:10031000888D90E02817390771F68A8D813409F4A9
:100320009FC0873509F47BC0823509F4CFC086357C
:1003300009F4A8C0883509F464C0843509F44FC0B5
:100340008F7D863509F0B7CF9E8980919C059813E3
:10035000B2CF89A580931A018C8D90E0A0E0B0E027
:10036000DC01992788272E8DAC01BD01422B2D8DF4
:1003700030E0922F8827A0E0B0E0842B952BA62BAD
:10038000B72B8093720890937308A0937408B0936E
:10039000750848E050E060E270E083EB97E00E946F
:1003A000E6351092BB07402F50E0043108F0A6C09C
:1003B0004C505109BE016F5D7F4F83EB97E00E9467
:1003C000DD3579CF92E390939F0590919D05891338
:1003D0006DCF71CF80E090E020E030E093CF80914E
:1003E00000018F3F49F09E89891731F020919C05CB
:1003F000921361CF81115FCFCE0145960E94783074
:100400005ACFF894A89584B7877F84BF8091600005
:1004100088618093600088E080936000FFCF8E89C0
:10042000898388E08B8387E78E838B8D6C8D90E04A
:100430000E941B368B8D8F839C8D9887811161C0A4
:1004400080E090E00E94FD3580939D058A834B817A
:10045000BE016F5F7F4F8FE798E00E94F1342BCF92
:100460008E89898380919D058A8386E08B8381E6CE
:100470008E8346E0BE016F5F7F4F8FE798E00E945A
:10048000F13419CF8E89898380919D058A838FE00D
:100490008B8386E78E8380E88F8387EA88878AE369
:1004A000898785EE8A8781E08B8782E08C8783E469
:1004B0008D8783E58E8784E58F874FE0BE016F5F70
:1004C0007F4F8FE798E00E94F134F5CE8E898983C3
:1004D00080919D058A8388E08B8382E78E838B8D54
:1004E0008F8390E00E94FD35888748E0BE016F5FF2
:1004F0007F4F8FE798E00E94F134DDCE48E050E076
:1005000059CF80919D05A2CF1F920F920FB60F92E7
:1005100011240F900FBE0F901F90189585FD16C0E7
:1005200081E080939105909190059817C1F082E346
:1005300090E09093070180930601809106019091CD
:1005400007019093050180930401089584FD20C064
:1005500082E080939105909190059813E8CF809167
:100560008F05853608F180910601909107010A9761
:10057000F8F48091060190910701059730F485E029
:1005800090E0909307018093060110928F050895E3
:1005900086FF06C087FD16C084E080939105C3CF17
:1005A00083E080939105BFCF8F5F80938F0508957F
:1005B00080910601909107010A979093070180931B
:1005C0000601D7CF10929105B2CF9091850582FF99
:1005D00007C09B7F81FD07C09260909385050895B9
:1005E000946081FFF9CF9D7F9093850508951F92B8
:1005F0000F920FB60F9211240BB60F922F933F93C9
:100600004F935F936F937F938F939F93AF93BF931A
:10061000EF93FF9380919305816080939305809180
:1006200071088F5F809371088A3008F442C010927D
:10063000710880919705909198050196909398057F
:100640008093970580919F05882329F080919F05CD
:10065000815080939F058091950590919605892BF7
:1006600049F0809195059091960501979093960594
:10067000809395050E948F2C80918405882329F012
:100680008091840581508093840580915F068F5FFF
:1006900080935F0620915F0680911D0130E090E01D
:1006A000880F991F880F991F2817390794F50E9402
:1006B000FD2F80919405882329F080919405815025
:1006C00080939405209104013091050180910601E9
:1006D000909107012817390748F4809104019091FF
:1006E000050101969093050180930401FF91EF911C
:1006F000BF91AF919F918F917F916F915F914F913A
:100700003F912F910F900BBE0F900FBE0F901F9037
:10071000189510925F06CBCFEF92FF920F931F9325
:10072000CF93DF93CDB7DEB727970FB6F894DEBF30
:100730000FBECDBF86E0E5E3F1E0DE01119601904A
:100740000D928A95E1F789818E3209F4C5C288231A
:1007500009F4F7C1FE01329660E003C0882309F472
:10076000F4C12AE0629F800D112460ED680F8F01B3
:1007700081918E3299F78EE090E06F830E94FD3573
:100780006F81861721F08EE090E00E941B360F5F8C
:100790001F4FF80180818E3209F4E7C1882309F4E4
:1007A000E4C1F801319610E002C0882349F02AE044
:1007B000129F800D112410ED180F81918E32A9F730
:1007C0008FE090E00E94FD35811729F0612F8FE0C6
:1007D00090E00E941B3683E090E00E94FD35182FC8
:1007E00082E090E00E94FD35212F30E0A901582BD6
:1007F0004A30510508F4D4C14536510508F03DC2D0
:1008000050930301409302018DE190E00E94FD3579
:100810008A3008F4BCC18093010184E190E00E9419
:10082000FD35F82E85E190E00E94FD35082F86E128
:1008300090E00E94FD35182F482F602F8F2D0E94C9
:1008400098310E948F318F1539F00E948F31682FB7
:1008500084E190E00E941B360E949231801739F0AB
:100860000E949231682F85E190E00E941B360E9421
:100870009531811739F00E949531682F86E190E01B
:100880000E941B3681E190E00E94FD3590E00097C8
:1008900009F46DC18F3F910509F40EC284369105AC
:1008A00008F0EEC148E552E0849F9001859F300D2D
:1008B000949F300D11243093B1072093B00782E14B
:1008C00090E00E94FD35182F0E94A730811729F073
:1008D000682F82E190E00E941B368EE190E00E943A
:1008E000FD358093000183E190E00E94FD35809307
:1008F0001C0180E090E00E94FD35803308F462C165
:100900008A3408F0A8C180939D058FE190E00E9491
:10091000FD35803D08F465C1803F08F0A5C1809396
:100920009C0580E190E00E94FD358F3109F41AC1E9
:100930008FE190E090936E0880936D086FE180E105
:1009400090E00E941B3600916D0810916E081127EF
:100950001695102F00271795079510936E08009392
:100960006D08C8010E940B3690939B0580939A05F1
:1009700097FD40C18031974208F05DC1C8010296E1
:100980000E94FD3580931901C80103960E94FD3530
:1009900080931801C80108960E94FD3580931701C5
:1009A000C80109960E94FD3580931601C8010A9678
:1009B0000E94FD3580939905C8010B960E94FD3574
:1009C00080931501C8010C960E94FD358093140197
:1009D000C8010D960E94FD3580931301C8010E9643
:1009E0000E94FD3580931201C8010F960E94FD35CB
:1009F00080931101C80104960E94FD358093100177
:100A0000C80143960E94FD3580930F01C8010596E9
:100A10000E94FD3580930E01C80106960E94FD35A7
:100A200080930D01C80107960E94FD3580930C014B
:100A3000C80140960E94FD3580930B01C801419684
:100A40000E94FD3580930A01C80142960E94FD353F
:100A500080930901C80144960E94FD3580930801E6
:100A6000C80148960E94053660938A0570938B05ED
:100A700080938C0590938D05C8014C960E94053695
:100A80006093860570938705809388059093890508
:100A900080E290E00E94FD358093700881E290E052
:100AA0000E94FD3580936F0882E290E00E94FD3540
:100AB0008093760883E290E00E94FD358093B20730
:100AC000C80147960E94FD3580931B01780186E19D
:100AD000E80EF11CC7010E94FD35823008F4E0C029
:100AE0008B3008F09CC080931D01B801605E7F4F81
:100AF00048E050E085E698E00E94ED35E5E6F8E054
:100B000021E09EE706C09083319648E0ED36F40779
:100B100059F080818F37B8F78111F6CF2083319655
:100B200048E0ED36F407A9F727960FB6F894DEBF34
:100B30000FBECDBFDF91CF911F910F91FF90EF902E
:100B4000089560E08E010F5F1F4F8EE090E06F838D
:100B50000E94FD356F81861741F08EE090E00E9483
:100B60001B3617CE0FE110E0F2CE10E029CE81E067
:100B700090E09093B1078093B00761E081E190E04D
:100B80000E941B368091B0079091B1078BCE8AE00E
:100B9000809301016AE08DE190E00E941B363DCE1A
:100BA0008AE090E0909303018093020160E082E08C
:100BB00090E00E941B366091020183E090E00E9469
:100BC0001B3622CE80E380939D0560E380E090E0B9
:100BD0000E941B368FE190E00E94FD35803D08F0B9
:100BE0009BCE80ED80939C0560ED8FE190E00E94AC
:100BF0001B3697CE9F778038910508F4BFCE8FE7DC
:100C000090E090939B0580939A056FE770E0C80190
:100C10000E94313600916D0810916E08AFCE8AE0C7
:100C200080931D016AE0C7010E941B3600916D0888
:100C300010916E085ACF8FE097E290939B058093B6
:100C40009A056FE077E2C8010E94313600916D0885
:100C500010916E0893CE89E480939D0569E480E04D
:100C600090E00E941B3651CE8FEE80939C056FEE74
:100C70008FE190E00E941B3654CE84E690E092CF44
:100C800083E690E09093B1078093B00763E681E13B
:100C900090E00E941B368091B0079091B10702CE80
:100CA00082E080931D0162E0C7010E941B36009123
:100CB0006D0810916E0819CF85E090E09093B10710
:100CC0008093B00765E081E190E00E941B3680913F
:100CD000B0079091B107E6CD60E08E010F5F1F4F26
:100CE0004ACDEF92FF920F931F93CF93DF9320E8AB
:100CF000829FC001112420E8629F800111247C01A1
:100D000020E8E20EF11CEC01081B190BCE010E9439
:100D1000FD35682FC8018C0F9D1F0E941B36219640
:100D2000CE15DF0599F7DF91CF911F910F91FF90BD
:100D3000EF900895AF92BF92CF92DF92EF92FF9221
:100D40000F931F93CF93DF93A89560E082E090E02C
:100D50000E941B366AE083E090E00E941B366FE041
:100D60008DE190E00E941B3665E081E190E00E94F9
:100D70001B3664E682E190E00E941B3661E183E16C
:100D800090E00E941B3660E380E090E00E941B36FA
:100D900060ED8FE190E00E941B3660E08EE190E014
:100DA0000E941B364FEF6FEF8FEF0E9498310E9429
:100DB0008F31682F84E190E00E941B360E949231AF
:100DC000682F85E190E00E941B360E949531682FC4
:100DD00086E190E00E941B366FE180E190E00E9486
:100DE0001B36C0E8D0E087E0A82E97E1B92E27E2B5
:100DF000C22E37E3D32E47E4E42E57E5F52E07E65F
:100E000017E7A895D0936E08C0936D0863E070E86B
:100E1000CE010E94313680916D0890916E0862E09B
:100E200002960E941B3680916D0890916E0861E0D9
:100E300003960E941B3680916D0890916E0860E8C1
:100E400008960E941B3680916D0890916E0860E8AC
:100E500009960E941B3680916D0890916E0860E0A3
:100E60000A960E941B3680916D0890916E0860E88A
:100E70000B960E941B3680916D0890916E0860E879
:100E80000C960E941B3680916D0890916E0860E868
:100E90000D960E941B3680916D0890916E0860E05F
:100EA0000E960E941B3680916D0890916E0860E846
:100EB0000F960E941B3680916D0890916E086AE033
:100EC00004960E941B3680916D0890916E0860E830
:100ED00043960E941B3680916D0890916E0869E0E0
:100EE00005960E941B3680916D0890916E0868E00F
:100EF00006960E941B3680916D0890916E0860E8FE
:100F000007960E941B3680916D0890916E0865E0EF
:100F100040960E941B3680916D0890916E0866E0A5
:100F200041960E941B3680916D0890916E0860E892
:100F300042960E941B3680916D0890916E0860E881
:100F400044960E941B3680916D0890916E0840E097
:100F500050E0BA0148960E94293680916D08909120
:100F60006E0840E050E0BA014C960E94293680910C
:100F70006D0890916E0865E046960E941B36809140
:100F80006D0890916E0861E047960E941B36A09212
:100F90006508B0926608C0926708D0926808E0922F
:100FA0006908F0926A0800936B0810936C086091CE
:100FB0006D0870916E08605E7F4F48E050E085E6F6
:100FC00098E00E941136C058DF4FC0388AE0D80739
:100FD00009F017CF6FE181E00E947106A895DF91BB
:100FE000CF911F910F91FF90EF90DF90CF90BF9026
:100FF000AF900C948C0314BEA8959EE088E10FB6C8
:10100000F894A895809360000FBE90936000A89517
:1010100010929F058FEF80931A010E94C4300E94A6
:101020008C0310929E050E947D2C0E94652D0E94CB
:10103000DC2C16BC8CE687BD1092710810929805C6
:101040001092970582E084BD85E085BDEEE6F0E074
:10105000808182608083239A0895CF93DF93CDB7F8
:10106000DEB7C055D1090FB6F894DEBF0FBECDBFB5
:101070002090BE0527962FAE27975090BD05309043
:10108000920528963FAE28970E94FB0780919D0508
:1010900089A380919C0588A3809100018F8F209166
:1010A000B0073091B1073695279536952795369537
:1010B0002795AFE4BBE10E94BA3596958795969542
:1010C0008795969587958E8F0E94BC309DEC899F61
:1010D000812D11248695869586958D8F209102010C
:1010E00030910301ADECBCEC0E94BA359695879522
:1010F00096958795969587958C8F28988FB7F894B5
:101100002091B0073091B107309396052093950553
:101110008FBF1698A89540E160E676E08FE798E0EB
:101120000E94CB3448E06CEB77E089E798E00E94BE
:10113000CB340E9411337894A8958FEF89838091E6
:101140009D058A838FE08B8386E78E8380E88F837B
:1011500087EA88878AE3898785EE8A8781E08B879B
:1011600082E08C8783E48D8783E58E8784E58F8793
:101170004FE0BE016F5F7F4F8FE798E00E94F13430
:10118000A8951092780885B1806F85B985B1866081
:1011900085B90E94682C83B1867F282E0E94E13099
:1011A0008AAB22965FAE22972BE131E03EAB2DABAE
:1011B000AE01425E5F4F3A01BE016F5D7F4F7EAF71
:1011C0006DAF71E07AAF81E024968FAF24972C96B3
:1011D0001CAE1DAE1EAE1FAE2C971EA61FA618AAD3
:1011E00019AA312C1CAEA9E1B1E0BBA7AAA71BAE7E
:1011F0001CA619AE412C0FE023961FAE23971DA607
:101200008FE0C82ED12CE12CF12C1FAA18AEE1E002
:10121000F0E02696FFAFEEAF26979E01245E3F4F8B
:1012200039A728A7435051095FA34EA3BE01665EAC
:101230007F4F7DA36CA3CE0149969BA38AA3812CEB
:10124000912C540183942BAA142DD701C601C32CD1
:10125000D52C1C012D01A8952B9A2B9880919305D4
:1012600080FDA1C20E94AA2D0E94E130833009F4C2
:10127000B1C2AAA9A33011F40C9492120E94E130D9
:101280008AAB409170083091BB05842F90E00497A1
:10129000632F70E0681779070CF07DC38091850596
:1012A0008E7F809385053091BC0540917608341778
:1012B00008F466C3842F90E0E090B207632F70E0DB
:1012C000681B790B54E6569FF001579FF00D1124CF
:1012D0006E2D70E0681B790BCF010E949D35F62EB4
:1012E00050911B0150FF51C3E31628F480919205E1
:1012F00081608093920552FF31C353FF12C7ECA562
:101300008E2F90E08C30910560F4FC01EA5BFF4F7A
:10131000809185050C94B1358860809385054BE0FC
:101320004CA78091BD0551FD12C09091080197FD19
:10133000D8C29F714EA55FA568A979A904C076950A
:101340006795579547959A95D2F740FFCAC2813065
:1013500009F4C6C210F40C941012823009F0C1C214
:10136000E1E0DE1611F40C94E31281E090911C018F
:1013700094FDBDC2EE24E3944091BE054CABD82E43
:1013800051E0C51609F4D3C264E0C61611F40C94FA
:10139000D21185E0C81611F40C9402120E94483054
:1013A00090E12916310408F4FFC230919105112310
:1013B00009F4D2C5202E312C30939005A89589E7E9
:1013C00098E00E94E134811147C7A89580919F055C
:1013D00081119FC6109272081092730810927408BF
:1013E000109275088FEF80931A0189E0E9E5F4E027
:1013F000A3EBB7E001900D928A95E1F787E0809327
:1014000078083091850530FFA5C28091190187FDCC
:10141000A1C28F71B501A40104C0440F551F661FFE
:10142000771F8A95D2F7DB01CA0131FF13C04091C3
:10143000180147FD0FC0242F2F71B501A40104C06E
:10144000440F551F661F771F2A95D2F7842B952BC3
:10145000A62BB72B32FF13C040910E0147FD0FC0E2
:10146000242F2F71B501A40104C0440F551F661F1E
:10147000771F2A95D2F7842B952BA62BB72B33FFFA
:1014800013C04091100147FD0FC0242F2F71B501EB
:10149000A40104C0440F551F661F771F2A95D2F779
:1014A000842B952BA62BB72B34FF12C030910F0144
:1014B00037FD0EC03F71B501A40104C0440F551F94
:1014C000661F771F3A95D2F7842B952BA62BB72B47
:1014D0003FEF3C0D323008F4C2C655E0C51609F4A2
:1014E000A8C66FA9662391F030910B0137FD0EC09D
:1014F0003F71B501A40104C0440F551F661F771F3B
:101500003A95D2F7842B952BA62BB72B78AD772362
:1015100091F030910A0137FD0EC03F71B501A40171
:1015200004C0440F551F661F771F3A95D2F7842BCE
:10153000952BA62BB72BA8953091B905323009F41D
:10154000CFC6333009F417C7313009F4FDC6A8956A
:101550003091B705323009F4DBC6333009F4DDC60B
:10156000313009F498C620918A0530918B0540915D
:101570008C0550918D05282B392B4A2B5B2B2EA7E0
:101580003FA748AB59AB40918605509187056091C4
:1015900088057091890540955095609570958EA548
:1015A0009FA5A8A9B9A984239523A623B7238EA70D
:1015B0009FA7A8ABB9AB22969FAD2297D91609F485
:1015C00014C6EE24E394F12C809191058111FEC59F
:1015D0008FEF8D0D823008F4F9C5E114F10409F0A4
:1015E000F5C5A8958FB7F894209197053091980587
:1015F00021963FAF2EAF21978FBF0E949A2E88234E
:1016000099F0EF2859F480910201909103012196FD
:101610004EAD5FAD21974817590730F08091810892
:10162000882311F40C9434148FE798E00E94E1347D
:10163000882329F080919405882309F4B2C73FB725
:10164000F89480919505909196053FBF892B21F0E4
:101650008091920587FFFFCDA89510927808809120
:101660007A008F7780937A00289A169A88B18370CF
:1016700088B9159880916E008D7F80936E005F9879
:101680005E9885B1897F85B90E94F52C4198409874
:101690005D9883B7817F846083BFF894A8950FB667
:1016A000F894A89580916000886180936000109202
:1016B00060000FBED99A80916800826080936800B4
:1016C00080916C00806F80936C0083B7816083BFD2
:1016D00078948895F89483B78E7F83BF8091680053
:1016E0008D7F80936800A8959EE088E10FB6F894FE
:1016F000A895809360000FBE90936000A8957894A1
:10170000289816980E94682C0E3011F40C94BA1682
:1017100016BC8CE687BD1092710810929805109245
:10172000970582E084BD85E085BD80916E00826072
:1017300080936E0085B1866085B90E94DC2C63B110
:10174000667F8BA90E941F0163B1667F0E941F0103
:1017500063B1667F0E941F0163B1667F0E941F0113
:101760008BAB0E948E028BA90E94E50280919105AD
:10177000809390050E94C4308FB7F8944091B007D1
:101780005091B10750939605409395058FBF809176
:1017900092058F7780939205A8952B9A2B9880912C
:1017A000930580FF5FCD809193058E7F8093930595
:1017B00063B1667F8BA90E941F018BAB0E948E02D2
:1017C0008BA90E94E5020E94AA2D0E94E13083307D
:1017D00009F04FCD9AA9933011F00E943028109251
:1017E0007808289A159885B1897F85B985B18F7059
:1017F00085B90E94F52C60E082E00E9420288BE3EE
:1018000091E00E946E2861E080E00E9420288FE332
:1018100091E00E946E280E94E1308AAB1CCD877F48
:10182000809385053417E0F18091B207831708F0A3
:1018300078CD3AE03CA775CD877F80938505341736
:1018400078F19BE39F1508F06CCDA6E0ACA769CDBD
:10185000877F80938505341718F1EFE4EF1508F0C2
:1018600060CDF8E0FCA75DCD886080938505B7E08A
:10187000BCA757CD88608093850529E02CA751CD62
:101880008F7E8093850523E12F1508F04ACD32E045
:101890003CA747CD877F80938505341708F041CD5D
:1018A0001CA63FCD806180938505F1E0FCA739CD72
:1018B000877F80938505341798F367E26F1508F0EA
:1018C00030CD74E07CA72DCD88608093850585E0C0
:1018D0008CA727CD88608093850543E04CA721CD58
:1018E00082E0D816A9F190911C0194FF31C090912B
:1018F000BE05E82E91118D2D81113ECD80910901FB
:1019000087FD70C48F712EA53FA548A959A904C0B1
:1019100056954795379527958A95D2F720FF62C44B
:101920003091BE053CABD12C51E0C5122DCD80913C
:101930008405882309F498C40E94483040E12416A5
:10194000310408F032CDF101EE5AFF4F0C94B1355D
:10195000E82ED2CF80E090E0DC0167CDBCA5BA30A4
:1019600008F031C5B23008F079C5809185058061F5
:1019700080938505341708F4D4CCF2E0FCA7D1CCD1
:1019800050911B0150FD7DC4F12C809192058E7FFA
:1019900080939205B0CC341708F485CC80918505EE
:1019A0008160809385057FCCF101EE59FF4F0C9447
:1019B000B13523E0C22E159A112311F40C944B215A
:1019C000113011F40C940424123011F40C944725B6
:1019D000133011F40C942D23143011F40C94F926C7
:1019E000153011F40C94B826163011F40C947A26A4
:1019F000173011F40C946826183011F40C94512609
:101A0000193011F40C943F261A3011F40C94252649
:101A10001B3011F00C9445258091640881110C94C1
:101A2000B7230E94302860E080E00E9420288EE3E7
:101A300094E00E946E280E949A06FFCF33E0C32EE6
:101A4000159A11110C94321560E080E00E94202854
:101A500088EF92E00E946E2861E080E00E942028DA
:101A60008FE70E943F2881E093E00E946E2830912A
:101A70009105323011F00C943117309190053230CD
:101A800011F40C94D1230E9430283091910511E07B
:101A90000DE02DE0222E312C412C512C8DCC73E009
:101AA000C72E159A11118EC660E083E00E9420288F
:101AB0008BE393E00E946E2861E080E00E94202882
:101AC0008FE70E943F288DE591E00E946E283091BB
:101AD0009105323011F00C94501A3091900532304B
:101AE00011F40C948F1D0E9430283091910511E063
:101AF0000CE06CE0262E312C412C512C5DCCB3E057
:101B0000CB2E159A11110C94A61560E084E00E946A
:101B100020288EE093E00E946E2861E080E00E9421
:101B200020288FE70E943F2880EB92E00E946E28D9
:101B300030919105323011F00C946A163091900575
:101B4000323011F40C94971D0E9430283091910589
:101B500011E00BE0ABE02A2E312C412C512C2CCC87
:101B600063E0C62E159A11112BC760E082E00E9437
:101B7000202882E893E00E946E2861E080E00E94C5
:101B800020288FE70E943F288DE591E00E946E2873
:101B900030919105323011F00C946E163091900511
:101BA000323011F40C94B8200E9430283091910505
:101BB00011E00AE05AE0252E312C412C512CFCCBAF
:101BC000F3E0CF2E159A1111ADC660E081E00E94BE
:101BD00020288FEB92E00E946E2861E080E00E9456
:101BE00020288FE70E943F288DE591E00E946E2813
:101BF00030919105323011F00C946C1630919005B3
:101C0000323011F40C9415260E9430283091910541
:101C100011E009E0E9E02E2E312C412C512CCCCBE7
:101C200033E0C32E159A112311F40C947016809191
:101C30008E0590E08331910508F4BDC561E080E038
:101C40000E94202880E292E00E946E2861E081E0FC
:101C50000E942028AAA5BBA58C9187FF02C00C94E6
:101C600019208F710E94702B00E030919105323065
:101C700011F40C94881910F40C946519333011F494
:101C80000C9496173430C9F4409104015091050129
:101C900080910601909107014817590770F0EAA555
:101CA000FBA58081982F9F7111F40C94F121815034
:101CB0008083109205011092040107E097E0292E1D
:101CC000312C412C512C78CBE3E0CE2E111119C7C9
:101CD00060E082E00E9420288091920580FF02C08F
:101CE0000C943317DE1411F40C947B1D8CE491E0FA
:101CF0000E946E28159A61E081E00E9420280E94CF
:101D0000DF2F0E947C3160E087E00E9420283FA8FE
:101D1000332011F40C943A1780910B01881F882707
:101D2000881F94E0981B892F0E943F2861E087E07C
:101D30000E94202848AC442011F40C94881780910C
:101D40000A01881F8827881F94E0981B892F0E940A
:101D50003F2861E080E00E9420288091850582FD77
:101D600002C00C945B1787E00E943F2830919105D8
:101D7000323011F40C946417333010F40C943D1786
:101D8000333011F40C948727343011F00C948427ED
:101D900080919005843011F40C94821780910A018F
:101DA00086FD02C00C94762782E02DA428262DA65D
:101DB00000E0212C312C21012DA521702FAB4DA548
:101DC000427048AF10E0F8CA53E0C52E0E94302898
:101DD0003091910500E0EBCA03E0C02E159A112363
:101DE00011F40C9427189E012B5E3F4F00E029014F
:101DF00060E0A2E0FA2EF00E8F2D0E942028D20182
:101E00008D912D01805D0E943F2861E08F2D0E9401
:101E100020282BAC021511F40C941A1F80E20E94AA
:101E20003F280F5F043021F730919105323011F4D3
:101E30000C94281910F40C940E19333011F40C94EE
:101E4000F718343089F540910401509105018091D3
:101E50000601909107014817590730F12BAC21106A
:101E60000C94CE278D8981110C94CE2783E48D8B21
:101E70002E898F893AE0839FC001112444E6249F74
:101E8000800D911D1124288D820F911D80389105A0
:101E900034F081E08E8B82E08F8B87E0888F34E096
:101EA000109205011092040105E0F5E02F2E312C6F
:101EB000412C512C81CA33E0C32E159A60E080E09A
:101EC000111186C30E942028033011F40C946E1A5D
:101ED0008AEA91E00E946E288FEA91E00E946E28C3
:101EE00061E080E00E9420288AAD0E94702B84EB84
:101EF00091E00E946E28E0906D08F0906E082696A2
:101F00008EAD9FAD26979695982F882797958795A4
:101F100090936E0880936D080E940B3697FF02C065
:101F20000C948B17803127E2920710F08FE097E234
:101F30000E94562CF0926E08E0926D083091910547
:101F4000333011F40C94081C343011F40C94F31B4E
:101F5000323011F40C945227313009F48EC2202E05
:101F6000312C10E029CA43E0C42E159A60E080E0CD
:101F70000E9420280E94ED2E813011F40C94E91764
:101F800010F40C94E317823011F40C94CA178330C8
:101F900021F487E991E00E946E2861E080E00E94D0
:101FA00020280E94ED2E882309F4DDC7843020F418
:101FB0008EE991E00E946E280E94D32E3091910507
:101FC000333009F4DBC7343011F40C94771A323013
:101FD00009F49DC002E0EBC9159A60E080E00E9420
:101FE00020288FE591E00E946E2861E080E00E9449
:101FF000202861E0C61611F40C94E518C61608F402
:10200000CAC673E07C1520F080E791E00E946E283C
:1020100030919105323009F4C8C6333010F40C9475
:10202000ED18333009F4CDC6343009F0C7C28091C1
:102030000C0187FF02C00C94A7272CA82110BCC25A
:1020400082E38093840575E0C72E01E0B0C903E008
:10205000C02E159A1111C5C560E083E00E942028AA
:102060008AEA92E00E946E2861E080E00E942028C7
:102070008FE70E943F2880EB92E00E946E2830910B
:102080009105323009F011C630919005323011F4CB
:102090000C941D260E9430283091910511E008E033
:1020A000B8E02B2E312C412C512C86C973E0C72E61
:1020B000159A60E01111DAC283E00E94202881EFB6
:1020C00091E00E946E2861E080E00E9420288FE766
:1020D0000E943F2887EF91E00E946E283091910581
:1020E000323011F00C94741A30919005323011F4A2
:1020F0000C94F41C0E943028309191051CAE11E024
:1021000006E066E0262E312C412C512C55C90FE0FB
:102110004EC980911C0180FFB1C081E08093780896
:1021200070C96CA5862F90E08C30910508F0F9C835
:10213000FC01EE58FF4F0C94B135809185058F7EE0
:10214000809385059BE09CA7ECC880915F06EF2DEE
:10215000F0E060911D010E94913590E0019634E11C
:10216000389FB001399F700D1124E617F7070CF066
:10217000D8C81CA6D6C880915F06EF2DF0E060910C
:102180001D010E94913590E0019634E1389FB00125
:10219000399F700D1124E617F7070CF04ACBC1C820
:1021A0008091850580618093850582E08CA7B9C800
:1021B00080918505877F8093850571E07CA7B1C8F4
:1021C000809185058860809385053FCB8FB7F89413
:1021D0006091B0077091B107709396056093950573
:1021E0008FBFFFC9D12C1CAACBC8ACA92796BFAD05
:1021F0002797AB13E6C92EA53FA548A959A92C9648
:102200006CAD7DAD8EAD9FAD2C9726173707480777
:10221000590709F0D6C93091920591E080E02896DF
:102220007FAD2897731711F40C94FB21E92EF82E3B
:10223000CBC930910C0137FD54C93F71B501A401E0
:1022400004C0440F551F661F771F3A95D2F7842BA1
:10225000952BA62BB72B45C90E943201B6C83091E9
:102260000D0137FD3EC9E9CF0E94483020E122161A
:10227000310408F4DEC0F3E0CF2E97C8109278083E
:10228000C0C8809192058E7F80939205E090B2073E
:10229000F12C0C9474093091140137FD0EC03F717C
:1022A000B501A40104C0440F551F661F771F3A955E
:1022B000D2F7842B952BA62BB72B3091130137FD2A
:1022C00052C93F71B501A40104C0440F551F661FD8
:1022D000771F3A95D2F7842B952BA62BB72B43C9A2
:1022E0003091990537FD33C93F71B501A40104C090
:1022F000440F551F661F771F3A95D2F7842B952BF5
:10230000A62BB72BA8953091B705323009F025C917
:102310003091120137FD27C9D4CF3091120137FD1A
:102320000EC03F71B501A40104C0440F551F661FC4
:10233000771F3A95D2F7842B952BA62BB72B30918C
:10234000110137FD10C9BDCF3091170137FD0EC007
:102350003F71B501A40104C0440F551F661F771FCC
:102360003A95D2F7842B952BA62BB72B30911601DB
:1023700037FDEDC8B9CF3091990537FD0EC03F71DB
:10238000B501A40104C0440F551F661F771F3A957D
:10239000D2F7842B952BA62BB72B3091150137FD47
:1023A000D6C8A2CF7CA9772309F45ECF0E9448301B
:1023B00030E12316310410F00C94D509F101E258F4
:1023C000FF4F0C94B135ECA5EC3010F00C94910952
:1023D00080918505886080938505632F70E0E42FE8
:1023E000F0E080916F08863008F4D3C090E0059744
:1023F0008E179F070CF4CF01681779070CF4BDCA3C
:102400000C949109809184058111B6C00E944830D6
:10241000F0E12F16310408F4BFC0C12C0C94D5098B
:10242000DD2009F4CEC090911C0194FD60CAE82E15
:1024300065CAF101E257FF4F0C94B135159A60E07F
:1024400080E00E9420288FE591E00E946E2861E0E4
:1024500080E00E94202883E0C82ED6CD809185059B
:10246000877E80938505341708F41ACA80916F0817
:10247000381708F0DEC90C9491093091900531307D
:10248000D9F10E94302881E0800F1092050110924E
:10249000040190919E0591FD04C08D3011F40C94BF
:1024A000531A90FF84C19FEF980F933008F47FC1B7
:1024B000853011F40C941420863011F40C940F2004
:1024C0008A30A9F40C940A2001E0080F833010F43C
:1024D0000C94E11B053011F40C941420063011F417
:1024E0000C940F200A3011F40C940A20802F8F30A6
:1024F00059F7309191050FE0409104015091050189
:10250000809106019091070110E04817590710F4D7
:102510000C94DA090FE09FE0292E312C412C512C2C
:102520000C94DC090E943028289885B1866085B912
:1025300085B1806F85B90E94DC2C63B1667F8BA961
:102540000E941F0163B1667F0E941F0163B1667F15
:102550000E941F0163B1667F0E941F018BAB0E9426
:102560008E028BA90E94E5028091910580939005CF
:102570000E94C4300C943E090E94483050E1251658
:10258000310410F00C94D509F101E256FF4F0C9480
:10259000B13580E090E02CCFF101E255FF4F0C9473
:1025A000B135A8950E943C338FB7F8949091010102
:1025B000909394058FBF43C824E0C22E01E00C9491
:1025C000D709E12C9BC9EE24E39481E00C94BC096B
:1025D0000E94202887EB91E00E946E2861E080E055
:1025E0000E942028033009F494C787EC91E00E94F0
:1025F0006E288EE70E943F2830919105313009F412
:102600005DC6343011F00C94DC0930919005343003
:1026100011F40C94DC090E94302860E080E00E94F4
:102620002028033009F491C787ED91E00E946E28BD
:102630006AAD8FE10E9471060E948C0361E080E028
:102640000E94202818E081E090E00E94C52B8EE2D5
:102650000E943F281150B9F783E090E00E94C52BFB
:102660000E943028309191050FE076CC80E00E94E6
:10267000202880E292E00E946E288CAD0E94702B90
:1026800060E085E00E9420282CACE22C80918A0535
:1026900090918B05A0918C05B0918D0504C0B695E5
:1026A000A795979587952A94D2F780FD2DC780919D
:1026B000860590918705A0918805B09189050CAC9D
:1026C00004C0B695A795979587950A94D2F780FF91
:1026D00086C38EE192E00E946E28309191053230DF
:1026E00009F486C3333008F494C4333011F40C94E5
:1026F0004D1F343009F053C0409104015091050141
:1027000080910601909107014817590708F447C0C6
:102710008091860590918705A0918805B0918905E3
:10272000AC01BD010E2C04C0769567955795479571
:102730000A94D2F740FF85C7B501A40104C0440F35
:10274000551F661F771FEA94D2F71A012B012094B8
:1027500030944094509482219321A421B5218093F8
:10276000860590938705A0938805B093890580918D
:102770008A0590918B05A0918C05B0918D05482B11
:10278000592B6A2B7B2B40938A0550938B056093C2
:102790008C0570938D05109205011092040106E0DE
:1027A00056E0252E312C412C512C0C94DC09309113
:1027B0009105082FA1CEFC01E254FF4F60E080E0BC
:1027C0000C94B135159A60E080E00E942028113009
:1027D00011F40C941F1E123011F40C94061E1330C9
:1027E00011F40C94EA1D143011F40C949F1D153053
:1027F00011F40C94C21C163011F40C94261C08E041
:1028000011E030919105323011F40C94491C3330B1
:1028100008F4C6C3333011F40C94D31C343009F0DF
:10282000CAC3409104015091050180910601909125
:1028300007014817590708F4BEC3083010F00C947C
:10284000111D81E090E001C0880F0A95EAF780959C
:10285000F3019081892380830CE08CE0282E312CB9
:10286000412C512C0C94DC098FB7F89410929805E8
:10287000109297058FBF5091920528965FAF2897C9
:1028800080919C05898380919D058A838FE08B834D
:1028900083E58E8380919A0590919B059F8388871D
:1028A0008091920580FF49C281E0898781E0D81636
:1028B00049F092E0D91609F446C22496AFAD2497A8
:1028C000A13039F4898580688987B1E02496BFAF4B
:1028D0002497F9A9FA8728A92B873FA53C874EA5FD
:1028E0004D87809192058E870E94DE308F874B81C5
:1028F000BE016F5F7F4F8FE798E00E94F1342EA5F5
:102900003FA548A959A92C962CAF3DAF4EAF5FAF5C
:102910002C972296DFAE22973CA927963FAF2797A8
:102920000C94140B159A60E080E00E94202811306E
:1029300011F40C948520123011F40C946E20133095
:1029400011F40C943820143011F40C94312015300B
:1029500009F414C708E011E030919105323009F410
:10296000DEC608F43CC3333011F40C942A1F343013
:1029700011F00C94C32740910401509105018091FE
:102980000601909107014817590710F40C94C327CA
:10299000083010F00C94972781E090E001C0880F78
:1029A0000A95EAF78095ADA9BEA99C9189238C93DD
:1029B00009E069E0262E312C412C512C0C94DC09C5
:1029C000159A60E080E00E9420280E948F31F82E46
:1029D0008B8F0E949231E82E8A8F0E949531582E5B
:1029E000898F113011F40C945822123011F40C9488
:1029F0003922133011F40C942922143011F40C9460
:102A00001722153011F40C94FB2008E011E03091EE
:102A10009105323011F40C94C82008F49BC1333076
:102A200011F40C942A213430D1F4409104015091D6
:102A3000050180910601909107014817590778F028
:102A4000083010F00C94D92381E090E001C0880F89
:102A50000A95EAF78095F3019081892380830AE043
:102A60000C94D709159A60E080E00E94202811306C
:102A700011F40C941F23123011F40C941123133011
:102A800011F40C94FB22143011F40C94E52250E75D
:102A9000E52E58E0F52E6BEB462E65E0562E11E044
:102AA00060E087E00E942028D7018C918F3F11F4CD
:102AB0000C947322F2019081981708F049C183E0C9
:102AC0000E943F2861E085E00E942028D2018C917D
:102AD00090E00E94082930919105323011F40C9455
:102AE0009622333011F40C947822313011F40C9486
:102AF000F0230DE08DE0282E312C412C512C0C942C
:102B0000DC09159A60E080E00E94202881E591E0D0
:102B10000E946E2861E080E00E94202887E591E015
:102B20000E946E288EE70E943F2830919105332342
:102B300009F49EC0313009F0A1C00E9430283091C4
:102B400091050FEF23961FAE239706CA159A60E0F2
:102B500080E00E942028113011F40C94A62112303C
:102B600011F40C94C625133011F40C94AC2511E02B
:102B700030919105323011F40C94BC21333008F4BB
:102B800096C0333011F40C94F325343009F09AC018
:102B90004091040150910501809106019091070137
:102BA0004817590708F48EC0EDADFEAD808188232B
:102BB00011F08150808389A1803310F480E389A3D0
:102BC00088A1803D10F480ED88A310920501109239
:102BD00004010BE0FBE02F2E312C412C512C0C94E6
:102BE000DC09159A60E080E00E94202888EB92E0E2
:102BF0000E946E2880E3810F0E943F2861E080E000
:102C00000E942028812F90E09C012C59374F790198
:102C1000D9018C9190E00E94F329309191053230D6
:102C200011F40C947F2580F1333009F451C734300E
:102C3000B9F44091040150910501809106019091F1
:102C400007014817590760F0F7018081823010F4BE
:102C50000C94A825815080831092050110920401E4
:102C600008E0A8E02A2E312C412C512C0C94DC09D0
:102C700080919005843011F40C94E12700E0212C20
:102C8000312C21010C94DC09313051F73091900541
:102C9000313031F31F5F193008F011E00E94302805
:102CA0003091910508E00C94D70908E055C93130FE
:102CB00049F430919005313029F01F5F0E9430288F
:102CC000309191050BE0EBE02E2E312C412C512C54
:102CD0000C94DC090BE040C909E03EC90AE03CC99C
:102CE00060E082E00E94202883E092E00E946E284B
:102CF00061E080E00E9420288FE70E943F2887EF54
:102D000091E00E946E2830919105323009F057C051
:102D100030919005323011F40C94C02010928E0541
:102D20000E9430283091910511E007E027E0222E23
:102D3000312C412C512C0C94DC096CA961110C94A0
:102D400069221986B3CDE2E02496EFAF2497C1CD76
:102D500084E0B6CE313009F082CE3091900531302A
:102D600009F47DCE1F5F0E943028309191050AE062
:102D70000C94D7090E94D92B0C94880B159A60E00B
:102D800080E00E9420288FE591E00E946E2861E09B
:102D900080E00E94202887E691E00E946E28C12CE6
:102DA00030919105323009F038C90FE064E0362ED9
:102DB000C3100C94D70953E0C52E0C94D70907E033
:102DC000CBC880910C0187FD6AC4C110F7CB82E3A8
:102DD00080938405CC24C39401E00C94D7098FEF31
:102DE00091E00E946E2830919105323009F07ACC42
:102DF00030919005323009F4D2CC40918A0550913F
:102E00008B0560918C0570918D0580916D08909176
:102E10006E0848960E942936409186055091870594
:102E2000609188057091890580916D0890916E0878
:102E30004C960E9429360E948C030E94302860E044
:102E400081E00E9420288AEE91E00E946E2887E0AF
:102E500090E00E94C52B0E9430283091910506E039
:102E60007BC80DE079C887E491E00E946E28159A2E
:102E70000C947B0E83E00C94940E31110C948427F7
:102E800080910B0186FD03C02DA52E7F2DA780917B
:102E90000A0186FF02C00C946A274DA54D7F4DA7FD
:102EA00000E0212C312C210141704FAB5DA5527007
:102EB00058AF0C94E20E80E20E943F2830919105B9
:102EC000323011F00C94BC0E80919005823069F084
:102ED00081E023962FAC2397211080E023968FAFBB
:102EE0002397109205011092040140910401509122
:102EF000050180910601909107014817590710F0CC
:102F00000C945F2700E0212C312C21010C94E20E5F
:102F100083E00C94A70EAC015F774038510510F4A4
:102F20000C94980F8FE790E80C94980F409104014F
:102F300050910501809106019091070148175907AA
:102F400010F40C945D0EEAA5FBA5808187FD60C599
:102F5000982F9F719C3108F04FC58F5FAAA5BBA524
:102F60008C930C94590E80E691E00E946E280E948A
:102F7000D32E30919105333009F025C8309190055A
:102F8000333009F427C80E94F02E3091910502E0F9
:102F90000C94D70980E991E00E946E280C94CD0F23
:102FA000313049F430919005313029F01F5F0E9493
:102FB0003028309191050CE07CE0272E312C412CFB
:102FC000512C0C94DC0982E891E00E946E280C944C
:102FD000CD0F89E891E00E946E280C94CD0F31301E
:102FE00011F00C94C32730919005313011F40C94FA
:102FF000C32701E0010F9FEF910F923010F40C9462
:10300000AB270E94302830919105102F09E00C94D5
:10301000D709313009F0C3CB30919005313009F434
:10302000BECB9CAD9F5F9CAF9D3108F01CAE109253
:103030000501109204010E9430283091910506E0AC
:1030400046E0242E312C412C512C0C94DC0960E0FC
:1030500085E00E9420288EED91E00E946E2861E0BC
:1030600080E00E9420288FE70E943F2882EE91E0B6
:103070000E946E2830919105323009F02CC23091B7
:103080009005323009F4DCC740919A0550919B05B8
:1030900057FD7CC29A01369527953695279536952A
:1030A0002795A5ECB0E20E94BA35FC01F295E295B5
:1030B000EF70EF27FF70EF279F01ADECBCEC0E9493
:1030C000BA359695879596958795969587959C019F
:1030D000220F331F880F991F880F991F880F991F80
:1030E000820F931FE81BF90BED8B9A0136952795FC
:1030F00036952795ABE7B4E10E94BA35FC01F69509
:10310000E7959F01ADECBCEC0E94BA35969587958A
:1031100096958795969587959C01220F331F880F6A
:10312000991F880F991F880F991F820F931FE81B03
:10313000F90BEE8B9A010E94BA35FC01F695E795E2
:10314000F695E795F695E7959F010E94BA35969515
:10315000879596958795969587959C01220F331FA5
:10316000880F991F880F991F880F991F820F931F2F
:103170002F01481A590A4F8ACF01880F991FEE0F65
:10318000FF1FEE0FFF1FEE0FFF1F8E0F9F1F481B2D
:10319000590B488F0E943028309191051BAE11E0E9
:1031A00005E0B5E02B2E312C412C512C0C94DC0980
:1031B000159A60E080E00E9420288FE591E00E944F
:1031C0006E2861E080E00E94202889E791E00E945B
:1031D0006E28CC24C3940C940810313009F0EEC949
:1031E00001E064E0362EC3100C94D709E4CD409181
:1031F0000401509105018091060190910701481743
:10320000590710F40C94540F3BAC31107BC28D89DC
:103210008A3008F449C21D8A0C94500F313011F0E5
:103220000C94540F80919005813011F40C94540F3C
:10323000EBADEF5FEBAFE43010F40C94540F1BAE2A
:1032400005E0E5E02E2E312C412C512C0C94DC09AC
:1032500030919005323011F40C94540F8D898A30DE
:1032600008F45CC18E896F895AE0659FB001112412
:1032700094E6899F600D711D1124888D680F711D62
:10328000706880916D0890916E080E9431360E949E
:103290008C030E94302860E081E00E9420288AEEA2
:1032A00091E00E946E2887E090E00E94C52B0E946A
:1032B00030283091910505E00C94AC0F01500E942C
:1032C0003028309191050C94AC0F313011F00C94F2
:1032D0005D0E30919005313011F40C945D0E8091AB
:1032E0008E058F5F80938E05833110F010928E05CE
:1032F00010920501109204010E943028309191052E
:1033000007E087E0282E312C412C512C0C94DC094D
:1033100030919005323011F40C945D0E80916D085F
:1033200090916E086091190102960E941B3680915F
:103330006D0890916E086091180103960E941B36EB
:1033400080916D0890916E086091170108960E9417
:103350001B3680916D0890916E0860911601099658
:103360000E941B3680916D0890916E0860919905BE
:103370000A960E941B3680916D0890916E086091AC
:1033800015010B960E941B3680916D0890916E0876
:10339000609114010C960E941B3680916D089091EB
:1033A0006E08609113010D960E941B3680916D0886
:1033B00090916E08609112010E960E941B368091CA
:1033C0006D0890916E08609111010F960E941B3656
:1033D00080916D0890916E086091100104960E9492
:1033E0001B3680916D0890916E0860910F01439695
:1033F0000E941B3680916D0890916E0860910E01BD
:1034000005960E941B3680916D0890916E08609120
:103410000D0106960E941B3680916D0890916E08F2
:1034200060910C0107960E941B3680916D08909167
:103430006E0860910B0140960E941B3680916D08CA
:1034400090916E0860910A0141960E941B3680910E
:103450006D0890916E086091090142960E941B369A
:1034600080916D0890916E086091080144960E94C9
:103470001B360E948C030E94302860E081E00E948D
:1034800020288AEE91E00E946E2887E090E00E945A
:10349000C52B0E9430283091910507E00C94AC0FA9
:1034A0000CE00C94AC0F309170083F3F09F4D0C58C
:1034B00030916F083F3F09F4CBC5309176083F3F0C
:1034C00009F4C6C53091B2073F3F09F4C1C582E097
:1034D000800F0C94511205E00C94AC0F85EA91E03A
:1034E0000E946E280C946C0F06E00C94AC0F309187
:1034F0009005343011F40C94EA0F0E94FC2E3091A8
:10350000910502E00C94D70989E292E00E946E28AE
:10351000E4C88FEB91E00E946E286BC84E899F89AA
:1035200028EE33E0829FB001839F700D1124A4E642
:103530004A9F600D711D1124BAE09B9F600D711DA3
:103540001124888D680F711D9CCE8FEC91E00E9434
:103550006E286FE18AAD0E9471066EC8C12C0C9472
:10356000810DC12C0C94B20DC12C0C94E20DC12C18
:103570000C942910C12C0C94120EC12C0C945810D0
:10358000C12C0C94EE0EC12C0C945D0F83E48D8B3A
:10359000FA01FF779F013695279536952795ABE77A
:1035A000B4E10E94BA35AC01569547959A01ADEC4D
:1035B000BCEC0E94BA359695879596958795969519
:1035C00087959C01220F331F880F991F880F991F21
:1035D000880F991F820F931F481B590B4E8B9F0119
:1035E0000E94BA35AC015695479556954795569524
:1035F00047959A010E94BA35969587959695879535
:10360000969587959C01220F331F880F991F880F6D
:10361000991F880F991F820F931F1A01281A390AC0
:103620002F8ACA01880F991F440F551F440F551F39
:10363000440F551F840F951FAF01481B590B488F2E
:10364000A9CDB501A40104C0440F551F661F771F03
:10365000EA94D2F740955095609570958423952310
:10366000A623B7238093860590938705A0938805AA
:10367000B093890580918A0590918B05A0918C0566
:10368000B0918D05482359236A237B2340938A05F3
:1036900050938B0560938C0570938D057CC842E038
:1036A000C42E01E00C94D709893011F40C94500F0A
:1036B00040E050E0E5E1F0E0EC0FFD1FE40FF51F06
:1036C0008F5F80838D898A3010F40C94500F2E897F
:1036D0008F894AE0849FC001112454E6259F800D04
:1036E000911D1124288D820F911D8038910514F4AD
:1036F0000C94500F81E08E8B82E08F8B87E0888F57
:103700000C94500F4BAC442D50E0E5E1F0E0EC0F91
:10371000FD1FE40FF51F80818930A0F6CBCF3091DB
:103720009005323011F40C94C32780916D0890916C
:103730006E0860911D0146960E941B3680916D08AF
:1037400090916E0860911B0147960E941B360E9463
:103750008C030E94302860E081E00E9420288AEEDD
:1037600091E00E946E2887E090E00E94C52B0E94A5
:1037700030283091910509E00C94AC0F8FE392E072
:103780000E946E2831E001E061E085E02D963FAFB8
:103790002D970E94202880911B0190E02D963FAD2F
:1037A0002D9702C0959587953A95E2F780FF45C021
:1037B0008EE793E00E946E286BE171E07EAB6DAB0B
:1037C000CBC8309191050C947C12C12C0C94B50F90
:1037D000C12C0C94660EC12C0E94302830919105AA
:1037E00000E00C94D70980919005843011F40C947A
:1037F000E20E8AAD813011F40C94E20E81508AAF52
:10380000A82FB0E02696BFAFAEAF26970C94E20E7D
:1038100080919005833011F40C94E20E4AAD44314E
:1038200010F00C94E20E4F5F4AAF642F70E02696C2
:103830007FAF6EAF26970C94E20E8EE192E00E946D
:103840006E288BE191E09EAB8DAB86C884E793E058
:103850000E946E2844E0F42E04E061E084E00E94BF
:10386000202880911C0190E002C095958795FA94DC
:10387000E2F780FF8EC08DE793E00E946E283CE166
:10388000632E31E0732E30919105323011F00C949B
:10389000071430919005323009F48DCB6E8D81E1A3
:1038A00090E00E941B368D8D880F682F660F660F83
:1038B000680F82E190E00E941B3660911C0183E159
:1038C00090E00E941B36609101018DE190E00E9422
:1038D0001B368C8DBAE08B9FC0011124909303019D
:1038E00080930201692F82E090E00E941B36609174
:1038F000020183E090E00E941B360E948C0320911D
:10390000B0073091B10736952795369527953695AE
:103910002795AFE4BBE10E94BA35969587959695B9
:103920008795969587958E8F0E94BC309DEC899FD8
:10393000812D11248695869586958D8F2091020183
:1039400030910301ADECBCEC0E94BA359695879599
:1039500096958795969587958C8F0E94302860E084
:1039600081E00E9420288AEE91E00E946E2887E084
:1039700090E00E94C52B0E943028309191050CE008
:103980000C94AC0F8BE693E00E946E28F12C00E0C3
:1039900064CF8DE192E00E946E282CE1622E21E03E
:1039A000722E0C94011440910401509105018091F4
:1039B0000601909107014817590708F4FCCA08301E
:1039C00008F061C081E090E001C0880F0A95EAF735
:1039D000F3019081892B80830CE09CE0292E312C0F
:1039E000412C512C0C94DC0906E0A6E02A2E312C47
:1039F000412C512C0C94E20E982F9074002359F016
:103A000086FD09C080E4EAA5FBA580830C94590ECD
:103A100010820C94590E945EAAA5BBA59C930C949D
:103A2000590E28A439A46214730441F121E06216EE
:103A300021E0720619F1D3018C91823010F081508F
:103A40008C93809101018A3018F48AE080930101FF
:103A50008E8D811102C081E08E8F8D8D811102C00B
:103A600081E08D8F10920501109204010CE0BCE002
:103A70002B2E312C412C512C0C94DC0980919E056D
:103A800081FF99CAD8CF28A439A462147304D9F04D
:103A900021E0621621E07206B1F0D3018C918F3FD4
:103AA00011F08F5F8C938C8D8B3010F08AE08C8FAF
:103AB0008E8D843610F083E68E8F8D8D8A3190F254
:103AC00089E18D8FCFCF80919E0581FF74CAE5CFAC
:103AD00040910401509105018091060190910701E8
:103AE0004817590708F4BCC8F70180818E3788F45D
:103AF0008F5F8083B1C880919A0590919B050E9449
:103B0000562C23962FAC2397222031F0159A0C9433
:103B10007B0E8EE78083A0C815980C947B0E0CE07A
:103B20004CE0242E312C412C512C0C94E20E0BE055
:103B30005BE0252E312C412C512C0C94E20E82E6B8
:103B400093E00E946E2861E087E00E94202881EEC9
:103B500092E00E946E2861E083E00E94202880911C
:103B6000010199E2899F812D112482958F70805DDA
:103B70000E943F288EE20E943F28809101010DECB7
:103B8000809F812D1124869586958695809F912D05
:103B900011249695969596957AE0979F8019112411
:103BA000805D0E943F2890910101909F812D1124FA
:103BB000869586958695AAE08A9F90191124892F6B
:103BC000805D0E943F280FEF51E0652E51E0752E79
:103BD0000C94011489E593E00E946E2861E087E06F
:103BE0000E94202881EE92E00E946E28BE01645E51
:103BF0007F4F3B0161E084E00E942028D3018C913B
:103C000090E00E9472290FEF0C9401148CE493E071
:103C10000E946E2861E080E00E94202884E593E005
:103C20000E946E2861E087E00E94202881EE92E0E9
:103C30000E946E28AE01435E5F4F3A01DBCF81E404
:103C400093E00E946E2861E080E00E94202887E4D3
:103C500093E00E946E2861E087E00E94202887E8B8
:103C600093E00E946E289E01225E3F4F3901C2CF31
:103C70000E94202882E892E00E946E2861E171E0B3
:103C80007BA76AA70C941E0E0E9420288BE792E067
:103C90000E946E2842E151E05BA74AA70C941E0ED9
:103CA0000E94202881E592E00E946E2866E171E082
:103CB0007BA76AA70C941E0E0E94202888E492E03D
:103CC0000E946E2847E151E05BA74AA70C941E0EA4
:103CD0000E94202881E692E00E946E28A5E1B1E0D2
:103CE000BBA7AAA70C941E0E0E9420288AE592E08A
:103CF0000E946E2889E995E09BA78AA70C941E0E66
:103D00000E9420288FE392E00E946E2828E031E094
:103D10003BA72AA70C941E0E0E94202886E392E05F
:103D20000E946E28E9E0F1E0FBA7EAA70C941E0EC2
:103D30000E9420288DE292E00E946E28ACE0B1E063
:103D4000BBA7AAA70C941E0E0E94202886E292E030
:103D50000E946E288DE091E09BA78AA70C941E0E0E
:103D60000E94202882E292E00E946E286EE071E0BC
:103D70007BA76AA70C941E0E0E9420288AE192E07D
:103D80000E946E284FE051E05BA74AA70C941E0EDC
:103D90000E94202884E192E00E946E2820E131E018
:103DA0003BA72AA70C941E0E0E9420288FE092E0C9
:103DB0000E946E28E8E1F1E0FBA7EAA70C941E0E32
:103DC0000E9420288AE092E00E946E28A9E1B1E0DA
:103DD000BBA7AAA70C941E0E0E94202881E992E09E
:103DE0000E946E28AAE0B1E0BBA7AAA761E080E02C
:103DF0000E94202880E292E00E946E2861E081E02B
:103E00000E942028AAA5BBA58C9187FDAFC18F7108
:103E10000E94702B61E085E00E942028EAA5FBA5A6
:103E2000808186FF9CC182EA92E00E946E2801E0B8
:103E30000C94350E8EE50E943F280C94110F0E94C1
:103E400020288AE892E00E946E288BE091E09BA7F0
:103E50008AA7CCCF409104015091050180910601C1
:103E6000909107014817590710F40C94C3270830A4
:103E700008F06FC081E090E001C0880F0A95EAF772
:103E8000ADA9BEA99C91892B8C9309E079E0272EDE
:103E9000312C412C512C0C94DC094091040150919F
:103EA000050180910601909107014817590710F408
:103EB0000C94CF1340918A0550918B0560918C052D
:103EC00070918D05DB01CA010E2C04C0B695A79533
:103ED000979587950A94D2F780FF55C08091860503
:103EE00090918705A0918805B0918905140125015D
:103EF00004C0220C331C441C551CEA94D2F7619672
:103F00002CAE3DAE4EAE5FAE61972094309440949F
:103F10005094422153216421752140938A05509386
:103F20008B0560938C0570938D0561964CAD5DADEE
:103F30006EAD7FAD6197842B952BA62BB72B80930D
:103F4000860590938705A0938805B09389050C9406
:103F5000CB13EDA9FEA980818F3F11F08F5F808385
:103F600080911D018B3018F08AE080931D01109222
:103F700005011092040109E059E0252E312C412C55
:103F8000512C0C94DC098091860590918705A091B5
:103F90008805B09189051C012D010E2C04C0569492
:103FA0004794379427940A94D2F720FC9FCF1401AA
:103FB000250104C0220C331C441C551CEA94D2F782
:103FC00061962CAE3DAE4EAE5FAE619720943094BC
:103FD0004094509482219321A421B5218093860599
:103FE00090938705A0938805B093890561968CAD61
:103FF0009DADAEADBFAD6197482B592B6A2B7B2B86
:1040000040938A0550938B0560938C0570938D05C2
:104010000C94CB13309191050AE00C947C123091F2
:10402000910506E00C947C123091910505E00C940A
:104030007C1200E08AE992E00E946E280C94350E12
:1040400005E0B5E02B2E312C412C512C0C94E20EC6
:1040500090FF02C00C946412309191050DE00C9415
:104060007C1283EE92E00E946E2830E000E08CCB60
:1040700088ED92E00E946E2861E087E00E9420288F
:1040800081EE92E00E946E2861E084E00E94202888
:1040900080911D010DEC809F812D112486958695C0
:1040A0008695805D0E943F288EE20E943F28909175
:1040B0001D01909F812D1124869586958695BAE0E5
:1040C0008B9F90191124892F805D0E943F280FEF4C
:1040D000EDE1F1E0FEABEDAB0C94AC148FEC92E0B3
:1040E0000E946E2861E083E00E94202880911B01DD
:1040F00083FF12C08CEE92E00E946E2803E02BE159
:1041000031E03EAB2DAB0C94AC1487EC92E00E94F6
:104110006E2832E002E038CB82EF92E00E946E28F7
:1041200003E04BE151E05EAB4DAB0C94AC140E944C
:10413000202882E792E00E946E2823E131E03BA72D
:104140002AA70C941E0E0E94202889E692E00E9465
:104150006E28E4E1F1E0FBA7EAA70C941E0E86EAC4
:1041600092E00E946E2801E00C94350E01E062CFCF
:104170000AE02AE0222E312C412C512C0C94E20E24
:1041800007E0F7E02F2E312C412C512C0C94E20E3D
:1041900030919005323011F40C942F150E948F311C
:1041A000682F84E190E00E941B360E949231682FB4
:1041B00085E190E00E941B360E949531682F86E1D0
:1041C00090E00E941B360E948C030E94302860E021
:1041D00081E00E9420288AEE91E00E946E2887E00C
:1041E00090E00E94C52B0E9430283091910510E08C
:1041F0000AE00C94D7098DEA93E00E946E2861E0F2
:1042000087E00E9420288DE294E00E946E28F52C21
:10421000AE01475E5F4F3A0161E084E00E942028D2
:104220008DECF89EE12C11240E2D06950695069531
:1042300080E3800F0E943F288EE20E943F288F2D4E
:10424000BAE00B9F80191124805D0E943F280FEF78
:104250000C940715409104015091050180910601CD
:10426000909107014817590710F40C942F15083046
:10427000E8F581E090E001C0880F0A95EAF7D301E4
:104280009C91892B8C930AE00C94D709C12C159A28
:1042900011110C94E00C60E083E00E94202886EB72
:1042A00093E00E946E2861E080E00E9420288FE762
:1042B0000E943F288DE20E943F28309191053230C4
:1042C00009F050C330919005323009F443C30E9485
:1042D000D92B0E9430283091910511E00EE09EE02C
:1042E000292E312C412C512C0C94DC092EA03FA0FE
:1042F00062147304F1F04CA05DA064147504C9F05D
:104300002AA03BA062147304A1F0D3018C918F3FCB
:1043100011F08F5F8C93498D6A8D8B8D0E9498313F
:104320001092050110920401309191050AE00C945D
:10433000D70980919E0581FDE8CF0AE00C94D7094A
:10434000C12C0C94200DC12C0C94510D83E193E0F1
:104350000E946E2861E084E00E94202889A18F5E7F
:104360000E943F28FE01B196FEAFEDAF309191055E
:10437000323011F00C94BE1530919005323011F4AA
:104380000C94621669A180E090E00E941B3668A13F
:104390008FE190E00E941B366F8D8EE190E00E94CD
:1043A0001B360E948C0380919D0589A380919C05FA
:1043B00088A3809100018F8F0E94302860E081E007
:1043C0000E9420288AEE91E00E946E2887E090E00B
:1043D0000E94C52B0E943028309191050BE00C946F
:1043E000AC0F0023F1F086FF1CC08CE1AAA5BBA591
:1043F0008C930C94590E90E00C941611159A60E071
:1044000080E00E9420288FE591E00E946E2861E004
:1044100080E00E94202880E594E00E946E280C94A1
:10442000081080E8EAA5FBA580830C94590E84EA65
:1044300093E00E946E2861E087E00E9420288DE2D0
:1044400094E00E946E28FE2C9E01265E3F4F3901AB
:10445000E3CE8BE993E00E946E2861E087E00E9442
:1044600020288DE294E00E946E28FE017B963F0199
:10447000D3CE82E993E00E946E28EE24E39401E01B
:1044800061E084E00E94202880919E0590E002C0B7
:1044900095958795EA94E2F780FF11C08DE793E048
:1044A0000E946E284EE9642E45E0742E0C94071588
:1044B00089E893E00E946E28E12C00E0E1CF8DE1D5
:1044C00092E00E946E283EE9632E35E0732E0C9434
:1044D00007157CA9E72FF0E0EC59F74F80818F5F3B
:1044E00089870C9456148DE20E943F280C94621523
:1044F00080919005833011F40C947915B6E7EB1692
:10450000B8E0FB0609F454C0F2EBEF16F7E0FF0643
:1045100009F441C0F2018081D7018C930DE09DE048
:10452000292E312C412C512C0C94DC093091900512
:10453000323011F40C9479156091700880E290E0AB
:104540000E941B3660916F0881E290E00E941B364A
:104550006091760882E290E00E941B366091B2077B
:1045600083E290E00E941B360E948C030E94302858
:1045700060E081E00E9420288AEE91E00E946E288F
:1045800087E090E00E94C52B0E9430283091910571
:104590000DE00C94AC0FD2018C9185508093B20742
:1045A0000DE02DE0222E312C412C512C0C94DC09F5
:1045B000F20180818B5F809376080DE04DE0242E20
:1045C000312C412C512C0C94DC0984E192E00E94A6
:1045D0006E2861E080E00E94202889E093E00E943C
:1045E0006E2872EBE72E77E0F72EECEB4E2EE5E02F
:1045F0005E2E0C94501584E192E00E946E2861E0DA
:1046000080E00E9420288BE391E00E946E28F6E76C
:10461000EF2EF8E0FF2EACEB4A2EA5E05A2E0C94BC
:10462000501584E192E00E946E28BFE6EB2EB8E0C0
:10463000FB2E0CEB402E05E0502E0C9450158AE01A
:1046400092E00E946E2880E7E82E88E0F82E9BEB2F
:10465000492E95E0592E0C945015159A60E080E093
:104660000E94202885EE93E00E946E2861E080E0A1
:104670000E9420288BE50E943F2861E087E00E948D
:1046800020288DE50E943F2861E081E00E942028DB
:1046900080919F0590E0069667E070E00E949D354E
:1046A000F62E06E006C0FA948FEF0E943F280150D4
:1046B00039F0F110F8CF80E20E943F280150C9F78D
:1046C00030919105323009F444C0C0F0333069F1C3
:1046D000343061F480919005843041F08091640819
:1046E00081508093640829AC2110FAC10EE06EE07D
:1046F000262E312C412C512C0C94DC093130B1F791
:1047000030919005313091F31F5F0E94302885E091
:10471000809364083091910519AE0EE0EEE02E2EE4
:10472000312C412C512C0C94DC0980919005833064
:10473000E9F28091640881508093640849AD433068
:10474000A8F659AD5F5F59AF0E94302830919105AE
:10475000CDCF30919005323049F20E94072F0E9450
:1047600030283091910519AE0EE00C94AC0F159ADB
:1047700060E080E00E9420288FE294E00E946E2892
:1047800061E080E00E94202887E394E00E946E2888
:1047900080916408805D0E943F288EE70E943F2838
:1047A0008FCF0DE06DE0262E312C412C512C0C9436
:1047B000E20E2EA03FA062147304F9F04CA05DA09D
:1047C00064147504D1F02AA03BA062147304A9F00C
:1047D000D3018C91882309F49ECD81508C939BCD7D
:1047E00030919005313011F40C9479151F5F0E94BF
:1047F0003028309191050C94791580919E0581FDAA
:10480000E7CF0AE00C94D70929AC159A60E0211093
:10481000F0C085E00E9420283CA83110E5C089E462
:104820000E943F2860E080E00E942028809192054D
:1048300080FDBDC080911B018C708C3009F09AC046
:104840004CA4842D90E08C30910548F4FC01EF528B
:10485000FF4F0C94B13580ED93E00E946E2860E02C
:1048600087E00E94202855245394D51409F46EC083
:10487000D51408F467C022E0D21203C082E50E947A
:104880003F2861E082E00E9420288091850582FD1A
:1048900057C083E00E943F2861E084E00E94202806
:1048A0008091850581FD4AC080E20E943F2861E039
:1048B00085E00E9420288091850580FD3DC080E232
:1048C0000E943F2861E087E00E9420288091B9057E
:1048D000813071F1E8F08230B9F0833019F48AE266
:1048E0000E943F2861E080E00E9420288091B70567
:1048F0008130D1F0A8F0823079F0833009F0E0CE39
:104900008AE20E943F28DCCE82E40E943F28EACF60
:104910008DE20E943F28E6CF82E40E943F28D0CE5D
:104920008DE20E943F28CCCE84E40E943F28C8CE6E
:1049300084E40E943F28D6CF82E0C2CF81E0B5CF89
:1049400084E0A8CF8EE40E943F289BCF86E40E949B
:104950003F2897CF0EE09EE0292E312C412C512C80
:104960000C94E20E0EE00C94AC0F85ED93E00E94E7
:104970006E2875CF8091850583FD13C084FF0DC01F
:104980008AE20E943F288F2D843608F083E60E9439
:10499000442B85E20E943F2862CF83E00E943F289B
:1049A000F2CF84FF09C081E20E943F28ECCF87E468
:1049B00091E00E946E2853CF84E00E943F28E3CF0D
:1049C0008BEC93E00E946E284ACF86EC93E00E9425
:1049D0006E2845CF81EC93E00E946E2840CF8CEB8F
:1049E00093E00E946E283BCF8CA9805D0E943F28F7
:1049F00019CF80E00E9420288AED93E00E946E2863
:104A000061E080E00E94202889AD815D0E943F28FE
:104A10008EED93E00E946E2889AD880F8250182F8A
:104A2000110F110F180FE12C0DEC09C080E38E0D52
:104A30000E943F28E3948AE0382EE31431F1E09E8F
:104A4000612D112466956695862F880F880F860F35
:104A50003E2D381B832F8D5F0E9420288E2D810FC5
:104A60002EA43FA448A859A804C05694479437944C
:104A700027948A95D2F720FCD9CF80E20E943F2864
:104A8000E3948AE0382EE310DACF11E019CE159ABC
:104A900060E080E00E94202881E493E00E946E287C
:104AA00061E080E00E9420288FB7F894209195055E
:104AB000309196058FBFADECBCEC0E94BA3596954F
:104AC000879596958795969587950E94F32961E03D
:104AD00085E00E94202881EE93E00E946E28F0CDB0
:104AE00029AD215029AF0E943028309191050EE068
:104AF0007EE0272E312C412C512C0C94DC09309176
:104B00009005323011F40C94301660916D0870915C
:104B10006E08605E7F4F48E050E085E698E00E94B6
:104B200011360E948C030E94302860E081E00E94D0
:104B300020288AEE91E00E946E2887E090E00E9493
:104B4000C52B0E9430283091910508E00C94AC0FE1
:104B500081E080830C942C1685E293E00E946E28FD
:104B60000F8D61E082E0002389F10F3F11F10E9477
:104B7000202888E393E00E946E28802F0E94D4288A
:104B8000CE014F969EAF8DAF0C94B8158CE193E09B
:104B90000E946E2861E083E00E94202888A1805D49
:104BA0000E94702B9E01205E3F4F3EAF2DAF0C94B4
:104BB000B8150E94202883E393E00E946E28BE016E
:104BC000615E7F4F7EAF6DAF0C94B8150E942028B8
:104BD0008EE293E00E946E28AE01415E5F4F5EAFB1
:104BE0004DAF0C94B815409104015091050180918E
:104BF0000601909107014817590710F40C946216AA
:104C0000ADADBEAD8C918F3F11F08F5F8C9389A1BC
:104C10008A3410F089E489A388A1803F10F40C94B1
:104C2000E5158FEE88A30C94E51509E079E0272EB1
:104C3000312C412C512C0C94E20E08E0E8E02E2E91
:104C4000312C412C512C0C94E20E159A60E080E03E
:104C50000E94202886E294E00E946E2861E081E0B4
:104C60000E942028809174080E94D42880917308A3
:104C70000E94D428809172080E94D42821CD159AD0
:104C800060E080E00E9420288DE194E00E946E2880
:104C900061E080E00E94202883EB97E00E946E286C
:104CA0000FCD159A60E080E00E94202885E194E015
:104CB0000E946E2861E081E00E94202887EA0E941D
:104CC000D4288AE30E94D42885EE0E94D428F8CC08
:104CD000159A60E080E00E9420288DE094E00E9418
:104CE0006E2861E080E00E94202885E391E00E9428
:104CF0006E28E6CC159A60E080E00E9420288FE3C1
:104D000091E00E946E2861E081E00E9420280E94CC
:104D1000DE3090E062E370E00E949D35CB01FAE066
:104D2000EF2EF12CB7010E949D35805D0E943F2837
:104D30008EE20E943F280E94DE3090E065E070E045
:104D40000E949D35CB01B7010E949D35805D0E9478
:104D50003F280E94DE3090E0880F991FB7010E9423
:104D60009D35805D0E943F2886E50E943F28A8CCA3
:104D7000159A60E080E00E94202881E094E00E9483
:104D80006E2861E081E00E9420280E94BF30F82E4A
:104D900089E2F89E812D112482958F7009F44FC00D
:104DA000805D0E943F288DECF89EE12C1124E69452
:104DB000E694E694E89E812D112486958695869545
:104DC0003E2D2AE0829F30191124832F805D0E949E
:104DD0003F288EE20E943F288F2D4AE0E49E8019F2
:104DE0001124805D0E943F288AE094E00E946E2892
:104DF00067CC159A60E080E00E9420288EEE93E058
:104E00000E946E2861E080E00E94202880911A01B3
:104E10008F3F61F18A3000F18436A8F48CE591E08F
:104E20000E946E2880911A010E94442B61E084E068
:104E30000E94202883EF93E00E946E2841CC80E2FC
:104E40000E943F28B0CF8DE20E943F2880911A0136
:104E500090E00E947229EACF8BE591E00E946E28D3
:104E600080911A01805D0E943F28E0CF61E080E0E0
:104E70000E94202888EF93E00E946E2821CC159A8A
:104E800060E080E00E9420288FE591E00E946E287B
:104E900061E080E00E94202887E494E00E946E2870
:104EA0000C94081030919005323011F40C94E20EFD
:104EB0000E9430283091910511E00C94DC090E9489
:104EC00030283091910511E000E0212C312C210196
:104ED0000C94DC0900E0212C312C2101BDA5B1701E
:104EE000BFABEDA5E270E8AF0C94E20E5DA5526099
:104EF0005DA700E0212C312C210151705FAB6DA525
:104F0000627068AF0C94E20E00E00C94AC0F8091DC
:104F10009005833011F40C94821780910B0186FF69
:104F20003AC081E05DA458265DA60C94D80EEDA988
:104F3000FEA98081823010F08150808380911D0114
:104F4000823008F014C882E080931D0110C8C12C83
:104F500001E00C94D70990911B0192FD09C002E079
:104F6000010F113011F00C94011804E00C94011899
:104F7000033011F00C94011893FD02C00C94011839
:104F800004E00C94011809E049E0242E312C412C56
:104F9000512C0C94DC095DA55160AACFE5E1F0E04D
:104FA000EC0FFD1F3BACE30DF11D8081815089307A
:104FB00008F480838D898A3010F40C94500F0C947F
:104FC000380F9FB7F894809192058068809392057E
:104FD0009FBF309191050FE00C94AC0F662341F117
:104FE000429A439898B19F7098B998B1282F207F22
:104FF000922B98B9439A44E04A95F1F7439898B1B7
:105000009F7098B998B140E1849F90011124292B99
:1050100028B9439A94E09A95F1F74398611103C037
:105020008150833038F09DED9A95F1F70000089596
:105030004298D7CF89E995E10197F1F700C008952B
:10504000660F660F660F860F8093A005089566238E
:1050500021F060E080540C94EE2780580C94EE27E9
:1050600060E081E00E94EE271092A005E1EAF5E001
:1050700080E2819395E0E13BF907D9F70895CF935A
:105080009091A005482F082E000C550BE92FF0E059
:10509000EF55FA4F208130E042175307A1F0C82F97
:1050A000692F669566956695892F87700E942728D7
:1050B00061E08C2F0E94EE279091A005E92FF0E08F
:1050C000EF55FA4FC0839F5F903120F01092A005FA
:1050D000CF9108959093A005CF910895CF93DF933A
:1050E000EC012196FC018081882329F00E943F2851
:1050F00089918111FBCFDF91CF910895CF93C82F74
:1051000097B19C6F97B942982FEF8FE593E02150AC
:1051100080409040E1F700C00000439898B19F7034
:1051200098B998B1906398B9439A24E02A95F1F719
:1051300043988FEF95E30197F1F700C00000439A81
:1051400094E09A95F1F7439881EF91E00197F1F798
:1051500000C0439A94E09A95F1F7439881EF91E06B
:105160000197F1F700C098B19F7098B9459A439A9A
:1051700094E09A95F1F7439881EF91E00197F1F768
:1051800000C060E088E20E94EE2760E088E00E94B4
:10519000EE270E94302860E086E00E94EE2760E063
:1051A0008C2FCF910C94EE271F93CF93DF93CDB725
:1051B000DEB760970FB6F894DEBF0FBECDBF182FD5
:1051C00080E1E5E2F1E0DE01119601900D928A9511
:1051D000E1F7812F82958F70E1E0F0E0EC0FFD1F89
:1051E000E80FF11D80810E943F281F70E1E0F0E090
:1051F000EC0FFD1FE10FF11D808160960FB6F89452
:10520000DEBF0FBECDBFDF91CF911F910C943F2821
:105210000F931F93CF93DF938C019C0136952795B5
:1052200036952795ABE7B4E10E94BA35FC01F695B7
:10523000E7959F01ADECBCEC0E94BA35AC015695E8
:1052400047955695479556954795CA01880F991FDA
:10525000440F551F440F551F440F551F480F591F2A
:10526000CF01841B950B805D0E943F289801ADEC17
:10527000BCEC0E94BA35EC01D695C795D695C7957A
:10528000D695C7959E010E94BA35AC0156954795B3
:105290005695479556954795CA01880F991F440F13
:1052A000551F440F551F440F551F480F591FCE015E
:1052B000841B950B805D0E943F28CE01880F991FAB
:1052C000CC0FDD1FCC0FDD1FCC0FDD1FC80FD91F8A
:1052D000C8018C1B9D0B805DDF91CF911F910F91B9
:1052E0000C943F28CF93DF93EC018436910508F4AA
:1052F0006FC09C013695279536952795ABE7B4E1AD
:105300000E94BA35FC01F695E7959F01ADECBCEC27
:105310000E94BA35AC0156954795569547955695D6
:105320004795CA01880F991F440F551F440F551FF9
:10533000440F551F480F591FCF01841B950B805DEB
:105340000E943F289E01ADECBCEC0E94BA35FC01E6
:10535000F695E795F695E795F695E7959F010E94F6
:10536000BA35AC015695479556954795569547954C
:10537000CA01880F991F440F551F440F551F440F32
:10538000551F480F591FCF01841B950B805D0E944C
:105390003F289E01ADECBCEC0E94BA3596958795EE
:1053A00096958795969587959C01220F331F880FB8
:1053B000991F880F991F880F991F820F931F9E01B5
:1053C000281B390BC901805DDF91CF910C943F28D8
:1053D00080E20E943F28CA30D10508F0B3CF80E2B6
:1053E0000E943F28D6CFCF93DF93EC01883E23E085
:1053F000920708F49EC09C0136952795369527950F
:1054000036952795A5ECB0E20E94BA35FC01F295DD
:10541000E295EF70EF27FF70EF279F01ADECBCEC3A
:105420000E94BA35AC0156954795569547955695C5
:105430004795CA01880F991F440F551F440F551FE8
:10544000440F551F480F591FCF01841B950B805DDA
:105450000E943F289E013695279536952795ABE704
:10546000B4E10E94BA35FC01F695E7959F01ADECD9
:10547000BCEC0E94BA35AC015695479556954795B8
:1054800056954795CA01880F991F440F551F440F21
:10549000551F440F551F480F591FCF01841B950BF3
:1054A000805D0E943F289E01ADECBCEC0E94BA35A5
:1054B000FC01F695E795F695E795F695E7959F013A
:1054C0000E94BA35AC015695479556954795569525
:1054D0004795CA01880F991F440F551F440F551F48
:1054E000440F551F480F591FCF01841B950B805D3A
:1054F0000E943F289E01ADECBCEC0E94BA35969507
:10550000879596958795969587959C01220F331FD1
:10551000880F991F880F991F880F991F820F931F5B
:105520009E01281B390BC901805DDF91CF910C943E
:105530003F2880E20E943F28C436D10508F08ACF78
:1055400080E20E943F28CA30D10508F0ACCF80E24B
:105550000E943F28CFCF0F931F93CF93DF938C01EF
:105560009C01369527953695279536952795A5EC78
:10557000B0E20E94BA35FC01F295E295EF70EF2798
:10558000FF70EF279F01ADECBCEC0E94BA35AC0177
:10559000569547955695479556954795CA01880F54
:1055A000991F440F551F440F551F440F551F480F97
:1055B000591FCF01841B950B805D0E943F289801E5
:1055C0003695279536952795ABE7B4E10E94BA3515
:1055D000FC01F695E7959F01ADECBCEC0E94BA3555
:1055E000AC01569547955695479556954795CA01EE
:1055F000880F991F440F551F440F551F440F551F07
:10560000480F591FCF01841B950B805D0E943F28D6
:105610009801ADECBCEC0E94BA35EC01D695C7956B
:10562000D695C795D695C7959E010E94BA35969591
:10563000879596958795969587959C01220F331FA0
:10564000880F991F880F991F880F991F820F931F2A
:105650009E01281B390BC901805D0E943F28CE01A5
:10566000880F991FCC0FDD1FCC0FDD1FCC0FDD1F66
:10567000C80FD91FC8018C1B9D0B805DDF91CF9196
:105680001F910F910C943F28CF93C82F8A3098F424
:1056900080E20E943F288DECC89F812D11248695C1
:1056A000869586959AE0899FC01911248C2F805D7C
:1056B000CF910C943F289DEC899F812D11248695D4
:1056C00086958695899F912D112496959695969508
:1056D0002AE0929F80191124805D0E943F28DBCF31
:1056E000CF93DF93D82F9DEC899FC12D1124C695B0
:1056F000C695C695C99F912D112496959695969518
:105700008C2F2AE0929F80191124805D0E943F28EF
:105710008D2F9AE0C99F80191124805DDF91CF9170
:105720000C943F28CF92DF92EF92FF921F93CF937A
:10573000DF931F92CDB7DEB7F62E880F880F880F44
:1057400010E4180F60E0812F79830E94EE27CF2CA0
:105750007981D72E760188E0E80EF11C60E0812F78
:105760000E94EE2761E0F60181916F010E94EE2711
:105770001F5FCE14DF0491F70F90DF91CF911F913F
:10578000FF90EF90DF90CF900895009789F020E090
:1057900030E0A8954FEF5FE563E041505040604036
:1057A000E1F700C000002F5F3F4F2817390789F746
:1057B00008956BEF74E081E00E94922B63EF74E038
:1057C00082E00C94922B63EE74E083E00E94922BB3
:1057D0006BED74E084E00C94922BCF930E94302800
:1057E00063ED74E080E00E94922B6BEC74E081E04A
:1057F0000E94922B63EC74E082E00E94922B6BEB90
:1058000074E083E00E94922B63EB74E084E00E94DA
:10581000922B63EA74E085E00E94922B6BE874E0BF
:1058200086E00E94922B63E774E087E00E94922B4F
:1058300060E080E00E942028C0E08C2F0E943F287A
:10584000CF5FC830D1F761E080E00E94202882E677
:1058500094E00E946E2888E090E00E94C52B6BE9DE
:1058600074E085E00E94922B63E874E086E00E9479
:10587000922B6BE674E087E00E94922B84E090E02C
:105880000E94C52B6BEA74E084E00E94922B63E9CE
:1058900074E085E00E94922B6BE774E086E00E9442
:1058A000922B8FE090E0CF910C94C52BCF93DF9398
:1058B00097FD04C0DF91CF910C94AB2AEC0183E7F4
:1058C0000E943F28CE019F77DF91CF910C94082949
:1058D0008CE00E947E28159A0E94ED2B0E943028B1
:1058E0000E94C7300E94E32B0E94A12E0E94072F26
:1058F0006BEE74E087E00C94922B80E681B912B8CD
:1059000089E084B985B1806F85B985B1866085B934
:105910008FEF87B918B880EF8AB91BB808958091C6
:10592000B205E1E0E80FE093B2058E2F90E0FC01B4
:105930003197E431F10530F4E352FF4F0C94B13567
:105940001092B205089580917808853051F1873022
:1059500009F18111F7CF5E985F98089580917808DA
:105960008430F9F020F18630A9F0C8F08730A9F032
:105970000895809178088630B8F4843080F48130BE
:1059800071F0823051F0089580917808843049F0A8
:10599000863049F45E9A08955F985E9808955F98FE
:1059A00008955F9A089508958830B8F30895813076
:1059B000C1F3823079F308951DBAE9E6F0E0808101
:1059C000856080835C9A8CEC9AE00197F1F700C0C7
:1059D000000089B18C7090E0959587959595879595
:1059E0008093770883E08DBB08951DBA5C98089575
:1059F0001F920F920FB60F9211240BB60F922F9396
:105A00003F934F935F938F939F93EF93FF93CF9326
:105A1000DF93CDB7DEB72897DEBFCDBF89B18C70DD
:105A200090E0959587959595879531E03D8343E086
:105A30004E831F8252E0588759831A824B833C83DE
:105A4000309177088317A1F0309177083370FE0109
:105A5000E30FF11D3581381721F13091770833704C
:105A6000FE01E30FF11D3181381729F11092BE05B7
:105A70008093770828960FB6F894DEBF0FBECDBF8F
:105A8000DF91CF91FF91EF919F918F915F914F9116
:105A90003F912F910F900BBE0F900FBE0F901F9054
:105AA00018952091BE05222319F32091BE0521509F
:105AB0002093BE05DDCF2091BE052830C8F6209189
:105AC000BE052F5F2093BE05D3CFE4E6F0E08081D2
:105AD0008E7F80838FE880937E0080E480937C00BB
