:100000000C94A2000C94652C0C94652C0C94C100EB
:100010000C94C1000C943B030C94C1000C94C100DF
:100020000C94C1000C94C1000C94C1000C94C1004C
:100030000C94C1000C94C1000C94C1000C94C1003C
:100040000C94AA030C94C1000C94C1000C94C10040
:100050000C9496370C9492380C94C1000C94C10007
:100060000C94E92C0C94C1000C94C1000C94C100B8
:100070000C94C1000C94C1000C94C1000C94C100FC
:100080000C94C1000C94C1000C94C100070C270C07
:10009000150C1B0C010C490C430C370C310CAA0B32
:1000A000FE080D0C020EBA0D710FC80EC80E210FFE
:1000B0009E0E970F8D0F940E8A0E440D1B0DF40C9F
:1000C000970CFC0DDE10D510BF10BF10BF10BF1075
:1000D000A710A710A710A7109F10E7100E230E233C
:1000E0000923092304230423D422D4225322532294
:1000F00013231323102C1B2C102C262C0F2C312CEB
:100100000F2C262C0F2C392C0F2C0F2C0F2C0F2CD6
:100110000F2C0F2C0F2C0F2C0F2C0D2CD82DBB2D92
:10012000B82DAE2DAB2D9F2D9C2D892D862D732D99
:100130005D2D282DDB2D823086308A308A308E303E
:100140007A307E3011241FBECFEFD0E4DEBFCDBFAA
:1001500016E0A0E0B1E0EAECFEE700E00BBF02C071
:1001600007900D92A83BB107D9F72AE0A8EBB6E0BB
:1001700001C01D92AF31B207E1F70E94A2070C94B3
:10018000633F0C9400000F931F93CF93DF9300D035
:1001900000D000D0CDB7DEB78C0186E0EAEBF1E00D
:1001A000DE01119601900D928A95E1F7DA011C9219
:1001B000FB011082D8011C9299819E3209F46BC018
:1001C000992309F45EC0DE01129620E003C0992352
:1001D00009F458C0EAE02E9F900D112420ED290F5C
:1001E000FD019D919E3299F7D8012C93DF01119664
:1001F00081818E3209F44DC0882309F43DC03296C6
:1002000090E002C08823C9F12AE0929F800D11245A
:1002100090ED980FDF0181918E32A1F7FB01908361
:1002200011968C911197282F082E000C330B205318
:1002300031092A30310598F5FD01329690E0AAE0A7
:100240009A9F800D112490ED980F8191282F082EF0
:10025000000C330B205331092A30310580F3FA01A9
:10026000908326960FB6F894DEBF0FBECDBFDF9108
:10027000CF911F910F91089590E0DB019C9390E046
:10028000EECF20E0F801208390E0DB019C9390E02A
:10029000E6CF90E0C3CF20E0FE013196A5CF90E0FD
:1002A000DECFFB0180838091D606818382E1828349
:1002B00086E7858380E886838EE4878380EC808769
:1002C00089E0818781E0828782E0838783E4848775
:1002D00083E5858784E58687AB014F5E5F4F605F6E
:1002E0007F4FCF010F960C94C300AF92BF92CF9275
:1002F000DF92EF92FF920F931F93CF93DF93CDB7CF
:10030000DEB7A9970FB6F894DEBF0FBECDBF8E0142
:10031000075D1F4F20E044E1BE016B5E7F4F83E12C
:100320009AE00E949B3A882379F08E899091D506B5
:10033000891709F496C09091D606891729F08D89FE
:100340008F3F99F0981789F0A9960FB6F894DEBF01
:100350000FBECDBFDF91CF911F910F91FF90EF9016
:10036000DF90CF90BF90AF9008950F89002309F4DC
:100370000DC110E020E030E09DEF910F923060F071
:10038000E5E1F0E0EC0FFD1FE10FF11D6081C90117
:100390000E94DB399C010F891F5F101768F3432F00
:1003A0005527898D90E04817590771F63327888DB6
:1003B00090E02817390741F68A8D813409F43CC151
:1003C000873509F456C0823509F495C0863509F49D
:1003D00045C1883509F412C1843509F4FDC08F7D0B
:1003E000863509F0B1CF9E898091D5069813ACCFA0
:1003F00089A580930C018C8D90E0A0E0B0E0DC0139
:10040000992788272E8DAC01BD01422B2D8D30E020
:10041000922F8827A0E0B0E0842B952BA62BB72B3A
:1004200080930A0A90930B0AA0930C0AB0930D0ACA
:1004300048E050E060E270E08EE499E00E94E13E26
:1004400010925609402F50E0043108F0F2C04C5091
:100450005109BE016F5D7F4F8EE499E00E94D83E46
:1004600073CF92E39093D8069091D606891367CF05
:100470006BCFEC8CF12CFE2CEE248B8DE80EF11C56
:100480008FB7F89420914B0930914C093093CF06E7
:100490002093CE068FBF8E8989838091D6068A836A
:1004A0000F890B8387E78E838091D406811173C0F7
:1004B00010E0085011098B8D8F838C8D8887101662
:1004C00011060CF0ADC0C12CD12CB12C80E090E015
:1004D0008E0D9F1D0E94F83EE9E0F0E0EC0FFD1F3D
:1004E000EC0DFD1D8083B3948B2D90E06C01801783
:1004F000910774F395C08D8D9FB7F89420914B09A7
:1005000030914C093093CF062093CE069FBF9E8931
:1005100099839091D6069A838D3008F08CE098E00C
:10052000980F9B8392E79E839B8D9F83CC8CC8867C
:10053000D12CDC2CCC24C90ED11C882309F495C005
:100540007E0129E0E20EF11C0FEF080F10E0075FBB
:100550001F4FCE0101965C01080F191FC6018A19B1
:100560009B09FC0138976F01C6018E0D9F1D0E94EB
:10057000F83EF70181937F010E171F07A9F74B8102
:10058000B50189E19AE00E94933ADECE40E050E066
:1005900020E030E006CF802F90E009970CF43CC0BB
:1005A00020E030E0D12C80E090E0EDE1F0E0EC0FD5
:1005B000FD1FE20FF31F60818E0D9F1D0E94163FED
:1005C000D3948D2D90E09C010F8910E00850110903
:1005D0008017910754F36FCF809104018F3F49F04A
:1005E0009E89891731F02091D5069213ADCE8111E5
:1005F000ABCECE0145960E94C835A6CEF894A895FC
:1006000084B7877F84BF8091600088618093600099
:1006100088E080936000FFCF8B8D8F838C8D8887DF
:100620004B81BE016F5F7F4F89E19AE00E94933A50
:100630008BCE48E050E00DCF8E8989838091D6061D
:100640008A8386E08B8381E68E8346E0BE016F5FFE
:100650007F4F89E19AE00E94933A76CEBE016F5FA8
:100660007F4F8E890E945101DBCF48E09E012F5FB2
:100670003F4F590185CF1F920F920FB60F92112451
:100680000F900FBE0F901F90189585FD12C081E04E
:100690008093C7069091C6069817A1F082E390E078
:1006A00090930B0180930A011092090110920801A6
:1006B000089584FD20C082E08093C7069091C6060D
:1006C0009813ECCF8091C506853608F180910A0118
:1006D00090910B010A97F8F480910A0190910B0117
:1006E000059730F485E090E090930B0180930A0128
:1006F0001092C506089586FF06C087FD16C084E0E7
:100700008093C706C7CF83E08093C706C3CF8F5FB0
:100710008093C506089580910A0190910B010A9774
:1007200090930B0180930A01D7CF1092C706B6CFE2
:100730009091BC0682FF07C09B7F81FD07C092603D
:100740009093BC060895946081FFF9CF9D7F9093AC
:10075000BC0608951F920F920FB60F9211240BB68C
:100760000F922F933F934F935F936F937F938F934A
:100770009F93AF93BF93EF93FF938091CA068160DD
:100780008093CA068091090A8F5F8093090A8A3094
:1007900008F45CC01092090A8091D0069091D106AD
:1007A00001969093D1068093D0068091D806882335
:1007B00029F08091D80681508093D8068091CE068A
:1007C0009091CF06892B49F08091CE069091CF066B
:1007D00001979093CF068093CE068091CC0690919E
:1007E000CD06892B49F08091CC069091CD060197DA
:1007F0009093CD068093CC060E94FC2B8091BB0683
:10080000882329F08091BB0681508093BB0680919C
:10081000BA06882329F08091BA068F5F8093BA06C2
:100820008091FA078F5F8093FA072091FA078091F1
:100830000F0130E090E0880F991F880F991F28174B
:100840003907A4F50E9414350E9492308091CB069E
:10085000882329F08091CB0681508093CB0620918C
:1008600008013091090180910A0190910B0128172C
:10087000390748F4809108019091090101969093FD
:10088000090180930801FF91EF91BF91AF919F9172
:100890008F917F916F915F914F913F912F910F9029
:1008A0000BBE0F900FBE0F901F9018951092FA0775
:1008B000C9CFFF920F931F93CF93DF9300D01F9266
:1008C000CDB7DEB71B821A821982AE014F5F5F4F30
:1008D000BE016E5F7F4FCE0103960E94C3008EE083
:1008E00090E00E94F83E6B81861721F08EE090E048
:1008F0000E94163F8FE090E00E94F83E6A818617C2
:1009000021F08FE090E00E94163F83E090E00E948B
:10091000F83E182F82E090E00E94F83E212F30E050
:10092000A901582B4A30510508F454C145365105E8
:1009300008F0BEC150930701409306018DE190E09D
:100940000E94F83E8A3008F43CC18093050184E19E
:1009500090E00E94F83EF82E85E190E00E94F83E7B
:10096000082F86E190E00E94F83E182F482F602F54
:100970008F2D0E9450370E944737F81639F00E9499
:100980004737682F84E190E00E94163F0E944A3763
:10099000081739F00E944A37682F85E190E00E94DD
:1009A000163F0E944D37181739F00E944D37682FB7
:1009B00086E190E00E94163F81E190E00E94F83EBF
:1009C00090E0009709F4EDC08F3F910509F49AC1BA
:1009D0008436910508F06FC148E552E0849F90018C
:1009E000859F300D949F300D112430934C09209336
:1009F0004B0985E290E00E94F83E90E08F3F910520
:100A000009F469C18D33910508F023C146E9489F77
:100A10009001499F300D112430930F0A20930E0A44
:100A200082E190E00E94F83E182F0E944D360E940D
:100A30006A36181739F00E946A36682F82E190E012
:100A40000E94163F8EE190E00E94F83E80930401E0
:100A500084E290E00E94F83E182F0E94FD330E942D
:100A60000034181739F00E940034682F84E290E0B7
:100A70000E94163F83E190E00E94F83E80930E01B1
:100A800080E090E00E94F83E803308F4BEC08A34D3
:100A900008F005C18093D6068FE190E00E94F83EF1
:100AA000803D08F4A9C0803F08F0F0C08093D506CF
:100AB00080E89FE00E94063F9093D3068093D20681
:100AC00097FDACC08031974208F0D3C00E94412FFF
:100AD00088E99FE00E94003F6093C1067093C206C0
:100AE0008093C3069093C4068CE99FE00E94003F68
:100AF0006093BD067093BE068093BF069093C006B8
:100B000080E290E00E94F83E8093080A81E290E043
:100B10000E94F83E8093070A82E290E00E94F83E2D
:100B20008093100A83E290E00E94F83E80934D0982
:100B300087E99FE00E94F83E80930D0186E99FE0DF
:100B40000E94F83E823008F4D4C08B3008F078C0A0
:100B500080930F0148E050E060EA7FE08FEF99E07A
:100B60000E94E83EEFEFF9E027E03AE041E09EE73F
:100B700005C0908331962E173F0751F080818F3743
:100B8000C0F78111F7CF408331962E173F07B1F799
:100B90000F900F900F90DF91CF911F910F91FF90C9
:100BA000089581E090E090934C0980934B0961E0B7
:100BB00081E190E00E94163F80914B0990914C0991
:100BC0000BCF8AE0809305016AE08DE190E00E94FE
:100BD000163FBDCE8AE090E0909307018093060116
:100BE00060E082E090E00E94163F6091060183E0A1
:100BF00090E00E94163FA2CE80ED8093D50660ED76
:100C00008FE190E00E94163F53CF80E38093D60699
:100C100060E380E090E00E94163F3ECF9F778038EF
:100C2000910508F453CF8FE790E09093D30680931B
:100C3000D2066FE770E080E89FE00E942C3F46CF2D
:100C40008AE080930F016AE086E99FE00E94163FE8
:100C500081CF8CE390E090930F0A80930E0A6CE3AF
:100C600085E290E00E94163F80910E0A90910F0A53
:100C7000CDCE8FE097E29093D3068093D2066FE0BB
:100C800077E280E89FE00E942C3F20CF8FEE809398
:100C9000D5066FEE8FE190E00E94163F09CF89E400
:100CA0008093D60669E480E090E00E94163FF4CE7F
:100CB00084E690E091CF83E690E090934C09809396
:100CC0004B0963E681E190E00E94163F80914B0959
:100CD00090914C0981CE10920F0A10920E0A60E09A
:100CE00085E290E00E94163F80910E0A90910F0AD3
:100CF0008DCE82E080930F0162E086E99FE00E9442
:100D0000163F28CF85E090E090934C0980934B09E3
:100D100065E081E190E00E94163F80914B0990913F
:100D20004C095ACE1F93CF93DF93CDB7DEB7C0588F
:100D3000D1090FB6F894DEBF0FBECDBF162F90E8D5
:100D4000899FB001112440E850E0CE0101960E9435
:100D5000E83E80E8189FB001112440E850E0CE0141
:100D600001960E940C3FC058DF4F0FB6F894DEBFCB
:100D70000FBECDBFDF91CF911F910895CF93DF9329
:100D8000A89560E082E090E00E94163F6AE083E070
:100D900090E00E94163F6FE08DE190E00E94163FC8
:100DA00065E081E190E00E94163F60E085E290E01E
:100DB0000E94163F64E682E190E00E94163F63E0E5
:100DC00084E290E00E94163F61E383E190E00E949C
:100DD000163F60E380E090E00E94163F60ED8FE1F7
:100DE00090E00E94163F60E08EE190E00E94163F86
:100DF0004FEF6FEF8FEF0E9450370E944737682FF9
:100E000084E190E00E94163F0E944A37682F85E1F6
:100E100090E00E94163F0E944D37682F86E190E0D7
:100E20000E94163FA89563E070E880E89FE00E946A
:100E30002C3F0E94D22F0E94522F40E050E0BA0176
:100E400088E99FE00E94243F40E050E0BA018CE92D
:100E50009FE00E94243F65E086E99FE00E94163FE4
:100E600061E087E99FE00E94163F87E08093FF09D9
:100E700087E18093000A87E28093010A87E38093E9
:100E8000020A87E48093030A87E58093040A87E6D1
:100E90008093050A87E78093060A48E050E060EAFD
:100EA0007FE08FEF99E00E940C3FC1E0D5E1A8956B
:100EB00061E083E00E94C2268D2F8C1B0E94F229E4
:100EC0006C2F8FE10E949206CF5FC53181F7A89504
:100ED000DF91CF910C94590414BEA8959EE088E14F
:100EE0000FB6F894A895809360000FBE90936000B1
:100EF000A8951092D8068FEF80930C010E9472364D
:100F00000E9459041092D7060E94EA2B0E94D22C0C
:100F10000E94492C16BC8CE687BD1092090A1092DB
:100F2000D1061092D00682E084BD85E085BDEEE654
:100F3000F0E08081826080830E9400300E94A733AD
:100F4000239A0895CF93DF93CDB7DEB7CE54D1095E
:100F50000FB6F894DEBF0FBECDBF4090F8062996BD
:100F60004FAE29975090F7065CA66090C9062A9666
:100F70006FAE2A97B0E8EB2EF12C10E008C01F5F8F
:100F80002FEFE21AF20A103811F40C94FF24C70173
:100F90000E94F83E8F3F99F3F12C4FE04DA70E943D
:100FA0006C078091D6068AA38091D50689A380918B
:100FB000040188A320914B0930914C09369527955F
:100FC0003695279536952795AFE4BBE10E947A3B8D
:100FD0009695879596958795969587958F8F20916D
:100FE0000E0A30910F0A36952795A5E7BAED0E94B3
:100FF0007A3B0024880F991F001C880F991F001C42
:10100000892F902D8E8F2091060130910701ADEC34
:10101000BCEC0E947A3B9695879596958795969518
:1010200087958D8F1C8E28988FB7F89420914B0947
:1010300030914C093093CF062093CE0620910E0AB2
:1010400030910F0A3093CD062093CC068FBF1698AF
:10105000A89540E16BEF77E089E19AE00E946D3A54
:1010600048E067E579E083E19AE00E946D3A0E94EA
:10107000C5387894A895BE016F5F7F4F8FEF0E94AF
:1010800051014B81BE016F5F7F4F89E19AE00E9461
:10109000933AA8951092120A85B1806F85B985B1EF
:1010A000866085B90E943B2B83B1867FE82E0E9423
:1010B00091368EAB4CA44CAE2DE031E039AF28AF69
:1010C000AE01415E5F4F1A0151E05AAF81E02B96AD
:1010D0008FAF2B9725961CAE1DAE1EAE1FAE25976B
:1010E000812C912C54011BA61BAE18AA1EA619AA6E
:1010F00026961FAE26971FA65DA4452C512C612C69
:10110000712C4AAA5BAA6CAA7DAA10E000E021E03B
:1011100030E028963FAF2EAF2897AE01435E5F4F79
:101120005AA749A7CE014A969EA38DA3DE015996E0
:10113000BCA3ABA3FE017B96F8A7EFA3A8952B9ABF
:101140002B988091CA0680FDBAC20E94172D0E947A
:101150009136833009F4D9C22EA9233011F40C94AE
:1011600034120E9491368EAB3091080A2091F50618
:10117000832F90E00497422F50E0481759070CF056
:101180000BC78091BC068E7F8093BC062091F6062B
:101190003091100A231708F4F4C6432F50E0E09171
:1011A0004D09622F70E0641B750BF4E6F69FC001D9
:1011B000F79F900D11246E2F70E0641B750B0E9439
:1011C0003B3BD62E40910D0140FFE0C6E21728F4CC
:1011D0008091C80681608093C80642FF98C34EA4E0
:1011E000842D90E043FFA2C78C30910560F4FC0190
:1011F000EA5BFF4F8091BC060C94713B8860809342
:10120000BC063BE03EA7C090F70641FFB4C231E008
:10121000C31611F40C94BA11C31610F40C94A8114F
:1012200042E0C412B6C2CC24C3945CA45C100C94FB
:10123000C1117090F8067FAA2BA5213009F4CEC207
:101240004BA5443011F40C9452112BA5253011F408
:101250000C94B2110E9463354AA95BA94031510533
:1012600008F4CAC28091C706FF2009F4FEC35DA43A
:10127000452C512C612C712C4AAA5BAA6CAA7DAA20
:10128000C12ED02E8093C606A89583E19AE00E94D5
:10129000833A81110C944511A8958091D80681114B
:1012A0003DC710920A0A10920B0A10920C0A109273
:1012B0000D0A8FEF80930C0189E0E0E5F4E0AEE4E5
:1012C000B9E001900D928A95E1F787E08093120AC8
:1012D0008091C8068D7F8093C8068091BC0680FFF0
:1012E00068C62DA5263011F00C944911812C912C43
:1012F000540183940BAC04C0880C991CAA1CBB1C21
:101300000A94D2F781FD5AC682FD63C683FD76C674
:1013100084FD7FC68BA58150823008F486C63BA52C
:10132000353011F40C942B12C11089C6D1109CC613
:101330000E94CC338111AFC60E94D9338111B7C648
:101340008091BC0687FDBEC64CA4442009F4C4C6E7
:10135000A8958091F306823009F4CBC6833011F44E
:101360000C947711813081F48FE00E94A82F2B011B
:101370003C0180E10E94A82F462A572A682A792A30
:1013800084289528A628B728A8958091F106823050
:1013900009F4BCC6833009F499C7813081F483E134
:1013A0000E94A82F2B013C0184E10E94A82F462A0D
:1013B000572A682A792A84289528A628B7288FB71B
:1013C000F894C090CC06D090CD068FBF8091C9060E
:1013D0008F7B8093C9062091C8062B7F2093C80677
:1013E00080910E0A90910F0A892B31F034E6C316D2
:1013F000D10410F40C94C8118091C1069091C206DA
:10140000A091C306B091C406882A992AAA2ABB2AA9
:101410008091BD069091BE06A091BF06B091C00616
:1014200080959095A095B09588229922AA22BB22FA
:10143000A8958091C906222309F4B7C581608093DD
:10144000C9065CAC6CA4561409F42FC277247394BB
:101450002FB7F89480914B0990914C099093CF0647
:101460008093CE062FBF8091C706882311F40C9479
:10147000751BCD2809F03FC2CCA4CC2009F43BC297
:10148000A8958FB7F894C090D006D090D1068FBFA2
:101490000E94072E882371F0711007C08091060109
:1014A00090910701C816D90628F080911B0A88235D
:1014B00009F496C689E19AE00E94833A882371F084
:1014C0008091CB0681110AC0A8950E94F0388FB791
:1014D000F894909105019093CB068FBF2FB7F894A5
:1014E0008091CE069091CF062FBF892B21F080915D
:1014F000C90687FF23CEA8951092120A80917A0020
:101500008F7780937A00289A169A88B1837088B969
:10151000159880916E008D7F80936E005F985E9825
:1015200085B1897F85B90E94622C419840985D9869
:1015300083B7817F846083BFF894A8950FB6F89431
:10154000A89580916000886180936000109260008F
:101550000FBED99A80916800826080936800809164
:101560006C00806F80936C0083B7816083BF789438
:101570008895F89483B78E7F83BF809168008D7FB4
:1015800080936800A8959EE088E10FB6F894A8952E
:10159000809360000FBE90936000A895789428987F
:1015A00016980E943B2B2DA52E3011F40C947D181B
:1015B00016BC8CE687BD1092090A1092D1061092D3
:1015C000D00682E084BD85E085BD80916E0082609A
:1015D00080936E0085B1866085B90E94492C23B145
:1015E000267F2E258091B8069091B90698279223E0
:1015F0009093B906809582238093B8062095292B75
:10160000282B2095E22623B1267F2E25982792238A
:101610009093B906809582238093B8062095292B54
:10162000282B20952E2533B1367F322798279323F8
:101630009093B906809583238093B806E32EE094B7
:10164000E92AE82AE094E22623B1267F2E2598276E
:1016500092239093B906809582238093B8062095B3
:10166000922B892B8095E8268E2D0E9445038E2D86
:101670000E9498038091C7068093C6060E94723626
:101680008FB7F89420914B0930914C093093CF06D5
:101690002093CE0620910E0A30910F0A3093CD068A
:1016A0002093CC068FBF8091C9068F778093C9069F
:1016B000A8952B9A2B988091CA0680FF46CD8091E1
:1016C000CA068E7F8093CA0693B1967F9E2580912D
:1016D000B8062091B906282729232093B9068095BA
:1016E00089238093B8069095922B892B8095E826C4
:1016F0008E2D0E9445038E2D0E9498030E94172D67
:101700000E949136833009F027CDFEA9F33011F005
:101710000E94D2261092120A289A159885B1897FC4
:1017200085B985B18F7085B90E94622C60E082E036
:101730000E94C22680EC91E00E94102761E080E0C8
:101740000E94C22684EC91E00E9410270E949136EC
:101750008EABF4CC877F8093BC06231708F463C05C
:1017600080914D09821708F04ECD2AE02EA7C09037
:10177000F70641FD4CCD88E00E94A82FDC01CB018B
:1017800088219921AA21BB21892B8A2B8B2B09F037
:101790003ECD4CA44C1449F080910E0184FF04C04E
:1017A0008091F806811101C0CCA65CA4511041CDF6
:1017B00087E00E94A82FDC01CB0188219921AA2172
:1017C000BB21892B8A2B8B2B09F441C66090F8062C
:1017D0006FAA1CA62BA5213009F032CD8091BB0643
:1017E000811138CD33E03BA70E9463354AA95BA93C
:1017F0004031510508F036CDFA01EE5AFF4F0C94F6
:10180000713B88608093BC0695E09EA7FCCC80610C
:101810008093BC0621E02EA7F6CC877F8093BC0680
:10182000231708F0F0CC1EA6EECC88608093BC068F
:1018300053E05EA7E8CC877F8093BC06231798F31C
:1018400087E28D1508F0DFCCE4E0EEA7DCCC8F7EDC
:101850008093BC0633E13D1508F0D5CCB2E0BEA7BD
:10186000D2CC88608093BC06F9E0FEA7CCCC877F01
:101870008093BC062317B8F2EFE4ED1508F0C3CC53
:1018800028E02EA7C0CC88608093BC06B7E0BEA736
:10189000BACC877F8093BC06231728F2ABE3AD1543
:1018A00008F0B1CCF6E0FEA7AECC7FA829964FACED
:1018B00029977410CBCD25964CAC5DAC6EAC7FAC4B
:1018C0002597481459046A047B0409F0BFCD809120
:1018D000C9062A965FAC2A97852580FDB7CD8091F1
:1018E000C7068111D0C480910E0185FDC7C46CA4C8
:1018F000712C6110C5CD8FB7F89420910E0A3091EC
:101900000F0A3093CD062093CC068FBFB9CD9EA58C
:101910009A3008F0FEC4923008F08AC58091BC0667
:1019200080618093BC06231708F46DCC97CF159A7D
:10193000FF2011F40C94A91CB1E0FB1611F40C94D7
:10194000DC2142E0642EF61409F44AC633E0732E1B
:10195000F71409F4F7C5B4E0AB2EFA1411F40C94A3
:10196000A52145E0F41611F40C94182456E0F51660
:1019700011F40C94EE2387E0F81611F40C94AC23C8
:10198000F8E0FF1611F40C947123E9E04E2EF414E4
:1019900011F40C945E237AE0572EF51411F40C9494
:1019A00046236BE0662EF61411F40C9433235CE0AE
:1019B000752EF71411F40C9418234DE0A42EFA1090
:1019C0000C94A1218091100181110C9486210E9418
:1019D000D22660E080E00E94C22687E494E00E9464
:1019E00010270E94BE06FFCF159AF110B4C660E022
:1019F00080E00E94C22686EC92E00E94102761E0FF
:101A000080E00E94C2268FE70E94E1268FEC92E0E0
:101A10000E9410278091C706823039F58091C60652
:101A2000823071F10E94D2268091C706C12ED02E3D
:101A3000FF24F39427CC159AF11010C660E083E0E0
:101A40000E94C22680E393E00E94102761E080E0BC
:101A50000E94C2268FE70E94E12687EE91E00E9455
:101A600010278091C7068230C9F2813051F1BDA4A0
:101A7000AB2CB12CC12CD12CAAAABBAACCAADDAA12
:101A8000C12ED02EF12CFECB159AF110FFC660E0CE
:101A900084E00E94C22681EE92E00E94102761E05D
:101AA00080E00E94C2268FE70E94E12685E792E04F
:101AB0000E9410278091C706823009F4AFCF813091
:101AC000B1F68091C6068130E1F10E94D2269DA533
:101AD0009F5F10920901109208018091D70681FD45
:101AE00004C09D3011F40C944A1880FFCBC68FEFD0
:101AF000890F833008F4C6C6953011F40C94E21CAB
:101B0000963011F40C94DC1C9A30A9F40C94D61C79
:101B100081E0890F933010F40C947A1B853011F416
:101B20000C94E21C863011F40C94DC1C8A3011F405
:101B30000C94D61C982F9F3059F78091C7065FE010
:101B40005DA7409108015091090120910A0130914F
:101B50000B01C12ED02EF12C4217530708F0E5C41B
:101B60005DA4452C512C612C712C4AAA5BAA6CAA4D
:101B70007DAA88CB159A60E080E00E94C22689EE9B
:101B800091E00E94102761E080E00E94C2268BA5B0
:101B90000E9470308091C706833011F40C9436187F
:101BA0008430A1F486E00E94632F81110C94E9181F
:101BB0004FA841100C94E51884E18093BB0625E002
:101BC0002BA781E08093BA068091C7069FEF980FFC
:101BD000923028F09091BA06953608F445CB4BA583
:101BE000443011F453E05BA71092BA06813009F437
:101BF0003BCB9FE09DA738CB0E94D2268091C706A1
:101C00001DA632CBF1100C94291660E082E00E94F0
:101C1000C2268091C90680FF02C00C94AF16809145
:101C2000C90686FF02C00C9421194CA4C41411F4F7
:101C30000C94571F86ED91E00E941027159A61E0E1
:101C400081E00E94C2260E94DD340E94343760E0A9
:101C500087E00E94C226C12E11118CC181E00E9432
:101C6000E12661E087E00E94C226D02E01117BC1EF
:101C700081E00E94E12661E080E00E94C22680911E
:101C8000BC0682FD02C00C94571785E00E94E12635
:101C90008091C706823011F40C941D1710F40C9437
:101CA0003D17833011F40C9469268430A9F4809197
:101CB000C606843089F086E10E94932F882311F4B0
:101CC0000C945D2682E04FA448264FA6042D027096
:101CD000D02E142D1170C12EC1100C94ED16DD20E4
:101CE00009F4C0CA86E10E94832F882309F4BACA86
:101CF0000E94D2268091C706FF24F39432E03DA7CC
:101D000022E0422E512C612C712C4AAA5BAA6CAAAB
:101D10007DAAB8CA159AF110AFC660E082E00E94B1
:101D2000C22683E893E090CE159AF1100AC660E0CF
:101D300081E00E94C22684E892E086CE159A60E097
:101D4000F110EFC683E00E94C22686E592E00E9471
:101D5000102761E080E00E94C2268FE70E94E12602
:101D60008CE592E00E9410278091C706823009F02E
:101D70007CCE8091C606823009F482CE0E94D226A3
:101D80008091C706C12ED02E1BAEFF24F3947ACAD1
:101D9000159A60E080E0F1101AC60E94C226FDA5E7
:101DA000F33011F40C94DF188FE092E00E941027BA
:101DB00084E192E00E94102761E080E00E94C22648
:101DC0008AAD0E941E2A89E192E00E9410272FE12D
:101DD00030E028964EAC5FAC28972419350936952B
:101DE000322F22273795279580E89FE0821B930B9F
:101DF0000E94063F97FF02C00C94B918803127E279
:101E0000920710F08FE097E20E94F82A8091C706AF
:101E1000833011F40C94CA18843009F024CE9091C8
:101E2000C606943009F42CCE2AAD213009F428CE10
:101E300021502AAF422E512C28965FAE4EAE2897E5
:101E40001FCE159AFF2011F40C945C179E012B5E97
:101E50003F4F5901D12C60E092E0C92ECD0C8C2D62
:101E60000E94C226D5018D915D01805D0E94E12610
:101E700061E08C2D0E94C22648A84D1411F40C94E8
:101E8000512680E20E94E126D39484E0582ED5109A
:101E9000E2CF8091C706823011F40C94511910F4EE
:101EA0000C940B19833011F40C94A818843009F0A9
:101EB000E7C99091C606943011F40C94481F58A8B5
:101EC0009D8951100C94981B9A3010F40C947F1B30
:101ED00099E09D8B1092090110920801C12ED02E1D
:101EE000D1C9159AF110DDC660E081E00E94C226DA
:101EF00081EF91E00E94102761E080E00E94C226FD
:101F00008FE70E94E12689EF91E00E9410278091DF
:101F1000C706823009F0A9CD81CD159AF110E5C62A
:101F200060E083E00E94C2268FE692E0B6CD159A6B
:101F300060E0F1106FC482E00E94C22688E692E061
:101F40000E94102761E080E00E94C2268FE70E9475
:101F5000E1268CE592E00E9410278091C70682302E
:101F600009F083CD5BCD86E10E94632F811180CE85
:101F700082E07FCE85E10E94632F81116FCE82E0E7
:101F80006ECE40910D0140FD97C1D12C8091C806C5
:101F90008E7F8093C80621C9231708F4F7C8809163
:101FA000BC0681608093BC06F1C88E7F8093C90611
:101FB00048CA812C912C540181FFA6C981E00E945E
:101FC000A82F862A972AA82AB92A8091BC0682FFC0
:101FD0009DC984E00E94A82F862A972AA82AB92A98
:101FE00084E00E94732F882329F08091C8068260C4
:101FF0008093C8068091BC0683FF8AC982E00E9454
:10200000A82F862A972AA82AB92A8091BC0684FF7D
:1020100081C983E00E94A82F862A972AA82AB92A74
:102020008BA58150823008F07AC985E00E94A82FE4
:10203000862A972AA82AB92ACC2009F477C985E1EB
:102040000E94A82F862A972AA82AB92A85E10E94E9
:10205000732F882309F46AC98091C806826080932F
:10206000C806DD2009F464C986E10E94A82F862AEB
:10207000972AA82AB92A86E10E94732F882309F497
:1020800057C98091C80682608093C8060E94CC33ED
:10209000882309F451C98BE00E94A82F862A972A29
:1020A000A82AB92A0E94D933882309F449C98CE0A7
:1020B0000E94A82F862A972AA82AB92A8091BC06AE
:1020C00087FF42C987E00E94A82F862A972AA82A5C
:1020D000B92A4CA441103CC989E00E94A82F862A45
:1020E000972AA82AB92AA8958091F306823009F088
:1020F00035C98DE00E94A82F862A972AA82AB92AD6
:10210000A8958091F106823009F044C981E10E94CE
:10211000A82F862A972AA82AB92A51C980910E0188
:1021200080FFC6C081E08093120AD2C88C3091052E
:1021300008F069C8FC01EE59FF4F0C94713B809187
:10214000BC068F7E8093BC065BE05EA75CC8809176
:10215000FA072D2D30E060910F010E942F3B90E097
:10216000019654E1589FB001599F700D1124261714
:10217000370714F00C9403091EA60C9403098091F0
:10218000FA072D2D30E060910F010E942F3B90E067
:10219000019654E1589FB001599F700D11242617E4
:1021A00037070CF0E2CA0C9403098091BC068061E9
:1021B0008093BC0632E03EA70C9403098091BC06D4
:1021C000877F8093BC0621E02EA70C9403098091A1
:1021D000BC0688608093BC0686E08EA70C94030939
:1021E0008FB7F8941092D1061092D0068FBFD0907E
:1021F000C9062A96DFAE2A978091D50689838091F9
:10220000D6068A838FE08B8383E58E838091D20606
:102210009091D3069F8388878091C90680FF93C7DA
:1022200081E089872CA5213009F485C7223009F483
:1022300069C72B963FAD2B97313009F47CC7BA861E
:10224000AB869C868D868091C9068E870E948E36CD
:102250008F874B81BE016F5F7F4F89E19AE00E94BB
:10226000933A25968CAE9DAEAEAEBFAE25974CA4EC
:102270004CAE5FA829965FAE29971CC98CAD8150E2
:10228000823008F034CB712CE3C80E9475010C94A5
:102290004C0980E00E94A82F4B015C018091BC0694
:1022A0000C9482094FA8442009F49CCA0C942A0972
:1022B0001092120A0C9468098091C8068E7F809350
:1022C000C806E0914D09D12C0C94E60881E10E94EA
:1022D000A82F2B013C0182E10E94A82F462A572AF1
:1022E000682A792A84289528A628B72868C88DE006
:1022F0000E94A82F2B013C018EE00E94A82F462AA5
:10230000572A682A792A84289528A628B7280C9461
:10231000C409AEA5AC3010F00C9403098091BC0642
:1023200088608093BC06622F70E0232F30E080919C
:10233000070A863008F4F6C090E0059782179307E5
:102340000CF4C901681779070CF488CA0C940309C6
:102350004CA4442011F40C94052580910E0184FFB7
:1023600027CA1ECA8091BB0681110C942A091BA69C
:102370000C942A0982E0C82E5CA45C1411F40C941D
:10238000190980910E0184FD0BCACCA60C94190981
:102390008AE00E94A82F862A972AA82AB92A8AE0CA
:1023A0000E94A82F25964CAC5DAC6EAC7FAC2597F7
:1023B000462A572A682A792A25964CAE5DAE6EAE1B
:1023C0007FAE25978091C90680648093C906C114A9
:1023D000D10411F00C94DB2482E00E94A82F862AFD
:1023E000972AA82AB92A8AE00E94732F882329F005
:1023F0008091C80684608093C80682E00E94A82F5E
:1024000025964CAC5DAC6EAC7FAC2597462A572A1E
:10241000682A792A25964CAE5DAE6EAE7FAE2597C2
:102420002091C80629961FAE29971FAA0C94FC0973
:102430008091BC06877E8093BC06231708F4F3C9FD
:102440008091070A281708F090C90C9403091CA66C
:102450001FAA0C941C0986E00E94A82F862A972A9E
:10246000A82AB92A0C9494090E94D226289885B1EA
:10247000866085B985B1806F85B90E94492C23B1EA
:10248000267F2E258091B8069091B9069827922331
:102490009093B906809582238093B8062095292BC6
:1024A000282B2095E22623B1267F2E2598279223DC
:1024B0009093B906809582238093B8062095292BA6
:1024C000282B20952E2533B1367F3227982793234A
:1024D0009093B906809583238093B806E32EE09409
:1024E000E92AE82AE094E22623B1267F2E259827C0
:1024F00092239093B906809582238093B806209505
:10250000922B892B8095E8268E2D0E9445038E2DD7
:102510000E9498038091C7068093C6060E94723677
:102520000C94B10880E090E009CF2FE02DA73FE0A8
:10253000432E512C612C712C4AAA5BAA6CAA7DAA4D
:102540000C944209159A60E080E00E94C22681E462
:1025500093E00E94102761E080E00E94C2268FB7BE
:10256000F8942091CC063091CD068FBF80910E0A51
:1025700090910F0A892B09F047C061E085E00E9425
:10258000C22683E395E00E9410278091C70682301F
:1025900009F455C0833008F499C5833011F40C94C4
:1025A000611B843011F00C9440099091C606943060
:1025B00011F40C94400990911001915090931001E6
:1025C000B9A8BB2011F40C94400929A9215029ABCA
:1025D0000E94D2268091C706C12ED02E0C944209AB
:1025E000159A60E080E00E94C22686E393E00E9494
:1025F000102761E080E00E94C2268FB7F8942091F6
:10260000CE063091CF068FBF275F3F4FADECBCECBD
:102610000E947A3B9695879596958795969587958E
:102620000E94A12861E085E00E94C22682EE93E02C
:102630000E9410278091C706823009F0ABCF8091AD
:10264000C606823011F40C94400981E00E940A2BE6
:102650000E94D2268091C70619AA07CA159A60E07F
:1026600080E00E94C2260E946A368A8F0E9400344F
:10267000898F44244394F41411F40C94371BF2E032
:10268000FF1609F46FC793E0F91611F40C94552561
:10269000B4E0FB1611F40C943925F5E0FF1611F4A3
:1026A0000C942825B6E04B2EF41411F40C94082554
:1026B000E7E05E2EF51411F40C948B2598E0D92EEA
:1026C000FF24F3948091C706982F823009F474C7D1
:1026D000833090F1833011F40C944621843011F052
:1026E0000C9434092091C606243011F40C942B2646
:1026F000B7E0BD1508F008C24DA05EA02414350453
:1027000011F40C9485256BA07CA02614370411F4D9
:102710000C947F25D1018C91882311F081508C93EA
:102720008F8D811102C081E08F8F1092090110926C
:102730000801892F0C943409813011F00C9434096C
:102740008091C606813011F40C943409F3940E94F0
:10275000D2260C943209159A60E080E00E94C226CD
:1027600055245394F51411F40C94D72042E0642EB0
:10277000F61411F40C94C92093E0792EF71411F497
:102780000C94E520A4E0AA2EFA1411F40C942F2046
:1027900068E0A62E6AE0B62E75EFC72E76E0D72E3B
:1027A000FF24F39460E087E00E94C226D5018C915B
:1027B0008F3F11F40C944D20F6019081981708F486
:1027C000D6C482E00E94E12661E085E00E94C22634
:1027D000D6018C9190E00E94B6278091C706823086
:1027E00011F40C948724833011F40C946F248130FD
:1027F00011F00C9440098091C606813011F40C94BC
:102800004009F3940E94D2268091C706C12ED02E93
:102810000C94420980E00E94C2260E940E2E61E0C4
:1028200080E00E94C2260E941E2E8091C706823040
:1028300011F40C94DF2408F46AC4833011F40C946E
:102840002E1C843011F00C9440098091C60684300F
:1028500069F4409108015091090120910A013091D9
:102860000B014217530710F40C9440090E94F02EFC
:1028700010920901109208018091C706C12ED02E36
:102880000C9442098091C7069DA75BC9159A60E028
:1028900080E00E94C226B1E0FB1611F40C944B1CA0
:1028A000F2E0FF1611F40C94261E33E0F31611F437
:1028B0000C940C1EB4E0FB1611F40C94F31DF5E01F
:1028C000FF1611F40C94A91D46E0F41611F40C94B3
:1028D000951DFF24F3948091C706823009F4EFC759
:1028E000833008F4AEC3833011F40C94591D843046
:1028F00011F00C9440099091C606943011F40C9498
:10290000CC2449A45AA42414350411F40C94B724FB
:1029100025E0221621E0320611F40C94B724F101CF
:102920009081992311F0915090839AA1903310F4E3
:1029300090E39AA399A1903D08F0CCCA90ED99A399
:10294000C9CA159A60E080E00E94C226E1E0FE1646
:1029500009F4B5C5F2E0FF1609F49AC523E0422E4A
:10296000F41409F4C0C554E0F51609F48AC585E0ED
:10297000F81609F467C5A8E0DA2EFF24F3948091D5
:10298000C706823009F436C508F426C4833011F432
:102990000C946F1F843011F00C9440099091C6067E
:1029A000943009F419C5F7E0FD1508F403C521E0DA
:1029B00030E001C0220FDA94EAF72095A8ADB9AD56
:1029C0009C9192239C93C12ED02E0C9442090E947C
:1029D000C2268CE192E00E94102761E080E00E9414
:1029E000C2262DA5233009F427C38CE292E00E9471
:1029F00010278EE70E94E1268091C706813009F4F6
:102A00000CC3843011F00C9440098091C6068430C8
:102A100011F40C9440090E94D22660E080E00E94EC
:102A2000C2263DA5333011F40C94CD258CE392E001
:102A30000E9410276AAD8FE10E9492060E945904FD
:102A400061E080E00E94C226E8E0FE2E81E090E096
:102A50000E94672A8EE20E94E126FA94F110F6CFD6
:102A600083E090E00E94672A0E94D2268091C706E8
:102A70002FE02DA70C94350D159A60E080E00E94A0
:102A8000C2260E944737D82E8B8F0E944A37B82E15
:102A90008A8F0E944D37C82E898FB1E0FB1611F442
:102AA0000C94BC25E2E0FE1611F40C949C25F3E096
:102AB000FF1611F40C94221F34E0F31611F40C9459
:102AC000F31E55E0F51611F40C94331F68E0D62E72
:102AD000FF24F3948091C706823009F485C708F477
:102AE0002BCE833011F40C94601E843011F00C94C2
:102AF00034099091C606943011F40C94511EB7E03D
:102B0000BD1510F40C943A2621E030E001C0220FEC
:102B1000DA94EAF72095F1019081922390830C9446
:102B2000340980E00E94C22685E395E00E941027C8
:102B30008BAD0E941E2A60E085E00E94C2264BAC4D
:102B4000C42C8091C1069091C206A091C306B09199
:102B5000C40604C0B695A795979587954A94D2F771
:102B600080FD0CC48091BD069091BE06A091BF0669
:102B7000B091C0060BAC04C0B695A7959795879504
:102B80000A94D2F780FFD2C383E395E00E94102716
:102B90008091C706823009F4D2C3833008F461C340
:102BA000833011F40C94D61F843011F00C9440093A
:102BB0009091C606943011F40C9440098090BD06A3
:102BC0009090BE06A090BF06B090C006B501A401CB
:102BD0000C2C04C076956795579547950A94D2F7C3
:102BE00040FD02C00C94A51F41E050E060E070E0A1
:102BF00004C0440F551F661F771FCA94D2F72A01DD
:102C00003B01409450946094709484209520A620B9
:102C1000B7208092BD069092BE06A092BF06B092E9
:102C2000C0068090C1069090C206A090C306B090E6
:102C3000C406482959296A297B294093C106509323
:102C4000C2066093C3067093C406C12ED02E0C94A6
:102C50004209159A60E080E00E94C2268BED91E067
:102C60000E94102761E080E00E94C22681EE91E080
:102C70000E9410278EE70E94E1268091C7068823D4
:102C800009F474C0813011F00C9440090E94D226DE
:102C90008091C7063FEF3DA726961FAE26970C945E
:102CA000350D159A60E080E00E94C226A1E0FA1678
:102CB00011F40C94751E8091C706813009F4ABC0E5
:102CC000823011F00C94160D8091C606823011F4FA
:102CD0000C94160D81E00E940A2B0E94A73380916C
:102CE000C706EFE0EDA70C94350D159A60E080E083
:102CF0000E94C2268DE792E00E94102780E38F0D8C
:102D00000E94E12661E080E00E94C2268F2D90E0C3
:102D1000AC014250564F6A01DA018C9190E00E945A
:102D2000A1288091C706823011F40C94FE2590F101
:102D3000833011F40C941D26843011F00C9440095A
:102D40009091C606943011F40C940E26F6019081F1
:102D5000923010F40C94FA2591509083BBC88CECFF
:102D600091E00E941027159A0C941F0E9091C606B0
:102D7000943011F00C9440099FB7F8948091C906E3
:102D800080688093C9069FBF8091C7062FE02DA75A
:102D90000C94350D813011F00C9440098091C606D9
:102DA000813011F40C944009DD24D394DF0CB8E099
:102DB000BD1510F4DD24D3940E94D2268091C7065D
:102DC000FD2C0C944009D02ECC24C3942FA5216057
:102DD0002FA7122F1170022F027085E10E94832FFE
:102DE000882311F40C946F0E0E94D226D110EEC7E6
:102DF0008091C706CC24C394FF24F39442E04DA7EE
:102E000032E0432E512C612C712C4AAA5BAA6CAA89
:102E10007DAA0C9442098091C606813011F40C946D
:102E2000160D0E94D2260E94A7338091C706C12E9C
:102E3000D02E92E0F92E0C9442098091C606823081
:102E400069F081E026964FAC2697411080E02696E7
:102E50008FAF269710920901109208012091080166
:102E60003091090180910A0190910B0128173907CF
:102E700020F00E94D226FF24F39485E10E94932F34
:102E8000811105C02FA52E7F2FA7122F117086E16B
:102E90000E94932F8111CAC0D12CC12E3FA53D7F26
:102EA0003FA7132F1170032F02700C946C0E80E259
:102EB0000E94E1260C94480E60E085E00E94C22644
:102EC00083E492E00E94102761E080E00E94C22625
:102ED0008FE70E94E12687E492E00E94102780910C
:102EE000C706823011F00C94350D8091C6068230F1
:102EF00011F40C94400D4091D2065091D30657FD29
:102F00008DC59A013695279536952795369527953F
:102F1000A5ECB0E20E947A3BFC01F295E295EF70DD
:102F2000EF27FF70EF279F01ADECBCEC0E947A3BCE
:102F30009695879596958795969587959C01220FEE
:102F4000331F880F991F880F991F880F991F820FB1
:102F5000931FE81BF90BED8B9A0136952795369553
:102F60002795ABE7B4E10E947A3BFC01F695E79523
:102F70009F01ADECBCEC0E947A3B969587959695A7
:102F80008795969587959C01220F331F880F991F6F
:102F9000880F991F880F991F820F931FE81BF90B49
:102FA000EE8B9A010E947A3BFC01F695E795F69527
:102FB000E795F695E7959F010E947A3B9695879550
:102FC00096958795969587959C01220F331F880FBC
:102FD000991F880F991F880F991F820F931F2F0128
:102FE000481A590AC2018F8BCF01880F991FEE0F23
:102FF000FF1FEE0FFF1FEE0FFF1F8E0F9F1F481BBF
:10300000590B488F0E94D2268091C706C12ED02E20
:1030100018AAFF24F3940C9442093DA531503DA712
:103020000E94D2268091C7060C94350D0FA5027020
:10303000D02EC12E0C946C0E84E292E00E941027D8
:10304000D8CC813011F00C9440098091C6068130B3
:1030500011F40C944009F3940E94D2261092D406E5
:103060008091C706C12ED02E0C94420986E00E94A2
:10307000632F811127C04BA4442029F0242D233035
:1030800011F00C94E10D84E18093BB0631E03BA785
:103090000C94E10D2091080A2F3F09F47DC4209182
:1030A000070A2F3F09F478C42091100A2F3F09F432
:1030B00073C420914D092F3F09F46EC49DA59E5FF6
:1030C0000C94750D42E04BA70C94E10D813011F08A
:1030D0000C9440098091C606813011F40C9440098B
:1030E000F3940E94D22685E0809310018091C70658
:1030F000C12ED02E19AA0C94420982E00E940A2BFC
:103100000C94D80A52E02B965FAF2B9798C8813069
:1031100011F00C9440098091C606813011F40C9492
:1031200040090E94972E0E94D2268091C706C12E88
:10313000D02E0C94420989858068898741E02B96BE
:103140004FAF2B977CC84FA84110A1C019866AC801
:103150009091C606933009F4ABC768A89D896110A9
:1031600029C39A3008F49EC71D8A0C946A0F81E027
:1031700029CB9C013F772038310510F40C94040FC3
:103180008FE790E80E94F82A8091C706833011F0FB
:103190000C940C0F9091C606933011F40C94400DD2
:1031A0003AAD343110F00C94400D3F5F3AAF432EEE
:1031B000512C28965FAE4EAE28970C94400D8BE2B2
:1031C00093E00E9410270C94D80E34E03BA70C9497
:1031D000E10D1BA60C94E10D813011F00C94400917
:1031E0008091C606813011F40C944009DD24D394FB
:1031F000DF0C8FEF8F0D823008F0DECD80910D0156
:1032000082FD64C6F2E0DF2EDF0CF1E0FF12D4CDC8
:1032100074E0D72ED1CD813011F00C9440099091FB
:10322000C606913011F40C94400998A99F5F98ABA1
:10323000C12ED02E943010F40C94420918AA0C948C
:10324000420981ED91E00E9410272FB7F8948091F8
:10325000CC069091CD062FBF80FF35C615980C94F3
:103260001F0E813011F00C9440098091C606813008
:1032700011F40C9440093BAD3F5F3BAF3D3108F08A
:103280001BAE0E94D2268091C7060C9440095FA80D
:10329000E52DF0E0E250F64F80818F5F89870C9436
:1032A00012118091C606823011F40C9440098D8968
:1032B0008A3008F468C08E89CF882AE0C29E6001F7
:1032C000112434E6839FC00CD11C1124888DC80EB4
:1032D000D11C6894D7F8C6010E943E30F82E86E0D3
:1032E000F81201C0FBA46BA58091D2069091D30681
:1032F0000E940E30B60180E89FE00E942C3F0E94A1
:1033000059040E94D22660E081E00E94C2268FE428
:1033100092E00E94102787E090E00E94672A0E94B6
:10332000D2268091C706FBA60C94350D84E692E068
:103330000E9410278091C706823009F02ECC809120
:10334000C606823011F40C9440094091C106509198
:10335000C2066091C3067091C40688E99FE00E948E
:10336000243F4091BD065091BE066091BF0670910A
:10337000C0068CE99FE00E94243F4EC08EE395E09A
:103380000E94102705CC2E899F8948EE53E0849F28
:103390006001859FD00C112444E6249FC00CD11CF1
:1033A00011245AE0959FC00CD11C1124888DC80EA1
:1033B000D11C91CFE8ADF9AD9081923010F09150D1
:1033C000908390910F01923010F00C946A0F92E06C
:1033D00090930F010C946A0F4091080150910901DC
:1033E00020910A0130910B014217530710F40C94FD
:1033F0004009D9CA8091C606823011F40C94400964
:1034000060910F0186E99FE00E94163F60910D01D7
:1034100087E99FE00E94163F0E9459040E94D2262D
:1034200060E081E00E94C2268FE492E00E941027B3
:1034300087E090E00E94672A0E94D2268091C7060A
:103440000C94350D81EB92E00E941027CC24C3949C
:10345000DD24D39461E085E00E94C22680910D01B5
:1034600090E002C095958795CA94E2F780FF71C0FD
:103470008FE793E00E9410272DE031E039AF28AFAD
:103480007ECA88EA92E00E941027C12CD12CE2CF9C
:1034900084E992E00E94102761E083E00E94C22646
:1034A00080910D0183FF14C08AEB92E00E941027E7
:1034B00083E0D82EADE0B1E0B9AFA8AF60CA8CE828
:1034C00092E00E94102732E0C32E42E0D42EC2CFF9
:1034D00080EC92E00E941027B3E0DB2EEDE0F1E0FB
:1034E000F9AFE8AF4CCA8DE992E00E94102761E085
:1034F00087E00E94C22686EA92E00E94102761E0DF
:1035000084E00E94C22680910F019DEC592E859D7A
:10351000812D1124869586958695805D0E94E126F1
:103520008EE20E94E12680910F01859D912D11244C
:103530009695969596952AE0929F80191124805D24
:103540000E94E126DD24DA944FE051E059AF48AF04
:1035500016CA83E395E00E9410274DE051E059AF71
:1035600048AF0DCA81E493E00E94102761E080E03B
:103570000E94C2268CE393E00E94102761E084E061
:103580000E94C2268E8D882309F490C02FE0829F6E
:10359000C00111240E94202886EA92E00E94102790
:1035A000DD24DA94AE01425E5F4F1A018091C706B6
:1035B000982F823009F08CC88091C606823011F4B1
:1035C0000C9434096F8D81E190E00E94163F6E8D5E
:1035D00085E290E00E94163F0E946A36682F82E1E1
:1035E00090E00E94163F0E940034682F84E290E031
:1035F0000E94163F60910E0183E190E00E94163F09
:103600000E94590420914B0930914C093695279519
:103610003695279536952795AFE4BBE10E947A3B16
:103620009695879596958795969587958F8F2091F6
:103630000E0A30910F0A36952795A5E7BAED0E943C
:103640007A3B0024880F991F001C880F991F001CCB
:10365000892F902D8E8F8FB7F89420910E0A30917C
:103660000F0A3093CD062093CC068FBFD7CE86E3CA
:1036700093E00E94102761E080E00E94C2268CE364
:1036800093E00E94102761E084E00E94C226D101ED
:103690008C9190E00E94202888E893E00E941027F7
:1036A000DD24DA94FE017F961F010CC882E395E0C9
:1036B0000E941027DD24DA94CE014E961C010C9452
:1036C00062139091C606933011F40C9440099091C6
:1036D000100191509093100139A93F3F11F40C94BF
:1036E000400949A94F5F49ABCCCD71100C94390A00
:1036F0000C94770C8DA78091C7060C94A10D9111A5
:103700002BC09E892F894AE0249F9001112454E602
:10371000959F200D311D1124988D290F311D2038C2
:10372000310514F00C94680F93E49D8B0C946A0F90
:103730009A3008F471C098A9923009F466C09330A9
:1037400079F0913011F00C946A0F9E89992379F0E9
:1037500091509E8B0C946A0F91509D8B0C946A0F24
:10376000988D9923A9F09150988F0C946A0F2F8906
:10377000AAE02A9F900111242C593F4F988D290FC0
:10378000311D20383105D4F548A84E8A0C946A0FB3
:103790009E892F894AE0249F9001112454E6959F29
:1037A000200D311D1124273731055CF599E0988FE4
:1037B0000C946A0F9A3008F4D5C498A9923009F491
:1037C000AFC4933009F495C4913011F00C946A0F92
:1037D0009F894E8950E04F5F5F4F64E6649F900180
:1037E000659F300D1124AAE09A9F200D311D1124F0
:1037F000988D290F311D2038310534F21E8A0C9422
:103800006A0F97E0988F0C946A0F9F89992391F023
:1038100091509F8B0C946A0FE5E1F0E0EC0FFD1FD7
:1038200048A8E40DF11D9081911196CA99E090830A
:103830000C946A0F4E8924E6429FA0011124288D22
:1038400030E0BA01665A7F4F620F731F603871050E
:103850000CF0BEC099E09F8B0C946A0F8091C60655
:10386000833069F4409108015091090120910A01C7
:1038700030910B014217530710F40C9440090E9439
:10388000A52E10920901109208018091C706C12E41
:10389000D02E0C94420986EE92E00E94102761E03F
:1038A00084E00E94C2268AA18F5E0E94E126FE016A
:1038B000B2961F018091C706823009F011C880912D
:1038C000C606823011F40C9440096AA180E090E0B1
:1038D0000E94163F69A18FE190E00E94163F68A107
:1038E0008EE190E00E94163F609105018DE190E02D
:1038F0000E94163F8D8DFAE08F9FC0011124909396
:10390000070180930601692F82E090E00E94163F34
:103910006091060183E090E00E94163F0E945904E6
:103920008091D6068AA38091D50689A3809104014F
:1039300088A32091060130910701ADECBCEC0E94F8
:103940007A3B9695879596958795969587958D8FD1
:1039500065CD60E083E00E94C22687EB93E00E9481
:10396000102761E080E00E94C2268FE70E94E126D6
:103970008DE20E94E1268091C706823011F00C94FE
:10398000350D8091C606823011F40C94400D82E012
:103990000E940A2B0C94120D80FF02C00C94880D1B
:1039A0008091C7063DE03DA70C94A10D8091C7060C
:1039B0004AE04DA70C94A10D8091C70636E03DA7C3
:1039C0000C94A10D8091C70625E02DA70C94A10DA4
:1039D0004C5E5F4F240F351F203831050CF054C268
:1039E00048A84F8A0C946A0F8091C606823011F461
:1039F0000C9434090E944737682F84E190E00E94BC
:103A0000163F0E944A37682F85E190E00E94163FDA
:103A10000E944D37682F86E190E0FCCC83E48D8BCB
:103A20005F779A013695279536952795ABE7B4E1F0
:103A30000E947A3BFC01F695E7959F01ADECBCEC4A
:103A40000E947A3B9695879596958795969587954A
:103A50009C01220F331F880F991F880F991F880F11
:103A6000991F820F931FE81BF90BEE8B9A010E949E
:103A70007A3BFC01F695E795F695E795F695E7957F
:103A80009F010E947A3B9695879596958795969586
:103A900087959C01220F331F880F991F880F991F4C
:103AA000880F991F820F931FDF01A81BB90BCD014F
:103AB0009ACA9091C606933051F149A45AA424148D
:103AC0003504F1F025E0221621E03206C9F0D101DB
:103AD0009C919F3F11F09F5F9C939AA19A3410F0A4
:103AE00099E49AA399A1903F10F09FEE99A39D8D20
:103AF0009B3010F40C946A0F9AE09D8F0C946A0F1F
:103B00009091D70691FD02C00C946A0FE0CF4091CE
:103B100008015091090120910A0130910B014217CF
:103B2000530710F40C944009C8CF80E293E00E9440
:103B3000102761E080E00E94C22687E293E00E94A5
:103B4000102781E08093D406CE014C961C010C9482
:103B50006B1487E193E00E94102761E083E00E94EC
:103B6000C2268091050199E2899F812D11248295B9
:103B70008F70805D0E94E1268EE20E94E126809196
:103B800005014DEC442E849D812D1124869586954A
:103B90008695849D912D11249695969596952AE06B
:103BA000929F80191124805D0E94E1268091050179
:103BB000849D912D11249695969596953AE0939F24
:103BC00080191124805D0E94E12661E087E00E9457
:103BD000C22686EA92E00E94102755E0252E51E089
:103BE000352E0C946B148EE093E00E94102761E058
:103BF00084E00E94C2268D8D90E00E94202861E022
:103C000087E00E94C22686EA92E00E941027FE0109
:103C10007D961F010C946B1488EF92E00E94102790
:103C2000D8A0DD2081F15FEF61E082E0D51601F1DF
:103C30000E94C2268BE093E00E9410278D2D0E94E7
:103C40008227DE0190961D010C946B148FEE92E09A
:103C50000E94102761E083E00E94C22689A1805D56
:103C60000E941E2A9E012F5D3F4F19010C946B1478
:103C70000E94C22686E093E00E941027CE01809623
:103C80001C010C946B1461E082E00E94C22681E06A
:103C900093E00E941027AE01405E5F4F1A010C9422
:103CA0006B14409108015091090120910A01309153
:103CB0000B014217530710F40C9434090C947F1530
:103CC0009091C606933009F473C097E09D1508F4EF
:103CD00046C021E030E001C0220FDA94EAF7D101BA
:103CE0009C91292B2C930C9434090E94D333882364
:103CF00019F181E092E00E94102761E080E00E94CB
:103D0000C22687E092E00E9410278EE70E94E126FB
:103D10008091C706843011F00C945D168091C60620
:103D2000843011F40C9440098D2D853608F084E61A
:103D30000E94A6320C945B1684E00E940A2B159A0E
:103D40008D2DB4E6BD1508F484E60E94A6320E94CB
:103D500065338091BC06877E8093BC06D9CF4FA087
:103D600058A424143504E9F06DA07EA0261437046D
:103D7000C1F0ABA0BCA02A143B0499F0D1018C91F6
:103D80008F3F11F08F5F8C93498D6A8D8B8D0E94D0
:103D9000503710920901109208018091C7060C94C7
:103DA00034099091D70691FD02C00C943409E6CFF6
:103DB000409108015091090120910A0130910B01B5
:103DC0004217530710F40C9434097FCFFF24F39467
:103DD00022E02DA786E10E94832F882311F40C9402
:103DE00032090C94780E85EA93E00E94102761E076
:103DF00087E00E94C22686E394E00E941027DB2C15
:103E0000AE01465E5F4F1A0161E084E00E94C22667
:103E10004DECD49EC12C1124C694C694C69480E364
:103E20008C0D0E94E1268EE20E94E1268D2D5AE043
:103E3000C59E80191124805D0E94E126DD24DA945C
:103E40000C946A158CE993E00E94102761E087E0EA
:103E50000E94C22686E394E00E9410279E01255E00
:103E60003F4F1901D1CF8EEA93E00E94102761E005
:103E700087E00E94C22686E394E00E941027DC2C93
:103E8000CE0149961C01C0CF91E09F8B0C946A0F24
:103E9000409108015091090120910A0130910B01D4
:103EA0004217530710F40C9440090C945F0F809153
:103EB000D2069091D3060E94F82A26965FAC2697E8
:103EC000552009F4CBC9159A0C941F0EE3E04E2E31
:103ED000D4100C94DC1683FD9BC90C94DC169091D5
:103EE000C606933021F157E05D1578F021E030E00F
:103EF00001C0220FDA94EAF7A8ADB9AD9C91292B45
:103F00002C93C12ED02E0C944209E8ADF9AD9081CE
:103F10009F3F11F09F5F908390910F019B3010F4B1
:103F20000C946A0F9AE090930F010C946A0F4091E1
:103F300008015091090120910A0130910B014217AB
:103F4000530710F40C944009CECF41E050E060E0FC
:103F500070E004C0440F551F661F771FCA94D2F744
:103F6000409550956095709584229522A622B7229F
:103F70008092BD069092BE06A092BF06B092C00687
:103F80008090C1069090C206A090C306B090C4066F
:103F9000482159216A217B214093C1065093C206D2
:103FA0006093C3067093C4060C9440099091C606B2
:103FB000933011F40C9440098090C1069090C20691
:103FC000A090C306B090C406B501A4010C2C04C097
:103FD00076956795579547950A94D2F740FF0BC1A0
:103FE0004091BD065091BE066091BF067091C0061B
:103FF000412C512C3201439404C0440C551C661CC6
:10400000771CCA94D2F72F964CAE5DAE6EAE7FAEE3
:104010002F97409450946094709484209520A6200B
:10402000B7208092C1069092C206A092C306B092B9
:10403000C4062F96ACACBDACCEACDFAC2F974A29F2
:104040005B296C297D294093BD065093BE06609381
:10405000BF067093C006C12ED02E0C94420981E099
:1040600092E00E94102761E080E00E94C2268CED61
:1040700092E00E941027EDE4AE2EE9E0BE2EF6EFAE
:10408000CF2EF6E0DF2E60E087E00E94C226D50149
:104090008C918F3F11F00C94DC138DE20E94E1268D
:1040A0000C94E413993091F09F5F9D8B0C946A0FF0
:1040B000409108015091090120910A0130910B01B2
:1040C0004217530710F40C94400947C89E892F8962
:1040D0004AE0249F9001112454E6959F200D311D44
:1040E0001124988D290F311D203831050CF03CC862
:1040F0001BCB4E892F89988D5AE0259F9001112462
:10410000A4E64A9F200D311D1124290F311D2F37A0
:104110003105ACF5993098F59F5F988F0C946A0F34
:104120006E899F89292F30E02F5F3F4FA901440FEF
:10413000551F220F331F220F331F220F331F240F4F
:10414000351F44E6649F200D311D1124488D240F36
:10415000311D20383105B4F49930A0F49F5F9F8B56
:104160000C946A0FE5E1F0E0EC0FFD1F48A8E40DA8
:10417000F11D9081993048F010820C946A0F188ECE
:104180000C946A0F1F8A0C946A0F9F5F90830C94A3
:104190006A0F81E092E00E94102727E0A22E2AE019
:1041A000B22E36EFC32E36E0D32E0C94D21387ED09
:1041B00092E00E94102758E0A52E5AE0B52E65EF38
:1041C000C62E66E0D62E0C94D21381E092E00E94B7
:1041D000102761E080E00E94C22680EC91E00E94FE
:1041E0001027B0E1AB2EBAE0BB2E86EFC82E86E0DA
:1041F000D82E0C94D2134091BD065091BE0660910A
:10420000BF067091C0062A013B010C2C04C07694B5
:104210006794579447940A94D2F740FCE9CE412C16
:10422000512C3201439404C0440C551C661C771C6D
:10423000CA94D2F72F964CAE5DAE6EAE7FAE2F977E
:1042400040945094609470944421552166217721C4
:104250004093BD065093BE066093BF067093C006A0
:104260002F962CAD3DAD4EAD5FAD2F97822A932A90
:10427000A42AB52A8092C1069092C206A092C306D3
:10428000B092C406C12ED02E0C9442092091C606CD
:10429000233071F137E0632E6D1408F01ACD4DA074
:1042A0005EA024143504F9F06BA07CA0261437041A
:1042B000A1F0D1018C918F3F11F08F5F8C938F8D86
:1042C000843610F083E68F8F8E8D8D3310F40C942E
:1042D00095138CE38E8F0C9495130E94E433909188
:1042E000C7060C9495130E9413369091C706E1CF30
:1042F000409108015091090120910A0130910B0170
:104300004217530710F40C943409C4CF159A60E097
:1043100080E00E94C22688E394E00E94102761E0BA
:1043200080E00E94C22680E494E00E9410278091E1
:104330001001805D0E94E1268EE70E94E1260C9428
:10434000C512FF24F3940C94C512B9A8BB2009F13F
:1043500029A9293010F038E039AB60E080E00E94F4
:10436000C22689A90E94F2298AE30E94E126D9A8DF
:10437000DA948D2D0E9459300E94F82A61E080E085
:104380000E94C2268D2D0E9465300E9470300C94D0
:10439000C512159A60E080E00E94C2268AEE91E084
:1043A0000E94102761E080E00E94C22686EE93E022
:1043B0000E9410270C94C51249A8442009F44FC04C
:1043C00039A9343010F043E049AB159A60E080E041
:1043D0000E94C2268BED93E00E94102761E080E0EE
:1043E0000E94C22689A9815D0E94E1268FED93E09B
:1043F0000E94102789A9880F8250C82ECC0CCC0CA3
:10440000C80ED12C0BC080E38D0D0E94E126D39401
:104410005AE0552ED51411F40C94C5125DECD59EBE
:10442000612D112466956695862F880F880F860F5B
:104430009D2D981B892F8D5F0E94C2268C2D8D0D7E
:104440002401350104C076946794579447948A9563
:10445000D2F740FCD8CF80E20E94E126D8CF159A4F
:1044600060E085E00E94C2265FA85110C4C089E4C4
:104470000E94E12660E080E00E94C2268091C90689
:1044800080FDB4C080910D018C708C3009F091C01A
:104490006EA4862D90E08C30910548F4FC01E25921
:1044A000FF4F0C94713B81ED93E00E94102760E078
:1044B00087E00E94C2262CA5213009F471C008F4BF
:1044C0006BC0223019F482E50E94E12661E082E0AF
:1044D0000E94C2268091BC0682FF5CC082E00E94DE
:1044E000E12661E084E00E94C2268091BC0681FF43
:1044F0004FC086E00E94E12661E085E00E94C2266E
:104500008091BC0680FF2FC087E00E94E12661E019
:1045100087E00E94C2268091F306813001F128F1E4
:104520008230C9F0833019F48AE20E94E12661E00A
:1045300080E00E94C2268091F106813021F1F0F0E6
:104540008230B9F0833011F00C94C5128AE20E94D7
:10455000E1260C94C51282E40E94E126E8CF84E4AF
:104560000E94E126E4CF80E2D0CF8DE20E94E126D6
:10457000DECF82E40E94E1260C94C5128DE20E94F7
:10458000E1260C94C51284E40E94E1260C94C51225
:1045900080E2B0CF81E0A3CF8EE40E94E12696CFE7
:1045A00086E40E94E12692CF8CEC93E00E941027D3
:1045B0007ECF8091BC0683FD13C084FF0DC08AE2CC
:1045C0000E94E1268D2D843608F083E60E94F229B0
:1045D00085E20E94E1266BCF81E00E94E126F2CFC6
:1045E00084FF0EC081E20E94E126ECCF8CEC91E0CA
:1045F0000E9410275CCF8FA9805D0E94E1263ACFF0
:1046000082E00E94E126DECF87EC93E00E94102733
:104610004ECF82EC93E00E94102749CF8DEB93E0C0
:104620000E94102744CF86ED93E00E9410273FCFD1
:10463000159A60E080E00E94C2268FE294E00E941A
:10464000102761E081E00E94C22680910C0A0E943E
:10465000822780910B0A0E94822780910A0A0E9479
:1046600082270C94C512159A60E080E00E94C22651
:1046700086E294E00E94102761E080E00E94C2265A
:104680008EE499E00E9410270C94C512159A60E000
:1046900080E00E94C2268EE194E00E94102761E033
:1046A00081E00E94C2268EE40E94822780EC0E9454
:1046B000822789E00E9482270C94C512159A60E037
:1046C00080E00E94C22686E194E00E94102761E00B
:1046D00080E00E94C2268AEB91E00E9410270C9491
:1046E000C512159A60E080E00E94C22684EC91E039
:1046F0000E94102761E081E00E94C2260E948E364F
:1047000090E062E370E00E943B3B80E3860F0E94F2
:10471000E1268EE20E94E1260E948E3690E065E05E
:1047200070E00E943B3BCB016AE070E00E943B3BA3
:10473000805D0E94E1260E948E3690E0880F991FCE
:104740006AE070E00E943B3B805D0E94E12686E5C6
:104750000E94E1260C94C512159A60E080E00E9448
:10476000C2268AE094E00E94102761E081E00E9466
:10477000C2260E946D36C82E89E2C89E812D112462
:1047800082958F7009F48AC0805D0E94E1269DECBD
:10479000C99ED12C1124D694D694D694D99E812D1D
:1047A0001124869586958695BD2DAAE08A9FB0191D
:1047B00011248B2F805D0E94E1268EE20E94E1266B
:1047C0008C2DEAE0DE9E80191124805D0E94E12696
:1047D00083E194E00E9410270C94C512159A60E0C2
:1047E00080E00E94C22687EF93E00E94102761E0DC
:1047F00080E00E94C22680910C018F3F09F465C0C1
:104800008A3008F458C0843608F04CC086EE91E037
:104810000E94102780910C010E94F22961E084E03F
:104820000E94C2268CEF93E00E9410270C94C512C0
:10483000159A60E080E00E94C2268EEE93E00E940E
:10484000102761E080E00E94C2268BE50E94E126ED
:1048500061E087E00E94C2268DE50E94E12661E0CA
:1048600081E00E94C2268091D80690E0069667E01B
:1048700070E00E943B3BD62EA6E0CA2E09C0DA9417
:104880008FEF0E94E126CA94CC2011F40C94C5123B
:10489000D110F5CF80E20E94E126F5CF80E20E94A0
:1048A000E12675CF8DE20E94E12680910C0190E017
:1048B0000E942028B3CF85EE91E00E9410278091BE
:1048C0000C01805D0E94E126A9CF61E080E00E949A
:1048D000C22681E094E00E9410270C94C5129091AA
:1048E000C606933011F40C944009B0E1AB16BAE05F
:1048F000BB06A1F1FDE4AF16F9E0BF0631F1F60108
:104900009081D5019C93C12ED02E0C9442098091A8
:10491000C606823011F40C9440096091080A80E2C6
:1049200090E00E94163F6091070A81E290E00E94A9
:10493000163F6091100A82E290E00E94163F60915B
:104940004D0983E290E00C940A1AD6019C9195508F
:1049500090934D09C12ED02E0C944209F6019081FE
:104960009B5F9093100AC12ED02E0C944209909117
:10497000D70691FF06C0D1019C91923010F0915062
:104980009C93909105019A3010F00C946A0F9AE074
:10499000909305010C946A0F409108015091090110
:1049A00020910A0130910B014217530710F40C9427
:1049B00040090C9481142091C8060C94FC09809144
:1049C000C606823011F40C9440090E94522F0E94B6
:1049D00059040E94D22660E081E00E94C2268FE442
:1049E00092E00E94102787E090E00E94672A0E94D0
:1049F000A22E0E94D2268091C7060C94350DACE001
:104A0000FA2E3EE03DA70C94CF07C12C0C94D80B96
:104A10008AE693E00E941027F4E0CF2EA4E0DA2E7D
:104A200061E084E00E94C22680910E0190E002C005
:104A300095958795CA94E2F780FF11C08EE793E0C1
:104A40000E9410275EE0252E51E0352E0C94621353
:104A500081E693E00E941027C12CD12CE1CF82E3A4
:104A600095E00E9410274EE0242E41E0342E0C9455
:104A7000621386E593E00E94102761E080E00E94C7
:104A8000C2268BE593E00E94102761E087E00E9438
:104A9000C2260E94E0338F5C0E94E126DD24DA9476
:104AA000FE0179961F010C94621389E493E00E9441
:104AB000102761E080E00E94C22681E593E00E9419
:104AC000102761E084E00E94C2260E94FD349C0110
:104AD000ADECBCEC0E947A3B9695879596958795B0
:104AE000969587950E94202886EA92E00E941027DA
:104AF000DD24DA94DE015A961D010C9462130E94A3
:104B0000F1339091C7060C9495130E94333690911F
:104B1000C7060C948A1383E793E00E94102761E094
:104B200080E00E94C2268AE793E00E94102765E099
:104B3000C62E75E0D72E74CF83E993E00E9410272C
:104B4000CC24C394DD24D39461E084E00E94C22687
:104B50008091D70690E002C095958795CA94E2F7B8
:104B600080FF11C08EE793E00E941027E7ED2E2E04
:104B7000E6E03E2E0C946A158AE893E00E94102726
:104B8000C12CD12CE1CF82E395E00E94102777ED74
:104B9000272E76E0372E0C946A1584E392E00E946B
:104BA00010272FE130E028964EAC5FAC28972419EF
:104BB00035093695322F22273795279580E89FE0D3
:104BC000821B930B0E94063F0E943E30F82EA6E007
:104BD0005A2E851101C0FBA46BA58091D20690913D
:104BE000D3060E940E306FE18AAD0E949206FBA6AA
:104BF0000C941E1591E090830C946A0F8091C60668
:104C0000823011F40C94400948E050E060EA7FE003
:104C10008FEF99E00E940C3F0C940C1A4091080110
:104C20005091090120910A0130910B01421753075D
:104C300010F40C9440090C94A6169091C60693307B
:104C400009F460C0F60190819E3708F49ECA9EE781
:104C500090830C946A0F40910801509109012091B2
:104C60000A0130910B014217530710F40C943409D8
:104C70000C9478134FA058A424143504B9F06DA0F7
:104C80007EA02614370491F0ABA0BCA02A143B04EC
:104C900069F0D1018C91882309F476C881508C93F6
:104CA00073C88EE50E94E1260C94440F9091D706BC
:104CB00091FD02C00C943409ECCF42E0D42EC12EF9
:104CC0002FA522602FA7122F1170022F02700C94B3
:104CD0006C0E8091C606833011F40C946C0E85E145
:104CE0000E94932F882311F40C94E31681E06FA4A3
:104CF00068266FA6062D0270D02E162D1170C12EBB
:104D00000C946C0E409108015091090120910A0108
:104D100030910B014217530710F40C94400992CFC5
:104D2000662341F1429A439898B19F7098B998B11F
:104D3000282F207F922B98B9439A44E04A95F1F7A7
:104D4000439898B19F7098B998B140E1849F9001C1
:104D50001124292B28B9439A94E09A95F1F74398A6
:104D6000611103C08150833038F09DED9A95F1F7C1
:104D7000000008954298D7CF89E995E10197F1F7AE
:104D800000C00895660F660F660F860F8093D906E0
:104D90000895662321F060E080540C94902680589A
:104DA0000C94902660E081E00E9490261092D90633
:104DB000EAEDF6E080E2819396E0EA3EF907D9F762
:104DC0000895CF939091D906482F082E000C550BCB
:104DD000E92FF0E0E652F94F208130E04217530707
:104DE000A1F0C82F692F669566956695892F877003
:104DF0000E94C92661E08C2F0E9490269091D906CE
:104E0000E92FF0E0E652F94FC0839F5F903120F028
:104E10001092D906CF9108959093D906CF91089515
:104E2000CF93DF93EC012196FC018081882329F048
:104E30000E94E12689918111FBCFDF91CF910895E6
:104E4000CF93C82F87B18C6F87B942982FEF8FE52A
:104E500093E0215080409040E1F700C0000043986B
:104E600088B18F7088B988B1806388B9439A24E08B
:104E70002A95F1F743988FEF95E30197F1F700C07A
:104E80000000439A94E09A95F1F7439881EF91E0FE
:104E90000197F1F700C0439A94E09A95F1F743988F
:104EA00081EF91E00197F1F700C088B18F7088B968
:104EB000459A439A94E09A95F1F7439881EF91E0EF
:104EC0000197F1F700C060E088E20E94902660E060
:104ED00088E00E94902660E081E00E949026109277
:104EE000D906EAEDF6E080E2819396E0EA3EF90722
:104EF000D9F760E086E00E94902660E08C2FCF9189
:104F00000C9490261F93CF93DF93CDB7DEB76097B5
:104F10000FB6F894DEBF0FBECDBF182F80E1EAEACE
:104F2000F1E0DE01119601900D928A95E1F7812F53
:104F300082958F70E1E0F0E0EC0FFD1FE80FF11DAE
:104F400080810E94E1261F70E1E0F0E0EC0FFD1F80
:104F5000E10FF11D808160960FB6F894DEBF0FBEA1
:104F6000CDBFDF91CF911F910C94E1260F931F933A
:104F7000CF93DF938C019C01369527953695279525
:104F8000ABE7B4E10E947A3BAC01569547959A0194
:104F9000ADECBCEC0E947A3B9695879596958795EB
:104FA000969587959C01220F331F880F991F880FB4
:104FB000991F880F991F820F931F9A01281B390B85
:104FC000C901805D0E94E1269801ADECBCEC0E9415
:104FD0007A3BEC01D695C795D695C795D695C795DA
:104FE0009E010E947A3B9695879596958795969512
:104FF00087959C01220F331F880F991F880F991FD7
:10500000880F991F820F931F9E01281B390BC9011E
:10501000805D0E94E126CE01880F991FCC0FDD1F15
:10502000CC0FDD1FCC0FDD1FC80FD91FC8018C1B93
:105030009D0B805DDF91CF911F910F910C94E12624
:10504000CF93DF93EC018436910508F46FC09C0187
:105050003695279536952795ABE7B4E10E947A3BC4
:10506000AC01569547959A01ADECBCEC0E947A3B99
:105070009695879596958795969587959C01220F8D
:10508000331F880F991F880F991F880F991F820F50
:10509000931F9A01281B390BC901805D0E94E126EC
:1050A0009E01ADECBCEC0E947A3BAC015695479555
:1050B00056954795569547959A010E947A3B969545
:1050C000879596958795969587959C01220F331F16
:1050D000880F991F880F991F880F991F820F931FA0
:1050E0009A01281B390BC901805D0E94E1269E01AF
:1050F000ADECBCEC0E947A3B96958795969587958A
:10510000969587959C01220F331F880F991F880F52
:10511000991F880F991F820F931F9E01281B390B1F
:10512000C901805DDF91CF910C94E12680E20E945D
:10513000E126CA30D10508F0B3CF80E20E94E12613
:10514000D6CFCF93DF93EC01883E23E0920708F49B
:105150009EC09C01369527953695279536952795BF
:10516000A5ECB0E20E947A3BAC01529542954F709B
:1051700045275F7045279A01ADECBCEC0E947A3B55
:105180009695879596958795969587959C01220F7C
:10519000331F880F991F880F991F880F991F820F3F
:1051A000931F9A01281B390BC901805D0E94E126DB
:1051B0009E013695279536952795ABE7B4E10E9479
:1051C0007A3BAC01569547959A01ADECBCEC0E9438
:1051D0007A3B9695879596958795969587959C01A8
:1051E000220F331F880F991F880F991F880F991F4F
:1051F000820F931F9A01281B390BC901805D0E9401
:10520000E1269E01ADECBCEC0E947A3BAC015695C8
:10521000479556954795569547959A010E947A3B32
:105220009695879596958795969587959C01220FDB
:10523000331F880F991F880F991F880F991F820F9E
:10524000931F9A01281B390BC901805D0E94E1263A
:105250009E01ADECBCEC0E947A3B969587959695A5
:105260008795969587959C01220F331F880F991F6C
:10527000880F991F880F991F820F931F9E01281B6B
:10528000390BC901805DDF91CF910C94E12680E25A
:105290000E94E126C436D10508F08ACF80E20E9440
:1052A000E126CA30D10508F0ACCF80E20E94E126A9
:1052B000CFCF0F931F93CF93DF938C019C01369533
:1052C00027953695279536952795A5ECB0E20E944F
:1052D0007A3BAC01529542954F7045275F70452748
:1052E0009A01ADECBCEC0E947A3B96958795969519
:1052F0008795969587959C01220F331F880F991FDC
:10530000880F991F880F991F820F931F9A01281BDE
:10531000390BC901805D0E94E126980136952795D9
:1053200036952795ABE7B4E10E947A3BAC015695E0
:1053300047959A01ADECBCEC0E947A3B9695879517
:1053400096958795969587959C01220F331F880F18
:10535000991F880F991F880F991F820F931F9A0119
:10536000281B390BC901805D0E94E1269801ADEC34
:10537000BCEC0E947A3BEC01D695C795D695C795B3
:10538000D695C7959E010E947A3B969587959695EE
:105390008795969587959C01220F331F880F991F3B
:1053A000880F991F880F991F820F931F9E01281B3A
:1053B000390BC901805D0E94E126CE01880F991F3B
:1053C000CC0FDD1FCC0FDD1FCC0FDD1FC80FD91F89
:1053D000C8018C1B9D0B805DDF91CF911F910F91B8
:1053E0000C94E126CF93C82F8A3098F480E20E9473
:1053F000E1268DECC89F812D112486958695869592
:105400009AE0899FC01911248C2F805DCF910C9454
:10541000E1269DEC899F812D1124869586958695A0
:10542000899F912D11249695969596952AE0929FA5
:1054300080191124805D0E94E126DBCFCF93DF939A
:10544000D82F9DEC899FC12D1124C695C695C69570
:10545000C99F912D11249695969596958C2F2AE0AB
:10546000929F80191124805D0E94E1268D2F9AE081
:10547000C99F80191124805DDF91CF910C94E126A2
:10548000FF920F931F93CF93DF93F62ED72F880FA2
:10549000880F880FC0E4C80F60E08C2F0E94902610
:1054A0000F2D1D2FD8E0DC0F60E08C2F0E9490267E
:1054B00061E0F80181918F010E949026CF5FCD13AA
:1054C000F3CFDF91CF911F910F91FF900895009737
:1054D00089F020E030E0A8954FEF5FE563E04150B0
:1054E00050406040E1F700C000002F5F3F4F82173F
:1054F000930789F7089562EF74E086E00E94402ADE
:105500006AEE74E087E00C94402A6AED74E081E072
:105510000E94402A62ED74E082E00C94402ACF930E
:105520000E94D2266AEC74E080E00E94402A62EC7D
:1055300074E081E00E94402A6AEB74E082E00E94FD
:10554000402A62EB74E083E00E94402A6AEA74E039
:1055500084E00E94402A6AE974E085E00E94402AC3
:1055600062E874E086E00E94402A6AE674E087E020
:105570000E94402A60E080E00E94C226C0E08C2F9A
:105580000E94E126CF5FC830D1F761E080E00E9441
:10559000C22689E594E00E94102788E090E00E94EE
:1055A000672A62E974E085E00E94402A6AE774E0B5
:1055B00086E00E94402A62E674E087E00E94402A6A
:1055C00084E090E00E94672A62EA74E084E00E942E
:1055D000402A6AE874E085E00E94402A62E774E0AD
:1055E00086E00E94402A8FE090E0CF910C94672AD9
:1055F000CF93DF9397FD04C0DF91CF910C9459298D
:10560000EC0183E70E94E126CE019F77DF91CF91E5
:105610000C94B627CF939091EA06981771F0C82F93
:10562000823011F160F08330D1F0843021F40E9497
:10563000852A0E940C32C093EA06CF9108958130EA
:10564000D1F70E9477360E94852A0E94353462EE97
:1056500074E085E00E94402AC093EA06EECF0E94E3
:105660000334C093EA06E9CF0E94852A0E947B2A70
:10567000C093EA06E2CF8CE00E942027159A0E9490
:105680008F2A0E94D2261092EA0681E00C940A2BFF
:10569000CF92DF92EF92FF922BED3FE049EC50E486
:1056A0000E94063D6B017C0120E030E0A9010E94D0
:1056B000113C87FD71C023E839EF42E25FE3C70187
:1056C000B6010E94D23D0E94883C6130710509F408
:1056D00070C00CF45AC06230710569F16330710515
:1056E00009F05FC0A70196016BED7FE089EC90E4C3
:1056F0000E94A43B9B01AC010E94D23D6B017C0146
:105700002FED32EB46E15DE30E94D23D22EC3CEB13
:105710004DEF5EE30E94A43BA70196010E94D23D9B
:1057200021EE38ED4FE75FE30E94A53BFF90EF903D
:10573000DF90CF9008952BED3FE049E450E4C7019E
:10574000B6010E94A43B9B01AC010E94D23D6B01BB
:105750007C012FED32EB46E15DE30E94D23D22EC6D
:105760003CEB4DEF5EE30E94A43BA70196010E9433
:10577000D23D21EE38ED4FE75FE30E94A53B905804
:10578000FF90EF90DF90CF900895672B51F4A70121
:105790009601C701B601B0CFF7FAF094F7F8F0948C
:1057A0008ACF60E070E0CB01FF90EF90DF90CF9068
:1057B0000895A70196016BED7FE089E490E4C1CFE5
:1057C0009B01AC016BED7FE089EC9FE30E94A43B61
:1057D0000C94482B80E681B912B889E084B985B170
:1057E000806F85B985B1866085B98FEF87B918B8A4
:1057F00080EF8AB91BB808958091EC06E1E0E80FCC
:10580000E093EC068E2F90E0FC013197E431F10536
:1058100030F4E658FF4F0C94713B1092EC0608955B
:105820008091120A853051F1873009F18111F7CF4B
:105830005E985F9808958091120A8430F9F020F103
:105840008630A9F0C8F08730A9F008958091120A37
:105850008630B8F4843080F4813071F0823051F0B9
:1058600008958091120A843049F0863049F45E9A96
:1058700008955F985E9808955F9808955F9A0895D7
:1058800008958830B8F308958130C1F3823079F3F8
:1058900008951DBAE9E6F0E08081856080835C9A16
:1058A0008CEC9AE00197F1F700C0000089B18C7090
:1058B00090E095958795959587958093110A83E05B
:1058C0008DBB08951DBA5C9808951F920F920FB674
:1058D0000F9211240BB60F922F933F934F935F9328
:1058E0008F939F93EF93FF93CF93DF93CDB7DEB763
:1058F0002897DEBFCDBF89B18C7090E095958795D4
:105900009595879531E03D8343E04E831F8252E0B9
:10591000588759831A824B833C833091110A83172D
:10592000A1F03091110A3370FE01E30FF11D3581B2
:10593000831721F13091110A3370FE01E30FF11D3D
:105940003181831729F11092F8068093110A289665
:105950000FB6F894DEBF0FBECDBFDF91CF91FF91A0
:10596000EF919F918F915F914F913F912F910F9068
:105970000BBE0F900FBE0F901F9018952091F80648
:10598000222319F32091F80621502093F806DDCF49
:105990002091F8062830C8F62091F8062F5F209352
:1059A000F806D3CFE4E6F0E080818E7F80838FE835
:1059B00080937E0080E480937C00EAE7F0E086E359
:1059C000808310927B008081886580831092F0062E
:1059D00008951F920F920FB60F9211242F933F93A9
:1059E0008F939F9320917800309179008091EE06FB
:1059F0009091EF06820F931F9093EF068093EE062F
:105A00008091ED068F5F8093ED068091ED068034E6
:105A100028F080917A008F7780937A009F918F9100
:105A20003F912F910F900FBE0F901F90189580916E
:105A30007A0087FD07C0E091EB068E2F90E08D3055
:105A4000910508F00895FC01E257FF4F0C94713B5B
:105A50008091EE069091EF060024880F991F001C9C
:105A6000880F991F001C892F902D9093EF0680932B
:105A7000EE068091EE069091EF06AC01440F551FA3
:105A8000440F551F480F591F9A01A3E4B8E00E9424
:105A90007A3B481B590B56954795840F951F929555
:105AA00082958F7089279F7089270E9494368091F4
:105AB000EB068F5F8093EB06089587E480937C006C
:105AC00080937C001092EF061092EE061092ED0685
:105AD00080917A00806C80937A008091EB068F5FD2
