:100000000C94C7000C94FC230C94FC230C94E60085
:100010000C94E6000C944D020C94E6000C94E6005F
:100020000C94E6000C94E6000C94E6000C94E600B8
:100030000C94E6000C94E6000C94E6000C94E600A8
:100040000C94C0020C94E6000C94E6000C94E600BC
:100050000C94D6270C94D6280C94E6000C94E60059
:100060000C9480240C94E6000C94E6000C94E600BA
:100070000C94E6000C94E6000C94E6000C94E60068
:100080000C94E6000C94E6000C94E600A10D991483
:100090003A0D610E0B0EB40EEC0CB20C5C0C870C1E
:1000A000330CE50B000EA10D6D0D3A0D610E0B0E1C
:1000B000B40EEC0CB20C5C0C870C330CE50B000E90
:1000C000A10D321B3A0D610E0B0EB40EEC0CB20CEE
:1000D0005C0C870C330CE50B000EA00DAF1B390D2B
:1000E000600E0A0EB30EEB0CB10C5B0C860C320CDE
:1000F000E40BFF0D5B180315581855185218AC1770
:1001000080173817F016AA16A7167B165E18A10DD1
:10011000E60E3A0D610E0B0EB40EEC0CB20C5C0C3C
:10012000870C330CE50B000E9E10931088107D1089
:10013000721067105C10511046103B1030102510E3
:100140001A100F100410EB0FFE0EA910A723B223F4
:10015000A723BD23A623C823A623BD23A623D023DC
:10016000A623A623A623A623A623A623A623A62347
:10017000A623A4237625592556254C2549253D251A
:100180003A25272524251125FB24BF247925112470
:100190001FBECFEFD0E4DEBFCDBF14E0A0E0B1E0E2
:1001A000E0E6F8E500E00BBF02C007900D92A03D2D
:1001B000B107D9F727E0A0EDB4E001C01D92A03D42
:1001C000B207E1F70E94E3060C942E2C0C94000079
:1001D00068279091D0042091D104292726232093C9
:1001E000D104909596239093D0046095622B962B22
:1001F0009095892708950F931F93CF93DF93CDB7E1
:10020000DEB7A9970FB6F894DEBF0FBECDBF8E0143
:10021000075D1F4F20E044E1BE016B5E7F4F84EC21
:1002200097E00E94F12A882379F08E899091EA0460
:10023000891709F490C09091EB04891729F08D89F2
:100240008F3F69F0981759F0A9960FB6F894DEBF62
:100250000FBECDBFDF91CF911F910F9108950F89F0
:10026000002309F480C010E020E030E09DEF910F02
:10027000923060F0E5E1F0E0EC0FFD1FE10FF11DC1
:100280006081C9010E941F2A9C010F891F5F1017FE
:1002900068F3832F90E0498D50E048175907A1F685
:1002A0003327888D90E02817390771F68A8D8134BD
:1002B00009F49FC0873509F47BC0823509F4CFC0AB
:1002C000863509F4A8C0883509F464C0843509F47A
:1002D0004FC08F7D863509F0B7CF9E898091EA04A3
:1002E0009813B2CF89A5809319018C8D90E0A0E07E
:1002F000B0E0DC01992788272E8DAC01BD01422B8F
:100300002D8D30E0922F8827A0E0B0E0842B952B34
:10031000A62BB72B8093BD079093BE07A093BF0772
:10032000B093C00748E050E060E270E086E097E0FC
:100330000E94DE2B10920E07402F50E0043108F08F
:10034000A6C04C505109BE016F5D7F4F86E097E01B
:100350000E94D52B79CF92E39093EC049091EB041B
:1003600089136DCF71CF80E090E020E030E093CF33
:10037000809100018F3F49F09E89891731F02091CB
:10038000EA04921361CF81115FCFCE0145960E949E
:100390008A275ACFF894A89584B7877F84BF809125
:1003A000600088618093600088E080936000FFCFE8
:1003B0008E89898388E08B8387E78E838B8D6C8D14
:1003C00090E00E94132C8B8D8F839C8D98878111D8
:1003D00061C080E090E00E94F52B8093EB048A835B
:1003E0004B81BE016F5F7F4F8AEC97E00E94E92A44
:1003F0002BCF8E8989838091EB048A8386E08B835F
:1004000081E68E8346E0BE016F5F7F4F8AEC97E006
:100410000E94E92A19CF8E8989838091EB048A830F
:100420008FE08B8386E78E8380E88F8389EA8887D5
:1004300080E989878DEF8A8781E08B8782E08C87CE
:1004400083E48D8783E58E8784E58F874FE0BE0147
:100450006F5F7F4F8AEC97E00E94E92AF5CE8E8984
:1004600089838091EB048A8388E08B8382E78E8383
:100470008B8D8F8390E00E94F52B888748E0BE012A
:100480006F5F7F4F8AEC97E00E94E92ADDCE48E05B
:1004900050E059CF8091EB04A2CF1F920F920FB67C
:1004A0000F9211240F900FBE0F901F90189585FD8D
:1004B00016C081E08093DF049091DE049817C1F0AC
:1004C00082E390E0909307018093060180910601FA
:1004D000909107019093050180930401089584FD94
:1004E00020C082E08093DF049091DE049813E8CF6F
:1004F0008091DD04853608F1809106019091070115
:100500000A97F8F48091060190910701059730F45D
:1005100085E090E090930701809306011092DD043E
:10052000089586FF06C087FD16C084E08093DF042F
:10053000C3CF83E08093DF04BFCF8F5F8093DD0460
:10054000089580910601909107010A979093070101
:1005500080930601D7CF1092DF04B2CF9091D304DD
:1005600082FF07C09B7F81FD07C092609093D304F8
:100570000895946081FFF9CF9D7F9093D3040895EF
:100580001F920F920FB60F9211240BB60F922F935A
:100590003F934F935F936F937F938F939F93AF930B
:1005A000BF93EF93FF938091E10481608093E10416
:1005B0008091BC078F5F8093BC078A3008F440C0ED
:1005C0001092BC078091E5049091E6040196909307
:1005D000E6048093E5048091EC04882329F080915F
:1005E000EC0481508093EC048091E3049091E40446
:1005F000892B49F08091E3049091E4040197909352
:10060000E4048093E3040E9493238091D20488231E
:1006100019F081508093D2048091A9058F5F809357
:10062000A9052091A90580911A0130E090E0880F7A
:10063000991F880F991F2817390794F50E940F27D3
:100640008091E204882329F08091E2048150809314
:10065000E2042091040130910501809106019091FE
:1006600007012817390748F480910401909105018A
:1006700001969093050180930401FF91EF91BF9142
:10068000AF919F918F917F916F915F914F913F912A
:100690002F910F900BBE0F900FBE0F901F901895CB
:1006A0001092A905CBCFCF93DF9383E090E00E9417
:1006B000F52BC82F82E090E00E94F52B2C2F30E024
:1006C000A901582B4A30510508F465C1453651053A
:1006D00008F0D9C150930301409302018DE190E0ED
:1006E0000E94F52B8F3008F44DC18093010181E108
:1006F00090E00E94F52B90E0009709F433C18F3F02
:10070000910509F4E0C18436910508F0BFC148E5C0
:1007100052E0849F9001859F300D949F300D1124ED
:100720003093FC062093FB0682E190E00E94F52BBB
:10073000C82F0E94B9278C1729F0682F82E190E01A
:100740000E94132C8EE190E00E94F52B8093000113
:1007500083E190E00E94F52B8093AA0580E090E071
:100760000E94F52B803308F441C18A3408F082C11D
:100770008093EB048FE190E00E94F52B803D08F41C
:100780002CC1803F08F06DC18093EA0480E190E0C5
:100790000E94F52BC82FD0E0CE0101970F9708F0EB
:1007A0000CC1DD27D695DC2FCC27D795C795D093E4
:1007B000B907C093B807CE010E94032C9093E904B7
:1007C0008093E80497FD1BC18031974208F039C13E
:1007D000CE0102960E94F52B80931801CE0103965C
:1007E0000E94F52B80931701CE0108960E94F52BED
:1007F00080931601CE0109960E94F52B8093150176
:10080000CE010A960E94F52B8093E704CE010B9649
:100810000E94F52B80931401CE010C960E94F52BBB
:1008200080931301CE010D960E94F52B8093120147
:10083000CE010E960E94F52B80931101CE010F96EA
:100840000E94F52B80931001CE0104960E94F52B97
:1008500080930F01CE0143960E94F52B80930E01E9
:10086000CE0105960E94F52B80930D01CE010696D0
:100870000E94F52B80930C01CE0107960E94F52B68
:1008800080930B01CE0140960E94F52B80930A01C4
:10089000CE0141960E94F52B80930901CE0142962C
:1008A0000E94F52B80930801CE0148960E94FD2BF3
:1008B0006093D8047093D9048093DA049093DB0496
:1008C000CE014C960E94FD2B6093D4047093D50406
:1008D0008093D6049093D70480E290E00E94F52B99
:1008E0008093BB0781E290E00E94F52B8093BA07CA
:1008F00082E290E00E94F52B8093C10783E290E0B2
:100900000E94F52B8093050784E290E00E94F52B6E
:10091000823008F4CBC08B3008F086C080931A0177
:10092000BE01605E7F4F48E050E08DEF96E00E9490
:10093000E52BEDEFF6E021E09EE706C090833196CF
:1009400087E0E530F80759F080818F37B8F78111DB
:10095000F6CF2083319687E0E530F807A9F7DF91DD
:10096000CF91089581E090E09093FC068093FB0680
:1009700061E081E190E00E94132C8091FB06909150
:10098000FC06C5CE8FE0809301016FE08DE190E021
:100990000E94132CACCE8AE090E0909303018093E8
:1009A000020160E082E090E00E94132C609102015D
:1009B00083E090E00E94132C91CE81E090E0909330
:1009C000B9078093B80761E080E190E00E94132CA2
:1009D000C091B807D091B907E4CE80ED8093EA04C6
:1009E00060ED8FE190E00E94132CD0CE80E38093E5
:1009F000EB0460E380E090E00E94132CBBCE9F7775
:100A00008038910508F4E4CE8FE790E09093E904F4
:100A10008093E8046FE770E0CE010E94292CC0911A
:100A2000B807D091B907D4CE8AE080931A016AE062
:100A300084E290E00E94132CC091B807D091B907CE
:100A40006FCF8FE097E29093E9048093E8046FE022
:100A500077E2CE010E94292CC091B807D091B90746
:100A6000B7CE8FEE8093EA046FEE8FE190E00E94A4
:100A7000132C8CCE89E48093EB0469E480E090E051
:100A80000E94132C77CE84E690E087CF83E690E037
:100A90009093FC068093FB0663E681E190E00E9460
:100AA000132C8091FB069091FC0631CE82E080935E
:100AB0001A0162E084E290E00E94132CC091B80712
:100AC000D091B9072DCF85E090E09093FC068093FC
:100AD000FB0665E081E190E00E94132C8091FB060B
:100AE0009091FC0614CEAF92BF92CF92DF92EF921C
:100AF000FF920F931F93CF93DF93A89560E082E05E
:100B000090E00E94132C6AE083E090E00E94132C96
:100B10006FE08DE190E00E94132C65E081E190E0B0
:100B20000E94132C64E682E190E00E94132C63EF94
:100B300083E190E00E94132C60E380E090E00E944B
:100B4000132C60ED8FE190E00E94132C60E08EE1A9
:100B500090E00E94132C65E084E290E00E94132C48
:100B600060E080E190E00E94132CC0E8D0E087E0D4
:100B7000A82E97E1B92E27E2C22E37E3D32E47E401
:100B8000E42E57E5F52E07E617E7A895D093B907A9
:100B9000C093B80763E070E0CE010E94292C8091D9
:100BA000B8079091B90762E002960E94132C8091D9
:100BB000B8079091B90761E003960E94132C8091C9
:100BC000B8079091B90760E808960E94132C8091AD
:100BD000B8079091B90760E809960E94132C80919C
:100BE000B8079091B90760E00A960E94132C809193
:100BF000B8079091B90760E80B960E94132C80917A
:100C0000B8079091B90760E80C960E94132C809168
:100C1000B8079091B90760E80D960E94132C809157
:100C2000B8079091B90760E00E960E94132C80914E
:100C3000B8079091B90760E80F960E94132C809135
:100C4000B8079091B9076AE004960E94132C80912E
:100C5000B8079091B90760E843960E94132C8091E1
:100C6000B8079091B90769E005960E94132C80910E
:100C7000B8079091B90768E006960E94132C8091FE
:100C8000B8079091B90760E807960E94132C8091ED
:100C9000B8079091B90765E040960E94132C8091A7
:100CA000B8079091B90766E041960E94132C809195
:100CB000B8079091B90769E042960E94132C809181
:100CC000B8079091B90740E050E0BA0148960E94F9
:100CD000212C8091B8079091B90740E050E0BA010B
:100CE0004C960E94212CA092FD06B092FE06C09266
:100CF000FF06D0920007E0920107F09202070093EE
:100D00000307109304076091B8077091B907605EFC
:100D10007F4F48E050E08DEF96E00E94092CC058CC
:100D2000DF4FC11588E0D80709F02FCFA895DF91D4
:100D3000CF911F910F91FF90EF90DF90CF90BF90D8
:100D4000AF900C94530314BEA8959EE088E10FB6B3
:100D5000F894A895809360000FBE90936000A895CA
:100D60001092EC048FEF809319010E9453030E94AC
:100D700054230E9469240E94E02316BC8CE687BDA0
:100D80001092BC071092E6041092E50482E084BD44
:100D900085E085BDEEE6F0E0808182608083239A65
:100DA0000895CF93DF9397FD04C0DF91CF910C940A
:100DB0009921EC0183E70E942D1FCE019F77DF91DF
:100DC000CF910C94F61FCF93DF93CDB7DEB7C0540D
:100DD000D1090FB6F894DEBF0FBECDBF80900B05D2
:100DE0008AAA40900A059090E0049CAA0E94A3065B
:100DF0008091B8079091B90780589109880F892F81
:100E0000881F990B9195AA24A394A80EAEA2809056
:100E1000E8049090E9049DA68CA68091EB048E8F47
:100E20008091EA048D8F809100018C8F2091FB06C8
:100E30003091FC063695279536952795369527955A
:100E4000AFE4BBE10E94B22B969587959695879566
:100E5000969587958B8F0E94CE279DEC899F812D3B
:100E600011248695869586958A8F2091020130916E
:100E70000301ADECBCEC0E94B22B9695879596953C
:100E8000879596958795898F28988FB7F8942091A4
:100E9000FB063091FC063093E4042093E3048FBFFB
:100EA0001698A89540E16BEA75E08AEC97E00E94FD
:100EB000C32A48E06FE077E084EC97E00E94C32A01
:100EC0000E9409297894A8958FEF89838091EB047B
:100ED0008A838FE08B8386E78E8380E88F8389EA1D
:100EE000888780E989878DEF8A8781E08B8782E018
:100EF0008C8783E48D8783E58E8784E58F874FE039
:100F0000BE016F5F7F4F8AEC97E00E94E92AA895A7
:100F10001092C3070E94442383B1867F8AA785B1BC
:100F2000806F85B985B1866085B94BAA9E01255E23
:100F30003F4F1901AE01425E5F4F59A748A751E0EC
:100F400059AB1DAA1EAA1FAA18AE1AA21BA21CA248
:100F50001DA2512C1FA218E1612E11E0712E1BA6BB
:100F600010E00CE018AA19A29EA0892C912C9FA633
:100F70008EA62250310938A32F8FC12CD12C760197
:100F8000C394202F052DA8952B9A2B988091E104CE
:100F900080FD76C22AAF0E94AE244091BB073091FB
:100FA0000805842F90E00497632F70E02AAD68173E
:100FB00079070CF0F9C28091D3048E7F8093D3041B
:100FC000309109054091C107341708F4D3C250E0AD
:100FD000E0910507632F70E0641B750BF4E6F69F44
:100FE000C001F79F900D11246E2F70E0641B750BEC
:100FF0000E94952BA62E4091AA0541FFC0C2E3177F
:1010000028F48091E00481608093E00443FFBEC235
:101010008091A905EA2DF0E060911A010E94892BC8
:1010200090E0019634E1389FB001399F700D112492
:101030006E177F070CF08FC28091D3048860809375
:10104000D30480910A0542FF4DC2813009F449C2A0
:1010500008F400C4823009F045C2E1E04E1611F4F4
:101060000C94761681E044FD41C2BB24B3945090A9
:101070000B05482E013009F458C2043009F48EC320
:10108000053009F47BC32AAF0E945A272AAD822F6C
:1010900090E08D30910508F468C23091DF041111A1
:1010A00004C0313009F4FFC110E03093DE04A8958C
:1010B00084EC97E02AAF0E94D92A2AAD811188C218
:1010C000A8958091EC04811178C21092BD0710920E
:1010D000BE071092BF071092C0078FEF80931901CF
:1010E00089E0E0EBF3E0A6E0B7E001900D928A958D
:1010F000E1F787E08093C3074091D30440FF31C2FA
:101100008091180187FD2DC28F714601570104C0DF
:10111000880C991CAA1CBB1C8A95D2F7D501C40166
:1011200041FF12C03091170137FD0EC03F714601DB
:10113000570104C0880C991CAA1CBB1C3A95D2F715
:1011400088299929AA29BB2942FF12C030910D0193
:1011500037FD0EC03F714601570104C0880C991C31
:10116000AA1CBB1C3A95D2F788299929AA29BB2920
:1011700043FF12C030910F0137FD0EC03F71B70120
:10118000A60104C0440F551F661F771F3A95D2F77A
:10119000842B952BA62BB72B409109053091C107C5
:1011A000431790F430910E0137FD0EC03F71B70127
:1011B000A60104C0440F551F661F771F3A95D2F74A
:1011C000842B952BA62BB72B3FEF300F323008F432
:1011D00003C2053009F438C299A090FE12C03091C4
:1011E0000A0137FD0EC03F71B701A60104C0440FCC
:1011F000551F661F771F3A95D2F7842B952BA62B88
:10120000B72BA9A0A1FE12C03091090137FD0EC075
:101210003F71B701A60104C0440F551F661F771F19
:101220003A95D2F7842B952BA62BB72BA895309106
:101230000605323009F43CC2333009F40AC23130B9
:1012400009F477C2A89530910405323009F42BC215
:10125000333009F457C2313009F42FC24091D80419
:101260005091D9046091DA047091DB04842B952BA2
:10127000A62BB72B4091D4045091D5046091D6048D
:101280007091D70440955095609570954C015D0123
:1012900084229522A622B7228AA29BA2ACA2BDA23A
:1012A0009BA8491409F4B4C188248394912C80919B
:1012B000DF04811107C08FEF840D823018F0811494
:1012C000910459F08FB7F8944091FB065091FC06B9
:1012D0005093E4044093E3048FBFA8958FB7F8942C
:1012E000A090E504B090E6048FBF2AAF0E94AC2521
:1012F0002AAD882379F0892839F4809102019091F0
:101300000301A816B90630F08091CC07882311F4A8
:101310000C94451B8AEC97E02AAF0E94D92A2AAD8B
:10132000882331F08091E204882311F40C94951BFA
:101330003FB7F8948091E3049091E4043FBF892B78
:1013400009F021CEA8951092C30780917A008F777B
:1013500080937A00289A169A88B1837088B9159874
:1013600080916E008D7F80936E005F985E9885B14E
:10137000897F85B92AAF0E94F923419840985D98EA
:1013800083B7817F846083BFF894A8950FB6F894E3
:10139000A895809160008861809360001092600041
:1013A0000FBED99A80916800826080936800809116
:1013B0006C00806F80936C0083B7816083BF7894EA
:1013C0008895F89483B78E7F83BF809168008D7F66
:1013D00080936800A8959EE088E10FB6F894A895E0
:1013E000809360000FBE90936000A8957894289831
:1013F00016980E94442316BC8CE687BD1092BC0749
:101400001092E6041092E50482E084BD85E085BD7B
:1014100080916E00826080936E0085B1866085B990
:101420000E94E02363B1667F8AA50E94E80063B151
:10143000667F0E94E80063B1667F0E94E80063B1A6
:10144000667F0E94E8008AA70E9457028AA50E9430
:10145000AE028091DF048093DE048FB7F894409150
:10146000FB065091FC065093E4044093E3048FBFC5
:101470002AADA8952B9A2B988091E10480FF8ACD04
:101480008091E1048E7F8093E10463B1667F8AA539
:101490002AAF0E94E8008AA70E9457028AA50E94EC
:1014A000AE022AAD77CD3091DE04313059F02AAF4B
:1014B0000E941E1F2AAD2F5F109205011092040199
:1014C0003091DF04409104015091050180910601A3
:1014D0009091070110E04817590708F4E6CD2CE079
:1014E000E4CD82E04816A9F144FF33C090910B058A
:1014F000B82E9111842D8111BACD8091080187FDFC
:101500002FC18F714AA15BA16CA17DA104C076950A
:101510006795579547958A95D2F740FF21C150901E
:101520000B05412C013009F0A8CD8091D20488230D
:1015300009F419C12AAF0E945A272AAD822F90E0E0
:101540008D30910508F0A9CDFC01EA5BFF4F0C94AA
:10155000A92BB82ED0CF8091D304877F8093D3045A
:1015600070CD80E090E0DC01DBCDFC01ED5AFF4F57
:101570000C94A92B4091AA0541FD41C0A12C80915A
:10158000E0048E7F8093E00443FD42CD5091BA0782
:10159000852F90E00497632F70E068177907DCF2DD
:1015A000351708F049CD4DCD341708F409CD809199
:1015B000D30481608093D30403CD8091AA0580FF7A
:1015C00004C081E08093C30797CD1092C30794CDE8
:1015D0000E94FB002AAD74CD30910C0137FDFCCD8B
:1015E0003F71B701A60104C0440F551F661F771F46
:1015F0003A95D2F7842B952BA62BB72BEDCD809166
:10160000E0048E7F8093E004E0910507A12CF7CCE5
:10161000AAA85A1049CE8AA09BA0ACA0BDA04DA9F3
:101620005EA96FA978AD84169506A606B70609F0DF
:101630003BCE3091E00491E080E08CA8831201C0A1
:1016400090E0892E982E33CE30910B0137FDC4CD1A
:10165000C7CF3091E70437FD0EC03F71B701A60137
:1016600004C0440F551F661F771F3A95D2F7842B8D
:10167000952BA62BB72B3091140137FDE3CD3F718D
:10168000B701A60104C0440F551F661F771F3A9586
:10169000D2F7842B952BA62BB72BA8953091040558
:1016A000323009F0D5CD3091110137FDD7CD1BC0B7
:1016B0003091E70437FDC6CDE2CF3091130137FDFD
:1016C0000EC03F71B701A60104C0440F551F661F2D
:1016D000771F3A95D2F7842B952BA62BB72B3091F9
:1016E000120137FDBBCD3F71B701A60104C0440F05
:1016F000551F661F771F3A95D2F7842B952BA62B83
:10170000B72BACCD3091110137FD0EC03F71B70141
:10171000A60104C0440F551F661F771F3A95D2F7E4
:10172000842B952BA62BB72B3091100137FD96CD2E
:10173000DACF3091160137FD0EC03F71B701A60117
:1017400004C0440F551F661F771F3A95D2F7842BAC
:10175000952BA62BB72B3091150137FD73CD8FCF6D
:10176000412C512C87CC2AAF0E945A272AAD822FB8
:1017700090E08D30910518F103E08FCC8091D20478
:1017800081111AC12AAF0E945A272AAD822F90E0F8
:101790008D30910508F459C000E07FCC552019F335
:1017A0002AAF0E945A272AAD822F90E08D309105F2
:1017B00008F073CCFC01E05AFF4F0C94A92BFC01FC
:1017C000E359FF4F0C94A92B03E0159A112311F450
:1017D0000C948016113011F40C94A119123011F4EC
:1017E0000C947319133011F40C944219143011F441
:1017F0000C94FA18153011F40C94B818163011F432
:101800000C947918173011F40C946618183011F4F0
:101810000C94C51A193011F40C94AC1A1A3011F446
:101820000C946D1A1B3011F40C944E1A11E0309187
:10183000DF04323009F40DC5343009F4FDC4313011
:1018400011F40C94951A2BE030CCFC01E658FF4FB4
:101850000C94A92B442011F40C94C71B44FD46CED4
:10186000B82E4BCE03E0159A111183C460E083E0DB
:101870000E940E1F84EB92E00E945C1F61E080E0FA
:101880000E940E1F8FE70E942D1F89E393E00E94A4
:101890005C1F3091DF04323009F068C43091DE04FF
:1018A000323011F40C94D01B0E941E1F3091DF04C3
:1018B00011E02AE0FACB03E0159A11110C94F61608
:1018C00060E080E00E940E1F8DE692E00E945C1FA7
:1018D00061E080E00E940E1F8FE70E942D1F86E7C7
:1018E00092E00E945C1F3091DF04323011F00C94C2
:1018F000CD1B3091DE04323011F40C94CA1B0E94CF
:101900001E1F3091DF0411E028E0CFCB03E0159AD1
:1019100011110C94B01660E084E00E940E1F87E85D
:1019200092E00E945C1F61E080E00E940E1F8FE742
:101930000E942D1F8EE592E00E945C1F3091DF0413
:10194000323011F00C94D31B3091DE04323011F49C
:101950000C94771C0E941E1F3091DF0411E029E0D7
:10196000A4CB03E0159A11110C943E1760E083E0BC
:101970000E940E1F88E592E00E945C1F61E080E0FB
:101980000E940E1F8FE70E942D1F8EE592E00E949D
:101990005C1F3091DF04323011F00C94A91A3091A1
:1019A000DE04323011F40C94A61A0E941E1F3091EE
:1019B000DF0411E027E079CB2AAF0E945A272AAD35
:1019C000822F90E08D30910508F067CBFC01E9573C
:1019D000FF4F0C94A92B03E0159A112311F40C94DA
:1019E00085178091DC0490E08231910508F4E7C10D
:1019F00061E080E00E940E1F87ED91E00E945C1F75
:101A000061E081E00E940E1FD3018C9187FDACC381
:101A10008F710E945E2220E03091DF04323009F4A1
:101A20001CC2333010F40C946F1D333011F40C943D
:101A3000571D343011F00C944F1D4091040150910A
:101A4000050180910601909107014817590710F48C
:101A50000C944F1DD3018C91982F9F7111F40C940D
:101A6000461D81508C93109205011092040126E0CE
:101A70001CCB03E0159A60E080E00E940E1F0E94DC
:101A8000FF25813009F468C708F4E9C7823009F4FA
:101A9000E1C7833021F483E791E00E945C1F61E09D
:101AA00080E00E940E1F0E94FF25882309F460C772
:101AB000843020F48AE791E00E945C1F0E94E525B3
:101AC0003091DF04333009F45EC7343009F4CFC7F6
:101AD000323009F4C9C722E0E2CA159A60E080E01A
:101AE0000E940E1F8BE391E00E945C1F61E080E08A
:101AF0000E940E1F013009F429C708F491C7043071
:101B000020F48CE491E00E945C1F3091DF043230BD
:101B100009F472C1333008F4CBC7333009F4BBC7C2
:101B2000343009F0B5C780910B01803809F4AFC794
:101B30005110A9C782E38093D20405E021E0AFCA27
:101B400003E060E082E00E940E1F8091E00480FDCF
:101B5000E8C64B1409F4DAC686E391E00E945C1FE4
:101B6000159A61E081E00E940E1F0E94F1260E94FA
:101B7000802380910A0187FDC2C660E087E00E9451
:101B80000E1F99A090FE44C080910A01881F8827EB
:101B9000881F94E0981B892F0E942D1F61E087E029
:101BA0000E940E1FA9A0A1FE31C080910901881FCB
:101BB0008827881F94E0981B892F0E942D1F309141
:101BC000DF04323009F48EC608F4FBC6333009F462
:101BD000E6C6343009F03BC78091DE04843009F456
:101BE00036C780910A0187FD27C78091090186FFCA
:101BF0001DC782E089A0882689A220E050CA03E0A0
:101C00000E941E1F3091DF0420E049CA83E0D5CF37
:101C100083E0C2CF03E0159A112309F44FC59E015A
:101C20002B5E3F4F912C802EA12E890160E072E047
:101C3000B72EB90C8B2D0E940E1FD8018D918D01EE
:101C4000805D0E942D1F61E08B2D0E940E1FBBA4A2
:101C50009B1409F42FC580E20E942D1F939424E069
:101C60009212E4CF1A2D082D3091DF04323009F49E
:101C70007FC708F46BC7333009F42BC7343009F041
:101C800025C7409104015091050180910601909172
:101C900007014817590708F419C7E5E1F0E0EC0F10
:101CA000FD1F8BA4E80DF11D80818A3008F4B4C5B6
:101CB00089E08083109205011092040124E0F5C9A7
:101CC00003E0159A60E080E00E940E1F81E891E039
:101CD0000E945C1F61E080E00E940E1F8EA10E94A6
:101CE0005E228AE891E00E945C1FA090B807B09045
:101CF000B9078EA59FA59695982F882797958795C4
:101D00009093B9078093B8070E94032C97FDC9C42C
:101D1000803157E2950710F08FE097E20E94D106DC
:101D2000B092B907A092B8073091DF04323009F4BD
:101D300072C708F45BC7333009F4AFC7343009F019
:101D400052C78091DE04843009F44DC72EA12230A1
:101D500008F449C721502EA323E09EA0892C912C82
:101D60009FA68EA69CC903E0159A60E011110C9401
:101D7000B31783E00E940E1F88EA91E00E945C1F67
:101D800061E080E00E940E1F8FE70E942D1F8EEA07
:101D900091E00E945C1F3091DF04323011F00C940E
:101DA000A51D3091DE04323011F40C949C1D0E946C
:101DB0001E1F3091DF041FA211E025E076C9FC014F
:101DC000EC56FF4F60E080E00C94A92B159A60E080
:101DD00080E00E940E1F8BE391E00E945C1F61E097
:101DE00080E00E940E1F87EA93E00E945C1F309102
:101DF000DF04323009F08ECE2CE05DC60E940E1F4B
:101E000088E392E00E945C1F9AE0692E91E0792EAF
:101E100061E080E00E940E1F87ED91E00E945C1F50
:101E200061E081E00E940E1FD3018C9187FDE4C028
:101E30008F710E945E2261E085E00E940E1FF30117
:101E4000808186FFD3C080E592E00E945C1F21E084
:101E50003091DF04323009F0E4CD3091DE043230CD
:101E600011F40C944F1D8091B8079091B9076091BF
:101E7000180102960E94132C8091B8079091B9071F
:101E80006091170103960E94132C8091B8079091DE
:101E9000B9076091160108960E94132C8091B8072B
:101EA0009091B9076091150109960E94132C8091B9
:101EB000B8079091B9076091E7040A960E94132C25
:101EC0008091B8079091B907609114010B960E9418
:101ED000132C8091B8079091B907609113010C966B
:101EE0000E94132C8091B8079091B907609112015C
:101EF0000D960E94132C8091B8079091B9076091BC
:101F000011010E960E94132C8091B8079091B90789
:101F1000609110010F960E94132C8091B807909148
:101F2000B90760910F0104960E94132C8091B807A5
:101F30009091B90760910E0143960E94132C8091F5
:101F4000B8079091B90760910D0105960E94132C76
:101F50008091B8079091B90760910C0106960E9494
:101F6000132C8091B8079091B90760910B010796E7
:101F70000E94132C8091B8079091B90760910A01D3
:101F800040960E94132C8091B8079091B9076091F8
:101F9000090141960E94132C8091B8079091B907CE
:101FA0006091080142960E94132C0E9453030E94E4
:101FB0001E1F60E081E00E940E1F81EA91E00E94F6
:101FC0005C1F87E090E00E94B3220E941E1F3091A8
:101FD000DF0426E066C80E940E1F80E292E00E94A5
:101FE0005C1F42E1642E41E0742E02CD84E592E054
:101FF0000E945C1F21E010CD21E088E492E02AAF2E
:102000000E945C1F2AAD08CD0E940E1F87E192E05E
:102010000E945C1F53E1652E51E0752EE9CC0E94B1
:102020000E1F80E392E00E945C1F20E1622E21E0FF
:10203000722EDECC0E940E1F89E292E00E945C1F8D
:1020400031E1632E31E0732ED3CC0E940E1F8FEF4F
:1020500091E00E945C1FE5E16E2EE1E07E2EC8CC8F
:102060000E940E1F86EF91E00E945C1FF6E16F2E2A
:10207000F1E07F2EBDCC0E940E1F8FE092E00E9407
:102080005C1F64E1662E61E0762EB2CC0E940E1FCA
:1020900088E092E00E945C1F77EE672E74E0772E56
:1020A000A7CC0E940E1F8DEE91E00E945C1FA8E05D
:1020B0006A2EA1E07A2E9CCC0E940E1F84EE91E045
:1020C0000E945C1FBBE06B2EB1E07B2E91CC0E9486
:1020D0000E1F8DED91E00E945C1F8CE0682E81E068
:1020E000782E86CC0E940E1F89ED91E00E945C1F25
:1020F0009DE0692E91E0792E7BCC0E940E1F81ED30
:1021000091E00E945C1F2EE0622E21E0722E70CCC6
:102110000E940E1F8BEC91E00E945C1F3FE0632E3B
:1021200031E0732E65CC0E940E1F86EC91E00E9478
:102130005C1F47E1642E41E0742E5ACC0E940E1FB2
:1021400081EC91E00E945C1F58E1652E51E0752EF4
:102150004FCC0E940E1F8FE392E00E945C1F89E02B
:10216000682E81E0782E54CE20E047CF2AE00C94F0
:102170005108159A60E080E00E940E1F113009F4AA
:1021800077C2123009F45BC2133009F447C214302D
:1021900009F437C2153009F42DC2163009F471C1A3
:1021A000173009F420C2183009F416C2193009F4A6
:1021B00001C21A3009F4DBC1B1E02B16B1E03B06D5
:1021C00009F495C111E0BAE12B16B1E03B0609F420
:1021D00064C161E084E00E940E1FD1018C9190E007
:1021E0000E94602028E03091DF04323009F49EC064
:1021F00008F48EC0333009F470C0343009F06AC07E
:1022000040910401509105018091060190910701D0
:102210004817590708F45EC0283049F181E090E082
:1022200001C0880F2A95EAF78095F10190818923F2
:1022300080832AE00C9455088091DE04843009F4F0
:1022400002CB8091B70781508093B7072BE00C94A5
:1022500055083091DE04323009F4F5CA0E9419267F
:102260000E941E1F3091DF042BE00C9451088F8CCC
:1022700098A02814390451F121E0221621E03206F9
:1022800029F1D1018C91823010F081508C93809192
:1022900001018F3018F48FE0809301018B8D811143
:1022A00002C081E08B8F8A8D811102C081E08A8F0C
:1022B00080911A01823018F482E080931A01109202
:1022C0000501109204012AE00C9455088091D30472
:1022D00080FDD7CF2AE00C9455084091040150911D
:1022E000050180910601909107014817590790F365
:1022F000283009F499C081E090E001C0880F2A9548
:10230000EAF7F1019081892B80832AE00C9455082B
:10231000313001F73091DE043130E1F21F5F0E946D
:102320001E1F3091DF042AE00C9455083091DE0422
:10233000323081F26B8D81E190E00E94132C8A8D06
:10234000880F682F660F660F680F82E190E00E9489
:10235000132C60911A0184E290E00E94132C60918A
:10236000AA0583E190E00E94132C609101018DE1A8
:1023700090E00E94132C898DBAE08B9FC00111243C
:102380009093030180930201692F82E090E00E9404
:10239000132C6091020183E090E00E94132C0E94B4
:1023A00053032091FB063091FC0636952795369510
:1023B000279536952795AFE4BBE10E94B22B969501
:1023C000879596958795969587958B8F0E94CE27B2
:1023D0009DEC899F812D11248695869586958A8FFF
:1023E0002091020130910301ADECBCEC0E94B22BB4
:1023F000969587959695879596958795898F0E944E
:102400001E1F60E081E00E940E1F81EA91E00E94A1
:102410005C1F87E090E00E94B3220E941E1F309153
:10242000DF042AE00C9451088F8C98A028143904FA
:1024300019F121E0221621E03206F1F0D1018C9150
:102440008F3F11F08F5F8C93898D8B3010F08AE075
:10245000898F8B8D843610F083E68B8F8A8D8A313D
:1024600010F089E18A8F80911A018B3008F427CF10
:102470008AE080931A0123CF8091D30480FF2ACF72
:10248000DDCF8EEE92E00E945C1F61E087E00E944B
:102490000E1F82ED92E00E945C1F61E084E00E94CA
:1024A0000E1F80911A01EDECBE2E8B9D812D112403
:1024B000869586958695805D0E942D1F8EE20E94EE
:1024C0002D1F90911A019B9D812D11248695869533
:1024D0008695EAE08E9F90191124892F805D0E94D5
:1024E0002D1F28E0FAE12F2EF1E03F2E7CCE11E0E7
:1024F00061E083E00E940E1F8091010199E2899FB3
:10250000812D112482958F70805D0E942D1F8EE297
:102510000E942D1F80910101ADECBA2E8B9D812D63
:1025200011248695869586958B9D912D11249695DF
:10253000969596957AE0979F80191124805D0E9468
:102540002D1F909101019B9D812D112486958695CB
:102550008695AAE08A9F90191124892F805D0E9498
:102560002D1F28E0B1E02B2EB1E03B2E3CCE81E1C7
:1025700093E00E945C1F34E024E061E084E02AAF35
:1025800039AF0E940E1F8091AA0590E039AD02C0BC
:10259000959587953A95E2F72AAD80FF12C08AE1BA
:1025A00093E02AAF0E945C1F9AEA292E95E0392E0B
:1025B0002AAD19CE88E093E00E945C1F32E022E051
:1025C000DCCF84ED91E02AAF0E945C1F8AEA282EBE
:1025D00085E0382E2AAD07CE8FEF92E00E945C1F77
:1025E00030E020E0CACF86EF92E00E945C1F31E02D
:1025F00021E0C3CF86EE92E00E945C1F33E023E02F
:10260000BCCF8DED92E00E945C1F61E087E00E94EC
:102610000E1F82ED92E00E945C1F6ACF84ED92E073
:102620000E945C1F61E087E00E940E1F82ED92E035
:102630000E945C1FBE01675E7F4F1B01CACD85EC07
:1026400092E00E945C1F61E080E00E940E1F8DEC12
:1026500092E00E945C1F61E087E00E940E1F82ED05
:1026600092E00E945C1FAE01465E5F4F1A01B1CD41
:102670008AEB92E00E945C1F61E080E00E940E1FE6
:1026800080EC92E00E945C1F61E087E00E940E1FD8
:102690008AE892E00E945C1F9E01255E3F4F19016F
:1026A00098CD9C013F772038310508F437CB8FE770
:1026B00090E834CB8EE50E942D1FD0CA60E085E003
:1026C0000E940E1F85E991E00E945C1F61E080E09E
:1026D0000E940E1F8FE70E942D1F89E991E00E9442
:1026E0005C1F3091DF04323009F0F9C03091DE0414
:1026F000323009F4F1C0ACA4BDA4B7FC93C02CA542
:102700003DA5369527953695279536952795A5ECC1
:10271000B0E20E94B22BAC01529542954F70452712
:102720005F7045279A01ADECBCEC0E94B22B9695E8
:10273000879596958795969587959C01220F331FCF
:10274000880F991F880F991F880F991F820F931F59
:10275000481B590B4D8B2CA53DA5369527953695D5
:102760002795ABE7B4E10E94B22BAC015695479593
:102770009A01ADECBCEC0E94B22B9695879596958C
:102780008795969587959C01220F331F880F991F77
:10279000880F991F880F991F820F931F481B590B91
:1027A0004E8B2CA53DA50E94B22BAC0156954795AA
:1027B00056954795569547959A010E94B22B969546
:1027C000879596958795969587959C01220F331F3F
:1027D000880F991F880F991F880F991F820F931FC9
:1027E000BA01681B790B6F8BCA01880F991F440FC0
:1027F000551F440F551F440F551F840F951F8CA460
:102800009DA4881A990A888E0E941E1F3091DF04A9
:1028100011E024E00C945508882309F44BCA815038
:10282000808348CA83E48D8BF501FF779F0136953D
:10283000279536952795ABE7B4E10E94B22BAC0102
:10284000569547959A01ADECBCEC0E94B22B96953B
:10285000879596958795969587959C01220F331FAE
:10286000880F991F880F991F880F991F820F931F38
:10287000481B590B4E8B9F010E94B22BAC01569501
:10288000479556954795569547959A010E94B22BC4
:102890009695879596958795969587959C01220F95
:1028A000331F880F991F880F991F880F991F820F58
:1028B000931F9A01281B390B2F8BCA01880F991F70
:1028C000440F551F440F551F440F551F840F951F6C
:1028D000E81BF90BE88F98CF24E00C94540824E00F
:1028E0000C9451088091DE04823009F4B0C081E07C
:1028F00088A8811080E088AB20E00C944F0880917C
:10290000090187FF3AC90E94E52559C98091E80469
:102910009091E9040E94D10688A8882041F0159A78
:1029200020C981E391E00E945C1F159A1AC915988D
:1029300018C9159A60E080E00E940E1F8BE391E0B9
:102940000E945C1F61E080E00E940E1F85E591E01F
:102950000E945C1F01E0D9C885E691E00E945C1FDF
:1029600061E080E00E940E1F0E94FF258111A0C837
:102970008CE391E00E945C1F0E94E5253091DF040A
:10298000333009F0A2C83091DE04333009F4A3C813
:102990000E9402263091DF0422E00C944F088091BF
:1029A000DE04833009F453C080910A0187FD20C002
:1029B00086FF18C081E0B9A0B826B9A220E00C9427
:1029C0004F0880910A0186FD03C029A12E7F29A30B
:1029D0008091090186FD3BC049A14D7F49A320E0BC
:1029E0000C944F0829A1216029A320E00C944F08E2
:1029F0009091090197FFDCCF0E9402263091DF04FD
:102A000020E00C944F08159A60E080E00E940E1FB1
:102A10008BE391E00E945C1F61E080E00E940E1F4A
:102A200083E491E00E945C1F00E06FC829A122604E
:102A300029A320E00C944F088091090187FFD7C893
:102A40000E940E263091DF0420E00C944F0820E015
:102A50000C944F088CE691E00E945C1F20C88EE524
:102A600091E00E945C1F1BC82CE00C944F08309131
:102A7000DE04343009F42FC80E940E263091DF04A2
:102A800022E00C944F0804E021E00C944F0800E091
:102A900021E00C944F0880910B01803899F00111CE
:102AA000F7CF82E38093D20401E021E00C944F0839
:102AB000313071F721E0043011F00C944F0803E03D
:102AC0000C944F0802E021E00C944F0824E00C9491
:102AD00055084091040150910501809106019091A3
:102AE00007014817590790F38BA4811003C08D8903
:102AF000893049F1E5E1F0E0EC0FFD1F9BA4E90D01
:102B0000F11D8081893010F48F5F80838D898A3038
:102B100008F4D0C82E898F893AE0839FC001112420
:102B200044E6249F800D911D1124288D820F911D54
:102B30008038910534F081E08E8B82E08F8B87E0C6
:102B4000888F33E0B7C883E48D8BE4CF313009F050
:102B5000BDCF8091DE04813009F4B8CF2BA52F5F63
:102B60002BA7243008F4B2CF1BA624E00C94550800
:102B70003091DE04323009F4A9CF8D898A3008F40F
:102B80009EC08E896F892AE0629FB001112434E6CD
:102B9000839F600D711D1124888D680F711D7068F1
:102BA0008091B8079091B9070E94292C0E94530385
:102BB0008090E8049090E9049DA68CA60E941E1FB8
:102BC00060E081E00E940E1F81EA91E00E945C1F9C
:102BD00087E090E00E94B3220E941E1F3091DF0424
:102BE00024E00C94510823E00C944F083130D9F7BD
:102BF000C50180589109880F892F881F990B9195DD
:102C0000AA24A394A80EAEA223E08A2C912C9FA6FE
:102C10008EA60C944F083091DE04323021F36EA161
:102C200080E190E00E94132C0E9453038091B8072A
:102C30009091B90780589109880F892F881F990BA7
:102C40009195AA24A394A80EAEA20E941E1F60E034
:102C500080E00E940E1F8DE891E00E945C1F61E001
:102C600080E00E940E1F68E0B62E81E090E00E9496
:102C7000B3228EE20E942D1FBA94B110F6CF83E0EA
:102C800090E00E94B3223091DF042CE09EA0892CBA
:102C9000912C9FA68EA60C944F088091DE04833061
:102CA00009F4A1CF6EA16F3008F09DCF6F5F6EA3C6
:102CB00023E0862E912C9FA68EA60C944F082E8979
:102CC0009F8948EE53E0849FB001859F700D1124C9
:102CD00044E6249F600D711D11245AE0959F600DFC
:102CE000711D1124888D680F711D5ACFBB24B394B8
:102CF00081E00C94370800E0159A11110C94EA0B4E
:102D000060E083E00E940E1F8FE193E00E945C1F51
:102D100061E080E00E940E1F8FE70E942D1F89E373
:102D200093E00E945C1F3091DF04323009F02AC426
:102D30003091DE04323009F422C40E94C7220E947E
:102D40001E1F3091DF0411E02BE00C94550800E0C9
:102D50000C94330C00E0159A112311F40C948B0C95
:102D6000159A60E080E00E940E1F113009F4AEC594
:102D7000123009F499C5133009F47AC511E0309185
:102D8000DF04323009F441C508F431C5333009F4A9
:102D900010C5343009F00AC5409104015091050175
:102DA00080910601909107014817590708F4FEC465
:102DB000E8A5F9A58081882311F0815080838E8D4C
:102DC000803310F480E38E8F8D8D803D10F480ED84
:102DD0008D8F109205011092040129E00C94550882
:102DE00000E0159A112311F40C94600C159A60E020
:102DF00080E00E940E1F113009F43BC6123009F426
:102E00002BC6133009F413C6143009F4FBC52BEBA1
:102E1000822E27E0922E38E0A32E35E0B32E11E06B
:102E200060E087E00E940E1FD4018C918F3F09F46F
:102E3000E5C5F5019081981708F0DEC583E00E9492
:102E40002D1F61E085E00E940E1FD5018C9190E05E
:102E50000E94F61F3091DF04323009F489C5333007
:102E600009F46FC5313009F445C528E00C945508C4
:102E700000E0159A112311F40C94B60C159A60E039
:102E800080E00E940E1F86E692E00E945C1F80E3B5
:102E9000810F0E942D1F61E080E00E940E1F812F94
:102EA00090E0FC01E450F94F5F01808190E00E94C6
:102EB000E1203091DF04323009F4A9C308F496C34D
:102EC000333009F481C3343009F07BC340910401ED
:102ED000509105018091060190910701481759070B
:102EE00008F46FC3D5018C91823008F466C3815019
:102EF0008C93109205011092040127E00C94550860
:102F000000E0159A11110C94F10C60E082E00E942F
:102F10000E1F8AEB91E00E945C1F61E080E00E943E
:102F20000E1F8FE70E942D1F8EEA91E00E945C1F0A
:102F30003091DF04323009F005C63091DE043230C2
:102F400009F4FDC51092DC040E941E1F3091DF04BD
:102F500011E026E00C94550800E0159A60E011237A
:102F600011F40C94B90E80E00E940E1F87ED91E0E1
:102F70000E945C1F8FA10E945E2260E085E00E949B
:102F80000E1F5FA1452F50E05CAF4BAF8091D8047E
:102F90009091D904A091DA04B091DB040FA004C091
:102FA000B695A795979587950A94D2F780FDD0C5D9
:102FB0008091D4049091D504A091D604B091D70407
:102FC0000FA004C0B695A795979587950A94D2F758
:102FD00080FFEDC685ED91E00E945C1F3091DF041B
:102FE000323009F4AAC608F444C6333009F4E7C500
:102FF000343009F0E1C54091040150910501809100
:103000000601909107014817590708F4D5C580912A
:10301000D4049091D504A091D604B091D704AC010A
:10302000BD010BAC04C076956795579547950A94FA
:10303000D2F740FF92C5B701A6010BAC04C0440F04
:10304000551F661F771F0A94D2F74A015B018094CF
:103050009094A094B09488219921AA21BB218093B7
:10306000D4049093D504A093D604B093D704809150
:10307000D8049091D904A091DA04B091DB04482BD4
:10308000592B6A2B7B2B4093D8045093D90460931F
:10309000DA047093DB04109205011092040125E01C
:1030A0000C94550800E00C940B0E00E00C94610E9B
:1030B00000E00C943A0D00E00C94A10D00E00E9499
:1030C0001E1F3091DF0420E00C944F08159A60E039
:1030D00080E00E940E1F8DE593E00E945C1F61E07E
:1030E00080E00E940E1F85E693E00E945C1F0C9416
:1030F000170C159A60E080E00E940E1F85E593E0B2
:103100000E945C1F61E081E00E940E1F0E947D23EF
:1031100090E062E370E00E94952BCB016AE070E0E2
:103120000E94952B805D0E942D1F8EE20E942D1F14
:103130000E947D2390E065E070E00E94952BCB011A
:103140006AE070E00E94952B805D0E942D1F0E9416
:103150007D2390E0880F991F6AE070E00E94952B14
:10316000805D0E942D1F86E50E942D1F0C94170C78
:10317000159A60E080E00E940E1F89E493E00E94AF
:103180005C1F61E081E00E940E1F0E94D127B82ED3
:1031900089E2B89E812D112482958F7009F451C067
:1031A000805D0E942D1F8DECB89EA12C1124A69449
:1031B000A694A694A89E812D112486958695869521
:1031C0003A2D2AE0829F30191124832F805D0E94BE
:1031D0002D1F8EE20E942D1F8B2D4AE0A49E801988
:1031E0001124805D0E942D1F82E593E00E945C1FE8
:1031F0000C94170C159A60E080E00E940E1F82E389
:1032000093E00E945C1F61E080E00E940E1F8091AD
:1032100019018F3F69F18A3008F18436B0F488E3F0
:1032200093E00E945C1F809119010E94322261E0AC
:1032300084E00E940E1F8BE393E00E945C1F0C94BD
:10324000170C80E20E942D1FAECF8DE20E942D1F31
:103250008091190190E00E946020E9CF87E393E01C
:103260000E945C1F80911901805D0E942D1FDFCF9D
:1032700061E080E00E940E1F80E493E00E945C1FEA
:103280000C94170C159A60E080E00E940E1F89E2F2
:1032900093E00E945C1F61E080E00E940E1F8BE5BE
:1032A0000E942D1F61E087E00E940E1F8DE50E94A5
:1032B0002D1F61E081E00E940E1F8091EC0490E0E0
:1032C000069667E070E00E94952BB62E36E0A32E9E
:1032D000BB2099F1BA948FEF0E942D1FAA94A110E0
:1032E000F7CF0C94170C159A60E080E00E940E1F37
:1032F0008AEB92E00E945C1F61E080E00E940E1F5A
:103300008FB7F8942091E3043091E4048FBFADECC3
:10331000BCEC0E94B22B96958795969587959695CD
:1033200087950E94E12061E085E00E940E1F85E202
:1033300093E00E945C1F0C94170C80E20E942D1FEA
:10334000CDCF159A60E085E00E940E1F5110A1C0FC
:1033500089E40E942D1F60E080E00E940E1F809192
:10336000E00480FD91C08091D30483FD8BC083E095
:103370000E942D1F8A2D843608F083E60E94322297
:1033800085E20E942D1F60E087E00E940E1FE1E0B1
:103390004E1609F473C04E1608F46CC0F2E04F12DA
:1033A00003C082E50E942D1F61E082E00E940E1F93
:1033B0008091D30482FD5CC083E00E942D1F61E0F8
:1033C00084E00E940E1F8091D30481FD4FC080E2F3
:1033D0000E942D1F61E085E00E940E1F8091D304A2
:1033E00080FD2FC080E20E942D1F61E087E00E94D7
:1033F0000E1F80910605813001F128F18230C9F05D
:10340000833019F48AE20E942D1F61E080E00E945F
:103410000E1F80910405813021F1F0F08230B9F067
:10342000833011F00C94170C8AE20E942D1F0C942B
:10343000170C82E40E942D1FE8CF84E40E942D1F08
:10344000E4CF82E0D0CF8DE20E942D1FDECF82E458
:103450000E942D1F0C94170C8DE20E942D1F0C94BE
:10346000170C84E40E942D1F0C94170C81E0B0CF40
:1034700084E0A3CF8EE40E942D1F96CF86E40E94A5
:103480002D1F92CF84E074CF81E391E00E945C1FF6
:103490007ACF80E3850D0E942D1F5DCF8091B70705
:1034A0008823B1F1159A60E080E00E940E1F86E843
:1034B00093E00E945C1F61E080E00E940E1F8EE896
:1034C00093E00E945C1F8091B707805D0E942D1FD2
:1034D0008EE70E942D1F0C94170C159A60E080E077
:1034E0000E940E1F8DE793E00E945C1F61E081E067
:1034F0000E940E1F8091BF070E94C21F8091BE07CD
:103500000E94C21F8091BD070E94C21F0C94170C1D
:103510000E941E1F60E080E00E940E1F85E993E07C
:103520000E945C1F0E947305FFCF3091DE04313092
:1035300011F40C94230C1F5F0E941E1F85E08093E2
:10354000B7073091DF042BE00C94550827E00C946A
:10355000540827E00C945108159A60E080E00E941E
:103560000E1F84E793E00E945C1F61E080E00E94F0
:103570000E1F86E097E00E945C1F0C94170C2BE056
:103580000C9454082BE00C945108159A60E080E0EC
:103590000E940E1F8CE693E00E945C1F61E081E0B8
:1035A0000E940E1F89EA0E94C21F80E90E94C21F6A
:1035B0008DEF0E94C21F0C94170C81E0F5018083EF
:1035C00098CC27E00C9455084091040150910501D6
:1035D00080910601909107014817590790F3D50192
:1035E0008C918E37D8F58F5F8C9383CC313049F72F
:1035F0003091DE04313029F31F5F193008F011E0FB
:103600000E941E1F3091DF0427E00C944F08309178
:10361000DE043230B1F26091B8077091B907605E94
:103620007F4F48E050E08DEF96E00E94092C0E9409
:1036300053030E941E1F60E081E00E940E1F81EA7A
:1036400091E00E945C1F87E090E00E94B3220E94FC
:103650001E1F3091DF0427E00C9451088EE7F5011E
:10366000808347CC159A60E080E00E940E1F8BE3B8
:1036700091E00E945C1F61E080E00E940E1F8EE9D5
:1036800093E00E945C1F0C94850D9090E0049CAA2E
:103690008091EA0489838091EB048A838FE08B8395
:1036A00083E58E838091E8049091E9049F83888765
:1036B0008091E00480FF4FC081E08987AA24A39411
:1036C0004A1409F442C082E0B82E4B14D9F139A94A
:1036D0003130D9F16DA16A877CA17B878BA18C8762
:1036E0009AA19D878091E0048E872AAF0E947D2356
:1036F0008F874B81BE016F5F7F4F8AEC97E00E94FE
:10370000E92A8FB7F8941092E6041092E5048FBF6F
:103710008AA09BA0ACA0BDA08DAA9EAAAFAAB8AE5D
:103720004BAA5AAA2AAD0C948A09A8950E9434295A
:103730008FB7F894909101019093E2048FBF2AAD66
:103740000C94980952E059ABC5CF89858068898768
:1037500041E049ABBFCF511012C01986AFCF159AC7
:1037600060E080E00E940E1F8BE391E00E945C1FEE
:1037700061E080E00E940E1F03E00C94810DE52DB6
:10378000F0E0E450F94F80818F5F898797CFB12CAB
:103790000C947D0A28E00C94540828E00C945108FD
:1037A0002AE00C94540829E00C94510829E00C9468
:1037B00055084091040150910501809106019091B6
:1037C00007014817590790F3A8A5B9A58C918F3F19
:1037D00011F08F5F8C938E8D8A3410F089E48E8F78
:1037E0008D8D803F08F4F5CA8FEE8D8FF2CA31308F
:1037F000E9F63091DE043130C9F21F5F0E941E1FCE
:103800003091DF0429E00C9455083091DE04323009
:1038100069F26E8D80E090E00E94132C6D8D8FE137
:1038200090E00E94132C6C8D8EE190E00E94132C8E
:103830000E9453038091EB048E8F8091EA048D8F58
:10384000809100018C8F0E941E1F60E081E00E9429
:103850000E1F81EA91E00E945C1F87E090E00E94C9
:10386000B3220E941E1F3091DF0429E00C945108FE
:103870008EE992E00E945C1FBC8CBB2009F453C00F
:103880005FEF61E082E0B51609F441C00E940E1FAF
:1038900081EB92E00E945C1F8B2D0E94C21FCE0123
:1038A0004C9699A788A76BCA85E992E00E945C1F95
:1038B00061E083E00E940E1F8D8D805D0E945E227C
:1038C0009E01235E3F4F39A728A759CA8CE892E092
:1038D0000E945C1F61E084E00E940E1F8E8D8F5E4F
:1038E0000E942D1FFE017E96F9A7E8A748CA29E08D
:1038F0000C9454083091DE04313009F4B6CA1F5FCD
:103900000E941E1F3091DF0428E00C9455080E948D
:103910000E1F8CEA92E00E945C1FBE01645E7F4F26
:1039200079A768A72CCA61E082E00E940E1F87EA8F
:1039300092E00E945C1FAE01445E5F4F59A748A70A
:103940001ECA8091DE04833009F48FCAB1EC8B1655
:10395000B7E09B0609F448C0F5E08F16F7E09F0634
:10396000D9F1F5018081D4018C9328E00C9455089D
:103970003091DE04323009F478CA6091BB0780E2EE
:1039800090E00E94132C6091BA0781E290E00E94BF
:10399000132C6091C10782E290E00E94132C609189
:1039A000050783E290E00E94132C0E9453030E94BB
:1039B0001E1F60E081E00E940E1F81EA91E00E94DC
:1039C0005C1F87E090E00E94B3220E941E1F30918E
:1039D000DF0428E00C945108D5018C918550809328
:1039E000050728E00C945508F50180818B5F8093D2
:1039F000C10728E00C94550884E021CA8DE20E949A
:103A00002D1F1FCA8BEC91E00E945C1F61E080E0DB
:103A10000E940E1F82E892E00E945C1F45E0842E07
:103A200047E0942E59E0A52E55E0B52EF9C98BEC50
:103A300091E00E945C1F61E080E00E940E1F8EE713
:103A400092E00E945C1F61EC862E67E0962E79E082
:103A5000A72E75E0B72EE4C98BEC91E00E945C1FA5
:103A6000EAEB8E2EE7E09E2EF9E0AF2EF5E0BF2EBA
:103A7000D7C981EC91E00E945C1FABEB8A2EA7E0D6
:103A80009A2EB8E0AB2EB5E0BB2ECAC9222351F066
:103A900086FF08C08CE1F30180830C94330D26E08F
:103AA0000C94550880E8D3018C930C94330D40910D
:103AB000040150910501809106019091070148177A
:103AC000590768F3D3018C9187FD2EC0982F9F7101
:103AD0009C31F8F48F5FF30180830C94330D313007
:103AE000F1F63091DE043130D1F28091DC048F5F49
:103AF0008093DC04823110F01092DC0410920501F6
:103B0000109204010E941E1F3091DF0426E00C94E5
:103B10005508982F9074222351F086FD08C080E448
:103B2000D3018C930C94330D1C920C94330D945E42
:103B3000F30190830C94330D25E00C94540826E097
:103B40000C94540826E00C94510825E00C9451087C
:103B500080EE91E00E945C1F41CAB701A6010BAC48
:103B600004C0440F551F661F771F0A94D2F7409573
:103B700050956095709584239523A623B723809351
:103B8000D4049093D504A093D604B093D704809125
:103B9000D8049091D904A091DA04B091DB044823B1
:103BA00059236A237B234093D8045093D90460930C
:103BB000DA047093DB046FCA25E00C945508409139
:103BC0000401509105018091060190910701481769
:103BD000590790F34091D8045091D9046091DA04C8
:103BE0007091DB04DB01CA010BAC04C0B695A7954C
:103BF000979587950A94D2F780FF54C08091D4049A
:103C00009091D504A091D604B091D70446015701F4
:103C10000BAC04C0880C991CAA1CBB1C0A94D2F7DC
:103C200021968CAE9DAEAEAEBFAE2197809490949F
:103C3000A094B094482159216A217B214093D80453
:103C40005093D9046093DA047093DB0421964CAD51
:103C50005DAD6EAD7FAD2197842B952BA62BB72B39
:103C60008093D4049093D504A093D604B093D70442
:103C700012CA313009F0A0CF3091DE04313009F49E
:103C80009BCF9FA19F5F9FA39D3108F01FA2109221
:103C90000501109204010E941E1F3091DF0425E0EF
:103CA0000C9455088091D4049091D504A091D60429
:103CB000B091D7044C015D010BAC04C0B694A7943D
:103CC000979487940A94D2F78AA29BA2ACA2BDA231
:103CD00080FC9CCF460157010BAC04C0880C991C9A
:103CE000AA1CBB1C0A94D2F721968CAE9DAEAEAE38
:103CF000BFAE219780949094A094B094882199218C
:103D0000AA21BB218093D4049093D504A093D60418
:103D1000B093D70421968CAD9DADAEADBFAD2197CC
:103D2000482B592B6A2B7B2B4093D8045093D904F2
:103D30006093DA047093DB04AEC93091DE04323054
:103D400009F43ACF4091D8045091D9046091DA0433
:103D50007091DB048091B8079091B90748960E9452
:103D6000212C4091D4045091D5046091D6047091D7
:103D7000D7048091B8079091B9074C960E94212CE6
:103D80000E9453030E941E1F60E081E00E940E1FEC
:103D900081EA91E00E945C1F87E090E00E94B322DC
:103DA0000E941E1F3091DF0425E00C94510886EB21
:103DB00091E00E945C1F12C9662341F1429A439828
:103DC00098B19F7098B998B1282F207F922B98B9FD
:103DD000439A44E04A95F1F7439898B19F7098B997
:103DE00098B140E1849F90011124292B28B9439A6E
:103DF00094E09A95F1F74398611103C081508330A4
:103E000038F09DED9A95F1F7000008954298D7CFCC
:103E100089E995E10197F1F700C00895660F660FF3
:103E2000660F860F8093ED040895662321F060E00D
:103E300080540C94DC1E80580C94DC1E60E081E001
:103E40000E94DC1E1092ED04EEEEF4E080E281931D
:103E500094E0EE3FF907D9F70895CF939091ED04E0
:103E6000482F082E000C550BE92FF0E0E251FB4FD4
:103E7000208130E042175307A1F0C82F692F6695C3
:103E800066956695892F87700E94151F61E08C2FBB
:103E90000E94DC1E9091ED04E92FF0E0E251FB4F0F
:103EA000C0839F5F903120F01092ED04CF91089570
:103EB0009093ED04CF910895CF93DF93EC01219679
:103EC000FC018081882329F00E942D1F8991811196
:103ED000FBCFDF91CF910895CF93C82F97B19C6FFF
:103EE00097B942982FEF8FE593E0215080409040A2
:103EF000E1F700C00000439898B19F7098B998B15D
:103F0000906398B9439A24E02A95F1F743988FEF8C
:103F100095E30197F1F700C00000439A94E09A9569
:103F2000F1F7439881EF91E00197F1F700C0439AD0
:103F300094E09A95F1F7439881EF91E00197F1F7BA
:103F400000C098B19F7098B9459A439A94E09A95A9
:103F5000F1F7439881EF91E00197F1F700C060E03D
:103F600088E20E94DC1E60E088E00E94DC1E0E9465
:103F70001E1F60E086E00E94DC1E60E08C2FCF9167
:103F80000C94DC1E1F93CF93DF93CDB7DEB7609701
:103F90000FB6F894DEBF0FBECDBF182F80E1E1E26F
:103FA000F1E0DE01119601900D928A95E1F7812FE3
:103FB00082958F70E1E0F0E0EC0FFD1FE80FF11D3E
:103FC00080810E942D1F1F70E1E0F0E0EC0FFD1FCB
:103FD000E10FF11D808160960FB6F894DEBF0FBE31
:103FE000CDBFDF91CF911F910C942D1F0F931F9385
:103FF000CF93DF938C019C013695279536952795B5
:10400000ABE7B4E10E94B22BFC01F695E7959F0166
:10401000ADECBCEC0E94B22BAC0156954795569581
:10402000479556954795CA01880F991F440F551F0C
:10403000440F551F440F551F480F591FCF01841BB4
:10404000950B805D0E942D1F9801ADECBCEC0E9489
:10405000B22BEC01D695C795D695C795D695C79541
:104060009E010E94B22BAC015695479556954795F7
:1040700056954795CA01880F991F440F551F440F45
:10408000551F440F551F480F591FCE01841B950B18
:10409000805D0E942D1FCE01880F991FCC0FDD1F60
:1040A000CC0FDD1FCC0FDD1FC80FD91FC8018C1B23
:1040B0009D0B805DDF91CF911F910F910C942D1F6F
:1040C000CF93DF93EC018436910508F46FC09C0117
:1040D0003695279536952795ABE7B4E10E94B22B2C
:1040E000FC01F695E7959F01ADECBCEC0E94B22B6C
:1040F000AC01569547955695479556954795CA01F3
:10410000880F991F440F551F440F551F440F551F0B
:10411000480F591FCF01841B950B805D0E942D1FF6
:104120009E01ADECBCEC0E94B22BFC01F695E7952C
:10413000F695E795F695E7959F010E94B22BAC01A5
:10414000569547955695479556954795CA01880FB8
:10415000991F440F551F440F551F440F551F480FFB
:10416000591FCF01841B950B805D0E942D1F9E015E
:10417000ADECBCEC0E94B22B9695879596958795F1
:10418000969587959C01220F331F880F991F880FE2
:10419000991F880F991F820F931F9E01281B390BAF
:1041A000C901805DDF91CF910C942D1F80E20E94A8
:1041B0002D1FCA30D10508F0B3CF80E20E942D1F19
:1041C000D6CFCF93DF93EC01883E23E0920708F42B
:1041D0009EC09C013695279536952795369527954F
:1041E000A5ECB0E20E94B22BFC01F295E295EF70D3
:1041F000EF27FF70EF279F01ADECBCEC0E94B22BC4
:10420000AC01569547955695479556954795CA01E1
:10421000880F991F440F551F440F551F440F551FFA
:10422000480F591FCF01841B950B805D0E942D1FE5
:104230009E013695279536952795ABE7B4E10E9408
:10424000B22BFC01F695E7959F01ADECBCEC0E940A
:10425000B22BAC015695479556954795569547957F
:10426000CA01880F991F440F551F440F551F440F53
:10427000551F480F591FCF01841B950B805D0E946D
:104280002D1F9E01ADECBCEC0E94B22BFC01F695FB
:10429000E795F695E795F695E7959F010E94B22B75
:1042A000AC01569547955695479556954795CA0141
:1042B000880F991F440F551F440F551F440F551F5A
:1042C000480F591FCF01841B950B805D0E942D1F45
:1042D0009E01ADECBCEC0E94B22B9695879596950D
:1042E0008795969587959C01220F331F880F991FFC
:1042F000880F991F880F991F820F931F9E01281BFB
:10430000390BC901805DDF91CF910C942D1F80E2A4
:104310000E942D1FC436D10508F08ACF80E20E948A
:104320002D1FCA30D10508F0ACCF80E20E942D1FAE
:10433000CFCF0F931F93CF93DF938C019C013695C2
:1043400027953695279536952795A5ECB0E20E94DE
:10435000B22BFC01F295E295EF70EF27FF70EF278B
:104360009F01ADECBCEC0E94B22BAC015695479579
:104370005695479556954795CA01880F991F440F42
:10438000551F440F551F440F551F480F591FCF018C
:10439000841B950B805D0E942D1F980136952795F3
:1043A00036952795ABE7B4E10E94B22BFC01F69558
:1043B000E7959F01ADECBCEC0E94B22BAC01569589
:1043C00047955695479556954795CA01880F991F69
:1043D000440F551F440F551F440F551F480F591FB9
:1043E000CF01841B950B805D0E942D1F9801ADECC1
:1043F000BCEC0E94B22BEC01D695C795D695C7951B
:10440000D695C7959E010E94B22B96958795969555
:104410008795969587959C01220F331F880F991FCA
:10442000880F991F880F991F820F931F9E01281BC9
:10443000390BC901805D0E942D1FCE01880F991F85
:10444000CC0FDD1FCC0FDD1FCC0FDD1FC80FD91F18
:10445000C8018C1B9D0B805DDF91CF911F910F9147
:104460000C942D1FCF93C82F8A3098F480E20E94BD
:104470002D1F8DECC89F812D1124869586958695DC
:104480009AE0899FC01911248C2F805DCF910C94E4
:104490002D1F9DEC899F812D1124869586958695EB
:1044A000899F912D11249695969596952AE0929F35
:1044B00080191124805D0E942D1FDBCFCF93DF93E5
:1044C000D82F9DEC899FC12D1124C695C695C69500
:1044D000C99F912D11249695969596958C2F2AE03B
:1044E000929F80191124805D0E942D1F8D2F9AE0CC
:1044F000C99F80191124805DDF91CF910C942D1FED
:10450000CF92DF92EF92FF921F93CF93DF931F9290
:10451000CDB7DEB7F62E880F880F880F10E4180F7E
:1045200060E0812F79830E94DC1ECF2C7981D72E09
:10453000760188E0E80EF11C60E0812F0E94DC1E0D
:1045400061E0F60181916F010E94DC1E1F5FCE14B5
:10455000DF0491F70F90DF91CF911F91FF90EF90C3
:10456000DF90CF900895009789F020E030E0A89583
:104570004FEF5FE563E0415050406040E1F700C01D
:1045800000002F5F3F4F2817390789F708956AE425
:1045900074E081E00E94802262E474E082E00C9486
:1045A00080226AE374E083E00E94802262E374E088
:1045B00084E00C948022CF930E941E1F6AE274E074
:1045C00080E00E94802262E274E081E00E9480220A
:1045D0006AE174E082E00E94802262E174E083E09C
:1045E0000E9480226AE074E084E00E9480226AEFE8
:1045F00073E085E00E94802262EE73E086E00E9414
:1046000080226AEC73E087E00E94802260E080E014
:104610000E940E1FC0E08C2F0E942D1FCF5FC8305C
:10462000D1F761E080E00E940E1F89EB93E00E94C9
:104630005C1F88E090E00E94B32262EF73E085E0A7
:104640000E9480226AED73E086E00E94802262EC84
:1046500073E087E00E94802284E090E00E94B32211
:1046600062E074E084E00E9480226AEE73E085E0FC
:104670000E94802262ED73E086E00E9480228FE03B
:1046800090E0CF910C94B3228CE00E946C1F159A9D
:104690000E94DB220E941E1F0E9466230E94D122DC
:1046A0000E94B3250C94192680E681B912B889E0DE
:1046B00084B985B1806F85B985B1866085B98FEF82
:1046C00087B918B880EF8AB91BB8089580911C018A
:1046D000813071F040F0823029F462E674E080E0CD
:1046E0000C948022089562E574E080E00C948022AE
:1046F0006AE574E080E00C94802280910C050895B6
:1047000090911C0180911B01981731F00E94662343
:1047100080911C0180931B0160E080E00E940E1FCD
:1047200080E00C942D1F8091FF04E1E0E80FE093FE
:10473000FF048E2F90E0FC013197E431F10530F455
:10474000EA55FF4F0C94A92B1092FF040895809115
:10475000C307853051F1873009F18111F7CF5E9899
:104760005F9808958091C3078430F9F020F1863076
:10477000A9F0C8F08730A9F008958091C30786306A
:10478000B8F4843080F4813071F0823051F00895B3
:104790008091C307843049F0863049F45E9A0895C9
:1047A0005F985E9808955F9808955F9A08950895B8
:1047B0008830B8F308958130C1F3823079F30895D9
:1047C0001DBAE9E6F0E08081856080835C9A8CEC1C
:1047D0009AE00197F1F700C0000089B18C7090E079
:1047E00095958795959587958093C20783E08DBBB6
:1047F00008951DBA5C9808951F920F920FB60F92FC
:1048000011240BB60F922F933F934F935F938F9387
:104810009F93EF93FF93CF93DF93CDB7DEB72897A6
:10482000DEBFCDBF89B18C7090E095958795959549
:10483000879531E03D8343E04E831F8252E05887E5
:1048400059831A824B833C833091C2078317A1F0AE
:104850003091C2073370FE01E30FF11D3581381727
:1048600021F13091C2073370FE01E30FF11D318158
:10487000381729F110920B058093C20728960FB6BE
:10488000F894DEBF0FBECDBFDF91CF91FF91EF91C6
:104890009F918F915F914F913F912F910F900BBE00
:1048A0000F900FBE0F901F90189520910B0522239B
:1048B00019F320910B05215020930B05DDCF20919A
:1048C0000B052830C8F620910B052F5F20930B05B0
:1048D000D3CFE4E6F0E080818E7F80838FE8809301
:1048E0007E0080E480937C00EAE7F0E086E380834A
:1048F00010927B0080818865808310920305089563
:104900001F920F920FB60F9211242F933F938F9304
:104910009F938091780090917900209101053091CA
:104920000205820F931F90930205809301058091E9
:1049300000058F5F8093000580910005803428F08A
:1049400080917A008F7780937A009F918F913F9129
:104950002F910F900FBE0F901F90189580917A00A5
:1049600087FD07C0E091FE048E2F90E08D30910509
:1049700008F00895FC01E654FF4F0C94A92B809198
:104980000105909102050024880F991F001C880FD3
:10499000991F001C892F902D90930205809301058B
:1049A0008091010590910205AC01440F551F440F01
:1049B000551F480F591F9A01A3E4B8E00E94B22B7B
:1049C000481B590B56954795840F951F92958295D4
:1049D0008F7089279F70892780930C058E3608F089
:1049E0009CC0843608F4ADC081E080931C018CE04B
:1049F0008093FE04089587E480937C0080937C007C
:104A000010920205109201051092000580917A0023
:104A1000806C80937A008091FE048F5F8093FE0407
:104A20000895809101059091020590930505913AB2
:104A300008F070C0913608F47EC081E080930405D0
:104A40008AE08093FE0408955D9A82E4D7CF809136
:104A500001059091020590930705913A08F057C01F
:104A6000913608F462C081E08093060588E0809367
:104A7000FE0408955D9A83E4C1CF80910105909171
:104A80000205892F80958093080586E08093FE04B7
:104A90000895419A84E4B2CF809101059091020576
:104AA0009093090584E08093FE040895419A81E47F
:104AB000A5CF8091010590910205892F99279093A8
:104AC0000205809301058091010590910205C09730
:104AD000D0F080910105909102058037910508F58D
:104AE00010920A0582E08093FE040895409A80E4C3
:104AF00085CF809103058F3F19F08F5F8093030569
:104B00001092FE04089582E080930A05EBCF109284
:104B10000605ACCF1092040593CF82E080931C0170
:104B200066CF81E080930A05DDCF913268F082E0A4
:104B3000809306059BCF913258F082E08093040564
:104B40007FCF10921C0153CF83E0809306058ECF58
:104B500083E08093040574CF81E090910305913246
:104B600008F480E0089580910E05813021F1C8F0AD
:104B7000823019F0833059F0089562E774E085E0DF
:104B80000E9480226AE674E086E00C9480226AE645
:104B900074E085E00E9480226AE674E086E00C946E
:104BA00080226AE774E085E00E9480226AE874E06F
:104BB00086E00C9480226AE774E085E00E948022FF
:104BC00062E874E086E00C94802290910D0580915B
:104BD0000E05981731F00E94B32580910E05809341
:104BE0000D0560E087E00E940E1F85E00E942D1FEA
:104BF00061E087E00E940E1F86E00C942D1F8091DB
:104C00000E05089580910E05833020F48F5F809308
:104C10000E05089583E080930E05089580910E059A
:104C20008150833018F480930E05089510920E057C
:104C3000089568EA74E081E00E94802260EA74E0EE
:104C400082E00C948022FC01808170E0680F711D6D
:104C500091816C3371055CF09F5F01C0922F6C53A2
:104C6000710921E0290F6C337105C0F791836083CE
:104C700022819C3350F02F5F01C0232F9C5331E0E1
:104C8000320F9C33D0F722839183283158F08BEA7E
:104C9000289F812D112482958F7098E1899F20197A
:104CA000112422830895EF92FF920F931F93CF93C5
:104CB000DF9300D000D000D0CDB7DEB7FC0121815A
:104CC0003DEC239F912D11249695969596954AE05B
:104CD000949F20191124205D2D83939F212D112451
:104CE0002695269526958AE0289F90191124905D97
:104CF0009C838AE38B83662359F02281211140C073
:104D000081E3898382E38A8381E08E8389811BC06A
:104D10009281939F812D11248695869586954AE0F0
:104D2000849F90191124905D9A83839F312D1124C3
:104D30003695369536959AE0399F80191124805D15
:104D4000898390E29E838E010E5F1F4F7E0127E0D4
:104D5000E20EF11C03C0F80181918F010E942D1F0A
:104D60000E151F05C1F726960FB6F894DEBF0FBECD
:104D7000CDBFDF91CF911F910F91FF90EF900895DC
:104D80002D3050F5922F8DEC989F312D11243695B2
:104D900036953695389F812D112486958695869572
:104DA000EAE08E9F30191124832F3323C1F0805DF8
:104DB00089833DEC939F312D112436953695369598
:104DC000FAE03F9F90191124905D9A832C3008F4EB
:104DD0009BCF92E09E83B7CF94EF920FD4CF80E227
:104DE000E7CF80910F05882391F060912305862FEE
:104DF0008370833081F060FD05C064708BE195E0C5
:104E00000C945326687083E195E00C94532682E954
:104E100094E00C945C1F89E994E00C945C1F8091F1
:104E20000F05882319F0815080930F058091230589
:104E30008370813009F0089540911E0150911F0147
:104E4000E0911105F09112059A01ADECBCEC0E94C5
:104E5000B22B969587959695879596958795E80FA9
:104E6000F91FF0931205E093110520911005BC0184
:104E7000660F771F880F991F880F991F880F991F3A
:104E8000860F971F481B590B420F409310058091C6
:104E900010058B3080F280911105909112050196DA
:104EA0009093120580931105809110058A5080938C
:104EB000100508958091230580FF08C081FD06C07C
:104EC00080911105909112050A9708F408954FB743
:104ED000F8942091110530911205ADECBCEC0E94C4
:104EE000B22B96958795969587959695879520915F
:104EF0001105309112055AE0859F201931091124BE
:104F000030931205209311054FBF682F83E195E080
:104F10000C942326FC01868180931D058781809354
:104F20001C05808580931B058185809323058281E4
:104F30008E30A0F0828580931505838580931405BB
:104F4000848580931305858590E0982F8827268592
:104F5000820F911D90931F0180931E0110921205E4
:104F6000109211051092100580911D0180930F057C
:104F700008958A3038F08F3F49F08B3F58F4809382
:104F80001D0108958AE080931D01089584E68093B1
:104F90001D0108958AEF80931D01089580911D01E0
:104FA000089580911E0190911F0108951F920F9204
:104FB0000FB60F9211240BB60F922F933F934F937E
:104FC0005F936F937F938F939F93AF93BF93EF9371
:104FD000FF938091C000887191F08091C60080930A
:104FE000680510926805109225058091C6008D37DE
:104FF00009F45CC08E3709F059C082E06DC0809121
:10500000C6008D3709F47FC08E3709F462C09091D5
:10501000250591FF4BC090FF05C020E282279E7FAF
:1050200090932505909168059F3308F074C0E09136
:10503000680591E09E0F90936805F0E0E759FA4FFC
:10504000808380916805843009F474C0809168057C
:10505000853060F12091680580912405281326C0D1
:1050600083E080936805809168058217A0F490E042
:10507000E0916805F0E0E759FA4F8081980F809140
:1050800068058F5F8093680580916805821780F3BB
:105090009F3F09F455C0E9E6F5E080E4DF011D9289
:1050A0008A95E9F71092680510922505FF91EF9116
:1050B000BF91AF919F918F917F916F915F914F9130
:1050C0003F912F910F900BBE0F900FBE0F901F902E
:1050D00018958091250582601092680590E4E9E6B4
:1050E000F5E0DF011D929A95E9F780932505E0919F
:1050F000680581E08E0F80936805F0E0E759FA4F6C
:105100008EE78083D3CF8091250581FFCFCF81604B
:1051100080932505CBCF809125058D7F8093250534
:105120001092680580E4E9E6F5E0DF011D928A95BA
:10513000E9F7BCCF80916B058C5F8093240586CF07
:1051400088E08093680580916C05803849F181384A
:1051500009F0A1CFE0916805F0E0E959FA4F20810C
:10516000E0916805F0E0E759FA4F82818431E0F47C
:10517000E0916805F0E0E759FA4F428160916805D7
:1051800070E067597A4F84EC97E00E94E12AE09141
:105190006805F0E0E959FA4F8081809320017BCFC8
:1051A0008EE080936805D6CF44E1E8CF1F920F923E
:1051B0000FB60F9211240BB60F928F939F93EF931C
:1051C000FF93E091270581E08E0F80932705F0E0A3
:1051D000E85DFA4F80818093C60090912705809109
:1051E0002605981720F480912705803438F08091A7
:1051F000C1008F7D8093C10010922705FF91EF9130
:105200009F918F910F900BBE0F900FBE0F901F902C
:1052100018958FEF80932001569A5E988AB18C7F03
:105220008AB91092680580E4E9E6F5E0DF01982F7D
:105230001D929A95E9F710922705E8E2F5E0DF0163
:105240001D928A95E9F785E090E09093C5008093E0
:10525000C4001092C000E1ECF0E0108286E0809380
:10526000C20088E980830895AF92BF92CF92DF9207
:10527000EF92FF920F931F93CF93DF93CDB7DEB7DB
:105280006E970FB6F894DEBF0FBECDBF8AEC97E0E5
:105290000E94D92AE82E882349F08091C100282F46
:1052A0002072E22E85FF14C0EE24E3948E2D6E96BC
:1052B0000FB6F894DEBF0FBECDBFDF91CF911F9127
:1052C0000F91FF90EF90DF90CF90BF90AF90089537
:1052D0008E010F5F1F4F8EE1D8011D928A95E9F76D
:1052E0008EE7898381E08C838FEF8E838F8321E02B
:1052F00046E1BE01675F7F4F8AEC97E00E94632B17
:10530000AB8485E08A0D8B83B4E0BA1508F092C0B7
:10531000FE0139966F018DEFB82EBA0C9DEFF92E74
:1053200080E090E0F1E0FF1520F4D6016C910E943E
:105330001F2AF394BFEFCB1ADB0AFB10F3CF8C8745
:105340009D874A2D50E0BA01695F7F4F23E030E02E
:1053500090E083E0F801E20FF31F2081920F8F5F4E
:10536000282F30E062177307ACF7485F5F4FF801F2
:10537000E40FF51F909590831092260580E4E8E2F3
:10538000F5E0DF011D928A95E9F7E091260581E0BD
:105390008E0F80932605F0E0E85DFA4F8EE780835C
:1053A00021E030E081E07DE760E212C09131D9F088
:1053B000E091260521E02E0F20932605F0E0E85D20
:1053C000FA4F90838F5F282F30E04217530734F154
:1053D000F801E20FF31F9081933129F038F323E8AD
:1053E000290F223028F7E091260521E02E0F209387
:1053F0002605F0E0E85DFA4F7083E091260521E094
:105400002E0F20932605F0E09627E85DFA4F908353
:105410008F5F282F30E042175307D4F610922705EC
:105420008AEC97E00E946C2B8091C100806280938F
:10543000C1003CCF8AEC97E00E946C2B37CF41E053
:10544000413021F1292F22959295907F582F529526
:10545000507F26272F7030E0F901E054FB4F8295F2
:105460008F70982B80819827F901E055FB4F808140
:105470008527423011F04F5FE3CF292F30E0322FE4
:105480002227A901480F511DCA010895E92FE627D7
:10549000392F3295307F582F5295507FE295EF701B
:1054A000F0E0DF01A054BB4F82958F70832B9C915D
:1054B0009827E055FB4F808185274F5FC1CFFC01C6
:1054C0002FB7F89490818181981B892F65810E9464
:1054D000892B892F2FBF0895CF92DF92EF92FF92F1
:1054E0000F931F93CF93DF931F92CDB7DEB76C015D
:1054F000453108F044E1D6018C911396ED90FC9073
:105500001497B5E18B9FE00CF11C1124042F10E0DF
:10551000A801C70129830E94D52B44E150E0401B1C
:10552000510B60E070E0C701800F911F0E94DE2BDD
:10553000F60180810380F481E02D95E1899FE00DE3
:10554000F11D11242981248BD6018C918F5F8C93BE
:1055500015969C911597891708F01C928FB7F894AF
:10556000F60120819181291302C091E092838FBFBF
:1055700081E00F90DF91CF911F910F91FF90EF90FD
:10558000DF90CF900895CF93FC01CB01CFB7F89473
:1055900074836383458311821082128225E1429FC6
:1055A000A001112460E070E00E94DE2BCFBFCF91FC
:1055B0000895FC012281222311F0858108950C9425
:1055C0005F2AFC013281332311F080E008950C94AE
:1055D0006C2AFC012281222311F080E008950C94B2
:1055E0006C2AAF92BF92CF92DF92EF92FF920F930D
:1055F0001F93CF93DF93EC016B01B42EA22EE42E08
:10560000F12CA70160E070E0C6010E94DE2B0115BD
:10561000110511F0F80110828A81882309F44FC026
:105620008D818823A1F1EB81FC818981DF0195E1E6
:10563000899FA00DB11D112412968C91B81690F57A
:105640008981BF0195E1899F600D711D1124A7011A
:10565000C6010E94D52B0115110559F08981EB81F6
:10566000FC8195E1899FE00DF11D11248489F801E9
:105670008083A11022C08FB7F89499819F5F99838E
:105680002D81921708F019821A828FBF81E0DF9175
:10569000CF911F910F91FF90EF90DF90CF90BF902F
:1056A000AF9008958981DF0195E1899FA00DB11D1B
:1056B00011241296EC90F12CC3CF81E0E8CFCE01FB
:1056C0000E945F2AAECF0F931F9300E010E00E946C
:1056D000F12A1F910F910895CF93DF93EC018A81F6
:1056E000882399F08D81882359F08FB7F894998198
:1056F0009F5F99832D81921730F41A828FBF81E0CA
:10570000DF91CF9108951982F8CFCE010E945F2AD0
:10571000EACF991B79E004C0991F961708F0961BF1
:10572000881F7A95C9F78095089597FB072E16F480
:10573000009407D077FD09D00E94C12B07FC05D04B
:105740003EF4909581959F4F0895709561957F4F98
:105750000895EE0FFF1F0024001C0BBE0790F6916A
:10576000E02D0994A29FB001B39FC001A39F700DCB
:10577000811D1124911DB29F700D811D1124911D59
:105780000895AA1BBB1B51E107C0AA1FBB1FA61788
:10579000B70710F0A61BB70B881F991F5A95A9F7DA
:1057A00080959095BC01CD010895FB01DC0102C0FC
:1057B00001900D9241505040D8F70895DC0101C08E
:1057C0006D9341505040E0F70895DC01CB01FC019E
:1057D000F999FECF06C0F2BDE1BDF89A319600B44A
:1057E0000D9241505040B8F70895F999FECF92BDFF
:1057F00081BDF89A992780B50895A6E1B0E044E00C
:1058000050E00C94E72BA8E1B0E042E050E00C94AB
:10581000E72BDC01CB0103C02D910E94142C4150D9
:105820005040D0F70895262FF999FECF1FBA92BDA8
:1058300081BD20BD0FB6F894FA9AF99A0FBE019671
:105840000895242F0E94142C252F0E94142C0C94B0
:10585000292C0E94132C272F0C94142CF894FFCF82
:10586000FF0F0A00320032000980808008808080AB
:10587000060580060380030702FF050202960A0060
:10588000FF303132333435363738394142434445BD
:1058900046454D524700524556210020454E474946
:1058A0004E45002020204F46462020002020204F3B
:1058B0004E202020005354415254494E47004C4939
:1058C00047485420004C4F57202020004D45444964
:1058D000554D0048454156592000574549474854C1
:1058E000004C4F414420434E46003A20004C4F416B
:1058F00044494E4700534554002D20204C4F434F00
:105900000053415645442100464F524345002D2047
:105910002046554E43002D2D2D00434F4E464947FE
:1059200000484F524E0042454C4C004252414B45BC
:105930000042524B204F46460041555800454E47C5
:10594000204F4E00454E472053544F50005448526C
:1059500020554E4C4B00462E44494D2023310046E5
:105960002E44494D20233200462E484541440046EE
:105970002E444954434800522E44494D20233100BF
:10598000522E44494D20233200522E4845414400B6
:10599000522E44495443480055502042544E00442E
:1059A0004F574E2042544E002D2D20202020200005
:1059B0004C4154004D4F4D004E4F544348002D2054
:1059C0002020434647004E4F54434820005448523D
:1059D00053484F4C44002D20202043414C004C4F55
:1059E00057004849474800434F4D4D0054485254D2
:1059F0004C204944004241534520414452005449FF
:105A00004D452041445200424153450020414C4CF9
:105A100000307800505245465300534C45455000E5
:105A2000444C593A0054494D454F555400434C4B52
:105A30003A007300545820494E54564C0054582094
:105A4000484C444F46005641522042524B0042526D
:105A50004B2050574D0042524B2045535450004C60
:105A6000454420424C4E4B0052455620535741501E
:105A700000524556204C4F434B00204F4E200044CF
:105A8000494147530073656300504B542054494DBE
:105A90004500525353490020202D0064426D2000E0
:105AA0004E4F205349474E4C0046542052415449D2
:105AB0004F003A3100424154544552590056455224
:105AC00053494F4E00302E392E3130004749542073
:105AD00052455600424153452054595000424153CB
