:100000000C94C6000C946E230C946E230C94E500A3
:100010000C94E5000C944A020C94E5000C94E50065
:100020000C94E5000C94E5000C94E5000C94E500BC
:100030000C94E5000C94E5000C94E5000C94E500AC
:100040000C94BD020C94E5000C94E5000C94E500C2
:100050000C9448270C9448280C94E5000C94E50077
:100060000C94F2230C94E5000C94E5000C94E5004C
:100070000C94E5000C94E5000C94E5000C94E5006C
:100080000C94E5000C94E5000C94E5006F0D37141A
:10009000080D2F0ED90D810EBA0C800C2A0C550CB0
:1000A000010CB20BCE0D6F0D3B0D080D2F0ED90DAF
:1000B000810EBA0C800C2A0C550C010CB20BCE0D23
:1000C0006F0DF01A080D2F0ED90D810EBA0C800C91
:1000D0002A0C550C010CB20BCE0D6E0D6D1B070DCD
:1000E0002E0ED80D800EB90C7F0C290C540C000C70
:1000F000B10BCD0D0E18A1140B18081805185F17B9
:100100003317EB169B1644164116151611186F0D72
:10011000B30E080D2F0ED90D810EBA0C800C2A0CCF
:10012000550C010CB20BCE0D57104C10411036106F
:100130002B10201015100A10FF0FF40FE90FDE0F1F
:10014000D30FBA0FAF0FCB0E62101923242319233C
:100150002F2318233A2318232F231823422318234D
:1001600018231823182318231823182318231823B7
:100170001623E824CB24C824BE24BB24AF24AC24FB
:100180009924962483246D243124EB2411241FBE4A
:10019000CFEFD0E4DEBFCDBF14E0A0E0B1E0E4E4F7
:1001A000F7E500E00BBF02C007900D92AE3BB10730
:1001B000D9F726E0AEEBB4E001C01D92AE36B2072F
:1001C000E1F70E94D2060C94A02B0C940000682743
:1001D0009091BE042091BF04292726232093BF04B9
:1001E000909596239093BE046095622B962B9095E4
:1001F00089270895CF92DF92EF92FF920F931F937A
:10020000CF93DF93CDB7DEB7A9970FB6F894DEBFD3
:100210000FBECDBF8E01075D1F4F20E044E1BE0140
:100220006B5E7F4F82E696E00E94632A882379F016
:100230008E899091D804891709F491C09091D904BE
:10024000891729F08D898F3F89F0981779F0A99641
:100250000FB6F894DEBF0FBECDBFDF91CF911F91D7
:100260000F91FF90EF90DF90CF9008952F89222378
:1002700009F47DC010E040E050E09DEF910F923016
:1002800060F0E5E1F0E0EC0FFD1FE10FF11D608192
:10029000CA010E949129AC012F891F5F121768F3D0
:1002A000852F90E0698D70E06817790781F65527F2
:1002B000888D90E04817590751F68A8D813409F4EA
:1002C00096C0873509F472C0823509F4C5C08635F9
:1002D00009F49FC0883509F45BC0843509F44CC02B
:1002E0008F7D863509F0B3CF9E898091D80498130D
:1002F000AECF89A5809318018C8D90E0A0E0B0E08E
:10030000DC01992788273E8D6C017D01C32A4D8D24
:1003100050E0942F8827A0E0B0E08C299D29AE29D9
:10032000BF2980935B0690935C06A0935D06B09313
:100330005E0689E0E8EFF5E0DF011D928A95E9F7B6
:10034000422F50E0253108F49FC04C505109BE01A6
:100350006F5D7F4F88EF95E00E94472B78CF92E347
:100360009093DA049091D90489136CCF70CF80E018
:1003700090E040E050E096CF809100018F3F19F06F
:100380009E89891364CFCE0145960E94FC265FCFDB
:10039000F894A89584B7877F84BF809160008861B6
:1003A0008093600088E080936000FFCF8E8989830E
:1003B00088E08B8387E78E838B8D6C8D90E00E9425
:1003C000852B8B8D8F839C8D9887811160C080E0F9
:1003D00090E00E94672B8093D9048A834B81BE01F1
:1003E0006F5F7F4F88E696E00E945B2A30CF8E8950
:1003F00089838091D9048A8386E08B8381E68E830A
:1004000046E0BE016F5F7F4F88E696E00E945B2A60
:100410001ECF8E8989838091D9048A838FE08B8354
:1004200086E78E8380E88F838DE188878BEB8987D1
:1004300081EF8A8781E08B878C8783E48D8783E5D2
:100440008E8784E58F874FE0BE016F5F7F4F88E620
:1004500096E00E945B2AFBCE8E8989838091D90425
:100460008A8388E08B8382E78E838B8D8F8390E0F5
:100470000E94672B888748E0BE016F5F7F4F88E648
:1004800096E00E945B2AE3CE48E050E060CF809186
:10049000D904A3CF1F920F920FB60F9211240F9081
:1004A0000FBE0F901F90189585FD16C081E08093B8
:1004B000CD049091CC049817C1F082E390E0909322
:1004C00007018093060180910601909107019093A6
:1004D000050180930401089584FD20C082E080938B
:1004E000CD049091CC049813E8CF8091CB0485364D
:1004F00008F180910601909107010A97F8F4809124
:10050000060190910701059730F485E090E0909303
:100510000701809306011092CB04089586FF06C060
:1005200087FD16C084E08093CD04C3CF83E0809321
:10053000CD04BFCF8F5F8093CB04089580910601D7
:10054000909107010A979093070180930601D7CFF6
:100550001092CD04B2CF9091C10482FF07C09B7F5F
:1005600081FD07C092609093C1040895946081FF5B
:10057000F9CF9D7F9093C10408951F920F920FB6FB
:100580000F9211240BB60F922F933F934F935F93CB
:100590006F937F938F939F93AF93BF93EF93FF934B
:1005A0008091CF0481608093CF0480915A068F5F41
:1005B00080935A068A3008F440C010925A068091FF
:1005C000D3049091D40401969093D4048093D304DF
:1005D0008091DA04882329F08091DA048150809395
:1005E000DA048091D1049091D204892B49F0809152
:1005F000D1049091D20401979093D2048093D104B6
:100600000E9405238091C004882319F081508093B3
:10061000C004809197058F5F80939705209197057F
:100620008091190130E090E0880F991F880F991F81
:100630002817390794F50E9481268091D0048823D9
:1006400029F08091D00481508093D004209104013E
:100650003091050180910601909107012817390713
:1006600048F4809104019091050101969093050151
:1006700080930401FF91EF91BF91AF919F918F9172
:100680007F916F915F914F913F912F910F900BBE92
:100690000F900FBE0F901F90189510929705CBCF1B
:1006A000CF93DF9383E090E00E94672BC82F82E016
:1006B00090E00E94672B2C2F30E0A901582B4A3084
:1006C000510508F45FC14536510508F0D3C1509378
:1006D0000301409302018DE190E00E94672B8F306F
:1006E00008F447C18093010181E190E00E94672BEB
:1006F00090E0009709F42DC18F3F910509F4DAC10C
:100700008436910508F0B9C148E552E0849F900114
:10071000859F300D949F300D11243093EE0520936A
:10072000ED0582E190E00E94672BC82F0E942B27E5
:100730008C1729F0682F82E190E00E94852B8EE1D2
:1007400090E00E94672B8093000183E190E00E947B
:10075000672B8093980580E090E00E94672B8033A0
:1007600008F43BC18A3408F07CC18093D9048FE13E
:1007700090E00E94672B803D08F426C1803F08F07E
:1007800067C18093D80480E190E00E94672BC82F56
:10079000D0E0CE0101970F9708F006C1DD27D6956E
:1007A000DC2FCC27D795C795D0935706C093560614
:1007B000CE010E94752B9093D7048093D60497FDA9
:1007C00015C18031974208F033C1CE0102960E94D4
:1007D000672B80931701CE0103960E94672B8093AD
:1007E0001601CE0108960E94672B80931501CE0159
:1007F00009960E94672B80931401CE010A960E94ED
:10080000672B8093D504CE010B960E94672B8093B3
:100810001301CE010C960E94672B80931201CE012A
:100820000D960E94672B80931101CE010E960E94B7
:10083000672B80931001CE010F960E94672B809347
:100840000F01CE0104960E94672B80930E01CE010A
:1008500005960E94672B80930D01CE0106960E949B
:10086000672B80930C01CE0107960E94672B809323
:100870000B01CE0140960E94672B80930A01CE01A6
:1008800041960E94672B80930901CE0142960E94F7
:10089000672B80930801CE0148960E946F2B6093CE
:1008A000C6047093C7048093C8049093C904CE0112
:1008B0004C960E946F2B6093C2047093C304809384
:1008C000C4049093C50480E290E00E94672B80935B
:1008D000590681E290E00E94672B8093580682E2DD
:1008E00090E00E94672B80935F0683E290E00E9475
:1008F000672B8093F70584E290E00E94672B82309B
:1009000008F4CBC08B3008F086C080931901BE017B
:10091000605E7F4F48E050E08FEE95E00E94572BDD
:10092000EFEEF5E021E09EE706C09083319685E08A
:10093000E73FF80759F080818F37B8F78111F6CF7C
:100940002083319685E0E73FF807A9F7DF91CF9143
:10095000089581E090E09093EE058093ED0561E0CD
:1009600081E190E00E94852B8091ED059091EE054C
:10097000CBCE8FE0809301016FE08DE190E00E948B
:10098000852BB2CE8AE090E0909303018093020120
:1009900060E082E090E00E94852B6091020183E09C
:1009A00090E00E94852B97CE81E090E090935706CF
:1009B0008093560661E080E190E00E94852BC09113
:1009C0005606D0915706EACE80ED8093D80460EDAC
:1009D0008FE190E00E94852BD6CE80E38093D904EE
:1009E00060E380E090E00E94852BC1CE9F77803845
:1009F000910508F4EACE8FE790E09093D7048093B6
:100A0000D6046FE770E0CE010E949B2BC091560682
:100A1000D0915706DACE8AE0809319016AE084E229
:100A200090E00E94852BC0915606D09157066FCF5B
:100A30008FE097E29093D7048093D6046FE077E23B
:100A4000CE010E949B2BC0915606D0915706BDCE79
:100A50008FEE8093D8046FEE8FE190E00E94852B9B
:100A600092CE89E48093D90469E480E090E00E940A
:100A7000852B7DCE84E690E087CF83E690E090934F
:100A8000EE058093ED0563E681E190E00E94852B01
:100A90008091ED059091EE0537CE82E080931901AB
:100AA00062E084E290E00E94852BC0915606D091CE
:100AB00057062DCF85E090E09093EE058093ED05ED
:100AC00065E081E190E00E94852B8091ED05909199
:100AD000EE051ACEAF92BF92CF92DF92EF92FF92C5
:100AE0000F931F93CF93DF93A89560E082E090E08F
:100AF0000E94852B6AE083E090E00E94852B6FE0E6
:100B00008DE190E00E94852B65E081E190E00E94FC
:100B1000852B64E682E190E00E94852B63EF83E100
:100B200090E00E94852B60E380E090E00E94852B9E
:100B300060ED8FE190E00E94852B6FEF8EE190E0F9
:100B40000E94852B65E084E290E00E94852B60E0A6
:100B500080E190E00E94852BC0E8D0E087E0A82EDD
:100B600097E1B92E27E2C22E37E3D32E47E4E42ED5
:100B700057E5F52E07E617E7A895D0935706C093DB
:100B8000560663E070E0CE010E949B2B80915606D2
:100B90009091570662E002960E94852B809156063E
:100BA0009091570661E003960E94852B809156062E
:100BB0009091570660E808960E94852B8091560612
:100BC0009091570660E809960E94852B8091560601
:100BD0009091570660E00A960E94852B80915606F8
:100BE0009091570660E80B960E94852B80915606DF
:100BF0009091570660E80C960E94852B80915606CE
:100C00009091570660E80D960E94852B80915606BC
:100C10009091570660E00E960E94852B80915606B3
:100C20009091570660E80F960E94852B809156069A
:100C3000909157066AE004960E94852B8091560693
:100C40009091570669E005960E94852B8091560683
:100C50009091570668E006960E94852B8091560673
:100C60009091570660E807960E94852B8091560662
:100C70009091570665E040960E94852B809156061C
:100C80009091570666E041960E94852B809156060A
:100C90009091570669E042960E94852B80915606F6
:100CA0009091570640E050E0BA0148960E94932B7D
:100CB000809156069091570640E050E0BA014C965C
:100CC0000E94932BA092EF05B092F005C092F1051F
:100CD000D092F205E092F305F092F4050093F50549
:100CE0001093F6056091560670915706605E7F4F2F
:100CF00048E050E08FEE95E00E947B2BC058DF4F1C
:100D0000C11588E0D80709F037CFA895DF91CF91BA
:100D10001F910F91FF90EF90DF90CF90BF90AF9019
:100D20000C94500314BEA8959EE088E10FB6F89489
:100D3000A895809360000FBE90936000A8951092D4
:100D4000DA048FEF809318010E9450030E94C6229C
:100D50000E94DB230E94522316BC8CE687BD1092B2
:100D60005A061092D4041092D30482E084BD85E028
:100D700085BDEEE6F0E0808182608083239A08954D
:100D8000CF93DF9397FD04C0DF91CF910C940B219B
:100D9000EC0183E70E949F1ECE019F77DF91CF91E8
:100DA0000C94681FCF93DF93CDB7DEB7ED970FB6E6
:100DB000F894DEBF0FBECDBF8090F9048EA64090A0
:100DC000F8049090CE0498AA0E949206809156064C
:100DD0009091570680589109880F892F881F990B89
:100DE000919533243394380EA090D604B090D70454
:100DF000B9A6A8A68091D9048E8F8091D8048D8F32
:100E0000809100018C8F2091ED053091EE05369593
:100E100027953695279536952795AFE4BBE10E9437
:100E2000242B9695879596958795969587958B8F84
:100E30000E9440279DEC899F812D112486958695DF
:100E400086958A8F2091020130910301ADECBCECB4
:100E50000E94242B969587959695879596958795CC
:100E6000898F28988FB7F8942091ED053091EE0581
:100E70003093D2042093D1048FBF1698A89544E0F4
:100E800069E975E088E696E00E94352A44E061E071
:100E900076E082E696E00E94352A0E947B287894CC
:100EA000A8958FEF89838091D9048A838FE08B8303
:100EB00086E78E8380E88F838DE188878BEB898737
:100EC00081EF8A8781E08B878C8783E48D8783E538
:100ED0008E8784E58F874FE0BE016F5F7F4F88E686
:100EE00096E00E945B2AA895109261060E94B622A5
:100EF00083B1867F8DAB85B1806F85B985B1866002
:100F000085B94FA621E02DA719AA1AAA1BAA1CAAC7
:100F10001AA21BA21CA21DA2512C1EA217E1612E17
:100F200011E0712E1FA210E00CE01CA619A2832C68
:100F3000912C9BA68AA69E01275E3F4F38A32F8F38
:100F4000C12CD12C7601C394202F052D5DA8A89526
:100F50002B9A2B988091CF0480FD60C22FAB0E940A
:100F60002024409159063091F604842F90E0049794
:100F7000632F70E02FA9681779070CF0E2C2809107
:100F8000C1048E7F8093C1043091F70440915F06C5
:100F9000341708F4BCC250E0E091F705632F70E00D
:100FA000641B750BF4E6F69FC001F79F900D1124AA
:100FB0006E2F70E0641B750B0E94072BA62E4091CC
:100FC000980541FFA9C2E31728F48091CE048160FF
:100FD0008093CE0443FFA7C280919705EA2DF0E0ED
:100FE000609119010E94FB2A90E0019634E1389F3C
:100FF000B001399F700D11246E177F070CF078C275
:101000008091C10488608093C1048091F80442FFFC
:1010100037C2813009F433C208F4E8C3823009F0E2
:101020002FC2F1E04F1611F40C94101681E090914C
:10103000F90491112BC2BB24B3942090F904482EDB
:10104000013009F43FC2043009F475C3053009F4D6
:1010500062C32FAB0E94CC262FA9822F90E08D3047
:10106000910508F44FC23091CD04111104C0313004
:1010700009F4E7C110E03093CC04A89582E696E02D
:101080002FAB0E944B2A2FA981116FC2A895809186
:10109000DA0481115FC210925B0610925C06109216
:1010A0005D0610925E068FEF8093180189E0EEE9ED
:1010B000F3E0A8EFB5E001900D928A95E1F787E0A3
:1010C000809361064091C10440FF18C280911701CE
:1010D00087FD14C28F714601570104C0880C991C0A
:1010E000AA1CBB1C8A95D2F7D501C40141FF12C0CE
:1010F0003091160137FD0EC03F714601570104C003
:10110000880C991CAA1CBB1C3A95D2F788299929EE
:10111000AA29BB2942FF12C030910D0137FD0EC034
:101120003F714601570104C0880C991CAA1CBB1CC6
:101130003A95D2F788299929AA29BB2943FF12C0D9
:1011400030910E0137FD0EC03F71B701A60104C0FA
:10115000440F551F661F771F3A95D2F7842B952BA6
:10116000A62BB72B3FEF300F323008F402C2053008
:1011700009F437C299A090FE12C030910A0137FDE0
:101180000EC03F71B701A60104C0440F551F661F72
:10119000771F3A95D2F7842B952BA62BB72BA9A0B6
:1011A000A1FE12C03091090137FD0EC03F71B70199
:1011B000A60104C0440F551F661F771F3A95D2F74A
:1011C000842B952BA62BB72BA8953091F4043230A5
:1011D00009F43BC2333009F409C2313009F476C254
:1011E000A8953091F204323009F42AC2333009F460
:1011F00056C2313009F42EC24091C6045091C70442
:101200006091C8047091C904842B952BA62BB72B31
:101210004091C2045091C3046091C4047091C5040C
:1012200040955095609570954C015D018422952202
:10123000A622B7228AA29BA2ACA2BDA29FA4491457
:1012400009F4B3C188248394912C8091CD04811139
:1012500007C08FEF840D823018F08114910459F08B
:101260008FB7F8944091ED055091EE055093D2045C
:101270004093D1048FBFA8958FB7F894A090D30462
:10128000B090D4048FBF2FAB0E941E252FA98823B6
:1012900079F0892839F48091020190910301A81610
:1012A000B90630F080916A06882311F40C94031B70
:1012B00088E696E02FAB0E944B2A2FA9882331F0B5
:1012C0008091D004882311F40C94531B3FB7F894F9
:1012D0008091D1049091D2043FBF892B09F037CE81
:1012E000A8951092610680917A008F7780937A009A
:1012F000289A169A88B1837088B9159880916E00E3
:101300008D7F80936E005F985E9885B1897F85B9E7
:101310002FAB0E946B23419840985D9883B7817FE3
:10132000846083BFF894A8950FB6F894A89580912F
:101330006000886180936000109260000FBED99AAF
:101340008091680082608093680080916C00806F5B
:1013500080936C0083B7816083BF78948895F894FC
:1013600083B78E7F83BF809168008D7F80936800F4
:10137000A8959EE088E10FB6F894A8958093600048
:101380000FBE90936000A8957894289816980E94B4
:10139000B62216BC8CE687BD10925A061092D40471
:1013A0001092D30482E084BD85E085BD80916E00FB
:1013B000826080936E0085B1866085B90E94522359
:1013C00063B1667F852D0E94E70063B1667F0E944E
:1013D000E70063B1667F0E94E70063B1667F0E9409
:1013E000E700582E0E945402852D0E94AB02809186
:1013F000CD048093CC048FB7F8944091ED055091C3
:10140000EE055093D2044093D1048FBF2FA9A89525
:101410002B9A2B988091CF0480FFA0CD8091CF0490
:101420008E7F8093CF0463B1667F852D2FAB0E94A2
:10143000E700582E0E945402852D0E94AB022FA96E
:101440008DCD3091CC04313059F02FAB0E94901EDD
:101450002FA92F5F10920501109204013091CD0445
:10146000409104015091050180910601909107017E
:1014700010E04817590708F4FECD2CE0FCCD82E0BF
:101480004816A1F19091F904992381F1B82E842D89
:101490008111D3CD8091080187FD2FC18F714AA1A1
:1014A0005BA16CA17DA104C0769567955795479582
:1014B0008A95D2F740FF21C12090F904412C0130D8
:1014C00009F0C1CD8091C004882309F419C12FAB64
:1014D0000E94CC262FA9822F90E08D30910508F034
:1014E000C2CDFC01EA5BFF4F0C941B2BB82ED0CF72
:1014F0008091C104877F8093C10487CD80E090E014
:10150000DC01F4CDFC01ED5AFF4F0C941B2B4091F4
:10151000980541FD41C0A12C8091CE048E7F80931F
:10152000CE0443FD59CD50915806852F90E0049785
:10153000632F70E068177907DCF2351708F060CD8B
:1015400064CD341708F420CD8091C104816080936C
:10155000C1041ACD8091980580FF04C081E080937A
:101560006106B0CD10926106ADCD0E94FA002FA9A0
:101570008DCD30910C0137FDFDCD3F71B701A60136
:1015800004C0440F551F661F771F3A95D2F7842B6E
:10159000952BA62BB72BEECD8091CE048E7F80931A
:1015A000CE04E091F705A12C0ECDAEA42A104ACEB0
:1015B0008AA09BA0ACA0BDA049A95AA96BA97CA9EF
:1015C00084169506A606B70609F03CCE3091CE04E7
:1015D00091E080E088A8831201C090E0892E982EC7
:1015E00034CE30910B0137FDC5CDC7CF3091D50436
:1015F00037FD0EC03F71B701A60104C0440F551F4F
:10160000661F771F3A95D2F7842B952BA62BB72B05
:101610003091130137FDE4CD3F71B701A60104C03D
:10162000440F551F661F771F3A95D2F7842B952BD1
:10163000A62BB72BA8953091F204323009F0D6CD05
:101640003091100137FDD8CD1BC03091D50437FD46
:10165000C7CDE2CF3091120137FD0EC03F71B70107
:10166000A60104C0440F551F661F771F3A95D2F795
:10167000842B952BA62BB72B3091110137FDBCCDB8
:101680003F71B701A60104C0440F551F661F771FA5
:101690003A95D2F7842B952BA62BB72BADCD309155
:1016A000100137FD0EC03F71B701A60104C0440F01
:1016B000551F661F771F3A95D2F7842B952BA62BC3
:1016C000B72B30910F0137FD97CDDACF309115014F
:1016D00037FD0EC03F71B701A60104C0440F551F6E
:1016E000661F771F3A95D2F7842B952BA62BB72B25
:1016F0003091140137FD74CD8FCF412C212CA0CC1B
:101700002FAB0E94CC262FA9822F90E08D3091051F
:1017100018F103E0A8CC8091C00481111BC12FAB4C
:101720000E94CC262FA9822F90E08D30910508F4DD
:1017300058C000E098CC222019F32FAB0E94CC2691
:101740002FA9822F90E08D30910508F08CCCFC0100
:10175000E05AFF4F0C941B2BFC01E359FF4F0C94F4
:101760001B2B03E0159A112311F40C941A16113057
:1017700011F40C945419123011F40C9426191330EE
:1017800011F40C94F518143011F40C94AD181530B4
:1017900011F40C946B18163011F40C942C181730AB
:1017A00011F40C941918183011F40C94831A193090
:1017B00011F40C946A1A1A3011F40C94281A1B3084
:1017C00011F40C94091A3091CD04323009F4FFC49D
:1017D000343009F4EFC4313011F40C94501A2BE07A
:1017E0004ACCFC01E658FF4F0C941B2B442011F40B
:1017F0000C94851B9091F904911148CEB82E4ACED5
:1018000003E0159A11116EC460E083E00E94801E0F
:1018100086EA92E00E94CE1E61E080E00E94801E77
:101820008FE70E949F1E87E293E00E94CE1E3091B8
:10183000CD04323009F053C43091CC04323011F46D
:101840000C948E1B0E94901E3091CD0411E02AE072
:1018500012CC03E0159A11110C94A11660E080E0FF
:101860000E94801E84E692E00E94CE1E61E080E02D
:101870000E94801E8FE70E949F1E8DE692E00E94CC
:10188000CE1E3091CD04323011F00C948B1B309170
:10189000CC04323011F40C94881B0E94901E3091BD
:1018A000CD0411E028E0E7CB03E0159A11110C9468
:1018B0004A1660E084E00E94801E8EE792E00E945B
:1018C000CE1E61E080E00E94801E8FE70E949F1E76
:1018D00085E592E00E94CE1E3091CD04323011F0A9
:1018E0000C94941B3091CC04323011F40C94911B65
:1018F0000E94901E3091CD0411E029E0BCCB03E0A2
:10190000159A11110C94F11660E083E00E94801E7C
:101910008FE492E00E94CE1E61E080E00E94801E73
:101920008FE70E949F1E85E592E00E94CE1E3091B7
:10193000CD04323011F00C94671A3091CC0432305F
:1019400011F40C94641A0E94901E3091CD0411E0A1
:1019500027E091CB2FAB0E94CC262FA9822F90E0BD
:101960008D30910508F07FCBFC01E957FF4F0C94B7
:101970001B2B03E0159A112311F40C943817809156
:10198000CA0490E08131910508F4E6C161E080E08D
:101990000E94801E8BE093E00E94CE1E61E081E0F9
:1019A0000E94801ED3018C9187FD97C38F710E9486
:1019B000D02120E03091CD04323009F41BC2333005
:1019C00010F40C94E91C333011F40C94D11C343015
:1019D00011F00C94C91C40910401509105018091B3
:1019E0000601909107014817590710F40C94C91C7F
:1019F000D3018C91982F9F7111F40C94C01C8150CD
:101A00008C93109205011092040126E034CB03E080
:101A1000159A60E080E00E94801E0E94712581304E
:101A200009F438C708F4B9C7823009F4B1C7833064
:101A300021F482E791E00E94CE1E61E080E00E94E6
:101A4000801E0E947125882309F430C7843020F459
:101A500089E791E00E94CE1E0E9457253091CD0467
:101A6000333009F42EC7343009F49FC7323009F4FB
:101A700099C722E0FACA159A60E080E00E94801EB1
:101A80008AE391E00E94CE1E61E080E00E94801E09
:101A9000013009F4F9C608F461C7043020F48BE47E
:101AA00091E00E94CE1E3091CD04323009F471C114
:101AB000333008F49BC7333009F48BC7343009F056
:101AC00085C780910B01803809F47FC7211079C741
:101AD00082E38093C00405E021E0C7CA03E060E030
:101AE00082E00E94801E8091CE0480FDB8C64B1417
:101AF00009F4AAC685E391E00E94CE1E159A61E022
:101B000081E00E94801E0E9463260E94F222809142
:101B10000A0187FD92C660E087E00E94801E99A0BE
:101B200090FE44C080910A01881F8827881F94E096
:101B3000981B892F0E949F1E61E087E00E94801EF3
:101B4000A9A0A1FE31C080910901881F8827881FA4
:101B500094E0981B892F0E949F1E3091CD04323053
:101B600009F45EC608F4CBC6333009F4B6C6343087
:101B700009F00BC78091CC04843009F406C780912A
:101B80000A0187FDF7C68091090186FFEDC682E054
:101B900089A0882689A220E068CA03E00E94901EDE
:101BA0003091CD0420E061CA83E0D5CF83E0C2CF7D
:101BB00003E0159A112309F41FC59E012B5E3F4FC8
:101BC000912C802EA12E890160E052E0B52EB90C37
:101BD0008B2D0E94801ED8018D918D01805D0E9409
:101BE0009F1E61E08B2D0E94801EBFA09B1409F4F4
:101BF000FFC480E20E949F1E939424E09212E4CFDF
:101C00001A2D082D3091CD04323009F44FC708F455
:101C10003BC7333009F4FBC6343009F0F5C64091B8
:101C20000401509105018091060190910701481728
:101C3000590708F4E9C6E5E1F0E0EC0FFD1F8FA0BD
:101C4000E80DF11D80818A3008F484C589E0808325
:101C5000109205011092040124E00DCA03E0159AC8
:101C600060E080E00E94801E80E891E00E94CE1E2D
:101C700061E080E00E94801E832D0E94D02189E8CF
:101C800091E00E94CE1EA0905606B09057068AA5FD
:101C90009BA59695982F882797958795909357069B
:101CA000809356060E94752B97FD99C4803157E2A8
:101CB000950710F08FE097E20E94C006B092570699
:101CC000A09256063091CD04323009F441C708F491
:101CD0002BC7333009F47CC7343009F022C7809118
:101CE000CC04843009F41DC799249394931408F00C
:101CF00018C73A9423E0A32CB12CBBA6AAA6B5C959
:101D000003E0159A60E011110C94661783E00E94BD
:101D1000801E87EA91E00E94CE1E61E080E00E9472
:101D2000801E8FE70E949F1E8DEA91E00E94CE1ECA
:101D30003091CD04323011F00C941F1D3091CC0441
:101D4000323011F40C94161D0E94901E3091CD0477
:101D50001EA211E025E08FC9FC01EC56FF4F60E0A8
:101D600080E00C941B2B159A60E080E00E94801E9E
:101D70008AE391E00E94CE1E61E080E00E94801E16
:101D800085E993E00E94CE1E3091CD04323009F0F7
:101D90008FCE2CE02EC60E94801E8FE292E00E9421
:101DA000CE1E9AE0692E91E0792E61E080E00E94DB
:101DB000801E8BE093E00E94CE1E61E081E00E94D5
:101DC000801EF301808187FDE6C08F710E94D021C3
:101DD00061E085E00E94801ED3018C9186FFD5C012
:101DE00087E492E00E94CE1E21E03091CD04323093
:101DF00009F0E5CD3091CC04323011F40C94C91CBB
:101E000080915606909157066091170102960E94A4
:101E1000852B809156069091570660911601039686
:101E20000E94852B8091560690915706609115016E
:101E300008960E94852B80915606909157066091D6
:101E4000140109960E94852B8091560690915706A1
:101E50006091D5040A960E94852B80915606909138
:101E60005706609113010B960E94852B80915606B0
:101E700090915706609112010C960E94852B8091DB
:101E8000560690915706609111010D960E94852B80
:101E90008091560690915706609110010E960E940F
:101EA000852B809156069091570660910F010F96F1
:101EB0000E94852B809156069091570660910E01E5
:101EC00004960E94852B809156069091570660914A
:101ED0000D0105960E94852B80915606909157061C
:101EE00060910C0106960E94852B80915606909178
:101EF000570660910B0107960E94852B809156062C
:101F00009091570660910A0140960E94852B80911E
:101F10005606909157066091090141960E94852BC3
:101F200080915606909157066091080142960E9452
:101F3000852B0E9450030E94901E60E081E00E9469
:101F4000801E80EA91E00E94CE1E87E090E00E9411
:101F500025220E94901E3091CD0426E088C80E9460
:101F6000801E87E192E00E94CE1E41E1642E41E096
:101F7000742E0CCD0E94801E8EE092E00E94CE1E38
:101F800052E1652E51E0752E01CD8BE492E00E9466
:101F9000CE1E21E00FCD21E08FE392E02FAB0E9417
:101FA000CE1E2FA907CD0E94801E87E292E00E94DC
:101FB000CE1E2FE0622E21E0722EE8CC0E94801E01
:101FC00080E292E00E94CE1E30E1632E31E0732E5B
:101FD000DDCC0E94801E86EF91E00E94CE1EE4E1DF
:101FE0006E2EE1E07E2ED2CC0E94801E8DEE91E01E
:101FF0000E94CE1EF5E16F2EF1E07F2EC7CC0E942D
:10200000801E86E092E00E94CE1E63E1662E61E0B3
:10201000762EBCCC0E94801E8FEF91E00E94CE1ED7
:1020200075ED672E74E0772EB1CC0E94801E84EE91
:1020300091E00E94CE1EA8E06A2EA1E07A2EA6CCE6
:102040000E94801E8BED91E00E94CE1EBBE06B2EA5
:10205000B1E07B2E9BCC0E94801E84ED91E00E941B
:10206000CE1E8CE0682E81E0782E90CC0E94801EDF
:1020700080ED91E00E94CE1E9DE0692E91E0792EC8
:1020800085CC0E94801E8AEC91E00E94CE1E2EE03C
:10209000622E21E0722E7ACC0E94801E85EC91E0A7
:1020A0000E94CE1E36E1632E31E0732E6FCC0E946B
:1020B000801E80EC91E00E94CE1E47E1642E41E03C
:1020C000742E64CC0E94801E86E392E00E94CE1E95
:1020D00089E0682E81E0782E68CE20E05DCF2AE08E
:1020E0000C943708159A60E080E00E94801E113041
:1020F00009F45DC2123009F441C2133009F423C25D
:10210000143009F4D5C1153009F4CBC1163009F4E7
:1021100092C1173009F488C1183009F47EC18AEFE2
:1021200092E00E94CE1E32E022E061E084E02FAB1C
:102130003EAB0E94801E8091980590E03EA902C0AF
:10214000959587953A95E2F72FA980FF5BC183E0CB
:1021500093E02FAB0E94CE1EF8E9AF2EF5E0BF2E24
:102160002FA93091CD04323009F4CDC008F48DC0D0
:10217000333009F470C0343009F06AC04091040172
:102180005091050180910601909107014817590768
:1021900008F45EC0283049F181E090E001C0880F6A
:1021A0002A95EAF78095F5019081892380832AE0BA
:1021B0000C943B088091CC04843009F410CB8091BE
:1021C00055068150809355062BE00C943B083091C6
:1021D000CC04323009F403CB0E948B250E94901E60
:1021E0003091CD042BE00C9437088F8C98A0A81464
:1021F000B90451F121E0A21621E0B20629F1D5017E
:102200008C91823010F081508C93809101018F303D
:1022100018F48FE0809301018B8D811102C081E061
:102220008B8F8A8D811102C081E08A8F8091190184
:10223000823018F482E08093190110920501109207
:1022400004012AE00C943B088091C10480FDD7CFA3
:102250002AE00C943B0840910401509105018091C3
:102260000601909107014817590790F32830F1F0C3
:1022700081E090E001C0880F2A95EAF7D5019C9192
:10228000892B8C932AE00C943B08313009F730916C
:10229000CC043130E9F21F5F1A3008F011E00E94DF
:1022A000901E3091CD042AE00C9435088F8C98A0B4
:1022B000A814B90419F121E0A21621E0B206F1F048
:1022C000D5018C918F3F11F08F5F8C93898D8B306E
:1022D00010F08AE0898F8B8D843610F083E68B8F27
:1022E0008A8D8A3110F089E18A8F809119018B30B3
:1022F00008F4A3CF8AE0809319019FCF8091C10495
:1023000080FFA6CFDDCF3091CC04323009F4A0CFCE
:102310006B8D81E190E00E94852B8A8D880F682F5C
:10232000660F660F680F82E190E00E94852B609136
:10233000190184E290E00E94852B6091980583E169
:1023400090E00E94852B609101018DE190E00E9458
:10235000852B898DBAE08B9FC001112490930301D6
:1023600080930201692F82E090E00E94852B6091AA
:10237000020183E090E00E94852B0E94500320918F
:10238000ED053091EE0536952795369527953695CE
:102390002795AFE4BBE10E94242B969587959695EF
:1023A0008795969587958B8F0E9440279DEC899FF6
:1023B000812D11248695869586958A8F209102011C
:1023C00030910301ADECBCEC0E94242B96958795CF
:1023D0009695879596958795898F0E94901E60E0C7
:1023E00081E00E94801E80EA91E00E94CE1E87E07C
:1023F00090E00E9425220E94901E3091CD042AE098
:102400000C94370888E093E02FAB0E94CE1EE8E9D9
:10241000AE2EE5E0BE2E2FA9A4CE81EF92E00E9461
:10242000CE1E30E020E081CE88EE92E00E94CE1EEB
:1024300031E021E07ACE80EE92E00E94CE1E61E093
:1024400087E00E94801E84EC92E00E94CE1E61E034
:1024500084E00E94801E80911901ADECBA2E8B9D04
:10246000812D1124869586958695805D0E949F1EFC
:102470008EE20E949F1E909119019B9D812D112437
:102480008695869586957AE0879F90191124892FE5
:10249000805D0E949F1E28E0B9E1AB2EB1E0BB2E0B
:1024A00060CE88ED92E00E94CE1E33E023E03DCE68
:1024B0008FEC92E00E94CE1E61E087E00E94801EB9
:1024C00084EC92E00E94CE1E61E083E00E94801EB8
:1024D0008091010199E2899F812D112482958F704D
:1024E000805D0E949F1E8EE20E949F1E80910101CE
:1024F0009DECB92E8B9D812D112486958695869510
:102500008B9D912D11249695969596955AE0959FC1
:1025100080191124805D0E949F1E909101019B9D56
:10252000812D11248695869586956AE0869F90195F
:102530001124892F805D0E949F1E28E031E0A32E88
:1025400031E0B32E0ECE86EC92E00E94CE1E61E00A
:1025500087E00E94801E84EC92E00E94CE1EAE01B5
:10256000475E5F4F5A0161E084E00E94801EF501E2
:10257000808190E00E94D21F28E0F3CD87EB92E0AB
:102580000E94CE1E61E080E00E94801E8FEB92E0F0
:102590000E94CE1E61E087E00E94801E84EC92E0E3
:1025A0000E94CE1E9E01265E3F4F5901DCCF8CEA71
:1025B00092E00E94CE1E61E080E00E94801E82EBCD
:1025C00092E00E94CE1E61E087E00E94801E81E8BA
:1025D00092E00E94CE1EFE017B965F01C4CF9C015B
:1025E0003F772038310508F467CB8FE790E864CB5C
:1025F0008EE50E949F1E00CB60E085E00E94801E59
:1026000084E991E00E94CE1E61E080E00E94801E7D
:102610008FE70E949F1E88E991E00E94CE1E3091B4
:10262000CD04323009F0F9C03091CC04323009F4D5
:10263000F1C088A499A497FC93C028A539A5369524
:1026400027953695279536952795A5ECB0E20E94FB
:10265000242BAC01529542954F7045275F7045275A
:102660009A01ADECBCEC0E94242B9695879596952B
:102670008795969587959C01220F331F880F991F88
:10268000880F991F880F991F820F931F481B590BA2
:102690004D8B28A539A53695279536952795ABE717
:1026A000B4E10E94242BAC01569547959A01ADECFC
:1026B000BCEC0E94242B96958795969587959695C8
:1026C00087959C01220F331F880F991F880F991F30
:1026D000880F991F820F931F481B590B4E8B28A5FB
:1026E00039A50E94242BAC015695479556954795E0
:1026F000569547959A010E94242B96958795969515
:102700008795969587959C01220F331F880F991FF7
:10271000880F991F880F991F820F931F9A01281BFA
:10272000390B2F8BCA01880F991F440F551F440F77
:10273000551F440F551F840F951F88A499A4881A0C
:10274000990A888E0E94901E3091CD0411E024E0F9
:102750000C943B08882309F47BCA8150808378CA93
:1027600083E48D8BF401FF779F013695279536958D
:102770002795ABE7B4E10E94242BAC015695479511
:102780009A01ADECBCEC0E94242B9695879596950A
:102790008795969587959C01220F331F880F991F67
:1027A000880F991F880F991F820F931F481B590B81
:1027B0004E8B9F010E94242BAC0156954795569550
:1027C0004795569547959A010E94242B9695879593
:1027D00096958795969587959C01220F331F880FB4
:1027E000991F880F991F880F991F820F931F5A01F5
:1027F000A81AB90AAF8ACA01880F991F440F551F3A
:10280000440F551F440F551F840F951FE81BF90BEC
:10281000E88F98CF24E00C943A0824E00C94370811
:102820008091CC04823009F4B0C081E08CA4811086
:1028300080E08CA720E00C9435088091090187FF87
:102840006AC90E94572589C98091D6049091D704FE
:102850000E94C0068CA4882041F0159A50C980E3DC
:1028600091E00E94CE1E159A4AC9159848C9159A3A
:1028700060E080E00E94801E8AE391E00E94CE1E0C
:1028800061E080E00E94801E84E591E00E94CE1EFF
:1028900001E009C984E691E00E94CE1E61E080E07B
:1028A0000E94801E0E9471258111D0C88BE391E0A7
:1028B0000E94CE1E0E9457253091CD04333009F07E
:1028C000D2C83091CC04333009F4D3C80E947425A7
:1028D0003091CD0422E00C9435088091CC048330F3
:1028E00009F453C080910A0187FD20C086FF18C0FB
:1028F00081E0B9A0B826B9A220E00C9435088091F7
:102900000A0186FD03C029A12E7F29A38091090118
:1029100086FD3BC049A14D7F49A320E00C943508BA
:1029200029A1216029A320E00C9435089091090188
:1029300097FFDCCF0E9474253091CD0420E00C94E9
:102940003508159A60E080E00E94801E8AE391E0DD
:102950000E94CE1E61E080E00E94801E82E491E031
:102960000E94CE1E00E09FC829A1226029A320E07A
:102970000C9435088091090187FF07C90E948025C2
:102980003091CD0420E00C94350820E00C943508FB
:102990008BE691E00E94CE1E50C88DE591E00E942A
:1029A000CE1E4BC82CE00C9435083091CC0434304A
:1029B00009F45FC80E9480253091CD0422E00C9478
:1029C000350804E021E00C94350800E021E00C9487
:1029D000350880910B01803899F00111F7CF82E31F
:1029E0008093C00401E021E00C943508313071F788
:1029F00021E0043011F00C94350803E00C94350804
:102A000002E021E00C94350824E00C943B0840914E
:102A1000040150910501809106019091070148172A
:102A2000590790F38FA0811003C08D89893049F137
:102A3000E5E1F0E0EC0FFD1F9FA0E90DF11D8081A5
:102A4000893010F48F5F80838D898A3008F400C943
:102A50002E898F893AE0839FC001112444E6249F88
:102A6000800D911D1124288D820F911D80389105B4
:102A700034F081E08E8B82E08F8B87E0888F33E0AB
:102A8000E7C883E48D8BE4CF313009F0BDCF80916E
:102A9000CC04813009F4B8CF2FA12F5F2FA32430AD
:102AA00008F4B2CF1FA224E00C943B083091CC0470
:102AB000323009F4A9CF8D898A3008F49AC08E8902
:102AC0006F892AE0629FB001112434E6839F600D74
:102AD000711D1124888D680F711D706880915606D4
:102AE000909157060E949B2B0E9450038090D60421
:102AF0009090D70499A688A60E94901E60E081E07D
:102B00000E94801E80EA91E00E94CE1E87E090E045
:102B10000E9425220E94901E3091CD0424E00C9446
:102B2000370823E00C9435083130D9F7C5018058B7
:102B30009109880F892F881F990B9195332433941D
:102B4000380E23E0A32CB12CBBA6AAA60C94350802
:102B50003091CC04323029F3632D80E190E00E9463
:102B6000852B0E94500380915606909157068058FD
:102B70009109880F892F881F990B919533243394DD
:102B8000380E0E94901E60E080E00E94801E8CE85B
:102B900091E00E94CE1E61E080E00E94801E68E00D
:102BA000B62E81E090E00E9425228EE20E949F1EB8
:102BB000BA94B110F6CF83E090E00E9425223091C4
:102BC000CD042CE0832C912C9BA68AA60C9435086E
:102BD0008091CC04833009F4A4CF6EE0631508F42F
:102BE000A0CF339423E0832C912C9BA68AA60C942F
:102BF00035082E899F8948EE53E0849FB001859F58
:102C0000700D112444E6249F600D711D11245AE0BB
:102C1000959F600D711D1124888D680F711D5ECF09
:102C2000BB24B39481E00C941D0800E0159A1111A7
:102C30000C94B70B60E083E00E94801E8DE093E06F
:102C40000E94CE1E61E080E00E94801E8FE70E94FD
:102C50009F1E87E293E00E94CE1E3091CD04323059
:102C600009F04EC43091CC04323009F446C40E94BD
:102C700039220E94901E3091CD0411E02BE00C947B
:102C80003B0800E00C94010C00E0159A112311F4AC
:102C90000C94590C159A60E080E00E94801E11305F
:102CA00009F4C3C5123009F4B1C585E992E00E9468
:102CB000CE1EBC8CBFEF61E082E0BB1609F49DC55F
:102CC0000E94801E83EA92E00E94CE1E8B2D0E94FD
:102CD000341FFE017C963091CD04323009F45AC580
:102CE00008F447C5333009F428C5343009F022C54B
:102CF00040910401509105018091060190910701D6
:102D00004817590708F416C58081823008F40FC5AA
:102D1000815080838E8D803310F480E38E8F8D8D73
:102D2000803D10F480ED8D8F10920501109204010A
:102D300029E00C943B0800E0159A112311F40C943F
:102D40002E0C159A60E080E00E94801E113009F47C
:102D50000AC68AEC91E0123009F4FAC5133009F47E
:102D6000E4C50E94CE1E61E080E00E94801E89E7DB
:102D700092E00E94CE1E47EF842E45E0942E57EF3E
:102D8000A52E54E0B52E60E087E00E94801ED4019D
:102D90008C918F3F09F4C5C5F5019081981708F013
:102DA000AEC583E00E949F1E61E085E00E94801E08
:102DB000D5018C9190E00E94681F3091CD04323093
:102DC00009F469C5333009F44FC5313009F43CC505
:102DD00028E00C943B0800E0159A112311F40C94A0
:102DE000840C159A60E080E00E94801E8DE592E0E0
:102DF0000E94CE1E80E3810F0E949F1E61E080E052
:102E00000E94801E812F90E0FC01E251FA4F5F0189
:102E1000808190E00E9453203091CD04323009F43B
:102E2000B4C308F4A1C3333009F48CC3343009F0BF
:102E300086C3409104015091050180910601909153
:102E400007014817590708F47AC3D5018C918230DD
:102E500008F471C381508C93109205011092040103
:102E600027E00C943B0800E0159A11110C94BF0C5C
:102E700060E082E00E94801E89EB91E00E94CE1EFD
:102E800061E080E00E94801E8FE70E949F1E8DEA15
:102E900091E00E94CE1E3091CD04323009F0CCC5B5
:102EA0003091CC04323009F4C4C51092CA040E9497
:102EB000901E3091CD0411E026E00C943B0800E018
:102EC000159A60E0112311F40C94860E80E00E94A4
:102ED000801E8BE093E00E94CE1E8EA10E94D02126
:102EE00060E085E00E94801E5EA1452F50E059AF52
:102EF00048AF8091C6049091C704A091C804B091D6
:102F0000C9040EA004C0B695A795979587950A9415
:102F1000D2F780FD97C58091C2049091C304A0911F
:102F2000C404B091C5040EA004C0B695A7959795AA
:102F300087950A94D2F780FFACC689E093E00E949F
:102F4000CE1E3091CD04323009F469C608F407C6AC
:102F5000333009F4AEC5343009F0A8C540910401FE
:102F6000509105018091060190910701481759077A
:102F700008F49CC58091C2049091C304A091C4043C
:102F8000B091C504AC01BD0108AC04C0769567954D
:102F9000579547950A94D2F740FF59C5B701A60146
:102FA00008AC04C0440F551F661F771F0A94D2F760
:102FB0004A015B0180949094A094B0948821992157
:102FC000AA21BB218093C2049093C304A093C4049C
:102FD000B093C5048091C6049091C704A091C80421
:102FE000B091C904482B592B6A2B7B2B4093C60404
:102FF0005093C7046093C8047093C90410920501EC
:103000001092040125E00C943B0800E00C94D90DCB
:1030100000E00C942F0E00E00C94080D00E00C94DE
:103020006F0D00E00E94901E3091CD0420E00C94C2
:103030003508159A60E080E00E94801E8BE493E0E2
:103040000E94CE1E61E080E00E94801E83E593E036
:103050000E94CE1E0C94E30B159A60E080E00E9463
:10306000801E83E493E00E94CE1E61E081E00E9416
:10307000801E0E94EF2290E062E370E00E94072B26
:10308000CB016AE070E00E94072B805D0E949F1ECA
:103090008EE20E949F1E0E94EF2290E065E070E0A9
:1030A0000E94072BCB016AE070E00E94072B805D35
:1030B0000E949F1E0E94EF2290E0880F991F6AE0F5
:1030C00070E00E94072B805D0E949F1E86E50E9493
:1030D0009F1E0C94E30B159A60E080E00E94801E16
:1030E00087E393E00E94CE1E61E081E00E94801E93
:1030F0000E944327B82E89E2B89E812D1124829523
:103100008F7009F451C0805D0E949F1E8DECB89EA7
:10311000A12C1124A694A694A694A89E812D1124D6
:103120008695869586953A2D2AE0829F301911243E
:10313000832F805D0E949F1E8EE20E949F1E8B2D1A
:103140004AE0A49E80191124805D0E949F1E80E4A5
:1031500093E00E94CE1E0C94E30B159A60E080E091
:103160000E94801E80E293E00E94CE1E61E080E01B
:103170000E94801E809118018F3F69F18A3008F10A
:103180008436B0F486E293E00E94CE1E809118014E
:103190000E94A42161E084E00E94801E89E293E005
:1031A0000E94CE1E0C94E30B80E20E949F1EAECFC5
:1031B0008DE20E949F1E8091180190E00E94D21F14
:1031C000E9CF85E293E00E94CE1E80911801805DD8
:1031D0000E949F1EDFCF61E080E00E94801E8EE291
:1031E00093E00E94CE1E0C94E30B159A60E080E001
:1031F0000E94801E87E193E00E94CE1E61E080E085
:103200000E94801E8BE50E949F1E61E087E00E9465
:10321000801E8DE50E949F1E61E081E00E94801E5D
:103220008091DA0490E0069667E070E00E94072B38
:10323000B62E36E0A32EBB2099F1BA948FEF0E94F0
:103240009F1EAA94A110F7CF0C94E30B159A60E08F
:1032500080E00E94801E8CEA92E00E94CE1E61E017
:1032600080E00E94801E8FB7F8942091D1043091A5
:10327000D2048FBFADECBCEC0E94242B96958795B1
:1032800096958795969587950E94532061E085E0F5
:103290000E94801E83E193E00E94CE1E0C94E30BFB
:1032A00080E20E949F1ECDCF159A60E085E00E94CB
:1032B000801E2110A9C089E40E949F1E60E080E06A
:1032C0000E94801E8091CE0480FD91C08091C10437
:1032D00083FD8BC083E00E949F1E8A2D843608F0F8
:1032E00083E60E94A42185E20E949F1E60E087E0A1
:1032F0000E94801EE1E04E1609F473C04E1608F4D9
:103300006CC0F2E04F1203C082E50E949F1E61E094
:1033100082E00E94801E8091C10482FD5CC083E037
:103320000E949F1E61E084E00E94801E8091C10483
:1033300081FD4FC080E20E949F1E61E085E00E94F7
:10334000801E8091C10480FD2FC080E20E949F1EDC
:1033500061E087E00E94801E8091F404813001F1D9
:1033600028F18230C9F0833019F48AE20E949F1E4E
:1033700061E080E00E94801E8091F204813021F1A2
:10338000F0F08230B9F0833011F00C94E30B8AE254
:103390000E949F1E0C94E30B82E40E949F1EE8CFC4
:1033A00084E40E949F1EE4CF82E0D0CF8DE20E9491
:1033B0009F1EDECF82E40E949F1E0C94E30B8DE2E1
:1033C0000E949F1E0C94E30B84E40E949F1E0C94A9
:1033D000E30B81E0B0CF84E0A3CF8EE40E949F1E78
:1033E00096CF86E40E949F1E92CF84E074CF85E43E
:1033F0000E949F1E8DE40E949F1E82E50E949F1ED8
:1034000087E40E949F1E72CF80E3820D0E949F1E60
:1034100055CF809155068823B1F1159A60E080E080
:103420000E94801E84E793E00E94CE1E61E080E04F
:103430000E94801E8CE793E00E94CE1E809155066C
:10344000805D0E949F1E8EE70E949F1E0C94E30BDE
:10345000159A60E080E00E94801E8BE693E00E9457
:10346000CE1E61E081E00E94801E80915D060E9478
:10347000341F80915C060E94341F80915B060E947D
:10348000341F0C94E30B0E94901E60E080E00E94C9
:10349000801E83E893E00E94CE1E0E946A05FFCF43
:1034A0003091CC04313011F40C94EF0B1F5F1C30C1
:1034B00008F011E00E94901E85E08093550630913F
:1034C000CD042BE00C94350827E00C943A0827E053
:1034D0000C943708159A60E080E00E94801E82E616
:1034E00093E00E94CE1E61E080E00E94801E88EF83
:1034F00095E00E94CE1E0C94E30B2BE00C943A084E
:103500002BE00C943708159A60E080E00E94801E42
:103510008AE593E00E94CE1E61E081E00E94801E59
:103520008DE10E94341F8BEB0E94341F81EF0E94BB
:10353000341F0C94E30B81E0F50180838DCC27E0F0
:103540000C943B08409104015091050180910601C3
:10355000909107014817590790F3D5018C918E3748
:10356000D8F58F5F8C9378CC313049F73091CC040B
:10357000313029F31F5F193008F011E00E94901ECE
:103580003091CD0427E00C9435083091CC043230D2
:10359000B1F26091560670915706605E7F4F48E029
:1035A00050E08FEE95E00E947B2B0E9450030E941A
:1035B000901E60E081E00E94801E80EA91E00E94FF
:1035C000CE1E87E090E00E9425220E94901E30913E
:1035D000CD0427E00C9437088EE7F50180833CCCBE
:1035E000159A60E080E00E94801E8AE391E00E94CC
:1035F000CE1E61E080E00E94801E8CE893E00E9475
:10360000CE1E0C94530D9090CE0498AA8091D804AD
:1036100089838091D9048A838FE08B8383E58E83AD
:103620008091D6049091D7049F8388878091CE049F
:1036300080FF4FC081E08987AA24A3944A1409F42B
:1036400042C082E0B82E4B14D9F13DA53130D9F1FA
:103650006DA16A877CA17B878BA18C879AA19D87AE
:103660008091CE048E872FAB0E94EF228F874B81F3
:10367000BE016F5F7F4F88E696E00E945B2A8FB79E
:10368000F8941092D4041092D3048FBF8AA09BA008
:10369000ACA0BDA089AA9AAAABAABCAA4FA62EA686
:1036A0002FA90C945809A8950E94A6288FB7F894C2
:1036B000909101019093D0048FBF2FA90C946609BB
:1036C00052E05DA7C5CF89858068898741E04DA715
:1036D000BFCF211012C01986AFCF159A60E080E0ED
:1036E0000E94801E8AE391E00E94CE1E61E080E08D
:1036F0000E94801E03E00C944F0DE22DF0E0E25199
:10370000FA4F80818F5F898797CFB12C0C944A0A3A
:1037100028E00C943A0828E00C9437082AE00C942E
:103720003A0829E00C943A0829E00C94370881E023
:103730008083F0CA29E00C943B0840910401509129
:10374000050180910601909107014817590790F3F0
:1037500080818F3F11F08F5F80838E8D8A3410F0CF
:1037600089E48E8F8D8D803F08F4DECA8FEE8D8FB9
:10377000DBCA3130F9F63091CC043130D9F21F5F19
:10378000143008F011E00E94901E3091CD0429E021
:103790000C9435083091CC04323061F26E8D80E0AB
:1037A00090E00E94852B6D8D8FE190E00E94852B2B
:1037B0006C8D8EE190E00E94852B0E9450038091D9
:1037C000D9048E8F8091D8048D8F809100018C8FC9
:1037D0000E94901E60E081E00E94801E80EA91E0DD
:1037E0000E94CE1E87E090E00E9425220E94901E3B
:1037F0003091CD0429E00C9437080E94801E8EE998
:1038000092E00E94CE1EFE017C9665CA8CE892E092
:103810000E94CE1E61E083E00E94801E8D8D805D3F
:103820000E94D021FE017D9656CA83E892E00E9454
:10383000CE1E61E084E00E94801E8E8D8F5E0E940D
:103840009F1EFE017E9647CA3091CC04313009F4A8
:10385000BFCA1F5F153008F011E00E94901E309122
:10386000CD0428E00C9435088091CC04833009F411
:10387000AFCABFE58B16B6E09B0609F44AC0F7EF66
:103880008F16F5E09F06E9F1F5018081D4018C9354
:1038900028E00C943B083091CC04323009F498CAEB
:1038A0006091590680E290E00E94852B6091580655
:1038B00081E290E00E94852B60915F0682E290E0B9
:1038C0000E94852B6091F70583E290E00E94852B92
:1038D0000E9450030E94901E60E081E00E94801EC2
:1038E00080EA91E00E94CE1E87E090E00E942522AF
:1038F0000E94901E3091CD0428E00C94370884E09B
:1039000051CAD5018C9185508093F70528E00C941D
:103910003B08F50180818B5F80935F0628E00C9463
:103920003B088DE20E949F1E3FCA0E94CE1E61E0AE
:1039300080E00E94801E85E792E00E94CE1E6FE527
:10394000862E66E0962E77EFA72E74E0B72E1BCA60
:103950000E94CE1EE8E58E2EE6E09E2EF7EFAF2EFB
:10396000F4E0BF2E10CA80EC91E00E94CE1EA9E5C3
:103970008A2EA6E09A2EB6EFAB2EB4E0BB2E03CA79
:10398000222351F086FF08C08CE1F30180830C9460
:10399000010D26E00C943B0880E8D3018C930C9435
:1039A000010D409104015091050180910601909113
:1039B00007014817590768F3D3018C9187FD2EC082
:1039C000982F9F719C31F8F48F5FF30180830C94E2
:1039D000010D3130F1F63091CC043130D1F28091CB
:1039E000CA048F5F8093CA04813110F01092CA0418
:1039F00010920501109204010E94901E3091CD0496
:103A000026E00C943B08982F9074222351F086FDF9
:103A100008C080E4D3018C930C94010D1C920C948B
:103A2000010D945EF30190830C94010D25E00C943C
:103A30003A0826E00C943A0826E00C94370825E072
:103A40000C94370887ED91E00E94CE1E7ACAB70128
:103A5000A60108AC04C0440F551F661F771F0A94C7
:103A6000D2F7409550956095709584239523A623B1
:103A7000B7238093C2049093C304A093C404B0936B
:103A8000C5048091C6049091C704A091C804B09168
:103A9000C904482359236A237B234093C6045093C7
:103AA000C7046093C8047093C904A8CA25E00C94A5
:103AB0003B084091040150910501809106019091CD
:103AC00007014817590790F34091C6045091C70465
:103AD0006091C8047091C904DB01CA0108AC04C03C
:103AE000B695A795979587950A94D2F780FF50C011
:103AF0008091C2049091C304A091C404B091C50404
:103B00004601570108AC04C0880C991CAA1CBB1CB8
:103B10000A94D2F78AAE9BAEACAEBDAE80949094C0
:103B2000A094B094482159216A217B214093C60476
:103B30005093C7046093C8047093C9044AAD5BAD49
:103B40006CAD7DAD842B952BA62BB72B8093C20437
:103B50009093C304A093C404B093C5044FCA3130FA
:103B600009F0A4CF3091CC04313009F49FCF9EA14D
:103B70009F5F9EA39D3108F01EA210920501109236
:103B800004010E94901E3091CD0425E00C943B0866
:103B90008091C2049091C304A091C404B091C50463
:103BA0004C015D0108AC04C0B694A7949794879427
:103BB0000A94D2F78AA29BA2ACA2BDA280FCA0CF9D
:103BC0004601570108AC04C0880C991CAA1CBB1CF8
:103BD0000A94D2F78AAE9BAEACAEBDAE8094909400
:103BE000A094B09488219921AA21BB218093C2047A
:103BF0009093C304A093C404B093C5048AAD9BAD55
:103C0000ACADBDAD482B592B6A2B7B2B4093C60422
:103C10005093C7046093C8047093C904EFC93091EE
:103C2000CC04323009F442CF4091C6045091C7040D
:103C30006091C8047091C90480915606909157060E
:103C400048960E94932B4091C2045091C304609106
:103C5000C4047091C50480915606909157064C9605
:103C60000E94932B0E9450030E94901E60E081E00E
:103C70000E94801E80EA91E00E94CE1E87E090E0C4
:103C80000E9425220E94901E3091CD0425E00C94C4
:103C9000370885EB91E00E94CE1E53C9662341F19F
:103CA000429A439898B19F7098B998B1282F207F75
:103CB000922B98B9439A44E04A95F1F7439898B10A
:103CC0009F7098B998B140E1849F90011124292BED
:103CD00028B9439A94E09A95F1F74398611103C08B
:103CE0008150833038F09DED9A95F1F700000895EA
:103CF0004298D7CF89E995E10197F1F700C008957F
:103D0000660F660F660F860F8093DB0408956623A7
:103D100021F060E080540C944E1E80580C944E1E8E
:103D200060E081E00E944E1E1092DB04ECEDF4E0B6
:103D300080E2819394E0EC3EF907D9F70895CF93A0
:103D40009091DB04482F082E000C550BE92FF0E072
:103D5000E452FB4F208130E042175307A1F0C82FF7
:103D6000692F669566956695892F87700E94871ED4
:103D700061E08C2F0E944E1E9091DB04E92FF0E051
:103D8000E452FB4FC0839F5F903120F01092DB0420
:103D9000CF9108959093DB04CF910895CF93DF9353
:103DA000EC012196FC018081882329F00E949F1E4E
:103DB00089918111FBCFDF91CF910895CF93C82FC7
:103DC00097B19C6F97B942982FEF8FE593E0215000
:103DD00080409040E1F700C00000439898B19F7088
:103DE00098B998B1906398B9439A24E02A95F1F76D
:103DF00043988FEF95E30197F1F700C00000439AD5
:103E000094E09A95F1F7439881EF91E00197F1F7EB
:103E100000C0439A94E09A95F1F7439881EF91E0BE
:103E20000197F1F700C098B19F7098B9459A439AED
:103E300094E09A95F1F7439881EF91E00197F1F7BB
:103E400000C060E088E20E944E1E60E088E00E94B0
:103E50004E1E0E94901E60E086E00E944E1E60E0B2
:103E60008C2FCF910C944E1E1F93CF93DF93CDB721
:103E7000DEB760970FB6F894DEBF0FBECDBF182F28
:103E800080E1E0E2F1E0DE01119601900D928A9569
:103E9000E1F7812F82958F70E1E0F0E0EC0FFD1FDC
:103EA000E80FF11D80810E949F1E1F70E1E0F0E08D
:103EB000EC0FFD1FE10FF11D808160960FB6F894A5
:103EC000DEBF0FBECDBFDF91CF911F910C949F1E1F
:103ED0000F931F93CF93DF938C019C013695279509
:103EE00036952795ABE7B4E10E94242BFC01F695AB
:103EF000E7959F01ADECBCEC0E94242BAC015695DC
:103F000047955695479556954795CA01880F991F2D
:103F1000440F551F440F551F440F551F480F591F7D
:103F2000CF01841B950B805D0E949F1E9801ADEC14
:103F3000BCEC0E94242BEC01D695C795D695C7956D
:103F4000D695C7959E010E94242BAC0156954795A6
:103F50005695479556954795CA01880F991F440F66
:103F6000551F440F551F440F551F480F591FCE01B1
:103F7000841B950B805D0E949F1ECE01880F991FA8
:103F8000CC0FDD1FCC0FDD1FCC0FDD1FC80FD91FDD
:103F9000C8018C1B9D0B805DDF91CF911F910F910C
:103FA0000C949F1ECF93DF93EC018436910508F4A7
:103FB0006FC09C013695279536952795ABE7B4E100
:103FC0000E94242BFC01F695E7959F01ADECBCEC1B
:103FD0000E94242BAC0156954795569547955695CA
:103FE0004795CA01880F991F440F551F440F551F4D
:103FF000440F551F480F591FCF01841B950B805D3F
:104000000E949F1E9E01ADECBCEC0E94242BFC0183
:10401000F695E795F695E795F695E7959F010E9449
:10402000242BAC015695479556954795569547953F
:10403000CA01880F991F440F551F440F551F440F85
:10404000551F480F591FCF01841B950B805D0E949F
:104050009F1E9E01ADECBCEC0E94242B969587958B
:1040600096958795969587959C01220F331F880F0B
:10407000991F880F991F880F991F820F931F9E0108
:10408000281B390BC901805DDF91CF910C949F1ED5
:1040900080E20E949F1ECA30D10508F0B3CF80E2B3
:1040A0000E949F1ED6CFCF93DF93EC01883E23E082
:1040B000920708F49EC09C01369527953695279562
:1040C00036952795A5ECB0E20E94242BFC01F295D1
:1040D000E295EF70EF27FF70EF279F01ADECBCEC8E
:1040E0000E94242BAC0156954795569547955695B9
:1040F0004795CA01880F991F440F551F440F551F3C
:10410000440F551F480F591FCF01841B950B805D2D
:104110000E949F1E9E013695279536952795ABE701
:10412000B4E10E94242BFC01F695E7959F01ADECCC
:10413000BCEC0E94242BAC015695479556954795AB
:1041400056954795CA01880F991F440F551F440F74
:10415000551F440F551F480F591FCF01841B950B46
:10416000805D0E949F1E9E01ADECBCEC0E94242B42
:10417000FC01F695E795F695E795F695E7959F018D
:104180000E94242BAC015695479556954795569518
:104190004795CA01880F991F440F551F440F551F9B
:1041A000440F551F480F591FCF01841B950B805D8D
:1041B0000E949F1E9E01ADECBCEC0E94242B9695A4
:1041C000879596958795969587959C01220F331F25
:1041D000880F991F880F991F880F991F820F931FAF
:1041E0009E01281B390BC901805DDF91CF910C9492
:1041F0009F1E80E20E949F1EC436D10508F08ACF20
:1042000080E20E949F1ECA30D10508F0ACCF80E248
:104210000E949F1ECFCF0F931F93CF93DF938C01EC
:104220009C01369527953695279536952795A5ECCB
:10423000B0E20E94242BFC01F295E295EF70EF278B
:10424000FF70EF279F01ADECBCEC0E94242BAC016A
:10425000569547955695479556954795CA01880FA7
:10426000991F440F551F440F551F440F551F480FEA
:10427000591FCF01841B950B805D0E949F1E9801E2
:104280003695279536952795ABE7B4E10E94242B08
:10429000FC01F695E7959F01ADECBCEC0E94242B48
:1042A000AC01569547955695479556954795CA0141
:1042B000880F991F440F551F440F551F440F551F5A
:1042C000480F591FCF01841B950B805D0E949F1ED4
:1042D0009801ADECBCEC0E94242BEC01D695C7955F
:1042E000D695C795D695C7959E010E94242B969585
:1042F000879596958795969587959C01220F331FF4
:10430000880F991F880F991F880F991F820F931F7D
:104310009E01281B390BC901805D0E949F1ECE01A2
:10432000880F991FCC0FDD1FCC0FDD1FCC0FDD1FB9
:10433000C80FD91FC8018C1B9D0B805DDF91CF91E9
:104340001F910F910C949F1ECF93C82F8A3098F421
:1043500080E20E949F1E8DECC89F812D11248695BE
:10436000869586959AE0899FC01911248C2F805DCF
:10437000CF910C949F1E9DEC899F812D11248695D1
:1043800086958695899F912D11249695969596955B
:104390002AE0929F80191124805D0E949F1EDBCF2E
:1043A000CF93DF93D82F9DEC899FC12D1124C69503
:1043B000C695C695C99F912D11249695969596956B
:1043C0008C2F2AE0929F80191124805D0E949F1EED
:1043D0008D2F9AE0C99F80191124805DDF91CF91C4
:1043E0000C949F1ECF92DF92EF92FF921F93CF9378
:1043F000DF931F92CDB7DEB7F62E880F880F880F98
:1044000010E4180F60E0812F79830E944E1ECF2C9C
:104410007981D72E760188E0E80EF11C60E0812FCB
:104420000E944E1E61E0F60181916F010E944E1EB6
:104430001F5FCE14DF0491F70F90DF91CF911F9192
:10444000FF90EF90DF90CF900895009789F020E0E3
:1044500030E0A8954FEF5FE563E041505040604089
:10446000E1F700C000002F5F3F4F2817390789F799
:10447000089568E374E081E00E94F22160E374E053
:1044800082E00C94F22168E274E083E00E94F22161
:1044900060E274E084E00C94F221CF930E94901EBD
:1044A00068E174E080E00E94F22160E174E081E064
:1044B0000E94F22168E074E082E00E94F22160E054
:1044C00074E083E00E94F22168EF73E084E00E94D0
:1044D000F22168EE73E085E00E94F22160ED73E066
:1044E00086E00E94F22168EB73E087E00E94F221EF
:1044F00060E080E00E94801EC0E08C2F0E949F1E22
:10450000CF5FC830D1F761E080E00E94801E87EA6B
:1045100093E00E94CE1E88E090E00E94252260EE8B
:1045200073E085E00E94F22168EC73E086E00E946F
:10453000F22160EB73E087E00E94F22184E090E0DA
:104540000E94252260EF73E084E00E94F22168ED72
:1045500073E085E00E94F22160EC73E086E00E9447
:10456000F2218FE090E0CF910C9425228CE00E9404
:10457000DE1E159A0E944D220E94901E0E94D82293
:104580000E9443220E9425250C948B2580E681B948
:1045900012B889E084B985B1806F85B985B186602C
:1045A00085B98FEF87B918B880EF8AB91BB808951D
:1045B00080911B01813071F040F0823029F460E578
:1045C00074E080E00C94F221089560E474E080E0EF
:1045D0000C94F22168E474E080E00C94F221809164
:1045E000FA04089590911B0180911A01981731F0F7
:1045F0000E94D82280911B0180931A0160E080E024
:104600000E94801E80E00C949F1E8091ED04E1E0EA
:10461000E80FE093ED048E2F90E0FC013197E43138
:10462000F10530F4EB55FF4F0C941B2B1092ED0469
:10463000089580916106853051F1873009F181112B
:10464000F7CF5E985F980895809161068430F9F005
:1046500020F18630A9F0C8F08730A9F00895809144
:1046600061068630B8F4843080F4813071F0823095
:1046700051F0089580916106843049F0863049F404
:104680005E9A08955F985E9808955F9808955F9A7E
:10469000089508958830B8F308958130C1F38230C9
:1046A00079F308951DBAE9E6F0E0808185608083A2
:1046B0005C9A8CEC9AE00197F1F700C0000089B198
:1046C0008C7090E095958795959587958093600679
:1046D00083E08DBB08951DBA5C9808951F920F92D8
:1046E0000FB60F9211240BB60F922F933F934F9357
:1046F0005F938F939F93EF93FF93CF93DF93CDB708
:10470000DEB72897DEBFCDBF89B18C7090E095955C
:1047100087959595879531E03D8343E04E831F82D1
:1047200052E0588759831A824B833C83309160064C
:104730008317A1F0309160063370FE01E30FF11D85
:104740003581381721F1309160063370FE01E30F97
:10475000F11D3181381729F11092F9048093600618
:1047600028960FB6F894DEBF0FBECDBFDF91CF9174
:10477000FF91EF919F918F915F914F913F912F9179
:104780000F900BBE0F900FBE0F901F9018952091A9
:10479000F904222319F32091F90421502093F904FC
:1047A000DDCF2091F9042830C8F62091F9042F5F5D
:1047B0002093F904D3CFE4E6F0E080818E7F8083FC
:1047C0008FE880937E0080E480937C00EAE7F0E04D
:1047D00086E3808310927B008081886580831092BD
:1047E000F10408951F920F920FB60F9211242F9388
:1047F0003F938F939F9380917800909179002091BF
:10480000EF043091F004820F931F9093F004809393
:10481000EF048091EE048F5F8093EE048091EE04AC
:10482000803428F080917A008F7780937A009F916E
:104830008F913F912F910F900FBE0F901F90189561
:1048400080917A0087FD07C0E091EC048E2F90E004
:104850008D30910508F00895FC01E754FF4F0C944A
:104860001B2B8091EF049091F0040024880F991F76
:10487000001C880F991F001C892F902D9093F00425
:104880008093EF048091EF049091F004AC01440F09
:10489000551F440F551F480F591F9A01A3E4B8E054
:1048A0000E94242B481B590B56954795840F951F42
:1048B000929582958F7089279F7089278093FA043B
:1048C0008E3608F09CC0843608F4ADC081E0809339
:1048D0001B018CE08093EC04089587E480937C00B6
:1048E00080937C001092F0041092EF041092EE047A
:1048F00080917A00806C80937A008091EC048F5FC5
:104900008093EC0408958091EF049091F0049093CB
:10491000F304913A08F070C0913608F47EC081E04B
:104920008093F2048AE08093EC0408955D9A82E417
:10493000D7CF8091EF049091F0049093F504913AD1
:1049400008F057C0913608F462C081E08093F40407
:1049500088E08093EC0408955D9A83E4C1CF809150
:10496000EF049091F004892F80958093F60486E0FF
:104970008093EC040895419A84E4B2CF8091EF04CF
:104980009091F0049093F70484E08093EC040895F0
:10499000419A81E4A5CF8091EF049091F004892F92
:1049A00099279093F0048093EF048091EF04909105
:1049B000F004C097D0F08091EF049091F00480371C
:1049C000910508F51092F80482E08093EC040895B4
:1049D000409A80E485CF8091F1048F3F19F08F5F7A
:1049E0008093F1041092EC04089582E08093F8041F
:1049F000EBCF1092F404ACCF1092F20493CF82E08C
:104A000080931B0166CF81E08093F804DDCF913263
:104A100068F082E08093F4049BCF913258F082E0FA
:104A20008093F2047FCF10921B0153CF83E08093D9
:104A3000F4048ECF83E08093F20474CF81E09091F0
:104A4000F104913208F480E008958091FC048130F3
:104A500021F1C8F0823019F0833059F0089560E6F2
:104A600074E085E00E94F22168E574E086E00C9431
:104A7000F22168E574E085E00E94F22168E574E0C7
:104A800086E00C94F22168E674E085E00E94F22151
:104A900068E774E086E00C94F22168E674E085E053
:104AA0000E94F22160E774E086E00C94F22190917C
:104AB000FB048091FC04981731F00E942525809119
:104AC000FC048093FB0460E087E00E94801E85E088
:104AD0000E949F1E61E087E00E94801E86E00C9489
:104AE0009F1E8091FC0408958091FC04833020F483
:104AF0008F5F8093FC04089583E08093FC04089505
:104B00008091FC048150833018F48093FC04089554
:104B10001092FC04089566E974E081E00E94F2219D
:104B20006EE874E082E00C94F221FC01808170E078
:104B3000680F711D91816C3371055CF09F5F01C03E
:104B4000922F6C53710921E0290F6C337105C0F766
:104B50009183608322819C3350F02F5F01C0232F0B
:104B60009C5331E0320F9C33D0F72283918328315C
:104B700058F08BEA289F812D112482958F7098E13F
:104B8000899F2019112422830895EF92FF920F9399
:104B90001F93CF93DF9300D000D000D0CDB7DEB706
:104BA000FC0121813DEC239F912D11249695969532
:104BB00096954AE0949F20191124205D2D83939FA0
:104BC000212D11242695269526958AE0289F901957
:104BD0001124905D9C838AE38B83662359F02281A4
:104BE000211140C081E3898382E38A8381E08E833F
:104BF00089811BC09281939F812D11248695869572
:104C000086954AE0849F90191124905D9A83839F32
:104C1000312D11243695369536959AE0399F8019B5
:104C20001124805D898390E29E838E010E5F1F4F69
:104C30007E0127E0E20EF11C03C0F80181918F0193
:104C40000E949F1E0E151F05C1F726960FB6F894F9
:104C5000DEBF0FBECDBFDF91CF911F910F91FF90AF
:104C6000EF9008952D3050F5922F8DEC989F312DB7
:104C70001124369536953695389F812D11248695C9
:104C800086958695EAE08E9F30191124832F332371
:104C9000C1F0805D89833DEC939F312D11243695C1
:104CA00036953695FAE03F9F90191124905D9A83CE
:104CB0002C3008F49BCF92E09E83B7CF94EF920FF5
:104CC000D4CF80E2E7CF8091FD04882391F06091FA
:104CD0001105862F8370833081F060FD05C06470FC
:104CE00089E095E00C94C525687081E095E00C940E
:104CF000C52580E894E00C94CE1E87E894E00C94DF
:104D0000CE1E8091FD04882319F081508093FD040C
:104D1000809111058370813009F0089540911D0143
:104D200050911E01E091FF04F09100059A01ADEC55
:104D3000BCEC0E94242B9695879596958795969521
:104D40008795E80FF91FF0930005E093FF04209189
:104D5000FE04BC01660F771F880F991F880F991FEB
:104D6000880F991F860F971F481B590B420F4093BE
:104D7000FE048091FE048B3080F28091FF049091BC
:104D800000050196909300058093FF048091FE0436
:104D90008A508093FE0408958091110580FF08C019
:104DA00081FD06C08091FF04909100050A9708F4E8
:104DB00008954FB7F8942091FF0430910005ADECB1
:104DC000BCEC0E94242B9695879596958795969591
:104DD00087952091FF04309100055AE0859F2019A6
:104DE00031091124309300052093FF044FBF682F31
:104DF00081E095E00C949525FC01868180930B055C
:104E0000878180930A058085809309058185809339
:104E1000110582818E30A0F0828580930305838501
:104E200080930205848580930105858590E0982F05
:104E300088272685820F911D90931E0180931D0166
:104E4000109200051092FF041092FE0480911C0144
:104E50008093FD0408958A3038F08F3F49F08B3FEE
:104E600058F480931C0108958AE080931C010895F2
:104E700084E680931C0108958AEF80931C010895B5
:104E800080911C01089580911D0190911E0108954B
:104E90001F920F920FB60F9211240BB60F922F9301
:104EA0003F934F935F936F937F938F939F93AF93B2
:104EB000BF93EF93FF938091C000887191F0809130
:104EC000C6008093560510925605109213058091E6
:104ED000C6008D3709F45CC08E3709F059C082E0F6
:104EE0006DC08091C6008D3709F47FC08E3709F4FC
:104EF00062C09091130591FF4BC090FF05C020E266
:104F000082279E7F90931305909156059F3308F05A
:104F100074C0E091560591E09E0F90935605F0E025
:104F2000E95AFA4F808380915605843009F474C0A1
:104F300080915605853060F12091560580911205CB
:104F4000281326C083E0809356058091560582176A
:104F5000A0F490E0E0915605F0E0E95AFA4F808124
:104F6000980F809156058F5F809356058091560566
:104F7000821780F39F3F09F455C0E7E5F5E080E430
:104F8000DF011D928A95E9F71092560510921305DC
:104F9000FF91EF91BF91AF919F918F917F916F9111
:104FA0005F914F913F912F910F900BBE0F900FBECD
:104FB0000F901F90189580911305826010925605EE
:104FC00090E4E7E5F5E0DF011D929A95E9F780931B
:104FD0001305E091560581E08E0F80935605F0E0B1
:104FE000E95AFA4F8EE78083D3CF8091130581FF72
:104FF000CFCF816080931305CBCF809113058D7F38
:10500000809313051092560580E4E7E5F5E0DF0193
:105010001D928A95E9F7BCCF809159058C5F8093EA
:10502000120586CF88E08093560580915A05803816
:1050300049F1813809F0A1CFE0915605F0E0EB5A33
:10504000FA4F2081E0915605F0E0E95AFA4F82814B
:105050008431E0F4E0915605F0E0E95AFA4F4281DC
:105060006091560570E0695A7A4F82E696E00E9498
:10507000532AE0915605F0E0EB5AFA4F8081809375
:105080001F017BCF8EE080935605D6CF44E1E8CF59
:105090001F920F920FB60F9211240BB60F928F939F
:1050A0009F93EF93FF93E091150581E08E0F80931E
:1050B0001505F0E0EA5EFA4F80818093C60090917A
:1050C000150580911405981720F4809115058034FA
:1050D00038F08091C1008F7D8093C100109215053A
:1050E000FF91EF919F918F910F900BBE0F900FBE8C
:1050F0000F901F9018958FEF80931F01569A5E981E
:105100008AB18C7F8AB91092560580E4E7E5F5E014
:10511000DF01982F1D929A95E9F710921505E6E1A7
:10512000F5E0DF011D928A95E9F785E090E0909324
:10513000C5008093C4001092C000E1ECF0E0108242
:1051400086E08093C20088E980830895AF92BF9281
:10515000CF92DF92EF92FF920F931F93CF93DF9343
:10516000CDB7DEB76E970FB6F894DEBF0FBECDBFDA
:1051700088E696E00E944B2AE82E882349F0809129
:10518000C100282F2072E22E85FF14C0EE24E39484
:105190008E2D6E960FB6F894DEBF0FBECDBFDF9199
:1051A000CF911F910F91FF90EF90DF90CF90BF9024
:1051B000AF9008958E010F5F1F4F8EE1D8011D92B1
:1051C0008A95E9F78EE7898381E08C838FEF8E8360
:1051D0008F8321E046E1BE01675F7F4F88E696E05E
:1051E0000E94D52AAB8485E08A0D8B83B4E0BA1582
:1051F00008F092C0FE0139966F018DEFB82EBA0CFF
:105200009DEFF92E80E090E0F1E0FF1520F4D6014B
:105210006C910E949129F394BFEFCB1ADB0AFB102B
:10522000F3CF8C879D874A2D50E0BA01695F7F4F8D
:1052300023E030E090E083E0F801E20FF31F2081EB
:10524000920F8F5F282F30E062177307ACF7485F2B
:105250005F4FF801E40FF51F9095908310921405AD
:1052600080E4E6E1F5E0DF011D928A95E9F7E0913F
:10527000140581E08E0F80931405F0E0EA5EFA4F8A
:105280008EE7808321E030E081E07DE760E212C0BC
:105290009131D9F0E091140521E02E0F20931405EF
:1052A000F0E0EA5EFA4F90838F5F282F30E04217DC
:1052B000530734F1F801E20FF31F9081933129F085
:1052C00038F323E8290F223028F7E091140521E074
:1052D0002E0F20931405F0E0EA5EFA4F7083E09100
:1052E000140521E02E0F20931405F0E09627EA5EC6
:1052F000FA4F90838F5F282F30E042175307D4F680
:105300001092150588E696E00E94DE2A8091C10081
:1053100080628093C1003CCF88E696E00E94DE2A3E
:1053200037CF41E0413021F1292F22959295907F8E
:10533000582F5295507F26272F7030E0F901E25503
:10534000FB4F82958F70982B80819827F901E25648
:10535000FB4F80818527423011F04F5FE3CF292F2B
:1053600030E0322F2227A901480F511DCA010895AC
:10537000E92FE627392F3295307F582F5295507FED
:10538000E295EF70F0E0DF01A255BB4F82958F7080
:10539000832B9C919827E256FB4F808185274F5F96
:1053A000C1CFFC012FB7F89490818181981B892F80
:1053B00065810E94FB2A892F2FBF0895CF92DF922B
:1053C000EF92FF920F931F93CF93DF931F92CDB76E
:1053D000DEB76C01453108F044E1D6018C9113969B
:1053E000ED90FC901497B5E18B9FE00CF11C11241B
:1053F000042F10E0A801C70129830E94472B44E134
:1054000050E0401B510B60E070E0C701800F911F1E
:105410000E94502BF60180810380F481E02D95E1FC
:10542000899FE00DF11D11242981248BD6018C91D7
:105430008F5F8C9315969C911597891708F01C9295
:105440008FB7F894F60120819181291302C091E071
:1054500092838FBF81E00F90DF91CF911F910F91C9
:10546000FF90EF90DF90CF900895CF93FC01CB0198
:10547000CFB7F894748363834583118210821282BC
:1054800025E1429FA001112460E070E00E94502BB2
:10549000CFBFCF910895FC012281222311F0858195
:1054A00008950C94D129FC013281332311F080E05E
:1054B00008950C94DE29FC012281222311F080E062
:1054C00008950C94DE29AF92BF92CF92DF92EF92B3
:1054D000FF920F931F93CF93DF93EC016B01B42ED8
:1054E000A22EE42EF12CA70160E070E0C6010E941C
:1054F000502B0115110511F0F80110828A818823C3
:1055000009F44FC08D818823A1F1EB81FC81898151
:10551000DF0195E1899FA00DB11D112412968C9198
:10552000B81690F58981BF0195E1899F600D711DC5
:105530001124A701C6010E94472B0115110559F03E
:105540008981EB81FC8195E1899FE00DF11D11249A
:105550008489F8018083A11022C08FB7F8949981C3
:105560009F5F99832D81921708F019821A828FBF4D
:1055700081E0DF91CF911F910F91FF90EF90DF902D
:10558000CF90BF90AF9008958981DF0195E1899F09
:10559000A00DB11D11241296EC90F12CC3CF81E027
:1055A000E8CFCE010E94D129AECF0F931F9300E028
:1055B00010E00E94632A1F910F910895CF93DF930B
:1055C000EC018A81882399F08D81882359F08FB767
:1055D000F89499819F5F99832D81921730F41A82F4
:1055E0008FBF81E0DF91CF9108951982F8CFCE016E
:1055F0000E94D129EACF991B79E004C0991F961720
:1056000008F0961B881F7A95C9F78095089597FB37
:10561000072E16F4009407D077FD09D00E94332B93
:1056200007FC05D03EF4909581959F4F08957095A5
:1056300061957F4F0895EE0FFF1F0024001C0BBEE5
:105640000790F691E02D0994A29FB001B39FC0018D
:10565000A39F700D811D1124911DB29F700D811D9E
:105660001124911D0895AA1BBB1B51E107C0AA1F5D
:10567000BB1FA617B70710F0A61BB70B881F991FF3
:105680005A95A9F780959095BC01CD010895FB012D
:10569000DC0102C001900D9241505040D8F70895AE
:1056A000DC0101C06D9341505040E0F70895DC01EA
:1056B000CB01FC01F999FECF06C0F2BDE1BDF89A1D
:1056C000319600B40D9241505040B8F70895F999C1
:1056D000FECF92BD81BDF89A992780B50895A6E1C5
:1056E000B0E044E050E00C94592BA8E1B0E042E077
:1056F00050E00C94592BDC01CB0103C02D910E948A
:10570000862B41505040D0F70895262FF999FECFAF
:105710001FBA92BD81BD20BD0FB6F894FA9AF99ACE
:105720000FBE01960895242F0E94862B252F0E94DC
:10573000862B0C949B2B0E94852B272F0C94862B59
:04574000F894FFCF0B
:10574400FF0F0A0032003200098080800880800642
:105754000580060380030702FF050202960A00FF84
:105764003031323334353637383941424344454693
:10577400454D524700524556210020454E47494E5B
:1057840045002020204F46462020002020204F4E58
:10579400202020005354415254494E47004C49475D
:1057A400485420004C4F57202020004D4544495573
:1057B4004D00484541565920005745494748540033
:1057C4004C4F414420434E46003A20004C4F414444
:1057D400494E4700534554002D20204C4F434F0061
:1057E40053415645442100464F524345002D202045
:1057F40046554E43002D2D2D00434F4E464947003C
:10580400484F524E0042454C4C004252414B4500D9
:1058140041555800454E47204F4E00454E472053B2
:10582400544F500054485220554E4C4B00462E4481
:10583400494D20233100462E44494D202332004651
:105844002E4845414400462E444954434800522EB4
:1058540044494D20233100522E44494D2023320027
:10586400522E4845414400522E4449544348005561
:10587400502042544E00444F574E2042544E002D67
:105884002D2020202020004C4154004D4F4D004E2F
:105894004F544348002D202020434647004E4F5488
:1058A4004348200054485253484F4C44002D202074
:1058B4002043414C004C4F57004849474800434F50
:1058C4004D4D00544852544C2049440042415345E4
:1058D400204144520054494D452041445200204146
:1058E4004C4C00307800505245465300534C4545CB
:1058F4005000444C593A0054494D454F55540043C7
:105904004C4B3A007300545820494E54564C0054A2
:105914005820484C444F46005641522042524B00B6
:1059240042524B2050574D0042524B204553545045
:10593400004C454420424C4E4B0052455620535790
:10594400415000204F4E2000204F4646004449411C
:1059540047530073656300504B542054494D450030
:10596400525353490020202D0064426D20004E4FB5
:10597400205349474E4C00465420524154494F004D
:105984003A31004241545445525900564552534904
:105994004F4E00302E382E3536004749542052459C
:1059A400560042415345205459500042415345202A
:1059B40052455600464143544F52590052455345AF
:1059C4005420005245534554212121004E4F542068
:1059D40049444C450053544F5050494E47002020F1
:1059E4004E4F4E452020005448524F54544C4500CD
:1059F4001C0404041C0000001C14181C1E19190E9D
:105A04001F0810001F0000001F1C1C1C1D0404188C
:105A14001F1F0F071B0100001F0F1E1D1A14181053
:105A24001F0101011D0101001F0000001F000000F3
:105A340019050405071C04031905050505180000CC
:105A44001C090909090800000C121212120C0000AA
:105A54001C12121C121200001C12121C1010000046
:105A6400000E1F1F1F0E0000000E1111110E00006A
:105A74000001131F13010000040E0E0E1F0004008A
:105A84000E1B111111111F000E1B11111F1F1F00DE
:105A94000E1F1F1F1F1F1F001F1F1F1F1F1F1F1F42
:105AA4001F111111111F1F1F1F111111111111119C
:105AB4001111111F1F1F1F1F111111111111111F7E
:105AC4002D2D3A2D2D200020484F4C44200000005D
:105AD4001C141C10100008141C14140000000001F5
