:100000000C94FE000C94632D0C94632D0C941D0134
:100010000C941D010C948D020C941D010C941D0177
:100020000C941D010C941D010C941D010C941D01D8
:100030000C941D010C941D010C941D010C941D01C8
:100040000C9400030C941D010C941D010C941D01D3
:100050000C9449320C9449330C941D010C941D01ED
:100060000C94E72D0C941D010C941D010C941D01A2
:100070000C941D010C941D010C941D010C941D0188
:100080000C941D010C941D010C941D016A0C8A0C2A
:10009000780C7E0C640CAC0CA60C9A0C940C570CCF
:1000A000A309700CD40F981A990F830E830E140EA7
:1000B0005410BF0D690F3A0F0B0FDB0E8F0D5F0D44
:1000C0001A0D4C10D40F8310990F830E830E140E4B
:1000D0005410BF0D690F3A0F0B0FDB0E8F0D5F0D24
:1000E0001A0D4C1019111111FC10FC10FC10FC1011
:1000F000E610E610E610E610DE102111D40F2D20D8
:10010000990F830E830E140E5410BF0D690F3A0F12
:100110000B0FDB0E8F0D5F0D1A0D4C10D20FDD1281
:10012000970F810E810E120E5210BD0D670F380F02
:10013000090FD90E8D0D5D0D180D4A10D40F302406
:10014000990F830E830E140E5410BF0D690F3A0FD2
:100150000B0FDB0E8F0D5F0D1A0D4C102524BE16F4
:1001600022247424742471246E246B24682465244E
:1001700062245F245C245924522428249325872553
:100180007B256F25632557254B25CE25C225B62512
:10019000AA25E625DA25F2253F25BA24AE248024B7
:1001A0009F252F282F28232823281D281D2817287E
:1001B0001728C41EC41E292829280E2D192D0E2DDE
:1001C000242D0D2D2F2D0D2D242D0D2D372D0D2DE5
:1001D0000D2D0D2D0D2D0D2D0D2D0D2D0D2D0D2D4F
:1001E0000B2DD62EB92EB62EAC2EA92E9D2E9A2EC4
:1001F000872E842E712E5B2E262ED92E11241FBE03
:10020000CFEFD0E4DEBFCDBF15E0A0E0B1E0E6E483
:10021000FDE600E00BBF02C007900D92A238B107C7
:10022000D9F728E0A2E8B5E001C01D92A538B207D1
:10023000E1F70E9436080C94A1360C940000682760
:1002400090918205209183052927262320938305F9
:1002500090959623909382056095622B962B9095AE
:10026000892708950F931F93CF93DF93CDB7DEB700
:10027000A9970FB6F894DEBF0FBECDBF8E01075D04
:100280001F4F20E044E1BE016B5E7F4F89E798E09D
:100290000E946435882379F08E8990919C05891796
:1002A00009F490C090919D05891729F08D898F3FA1
:1002B00069F0981759F0A9960FB6F894DEBF0FBEF3
:1002C000CDBFDF91CF911F910F9108950F8900232A
:1002D00009F480C010E020E030E09DEF910F9230F3
:1002E00060F0E5E1F0E0EC0FFD1FE10FF11D608132
:1002F000C9010E9492349C010F891F5F101768F397
:10030000832F90E0498D50E048175907A1F6332715
:10031000888D90E02817390771F68A8D813409F4A9
:100320009FC0873509F47BC0823509F4D8C0863573
:1003300009F4A8C0883509F464C0843509F44FC0B5
:100340008F7D863509F0B7CF9E8980919C059813E3
:10035000B2CF89A580931A018C8D90E0A0E0B0E027
:10036000DC01992788272E8DAC01BD01422B2D8DF4
:1003700030E0922F8827A0E0B0E0842B952BA62BAD
:10038000B72B8093720890937308A0937408B0936E
:10039000750848E050E060E270E083EB97E00E946F
:1003A00051361092BB07402F50E0043108F0AFC027
:1003B0004C505109BE016F5D7F4F83EB97E00E9467
:1003C000483679CF92E390939F0590919D058913CC
:1003D0006DCF71CF80E090E020E030E093CF80914E
:1003E00000018F3F49F09E89891731F020919C05CB
:1003F000921361CF81115FCFCE0145960E94E33009
:100400005ACFF894A89584B7877F84BF8091600005
:1004100088618093600088E080936000FFCF8E89C0
:10042000898388E08B8387E78E838B8D6C8D90E04A
:100430000E9486368B8D8F839C8D988781116AC030
:1004400080E090E00E94683680939D058A834B810E
:10045000BE016F5F7F4F8FE798E00E945C352BCF26
:100460008E89898380919D058A8386E08B8381E6CE
:100470008E8346E0BE016F5F7F4F8FE798E00E945A
:100480005C3519CF8E89898380919D058A8384E1AB
:100490008B8386E78E8380E88F8388E288878CE46D
:1004A00089878DE58A8781E08B8782E08C8783E46A
:1004B0008D8793E59E8794E59F879AE2988B95E4D4
:1004C000998B9DE49A8B8B8B82E38C8B44E1BE01EC
:1004D0006F5F7F4F8FE798E00E945C35ECCE8E898E
:1004E000898380919D058A8388E08B8382E78E8350
:1004F0008B8D8F8390E00E946836888748E0BE012C
:100500006F5F7F4F8FE798E00E945C35D4CE48E064
:1005100050E050CF80919D0599CF1F920F920FB65A
:100520000F9211240F900FBE0F901F90189585FD0C
:1005300016C081E080939105909190059817C1F0C5
:1005400082E390E090930701809306018091060179
:10055000909107019093050180930401089584FD13
:1005600020C082E080939105909190059813E8CF88
:1005700080918F05853608F18091060190910701E1
:100580000A97F8F48091060190910701059730F4DD
:1005900085E090E0909307018093060110928F050B
:1005A000089586FF06C087FD16C084E080939105FC
:1005B000C3CF83E080939105BFCF8F5F80938F057A
:1005C000089580910601909107010A979093070181
:1005D00080930601D7CF10929105B2CF90918505F7
:1005E00082FF07C09B7F81FD07C0926090938505C5
:1005F0000895946081FFF9CF9D7F909385050895BC
:100600001F920F920FB60F9211240BB60F922F93D9
:100610003F934F935F936F937F938F939F93AF938A
:10062000BF93EF93FF93809193058160809393052F
:10063000809171088F5F809371088A3008F442C0FE
:10064000109271088091970590919805019690936A
:1006500098058093970580919F05882329F08091C4
:100660009F05815080939F058091950590919605F7
:10067000892B49F08091950590919605019790936B
:100680009605809395050E94FA2C80918405882315
:1006900029F08091840581508093840580915F06C4
:1006A0008F5F80935F0620915F0680911D0130E08F
:1006B00090E0880F991F880F991F2817390794F524
:1006C0000E94683080919405882329F080919405D8
:1006D000815080939405209104013091050180910F
:1006E0000601909107012817390748F48091040109
:1006F0009091050101969093050180930401FF916B
:10070000EF91BF91AF919F918F917F916F915F9189
:100710004F913F912F910F900BBE0F900FBE0F90F6
:100720001F90189510925F06CBCFEF92FF920F9318
:100730001F93CF93DF93CDB7DEB727970FB6F8940B
:10074000DEBF0FBECDBF86E0E5E3F1E0DE0111962E
:1007500001900D928A95E1F789818E3209F4C5C224
:10076000882309F4F7C1FE01329660E003C08823B4
:1007700009F4F4C12AE0629F800D112460ED680F36
:100780008F0181918E3299F78EE090E06F830E9405
:1007900068366F81861721F08EE090E00E948636E1
:1007A0000F5F1F4FF80180818E3209F4E7C1882363
:1007B00009F4E4C1F801319610E002C0882349F041
:1007C0002AE0129F800D112410ED180F81918E32B6
:1007D000A9F78FE090E00E946836811729F0612F19
:1007E0008FE090E00E94863683E090E00E946836B9
:1007F000182F82E090E00E946836212F30E0A90196
:10080000582B4A30510508F4D4C14536510508F03B
:100810003DC250930301409302018DE190E00E949C
:1008200068368A3008F4BCC18093010184E190E00D
:100830000E946836F82E85E190E00E946836082F05
:1008400086E190E00E946836182F482F602F8F2D88
:100850000E9403320E94FA318F1539F00E94FA315A
:10086000682F84E190E00E9486360E94FD31801757
:1008700039F00E94FD31682F85E190E00E948636B4
:100880000E940032811739F00E940032682F86E101
:1008900090E00E94863681E190E00E94683690E008
:1008A000009709F46DC18F3F910509F40EC284369B
:1008B000910508F0EEC148E552E0849F9001859FC4
:1008C000300D949F300D11243093B1072093B00761
:1008D00082E190E00E946836182F0E941231811741
:1008E00029F0682F82E190E00E9486368EE190E048
:1008F0000E9468368093000183E190E00E94683690
:1009000080931C0180E090E00E946836803308F4F8
:1009100062C18A3408F0A8C180939D058FE190E000
:100920000E946836803D08F465C1803F08F0A5C18B
:1009300080939C0580E190E00E9468368F3109F435
:100940001AC18FE190E090936E0880936D086FE17B
:1009500080E190E00E94863600916D0810916E084B
:1009600011271695102F00271795079510936E08DD
:1009700000936D08C8010E94763690939B05809382
:100980009A0597FD40C18031974208F05DC1C801CA
:1009900002960E94683680931901C80103960E944E
:1009A000683680931801C80108960E9468368093C3
:1009B0001701C80109960E94683680931601C80184
:1009C0000A960E94683680939905C8010B960E948A
:1009D000683680931501C8010C960E946836809392
:1009E0001401C8010D960E94683680931301C80156
:1009F0000E960E94683680931201C8010F960E94DD
:100A0000683680931101C80104960E94683680936D
:100A10001001C80143960E94683680930F01C801F7
:100A200005960E94683680930E01C80106960E94C2
:100A3000683680930D01C80107960E94683680933E
:100A40000C01C80140960E94683680930B01C801D2
:100A500041960E94683680930A01C80142960E941E
:100A6000683680930901C80144960E9468368093D5
:100A70000801C80148960E94703660938A057093F9
:100A80008B0580938C0590938D05C8014C960E9430
:100A900070366093860570938705809388059093E0
:100AA000890580E290E00E9468368093700881E2B8
:100AB00090E00E94683680936F0882E290E00E9486
:100AC00068368093760883E290E00E9468368093CF
:100AD000B207C80147960E94683680931B017801CF
:100AE00086E1E80EF11CC7010E946836823008F4E6
:100AF000E0C08B3008F09CC080931D01B801605E9F
:100B00007F4F48E050E085E698E00E945836E5E6E1
:100B1000F8E021E09EE706C09083319648E0ED368C
:100B2000F40759F080818F37B8F78111F6CF208311
:100B3000319648E0ED36F407A9F727960FB6F894FA
:100B4000DEBF0FBECDBFDF91CF911F910F91FF9000
:100B5000EF90089560E08E010F5F1F4F8EE090E0F0
:100B60006F830E9468366F81861741F08EE090E0B7
:100B70000E94863617CE0FE110E0F2CE10E029CEAB
:100B800081E090E09093B1078093B00761E081E14C
:100B900090E00E9486368091B0079091B1078BCE8D
:100BA0008AE0809301016AE08DE190E00E94863640
:100BB0003DCE8AE090E0909303018093020160E0D3
:100BC00082E090E00E9486366091020183E090E02E
:100BD0000E94863622CE80E380939D0560E380E00C
:100BE00090E00E9486368FE190E00E946836803D5A
:100BF00008F09BCE80ED80939C0560ED8FE190E046
:100C00000E94863697CE9F778038910508F4BFCE34
:100C10008FE790E090939B0580939A056FE770E0D3
:100C2000C8010E949C3600916D0810916E08AFCEED
:100C30008AE080931D016AE0C7010E948636009118
:100C40006D0810916E085ACF8FE097E290939B0544
:100C500080939A056FE077E2C8010E949C3600916C
:100C60006D0810916E0893CE89E480939D0569E428
:100C700080E090E00E94863651CE8FEE80939C05F6
:100C80006FEE8FE190E00E94863654CE84E690E0CD
:100C900092CF83E690E09093B1078093B00763E62C
:100CA00081E190E00E9486368091B0079091B10773
:100CB00002CE82E080931D0162E0C7010E94863669
:100CC00000916D0810916E0819CF85E090E0909327
:100CD000B1078093B00765E081E190E00E9486361D
:100CE0008091B0079091B107E6CD60E08E010F5F73
:100CF0001F4F4ACDEF92FF920F931F93CF93DF9335
:100D000020E8829FC001112420E8629F8001112405
:100D10007C0120E8E20EF11CEC01081B190BCE014E
:100D20000E946836682FC8018C0F9D1F0E9486366E
:100D30002196CE15DF0599F7DF91CF911F910F9185
:100D4000FF90EF900895AF92BF92CF92DF92EF9213
:100D5000FF920F931F93CF93DF93A89560E082E0FB
:100D600090E00E9486366AE083E090E00E9486363A
:100D70006FE08DE190E00E94863665E081E190E0D1
:100D80000E94863664E682E190E00E94863661E148
:100D900083E190E00E94863660E380E090E00E946C
:100DA000863660ED8FE190E00E94863660E08EE14D
:100DB00090E00E9486364FEF6FEF8FEF0E94033274
:100DC0000E94FA31682F84E190E00E9486360E94EA
:100DD000FD31682F85E190E00E9486360E94003246
:100DE000682F86E190E00E9486366FE180E190E016
:100DF0000E948636C0E8D0E087E0A82E97E1B92EA1
:100E000027E2C22E37E3D32E47E4E42E57E5F52E32
:100E100007E617E7A895D0936E08C0936D0863E0C6
:100E200070E8CE010E949C3680916D0890916E080A
:100E300062E002960E94863680916D0890916E085D
:100E400061E003960E94863680916D0890916E084D
:100E500060E808960E94863680916D0890916E0831
:100E600060E809960E94863680916D0890916E0820
:100E700060E00A960E94863680916D0890916E0817
:100E800060E80B960E94863680916D0890916E08FE
:100E900060E80C960E94863680916D0890916E08ED
:100EA00060E80D960E94863680916D0890916E08DC
:100EB00060E00E960E94863680916D0890916E08D3
:100EC00060E80F960E94863680916D0890916E08BA
:100ED0006AE004960E94863680916D0890916E08B3
:100EE00060E843960E94863680916D0890916E0866
:100EF00069E005960E94863680916D0890916E0893
:100F000068E006960E94863680916D0890916E0882
:100F100060E807960E94863680916D0890916E0871
:100F200065E040960E94863680916D0890916E082B
:100F300066E041960E94863680916D0890916E0819
:100F400060E842960E94863680916D0890916E0806
:100F500060E844960E94863680916D0890916E08F4
:100F600040E050E0BA0148960E94943680916D08A6
:100F700090916E0840E050E0BA014C960E94943681
:100F800080916D0890916E0865E046960E948636C5
:100F900080916D0890916E0861E047960E948636B8
:100FA000A0926508B0926608C0926708D09268085F
:100FB000E0926908F0926A0800936B0810936C083D
:100FC00060916D0870916E08605E7F4F48E050E060
:100FD00085E698E00E947C36C058DF4FC0388AE032
:100FE000D80709F017CF6FE181E00E947A06A89533
:100FF000DF91CF911F910F91FF90EF90DF90CF90F5
:10100000BF90AF900C94950314BEA8959EE088E124
:101010000FB6F894A895809360000FBE909360007F
:10102000A89510929F058FEF80931A010E942F318F
:101030000E94950310929E050E94E82C0E94D02DDC
:101040000E94472D16BC8CE687BD10927108109245
:1010500098051092970582E084BD85E085BDEEE697
:10106000F0E0808182608083239A0895CF93DF939C
:10107000CDB7DEB7C055D1090FB6F894DEBF0FBEAD
:10108000CDBF2090BE0527962FAE27975090BD0567
:101090003090920528963FAE28970E9404088091D0
:1010A0009D0589A380919C0588A3809100018F8F65
:1010B0002091B0073091B107369527953695279541
:1010C00036952795AFE4BBE10E9425369695879526
:1010D00096958795969587958E8F0E9427319DECE2
:1010E000899F812D11248695869586958D8F2091D7
:1010F000020130910301ADECBCEC0E9425369695BF
:10110000879596958795969587958C8F28988FB714
:10111000F8942091B0073091B10730939605209351
:1011200095058FBF1698A89540E160E676E08FE7B9
:1011300098E00E94363548E06CEB77E089E798E06C
:101140000E9436350E947C337894A8958FEF89836E
:1011500080919D058A8384E18B8386E78E8380E876
:101160008F8388E288878CE489878DE58A8781E090
:101170008B8782E08C8783E48D8793E59E8794E557
:101180009F879AE2988B95E4998B9DE49A8B8B8B41
:1011900082E38C8B44E1BE016F5F7F4F8FE798E065
:1011A0000E945C35A8951092780885B1806F85B94A
:1011B00085B1866085B90E94D32C83B1867F282EA5
:1011C0000E944C318AAB22965FAE22972BE131E030
:1011D0003EAB2DABAE01425E5F4F3A01BE016F5D8B
:1011E0007F4F7EAF6DAF71E07AAF81E024968FAF15
:1011F00024972C961CAE1DAE1EAE1FAE2C971EA6BD
:101200001FA618AA19AA312C1CAEA9E1B1E0BBA7F0
:10121000AAA71BAE1CA619AE412C0FE023961FAE49
:1012200023971DA68FE0C82ED12CE12CF12C1FAAEC
:1012300018AEE1E0F0E02696FFAFEEAF26979E01F4
:10124000245E3F4F39A728A7435051095FA34EA3FF
:10125000BE01665E7F4F7DA36CA3CE0149969BA322
:101260008AA3812C912C540183942BAA142DD7018D
:10127000C601C32CD52C1C012D0180918108882327
:1012800009F4A6C2A8952B9A2B988091930580FD0E
:10129000D2C20E94152E0E944C31833009F4E2C262
:1012A000AAA9A33011F40C945A120E944C318AABB3
:1012B000409170083091BB05842F90E00497632F14
:1012C00070E0681779070CF05CC7809185058E7F08
:1012D000809385053091BC0540917608341708F459
:1012E00097C3842F90E0E090B207632F70E0681BF3
:1012F000790B54E6569FF001579FF00D11246E2D87
:1013000070E0681B790BCF010E940836F62E5091D1
:101310001B0150FF82C3E31628F48091920581607F
:101320008093920552FF62C353FF3CC7ECA58E2FFA
:1013300090E08C30910560F4FC01EA5BFF4F8091F6
:1013400085050C941C368860809385054BE04CA77E
:101350008091BD0551FD12C09091080197FD09C310
:101360009F714EA55FA568A979A904C07695679578
:10137000579547959A95D2F740FFFBC2813009F403
:10138000F7C210F40C945112823009F0F2C2E1E07D
:10139000DE1611F40C94131381E090911C0194FD5E
:1013A000EEC2EE24E3944091BE054CABD82E51E042
:1013B000C51609F404C364E0C61611F40C941312A4
:1013C00085E0C81611F40C9443120E94B33090E1EA
:1013D0002916310408F427C330919105112309F42B
:1013E000E1C4202E312C30939005A89589E798E030
:1013F0000E944C3581113AC7A89580919F058111B3
:10140000C9C6109272081092730810927408109254
:1014100075088FEF80931A0189E0E9E5F4E0A3EB0A
:10142000B7E001900D928A95E1F787E08093780804
:101430003091850530FFD6C28091190187FDD2C257
:101440008F71B501A40104C0440F551F661F771F9B
:101450008A95D2F7DB01CA0131FF13C04091180110
:1014600047FD0FC0242F2F71B501A40104C0440F04
:10147000551F661F771F2A95D2F7842B952BA62B15
:10148000B72B32FF13C040910E0147FD0FC0242F30
:101490002F71B501A40104C0440F551F661F771FAB
:1014A0002A95D2F7842B952BA62BB72B33FF13C08D
:1014B0004091100147FD0FC0242F2F71B501A401E9
:1014C00004C0440F551F661F771F2A95D2F7842B3F
:1014D000952BA62BB72B34FF12C030910F0137FD8F
:1014E0000EC03F71B501A40104C0440F551F661F13
:1014F000771F3A95D2F7842B952BA62BB72B3FEF6E
:101500003C0D323008F4ECC655E0C51609F4B1C6FE
:101510006FA9662391F030910B0137FD0EC03F712A
:10152000B501A40104C0440F551F661F771F3A95EB
:10153000D2F7842B952BA62BB72B78AD772391F080
:1015400030910A0137FD0EC03F71B501A40104C0FE
:10155000440F551F661F771F3A95D2F7842B952BA2
:10156000A62BB72BA8953091B905323009F41AC7CC
:10157000333009F4FDC6313009F4CBC6A89530915B
:10158000B705323009F4EFC6333009F435C73130CE
:1015900009F40DC720918A0530918B0540918C0587
:1015A00050918D05282B392B4A2B5B2B2EA73FA75B
:1015B00048AB59AB409186055091870560918805ED
:1015C0007091890540955095609570958EA59FA561
:1015D000A8A9B9A984239523A623B7238EA79FA7DB
:1015E000A8ABB9AB22969FAD2297D91609F454C681
:1015F000EE24E394F12C80919105811128C68FEFA0
:101600008D0D823008F423C6E114F10409F01FC6E1
:10161000A8958FB7F8942091970530919805219659
:101620003FAF2EAF21978FBF0E94052F882399F0DF
:10163000EF2859F4809102019091030121964EAD5B
:101640005FAD21974817590730F0809181088823B2
:1016500011F40C9403158FE798E00E944C35882311
:1016600031F080919405882311F40C941D133FB739
:10167000F89480919505909196053FBF892B21F0B4
:101680008091920587FFF9CDA895109278088091F6
:101690007A008F7780937A00289A169A88B183709F
:1016A00088B9159880916E008D7F80936E005F9849
:1016B0005E9885B1897F85B90E94602D41984098D8
:1016C0005D9883B7817F846083BFF894A8950FB637
:1016D000F894A895809160008861809360001092D2
:1016E00060000FBED99A8091680082608093680084
:1016F00080916C00806F80936C0083B7816083BFA2
:1017000078948895F89483B78E7F83BF8091680022
:101710008D7F80936800A8959EE088E10FB6F894CD
:10172000A895809360000FBE90936000A895789470
:10173000289816980E94D32C0E3011F40C94251A78
:1017400016BC8CE687BD1092710810929805109215
:10175000970582E084BD85E085BD80916E00826042
:1017600080936E0085B1866085B90E94472D63B174
:10177000667F8BA90E941F0163B1667F0E941F01D3
:1017800063B1667F0E941F0163B1667F0E941F01E3
:101790008BAB0E9497028BA90E94EE02809191056B
:1017A000809390050E942F318FB7F8944091B00735
:1017B0005091B10750939605409395058FBF809146
:1017C00092058F77809392058091810881115ACD7F
:1017D0008FEF898380919D058A8384E18B8386E7DF
:1017E0008E8380E88F8388E288878CE489878DE503
:1017F0008A8781E08B8782E08C8783E48D8793E5FD
:101800009E8794E59F879AE2988B95E4998B9DE457
:101810009A8B8B8B82E38C8B44E1BE016F5F7F4F91
:101820008FE798E00E945C35A8952B9A2B988091C1
:10183000930580FF2ECD809193058E7F8093930535
:1018400063B1667F8BA90E941F018BAB0E94970238
:101850008BA90E94EE020E94152E0E944C3183300B
:1018600009F01ECD9AA9933011F00E949B28109286
:101870007808289A159885B1897F85B985B18F70C8
:1018800085B90E94602D60E082E00E948B288BE386
:1018900091E00E94D92861E080E00E948B288FE3CC
:1018A00091E00E94D9280E944C318AABE6CC877F18
:1018B000809385053417D0F08091B207831708F024
:1018C00047CD3AE03CA744CD88608093850585E00C
:1018D0008CA73ECD806180938505F1E0FCA738CDD3
:1018E000877F80938505341708F032CD1CA630CD54
:1018F00088608093850543E04CA72ACD877F80933D
:101900008505341798F367E26F1508F021CD74E070
:101910007CA71ECD8F7E8093850523E12F1508F0CF
:1019200017CD32E03CA714CD88608093850529E06F
:101930002CA70ECD877F809385053417B8F2EFE48E
:10194000EF1508F005CDF8E0FCA702CD8860809384
:101950008505B7E0BCA7FCCC877F8093850534174D
:1019600028F29BE39F1508F0F3CCA6E0ACA7F0CCDF
:1019700082E0D816A9F190911C0194FF31C090919A
:10198000BE05E82E91118D2D81110DCD809109019B
:1019900087FD69C48F712EA53FA548A959A904C028
:1019A00056954795379527958A95D2F720FF5BC4C2
:1019B0003091BE053CABD12C51E0C512FCCC8091DE
:1019C0008405882309F491C40E94B33040E12416B1
:1019D000310408F001CDF101EE5AFF4F0C941C3692
:1019E000E82ED2CF80E090E0DC0136CDBCA5BA3045
:1019F00008F02AC5B23008F0F0C5809185058061F5
:101A000080938505341708F4A3CCF2E0FCA7A0CCA2
:101A100050911B0150FD73C4F12C809192058E7F73
:101A2000809392057FCCF101EE59FF4F0C941C3648
:101A300023E0C22E159A112311F40C94971E113035
:101A400011F40C94701E123011F40C9468271330AA
:101A500011F40C943427143011F40C94EC26153046
:101A600011F40C94AA26163011F40C94A527173003
:101A700011F40C949227183011F40C94E4271930C7
:101A800011F40C94EB1D1A3011F40C94561E1B30FB
:101A900011F00C94541E8091640881110C94F81F6D
:101AA0000E949B2860E080E00E948B288EE394E0F7
:101AB0000E94D9280E94A306FFCF33E0C32E159AB7
:101AC000111111C660E080E00E948B2888EF92E03F
:101AD0000E94D92861E080E00E948B288FE70E9455
:101AE000AA2881E093E00E94D928309191053230F4
:101AF00011F00C94901730919005323011F40C9441
:101B000012200E949B283091910511E00DE02DE0FC
:101B1000222E312C412C512C66CC73E0C72E159A05
:101B2000111130C660E083E00E948B288BE393E0C4
:101B30000E94D92861E080E00E948B288FE70E94F4
:101B4000AA288DE591E00E94D92830919105323084
:101B500011F00C94021A30919005323011F40C946B
:101B6000351F0E949B283091910511E00CE06CE03C
:101B7000262E312C412C512C36CC33E0C32E159A15
:101B8000112311F40C94B41980918E0590E08331E7
:101B9000910510F40C94671661E080E00E948B2898
:101BA00080E292E00E94D92861E081E00E948B28C7
:101BB000AAA5BBA58C9187FF02C00C94C21D8F7192
:101BC0000E94DB2B00E030919105323011F40C942F
:101BD000B61710F40C949317333011F40C94791653
:101BE0003430C9F4409104015091050180910601FF
:101BF000909107014817590770F0EAA5FBA580816D
:101C0000982F9F7111F40C94C522815080831092FB
:101C100005011092040107E097E0292E312C412C98
:101C2000512CE1CB03E0C02E159A112311F40C9432
:101C3000CF189E012B5E3F4F00E0290160E0A2E03B
:101C4000FA2EF00E8F2D0E948B28D2018D912D013E
:101C5000805D0E94AA2861E08F2D0E948B282BAC0A
:101C6000021511F40C94E61D80E20E94AA280F5F71
:101C7000043021F730919105323011F40C9498180A
:101C800010F40C947E18333011F40C949B193430FA
:101C900089F54091040150910501809106019091D0
:101CA00007014817590730F12BAC21100C94B222D0
:101CB0008D8981110C94B22283E48D8B2E898F89BA
:101CC0003AE0839FC001112444E6249F800D911DBA
:101CD0001124288D820F911D8038910534F081E008
:101CE0008E8B82E08F8B87E0888F34E01092050125
:101CF0001092040105E0F5E02F2E312C412C512CDF
:101D000072CB33E0C32E159A60E080E01111D9C682
:101D10000E948B28033011F40C94B81A8AEA91E0DF
:101D20000E94D9288FEA91E00E94D92861E080E0E2
:101D30000E948B288AAD0E94DB2B84EB91E00E94ED
:101D4000D928E0906D08F0906E0826968EAD9FAD74
:101D500026979695982F88279795879590936E0844
:101D600080936D080E94763697FF02C00C94AD1ADE
:101D7000803127E2920710F08FE097E20E94C12C99
:101D8000F0926E08E0926D0830919105333011F4B5
:101D90000C94141C343011F40C94DC24323011F403
:101DA0000C94CF24313009F4AFC3202E312C10E035
:101DB0001ACBB3E0CB2E159A11114BC460E084E02E
:101DC0000E948B288EE093E00E94D92861E080E099
:101DD0000E948B288FE70E94AA2880EB92E00E9445
:101DE000D92830919105323011F00C94821A30913B
:101DF0009005323011F40C9440200E949B283091C1
:101E0000910511E00BE0ABE02A2E312C412C512C36
:101E1000EACA63E0C62E159A11110DC760E082E090
:101E20000E948B2882E893E00E94D92861E080E03C
:101E30000E948B288FE70E94AA288DE591E00E94DE
:101E4000D92830919105323009F07BC73091900547
:101E5000323011F40C941A250E949B283091910580
:101E600011E00AE05AE0252E312C412C512CBBCA3E
:101E7000F3E0CF2E159A111173C660E081E00E9445
:101E80008B288FEB92E00E94D92861E080E00E94CD
:101E90008B288FE70E94AA288DE591E00E94D9281F
:101EA00030919105323009F044C7309190053230BD
:101EB00011F40C9423250E949B283091910511E088
:101EC00009E0E9E02E2E312C412C512C8CCA03E084
:101ED000C02E159A11114AC560E083E00E948B283C
:101EE0008AEA92E00E94D92861E080E00E948B2873
:101EF0008FE70E94AA2880EB92E00E94D9283091B7
:101F00009105323011F00C94FF1930919005323068
:101F100011F40C941B200E949B283091910511E034
:101F200008E0B8E02B2E312C412C512C5CCA43E048
:101F3000C42E159A60E080E00E948B280E94582FE2
:101F4000813011F40C94C61A10F40C94C01A82302B
:101F500011F40C94F919833021F487E991E00E947F
:101F6000D92861E080E00E948B280E94582F8823A6
:101F700011F40C94E019843020F48EE991E00E9471
:101F8000D9280E943E2F30919105333011F40C94E2
:101F9000EC19343011F40C94291A323009F4EFC0E2
:101FA00002E01CCAE3E0CE2E111120C660E082E000
:101FB0000E948B288091920580FDBDC6DE1411F42D
:101FC0000C94FA1A8CE491E00E94D928159A61E0E9
:101FD00081E00E948B280E944A300E94E73160E035
:101FE00087E00E948B283FA8332011F40C946C1AD0
:101FF00080910B01881F8827881F94E0981B892FE8
:102000000E94AA2861E087E00E948B2848AC442007
:1020100009F43CC780910A01881F8827881F94E033
:10202000981B892F0E94AA2861E080E00E948B28DB
:102030008091850582FFFEC687E00E94AA28309124
:102040009105323009F4FEC6333008F4D6C6333079
:1020500011F40C942F25343011F00C942C25809120
:102060009005843009F40BC780910A0186FD02C0F7
:102070000C940B2582E02DA428262DA600E0212C0F
:10208000312C21012DA521702FAB4DA5427048AFF9
:1020900010E0A9C953E0C52E0E949B2830919105FC
:1020A00000E09CC973E0C72E159A60E01111BBC314
:1020B00083E00E948B2881EF91E00E94D92861E0A3
:1020C00080E00E948B288FE70E94AA2887EF91E08A
:1020D0000E94D92830919105323011F00C94051AE4
:1020E00030919005323011F40C9424200E949B28EA
:1020F000309191051CAE11E006E066E0262E312CF1
:10210000412C512C70C9159A60E080E00E948B2808
:102110008FE591E00E94D92861E080E00E948B2841
:1021200061E0C61611F40C94A51AC61608F433C65D
:1021300073E07C1520F080E791E00E94D92830916F
:102140009105323009F431C6333010F40C941B1A67
:10215000333011F40C94361A343009F06BC280918C
:102160000C0187FF02C00C9455242CA8211060C2DA
:1021700082E38093840575E0C72E01E02FC90FE04C
:102180002DC9341708F4A6C8809185058160809315
:102190008505A0C880911C0180FF01C181E080936A
:1021A000780846C96CA5862F90E08C30910508F020
:1021B000CFC8FC01EE58FF4F0C941C36809185056A
:1021C0008F7E809385059BE09CA7C2C880915F06A7
:1021D000EF2DF0E060911D010E94FC3590E001962A
:1021E00034E1389FB001399F700D1124E617F707CD
:1021F0000CF0AEC81CA6ACC880915F06EF2DF0E0D5
:1022000060911D010E94FC3590E0019634E1389FF9
:10221000B001399F700D1124E617F7070CF051CB70
:1022200097C88091850580618093850582E08CA7A1
:102230008FC880918505877F8093850571E07CA795
:1022400087C8809185058860809385058ECB8FB780
:10225000F8946091B0077091B10770939605609300
:1022600095058FBFD5C9D12C1CAAA1C80E943201E7
:10227000C3C830910C0137FD4BC93F71B501A401B2
:1022800004C0440F551F661F771F3A95D2F7842B61
:10229000952BA62BB72B3CC9ACA92796BFAD27978A
:1022A000AB13A6C92EA53FA548A959A92C966CAD7C
:1022B0007DAD8EAD9FAD2C97261737074807590780
:1022C00009F096C93091920591E080E028967FADA3
:1022D0002897731711F40C942A1CE92EF82E8BC939
:1022E00030910D0137FD14C9C8CF0E94B33020E1F1
:1022F0002216310408F45CC1F3E0CF2E6DC8809142
:1023000092058E7F80939205E090B207F12C0C9499
:102310008B093091170137FD0EC03F71B501A40143
:1023200004C0440F551F661F771F3A95D2F7842BC0
:10233000952BA62BB72B3091160137FD1FC93F7186
:10234000B501A40104C0440F551F661F771F3A95BD
:10235000D2F7842B952BA62BB72BA8953091B705D8
:10236000323009F011C93091120137FD13C935C05F
:102370003091990537FD0EC03F71B501A40104C02D
:10238000440F551F661F771F3A95D2F7842B952B64
:10239000A62BB72B3091150137FDF0C8D0CF109286
:1023A000780846C83091990537FDE8C8C8CF309104
:1023B000140137FD0EC03F71B501A40104C0440FE4
:1023C000551F661F771F3A95D2F7842B952BA62BA6
:1023D000B72B3091130137FDDDC83F71B501A40162
:1023E00004C0440F551F661F771F3A95D2F7842B00
:1023F000952BA62BB72BCEC83091120137FD0EC0FE
:102400003F71B501A40104C0440F551F661F771F1B
:102410003A95D2F7842B952BA62BB72B309111012F
:1024200037FDB8C8DACF7CA9772309F45ECF0E94C4
:10243000B33030E12316310410F00C94EC09F101B3
:10244000E258FF4F0C941C36ECA5EC3010F00C94C5
:10245000A80980918505886080938505632F70E0C9
:10246000E42FF0E080916F08863008F4D2C090E04D
:1024700005978E179F070CF4CF01681779070CF4A6
:10248000C4CA0C94A809809184058111B5C00E942A
:10249000B330F0E12F16310408F4BEC0C12C0C9407
:1024A000EC09DD2009F4BDC090911C0194FD67CAC0
:1024B000E82E6CCA0E949B28289885B1866085B951
:1024C00085B1806F85B90E94472D63B1667F8BA966
:1024D0000E941F0163B1667F0E941F0163B1667F86
:1024E0000E941F0163B1667F0E941F018BAB0E9497
:1024F00097028BA90E94EE0280919105809390052E
:102500000E942F310C945509309190053130D1F152
:102510000E949B2881E0800F109205011092040117
:1025200090919E0591FD03C08D3009F40CC490FF7D
:1025300066C29FEF980F933008F461C2853011F4A2
:102540000C941123863011F40C9419248A30A9F4C8
:102550000C94142401E0080F833010F40C94F2243E
:10256000053011F40C941123063011F40C94192445
:102570000A3011F40C941424802F8F3059F73091C5
:1025800091050FE0409104015091050180910601F1
:102590009091070110E04817590710F40C94F109C5
:1025A0000FE09FE0292E312C412C512C0C94F30983
:1025B000F101E257FF4F0C941C36159A60E080E061
:1025C0000E948B288FE591E00E94D92861E080E08D
:1025D0000E948B2883E0C82EAECD80918505877E32
:1025E00080938505341708F481C980916F083817E6
:1025F00008F067C90C94A8090E94B33050E1251671
:10260000310410F00C94EC09F101E256FF4F0C94E8
:102610001C3680E090E02DCFF101E255FF4F0C9485
:102620001C36E12CB3C9EE24E39481E00C94D30969
:1026300024E0C22E01E00C94EE09A8950E94A73375
:102640008FB7F89490910101909394058FBF0C94EB
:10265000370B159A60E080E00E948B28113011F44E
:102660000C94ED23123011F40C94C023133011F4A8
:102670000C94A62311E030919105323011F40C94A2
:102680004F2308F42CC7333011F40C9484233430D6
:1026900009F030C740910401509105018091060175
:1026A000909107014817590708F424C7EDADFEAD16
:1026B0008081882311F08150808389A1803310F4B8
:1026C00080E389A388A1803D10F480ED88A3109257
:1026D0000501109204010BE0FBE02F2E312C412C60
:1026E000512C0C94F309159A60E080E00E948B282D
:1026F000113011F40C94EA1F123011F40C94DC1F09
:10270000133011F40C94C61F143011F40C94B01F44
:1027100050E7E52E58E0F52E6BEB462E65E0562E81
:1027200011E060E087E00E948B28D7018C918F3FF9
:1027300011F40C943E1FF2019081981708F01EC707
:1027400083E00E94AA2861E085E00E948B28D201E4
:102750008C9190E00E94732930919105323011F4F0
:102760000C94611F333011F40C94431F313011F479
:102770000C94C5210DE08DE0282E312C412C512CDC
:102780000C94F309159A60E080E00E948B281130C8
:1027900011F40C949922123011F40C94802213300D
:1027A00011F40C946422143011F40C941922153095
:1027B00011F40C945821163011F40C94392108E0CE
:1027C00011E030919105323011F40C94C02008F4DE
:1027D0001FC6333011F40C944920343009F023C65D
:1027E00040910401509105018091060190910701EB
:1027F0004817590708F417C6083010F00C949920B0
:1028000081E090E001C0880F0A95EAF78095F30116
:102810009081892380830CE08CE0282E312C412C80
:10282000512C0C94F30980E00E948B2880E292E006
:102830000E94D9288CAD0E94DB2B60E085E00E94CD
:102840008B282CACE22C80918A0590918B05A0916D
:102850008C05B0918D0504C0B695A7959795879581
:102860002A94D2F780FD57C3809186059091870501
:10287000A0918805B09189050CAC04C0B695A795C8
:10288000979587950A94D2F780FF02C38EE192E074
:102890000E94D92830919105323009F402C33330B7
:1028A00008F48DC2333011F40C946921343009F0EE
:1028B00055C040910401509105018091060190910D
:1028C00007014817590708F449C08091860590917F
:1028D0008705A0918805B0918905AC01BD010E2C3A
:1028E00004C076956795579547950A94D2F740FDB1
:1028F00002C00C941623B501A40104C0440F551F57
:10290000661F771FEA94D2F71A012B0120943094A6
:102910004094509482219321A421B521809386056F
:1029200090938705A0938805B093890580918A05C7
:1029300090918B05A0918C05B0918D05482B592B5A
:102940006A2B7B2B40938A0550938B0560938C05F3
:1029500070938D05109205011092040106E056E077
:10296000252E312C412C512C0C94F309159A60E042
:1029700080E00E948B2888EB92E00E94D92880E3B7
:10298000810F0E94AA2861E080E00E948B28812F9D
:1029900090E09C012C59374F7901D9018C9190E03E
:1029A0000E945E2A30919105323011F40C94701D12
:1029B00008F4ABC5333011F40C94FF233430B9F470
:1029C0004091040150910501809106019091070109
:1029D0004817590760F0F7018081823010F40C9499
:1029E000991D81508083109205011092040108E026
:1029F000A8E02A2E312C412C512C0C94F309309153
:102A00009105082FBFCD8FB7F894109298051092BA
:102A100097058FBF5091920528965FAF28978091B8
:102A20009C05898380919D058A838FE08B8383E554
:102A30008E8380919A0590919B059F8388878091D2
:102A4000920580FF6DC481E0898781E0D81649F046
:102A500092E0D91609F46AC42496AFAD2497A13048
:102A600039F4898580688987B1E02496BFAF2497BF
:102A7000F9A9FA8728A92B873FA53C874EA54D8742
:102A8000809192058E870E9449318F874B81BE01CC
:102A90006F5F7F4F8FE798E00E945C352EA53FA5C2
:102AA00048A959A92C962CAF3DAF4EAF5FAF2C97DC
:102AB0002296DFAE22973CA927963FAF27970C942A
:102AC0002B0B0E948B2887EB91E00E94D92861E0B4
:102AD00080E00E948B28033009F4DFC487EC91E08A
:102AE0000E94D9288EE70E94AA28309191053130A2
:102AF00009F4CCC4343011F00C94F30930919005F2
:102B0000343011F40C94F3090E949B2860E080E0BB
:102B10000E948B28033011F40C94482487ED91E037
:102B20000E94D9286AAD8FE10E947A060E9495031F
:102B300061E080E00E948B2818E081E090E00E9434
:102B4000302C8EE20E94AA281150B9F783E090E061
:102B50000E94302C0E949B28309191050FE022C9E1
:102B6000159A60E080E00E948B28113009F44BC672
:102B7000123009F432C6133009F4FAC5143009F4DE
:102B8000F0C5153009F4B1C508E011E030919105A8
:102B9000323009F47CC508F488C4333009F456C5D2
:102BA000343009F01FC54091040150910501809116
:102BB0000601909107014817590708F413C508301A
:102BC00008F0F6C481E090E001C0880F0A95EAF7AA
:102BD0008095ADA9BEA99C9189238C9309E069E0F9
:102BE000262E312C412C512C0C94F309159A60E0BF
:102BF00080E00E948B2881E591E00E94D92861E065
:102C000080E00E948B2887E591E00E94D9288EE71A
:102C10000E94AA2830919105332309F45FC0313016
:102C200009F061C00E949B28309191050FEF239617
:102C30001FAE2397B7C8159A60E080E00E948B28EA
:102C40000E94FA31F82E8B8F0E94FD31E82E8A8F78
:102C50000E940032582E898F113009F431C712308A
:102C600009F410C7133009F4FDC6143009F496C6F0
:102C7000153011F40C94762608E011E0309191059E
:102C8000323009F4BDC6333008F43AC3333009F4A6
:102C9000E4C53430C9F4409104015091050180919C
:102CA0000601909107014817590770F0083008F0A5
:102CB00070C781E090E001C0880F0A95EAF780951F
:102CC000F3019081892380830AE00C94EE09FC01D2
:102CD000E254FF4F60E080E00C941C368091900538
:102CE000843009F42AC700E0212C312C21010C94F6
:102CF000F3094091040150910501809106019091E2
:102D000007014817590710F40C940B0EEAA5FBA510
:102D1000808187FF02C00C940225982F9F719C31FF
:102D200010F00C94F6248F5FAAA5BBA58C930C948D
:102D3000070E09E037C887E491E00E94D928159A68
:102D400046C90AE02FC8309170083F3F11F40C9437
:102D5000772430916F083F3F11F40C947724309121
:102D600076083F3F11F40C9477243091B2073F3F2F
:102D700011F40C94772482E0800FD9CB159A60E08F
:102D800080E00E948B288FE591E00E94D92861E0C5
:102D900080E00E948B2887E691E00E94D928C12C10
:102DA00030919105323009F0CFC90FE064E0362E42
:102DB000C3100C94EE0953E0C52E0C94EE0931308B
:102DC00009F0CCCD30919005313009F4C7CD9CADE0
:102DD0009F5F9CAF9D3108F01CAE109205011092D0
:102DE00004010E949B283091910506E046E0242EC4
:102DF000312C412C512C0C94F30931110C942C25BD
:102E000080910B0186FD03C02DA52E7F2DA78091FB
:102E10000A0186FDAAC64DA54D7F4DA700E0212CD5
:102E2000312C210141704FAB5DA5527058AF10E0BD
:102E30000C94F30980E20E94AA2830919105323067
:102E400009F002C980919005823069F081E02396F3
:102E50002FAC2397211080E023968FAF23971092F9
:102E600005011092040140910401509105018091E7
:102E70000601909107014817590708F06BC600E05A
:102E8000212C312C210110E00C94F30983E0CAC8F5
:102E90008FEF91E00E94D92830919105323009F0EE
:102EA000FECC30919005323009F458CD40918A051E
:102EB00050918B0560918C0570918D0580916D0806
:102EC00090916E0848960E949436409186055091E4
:102ED0008705609188057091890580916D089091B2
:102EE0006E084C960E9494360E9495030E949B287F
:102EF00060E081E00E948B288AEE91E00E94D92850
:102F000087E090E00E94302C0E949B283091910530
:102F100006E00C94D20E89E292E00E94D928BACC45
:102F20000DE00C94D20E313011F00C940B0E309158
:102F30009005313011F40C940B0E80918E058F5F4B
:102F400080938E05833110F010928E05109205014A
:102F5000109204010E949B283091910507E087E0C0
:102F6000282E312C412C512C0C94F30930919005D2
:102F7000323011F40C940B0E80916D0890916E0814
:102F80006091190102960E94863680916D08909199
:102F90006E086091180103960E94863680916D0834
:102FA00090916E086091170108960E948636809174
:102FB0006D0890916E086091160109960E94863600
:102FC00080916D0890916E08609199050A960E9413
:102FD000863680916D0890916E08609115010B9670
:102FE0000E94863680916D0890916E086091140160
:102FF0000C960E94863680916D0890916E086091C3
:1030000013010D960E94863680916D0890916E088E
:10301000609112010E960E94863680916D08909103
:103020006E08609111010F960E94863680916D089E
:1030300090916E086091100104960E9486368091EE
:103040006D0890916E0860910F0143960E9486363C
:1030500080916D0890916E0860910E0105960E9416
:10306000863680916D0890916E0860910D010696EC
:103070000E94863680916D0890916E0860910C01D7
:1030800007960E94863680916D0890916E08609137
:103090000B0140960E94863680916D0890916E08D3
:1030A00060910A0141960E94863680916D08909148
:1030B0006E086091090142960E94863680916D08E3
:1030C00090916E086091080144960E9486360E9495
:1030D00095030E949B2860E081E00E948B288AEE85
:1030E00091E00E94D92887E090E00E94302C0E9455
:1030F0009B283091910507E00C94D20E313011F0ED
:103100000C947A0E80919005813011F40C947A0E13
:10311000EBADEF5FEBAFE43010F40C947A0E1BAE26
:1031200005E0E5E02E2E312C412C512C0C94F309B6
:1031300030919005323011F40C947A0E8D898A30DA
:1031400010F40C9489268E896F895AE0659FB0012E
:10315000112494E6899F600D711D1124888D680FDC
:10316000711D706880916D0890916E080E949C3668
:103170000E9495030E949B2860E081E00E948B28BA
:103180008AEE91E00E94D92887E090E00E94302CDE
:103190000E949B283091910505E00C94D20E60E0CE
:1031A00085E00E948B288EED91E00E94D92861E095
:1031B00080E00E948B288FE70E94AA2882EE91E08F
:1031C0000E94D92830919105323009F06BC13091BD
:1031D0009005323009F431C240919A0550919B0517
:1031E00057FD57C39A0136952795369527953695FD
:1031F0002795A5ECB0E20E942536FC01F295E295F8
:10320000EF70EF27FF70EF279F01ADECBCEC0E9441
:1032100025369695879596958795969587959C01E1
:10322000220F331F880F991F880F991F880F991F2E
:10323000820F931FE81BF90BED8B9A0136952795AA
:1032400036952795ABE7B4E10E942536FC01F6954B
:10325000E7959F01ADECBCEC0E94253696958795CD
:1032600096958795969587959C01220F331F880F19
:10327000991F880F991F880F991F820F931FE81BB2
:10328000F90BEE8B9A010E942536FC01F695E79525
:10329000F695E795F695E7959F010E942536969558
:1032A000879596958795969587959C01220F331F54
:1032B000880F991F880F991F880F991F820F931FDE
:1032C0002F01481A590A4F8ACF01880F991FEE0F14
:1032D000FF1FEE0FFF1FEE0FFF1F8E0F9F1F481BDC
:1032E000590B488F0E949B28309191051BAE11E02D
:1032F00005E0B5E02B2E312C412C512C0C94F30918
:10330000313009F0E1CC30919005313009F4DCCC5A
:103310001F5F0E949B28309191050AE00C94EE09F2
:103320006CA961110C94452319868FCBE2E0249699
:10333000EFAF24979DCB40910401509105018091FE
:103340000601909107014817590710F40C947A0E62
:103350003BAC31100C94FE228D898A3010F40C9411
:10336000D0221D8A0C94760E60E082E00E948B28A9
:1033700083E092E00E94D92861E080E00E948B28DF
:103380008FE70E94AA2887EF91E00E94D928309108
:103390009105323009F000C130919005323009F4C6
:1033A000FEC010928E050E949B283091910511E07D
:1033B00007E027E0222E312C412C512C0C94F309EC
:1033C00080E691E00E94D9280E943E2F309191051D
:1033D000333011F00C94C90F30919005333011F453
:1033E0000C94D00F0E945B2F3091910502E00C9459
:1033F000EE0980E991E00E94D9280C94B10F08E011
:103400000C94D20E0CE00C94D20E06E00C94D20E6A
:10341000313049F430919005313029F01F5F0E941E
:103420009B28309191050CE07CE0272E312C412C1B
:10343000512C0C94F309313009F0FCC801E064E030
:10344000362EC3100C94EE09B6CC0E94442C0C947A
:10345000A00B30919005343011F40C94D00F0E94E1
:10346000672F3091910502E00C94EE0980910C01D8
:1034700087FF02C00C944324C110DCC882E3809310
:103480008405CC24C39401E00C94EE0901500E9401
:103490009B28309191050C94D20E8FEB91E00E9405
:1034A000D92820CB05E00C94D20E313009F09AC017
:1034B00030919005313009F495C001E0010F9FEF84
:1034C000910F923008F4A4C00E949B28309191057E
:1034D000102F09E00C94EE0983E00C9400103130B9
:1034E00049F430919005313029F01F5F0E949B28EC
:1034F000309191050BE0EBE02E2E312C412C512C1C
:103500000C94F3090BE00C94D20E313009F06FCA21
:1035100030919005313009F46ACA1F5F193008F004
:1035200011E00E949B283091910508E00C94EE096F
:10353000159A60E080E00E948B288FE591E00E9460
:10354000D92861E080E00E948B2889E791E00E9401
:10355000D928CC24C3940C949F10AC015F774038D9
:10356000510510F40C94BE0E8FE790E80C94BE0E3B
:1035700085EA91E00E94D9280C94920E84E0E1C87B
:1035800082E891E00E94D9280C94B10F89E891E07B
:103590000E94D9280C94B10F07E00C94D20E07E0DA
:1035A000F7E02F2E312C412C512C10E00C94F30914
:1035B000EDA9FEA98081823010F081508083809136
:1035C0001D01823018F482E080931D0110920501E4
:1035D0001092040109E059E0252E312C412C512C88
:1035E0000C94F30909E049E0242E312C412C512C94
:1035F0000C94F30980919A0590919B050E94C12C2F
:1036000023962FAC23972220A9F0159A0C94E70F4C
:1036100090911B0192FD07C002E0010F113009F0EB
:1036200053CF04E051CF033009F04ECF93FF4CCF7E
:1036300004E04ACF15980C94E70F05E0B5E02B2E77
:10364000312C412C512C10E00C94F30940910401D1
:103650005091050180910601909107014817590783
:1036600008F2083008F064C081E090E001C0880FE3
:103670000A95EAF7ADA9BEA99C91892B8C9309E024
:1036800079E0272E312C412C512C0C94F3093091E8
:103690009005323009F4A6CF80916D0890916E08A4
:1036A00060911D0146960E94863680916D0890912A
:1036B0006E0860911B0147960E9486360E94950312
:1036C0000E949B2860E081E00E948B288AEE91E0B6
:1036D0000E94D92887E090E00E94302C0E949B280D
:1036E0003091910509E00C94D20E8FE392E00E9494
:1036F000D92831E001E061E085E02D963FAF2D97BC
:103700000E948B2880911B0190E02D963FAD2D9754
:1037100002C0959587953A95E2F780FF19C08EE72C
:1037200093E00E94D9286BE171E07EAB6DAB2ECAAD
:10373000EDA9FEA980818F3F11F08F5F808380917A
:103740001D018B3008F442CF8AE080931D013ECFEB
:103750008EE192E00E94D9288BE191E09EAB8DAB87
:1037600015CA83EE92E00E94D92830E000E0C3CF72
:1037700088ED92E00E94D92861E087E00E948B28C2
:1037800081EE92E00E94D92861E084E00E948B28BB
:1037900080911D010DEC809F812D112486958695C9
:1037A0008695805D0E94AA288EE20E94AA289091A8
:1037B0001D01909F812D1124869586958695BAE0EE
:1037C0008B9F90191124892F805D0E94AA280FEFEA
:1037D000EDE1F1E0FEABEDABD9C98FEC92E00E94D8
:1037E000D92861E083E00E948B2880911B0183FF30
:1037F00011C08CEE92E00E94D92803E02BE131E069
:103800003EAB2DABC3C987EC92E00E94D92832E0D1
:1038100002E071CF82EF92E00E94D92803E04BE1F1
:1038200051E05EAB4DABB2C980919005833011F48D
:103830000C94D70E4AAD443110F00C94D70E4F5F64
:103840004AAF642F70E026967FAF6EAF269710E0E8
:103850000C94F30990E00C946D1140910401509187
:10386000050180910601909107014817590708F456
:103870002BCA083008F068C081E090E001C0880FD2
:103880000A95EAF7D3019C91892B8C930AE00C945A
:10389000EE0983E48D8BFA01FF779F01369527951A
:1038A00036952795ABE7B4E10E942536AC015695D5
:1038B00047959A01ADECBCEC0E942536969587950C
:1038C00096958795969587959C01220F331F880FB3
:1038D000991F880F991F880F991F820F931F481BEC
:1038E000590B4E8B9F010E942536AC01569547958A
:1038F00056954795569547959A010E942536969577
:10390000879596958795969587959C01220F331FED
:10391000880F991F880F991F880F991F820F931F77
:103920001A01281A390A2F8ACA01880F991F440FD1
:10393000551F440F551F440F551F840F951FAF018E
:10394000481B590B488FCECC2EA03FA062147304A5
:10395000F1F04CA05DA064147504C9F02AA03BA04E
:1039600062147304A1F0D3018C918F3F11F08F5F2B
:103970008C93498D6A8D8B8D0E94033210920501C4
:1039800010920401309191050AE00C94EE098091A7
:103990009E0581FDE8CF0AE00C94EE0984EA93E0ED
:1039A0000E94D92861E087E00E948B288DE294E094
:1039B0000E94D928FE2C9E01265E3F4F390161E00E
:1039C00084E00E948B288DECF89EE12C11240E2DB2
:1039D00006950695069580E3800F0E94AA288EE240
:1039E0000E94AA288F2DBAE00B9F80191124805DB8
:1039F0000E94AA280FEF30919105323009F043C997
:103A000030919005323009F45FC90E94FA31682F75
:103A100084E190E00E9486360E94FD31682F85E1A6
:103A200090E00E9486360E940032682F86E190E086
:103A30000E9486360E9495030E949B2860E081E0E8
:103A40000E948B288AEE91E00E94D92887E090E0BE
:103A50000E94302C0E949B283091910510E00AE0D2
:103A60000C94EE098BE993E00E94D92861E087E08D
:103A70000E948B288DE294E00E94D928FE017B965B
:103A80003F019DCF82E993E00E94D928EE24E39480
:103A900001E061E084E00E948B2880919E0590E027
:103AA00002C095958795EA94E2F780FF10C08DE7F4
:103AB00093E00E94D9284EE9642E45E0742EDEC8BA
:103AC00089E893E00E94D928E12C00E0E2CF8DE163
:103AD00092E00E94D9283EE9632E35E0732ECEC8CD
:103AE00030919005323011F40C94F71460916D0808
:103AF00070916E08605E7F4F48E050E085E698E088
:103B00000E947C360E9495030E949B2860E081E021
:103B10000E948B288AEE91E00E94D92887E090E0ED
:103B20000E94302C0E949B283091910508E00C9453
:103B3000D20E81E080830C94F3149FB7F8948091A7
:103B400092058068809392059FBF309191050FE0A8
:103B50000C94D20E0E949B283091910511E000E058
:103B6000212C312C21010C94F30900E0212C312C63
:103B70002101BDA5B170BFABEDA5E270E8AF10E0CB
:103B80000C94F30900E08AE992E00E94D9280C9491
:103B9000E30D2EA03FA06214730411F40C94A1262F
:103BA0004CA05DA06414750411F40C94A1262AA005
:103BB0003BA06214730411F40C94A126D3018C91E0
:103BC000882309F4D6CE81508C93D3CE8EE50E9403
:103BD000AA280C94370E159A60E080E00E948B288A
:103BE0008DE194E00E94D92861E080E00E948B285A
:103BF00083EB97E00E94D92830919105323009F487
:103C000045C0C8F0333071F1343069F480919005CB
:103C1000843049F08091640881508093640829AC15
:103C200021100C94FC270EE06EE0262E312C412C46
:103C3000512C0C94F3093130B1F7309190053130AB
:103C400091F31F5F0E949B2885E080936408309168
:103C5000910519AE0EE0EEE02E2E312C412C512CA8
:103C60000C94F309809190058330E9F28091640807
:103C700081508093640849AD4330A8F659AD5F5F29
:103C800059AF0E949B2830919105CDCF309190057E
:103C9000323049F20E94722F0E949B283091910588
:103CA00019AE0EE00C94D20E11E0A6CF159A60E08A
:103CB00080E00E948B2886E294E00E94D92861E08F
:103CC00081E00E948B28809174080E943F29809196
:103CD00073080E943F29809172080E943F298CCF6F
:103CE00029AC159A60E02110B7C785E00E948B28A7
:103CF0003CA83110ACC789E40E94AA2860E080E0AB
:103D00000E948B288091920580FD98C780911B01AD
:103D10008C708C3009F075C74CA4842D90E08C30E9
:103D20009105B0F5FC01EF52FF4F0C941C3660E09A
:103D300083E00E948B2886EB93E00E94D92861E003
:103D400080E00E948B288FE70E94AA288DE20E94C3
:103D5000AA2830919105323011F00C94142830913A
:103D60009005323011F40C940B280E94442C0E94D0
:103D70009B283091910511E00EE09EE0292E312C18
:103D8000412C512C0C94F30980ED93E00E94D9282A
:103D900060E087E00E948B2855245394D51411F4D9
:103DA0000C944028D51410F40C943B2822E0D21235
:103DB00003C082E50E94AA2861E082E00E948B286D
:103DC0008091850582FF02C00C94382883E00E9410
:103DD000AA2861E084E00E948B288091850581FFFC
:103DE00002C00C94352880E20E94AA2861E085E098
:103DF0000E948B288091850580FD35C080E20E945D
:103E0000AA2861E087E00E948B288091B905813063
:103E100031F110F40C9445288230E9F0833019F424
:103E20008AE20E94AA2861E080E00E948B288091AB
:103E3000B705813011F40C94542810F40C944F28D9
:103E4000823011F40C944A28833009F0D5CE8AE2EE
:103E50000E94AA28D1CE82E40E94AA28E4CF84E45A
:103E60000E94AA28E0CF82E0CACF0CE04CE0242ECA
:103E7000312C412C512C10E00C94F3098DE20E945E
:103E8000AA280C94A31380919005833011F40C940C
:103E9000BA13B6E7EB16B8E0FB0609F454C0F2EB30
:103EA000EF16F7E0FF0609F441C0F2018081D70167
:103EB0008C930DE09DE0292E312C412C512C0C943B
:103EC000F30930919005323011F40C94BA136091DB
:103ED000700880E290E00E94863660916F0881E26F
:103EE00090E00E9486366091760882E290E00E941F
:103EF00086366091B20783E290E00E9486360E9487
:103F000095030E949B2860E081E00E948B288AEE46
:103F100091E00E94D92887E090E00E94302C0E9416
:103F20009B28309191050DE00C94D20ED2018C911A
:103F300085508093B2070DE02DE0222E312C412CCC
:103F4000512C0C94F309F20180818B5F80937608E9
:103F50000DE04DE0242E312C412C512C0C94F30912
:103F600084E192E00E94D92861E080E00E948B28E1
:103F700089E093E00E94D92872EBE72E77E0F72ED4
:103F8000ECEB4E2EE5E05E2E0C94911384E192E072
:103F90000E94D92861E080E00E948B288BE391E0A9
:103FA0000E94D928F6E7EF2EF8E0FF2EACEB4A2E60
:103FB000A5E05A2E0C94911384E192E00E94D92836
:103FC000BFE6EB2EB8E0FB2E0CEB402E05E0502EAA
:103FD0000C9491138AE092E00E94D92880E7E82EA1
:103FE00088E0F82E9BEB492E95E0592E0C94911306
:103FF000159A60E080E00E948B288FE294E00E9496
:10400000D92861E080E00E948B2887E394E00E9439
:10401000D92880916408805D0E94AA288EE70E94BA
:10402000AA28EACD0DE06DE0262E312C412C512C32
:1040300010E00C94F30908E0E8E02E2E312C412C1E
:10404000512C10E00C94F30906E0A6E02A2E312C46
:10405000412C512C10E00C94F309159A60E080E09B
:104060000E948B288FE591E00E94D92861E080E0D2
:104070000E948B2887E494E00E94D9280C949F101A
:104080000BE05BE0252E312C412C512C10E00C94E0
:10409000F30940910401509105018091060190912E
:1040A00007014817590708F4BEC9083090F481E0A9
:1040B00090E001C0880F0A95EAF7F3019081892BFF
:1040C00080830CE09CE0292E312C412C512C0C9447
:1040D000F30928A439A46214730431F121E06216B3
:1040E00021E0720609F1D3018C918F3F11F08F5FAF
:1040F0008C938C8D8B3010F08AE08C8F8E8D843673
:1041000010F083E68E8F8D8D8A3110F089E18D8FCE
:1041100010920501109204010CE0BCE02B2E312C12
:10412000412C512C0C94F30980919E0581FF7BC991
:10413000DACF28A439A462147304E9F021E06216EE
:1041400021E07206C1F0D3018C91823010F08150D1
:104150008C93809101018A3018F48AE080930101E8
:104160008E8D811102C081E08E8F8D8D8111D0CF17
:1041700081E08D8FCDCF80919E0581FF54C9E3CF23
:1041800030919005323009F44EC96E8D81E190E096
:104190000E9486368D8D880F682F660F660F680F18
:1041A00082E190E00E94863660911C0183E190E0FC
:1041B0000E948636609101018DE190E00E94863672
:1041C0008C8DBAE08B9FC0011124909303018093E2
:1041D0000201692F82E090E00E9486366091020120
:1041E00083E090E00E9486360E9495032091B007FC
:1041F0003091B107369527953695279536952795B1
:10420000AFE4BBE10E9425369695879596958795F4
:10421000969587958E8F0E9427319DEC899F812DE1
:1042200011248695869586958D8F20910201309177
:104230000301ADECBCEC0E942536969587959695CA
:104240008795969587958C8F0E949B2860E081E0EA
:104250000E948B288AEE91E00E94D92887E090E0A6
:104260000E94302C0E949B28309191050CE00C9408
:10427000D20E84E793E00E94D92844E0F42E04E0B3
:1042800061E084E00E948B2880911C0190E002C0D4
:1042900095958795FA94E2F780FF11C08DE793E03A
:1042A0000E94D9283CE1632E31E0732E0C94E11377
:1042B0008BE693E00E94D928F12C00E0E1CF8DE15C
:1042C00092E00E94D9282CE1622E21E0722E0C94FB
:1042D000E1134091040150910501809106019091F4
:1042E00007014817590710F40C94AE1440918A0541
:1042F00050918B0560918C0570918D05DB01CA0191
:104300000E2C04C0B695A795979587950A94D2F779
:1043100080FF48C08091860590918705A09188050F
:10432000B09189051401250104C0220C331C441CE2
:10433000551CEA94D2F761962CAE3DAE4EAE5FAE00
:1043400061972094309440945094422153216421E9
:10435000752140938A0550938B0560938C0570936B
:104360008D0561964CAD5DAD6EAD7FAD6197842BD3
:10437000952BA62BB72B8093860590938705A0934A
:104380008805B09389050C94AA14309190053130BA
:1043900011F40C94BA131F5F0E949B283091910571
:1043A0000C94BA138091860590918705A091880599
:1043B000B09189051C012D010E2C04C05694479420
:1043C000379427940A94D2F720FCACCF140125012E
:1043D00004C0220C331C441C551CEA94D2F761968D
:1043E0002CAE3DAE4EAE5FAE6197209430944094BB
:1043F000509482219321A421B52180938605909326
:104400008705A0938805B093890561968CAD9DAD15
:10441000AEADBFAD6197482B592B6A2B7B2B4093D8
:104420008A0550938B0560938C0570938D050C94D1
:10443000AA1482E693E00E94D92861E087E00E94F6
:104440008B2881EE92E00E94D92861E083E00E94EF
:104450008B288091010199E2899F812D11248295F9
:104460008F70805D0E94AA288EE20E94AA28809107
:1044700001010DEC809F812D1124869586958695EE
:10448000809F912D11249695969596957AE0979F09
:1044900080191124805D0E94AA2890910101909FAB
:1044A000812D1124869586958695AAE08A9F90197C
:1044B0001124892F805D0E94AA280FEF51E0652EFC
:1044C00051E0752E0C94E11389E593E00E94D92800
:1044D00061E087E00E948B2881EE92E00E94D9285B
:1044E000BE01645E7F4F3B0161E084E00E948B2847
:1044F000D3018C9190E00E94DD290FEF0C94E11321
:104500008CE493E00E94D92861E080E00E948B282F
:1045100084E593E00E94D92861E087E00E948B281F
:1045200081EE92E00E94D928AE01435E5F4F3A01CE
:10453000DBCF81E493E00E94D92861E080E00E9413
:104540008B2887E493E00E94D92861E087E00E94ED
:104550008B2887E893E00E94D9289E01225E3F4F76
:104560003901C2CFE5E1F0E0EC0FFD1F3BACE30DFC
:10457000F11D80818150893008F480838D898A30D3
:1045800010F40C94760E0C945E0E002309F443C0D4
:1045900086FF41C08CE1AAA5BBA58C930C94070EA5
:1045A000893011F40C94760E40E050E0E5E1F0E043
:1045B000EC0FFD1FE40FF51F8F5F80838D898A301C
:1045C00010F40C94760E2E898F894AE0849FC001E6
:1045D000112454E6259F800D911D1124288D820FF2
:1045E000911D8038910514F40C94760E81E08E8B29
:1045F00082E08F8B87E0888F0C94760E4BAC442D35
:1046000050E0E5E1F0E0EC0FFD1FE40FF51F8081C5
:104610008930A0F6CBCF80E8EAA5FBA580830C9477
:10462000070E3091910505E00C94C212B501A4016A
:1046300004C0440F551F661F771FEA94D2F74095B8
:1046400050956095709584239523A623B723809376
:10465000860590938705A0938805B093890580917E
:104660008A0590918B05A0918C05B0918D0548230A
:1046700059236A237B2340938A0550938B056093CB
:104680008C0570938D050C94AA147CA9E72FF0E09B
:10469000EC59F74F80818F5F89870C9425153091F5
:1046A0009005323011F40C947A1A69A180E090E000
:1046B0000E94863668A18FE190E00E9486366F8D59
:1046C0008EE190E00E9486360E94950380919D05C0
:1046D00089A380919C0588A3809100018F8F0E94FF
:1046E0009B2860E081E00E948B288AEE91E00E9486
:1046F000D92887E090E00E94302C0E949B283091BE
:1047000091050BE00C94D20E4091040150910501EB
:1047100080910601909107014817590710F40C94F5
:104720007A1AADADBEAD8C918F3F11F08F5F8C9337
:1047300089A18A3410F089E489A388A1803F10F40C
:104740000C9467138FEE88A30C94671385E293E0B3
:104750000E94D9280F8D61E082E0002389F10F3F8C
:1047600011F10E948B2888E393E00E94D928802FC2
:104770000E943F29CE014F969EAF8DAF0C943B1304
:104780008CE193E00E94D92861E083E00E948B28AD
:1047900088A1805D0E94DB2B9E01205E3F4F3EAFD3
:1047A0002DAF0C943B130E948B2883E393E00E946F
:1047B000D928BE01615E7F4F7EAF6DAF0C943B1375
:1047C0000E948B288EE293E00E94D928AE01415EC0
:1047D0005F4F5EAF4DAF0C943B1383E193E00E94BB
:1047E000D92861E084E00E948B2889A18F5E0E9415
:1047F000AA28FE01B196FEAFEDAF0C943B13409199
:10480000040150910501809106019091070148171C
:10481000590710F40C94F714F70180818E3770F467
:104820008F5F80830C94F314309191050AE00C940F
:10483000C2123091910506E00C94C2128EE780837B
:104840000C94F314C12C0C94990FC12C0C94D40F1C
:10485000C12C0E949B283091910500E00C94EE0938
:10486000159A60E080E00E948B288FE591E00E941D
:10487000D92861E080E00E948B2880E594E00E94C6
:10488000D9280C949F1042E0C42E01E00C94EE094C
:104890008FEC91E00E94D9286FE18AAD0E947A06E0
:1048A0000C949615C12C0C941A0DC12C01E00C949B
:1048B000EE09C12C0C945F0DC12C0C948F0DC12CF2
:1048C0000C94DB0EC12C0C940B0FC12C0C943A0FE2
:1048D000C12C0C94690FC12C0C94BF0DC12C0C94ED
:1048E0005410C12C0C94140EC12C0C94830E90FF08
:1048F00002C00C94AA12309191050DE00C94C212E2
:104900000E948B288AE892E00E94D9288BE091E0EF
:104910009BA78AA761E080E00E948B2880E292E05A
:104920000E94D92861E081E00E948B28EAA5FBA5BE
:10493000808187FD32C08F710E94DB2B61E085E0B2
:104940000E948B28AAA5BBA58C9186FF1FC082EA76
:1049500092E00E94D92801E00C94E30D0E948B287C
:1049600082E792E00E94D92823E131E03BA72AA701
:104970000C94CC0D0E948B2889E692E00E94D928E5
:10498000E4E1F1E0FBA7EAA70C94CC0D86EA92E003
:104990000E94D92801E00C94E30D01E0F4C83091A5
:1049A0009005323011F40C94D70E0E949B28309160
:1049B000910511E00C94F30980919005843011F475
:1049C0000C94D70E8AAD813011F40C94D70E81501F
:1049D0008AAFA82FB0E02696BFAFAEAF269710E003
:1049E0000C94F309309191050C94C212982F907495
:1049F000002359F086FD09C080E4EAA5FBA5808369
:104A00000C94070E10820C94070E945EAAA5BBA509
:104A10009C930C94070E5DA552605DA700E0212CCD
:104A2000312C210151705FAB6DA5627068AF10E051
:104A30000C94F3090AE02AE0222E312C412C512C4F
:104A400010E00C94F30909E079E0272E312C412C79
:104A5000512C10E00C94F30900E00C94D20E8091DC
:104A60009005833011F40C943F1780910B0186FF61
:104A7000C5C081E05DA458265DA60C943E100E943E
:104A80008B2882E892E00E94D92861E171E07BA73F
:104A90006AA70C94CC0D0E948B288DE292E00E94B4
:104AA000D928ACE0B1E0BBA7AAA70C94CC0D0E941A
:104AB0008B2886E292E00E94D9288DE091E09BA7A6
:104AC0008AA70C94CC0D0E948B2882E292E00E946F
:104AD000D9286EE071E07BA76AA70C94CC0D0E94E8
:104AE0008B288AE192E00E94D9284FE051E05BA731
:104AF0004AA70C94CC0D0E948B2884E192E00E947E
:104B0000D92820E131E03BA72AA70C94CC0D0E94C4
:104B10008B288FE092E00E94D928E8E1F1E0FBA722
:104B2000EAA70C94CC0D0E948B288AE092E00E94A8
:104B3000D928A9E1B1E0BBA7AAA70C94CC0D0E948B
:104B40008B2881E992E00E94D928AAE0B1E0BBA7B6
:104B5000AAA7E0CE0E948B2881E692E00E94D92885
:104B6000A5E1B1E0BBA7AAA70C94CC0D0E948B28AD
:104B70008AE592E00E94D92889E995E09BA78AA757
:104B80000C94CC0D0E948B288FE392E00E94D928D0
:104B900028E031E03BA72AA70C94CC0D0E948B287B
:104BA00086E392E00E94D928E9E0F1E0FBA7EAA7BA
:104BB0000C94CC0D0E948B2881E592E00E94D928AC
:104BC00066E171E07BA76AA70C94CC0D0E948B284C
:104BD00088E492E00E94D92847E151E05BA74AA708
:104BE0000C94CC0D0E948B288BE792E00E94D92870
:104BF00042E151E05BA74AA70C94CC0D5DA5516042
:104C00000CCF8091850583FD13C084FF0DC08AE21F
:104C10000E94AA288F2D843608F083E60E94AF2BCD
:104C200085E20E94AA28B4C883E00E94AA28F2CF95
:104C300084FF09C081E20E94AA28ECCF87E491E0BA
:104C40000E94D928A5C884E00E94AA28E3CF8CA995
:104C5000805D0E94AA2852C880E00E948B288AEDBD
:104C600093E00E94D92861E080E00E948B2889AD02
:104C7000815D0E94AA288EED93E00E94D92889AD1B
:104C8000880F8250182F110F110F180FE12C0DEC07
:104C90000BC080E38E0D0E94AA28E3948AE0382E90
:104CA000E31411F40C94541EE09E612D11246695BA
:104CB0006695862F880F880F860F3E2D381B832F11
:104CC0008D5F0E948B288E2D810F2EA43FA448A8B3
:104CD00059A804C056944794379427948A95D2F7DC
:104CE00020FCD7CF80E20E94AA28D7CF8DEA93E09C
:104CF0000E94D92861E087E00E948B288DE294E031
:104D00000E94D928F52CAE01475E5F4F3A010C9402
:104D1000DF1C4E899F8928EE33E0829FB001839F7C
:104D2000700D1124A4E64A9F600D711D1124BAE094
:104D30009B9F600D711D1124888D680F711D0C944F
:104D4000B21880919E0581FF02C00C94DE1D0AE01E
:104D50000C94EE09159A60E080E00E948B2881E0B7
:104D600094E00E94D92861E081E00E948B280E9493
:104D70002A31F82E89E2F89E812D112482958F70B8
:104D800009F451C0805D0E94AA288DECF89EE12CA8
:104D90001124E694E694E694E89E812D11248695EC
:104DA000869586953E2D2AE0829F30191124832F07
:104DB000805D0E94AA288EE20E94AA288F2D4AE0D8
:104DC000E49E80191124805D0E94AA288AE094E064
:104DD0000E94D9280C94FC1D159A60E080E00E9486
:104DE0008B288EEE93E00E94D92861E080E00E943B
:104DF0008B2880911A018F3F69F18A3008F184363F
:104E0000B0F48CE591E00E94D92880911A010E94AB
:104E1000AF2B61E084E00E948B2883EF93E00E9437
:104E2000D9280C94FC1D80E20E94AA28AECF8DE206
:104E30000E94AA2880911A0190E00E94DD29E9CF02
:104E40008BE591E00E94D92880911A01805D0E9433
:104E5000AA28DFCF61E080E00E948B2888EF93E0F2
:104E60000E94D9280C94FC1D159A60E080E00E94F5
:104E70008B2885EE93E00E94D92861E080E00E94B3
:104E80008B288BE50E94AA2861E087E00E948B288E
:104E90008DE50E94AA2861E081E00E948B28809124
:104EA0009F0590E0069667E070E00E940836F62EB7
:104EB00006E008C0FA948FEF0E94AA28015011F46E
:104EC0000C94FC1DF110F6CF80E20E94AA28F6CFC8
:104ED000159A60E080E00E948B2881E493E00E94B4
:104EE000D92861E080E00E948B288FB7F894209148
:104EF0009505309196058FBFADECBCEC0E94253630
:104F00009695879596958795969587950E945E2AA2
:104F100061E085E00E948B2881EE93E00E94D92811
:104F20000C94FC1D159A60E080E00E948B288DE0B7
:104F300094E00E94D92861E080E00E948B2885E3FC
:104F400091E00E94D9280C94FC1D159A60E080E045
:104F50000E948B288FE391E00E94D92861E081E0D4
:104F60000E948B280E94493190E062E370E00E9429
:104F70000836CB01FAE0EF2EF12CB7010E9408367B
:104F8000805D0E94AA288EE20E94AA280E944931D0
:104F900090E065E070E00E940836CB01B7010E9406
:104FA0000836805D0E94AA280E94493190E0880F4F
:104FB000991FB7010E940836805D0E94AA2886E5E5
:104FC0000E94AA280C94FC1D159A60E080E00E94C3
:104FD0008B2885E194E00E94D92861E081E00E945D
:104FE0008B2888E20E943F298CE40E943F298DE5AE
:104FF0000E943F290C94FC1D29AD215029AF0E942D
:105000009B28309191050EE07EE0272E312C412C1B
:10501000512C0C94F3090EE09EE0292E312C412CEA
:10502000512C10E00C94F3090EE00C94D20E8BEC92
:1050300093E00E94D9280C94C81E86EC93E00E944D
:10504000D9280C94C81E81EC93E00E94D9280C94B6
:10505000C81E85ED93E00E94D9280C94C81E8CEBE5
:1050600093E00E94D9280C94C81E81E00C94F41E91
:1050700084E00C94E71E8EE40E94AA280C94DC1EA7
:1050800086E40E94AA280C94DC1E8DE20E94AA28C5
:105090000C94131F82E40E94AA280C94FC1D8DE23C
:1050A0000E94AA280C94FC1D84E40E94AA280C9457
:1050B000FC1D662341F1429A439898B19F7098B9BC
:1050C00098B1282F207F922B98B9439A44E04A95B3
:1050D000F1F7439898B19F7098B998B140E1849FD7
:1050E00090011124292B28B9439A94E09A95F1F75D
:1050F0004398611103C08150833038F09DED9A953B
:10510000F1F7000008954298D7CF89E995E101971A
:10511000F1F700C00895660F660F660F860F809343
:10512000A0050895662321F060E080540C9459286E
:1051300080580C94592860E081E00E945928109210
:10514000A005E1EAF5E080E2819395E0E13BF90713
:10515000D9F70895CF939091A005482F082E000C01
:10516000550BE92FF0E0EF55FA4F208130E0421760
:105170005307A1F0C82F692F669566956695892F0C
:1051800087700E94922861E08C2F0E94592890918C
:10519000A005E92FF0E0EF55FA4FC0839F5F9031F3
:1051A00020F01092A005CF9108959093A005CF9183
:1051B0000895CF93DF93EC012196FC018081882331
:1051C00029F00E94AA2889918111FBCFDF91CF910C
:1051D0000895CF93C82F97B19C6F97B942982FEF3E
:1051E0008FE593E0215080409040E1F700C000003F
:1051F000439898B19F7098B998B1906398B9439AC1
:1052000024E02A95F1F743988FEF95E30197F1F7A2
:1052100000C00000439A94E09A95F1F7439881EF1B
:1052200091E00197F1F700C0439A94E09A95F1F765
:10523000439881EF91E00197F1F700C098B19F701A
:1052400098B9459A439A94E09A95F1F7439881EF7B
:1052500091E00197F1F700C060E088E20E945928D0
:1052600060E088E00E9459280E949B2860E086E068
:105270000E94592860E08C2FCF910C9459281F93DD
:10528000CF93DF93CDB7DEB760970FB6F894DEBF4C
:105290000FBECDBF182F80E1E5E2F1E0DE011196EF
:1052A00001900D928A95E1F7812F82958F70E1E050
:1052B000F0E0EC0FFD1FE80FF11D80810E94AA288D
:1052C0001F70E1E0F0E0EC0FFD1FE10FF11D8081A8
:1052D00060960FB6F894DEBF0FBECDBFDF91CF91C1
:1052E0001F910C94AA280F931F93CF93DF938C01E7
:1052F0009C013695279536952795ABE7B4E10E943A
:105300002536FC01F695E7959F01ADECBCEC0E94BB
:105310002536AC0156954795569547955695479530
:10532000CA01880F991F440F551F440F551F440F82
:10533000551F480F591FCF01841B950B805D0E949C
:10534000AA289801ADECBCEC0E942536EC01D6955C
:10535000C795D695C795D695C7959E010E942536C7
:10536000AC01569547955695479556954795CA0170
:10537000880F991F440F551F440F551F440F551F89
:10538000480F591FCE01841B950B805D0E94AA28EF
:10539000CE01880F991FCC0FDD1FCC0FDD1FCC0F66
:1053A000DD1FC80FD91FC8018C1B9D0B805DDF91CD
:1053B000CF911F910F910C94AA28CF93DF93EC010A
:1053C0008436910508F46FC09C0136952795369573
:1053D0002795ABE7B4E10E942536FC01F695E795E9
:1053E0009F01ADECBCEC0E942536AC01569547956B
:1053F0005695479556954795CA01880F991F440FB2
:10540000551F440F551F440F551F480F591FCF01FB
:10541000841B950B805D0E94AA289E01ADECBCEC1C
:105420000E942536FC01F695E795F695E795F695E9
:10543000E7959F010E942536AC01569547955695F4
:10544000479556954795CA01880F991F440F551FD8
:10545000440F551F440F551F480F591FCF01841B80
:10546000950B805D0E94AA289E01ADECBCEC0E94C9
:1054700025369695879596958795969587959C015F
:10548000220F331F880F991F880F991F880F991FAC
:10549000820F931F9E01281B390BC901805DDF918C
:1054A000CF910C94AA2880E20E94AA28CA30D10584
:1054B00008F0B3CF80E20E94AA28D6CFCF93DF9323
:1054C000EC01883E23E0920708F49EC09C013695CB
:1054D00027953695279536952795A5ECB0E20E943D
:1054E0002536FC01F295E295EF70EF27FF70EF276C
:1054F0009F01ADECBCEC0E942536AC01569547955A
:105500005695479556954795CA01880F991F440FA0
:10551000551F440F551F440F551F480F591FCF01EA
:10552000841B950B805D0E94AA289E0136952795C5
:1055300036952795ABE7B4E10E942536FC01F69538
:10554000E7959F01ADECBCEC0E942536AC01569569
:1055500047955695479556954795CA01880F991FC7
:10556000440F551F440F551F440F551F480F591F17
:10557000CF01841B950B805D0E94AA289E01ADEC93
:10558000BCEC0E942536FC01F695E795F695E7956B
:10559000F695E7959F010E942536AC0156954795F3
:1055A0005695479556954795CA01880F991F440F00
:1055B000551F440F551F440F551F480F591FCF014A
:1055C000841B950B805D0E94AA289E01ADECBCEC6B
:1055D0000E942536969587959695879596958795F9
:1055E0009C01220F331F880F991F880F991F880F66
:1055F000991F820F931F9E01281B390BC901805DE3
:10560000DF91CF910C94AA2880E20E94AA28C43688
:10561000D10508F08ACF80E20E94AA28CA30D105BD
:1056200008F0ACCF80E20E94AA28CFCF0F931F933F
:10563000CF93DF938C019C0136952795369527955E
:1056400036952795A5ECB0E20E942536FC01F2952F
:10565000E295EF70EF27FF70EF279F01ADECBCECF8
:105660000E942536AC015695479556954795569517
:105670004795CA01880F991F440F551F440F551FA6
:10568000440F551F480F591FCF01841B950B805D98
:105690000E94AA2898013695279536952795ABE75D
:1056A000B4E10E942536FC01F695E7959F01ADEC2B
:1056B000BCEC0E942536AC0156954795569547950A
:1056C00056954795CA01880F991F440F551F440FDF
:1056D000551F440F551F480F591FCF01841B950BB1
:1056E000805D0E94AA289801ADECBCEC0E94253692
:1056F000EC01D695C795D695C795D695C7959E01C9
:105700000E942536969587959695879596958795C7
:105710009C01220F331F880F991F880F991F880F34
:10572000991F820F931F9E01281B390BC901805DB1
:105730000E94AA28CE01880F991FCC0FDD1FCC0F25
:10574000DD1FCC0FDD1FC80FD91FC8018C1B9D0B9F
:10575000805DDF91CF911F910F910C94AA28CF9378
:10576000C82F8A3098F480E20E94AA288DECC89F46
:10577000812D11248695869586959AE0899FC0197A
:1057800011248C2F805DCF910C94AA289DEC899FC9
:10579000812D1124869586958695899F912D1124BA
:1057A0009695969596952AE0929F80191124805D92
:1057B0000E94AA28DBCFCF93DF93D82F9DEC899F3F
:1057C000C12D1124C695C695C695C99F912D11244A
:1057D0009695969596958C2F2AE0929F8019112484
:1057E000805D0E94AA288D2F9AE0C99F80191124FC
:1057F000805DDF91CF910C94AA28CF92DF92EF9237
:10580000FF921F93CF93DF931F92CDB7DEB7F62E93
:10581000880F880F880F10E4180F60E0812F7983BC
:105820000E945928CF2C7981D72E760188E0E80E86
:10583000F11C60E0812F0E94592861E0F6018191FE
:105840006F010E9459281F5FCE14DF0491F70F905B
:10585000DF91CF911F91FF90EF90DF90CF9008954F
:10586000009789F020E030E0A8954FEF5FE563E016
:10587000415050406040E1F700C000002F5F3F4FB3
:105880002817390789F708956BEF74E081E00E94CB
:10589000FD2B63EF74E082E00C94FD2B63EE74E06B
:1058A00083E00E94FD2B6BED74E084E00C94FD2BF3
:1058B000CF930E949B2863ED74E080E00E94FD2B53
:1058C0006BEC74E081E00E94FD2B63EC74E082E0FD
:1058D0000E94FD2B6BEB74E083E00E94FD2B63EBD9
:1058E00074E084E00E94FD2B63EA74E085E00E948E
:1058F000FD2B6BE874E086E00E94FD2B63E774E00B
:1059000087E00E94FD2B60E080E00E948B28C0E0D1
:105910008C2F0E94AA28CF5FC830D1F761E080E0C9
:105920000E948B2882E694E00E94D92888E090E0CB
:105930000E94302C6BE974E085E00E94FD2B63E847
:1059400074E086E00E94FD2B6BE674E087E00E9425
:10595000FD2B84E090E00E94302C6BEA74E084E040
:105960000E94FD2B63E974E085E00E94FD2B6BE74C
:1059700074E086E00E94FD2B8FE090E0CF910C94C4
:10598000302CCF93DF9397FD04C0DF91CF910C941F
:10599000162BEC0183E70E94AA28CE019F77DF91A6
:1059A000CF910C9473298CE00E94E928159A0E94EB
:1059B000582C0E949B280E9432310E944E2C0E943B
:1059C0000C2F0E94722F6BEE74E087E00C94FD2B7D
:1059D00080E681B912B889E084B985B1806F85B954
:1059E00085B1866085B98FEF87B918B880EF8AB91D
:1059F0001BB808958091B205E1E0E80FE093B2058D
:105A00008E2F90E0FC013197E431F10530F4E35240
:105A1000FF4F0C941C361092B205089580917808BF
:105A2000853051F1873009F18111F7CF5E985F9889
:105A30000895809178088430F9F020F18630A9F03B
:105A4000C8F08730A9F00895809178088630B8F4BE
:105A5000843080F4813071F0823051F0089580916B
:105A60007808843049F0863049F45E9A08955F984A
:105A70005E9808955F9808955F9A08950895883014
:105A8000B8F308958130C1F3823079F308951DBAD7
:105A9000E9E6F0E08081856080835C9A8CEC9AE096
:105AA0000197F1F700C0000089B18C7090E09595E6
:105AB0008795959587958093770883E08DBB0895AA
:105AC0001DBA5C9808951F920F920FB60F92112481
:105AD0000BB60F922F933F934F935F938F939F93A8
