:100000000C94C7000C9464240C9464240C94E600B3
:100010000C94E6000C9455020C94E6000C94E60057
:100020000C94E6000C94E6000C94E6000C94E600B8
:100030000C94E6000C94E6000C94E6000C94E600A8
:100040000C94C8020C94E6000C94E6000C94E600B4
:100050000C943E280C943E290C94E6000C94E60087
:100060000C94E8240C94E6000C94E6000C94E60052
:100070000C94E6000C94E6000C94E6000C94E60068
:100080000C94E6000C94E6000C94E6003D0DF91685
:10009000C70C8F0E0D0E630E770C220FF70EE40DBA
:1000A000BC0D2A0CAA0D3D0D010DC70C8F0E0D0EB7
:1000B000630E770C220FF70EE40DBC0D2A0CAA0D6F
:1000C0003C0D341FC60C8E0E0C0E620E760C210FEA
:1000D000F60EE30DBB0D290CA90D3D0D4217C70C03
:1000E0008F0E0D0E630E770C220FF70EE40DBC0D74
:1000F0002A0CAA0D5318DF1650184D184A18A417C9
:100100007817AC18641861185E1882135618C9194C
:10011000BD19B119A51999198D198119751969197F
:100120005D195119451939192D1921193710490F20
:10013000D5193D0D6B1AC70C8F0E0D0E630E770C83
:10014000220FF70EE40DBC0D2A0CAA0D0F241A2461
:100150000F2425240E2430240E2425240E24382494
:100160000E240E240E240E240E240E240E240E24FF
:100170000E240C24DE25C125BE25B425B125A525D8
:10018000A2258F258C25792563252725E125112496
:100190001FBECFEFD0E4DEBFCDBF14E0A0E0B1E0E2
:1001A000E0E3F9E500E00BBF02C007900D92A03D2F
:1001B000B107D9F727E0A0EDB4E001C01D92A03D42
:1001C000B207E1F70E94EB060C94962C0C94000009
:1001D00068279091D0042091D104292726232093C9
:1001E000D104909596239093D0046095622B962B22
:1001F0009095892708950F931F93CF93DF93CDB7E1
:10020000DEB7A9970FB6F894DEBF0FBECDBF8E0143
:10021000075D1F4F20E044E1BE016B5E7F4F84EC21
:1002200097E00E94592B882379F08E899091EA04F7
:10023000891709F490C09091EB04891729F08D89F2
:100240008F3F69F0981759F0A9960FB6F894DEBF62
:100250000FBECDBFDF91CF911F910F9108950F89F0
:10026000002309F480C010E020E030E09DEF910F02
:10027000923060F0E5E1F0E0EC0FFD1FE10FF11DC1
:100280006081C9010E94872A9C010F891F5F101796
:1002900068F3832F90E0498D50E048175907A1F685
:1002A0003327888D90E02817390771F68A8D8134BD
:1002B00009F49FC0873509F47BC0823509F4D7C0A3
:1002C000863509F4A8C0883509F464C0843509F47A
:1002D0004FC08F7D863509F0B7CF9E898091EA04A3
:1002E0009813B2CF89A5809319018C8D90E0A0E07E
:1002F000B0E0DC01992788272E8DAC01BD01422B8F
:100300002D8D30E0922F8827A0E0B0E0842B952B34
:10031000A62BB72B8093BD079093BE07A093BF0772
:10032000B093C00748E050E060E270E086E097E0FC
:100330000E94462C10920E07402F50E0043108F026
:10034000AEC04C505109BE016F5D7F4F86E097E013
:100350000E943D2C79CF92E39093EC049091EB04B2
:1003600089136DCF71CF80E090E020E030E093CF33
:10037000809100018F3F49F09E89891731F02091CB
:10038000EA04921361CF81115FCFCE0145960E949E
:10039000F2275ACFF894A89584B7877F84BF8091BD
:1003A000600088618093600088E080936000FFCFE8
:1003B0008E89898388E08B8387E78E838B8D6C8D14
:1003C00090E00E947B2C8B8D8F839C8D9887811170
:1003D00069C080E090E00E945D2C8093EB048A83EA
:1003E0004B81BE016F5F7F4F8AEC97E00E94512BDB
:1003F0002BCF8E8989838091EB048A8386E08B835F
:1004000081E68E8346E0BE016F5F7F4F8AEC97E006
:100410000E94512B19CF8E8989838091EB048A83A6
:1004200084E18B8386E78E8380E88F8387E08887EB
:100430008BEC89878FE98A8781E08B8782E08C87C4
:1004400093E49D8783E58E8784E58F878AE2888B96
:1004500025E4298B2DE42A8B9B8B8C8B44E1BE01F8
:100460006F5F7F4F8AEC97E00E94512BEDCE8E8913
:1004700089838091EB048A8388E08B8382E78E8373
:100480008B8D8F8390E00E945D2C888748E0BE01B1
:100490006F5F7F4F8AEC97E00E94512BD5CE48E0EA
:1004A00050E051CF8091EB049ACF1F920F920FB67C
:1004B0000F9211240F900FBE0F901F90189585FD7D
:1004C00016C081E08093DF049091DE049817C1F09C
:1004D00082E390E0909307018093060180910601EA
:1004E000909107019093050180930401089584FD84
:1004F00020C082E08093DF049091DE049813E8CF5F
:100500008091DD04853608F1809106019091070104
:100510000A97F8F48091060190910701059730F44D
:1005200085E090E090930701809306011092DD042E
:10053000089586FF06C087FD16C084E08093DF041F
:10054000C3CF83E08093DF04BFCF8F5F8093DD0450
:10055000089580910601909107010A9790930701F1
:1005600080930601D7CF1092DF04B2CF9091D304CD
:1005700082FF07C09B7F81FD07C092609093D304E8
:100580000895946081FFF9CF9D7F9093D3040895DF
:100590001F920F920FB60F9211240BB60F922F934A
:1005A0003F934F935F936F937F938F939F93AF93FB
:1005B000BF93EF93FF938091E10481608093E10406
:1005C0008091BC078F5F8093BC078A3008F440C0DD
:1005D0001092BC078091E5049091E60401969093F7
:1005E000E6048093E5048091EC04882329F080914F
:1005F000EC0481508093EC048091E3049091E40436
:10060000892B49F08091E3049091E4040197909341
:10061000E4048093E3040E94FB238091D2048823A6
:1006200019F081508093D2048091A9058F5F809347
:10063000A9052091A90580911A0130E090E0880F6A
:10064000991F880F991F2817390794F50E9477275B
:100650008091E204882329F08091E2048150809304
:10066000E2042091040130910501809106019091EE
:1006700007012817390748F480910401909105017A
:1006800001969093050180930401FF91EF91BF9132
:10069000AF919F918F917F916F915F914F913F911A
:1006A0002F910F900BBE0F900FBE0F901F901895BB
:1006B0001092A905CBCFCF93DF9383E090E00E9407
:1006C0005D2CC82F82E090E00E945D2C2C2F30E042
:1006D000A901582B4A30510508F465C1453651052A
:1006E00008F0D9C150930301409302018DE190E0DD
:1006F0000E945D2C8A3008F44DC18093010181E194
:1007000090E00E945D2C90E0009709F433C18F3F88
:10071000910509F4E0C18436910508F0BFC148E5B0
:1007200052E0849F9001859F300D949F300D1124DD
:100730003093FC062093FB0682E190E00E945D2C42
:10074000C82F0E9421288C1729F0682F82E190E0A1
:100750000E947B2C8EE190E00E945D2C8093000132
:1007600083E190E00E945D2C8093AA0580E090E0F8
:100770000E945D2C803308F441C18A3408F082C1A4
:100780008093EB048FE190E00E945D2C803D08F4A3
:100790002CC1803F08F06DC18093EA0480E190E0B5
:1007A0000E945D2CC82FD0E0CE0101970F9708F072
:1007B0000CC1DD27D695DC2FCC27D795C795D093D4
:1007C000B907C093B807CE010E946B2C9093E9043F
:1007D0008093E80497FD1BC18031974208F039C12E
:1007E000CE0102960E945D2C80931801CE010396E3
:1007F0000E945D2C80931701CE0108960E945D2C0B
:1008000080931601CE0109960E945D2C80931501FC
:10081000CE010A960E945D2C8093E704CE010B96D0
:100820000E945D2C80931401CE010C960E945D2CD9
:1008300080931301CE010D960E945D2C80931201CE
:10084000CE010E960E945D2C80931101CE010F9671
:100850000E945D2C80931001CE0104960E945D2CB5
:1008600080930F01CE0143960E945D2C80930E0170
:10087000CE0105960E945D2C80930D01CE01069657
:100880000E945D2C80930C01CE0107960E945D2C86
:1008900080930B01CE0140960E945D2C80930A014B
:1008A000CE0141960E945D2C80930901CE014296B3
:1008B0000E945D2C80930801CE0148960E94652C11
:1008C0006093D8047093D9048093DA049093DB0486
:1008D000CE014C960E94652C6093D4047093D5048D
:1008E0008093D6049093D70480E290E00E945D2C20
:1008F0008093BB0781E290E00E945D2C8093BA0751
:1009000082E290E00E945D2C8093C10783E290E038
:100910000E945D2C8093050784E290E00E945D2C8C
:10092000823008F4CBC08B3008F086C080931A0167
:10093000BE01605E7F4F48E050E08DEF96E00E9480
:100940004D2CEDEFF6E021E09EE706C09083319656
:1009500087E0E530F80759F080818F37B8F78111CB
:10096000F6CF2083319687E0E530F807A9F7DF91CD
:10097000CF91089581E090E09093FC068093FB0670
:1009800061E081E190E00E947B2C8091FB069091D8
:10099000FC06C5CE8AE0809301016AE08DE190E01B
:1009A0000E947B2CACCE8AE090E090930301809370
:1009B000020160E082E090E00E947B2C60910201E5
:1009C00083E090E00E947B2C91CE81E090E09093B8
:1009D000B9078093B80761E080E190E00E947B2C2A
:1009E000C091B807D091B907E4CE80ED8093EA04B6
:1009F00060ED8FE190E00E947B2CD0CE80E380936D
:100A0000EB0460E380E090E00E947B2CBBCE9F77FC
:100A10008038910508F4E4CE8FE790E09093E904E4
:100A20008093E8046FE770E0CE010E94912CC091A2
:100A3000B807D091B907D4CE8AE080931A016AE052
:100A400084E290E00E947B2CC091B807D091B90756
:100A50006FCF8FE097E29093E9048093E8046FE012
:100A600077E2CE010E94912CC091B807D091B907CE
:100A7000B7CE8FEE8093EA046FEE8FE190E00E9494
:100A80007B2C8CCE89E48093EB0469E480E090E0D9
:100A90000E947B2C77CE84E690E087CF83E690E0BF
:100AA0009093FC068093FB0663E681E190E00E9450
:100AB0007B2C8091FB069091FC0631CE82E08093E6
:100AC0001A0162E084E290E00E947B2CC091B8079A
:100AD000D091B9072DCF85E090E09093FC068093EC
:100AE000FB0665E081E190E00E947B2C8091FB0693
:100AF0009091FC0614CEAF92BF92CF92DF92EF920C
:100B0000FF920F931F93CF93DF93A89560E082E04D
:100B100090E00E947B2C6AE083E090E00E947B2CB6
:100B20006FE08DE190E00E947B2C65E081E190E038
:100B30000E947B2C64E682E190E00E947B2C63EFB4
:100B400083E190E00E947B2C60E380E090E00E94D3
:100B50007B2C60ED8FE190E00E947B2C60E08EE1C9
:100B600090E00E947B2C65E084E290E00E947B2C68
:100B700060E080E190E00E947B2CC0E8D0E087E05C
:100B8000A82E97E1B92E27E2C22E37E3D32E47E4F1
:100B9000E42E57E5F52E07E617E7A895D093B90799
:100BA000C093B80763E070E0CE010E94912C809161
:100BB000B8079091B90762E002960E947B2C809161
:100BC000B8079091B90761E003960E947B2C809151
:100BD000B8079091B90760E808960E947B2C809135
:100BE000B8079091B90760E809960E947B2C809124
:100BF000B8079091B90760E00A960E947B2C80911B
:100C0000B8079091B90760E80B960E947B2C809101
:100C1000B8079091B90760E80C960E947B2C8091F0
:100C2000B8079091B90760E80D960E947B2C8091DF
:100C3000B8079091B90760E00E960E947B2C8091D6
:100C4000B8079091B90760E80F960E947B2C8091BD
:100C5000B8079091B9076AE004960E947B2C8091B6
:100C6000B8079091B90760E843960E947B2C809169
:100C7000B8079091B90769E005960E947B2C809196
:100C8000B8079091B90768E006960E947B2C809186
:100C9000B8079091B90760E807960E947B2C809175
:100CA000B8079091B90765E040960E947B2C80912F
:100CB000B8079091B90766E041960E947B2C80911D
:100CC000B8079091B90769E042960E947B2C809109
:100CD000B8079091B90740E050E0BA0148960E94E9
:100CE000892C8091B8079091B90740E050E0BA0193
:100CF0004C960E94892CA092FD06B092FE06C092EE
:100D0000FF06D0920007E0920107F09202070093DD
:100D10000307109304076091B8077091B907605EEC
:100D20007F4F48E050E08DEF96E00E94712CC05854
:100D3000DF4FC11588E0D80709F02FCFA895DF91C4
:100D4000CF911F910F91FF90EF90DF90CF90BF90C8
:100D5000AF900C945B0314BEA8959EE088E10FB69B
:100D6000F894A895809360000FBE90936000A895BA
:100D70001092EC048FEF809319010E945B030E9494
:100D8000BC230E94D1240E94482416BC8CE687BD57
:100D90001092BC071092E6041092E50482E084BD34
:100DA00085E085BDEEE6F0E0808182608083239A55
:100DB0000895CF93DF9397FD04C0DF91CF910C94FA
:100DC0000122EC0183E70E94951FCE019F77DF91FE
:100DD000CF910C945E20CF93DF93CDB7DEB7C05494
:100DE000D1090FB6F894DEBF0FBECDBF80900B05C2
:100DF0008AAA40900A059090E0049CAA0E94AB0643
:100E00008091B8079091B90780589109880F892F70
:100E1000881F990B9195AA24A394A80EAEA2809046
:100E2000E8049090E9049DA68CA68091EB048E8F37
:100E30008091EA048D8F809100018C8F2091FB06B8
:100E40003091FC063695279536952795369527954A
:100E5000AFE4BBE10E941A2C9695879596958795ED
:100E6000969587958B8F0E9436289DEC899F812DC2
:100E700011248695869586958A8F2091020130915E
:100E80000301ADECBCEC0E941A2C969587959695C3
:100E9000879596958795898F28988FB7F894209194
:100EA000FB063091FC063093E4042093E3048FBFEB
:100EB0001698A89540E16BEA75E08AEC97E00E94ED
:100EC0002B2B48E06FE077E084EC97E00E942B2B1F
:100ED0000E9471297894A8958FEF89838091EB0403
:100EE0008A8384E18B8386E78E8380E88F8387E023
:100EF00088878BEC89878FE98A8781E08B8782E0FE
:100F00008C8793E49D8783E58E8784E58F878AE2CB
:100F1000888B25E4298B2DE42A8B9B8B8C8B44E1D9
:100F2000BE016F5F7F4F8AEC97E00E94512BA8951E
:100F30001092C3070E94AC2383B1867F8AA785B134
:100F4000806F85B985B1866085B94BAA9E01255E03
:100F50003F4F1901AE01425E5F4F59A748A751E0CC
:100F600059AB1DAA1EAA1FAA18AE1AA21BA21CA228
:100F70001DA2512C1FA218E1612E11E0712E1BA69B
:100F800010E00CE018AA19A29EA0892C912C9FA613
:100F90008EA62250310938A32F8FC12CD12C760177
:100FA000C394202F052D8091CC07882309F47AC2A1
:100FB000A8952B9A2B988091E10480FDA7C22AAFB7
:100FC0000E9416254091BB0730910805842F90E0C0
:100FD0000497632F70E02AAD681779070CF031C3CE
:100FE0008091D3048E7F8093D30430910905409182
:100FF000C107341708F41AC350E0E0910507632FC6
:1010000070E0641B750BF4E6F69FC001F79F900D2E
:1010100011246E2F70E0641B750B0E94FD2BA62E11
:101020004091AA0541FF07C3E31728F48091E0042B
:1010300081608093E00443FFE6C28091A905EA2D18
:10104000F0E060911A010E94F12B90E0019634E1EA
:10105000389FB001399F700D11246E177F070CF077
:10106000C4C28091D30488608093D30480910A0520
:1010700042FF7EC2813009F47AC208F42AC4823069
:1010800009F076C2E1E04E1611F40C94071981E0E4
:1010900044FD72C2BB24B39450900B05482E01301E
:1010A00009F489C2043009F4C3C3053009F4ABC3A1
:1010B0002AAF0E94C2272AAD822F90E08D30910581
:1010C00008F4AFC23091DF04111104C0313009F4CB
:1010D00030C210E03093DE04A89584EC97E02AAF8C
:1010E0000E94412B2AAD81117FC3A8958091EC0409
:1010F000811181C21092BD071092BE071092BF07E6
:101100001092C0078FEF8093190189E0E0EBF3E0C4
:10111000A6E0B7E001900D928A95E1F787E0809311
:10112000C3074091D30440FF5CC28091180187FD42
:1011300058C28F714601570104C0880C991CAA1C23
:10114000BB1C8A95D2F7D501C40141FF12C0309172
:10115000170137FD0EC03F714601570104C0880CCE
:10116000991CAA1CBB1C3A95D2F788299929AA294F
:10117000BB2942FF12C030910D0137FD0EC03F71F7
:101180004601570104C0880C991CAA1CBB1C3A9547
:10119000D2F788299929AA29BB2943FF12C0309187
:1011A0000F0137FD0EC03F71B701A60104C0440F07
:1011B000551F661F771F3A95D2F7842B952BA62BC8
:1011C000B72B409109053091C107431790F4309136
:1011D0000E0137FD0EC03F71B701A60104C0440FD8
:1011E000551F661F771F3A95D2F7842B952BA62B98
:1011F000B72B3FEF300F323008F4F1C2053009F45D
:10120000DBC299A090FE12C030910A0137FD0EC0DA
:101210003F71B701A60104C0440F551F661F771F19
:101220003A95D2F7842B952BA62BB72BA9A0A1FE1C
:1012300012C03091090137FD0EC03F71B701A60100
:1012400004C0440F551F661F771F3A95D2F7842BB1
:10125000952BA62BB72BA89530910605323009F4B3
:10126000F9C1333009F45BC2313009F441C2A895A9
:1012700030910405323009F405C2333009F413C249
:10128000313009F47FC24091D8045091D904609163
:10129000DA047091DB04842B952BA62BB72B40919D
:1012A000D4045091D5046091D6047091D704409530
:1012B0005095609570954C015D0184229522A6227F
:1012C000B7228AA29BA2ACA2BDA29BA8491409F492
:1012D0003DC288248394912C8091DF04811107C042
:1012E0008FEF840D823018F08114910459F08FB77C
:1012F000F8944091FB065091FC065093E40440930F
:10130000E3048FBFA8958FB7F894A090E504B09040
:10131000E6048FBF2AAF0E9414262AAD882379F0F5
:10132000892839F48091020190910301A816B90629
:1013300030F08091CC07882311F40C94B8188AEC13
:1013400097E02AAF0E94412B2AAD882331F080918B
:10135000E204882311F40C945E1A3FB7F89480914C
:10136000E3049091E4043FBF892B09F01CCEA895BB
:101370001092C30780917A008F7780937A00289A21
:10138000169A88B1837088B9159880916E008D7F08
:1013900080936E005F985E9885B1897F85B92AAF8A
:1013A0000E946124419840985D9883B7817F846052
:1013B00083BFF894A8950FB6F894A8958091600023
:1013C000886180936000109260000FBED99A80916E
:1013D000680082608093680080916C00806F8093C9
:1013E0006C0083B7816083BF78948895F89483B745
:1013F0008E7F83BF809168008D7F80936800A89561
:101400009EE088E10FB6F894A895809360000FBE27
:1014100090936000A8957894289816980E94AC2321
:1014200016BC8CE687BD1092BC071092E6041092A1
:10143000E50482E084BD85E085BD80916E00826018
:1014400080936E0085B1866085B90E94482463B19F
:10145000667F8AA50E94E80063B1667F0E94E8006B
:1014600063B1667F0E94E80063B1667F0E94E80076
:101470008AA70E945F028AA50E94B6028091DF04BB
:101480008093DE048FB7F8944091FB065091FC06E0
:101490005093E4044093E3048FBF2AAD8091CC07BE
:1014A000811186CD8FEF89838091EB048A8384E15B
:1014B0008B8386E78E8380E88F8387E088878BEC39
:1014C00089878FE98A8781E08B8782E08C8793E424
:1014D0009D8783E58E8784E58F878AE2888B35E454
:1014E000398B3DE43A8B9B8B8C8B44E1BE016F5F63
:1014F0007F4F8AEC97E02AAF0E94512B2AADA89526
:101500002B9A2B988091E10480FF59CD8091E104C2
:101510008E7F8093E10463B1667F8AA52AAF0E9423
:10152000E8008AA70E945F028AA50E94B6022AAD3F
:1015300046CD3091DE04313059F02AAF0E94861F2B
:101540002AAD2F5F10920501109204013091DF0443
:10155000409104015091050180910601909107018D
:1015600010E04817590708F4B5CD2CE0B3CD82E060
:101570004816A9F144FF33C090910B05B82E911184
:10158000842D811189CD8091080187FD12C18F7151
:101590004AA15BA16CA17DA104C076956795579582
:1015A00047958A95D2F740FF04C150900B05412C16
:1015B000013009F077CD8091D204882309F418C155
:1015C0002AAF0E94C2272AAD822F90E08D3091056C
:1015D00008F078CDFC01EA5BFF4F0C94112CB82E7B
:1015E000D0CF80E090E0DC01B0CD8091D304877F44
:1015F0008093D3043BCD8091AA0580FF48C081E051
:101600008093C3078ECD5091BA07852F90E0049741
:10161000632F70E06817790744F3351708F021CD80
:1016200025CDFC01ED5AFF4F0C94112C4091AA05D9
:1016300041FD30C0A12C8091E0048E7F8093E004B6
:10164000FACC341708F4D1CC8091D3048160809314
:10165000D304CBCC3091E70437FD09CE3F71B701FD
:10166000A60104C0440F551F661F771F3A95D2F795
:10167000842B952BA62BB72BA895309104053230DF
:1016800009F0FBCD3091110137FDFDCD22C0109244
:10169000C30747CD8091E0048E7F8093E004E09102
:1016A0000507A12CC1CC3091110137FD0EC03F714F
:1016B000B701A60104C0440F551F661F771F3A9556
:1016C000D2F7842B952BA62BB72B3091100137FD29
:1016D000DACD3F71B701A60104C0440F551F661F44
:1016E000771F3A95D2F7842B952BA62BB72BCBCD12
:1016F0003091160137FD0EC03F71B701A60104C03D
:10170000440F551F661F771F3A95D2F7842B952BF0
:10171000A62BB72B3091150137FDA9CD9FCF309166
:10172000E70437FD0EC03F71B701A60104C0440FA6
:10173000551F661F771F3A95D2F7842B952BA62B42
:10174000B72B3091140137FD92CD88CFAAA85A103B
:10175000C0CD8AA09BA0ACA0BDA04DA95EA96FA9D9
:1017600078AD84169506A606B70609F0B2CD30917D
:10177000E00491E080E08CA8831201C090E0892E03
:10178000982EAACD3091130137FD0EC03F71B701DD
:10179000A60104C0440F551F661F771F3A95D2F764
:1017A000842B952BA62BB72B3091120137FD6BCDD7
:1017B00090CF412C512C73CC30910B0137FD21CDB2
:1017C0003F71B701A60104C0440F551F661F771F64
:1017D0003A95D2F7842B952BA62BB72B12CD3091AF
:1017E0000C0137FD0ECDECCF0E94FB002AAD7DCC65
:1017F0002AAF0E94C2272AAD822F90E08D3091053A
:1018000090F003E05FCC8091D2048111E0C22AAF56
:101810000E94C2272AAD822F90E08D30910508F4F6
:1018200060C000E04FCCFC01E05AFF4F0C94112C3B
:101830005520F1F22AAF0E94C2272AAD822F90E0F4
:101840008D30910508F03ECCFC01E359FF4F0C941C
:10185000112C03E0159A112309F458C7113011F423
:101860000C94D21B123011F40C94A41B133011F4FD
:101870000C94731B143011F40C94C11C153011F42A
:101880000C947F1C163011F40C94091D173011F4C0
:101890000C94841A183011F40C94F11A193011F4C4
:1018A0000C94DE1A1A3011F40C94B61A1B3011F491
:1018B0000C94971A11E03091DF04323009F4ADC670
:1018C000343009F49DC6313011F40C944A1A2BE0DF
:1018D00001CC442011F40C945B1A44FD4DCEB82E7B
:1018E00052CEFC01E658FF4F0C94112C03E0159AE0
:1018F000112311F40C947D178091DC0490E0823167
:10190000910508F431C161E080E00E94761F87ED07
:1019100091E00E94C41F61E081E00E94761FD30124
:101920008C9187FF02C00C94F1198F710E94C6221E
:1019300020E03091DF04323009F4DAC2333010F4A1
:101940000C941D1A333011F40C94051A343011F034
:101950000C94FD19409104015091050180910601FC
:10196000909107014817590710F40C94FD19D30101
:101970008C91982F9F7111F40C94F41981508C93D1
:10198000109205011092040126E0A4CB03E0159A01
:1019900060E080E00E94761F0E946726813011F48B
:1019A0000C94391710F40C943317823011F40C9402
:1019B0002D17833021F483E791E00E94C41F61E07A
:1019C00080E00E94761F0E946726882311F40C9401
:1019D0002717843020F48AE791E00E94C41F0E94F8
:1019E0004D263091DF04333011F40C941A17343043
:1019F00011F40C940D17323011F40C943F1722E0BF
:101A000063CB159A60E080E00E94761F8BE391E043
:101A10000E94C41F61E080E00E94761F013011F433
:101A20000C94061710F40C94EC16043020F48CE49B
:101A300091E00E94C41F3091DF04323011F40C9405
:101A4000F716333010F40C946A17333011F40C94F9
:101A50005D17343011F00C945A1780910B018038C7
:101A600011F40C94591751100C94551782E380937C
:101A7000D20405E021E028CB03E060E082E00E9490
:101A8000761F8091E00480FF02C00C947B164B14FB
:101A900011F40C946F1686E391E00E94C41F159A0E
:101AA00061E081E00E94761F0E9459270E94E8238E
:101AB00080910A0187FF02C00C94E11960E087E081
:101AC0000E94761F99A090FE4DC080910A01881F48
:101AD0008827881F94E0981B892F0E94951F61E03A
:101AE00087E00E94761FA9A0A1FE3AC0809109015B
:101AF000881F8827881F94E0981B892F0E94951FB4
:101B00003091DF04323011F40C94D21610F40C949E
:101B1000B016333011F40C949F16343011F00C943D
:101B200085168091DE04843011F40C948516809122
:101B30000A0187FF02C00C945C168091090186FDA2
:101B400002C00C94691682E089A0882689A220E050
:101B5000BBCA03E00E94861F3091DF0420E0B4CAB4
:101B600083E0CCCF83E0B9CFFC01E957FF4F60E0C1
:101B700080E00C94112C03E0159A11115FC560E010
:101B800083E00E94761F84EB92E00E94C41F61E014
:101B900080E00E94761F8FE70E94951F89E393E003
:101BA0000E94C41F3091DF04323009F044C53091E7
:101BB000DE04323009F4BBC30E94861F3091DF047B
:101BC00011E02AE087CA03E0159A111116C460E0FB
:101BD00084E00E94761F87E892E00E94C41F61E0C3
:101BE00080E00E94761F8FE70E94951F8EE592E0AD
:101BF0000E94C41F3091DF04323009F0FBC33091E2
:101C0000DE04323011F40C94AF180E94861F30911C
:101C1000DF0411E029E05ECA03E0159A112309F4FC
:101C2000D8C29E012B5E3F4F912C802EA12E8901A0
:101C300060E072E0B72EB90C8B2D0E94761FD801A0
:101C40008D918D01805D0E94951F61E08B2D0E941A
:101C5000761FBBA49B1409F4CFC480E20E94951F99
:101C6000939424E09212E4CF1A2D082D3091DF04D2
:101C7000323009F4E6C708F4D2C7333009F492C70A
:101C8000343009F08CC740910401509105018091D6
:101C90000601909107014817590708F480C7E5E14C
:101CA000F0E0EC0FFD1F8BA4E80DF11D80818A3060
:101CB00008F455C589E08083109205011092040153
:101CC00024E008CA03E0159A60E011110C94AB17E8
:101CD00083E00E94761F88EA91E00E94C41F61E0C1
:101CE00080E00E94761F8FE70E94951F8EEA91E0A8
:101CF0000E94C41F3091DF04323011F00C94B518EB
:101D00003091DE04323011F40C94B2180E94861F18
:101D10003091DF041FA211E025E0DCC903E0159A31
:101D200060E080E00E94761F81E891E00E94C41F7D
:101D300061E080E00E94761F8EA10E94C6228AE8A0
:101D400091E00E94C41FA090B807B090B9078EA57B
:101D50009FA59695982F8827979587959093B90773
:101D60008093B8070E946B2C97FD3DC4803157E2E9
:101D7000950710F08FE097E20E94D906B092B9075C
:101D8000A092B8073091DF04323011F40C94311B6B
:101D900010F40C941C1B333011F40C940C1B3430D5
:101DA00011F00C94091B8091DE04843011F40C9422
:101DB000091B2EA1223010F40C94091B21502EA3D4
:101DC00023E09EA0892C912C9FA68EA67DC92AAFC8
:101DD0000E94C2272AAD822F90E08D30910508F035
:101DE00071C9FC01E756FF4F0C94112C03E0159AC2
:101DF00011110C946A1860E080E00E94761F8DE655
:101E000092E00E94C41F61E080E00E94761F8FE78D
:101E10000E94951F86E792E00E94C41F3091DF0464
:101E2000323011F00C94811A3091DE04323011F40A
:101E30000C947E1A0E94861F3091DF0411E028E086
:101E400049C903E0159A111123C160E083E00E94A3
:101E5000761F88E592E00E94C41F61E080E00E9446
:101E6000761F8FE70E94951F8EE592E00E94C41FA7
:101E70003091DF04323009F008C13091DE04323095
:101E800009F400C10E94861F3091DF0411E027E0B1
:101E900021C90E94761F88E392E00E94C41F9AE045
:101EA000692E91E0792E61E080E00E94761F87ED37
:101EB00091E00E94C41F61E081E00E94761FF3015F
:101EC000808187FD29C18F710E94C62261E085E073
:101ED0000E94761FD3018C9186FF18C180E592E0A5
:101EE0000E94C41F21E03091DF04323009F026CD7A
:101EF0003091DE04323011F40C94FD198091B80752
:101F00009091B9076091180102960E947B2C8091F4
:101F1000B8079091B9076091170103960E947B2C36
:101F20008091B8079091B9076091160108960E94B8
:101F30007B2C8091B8079091B907609115010996A3
:101F40000E947B2C8091B8079091B9076091E704BB
:101F50000A960E947B2C8091B8079091B9076091F6
:101F600014010B960E947B2C8091B8079091B907C1
:101F7000609113010C960E947B2C8091B807909180
:101F8000B907609112010D960E947B2C8091B807D1
:101F90009091B907609111010E960E947B2C80915F
:101FA000B8079091B907609110010F960E947B2CA1
:101FB0008091B8079091B90760910F0104960E9433
:101FC0007B2C8091B8079091B90760910E014396E0
:101FD0000E947B2C8091B8079091B90760910D0108
:101FE00005960E947B2C8091B8079091B90760916B
:101FF0000C0106960E947B2C8091B8079091B9073E
:1020000060910B0107960E947B2C8091B8079091FC
:10201000B90760910A0140960E947B2C8091B80715
:102020009091B9076091090141960E947B2C8091A3
:10203000B8079091B9076091080142960E947B2CE5
:102040000E945B030E94861F60E081E00E94761F71
:1020500081EA91E00E94C41F87E090E00E941B2368
:102060000E94861F3091DF0426E00C9466080E94CF
:10207000761F80E292E00E94C41F42E1642E41E09C
:10208000742E41CC27E00C94690827E00C94660874
:10209000159A60E080E00E94761F86E692E00E943A
:1020A000C41F80E3810F0E94951F61E080E00E94C1
:1020B000761F812F90E0FC01E450F94F5F01808191
:1020C00090E00E9449213091DF04323009F456C07B
:1020D00008F443C0333079F1343051F540910401B4
:1020E0005091050180910601909107014817590709
:1020F000F8F0D5018C918230B8F081508C93109219
:1021000005011092040127E00C946A0884E592E02E
:102110000E94C41F21E00DCC21E088E492E02AAFA8
:102120000E94C41F2AAD05CC81E0F5018083E7CF72
:1021300027E00C946A0840910401509105018091B8
:102140000601909107014817590790F3D5018C912A
:102150008E37D8F58F5F8C93D2CF313049F73091DD
:10216000DE04313029F31F5F193008F011E00E94BE
:10217000861F3091DF0427E00C9464083091DE0460
:102180003230B1F26091B8077091B907605E7F4F4D
:1021900048E050E08DEF96E00E94712C0E945B03B6
:1021A0000E94861F60E081E00E94761F81EA91E034
:1021B0000E94C41F87E090E00E941B230E94861F9C
:1021C0003091DF0427E00C9466088EE7F5018083E8
:1021D00096CF60E085E00E94761F85E991E00E943D
:1021E000C41F61E080E00E94761F8FE70E94951F68
:1021F00089E991E00E94C41F3091DF04323009F078
:10220000F6C03091DE04323009F4EEC0ACA4BDA4B7
:10221000B7FC90C02CA53DA53695279536952795FA
:1022200036952795A5ECB0E20E941A2CAC01529588
:1022300042954F7045275F7045279A01ADECBCEC85
:102240000E941A2C969587959695879596958795D1
:102250009C01220F331F880F991F880F991F880F29
:10226000991F820F931F481B590B4D8B2CA53DA521
:102270003695279536952795ABE7B4E10E941A2C41
:10228000AC01569547959A01ADECBCEC0E941A2C16
:102290009695879596958795969587959C01220F9B
:1022A000331F880F991F880F991F880F991F820F5E
:1022B000931F481B590B4E8B2CA53DA50E941A2C31
:1022C000AC015695479556954795569547959A0171
:1022D0000E941A2C96958795969587959695879541
:1022E0009C01220F331F880F991F880F991F880F99
:1022F000991F820F931FBA01681B790B6F8BCA015C
:10230000880F991F440F551F440F551F440F551F29
:10231000840F951F8CA49DA4881A990A888E0E9408
:10232000861F3091DF0411E024E00C946A082AE053
:102330000C94690883E48D8BF501FF779F01369536
:10234000279536952795ABE7B4E10E941A2CAC018E
:10235000569547959A01ADECBCEC0E941A2C9695C7
:10236000879596958795969587959C01220F331FA3
:10237000880F991F880F991F880F991F820F931F2D
:10238000481B590B4E8B9F010E941A2CAC0156958D
:10239000479556954795569547959A010E941A2C50
:1023A0009695879596958795969587959C01220F8A
:1023B000331F880F991F880F991F880F991F820F4D
:1023C000931F9A01281B390B2F8BCA01880F991F65
:1023D000440F551F440F551F440F551F840F951F61
:1023E000E81BF90BE88F9BCF24E00C94690824E0EC
:1023F0000C94660829E00C946608159A60E080E069
:102400000E94761F113009F4C3C0123009F4AEC027
:10241000133009F490C011E03091DF04323009F438
:1024200057C008F447C0333041F1343019F54091BA
:102430000401509105018091060190910701481710
:102440005907C0F0E8A5F9A58081882311F08150D3
:1024500080838E8D803310F480E38E8F8D8D803D50
:1024600010F480ED8D8F109205011092040129E087
:102470000C946A0829E00C946A0840910401509178
:10248000050180910601909107014817590790F3C3
:10249000A8A5B9A58C918F3F11F08F5F8C938E8D7D
:1024A0008A3410F089E48E8F8D8D803FE0F28FEEBC
:1024B0008D8FD9CF3130F1F63091DE043130D1F249
:1024C0001F5F0E94861F3091DF0429E00C946A0888
:1024D0003091DE04323071F26E8D80E090E00E9427
:1024E0007B2C6D8D8FE190E00E947B2C6C8D8EE1BA
:1024F00090E00E947B2C0E945B038091EB048E8F06
:102500008091EA048D8F809100018C8F0E94861F3C
:1025100060E081E00E94761F81EA91E00E94C41F82
:1025200087E090E00E941B230E94861F3091DF0409
:1025300029E00C9466088EE992E00E94C41FBC8CCE
:10254000BB2009F442C05FEF61E082E0B51689F17B
:102550000E94761F81EB92E00E94C41F8B2D0E9487
:102560002A20CE014C9699A788A756CF85E992E0FC
:102570000E94C41F61E083E00E94761F8D8D805D04
:102580000E94C6229E01235E3F4F39A728A744CF51
:102590008CE892E00E94C41F61E084E00E94761FF4
:1025A0008E8D8F5E0E94951FFE017E96F9A7E8A78B
:1025B00033CF0E94761F8CEA92E00E94C41FBE01B6
:1025C000645E7F4F79A768A727CF61E082E00E9411
:1025D000761F87EA92E00E94C41FAE01445E5F4FFF
:1025E00059A748A719CF9C013F772038310508F437
:1025F000C3CB8FE790E8C0CB8EE50E94951F30CB10
:102600008091DE04843009F462C98091B70781505B
:102610008093B7072BE00C946A083091DE043230C7
:1026200009F455C90E9481260E94861F3091DF045B
:102630002BE00C9466082AE00C946608159A60E07A
:1026400080E00E94761F113009F490C2123009F424
:1026500074C2133009F460C2143009F450C215304A
:1026600009F446C2163009F48AC1173009F439C298
:10267000183009F42FC2193009F41AC21A3009F4BB
:10268000F4C1B1E02B16B1E03B0609F4AEC111E094
:10269000BAE12B16B1E03B0609F47DC161E084E0AC
:1026A0000E94761FD1018C9190E00E94C82028E002
:1026B0003091DF04323009F4B7C008F4A7C03330DA
:1026C00009F489C0343009F083C04091040150916D
:1026D000050180910601909107014817590708F4F8
:1026E00077C0283009F441C081E090E001C0880F34
:1026F0002A95EAF78095F1019081892380832AE069
:102700000C946A0800E0159A1111A8C860E083E0F3
:102710000E94761F8FE193E00E94C41F61E080E079
:102720000E94761F8FE70E94951F89E393E00E9425
:10273000C41F3091DF04323011F00C94581D3091D9
:10274000DE04323011F40C94551D0E942F230E9498
:10275000861F3091DF0411E02BE00C946A08882377
:1027600009F4AACA81508083A7CA8F8C98A0281424
:10277000390451F121E0221621E0320629F1D1017C
:102780008C91823010F081508C93809101018A30BD
:1027900018F48AE0809301018B8D811102C081E0E1
:1027A0008B8F8A8D811102C081E08A8F80911A01FE
:1027B000823018F482E080931A0110920501109281
:1027C00004012AE00C946A088091D30480FDD7CFDD
:1027D0002AE00C946A08409104015091050180910F
:1027E0000601909107014817590790F3283009F422
:1027F00099C081E090E001C0880F2A95EAF7F101C5
:102800009081892B80832AE00C946A08313001F78B
:102810003091DE043130E1F21F5F0E94861F30915B
:10282000DF042AE00C946A083091DE04323081F231
:102830006B8D81E190E00E947B2C8A8D880F682F40
:10284000660F660F680F82E190E00E947B2C60911A
:102850001A0184E290E00E947B2C6091AA0583E13A
:1028600090E00E947B2C609101018DE190E00E943C
:102870007B2C898DBAE08B9FC001112490930301BA
:1028800080930201692F82E090E00E947B2C60918E
:10289000020183E090E00E947B2C0E945B03209168
:1028A000FB063091FC06369527953695279536958B
:1028B0002795AFE4BBE10E941A2C969587959695D3
:1028C0008795969587958B8F0E9436289DEC899FDA
:1028D000812D11248695869586958A8F20910201F7
:1028E00030910301ADECBCEC0E941A2C96958795B3
:1028F0009695879596958795898F0E94861F60E0AB
:1029000081E00E94761F81EA91E00E94C41F87E067
:1029100090E00E941B230E94861F3091DF042AE072
:102920000C9466088F8C98A02814390419F121E0C2
:10293000221621E03206F1F0D1018C918F3F11F087
:102940008F5F8C93898D8B3010F08AE0898F8B8D0F
:10295000843610F083E68B8F8A8D8A3110F089E1FE
:102960008A8F80911A018B3008F427CF8AE08093F8
:102970001A0123CF8091D30480FF2ACFDDCF8EEEC2
:1029800092E00E94C41F61E087E00E94761F82ED02
:1029900092E00E94C41F61E084E00E94761F809153
:1029A0001A01EDECBE2E8B9D812D11248695869506
:1029B0008695805D0E94951F8EE20E94951F9091E2
:1029C0001A019B9D812D1124869586958695EAE0B6
:1029D0008E9F90191124892F805D0E94951F28E0F9
:1029E000FAE12F2EF1E03F2E63CE11E061E083E0AB
:1029F0000E94761F8091010199E2899F812D112407
:102A000082958F70805D0E94951F8EE20E94951FB7
:102A100080910101ADECBA2E8B9D812D11248695FC
:102A2000869586958B9D912D1124969596959695D4
:102A30007AE0979F80191124805D0E94951F9091E4
:102A400001019B9D812D1124869586958695AAE08E
:102A50008A9F90191124892F805D0E94951F28E07C
:102A6000B1E02B2EB1E03B2E23CE81E193E00E941A
:102A7000C41F34E024E061E084E02AAF39AF0E9453
:102A8000761F8091AA0590E039AD02C09595879593
:102A90003A95E2F72AAD80FF12C08AE193E02AAFAF
:102AA0000E94C41F9AEA292E95E0392E2AAD00CE45
:102AB00088E093E00E94C41F32E022E0DCCF84ED86
:102AC00091E02AAF0E94C41F8AEA282E85E0382EA2
:102AD0002AADEECD8FEF92E00E94C41F30E020E0DF
:102AE000CACF86EF92E00E94C41F31E021E0C3CF3D
:102AF00086EE92E00E94C41F33E023E0BCCF8DED50
:102B000092E00E94C41F61E087E00E94761F82ED80
:102B100092E00E94C41F6ACF84ED92E00E94C41F1D
:102B200061E087E00E94761F82ED92E00E94C41F60
:102B3000BE01675E7F4F1B01B1CD85EC92E00E9424
:102B4000C41F61E080E00E94761F8DEC92E00E943D
:102B5000C41F61E087E00E94761F82ED92E00E9430
:102B6000C41FAE01465E5F4F1A0198CD8AEB92E01A
:102B70000E94C41F61E080E00E94761F80EC92E01A
:102B80000E94C41F61E087E00E94761F8AE892E0FD
:102B90000E94C41F9E01255E3F4F19017FCD24E096
:102BA0000C946A084091040150910501809106013E
:102BB000909107014817590790F38BA4811003C027
:102BC0008D89893049F1E5E1F0E0EC0FFD1F9BA410
:102BD000E90DF11D8081893010F48F5F80838D892C
:102BE0008A3008F469C82E898F893AE0839FC00132
:102BF000112444E6249F800D911D1124288D820FFD
:102C0000911D8038910534F081E08E8B82E08F8BAE
:102C100087E0888F33E050C883E48D8BE4CF313078
:102C200009F0BDCF8091DE04813009F4B8CF2BA527
:102C30002F5F2BA7243008F4B2CF1BA624E00C94FE
:102C40006A083091DE04323009F4A9CF8D898A30C8
:102C500008F45EC08E896F892AE0629FB00111245A
:102C600034E6839F600D711D1124888D680F711DDE
:102C700070688091B8079091B9070E94912C0E94CA
:102C80005B038090E8049090E9049DA68CA60E94C6
:102C9000861F60E081E00E94761F81EA91E00E9439
:102CA000C41F87E090E00E941B230E94861F309182
:102CB000DF0424E00C9466088091090187FD02C0BE
:102CC0000C949F0D0E9476263091DF0420E00C9436
:102CD000640829A1226029A320E00C946408809153
:102CE000E8049091E9040E94D90688A8882051F050
:102CF000159A0C94500D81E391E00E94C41F159A1F
:102D00000C94500D15980C94500D20E00C94640810
:102D10002E899F8948EE53E0849FB001859F700DF6
:102D2000112444E6249F600D711D11245AE0959FE3
:102D3000600D711D1124888D680F711D9ACF8091CF
:102D4000DE04833011F380910A0187FD20C086FFE5
:102D500018C081E0B9A0B826B9A220E00C9464089C
:102D600080910A0186FD03C029A12E7F29A38091AD
:102D7000090186FDCACF49A14D7F49A320E00C94EB
:102D8000640829A1216029A320E00C946408909193
:102D9000090197FFDCCF0E946A263091DF0420E012
:102DA0000C9464088091DE04823009F4AECF81E097
:102DB00088A8811080E088AB20E00C946408159A04
:102DC00060E080E00E94761F8BE391E00E94C41FC8
:102DD00061E080E00E94761F83E491E00E94C41FBE
:102DE00000E03091DF04323011F00C94210D2CE022
:102DF00074C0159A60E080E00E94761F8BE391E03A
:102E00000E94C41F61E080E00E94761F85E591E08A
:102E10000E94C41F01E00C941B0D3091DE0434307D
:102E200011F40C94FF0C0E9476263091DF0422E00E
:102E30000C9464083091DE04333011F40C94FF0CD0
:102E40000E946A263091DF0422E00C9464088CE32F
:102E500091E00E94C41F0C94EF0C8CE691E00E945C
:102E6000C41F0C94DF0C8EE591E00E94C41F0C94EB
:102E7000DF0C85E691E00E94C41F0C94DF0C2CE06F
:102E80000C946408159A60E080E00E94761F8BE342
:102E900091E00E94C41F61E080E00E94761F87EAF3
:102EA00093E00E94C41F0C941B0D04E021E00C94DD
:102EB000640800E021E00C94640880910B018038E4
:102EC00099F00111F7CF82E38093D20401E021E071
:102ED0000C946408313071F721E0043011F00C9447
:102EE000640803E00C94640802E021E00C94640898
:102EF00000E0159A11110C947C0C60E082E00E94B5
:102F0000761F8AEB91E00E94C41F61E080E00E947E
:102F1000761F8FE70E94951F8EEA91E00E94C41FE2
:102F20003091DF04323009F059C23091DE04323082
:102F300009F451C21092DC040E94861F3091DF0414
:102F400011E026E00C946A0800E0159A60E0112375
:102F500011F40C94680E80E00E94761F87ED91E0DA
:102F60000E94C41F8FA10E94C62260E085E00E94DB
:102F7000761F5FA1452F50E05CAF4BAF8091D80426
:102F80009091D904A091DA04B091DB040FA004C0A1
:102F9000B695A795979587950A94D2F780FDDAC6DE
:102FA0008091D4049091D504A091D604B091D70417
:102FB0000FA004C0B695A795979587950A94D2F768
:102FC00080FFC3C685ED91E00E94C41F3091DF04ED
:102FD000323009F4C4C608F49FC6333009F442C63F
:102FE000343009F03CC640910401509105018091B4
:102FF0000601909107014817590708F430C68091DF
:10300000D4049091D504A091D604B091D704AC011A
:10301000BD010BAC04C076956795579547950A940A
:10302000D2F740FFEDC5B701A6010BAC04C0440FB9
:10303000551F661F771F0A94D2F74A015B018094DF
:103040009094A094B09488219921AA21BB218093C7
:10305000D4049093D504A093D604B093D704809160
:10306000D8049091D904A091DA04B091DB04482BE4
:10307000592B6A2B7B2B4093D8045093D90460932F
:10308000DA047093DB04109205011092040125E02C
:103090000C946A0800E00C940D0E00E00C948F0E66
:1030A00000E00C94C70C00E00C943D0D00E00E9481
:1030B000861F3091DF0420E00C94640800E00C943B
:1030C000BC0D00E00C94E40D00E0159A112311F4FE
:1030D0000C94FB0E159A60E080E00E94761F113080
:1030E00009F481C5123009F471C5133009F459C5CA
:1030F000143009F441C52BEB822E27E0922E38E0E4
:10310000A32E35E0B32E11E060E087E00E94761F29
:10311000D4018C918F3F09F42BC5F501908198174C
:1031200008F024C583E00E94951F61E085E00E94BD
:10313000761FD5018C9190E00E945E203091DF04D3
:10314000323009F4CFC4333009F4B5C4313009F456
:103150009FC428E00C946A0800E00C94220F29E038
:103160000C94690825E00C94690825E00C94660825
:103170008FB7F8941092E6041092E5048FBF9090F8
:10318000E0049CAA8091EA0489838091EB048A83FD
:103190008FE08B8383E58E838091E8049091E9042E
:1031A0009F8388878091E00480FF3FC081E089870A
:1031B000AA24A3944A1499F182E0B82E4B1461F129
:1031C00039A9313061F16DA16A877CA17B878BA120
:1031D0008C879AA19D878091E0048E872AAF0E94F8
:1031E000E5238F874B81BE016F5F7F4F8AEC97E0AD
:1031F0000E94512B8AA09BA0ACA0BDA08DAA9EAA24
:10320000AFAAB8AE4BAA5AAA2AAD0C949F09BB2408
:10321000B39481E00C944C0852E059ABD4CF89852B
:103220008068898741E049ABCECF511002C0198632
:10323000BFCFE52DF0E0E450F94F80818F5F8987A3
:10324000B7CF0E94761F87E192E00E94C41F53E12E
:10325000652E51E0752E0C94830C0E94761F80E33E
:1032600092E00E94C41F20E1622E21E0722E0C9495
:10327000830C0E94761F89E292E00E94C41F31E114
:10328000632E31E0732E0C94830C0E94761F8FEF17
:1032900091E00E94C41FE5E16E2EE1E07E2E0C94C9
:1032A000830C0E94761F86EF91E00E94C41FF6E116
:1032B0006F2EF1E07F2E0C94830C0E94761F8FE01E
:1032C00092E00E94C41F64E1662E61E0762E0C94A9
:1032D000830C0E94761F88E092E00E94C41F77EE64
:1032E000672E74E0772E0C94830C0E94761F8DEE6F
:1032F00091E00E94C41FA8E06A2EA1E07A2E0C94EF
:10330000830C0E94761F84EE91E00E94C41FBBE0F4
:103310006B2EB1E07B2E0C94830C0E94761F8DEDFA
:1033200091E00E94C41F8CE0682E81E0782E0C94FE
:10333000830C0E94761F89ED91E00E94C41F9DE0DE
:10334000692E91E0792E0C94830C0E94761F81EDFA
:1033500091E00E94C41F2EE0622E21E0722E0C9498
:10336000830C0E94761F8BEC91E00E94C41F3FE00B
:10337000632E31E0732E0C94830C0E94761F86EC32
:1033800091E00E94C41F47E1642E41E0742E0C942A
:10339000830C0E94761F81EC91E00E94C41F58E1CB
:1033A000652E51E0752E0C94830C0E94761F8FE3DE
:1033B00092E00E94C41F89E0682E81E0782E0C9470
:1033C000530F8091090187FD02C00C945E0D0E948D
:1033D0004D260C94800D26E00C94690826E00C9490
:1033E000660820E00C948D10222351F086FF08C05F
:1033F0008CE1F30180830C94C00C26E00C946A08E5
:1034000080E8D3018C930C94C00C4091040150913E
:10341000050180910601909107014817590768F34B
:10342000D3018C9187FD2EC0982F9F719C31F8F4A9
:103430008F5FF30180830C94C00C3130F1F6309132
:10344000DE043130D1F28091DC048F5F8093DC04A4
:10345000823110F01092DC041092050110920401E8
:103460000E94861F3091DF0426E00C946A08982F92
:103470009074222351F086FD08C080E4D3018C9320
:103480000C94C00C1C920C94C00C945EF3019083BD
:103490000C94C00C3091DE04313011F40C94670CA4
:1034A0001F5F0E94861F85E08093B7073091DF047D
:1034B0002BE00C946A08B12C0C94C30AA8950E94C6
:1034C0009C298FB7F894909101019093E2048FBFEB
:1034D0002AAD0C94AD09159A60E080E00E94761F39
:1034E0008BE391E00E94C41F61E080E00E94761FA0
:1034F0008EE993E00E94C41F0C941B0D28E00C94ED
:10350000690828E00C946608159A60E080E00E9443
:10351000761F8DE593E00E94C41F61E080E00E9469
:10352000761F85E693E00E94C41F0C945B0C80918B
:10353000B7078823B1F1159A60E080E00E94761FFA
:1035400086E893E00E94C41F61E080E00E94761F3D
:103550008EE893E00E94C41F8091B707805D0E94AF
:10356000951F8EE70E94951F0C945B0C159A60E0E6
:1035700080E00E94761F8DE793E00E94C41F61E007
:1035800081E00E94761F8091BF070E942A208091CF
:10359000BE070E942A208091BD070E942A200C9419
:1035A0005B0C0E94861F60E080E00E94761F85E928
:1035B00093E00E94C41F0E947B05FFCF159A60E034
:1035C00080E00E94761F84E793E00E94C41F61E0C0
:1035D00080E00E94761F86E097E00E94C41F0C9452
:1035E0005B0C159A60E080E00E94761F8CE693E009
:1035F0000E94C41F61E081E00E94761F87E00E9464
:103600002A208BEC0E942A208FE90E942A200C9409
:103610005B0C23E00C9464088091DE048330C9F3D2
:103620006EA16F30B0F76F5F6EA323E0862E912CF2
:103630009FA68EA60C946408313059F7C5018058B6
:103640009109880F892F881F990B9195AA24A3941B
:10365000A80EAEA223E08A2C912C9FA68EA60C94D5
:1036600064083091DE043230A1F26EA180E190E076
:103670000E947B2C0E945B038091B8079091B90750
:1036800080589109880F892F881F990B9195AA243A
:10369000A394A80EAEA20E94861F60E080E00E9464
:1036A000761F8DE891E00E94C41F61E080E00E94D7
:1036B000761F68E0B62E81E090E00E941B238EE228
:1036C0000E94951FBA94B110F6CF83E090E00E945B
:1036D0001B233091DF042CE09EA0892C912C9FA607
:1036E0008EA60C946408159A60E080E00E94761F14
:1036F00089E293E00E94C41F61E080E00E94761F8F
:103700008BE50E94951F61E087E00E94761F8DE5A2
:103710000E94951F61E081E00E94761F8091EC0479
:1037200090E0069667E070E00E94FD2BB62E36E032
:10373000A32EBB2099F1BA948FEF0E94951FAA94F3
:10374000A110F7CF0C945B0C159A60E080E00E940A
:10375000761F8AEB92E00E94C41F61E080E00E9425
:10376000761F8FB7F8942091E3043091E4048FBF63
:10377000ADECBCEC0E941A2C969587959695879592
:10378000969587950E94492161E085E00E94761F09
:1037900085E293E00E94C41F0C945B0C80E20E94BF
:1037A000951FCDCF159A60E085E00E94761F5110DD
:1037B000A1C089E40E94951F60E080E00E94761F0E
:1037C0008091E00480FD91C08091D30483FD8BC083
:1037D00083E00E94951F8A2D843608F083E60E94BC
:1037E0009A2285E20E94951F60E087E00E94761F82
:1037F000E1E04E1609F460C04E1608F459C0F2E03C
:103800004F1203C082E50E94951F61E082E00E9492
:10381000761F8091D30482FD49C083E00E94951FEA
:1038200061E084E00E94761F8091D30481FD3CC05A
:1038300080E20E94951F61E085E00E94761F8091E2
:10384000D30480FD2FC080E20E94951F61E087E0D5
:103850000E94761F80910605813001F188F1823047
:10386000C9F0833019F48AE20E94951F61E080E07C
:103870000E94761F80910405813081F150F18230E1
:1038800019F1833011F00C945B0C8AE20E94951FB1
:103890000C945B0C82E40E94951FE8CF84E40E94A4
:1038A000951FE4CF82E0D0CF81E0C3CF84E0B6CFD4
:1038B0008EE40E94951FA9CF86E40E94951FA5CF94
:1038C0008DE20E94951FD2CF82E40E94951F0C9436
:1038D0005B0C8DE20E94951F0C945B0C84E40E94AB
:1038E000951F0C945B0C84E074CF81E391E00E94FF
:1038F000C41F7ACF80E3850D0E94951F5DCF159A76
:1039000060E080E00E94761F89E493E00E94C41F7B
:1039100061E081E00E94761F0E943928B82E89E27A
:10392000B89E812D112482958F7009F451C0805D5D
:103930000E94951F8DECB89EA12C1124A694A694EC
:10394000A694A89E812D11248695869586953A2D5C
:103950002AE0829F30191124832F805D0E94951FD9
:103960008EE20E94951F8B2D4AE0A49E801911249F
:10397000805D0E94951F82E593E00E94C41F0C9415
:103980005B0C159A60E080E00E94761F82E393E072
:103990000E94C41F61E080E00E94761F809119019F
:1039A0008F3F69F18A3008F18436B0F488E393E000
:1039B0000E94C41F809119010E949A2261E084E054
:1039C0000E94761F8BE393E00E94C41F0C945B0C53
:1039D00080E20E94951FAECF8DE20E94951F8091DC
:1039E000190190E00E94C820E9CF87E393E00E948C
:1039F000C41F80911901805D0E94951FDFCF61E097
:103A000080E00E94761F80E493E00E94C41F0C9423
:103A10005B0C159A60E080E00E94761F85E593E0DC
:103A20000E94C41F61E081E00E94761F0E94E5238E
:103A300090E062E370E00E94FD2BCB016AE070E051
:103A40000E94FD2B805D0E94951F8EE20E94951FB3
:103A50000E94E52390E065E070E00E94FD2BCB0121
:103A60006AE070E00E94FD2B805D0E94951F0E941D
:103A7000E52390E0880F991F6AE070E00E94FD2B1B
:103A8000805D0E94951F86E50E94951F0C945B0C3B
:103A90003091DE04313009F45CCB1F5F0E94861F39
:103AA0003091DF0428E00C946A082BE00C9469083C
:103AB0002BE00C9466088091DE04833009F449CB36
:103AC000B1EC8B16B7E09B0609F448C0F5E08F1601
:103AD000F7E09F06D9F1F5018081D4018C9328E0AD
:103AE0000C946A083091DE04323009F432CB6091D4
:103AF000BB0780E290E00E947B2C6091BA0781E2D4
:103B000090E00E947B2C6091C10782E290E00E94CD
:103B10007B2C6091050783E290E00E947B2C0E9441
:103B20005B030E94861F60E081E00E94761F81EAAD
:103B300091E00E94C41F87E090E00E941B230E9436
:103B4000861F3091DF0428E00C946608D5018C9123
:103B500085508093050728E00C946A08F501808160
:103B60008B5F8093C10728E00C946A0884E0DBCA6D
:103B70008DE20E94951FD9CA8BEC91E00E94C41F70
:103B800061E080E00E94761F82E892E00E94C41FFC
:103B900045E0842E47E0942E59E0A52E55E0B52E41
:103BA000B3CA8BEC91E00E94C41F61E080E00E94E8
:103BB000761F8EE792E00E94C41F61EC862E67E0BC
:103BC000962E79E0A72E75E0B72E9ECA8BEC91E079
:103BD0000E94C41FEAEB8E2EE7E09E2EF9E0AF2E86
:103BE000F5E0BF2E91CA81EC91E00E94C41FABEBBF
:103BF0008A2EA7E09A2EB8E0AB2EB5E0BB2E84CA81
:103C0000B701A6010BAC04C0440F551F661F771FF8
:103C10000A94D2F74095509560957095842395232A
:103C2000A623B7238093D4049093D504A093D604FD
:103C3000B093D7048091D8049091D904A091DA046C
:103C4000B091DB04482359236A237B234093D80493
:103C50005093D9046093DA047093DB0414CA25E00E
:103C60000C946A084091040150910501809106016D
:103C7000909107014817590790F34091D80450914B
:103C8000D9046091DA047091DB04DB01CA010BAC4A
:103C900004C0B695A795979587950A94D2F780FFAB
:103CA00098C08091D4049091D504A091D604B0918D
:103CB000D704460157010BAC04C0880C991CAA1C00
:103CC000BB1C0A94D2F721968CAE9DAEAEAEBFAEB1
:103CD000219780949094A094B094482159216A210E
:103CE0007B214093D8045093D9046093DA047093F5
:103CF000DB0421964CAD5DAD6EAD7FAD2197842B7D
:103D0000952BA62BB72B8093D4049093D504A09326
:103D1000D604B093D704B7C9313009F0A0CF3091A1
:103D2000DE04313009F49BCF9FA19F5F9FA39D319B
:103D300008F01FA210920501109204010E94861F34
:103D40003091DF0425E00C946A0886EB91E00E9434
:103D5000C41F3CC980EE91E00E94C41F37C9309156
:103D6000DE04323009F47BCF4091D8045091D9045D
:103D70006091DA047091DB048091B8079091B907E3
:103D800048960E94892C4091D4045091D5046091AA
:103D9000D6047091D7048091B8079091B9074C96DA
:103DA0000E94892C0E945B030E94861F60E081E0D4
:103DB0000E94761F81EA91E00E94C41F87E090E094
:103DC0000E941B230E94861F3091DF0425E00C9483
:103DD00066088091D4049091D504A091D604B09146
:103DE000D7044C015D010BAC04C0B694A794979422
:103DF00087940A94D2F78AA29BA2ACA2BDA280FCAF
:103E000058CF460157010BAC04C0880C991CAA1C62
:103E1000BB1C0A94D2F721968CAE9DAEAEAEBFAE5F
:103E2000219780949094A094B09488219921AA21FC
:103E3000BB218093D4049093D504A093D604B0936F
:103E4000D70421968CAD9DADAEADBFAD2197482B6B
:103E5000592B6A2B7B2B4093D8045093D904609341
:103E6000DA047093DB040FC9159A60E080E00E94C9
:103E7000761F8BE391E00E94C41F61E080E00E9406
:103E8000761F03E00C94170D662341F1429A439884
:103E900098B19F7098B998B1282F207F922B98B92C
:103EA000439A44E04A95F1F7439898B19F7098B9C6
:103EB00098B140E1849F90011124292B28B9439A9D
:103EC00094E09A95F1F74398611103C081508330D3
:103ED00038F09DED9A95F1F7000008954298D7CFFC
:103EE00089E995E10197F1F700C00895660F660F23
:103EF000660F860F8093ED040895662321F060E03D
:103F000080540C94441F80580C94441F60E081E05E
:103F10000E94441F1092ED04EEEEF4E080E28193E3
:103F200094E0EE3FF907D9F70895CF939091ED040F
:103F3000482F082E000C550BE92FF0E0E251FB4F03
:103F4000208130E042175307A1F0C82F692F6695F2
:103F500066956695892F87700E947D1F61E08C2F82
:103F60000E94441F9091ED04E92FF0E0E251FB4FD5
:103F7000C0839F5F903120F01092ED04CF9108959F
:103F80009093ED04CF910895CF93DF93EC012196A8
:103F9000FC018081882329F00E94951F899181115D
:103FA000FBCFDF91CF910895CF93C82F97B19C6F2E
:103FB00097B942982FEF8FE593E0215080409040D1
:103FC000E1F700C00000439898B19F7098B998B18C
:103FD000906398B9439A24E02A95F1F743988FEFBC
:103FE00095E30197F1F700C00000439A94E09A9599
:103FF000F1F7439881EF91E00197F1F700C0439A00
:1040000094E09A95F1F7439881EF91E00197F1F7E9
:1040100000C098B19F7098B9459A439A94E09A95D8
:10402000F1F7439881EF91E00197F1F700C060E06C
:1040300088E20E94441F60E088E00E94441F0E94C2
:10404000861F60E086E00E94441F60E08C2FCF91C5
:104050000C94441F1F93CF93DF93CDB7DEB76097C7
:104060000FB6F894DEBF0FBECDBF182F80E1E1E29E
:10407000F1E0DE01119601900D928A95E1F7812F12
:1040800082958F70E1E0F0E0EC0FFD1FE80FF11D6D
:1040900080810E94951F1F70E1E0F0E0EC0FFD1F92
:1040A000E10FF11D808160960FB6F894DEBF0FBE60
:1040B000CDBFDF91CF911F910C94951F0F931F934C
:1040C000CF93DF938C019C013695279536952795E4
:1040D000ABE7B4E10E941A2CFC01F695E7959F012D
:1040E000ADECBCEC0E941A2CAC0156954795569548
:1040F000479556954795CA01880F991F440F551F3C
:10410000440F551F440F551F480F591FCF01841BE3
:10411000950B805D0E94951F9801ADECBCEC0E9450
:104120001A2CEC01D695C795D695C795D695C79507
:104130009E010E941A2CAC015695479556954795BD
:1041400056954795CA01880F991F440F551F440F74
:10415000551F440F551F480F591FCE01841B950B47
:10416000805D0E94951FCE01880F991FCC0FDD1F27
:10417000CC0FDD1FCC0FDD1FC80FD91FC8018C1B52
:104180009D0B805DDF91CF911F910F910C94951F36
:10419000CF93DF93EC018436910508F46FC09C0146
:1041A0003695279536952795ABE7B4E10E941A2CF2
:1041B000FC01F695E7959F01ADECBCEC0E941A2C32
:1041C000AC01569547955695479556954795CA0122
:1041D000880F991F440F551F440F551F440F551F3B
:1041E000480F591FCF01841B950B805D0E94951FBE
:1041F0009E01ADECBCEC0E941A2CFC01F695E795F3
:10420000F695E795F695E7959F010E941A2CAC016B
:10421000569547955695479556954795CA01880FE7
:10422000991F440F551F440F551F440F551F480F2A
:10423000591FCF01841B950B805D0E94951F9E0125
:10424000ADECBCEC0E941A2C9695879596958795B7
:10425000969587959C01220F331F880F991F880F11
:10426000991F880F991F820F931F9E01281B390BDE
:10427000C901805DDF91CF910C94951F80E20E946F
:10428000951FCA30D10508F0B3CF80E20E94951F78
:10429000D6CFCF93DF93EC01883E23E0920708F45A
:1042A0009EC09C013695279536952795369527957E
:1042B000A5ECB0E20E941A2CFC01F295E295EF7099
:1042C000EF27FF70EF279F01ADECBCEC0E941A2C8A
:1042D000AC01569547955695479556954795CA0111
:1042E000880F991F440F551F440F551F440F551F2A
:1042F000480F591FCF01841B950B805D0E94951FAD
:104300009E013695279536952795ABE7B4E10E9437
:104310001A2CFC01F695E7959F01ADECBCEC0E94D0
:104320001A2CAC0156954795569547955695479545
:10433000CA01880F991F440F551F440F551F440F82
:10434000551F480F591FCF01841B950B805D0E949C
:10435000951F9E01ADECBCEC0E941A2CFC01F69559
:10436000E795F695E795F695E7959F010E941A2C3B
:10437000AC01569547955695479556954795CA0170
:10438000880F991F440F551F440F551F440F551F89
:10439000480F591FCF01841B950B805D0E94951F0C
:1043A0009E01ADECBCEC0E941A2C969587959695D3
:1043B0008795969587959C01220F331F880F991F2B
:1043C000880F991F880F991F820F931F9E01281B2A
:1043D000390BC901805DDF91CF910C94951F80E26C
:1043E0000E94951FC436D10508F08ACF80E20E9452
:1043F000951FCA30D10508F0ACCF80E20E94951F0E
:10440000CFCF0F931F93CF93DF938C019C013695F1
:1044100027953695279536952795A5ECB0E20E940D
:104420001A2CFC01F295E295EF70EF27FF70EF2751
:104430009F01ADECBCEC0E941A2CAC01569547953F
:104440005695479556954795CA01880F991F440F71
:10445000551F440F551F440F551F480F591FCF01BB
:10446000841B950B805D0E94951F980136952795BA
:1044700036952795ABE7B4E10E941A2CFC01F6951E
:10448000E7959F01ADECBCEC0E941A2CAC0156954F
:1044900047955695479556954795CA01880F991F98
:1044A000440F551F440F551F440F551F480F591FE8
:1044B000CF01841B950B805D0E94951F9801ADEC88
:1044C000BCEC0E941A2CEC01D695C795D695C795E1
:1044D000D695C7959E010E941A2C9695879596951C
:1044E0008795969587959C01220F331F880F991FFA
:1044F000880F991F880F991F820F931F9E01281BF9
:10450000390BC901805D0E94951FCE01880F991F4C
:10451000CC0FDD1FCC0FDD1FCC0FDD1FC80FD91F47
:10452000C8018C1B9D0B805DDF91CF911F910F9176
:104530000C94951FCF93C82F8A3098F480E20E9484
:10454000951F8DECC89F812D1124869586958695A3
:104550009AE0899FC01911248C2F805DCF910C9413
:10456000951F9DEC899F812D1124869586958695B2
:10457000899F912D11249695969596952AE0929F64
:1045800080191124805D0E94951FDBCFCF93DF93AC
:10459000D82F9DEC899FC12D1124C695C695C6952F
:1045A000C99F912D11249695969596958C2F2AE06A
:1045B000929F80191124805D0E94951F8D2F9AE093
:1045C000C99F80191124805DDF91CF910C94951FB4
:1045D000CF92DF92EF92FF921F93CF93DF931F92C0
:1045E000CDB7DEB7F62E880F880F880F10E4180FAE
:1045F00060E0812F79830E94441FCF2C7981D72ED0
:10460000760188E0E80EF11C60E0812F0E94441FD3
:1046100061E0F60181916F010E94441F1F5FCE147B
:10462000DF0491F70F90DF91CF911F91FF90EF90F2
:10463000DF90CF900895009789F020E030E0A895B2
:104640004FEF5FE563E0415050406040E1F700C04C
:1046500000002F5F3F4F2817390789F708956AE454
:1046600074E081E00E94E82262E474E082E00C944D
:10467000E8226AE374E083E00E94E82262E374E0E7
:1046800084E00C94E822CF930E94861F6AE274E0D3
:1046900080E00E94E82262E274E081E00E94E82269
:1046A0006AE174E082E00E94E82262E174E083E063
:1046B0000E94E8226AE074E084E00E94E8226AEF47
:1046C00073E085E00E94E82262EE73E086E00E94DB
:1046D000E8226AEC73E087E00E94E82260E080E074
:1046E0000E94761FC0E08C2F0E94951FCF5FC830BC
:1046F000D1F761E080E00E94761F89EB93E00E9491
:10470000C41F88E090E00E941B2362EF73E085E005
:104710000E94E8226AED73E086E00E94E82262ECE3
:1047200073E087E00E94E82284E090E00E941B236F
:1047300062E074E084E00E94E8226AEE73E085E0C3
:104740000E94E82262ED73E086E00E94E8228FE09A
:1047500090E0CF910C941B238CE00E94D41F159AFB
:104760000E9443230E94861F0E94CE230E94392369
:104770000E941B260C94812680E681B912B889E03C
:1047800084B985B1806F85B985B1866085B98FEFB1
:1047900087B918B880EF8AB91BB8089580911C01B9
:1047A000813071F040F0823029F462E674E080E0FC
:1047B0000C94E822089562E574E080E00C94E8220D
:1047C0006AE574E080E00C94E82280910C0508957D
:1047D00090911C0180911B01981731F00E94CE230B
:1047E00080911C0180931B0160E080E00E94761F95
:1047F00080E00C94951F8091FF04E1E0E80FE093C6
:10480000FF048E2F90E0FC013197E431F10530F484
:10481000EA55FF4F0C94112C1092FF0408958091DB
:10482000C307853051F1873009F18111F7CF5E98C8
:104830005F9808958091C3078430F9F020F18630A5
:10484000A9F0C8F08730A9F008958091C307863099
:10485000B8F4843080F4813071F0823051F00895E2
:104860008091C307843049F0863049F45E9A0895F8
:104870005F985E9808955F9808955F9A08950895E7
:104880008830B8F308958130C1F3823079F3089508
:104890001DBAE9E6F0E08081856080835C9A8CEC4B
:1048A0009AE00197F1F700C0000089B18C7090E0A8
:1048B00095958795959587958093C20783E08DBBE5
:1048C00008951DBA5C9808951F920F920FB60F922B
:1048D00011240BB60F922F933F934F935F938F93B7
:1048E0009F93EF93FF93CF93DF93CDB7DEB72897D6
:1048F000DEBFCDBF89B18C7090E095958795959579
:10490000879531E03D8343E04E831F8252E0588714
:1049100059831A824B833C833091C2078317A1F0DD
:104920003091C2073370FE01E30FF11D3581381756
:1049300021F13091C2073370FE01E30FF11D318187
:10494000381729F110920B058093C20728960FB6ED
:10495000F894DEBF0FBECDBFDF91CF91FF91EF91F5
:104960009F918F915F914F913F912F910F900BBE2F
:104970000F900FBE0F901F90189520910B052223CA
:1049800019F320910B05215020930B05DDCF2091C9
:104990000B052830C8F620910B052F5F20930B05DF
:1049A000D3CFE4E6F0E080818E7F80838FE8809330
:1049B0007E0080E480937C00EAE7F0E086E3808379
:1049C00010927B0080818865808310920305089592
:1049D0001F920F920FB60F9211242F933F938F9334
:1049E0009F938091780090917900209101053091FA
:1049F0000205820F931F9093020580930105809119
:104A000000058F5F8093000580910005803428F0B9
:104A100080917A008F7780937A009F918F913F9158
:104A20002F910F900FBE0F901F90189580917A00D4
:104A300087FD07C0E091FE048E2F90E08D30910538
:104A400008F00895FC01E654FF4F0C94112C80915E
:104A50000105909102050024880F991F001C880F02
:104A6000991F001C892F902D9093020580930105BA
:104A70008091010590910205AC01440F551F440F30
:104A8000551F480F591F9A01A3E4B8E00E941A2C41
:104A9000481B590B56954795840F951F9295829503
:104AA0008F7089279F70892780930C058E3608F0B8
:104AB0009CC0843608F4ADC081E080931C018CE07A
:104AC0008093FE04089587E480937C0080937C00AB
:104AD00010920205109201051092000580917A0053
:104AE000806C80937A008091FE048F5F8093FE0437
:104AF0000895809101059091020590930505913AE2
:104B000008F070C0913608F47EC081E080930405FF
:104B10008AE08093FE0408955D9A82E4D7CF809165
:104B200001059091020590930705913A08F057C04E
:104B3000913608F462C081E08093060588E0809396
:104B4000FE0408955D9A83E4C1CF809101059091A0
:104B50000205892F80958093080586E08093FE04E6
:104B60000895419A84E4B2CF8091010590910205A5
:104B70009093090584E08093FE040895419A81E4AE
:104B8000A5CF8091010590910205892F99279093D7
:104B90000205809301058091010590910205C0975F
:104BA000D0F080910105909102058037910508F5BC
:104BB00010920A0582E08093FE040895409A80E4F2
:104BC00085CF809103058F3F19F08F5F8093030598
:104BD0001092FE04089582E080930A05EBCF1092B4
:104BE0000605ACCF1092040593CF82E080931C01A0
:104BF00066CF81E080930A05DDCF913268F082E0D4
:104C0000809306059BCF913258F082E08093040593
:104C10007FCF10921C0153CF83E0809306058ECF87
:104C200083E08093040574CF81E090910305913275
:104C300008F480E0089580910E05813021F1C8F0DC
:104C4000823019F0833059F0089562E774E085E00E
:104C50000E94E8226AE674E086E00C94E8226AE6A4
:104C600074E085E00E94E8226AE674E086E00C9435
:104C7000E8226AE774E085E00E94E8226AE874E0CE
:104C800086E00C94E8226AE774E085E00E94E8225E
:104C900062E874E086E00C94E82290910D05809122
:104CA0000E05981731F00E941B2680910E05809307
:104CB0000D0560E087E00E94761F85E00E94951F49
:104CC00061E087E00E94761F86E00C94951F80913A
:104CD0000E05089580910E05833020F48F5F809338
:104CE0000E05089583E080930E05089580910E05CA
:104CF0008150833018F480930E05089510920E05AC
:104D0000089568EA74E081E00E94E82260EA74E0B5
:104D100082E00C94E822FC01808170E0680F711D34
:104D200091816C3371055CF09F5F01C0922F6C53D1
:104D3000710921E0290F6C337105C0F791836083FD
:104D400022819C3350F02F5F01C0232F9C5331E010
:104D5000320F9C33D0F722839183283158F08BEAAD
:104D6000289F812D112482958F7098E1899F2019A9
:104D7000112422830895EF92FF920F931F93CF93F4
:104D8000DF9300D000D000D0CDB7DEB7FC01218189
:104D90003DEC239F912D11249695969596954AE08A
:104DA000949F20191124205D2D83939F212D112480
:104DB0002695269526958AE0289F90191124905DC6
:104DC0009C838AE38B83662359F02281211140C0A2
:104DD00081E3898382E38A8381E08E8389811BC09A
:104DE0009281939F812D11248695869586954AE020
:104DF000849F90191124905D9A83839F312D1124F3
:104E00003695369536959AE0399F80191124805D44
:104E1000898390E29E838E010E5F1F4F7E0127E003
:104E2000E20EF11C03C0F80181918F010E94951FD1
:104E30000E151F05C1F726960FB6F894DEBF0FBEFC
:104E4000CDBFDF91CF911F910F91FF90EF9008950B
:104E50002D3050F5922F8DEC989F312D11243695E1
:104E600036953695389F812D1124869586958695A1
:104E7000EAE08E9F30191124832F3323C1F0805D27
:104E800089833DEC939F312D1124369536953695C7
:104E9000FAE03F9F90191124905D9A832C3008F41A
:104EA0009BCF92E09E83B7CF94EF920FD4CF80E256
:104EB000E7CF80910F05882391F060912305862F1D
:104EC0008370833081F060FD05C064708BE195E0F4
:104ED0000C94BB26687083E195E00C94BB2682E9B4
:104EE00094E00C94C41F89E994E00C94C41F809151
:104EF0000F05882319F0815080930F0580912305B9
:104F00008370813009F0089540911E0150911F0176
:104F1000E0911105F09112059A01ADECBCEC0E94F4
:104F20001A2C969587959695879596958795E80F6F
:104F3000F91FF0931205E093110520911005BC01B3
:104F4000660F771F880F991F880F991F880F991F69
:104F5000860F971F481B590B420F409310058091F5
:104F600010058B3080F28091110590911205019609
:104F70009093120580931105809110058A508093BB
:104F8000100508958091230580FF08C081FD06C0AB
:104F900080911105909112050A9708F408954FB772
:104FA000F8942091110530911205ADECBCEC0E94F3
:104FB0001A2C969587959695879596958795209125
:104FC0001105309112055AE0859F201931091124ED
:104FD00030931205209311054FBF682F83E195E0B0
:104FE0000C948B26FC01868180931D05878180931C
:104FF0001C05808580931B05818580932305828114
:105000008E30A0F0828580931505838580931405EA
:10501000848580931305858590E0982F88272685C1
:10502000820F911D90931F0180931E011092120513
:10503000109211051092100580911D0180930F05AB
:1050400008958A3038F08F3F49F08B3F58F48093B1
:105050001D0108958AE080931D01089584E68093E0
:105060001D0108958AEF80931D01089580911D010F
:10507000089580911E0190911F0108951F920F9233
:105080000FB60F9211240BB60F922F933F934F93AD
:105090005F936F937F938F939F93AF93BF93EF93A0
:1050A000FF938091C000887191F08091C600809339
:1050B000680510926805109225058091C6008D370D
:1050C00009F45CC08E3709F059C082E06DC0809150
:1050D000C6008D3709F47FC08E3709F462C0909105
:1050E000250591FF4BC090FF05C020E282279E7FDF
:1050F00090932505909168059F3308F074C0E09166
:10510000680591E09E0F90936805F0E0E759FA4F2B
:10511000808380916805843009F474C080916805AB
:10512000853060F12091680580912405281326C000
:1051300083E080936805809168058217A0F490E071
:10514000E0916805F0E0E759FA4F8081980F80916F
:1051500068058F5F8093680580916805821780F3EA
:105160009F3F09F455C0E9E6F5E080E4DF011D92B8
:105170008A95E9F71092680510922505FF91EF9145
:10518000BF91AF919F918F917F916F915F914F915F
:105190003F912F910F900BBE0F900FBE0F901F905D
:1051A00018958091250582601092680590E4E9E6E3
:1051B000F5E0DF011D929A95E9F780932505E091CE
:1051C000680581E08E0F80936805F0E0E759FA4F9B
:1051D0008EE78083D3CF8091250581FFCFCF81607B
:1051E00080932505CBCF809125058D7F8093250564
:1051F0001092680580E4E9E6F5E0DF011D928A95EA
:10520000E9F7BCCF80916B058C5F8093240586CF36
:1052100088E08093680580916C05803849F1813879
:1052200009F0A1CFE0916805F0E0E959FA4F20813B
:10523000E0916805F0E0E759FA4F82818431E0F4AB
:10524000E0916805F0E0E759FA4F42816091680506
:1052500070E067597A4F84EC97E00E94492BE09107
:105260006805F0E0E959FA4F8081809320017BCFF7
:105270008EE080936805D6CF44E1E8CF1F920F926D
:105280000FB60F9211240BB60F928F939F93EF934B
:10529000FF93E091270581E08E0F80932705F0E0D2
:1052A000E85DFA4F80818093C60090912705809138
:1052B0002605981720F480912705803438F08091D6
:1052C000C1008F7D8093C10010922705FF91EF915F
:1052D0009F918F910F900BBE0F900FBE0F901F905C
:1052E00018958FEF80932001569A5E988AB18C7F33
:1052F0008AB91092680580E4E9E6F5E0DF01982FAD
:105300001D929A95E9F710922705E8E2F5E0DF0192
:105310001D928A95E9F785E090E09093C50080930F
:10532000C4001092C000E1ECF0E0108286E08093AF
:10533000C20088E980830895AF92BF92CF92DF9236
:10534000EF92FF920F931F93CF93DF93CDB7DEB70A
:105350006E970FB6F894DEBF0FBECDBF8AEC97E014
:105360000E94412BE82E882349F08091C100282F0C
:105370002072E22E85FF14C0EE24E3948E2D6E96EB
:105380000FB6F894DEBF0FBECDBFDF91CF911F9156
:105390000F91FF90EF90DF90CF90BF90AF90089566
:1053A0008E010F5F1F4F8EE1D8011D928A95E9F79C
:1053B0008EE7898381E08C838FEF8E838F8321E05A
:1053C00046E1BE01675F7F4F8AEC97E00E94CB2BDE
:1053D000AB8485E08A0D8B83B4E0BA1508F092C0E7
:1053E000FE0139966F018DEFB82EBA0C9DEFF92EA4
:1053F00080E090E0F1E0FF1520F4D6016C910E946E
:10540000872AF394BFEFCB1ADB0AFB10F3CF8C870C
:105410009D874A2D50E0BA01695F7F4F23E030E05D
:1054200090E083E0F801E20FF31F2081920F8F5F7D
:10543000282F30E062177307ACF7485F5F4FF80121
:10544000E40FF51F909590831092260580E4E8E222
:10545000F5E0DF011D928A95E9F7E091260581E0EC
:105460008E0F80932605F0E0E85DFA4F8EE780838B
:1054700021E030E081E07DE760E212C09131D9F0B7
:10548000E091260521E02E0F20932605F0E0E85D4F
:10549000FA4F90838F5F282F30E04217530734F183
:1054A000F801E20FF31F9081933129F038F323E8DC
:1054B000290F223028F7E091260521E02E0F2093B6
:1054C0002605F0E0E85DFA4F7083E091260521E0C3
:1054D0002E0F20932605F0E09627E85DFA4F908383
:1054E0008F5F282F30E042175307D4F6109227051C
:1054F0008AEC97E00E94D42B8091C1008062809357
:10550000C1003CCF8AEC97E00E94D42B37CF41E01A
:10551000413021F1292F22959295907F582F529555
:10552000507F26272F7030E0F901E054FB4F829521
:105530008F70982B80819827F901E055FB4F80816F
:105540008527423011F04F5FE3CF292F30E0322F13
:105550002227A901480F511DCA010895E92FE62706
:10556000392F3295307F582F5295507FE295EF704A
:10557000F0E0DF01A054BB4F82958F70832B9C918C
:105580009827E055FB4F808185274F5FC1CFFC01F5
:105590002FB7F89490818181981B892F65810E9493
:1055A000F12B892F2FBF0895CF92DF92EF92FF92B8
:1055B0000F931F93CF93DF931F92CDB7DEB76C018C
:1055C000453108F044E1D6018C911396ED90FC90A2
:1055D0001497B5E18B9FE00CF11C1124042F10E00F
:1055E000A801C70129830E943D2C44E150E0401BE3
:1055F000510B60E070E0C701800F911F0E94462CA4
:10560000F60180810380F481E02D95E1899FE00D12
:10561000F11D11242981248BD6018C918F5F8C93ED
:1056200015969C911597891708F01C928FB7F894DE
:10563000F60120819181291302C091E092838FBFEE
:1056400081E00F90DF91CF911F910F91FF90EF902C
:10565000DF90CF900895CF93FC01CB01CFB7F894A2
:1056600074836383458311821082128225E1429FF5
:10567000A001112460E070E00E94462CCFBFCF91C2
:105680000895FC012281222311F0858108950C9454
:10569000C72AFC013281332311F080E008950C9475
:1056A000D42AFC012281222311F080E008950C9479
:1056B000D42AAF92BF92CF92DF92EF92FF920F93D4
:1056C0001F93CF93DF93EC016B01B42EA22EE42E37
:1056D000F12CA70160E070E0C6010E94462C011584
:1056E000110511F0F80110828A81882309F44FC056
:1056F0008D818823A1F1EB81FC818981DF0195E116
:10570000899FA00DB11D112412968C91B81690F5A9
:105710008981BF0195E1899F600D711D1124A70149
:10572000C6010E943D2C0115110559F08981EB81BC
:10573000FC8195E1899FE00DF11D11248489F80118
:105740008083A11022C08FB7F89499819F5F9983BD
:105750002D81921708F019821A828FBF81E0DF91A4
:10576000CF911F910F91FF90EF90DF90CF90BF905E
:10577000AF9008958981DF0195E1899FA00DB11D4A
:1057800011241296EC90F12CC3CF81E0E8CFCE012A
:105790000E94C72AAECF0F931F9300E010E00E9433
:1057A000592B1F910F910895CF93DF93EC018A81BC
:1057B000882399F08D81882359F08FB7F8949981C7
:1057C0009F5F99832D81921730F41A828FBF81E0F9
:1057D000DF91CF9108951982F8CFCE010E94C72A98
:1057E000EACF991B79E004C0991F961708F0961B21
:1057F000881F7A95C9F78095089597FB072E16F4B0
:10580000009407D077FD09D00E94292C07FC05D011
:105810003EF4909581959F4F0895709561957F4FC7
:105820000895EE0FFF1F0024001C0BBE0790F69199
:10583000E02D0994A29FB001B39FC001A39F700DFA
:10584000811D1124911DB29F700D811D1124911D88
:105850000895AA1BBB1B51E107C0AA1FBB1FA617B7
:10586000B70710F0A61BB70B881F991F5A95A9F709
:1058700080959095BC01CD010895FB01DC0102C02B
:1058800001900D9241505040D8F70895DC0101C0BD
:105890006D9341505040E0F70895DC01CB01FC01CD
:1058A000F999FECF06C0F2BDE1BDF89A319600B479
:1058B0000D9241505040B8F70895F999FECF92BD2E
:1058C00081BDF89A992780B50895A6E1B0E044E03B
:1058D00050E00C944F2CA8E1B0E042E050E00C9472
:1058E0004F2CDC01CB0103C02D910E947C2C415038
:1058F0005040D0F70895262FF999FECF1FBA92BDD8
:1059000081BD20BD0FB6F894FA9AF99A0FBE0196A0
:105910000895242F0E947C2C252F0E947C2C0C940F
:10592000912C0E947B2C272F0C947C2CF894FFCF79
:10593000FF0F0A00320032000980808008808080DA
:10594000060580060380030702FF050202960A008F
:10595000FF303132333435363738394142434445EC
:1059600046454D524700524556210020454E474975
:105970004E45002020204F46462020002020204F6A
:105980004E202020005354415254494E47004C4968
:1059900047485420004C4F57202020004D45444993
:1059A000554D0048454156592000574549474854F0
:1059B000004C4F414420434E46003A20004C4F419A
:1059C00044494E4700534554002D20204C4F434F2F
:1059D0000053415645442100464F524345002D2077
:1059E0002046554E43002D2D2D00434F4E4649472E
:1059F00000484F524E0042454C4C004252414B45EC
:105A00000042524B204F46460041555800454E47F4
:105A1000204F4E00454E472053544F50005448529B
:105A200020554E4C4B00462E44494D202331004614
:105A30002E44494D20233200462E4845414400461D
:105A40002E444954434800522E44494D20233100EE
:105A5000522E44494D20233200522E4845414400E5
:105A6000522E44495443480055502042544E00445D
:105A70004F574E2042544E002D2D20202020200034
:105A80004C4154004D4F4D004E4F544348002D2083
:105A90002020434647004E4F54434820005448526C
:105AA00053484F4C44002D20202043414C004C4F84
:105AB00057004849474800434F4D4D005448525401
:105AC0004C2049440042415345204144520054492E
:105AD0004D452041445200424153450020414C4C29
