:100000000C94C7000C94EB230C94EB230C94E600A7
:100010000C94E6000C9447020C94E6000C94E60065
:100020000C94E6000C94E6000C94E6000C94E600B8
:100030000C94E6000C94E6000C94E6000C94E600A8
:100040000C94BA020C94E6000C94E6000C94E600C2
:100050000C94C5270C94C5280C94E6000C94E6007B
:100060000C946F240C94E6000C94E6000C94E600CB
:100070000C94E6000C94E6000C94E6000C94E60068
:100080000C94E6000C94E6000C94E6009B0D921490
:10009000340D5B0E050EAE0EE60CAC0C560C810C4E
:1000A0002D0CDF0BFA0D9B0D670D340D5B0E050E4D
:1000B000AE0EE60CAC0C560C810C2D0CDF0BFA0DC1
:1000C0009B0D2C1B340D5B0E050EAE0EE60CAC0C1E
:1000D000560C810C2D0CDF0BFA0D9A0DA91B330D5C
:1000E0005A0E040EAD0EE50CAB0C550C800C2C0C0E
:1000F000DE0BF90D5518FC1452184F184C18A617A2
:100100007A173217EA16A316A016741658189B0D04
:10011000E00E340D5B0E050EAE0EE60CAC0C560C6C
:10012000810C2D0CDF0BFA0D98108D1082107710BA
:100130006C10611056104B10401035102A101F1013
:1001400014100910FE0FE50FF80EA3109623A1233B
:100150009623AC239523B7239523AC239523BF2364
:1001600095239523952395239523952395239523CF
:10017000952393236525482545253B2538252C25A2
:100180002925162513250025EA24AE2468251124E7
:100190001FBECFEFD0E4DEBFCDBF14E0A0E0B1E0E2
:1001A000EEE3F8E500E00BBF02C007900D92AA3C19
:1001B000B107D9F727E0AAECB4E001C01D92AA3C30
:1001C000B207E1F70E94DD060C941D2C0C94000090
:1001D00068279091CA042091CB04292726232093D5
:1001E000CB04909596239093CA046095622B962B2E
:1001F0009095892708950F931F93CF93DF93CDB7E1
:10020000DEB7A9970FB6F894DEBF0FBECDBF8E0143
:10021000075D1F4F20E044E1BE016B5E7F4F8EEB18
:1002200097E00E94E02A882379F08E899091E40477
:10023000891709F490C09091E504891729F08D89F8
:100240008F3F69F0981759F0A9960FB6F894DEBF62
:100250000FBECDBFDF91CF911F910F9108950F89F0
:10026000002309F480C010E020E030E09DEF910F02
:10027000923060F0E5E1F0E0EC0FFD1FE10FF11DC1
:100280006081C9010E940E2A9C010F891F5F10170F
:1002900068F3832F90E0498D50E048175907A1F685
:1002A0003327888D90E02817390771F68A8D8134BD
:1002B00009F499C0873509F475C0823509F4C9C0BD
:1002C000863509F4A2C0883509F45EC0843509F486
:1002D0004FC08F7D863509F0B7CF9E898091E404A9
:1002E0009813B2CF89A5809319018C8D90E0A0E07E
:1002F000B0E0DC01992788272E8DAC01BD01422B8F
:100300002D8D30E0922F8827A0E0B0E0842B952B34
:10031000A62BB72B8093B7079093B807A093B90784
:10032000B093BA0748E050E060E270E080E097E008
:100330000E94CD2B10920807402F50E0043108F0A6
:10034000A0C04C505109BE016F5D7F4F80E097E027
:100350000E94C42B79CF92E39093E6049091E50438
:1003600089136DCF71CF80E090E020E030E093CF33
:10037000809100018F3F19F09E89891365CFCE01CE
:1003800045960E94792760CFF894A89584B7877F17
:1003900084BF8091600088618093600088E08093D2
:1003A0006000FFCF8E89898388E08B8387E78E8307
:1003B0008B8D6C8D90E00E94022C8B8D8F839C8D99
:1003C0009887811161C080E090E00E94E42B8093C7
:1003D000E5048A834B81BE016F5F7F4F84EC97E019
:1003E0000E94D82A31CF8E8989838091E5048A833F
:1003F00086E08B8381E68E8346E0BE016F5F7F4F90
:1004000084EC97E00E94D82A1FCF8E89898380913F
:10041000E5048A838FE08B8386E78E8380E88F8371
:100420008DEA888787E189878CE68A8781E08B87D8
:1004300082E08C8783E48D8783E58E8784E58F87D0
:100440004FE0BE016F5F7F4F84EC97E00E94D82A97
:10045000FBCE8E8989838091E5048A8388E08B8333
:1004600082E78E838B8D8F8390E00E94E42B8887B8
:1004700048E0BE016F5F7F4F84EC97E00E94D82A6E
:10048000E3CE48E050E05FCF8091E504A2CF1F9219
:100490000F920FB60F9211240F900FBE0F901F9066
:1004A000189585FD16C081E08093D9049091D804F9
:1004B0009817C1F082E390E09093070180930601C2
:1004C00080910601909107019093050180930401AA
:1004D000089584FD20C082E08093D9049091D804CF
:1004E0009813E8CF8091D704853608F180910601F2
:1004F000909107010A97F8F4809106019091070105
:10050000059730F485E090E0909307018093060111
:100510001092D704089586FF06C087FD16C084E0B8
:100520008093D904C3CF83E08093D904BFCF8F5F7A
:100530008093D704089580910601909107010A974E
:100540009093070180930601D7CF1092D904B2CFC0
:100550009091CD0482FF07C09B7F81FD07C0926010
:100560009093CD040895946081FFF9CF9D7F90937F
:10057000CD0408951F920F920FB60F9211240BB65F
:100580000F922F933F934F935F936F937F938F932C
:100590009F93AF93BF93EF93FF938091DB048160B0
:1005A0008093DB048091B6078F5F8093B6078A3013
:1005B00008F440C01092B6078091DF049091E004E7
:1005C00001969093E0048093DF048091E6048823F1
:1005D00029F08091E60481508093E6048091DD0447
:1005E0009091DE04892B49F08091DD049091DE0426
:1005F00001979093DE048093DD040E948223809112
:10060000CC04882319F081508093CC048091A305F9
:100610008F5F8093A3052091A30580911A0130E09C
:1006200090E0880F991F880F991F2817390794F5B4
:100630000E94FE268091DC04882329F08091DC044E
:1006400081508093DC042091040130910501809158
:100650000601909107012817390748F48091040199
:100660009091050101969093050180930401FF91FB
:10067000EF91BF91AF919F918F917F916F915F911A
:100680004F913F912F910F900BBE0F900FBE0F9087
:100690001F9018951092A305CBCFCF93DF9383E0E3
:1006A00090E00E94E42BC82F82E090E00E94E42BAF
:1006B0002C2F30E0A901582B4A30510508F465C1B0
:1006C0004536510508F0D9C150930301409302010A
:1006D0008DE190E00E94E42B8F3008F44DC18093AF
:1006E000010181E190E00E94E42B90E0009709F481
:1006F00033C18F3F910509F4E0C18436910508F0BC
:10070000BFC148E552E0849F9001859F300D949FC2
:10071000300D11243093F6062093F50682E190E027
:100720000E94E42BC82F0E94A8278C1729F0682F5D
:1007300082E190E00E94022C8EE190E00E94E42B86
:100740008093000183E190E00E94E42B8093A40554
:1007500080E090E00E94E42B803308F441C18A34A9
:1007600008F082C18093E5048FE190E00E94E42BC1
:10077000803D08F42CC1803F08F06DC18093E404F3
:1007800080E190E00E94E42BC82FD0E0CE010197D9
:100790000F9708F00CC1DD27D695DC2FCC27D79515
:1007A000C795D093B307C093B207CE010E94F22B36
:1007B0009093E3048093E20497FD1BC1803197423C
:1007C00008F039C1CE0102960E94E42B80931801F3
:1007D000CE0103960E94E42B80931701CE01089668
:1007E0000E94E42B80931601CE0109960E94E42B0F
:1007F00080931501CE010A960E94E42B8093E104B8
:10080000CE010B960E94E42B80931401CE010C962E
:100810000E94E42B80931301CE010D960E94E42BDD
:1008200080931201CE010E960E94E42B8093110159
:10083000CE010F960E94E42B80931001CE01049606
:100840000E94E42B80930F01CE0143960E94E42B7B
:1008500080930E01CE0105960E94E42B80930D013A
:10086000CE0106960E94E42B80930C01CE010796E0
:100870000E94E42B80930B01CE0140960E94E42B52
:1008800080930A01CE0141960E94E42B80930901D6
:10089000CE0142960E94E42B80930801CE01489637
:1008A0000E94EC2B6093D2047093D3048093D40401
:1008B0009093D504CE014C960E94EC2B6093CE040D
:1008C0007093CF048093D0049093D10480E290E0A1
:1008D0000E94E42B8093B50781E290E00E94E42B14
:1008E0008093B40782E290E00E94E42B8093BB07E0
:1008F00083E290E00E94E42B8093FF0684E290E084
:100900000E94E42B823008F4CBC08B3008F086C004
:1009100080931A01BE01605E7F4F48E050E087EF90
:1009200096E00E94D42BE7EFF6E021E09EE706C0B8
:100930009083319686E0EF3FF80759F080818F373A
:10094000B8F78111F6CF2083319686E0EF3FF807A4
:10095000A9F7DF91CF91089581E090E09093F6069A
:100960008093F50661E081E190E00E94022C809185
:10097000F5069091F606C5CE8FE0809301016FE0F9
:100980008DE190E00E94022CACCE8AE090E0909342
:1009900003018093020160E082E090E00E94022C5B
:1009A0006091020183E090E00E94022C91CE81E0F0
:1009B00090E09093B3078093B20761E080E190E00C
:1009C0000E94022CC091B207D091B307E4CE80ED13
:1009D0008093E40460ED8FE190E00E94022CD0CE81
:1009E00080E38093E50460E380E090E00E94022CC5
:1009F000BBCE9F778038910508F4E4CE8FE790E076
:100A00009093E3048093E2046FE770E0CE010E94CC
:100A1000182CC091B207D091B307D4CE8AE080934E
:100A20001A016AE084E290E00E94022CC091B207B1
:100A3000D091B3076FCF8FE097E29093E304809358
:100A4000E2046FE077E2CE010E94182CC091B20759
:100A5000D091B307B7CE8FEE8093E4046FEE8FE1B1
:100A600090E00E94022C8CCE89E48093E50469E436
:100A700080E090E00E94022C77CE84E690E087CF61
:100A800083E690E09093F6068093F50663E681E1B5
:100A900090E00E94022C8091F5069091F60631CEEE
:100AA00082E080931A0162E084E290E00E94022CCE
:100AB000C091B207D091B3072DCF85E090E090931D
:100AC000F6068093F50665E081E190E00E94022C35
:100AD0008091F5069091F60614CEAF92BF92CF9218
:100AE000DF92EF92FF920F931F93CF93DF93A8951E
:100AF00060E082E090E00E94022C6AE083E090E0F7
:100B00000E94022C6FE08DE190E00E94022C65E0D3
:100B100081E190E00E94022C64E682E190E00E9474
:100B2000022C63EF83E190E00E94022C60E380E0FE
:100B300090E00E94022C60ED8FE190E00E94022C78
:100B40006FEF8EE190E00E94022C65E084E290E07D
:100B50000E94022C60E080E190E00E94022CC0E83C
:100B6000D0E087E0A82E97E1B92E27E2C22E37E326
:100B7000D32E47E4E42E57E5F52E07E617E7A895B0
:100B8000D093B307C093B20763E070E0CE010E9438
:100B9000182C8091B2079091B30762E002960E94F0
:100BA000022C8091B2079091B30761E003960E94F6
:100BB000022C8091B2079091B30760E808960E94DA
:100BC000022C8091B2079091B30760E809960E94C9
:100BD000022C8091B2079091B30760E00A960E94C0
:100BE000022C8091B2079091B30760E80B960E94A7
:100BF000022C8091B2079091B30760E80C960E9496
:100C0000022C8091B2079091B30760E80D960E9484
:100C1000022C8091B2079091B30760E00E960E947B
:100C2000022C8091B2079091B30760E80F960E9462
:100C3000022C8091B2079091B3076AE004960E945B
:100C4000022C8091B2079091B30760E843960E940E
:100C5000022C8091B2079091B30769E005960E943B
:100C6000022C8091B2079091B30768E006960E942B
:100C7000022C8091B2079091B30760E807960E941A
:100C8000022C8091B2079091B30765E040960E94D4
:100C9000022C8091B2079091B30766E041960E94C2
:100CA000022C8091B2079091B30769E042960E94AE
:100CB000022C8091B2079091B30740E050E0BA0156
:100CC00048960E94102C8091B2079091B30740E0A3
:100CD00050E0BA014C960E94102CA092F706B092F8
:100CE000F806C092F906D092FA06E092FB06F0925E
:100CF000FC060093FD061093FE066091B20770910A
:100D0000B307605E7F4F48E050E087EF96E00E94B7
:100D1000F82BC058DF4FC11588E0D80709F02FCF56
:100D2000A895DF91CF911F910F91FF90EF90DF90E9
:100D3000CF90BF90AF900C944D0314BEA8959EE049
:100D400088E10FB6F894A895809360000FBE909349
:100D50006000A8951092E6048FEF809319010E941D
:100D60004D030E9443230E9458240E94CF2316BCA7
:100D70008CE687BD1092B6071092E0041092DF0453
:100D800082E084BD85E085BDEEE6F0E08081826092
:100D90008083239A0895CF93DF9397FD04C0DF915A
:100DA000CF910C948821EC0183E70E941C1FCE0197
:100DB0009F77DF91CF910C94E51FCF93DF93CDB751
:100DC000DEB7C054D1090FB6F894DEBF0FBECDBF59
:100DD000809005058AAA409004059090DA049CAAA8
:100DE0000E949D068091B2079091B30780589109A7
:100DF000880F892F881F990B9195AA24A394A80E78
:100E0000AEA28090E2049090E3049DA68CA680910F
:100E1000E5048E8F8091E4048D8F809100018C8F8A
:100E20002091F5063091F60636952795369527954B
:100E300036952795AFE4BBE10E94A12B9695879547
:100E400096958795969587958B8F0E94BD279DECEB
:100E5000899F812D11248695869586958A8F20916C
:100E6000020130910301ADECBCEC0E94A12B9695E0
:100E700087959695879596958795898F28988FB7AA
:100E8000F8942091F5063091F6063093DE04209315
:100E9000DD048FBF1698A89540E165EA75E084EC03
:100EA00097E00E94B22A48E069E077E08EEB97E095
:100EB0000E94B22A0E94F8287894A8958FEF89831F
:100EC0008091E5048A838FE08B8386E78E8380E8B8
:100ED0008F838DEA888787E189878CE68A8781E01E
:100EE0008B8782E08C8783E48D8783E58E8784E51A
:100EF0008F874FE0BE016F5F7F4F84EC97E00E94C9
:100F0000D82AA8951092BD070E94332383B1867F0B
:100F10008AA785B1806F85B985B1866085B94BAAEE
:100F20009E01255E3F4F1901AE01425E5F4F59A7FA
:100F300048A751E059AB1DAA1EAA1FAA18AE1AA2B3
:100F40001BA21CA21DA2512C1FA218E1612E11E0B0
:100F5000712E1BA610E00CE018AA19A29EA0892CE5
:100F6000912C9FA68EA62250310938A32F8FC12C19
:100F7000D12C7601C394202F052DA8952B9A2B9860
:100F80008091DB0480FD76C22AAF0E949D244091AF
:100F9000B50730910205842F90E00497632F70E02D
:100FA0002AAD681779070CF0F9C28091CD048E7FC5
:100FB0008093CD04309103054091BB07341708F4AA
:100FC000D3C250E0E091FF06632F70E0641B750B05
:100FD000F4E6F69FC001F79F900D11246E2F70E08C
:100FE000641B750B0E94842BA62E4091A40541FF23
:100FF000C0C2E31728F48091DA0481608093DA0498
:1010000043FFBEC28091A305EA2DF0E060911A0172
:101010000E94782B90E0019634E1389FB001399F0F
:10102000700D11246E177F070CF08FC28091CD04D4
:1010300088608093CD048091040542FF4DC28130C9
:1010400009F449C208F400C4823009F045C2E1E065
:101050004E1611F40C946F1681E044FD41C2BB247E
:10106000B39450900505482E013009F458C204305D
:1010700009F48EC3053009F47BC32AAF0E944927C7
:101080002AAD822F90E08D30910508F468C230912E
:10109000D904111104C0313009F4FFC110E03093BC
:1010A000D804A8958EEB97E02AAF0E94C82A2AADF3
:1010B000811188C2A8958091E604811178C21092AE
:1010C000B7071092B8071092B9071092BA078FEFBE
:1010D0008093190189E0EAEAF3E0A0E0B7E001902B
:1010E0000D928A95E1F787E08093BD074091CD048A
:1010F00040FF31C28091180187FD2DC28F714601DA
:10110000570104C0880C991CAA1CBB1C8A95D2F7F5
:10111000D501C40141FF12C03091170137FD0EC047
:101120003F714601570104C0880C991CAA1CBB1CC6
:101130003A95D2F788299929AA29BB2942FF12C0DA
:1011400030910D0137FD0EC03F714601570104C0BB
:10115000880C991CAA1CBB1C3A95D2F7882999299E
:10116000AA29BB2943FF12C030910F0137FD0EC0E1
:101170003F71B701A60104C0440F551F661F771FBA
:101180003A95D2F7842B952BA62BB72B40910305CC
:101190003091BB07431790F430910E0137FD0EC01C
:1011A0003F71B701A60104C0440F551F661F771F8A
:1011B0003A95D2F7842B952BA62BB72B3FEF300F08
:1011C000323008F403C2053009F438C299A090FE09
:1011D00012C030910A0137FD0EC03F71B701A60160
:1011E00004C0440F551F661F771F3A95D2F7842B12
:1011F000952BA62BB72BA9A0A1FE12C030910901F7
:1012000037FD0EC03F71B701A60104C0440F551F42
:10121000661F771F3A95D2F7842B952BA62BB72BF9
:10122000A89530910005323009F43CC2333009F4FE
:101230000AC2313009F477C2A8953091FE043230E9
:1012400009F42BC2333009F457C2313009F42FC2EC
:101250004091D2045091D3046091D4047091D5048C
:10126000842B952BA62BB72B4091CE045091CF0405
:101270006091D0047091D10440955095609570951F
:101280004C015D0184229522A622B7228AA29BA24C
:10129000ACA2BDA29BA8491409F4B4C188248394CC
:1012A000912C8091D904811107C08FEF840D823079
:1012B00018F08114910459F08FB7F8944091F50615
:1012C0005091F6065093DE044093DD048FBFA8953D
:1012D0008FB7F894A090DF04B090E0048FBF2AAFDE
:1012E0000E949B252AAD882379F0892839F48091C2
:1012F000020190910301A816B90630F08091C6074B
:10130000882311F40C943F1B84EC97E02AAF0E94D1
:10131000C82A2AAD882331F08091DC04882311F497
:101320000C948F1B3FB7F8948091DD049091DE04FC
:101330003FBF892B09F021CEA8951092BD0780915F
:101340007A008F7780937A00289A169A88B18370F2
:1013500088B9159880916E008D7F80936E005F989C
:101360005E9885B1897F85B92AAF0E94E8234198AC
:1013700040985D9883B7817F846083BFF894A89577
:101380000FB6F894A8958091600088618093600002
:10139000109260000FBED99A80916800826080939D
:1013A000680080916C00806F80936C0083B78160CF
:1013B00083BF78948895F89483B78E7F83BF80919C
:1013C00068008D7F80936800A8959EE088E10FB645
:1013D000F894A895809360000FBE90936000A89544
:1013E0007894289816980E94332316BC8CE687BD03
:1013F0001092B6071092E0041092DF0482E084BDE0
:1014000085E085BD80916E00826080936E0085B11D
:10141000866085B90E94CF2363B1667F8AA50E944A
:10142000E80063B1667F0E94E80063B1667F0E94B6
:10143000E80063B1667F0E94E8008AA70E9451021B
:101440008AA50E94A8028091D9048093D8048FB7FE
:10145000F8944091F5065091F6065093DE044093BF
:10146000DD048FBF2AADA8952B9A2B988091DB04C1
:1014700080FF8ACD8091DB048E7F8093DB0463B193
:10148000667F8AA52AAF0E94E8008AA70E945102BF
:101490008AA50E94A8022AAD77CD3091D8043130B8
:1014A00059F02AAF0E940D1F2AAD2F5F109205013F
:1014B000109204013091D90440910401509105012A
:1014C000809106019091070110E04817590708F430
:1014D000E6CD2CE0E4CD82E04816A9F144FF33C00C
:1014E00090910505B82E9111842D8111BACD80916E
:1014F000080187FD2FC18F714AA15BA16CA17DA15D
:1015000004C076956795579547958A95D2F740FF21
:1015100021C150900505412C013009F0A8CD8091E2
:10152000CC04882309F419C12AAF0E9449272AADA7
:10153000822F90E08D30910508F0A9CDFC01EA5B87
:10154000FF4F0C94982BB82ED0CF8091CD04877F7D
:101550008093CD0470CD80E090E0DC01DBCDFC0118
:10156000ED5AFF4F0C94982B4091A40541FD41C0CA
:10157000A12C8091DA048E7F8093DA0443FD42CD62
:101580005091B407852F90E00497632F70E068179F
:101590007907DCF2351708F049CD4DCD341708F442
:1015A00009CD8091CD0481608093CD0403CD8091DD
:1015B000A40580FF04C081E08093BD0797CD109201
:1015C000BD0794CD0E94FB002AAD74CD30910C0173
:1015D00037FDFCCD3F71B701A60104C0440F551F74
:1015E000661F771F3A95D2F7842B952BA62BB72B26
:1015F000EDCD8091DA048E7F8093DA04E091FF06CE
:10160000A12CF7CCAAA85A1049CE8AA09BA0ACA0C6
:10161000BDA04DA95EA96FA978AD84169506A60652
:10162000B70609F03BCE3091DA0491E080E08CA857
:10163000831201C090E0892E982E33CE30910B0199
:1016400037FDC4CDC7CF3091E10437FD0EC03F71E7
:10165000B701A60104C0440F551F661F771F3A95B6
:10166000D2F7842B952BA62BB72B3091140137FD85
:10167000E3CD3F71B701A60104C0440F551F661F9B
:10168000771F3A95D2F7842B952BA62BB72BA895CD
:101690003091FE04323009F0D5CD3091110137FD83
:1016A000D7CD1BC03091E10437FDC6CDE2CF3091DC
:1016B000130137FD0EC03F71B701A60104C0440FEE
:1016C000551F661F771F3A95D2F7842B952BA62BB3
:1016D000B72B3091120137FDBBCD3F71B701A60189
:1016E00004C0440F551F661F771F3A95D2F7842B0D
:1016F000952BA62BB72BACCD3091110137FD0EC029
:101700003F71B701A60104C0440F551F661F771F24
:101710003A95D2F7842B952BA62BB72B309110013D
:1017200037FD96CDDACF3091160137FD0EC03F71EF
:10173000B701A60104C0440F551F661F771F3A95D5
:10174000D2F7842B952BA62BB72B3091150137FDA3
:1017500073CD8FCF412C512C87CC2AAF0E944927C3
:101760002AAD822F90E08D30910518F103E08FCCE7
:101770008091CC0481111AC12AAF0E9449272AAD59
:10178000822F90E08D30910508F459C000E07FCCA5
:10179000552019F32AAF0E9449272AAD822F90E0E5
:1017A0008D30910508F073CCFC01E05AFF4F0C948A
:1017B000982BFC01E359FF4F0C94982B03E0159AEA
:1017C000112311F40C947916113011F40C949B1917
:1017D000123011F40C946D19133011F40C943C195F
:1017E000143011F40C94F418153011F40C94B21850
:1017F000163011F40C947318173011F40C9460180F
:10180000183011F40C94BF1A193011F40C94A61A64
:101810001A3011F40C94671A1B3011F40C94481A06
:1018200011E03091D904323009F40DC5343009F497
:10183000FDC4313011F40C948F1A2BE030CCFC0134
:10184000E658FF4F0C94982B442011F40C94C11BC4
:1018500044FD46CEB82E4BCE03E0159A111183C439
:1018600060E083E00E94FD1E8FEA92E00E944B1F21
:1018700061E080E00E94FD1E8FE70E941C1F84E350
:1018800093E00E944B1F3091D904323009F068C4B4
:101890003091D804323011F40C94CA1B0E940D1FF1
:1018A0003091D90411E02AE0FACB03E0159A111126
:1018B0000C94F01660E080E00E94FD1E8DE692E040
:1018C0000E944B1F61E080E00E94FD1E8FE70E9496
:1018D0001C1F86E792E00E944B1F3091D9043230E2
:1018E00011F00C94C71B3091D804323011F40C94D1
:1018F000C41B0E940D1F3091D90411E028E0CFCB0A
:1019000003E0159A11110C94A91660E084E00E947E
:10191000FD1E87E892E00E944B1F61E080E00E947C
:10192000FD1E8FE70E941C1F8EE592E00E944B1F58
:101930003091D904323011F00C94CD1B3091D80481
:10194000323011F40C94631C0E940D1F3091D904A5
:1019500011E029E0A4CB03E0159A11110C9438177B
:1019600060E083E00E94FD1E88E592E00E944B1F2C
:1019700061E080E00E94FD1E8FE70E941C1F8EE543
:1019800092E00E944B1F3091D904323011F00C9438
:10199000A31A3091D804323011F40C94A01A0E948A
:1019A0000D1F3091D90411E027E079CB2AAF0E94B6
:1019B00049272AAD822F90E08D30910508F067CB42
:1019C000FC01E957FF4F0C94982B03E0159A112363
:1019D00011F40C947F178091D60490E08231910528
:1019E00008F4E7C161E080E00E94FD1E87ED91E010
:1019F0000E944B1F61E081E00E94FD1ED3018C918B
:101A000087FDACC38F710E944D2220E03091D90434
:101A1000323009F41CC2333010F40C945E1D3330A4
:101A200011F40C94461D343011F00C943E1D40917D
:101A3000040150910501809106019091070148171A
:101A4000590710F40C943E1DD3018C91982F9F716F
:101A500011F40C94351D81508C9310920501109255
:101A6000040126E01CCB03E0159A60E080E00E94B0
:101A7000FD1E0E94EE25813009F467C708F4E8C70F
:101A8000823009F4E0C7833021F483E791E00E94BB
:101A90004B1F61E080E00E94FD1E0E94EE2588231E
:101AA00009F45FC7843020F48AE791E00E944B1F5D
:101AB0000E94D4253091D904333009F45DC7343005
:101AC00009F4CEC7323009F4C8C722E0E2CA159A39
:101AD00060E080E00E94FD1E8BE391E00E944B1FBE
:101AE00061E080E00E94FD1E013009F428C708F47F
:101AF00090C7043020F48CE491E00E944B1F309199
:101B0000D904323009F472C1333008F4CAC7333013
:101B100009F4BAC7343009F0B4C780910B0180389A
:101B200009F4AEC75110A8C782E38093CC0405E046
:101B300021E0AFCA03E060E082E00E94FD1E8091D8
:101B4000DA0480FDE7C64B1409F4D9C686E391E0B8
:101B50000E944B1F159A61E081E00E94FD1E0E94C9
:101B6000E0260E946F2380910A0187FDC1C660E0D4
:101B700087E00E94FD1E99A090FE44C080910A015A
:101B8000881F8827881F94E0981B892F0E941C1F9C
:101B900061E087E00E94FD1EA9A0A1FE31C08091F6
:101BA0000901881F8827881F94E0981B892F0E94AD
:101BB0001C1F3091D904323009F48DC608F4FAC6DE
:101BC000333009F4E5C6343009F03AC78091D804BF
:101BD000843009F435C780910A0187FD26C78091BA
:101BE000090186FF1CC782E089A0882689A220E01F
:101BF00050CA03E00E940D1F3091D90420E049CA69
:101C000083E0D5CF83E0C2CF03E0159A112309F416
:101C10004EC59E012B5E3F4F912C802EA12E890137
:101C200060E072E0B72EB90C8B2D0E94FD1ED8012A
:101C30008D918D01805D0E941C1F61E08B2D0E94A3
:101C4000FD1EBBA49B1409F42EC580E20E941C1F3C
:101C5000939424E09212E4CF1A2D082D3091D904E8
:101C6000323009F47EC708F46AC7333009F42AC752
:101C7000343009F024C7409104015091050180914E
:101C80000601909107014817590708F418C7E5E1C4
:101C9000F0E0EC0FFD1F8BA4E80DF11D80818A3070
:101CA00008F4B3C589E08083109205011092040105
:101CB00024E0F5C903E0159A60E080E00E94FD1E73
:101CC00081E891E00E944B1F61E080E00E94FD1ED0
:101CD0008EA10E944D228AE891E00E944B1FA090A5
:101CE000B207B090B3078EA59FA59695982F882729
:101CF000979587959093B3078093B2070E94F22B34
:101D000097FDC8C4803157E2950710F08FE097E245
:101D10000E94CB06B092B307A092B2073091D904CB
:101D2000323009F471C708F45AC7333009F4AEC72A
:101D3000343009F051C78091D804843009F44CC77D
:101D40002EA1223008F448C721502EA323E09EA0E4
:101D5000892C912C9FA68EA69CC903E0159A60E061
:101D600011110C94AD1783E00E94FD1E88EA91E0EA
:101D70000E944B1F61E080E00E94FD1E8FE70E94E1
:101D80001C1F8EEA91E00E944B1F3091D904323023
:101D900011F00C94941D3091D804323011F40C944D
:101DA0008B1D0E940D1F3091D9041FA211E025E068
:101DB00076C9FC01EC56FF4F60E080E00C94982B54
:101DC000159A60E080E00E94FD1E8BE391E00E9486
:101DD0004B1F61E080E00E94FD1E81EA93E00E94BB
:101DE0004B1F3091D904323009F08ECE2CE05CC606
:101DF0000E94FD1E88E392E00E944B1F9AE0692E2C
:101E000091E0792E61E080E00E94FD1E87ED91E077
:101E10000E944B1F61E081E00E94FD1ED3018C9166
:101E200087FDE4C08F710E944D2261E085E00E9431
:101E3000FD1EF301808186FFD3C080E592E00E9401
:101E40004B1F21E03091D904323009F0E4CD3091BC
:101E5000D804323011F40C943E1D8091B207909159
:101E6000B3076091180102960E94022C8091B2077C
:101E70009091B3076091170103960E94022C809104
:101E8000B2079091B3076091160108960E94022C48
:101E90008091B2079091B3076091150109960E9455
:101EA000022C8091B2079091B3076091E1040A96E9
:101EB0000E94022C8091B2079091B30760911401A7
:101EC0000B960E94022C8091B2079091B30760910B
:101ED00013010C960E94022C8091B2079091B307D7
:101EE000609112010D960E94022C8091B207909190
:101EF000B307609111010E960E94022C8091B207E7
:101F00009091B307609110010F960E94022C80916E
:101F1000B2079091B30760910F0104960E94022CC2
:101F20008091B2079091B30760910E0143960E9491
:101F3000022C8091B2079091B30760910D01059634
:101F40000E94022C8091B2079091B30760910C011E
:101F500006960E94022C8091B2079091B30760917F
:101F60000B0107960E94022C8091B2079091B30753
:101F700060910A0140960E94022C8091B2079091D4
:101F8000B3076091090141960E94022C8091B2072B
:101F90009091B3076091080142960E94022C0E9422
:101FA0004D030E940D1F60E081E00E94FD1E81EA4A
:101FB00091E00E944B1F87E090E00E94A2220E94C5
:101FC0000D1F3091D90426E066C80E94FD1E80E2F4
:101FD00092E00E944B1F42E1642E41E0742E02CD3C
:101FE00084E592E00E944B1F21E010CD21E088E4BF
:101FF00092E02AAF0E944B1F2AAD08CD0E94FD1E21
:1020000087E192E00E944B1F53E1652E51E0752E4F
:10201000E9CC0E94FD1E80E392E00E944B1F20E16C
:10202000622E21E0722EDECC0E94FD1E89E292E03B
:102030000E944B1F31E1632E31E0732ED3CC0E94FE
:10204000FD1E8FEF91E00E944B1FE5E16E2EE1E057
:102050007E2EC8CC0E94FD1E86EF91E00E944B1F91
:10206000F6E16F2EF1E07F2EBDCC0E94FD1E8FE0C9
:1020700092E00E944B1F64E1662E61E0762EB2CCA6
:102080000E94FD1E88E092E00E944B1F71EE672EB9
:1020900074E0772EA7CC0E94FD1E8DEE91E00E9489
:1020A0004B1FA8E06A2EA1E07A2E9CCC0E94FD1E58
:1020B00084EE91E00E944B1FBBE06B2EB1E07B2EC3
:1020C00091CC0E94FD1E8DED91E00E944B1F8CE093
:1020D000682E81E0782E86CC0E94FD1E89ED91E06D
:1020E0000E944B1F9DE0692E91E0792E7BCC0E94CF
:1020F000FD1E81ED91E00E944B1F2EE0622E21E03B
:10210000722E70CC0E94FD1E8BEC91E00E944B1F42
:102110003FE0632E31E0732E65CC0E94FD1E86ECFD
:1021200091E00E944B1F47E1642E41E0742E5ACC8F
:102130000E94FD1E81EC91E00E944B1F58E1652E2C
:1021400051E0752E4FCC0E94FD1E8FE392E00E945D
:102150004B1F89E0682E81E0782E54CE20E047CFD7
:102160002AE00C944B08159A60E080E00E94FD1E66
:10217000113009F477C2123009F45BC2133009F44C
:1021800047C2143009F437C2153009F42DC2163095
:1021900009F471C1173009F420C2183009F416C2CD
:1021A000193009F401C21A3009F4DBC1B1E02B1671
:1021B000B1E03B0609F495C111E07AE1271671E020
:1021C000370609F464C161E084E00E94FD1EF1015C
:1021D000808190E00E944F2028E03091D904323075
:1021E00009F49EC008F48EC0333009F470C0343056
:1021F00009F06AC0409104015091050180910601E7
:10220000909107014817590708F45EC0283049F13A
:1022100081E090E001C0880F2A95EAF78095F101EE
:102220009081892380832AE00C944F088091D80400
:10223000843009F402CB8091B10781508093B107BB
:102240002BE00C944F083091D804323009F4F5CAD1
:102250000E9408260E940D1F3091D9042BE00C9497
:102260004B088F8C98A02814390451F121E02216D4
:1022700021E0320629F1D1018C91823010F0815099
:102280008C93809101018F3018F48FE080930101CD
:102290008B8D811102C081E08B8F8A8D811102C0EC
:1022A00081E08A8F80911A01823018F482E0809355
:1022B0001A0110920501109204012AE00C944F08B3
:1022C0008091CD0480FDD7CF2AE00C944F08409137
:1022D0000401509105018091060190910701481772
:1022E000590790F3283009F499C081E090E001C0CB
:1022F000880F2A95EAF7D1019C91892B8C932AE0CB
:102300000C944F08313001F73091D8043130E1F2AC
:102310001F5F0E940D1F3091D9042AE00C944F08D2
:102320003091D804323081F26B8D81E190E00E94CF
:10233000022C8A8D880F682F660F660F680F82E166
:1023400090E00E94022C60911A0184E290E00E94C9
:10235000022C6091A40583E190E00E94022C609120
:1023600001018DE190E00E94022C898DBAE08B9FE3
:10237000C00111249093030180930201692F82E030
:1023800090E00E94022C6091020183E090E00E94A4
:10239000022C0E944D032091F5063091F6063695E9
:1023A00027953695279536952795AFE4BBE10E9492
:1023B000A12B9695879596958795969587958B8F62
:1023C0000E94BD279DEC899F812D112486958695BD
:1023D00086958A8F2091020130910301ADECBCEC0F
:1023E0000E94A12B969587959695879596958795AA
:1023F000898F0E940D1F60E081E00E94FD1E81EA2E
:1024000091E00E944B1F87E090E00E94A2220E9470
:102410000D1F3091D9042AE00C944B088F8C98A0A2
:102420002814390419F121E0221621E03206F1F0D6
:10243000D1018C918F3F11F08F5F8C93898D8B3000
:1024400010F08AE0898F8B8D843610F083E68B8FB5
:102450008A8D8A3110F089E18A8F80911A018B3040
:1024600008F427CF8AE080931A0123CF8091CD040E
:1024700080FF2ACFDDCF89EE92E00E944B1F61E002
:1024800087E00E94FD1E8DEC92E00E944B1F61E0F0
:1024900084E00E94FD1E80911A01EDECBE2E8B9D02
:1024A000812D1124869586958695805D0E941C1F3E
:1024B0008EE20E941C1F90911A019B9D812D112478
:1024C000869586958695AAE08A9F90191124892F72
:1024D000805D0E941C1F28E0FAE12F2EF1E03F2EC4
:1024E0007CCE11E061E083E00E94FD1E809101013D
:1024F00099E2899F812D112482958F70805D0E94C1
:102500001C1F8EE20E941C1F80910101ADECBA2EAF
:102510008B9D812D11248695869586958B9D912D79
:1025200011249695969596955AE0959F80191124B9
:10253000805D0E941C1F909101019B9D812D1124A3
:102540008695869586956AE0869F90191124892F35
:10255000805D0E941C1F28E0B1E02B2EB1E03B2ED5
:102560003CCE8CE093E00E944B1F34E024E061E01D
:1025700084E02AAF39AF0E94FD1E8091A40590E04F
:1025800039AD02C0959587953A95E2F72AAD80FF5F
:1025900012C085E193E02AAF0E944B1F94EA292ED6
:1025A00095E0392E2AAD19CE83E093E00E944B1FAF
:1025B00032E022E0DCCF84ED91E02AAF0E944B1F95
:1025C00084EA282E85E0382E2AAD07CE8AEF92E0E5
:1025D0000E944B1F30E020E0CACF81EF92E00E94C2
:1025E0004B1F31E021E0C3CF81EE92E00E944B1FF0
:1025F00033E023E0BCCF88ED92E00E944B1F61E006
:1026000087E00E94FD1E8DEC92E00E944B1F6ACF76
:102610008FEC92E00E944B1F61E087E00E94FD1E5C
:102620008DEC92E00E944B1FAE01475E5F4F1A0196
:10263000CACD80EC92E00E944B1F61E080E00E94D6
:10264000FD1E88EC92E00E944B1F61E087E00E9433
:10265000FD1E8DEC92E00E944B1F9E01265E3F4FB7
:102660001901B1CD85EB92E00E944B1F61E080E043
:102670000E94FD1E8BEB92E00E944B1F61E087E001
:102680000E94FD1E8AE892E00E944B1FFE017B968D
:102690001F0199CD9C013F772038310508F438CBD4
:1026A0008FE790E835CB8EE50E941C1FD1CA60E011
:1026B00085E00E94FD1E85E991E00E944B1F61E0CC
:1026C00080E00E94FD1E8FE70E941C1F89E991E0B7
:1026D0000E944B1F3091D904323009F0F9C030917B
:1026E000D804323009F4F1C0ACA4BDA4B7FC93C047
:1026F0002CA53DA536952795369527953695279592
:10270000A5ECB0E20E94A12BAC01529542954F700E
:1027100045275F7045279A01ADECBCEC0E94A12BC8
:102720009695879596958795969587959C01220F06
:10273000331F880F991F880F991F880F991F820FC9
:10274000931F481B590B4D8B2CA53DA536952795FE
:1027500036952795ABE7B4E10E94A12BAC015695C5
:1027600047959A01ADECBCEC0E94A12B96958795FC
:1027700096958795969587959C01220F331F880F14
:10278000991F880F991F880F991F820F931F481B4D
:10279000590B4E8B2CA53DA50E94A12BAC01569543
:1027A000479556954795569547959A010E94A12BB6
:1027B0009695879596958795969587959C01220F76
:1027C000331F880F991F880F991F880F991F820F39
:1027D000931FBA01681B790B6F8BCA01880F991F71
:1027E000440F551F440F551F440F551F840F951F4D
:1027F0008CA49DA4881A990A888E0E940D1F30917E
:10280000D90411E024E00C944F08882309F44CCA41
:102810008150808349CA83E48D8BF501FF779F0146
:102820003695279536952795ABE7B4E10E94A12B05
:10283000AC01569547959A01ADECBCEC0E94A12BDA
:102840009695879596958795969587959C01220FE5
:10285000331F880F991F880F991F880F991F820FA8
:10286000931F481B590B4E8B9F010E94A12BAC015B
:102870005695479556954795569547959A010E94C6
:10288000A12B9695879596958795969587959C010A
:10289000220F331F880F991F880F991F880F991FC8
:1028A000820F931F9A01281B390B2F8BCA01880FA7
:1028B000991F440F551F440F551F440F551F840F78
:1028C000951FE81BF90BE88F98CF24E00C944E0875
:1028D00024E00C944B088091D804823009F4B0C0F5
:1028E00081E088A8811080E088AB20E00C94490842
:1028F0008091090187FF3BC90E94D4255AC9809164
:10290000E2049091E3040E94CB0688A8882041F05D
:10291000159A21C981E391E00E944B1F159A1BC9AA
:10292000159819C9159A60E080E00E94FD1E8BE39E
:1029300091E00E944B1F61E080E00E94FD1E85E552
:1029400091E00E944B1F01E0DAC885E691E00E9409
:102950004B1F61E080E00E94FD1E0E94EE25811168
:10296000A1C88CE391E00E944B1F0E94D4253091B6
:10297000D904333009F0A3C83091D804333009F4B6
:10298000A4C80E94F1253091D90422E00C94490892
:102990008091D804833009F453C080910A0187FDE7
:1029A00020C086FF18C081E0B9A0B826B9A220E0F7
:1029B0000C94490880910A0186FD03C029A12E7F4D
:1029C00029A38091090186FD3BC049A14D7F49A300
:1029D00020E00C94490829A1216029A320E00C944F
:1029E00049089091090197FFDCCF0E94F1253091B1
:1029F000D90420E00C944908159A60E080E00E9418
:102A0000FD1E8BE391E00E944B1F61E080E00E947D
:102A1000FD1E83E491E00E944B1F00E070C829A1D5
:102A2000226029A320E00C9449088091090187FFC6
:102A3000D8C80E94FD253091D90420E00C944908A3
:102A400020E00C9449088CE691E00E944B1F21C8BD
:102A50008EE591E00E944B1F1CC82CE00C944908A5
:102A60003091D804343009F430C80E94FD253091EB
:102A7000D90422E00C94490804E021E00C944908B0
:102A800000E021E00C94490880910B01803899F016
:102A90000111F7CF82E38093CC0401E021E00C9494
:102AA0004908313071F721E0043011F00C944908E5
:102AB00003E00C94490802E021E00C94490824E06A
:102AC0000C944F084091040150910501809106013A
:102AD000909107014817590790F38BA4811003C008
:102AE0008D89893049F1E5E1F0E0EC0FFD1F9BA4F1
:102AF000E90DF11D8081893010F48F5F80838D890D
:102B00008A3008F4D1C82E898F893AE0839FC001AA
:102B1000112444E6249F800D911D1124288D820FDD
:102B2000911D8038910534F081E08E8B82E08F8B8F
:102B300087E0888F33E0B8C883E48D8BE4CF3130F1
:102B400009F0BDCF8091D804813009F4B8CF2BA50E
:102B50002F5F2BA7243008F4B2CF1BA624E00C94DF
:102B60004F083091D804323009F4A9CF8D898A30CA
:102B700008F49EC08E896F892AE0629FB0011124FB
:102B800034E6839F600D711D1124888D680F711DBF
:102B900070688091B2079091B3070E94182C0E9430
:102BA0004D038090E2049090E3049DA68CA60E94C1
:102BB0000D1F60E081E00E94FD1E81EA91E00E940D
:102BC0004B1F87E090E00E94A2220E940D1F3091CF
:102BD000D90424E00C944B0823E00C9449083130CC
:102BE000D9F7C50180589109880F892F881F990B43
:102BF0009195AA24A394A80EAEA223E08A2C912C2E
:102C00009FA68EA60C9449083091D804323021F347
:102C10006EA180E190E00E94022C0E944D03809101
:102C2000B2079091B30780589109880F892F881FA8
:102C3000990B9195AA24A394A80EAEA20E940D1FF1
:102C400060E080E00E94FD1E8DE891E00E944B1F35
:102C500061E080E00E94FD1E68E0B62E81E090E019
:102C60000E94A2228EE20E941C1FBA94B110F6CFDD
:102C700083E090E00E94A2223091D9042CE09EA033
:102C8000892C912C9FA68EA60C9449088091D8047B
:102C9000833009F4A1CF6EA16F3008F09DCF6F5F34
:102CA0006EA323E0862E912C9FA68EA60C94490835
:102CB0002E899F8948EE53E0849FB001859F700D57
:102CC000112444E6249F600D711D11245AE0959F44
:102CD000600D711D1124888D680F711D5ACFBB24A2
:102CE000B39481E00C94310800E0159A11110C9412
:102CF000E40B60E083E00E94FD1E8AE193E00E9405
:102D00004B1F61E080E00E94FD1E8FE70E941C1FA8
:102D100084E393E00E944B1F3091D904323009F0D4
:102D20002BC43091D804323009F423C40E94B62257
:102D30000E940D1F3091D90411E02BE00C944F0834
:102D400000E00C942D0C00E0159A112311F40C9462
:102D5000850C159A60E080E00E94FD1E113009F498
:102D6000C2C5123009F49DC5133009F480C511E0C5
:102D70003091D904323009F447C508F437C53330EF
:102D800009F416C5343009F010C540910401509182
:102D9000050180910601909107014817590708F431
:102DA00004C5E8A5F9A58081823008F4F9C48150F2
:102DB00080838E8D803310F480E38E8F8D8D803DE7
:102DC00010F480ED8D8F109205011092040129E01E
:102DD0000C944F0800E0159A112311F40C945A0C2E
:102DE000159A60E080E00E94FD1E113009F430C6A3
:102DF000123009F420C6133009F408C6143009F45F
:102E0000F0C525EB822E27E0922E32E0A32E35E08E
:102E1000B32E11E060E087E00E94FD1ED4018C918A
:102E20008F3F09F4DAC5F5019081981708F0D3C5F2
:102E300083E00E941C1F61E085E00E94FD1ED50119
:102E40008C9190E00E94E51F3091D904323009F452
:102E50007EC5333009F464C5313009F437C528E044
:102E60000C944F0800E0159A112311F40C94B00C47
:102E7000159A60E080E00E94FD1E86E692E00E94C6
:102E80004B1F80E3810F0E941C1F61E080E00E94C5
:102E9000FD1E812F90E0FC01EA50F94F5F01808117
:102EA00090E00E94D0203091D904323009F4A9C3B7
:102EB00008F496C3333009F481C3343009F07BC37E
:102EC0004091040150910501809106019091070104
:102ED0004817590708F46FC3D5018C91823008F464
:102EE00066C381508C93109205011092040127E073
:102EF0000C944F0800E0159A11110C94EB0C60E053
:102F000082E00E94FD1E8AEB91E00E944B1F61E06F
:102F100080E00E94FD1E8FE70E941C1F8EEA91E058
:102F20000E944B1F3091D904323009F0FAC530911C
:102F3000D804323009F4F2C51092D6040E940D1F55
:102F40003091D90411E026E00C944F0800E0159A66
:102F500060E0112311F40C94B30E80E00E94FD1E7A
:102F600087ED91E00E944B1F8FA10E944D2260E0EF
:102F700085E00E94FD1E5FA1452F50E05CAF4BAF86
:102F80008091D2049091D304A091D404B091D5043F
:102F90000FA004C0B695A795979587950A94D2F788
:102FA00080FDC5C58091CE049091CF04A091D0043E
:102FB000B091D1040FA004C0B695A79597958795B9
:102FC0000A94D2F780FFE2C685ED91E00E944B1F84
:102FD0003091D904323009F49FC608F439C6333031
:102FE00009F4DCC5343009F0D6C540910401509194
:102FF000050180910601909107014817590708F4CF
:10300000CAC58091CE049091CF04A091D004B09114
:10301000D104AC01BD010BAC04C076956795579502
:1030200047950A94D2F740FF87C5B701A6010BACBC
:1030300004C0440F551F661F771F0A94D2F74A0138
:103040005B0180949094A094B09488219921AA2146
:10305000BB218093CE049093CF04A093D004B0936F
:10306000D1048091D2049091D304A091D404B09162
:10307000D504482B592B6A2B7B2B4093D2045093B9
:10308000D3046093D4047093D50410920501109278
:10309000040125E00C944F0800E00C94050E00E0BC
:1030A0000C945B0E00E00C94340D00E00C949B0D2E
:1030B00000E00E940D1F3091D90420E00C944908D3
:1030C000159A60E080E00E94FD1E88E593E00E9472
:1030D0004B1F61E080E00E94FD1E80E693E00E94AD
:1030E0004B1F0C94110C159A60E080E00E94FD1EAD
:1030F00080E593E00E944B1F61E081E00E94FD1E8D
:103100000E946C2390E062E370E00E94842BCB016C
:103110006AE070E00E94842B805D0E941C1F8EE29A
:103120000E941C1F0E946C2390E065E070E00E94EA
:10313000842BCB016AE070E00E94842B805D0E94AA
:103140001C1F0E946C2390E0880F991F6AE070E0BA
:103150000E94842B805D0E941C1F86E50E941C1F1C
:103160000C94110C159A60E080E00E94FD1E84E42E
:1031700093E00E944B1F61E081E00E94FD1E0E94CF
:10318000C027B82E89E2B89E812D112482958F70B8
:1031900009F451C0805D0E941C1F8DECB89EA12CCB
:1031A0001124A694A694A694A89E812D11248695F8
:1031B000869586953A2D2AE0829F30191124832F17
:1031C000805D0E941C1F8EE20E941C1F8B2D4AE016
:1031D000A49E80191124805D0E941C1F8DE493E041
:1031E0000E944B1F0C94110C159A60E080E00E9425
:1031F000FD1E8DE293E00E944B1F61E080E00E9483
:10320000FD1E809119018F3F69F18A3008F18436E3
:10321000B0F483E393E00E944B1F809119010E9458
:10322000212261E084E00E94FD1E86E393E00E947B
:103230004B1F0C94110C80E20E941C1FAECF8DE23C
:103240000E941C1F8091190190E00E944F20E9CF3D
:1032500082E393E00E944B1F80911901805D0E94E0
:103260001C1FDFCF61E080E00E94FD1E8BE393E036
:103270000E944B1F0C94110C159A60E080E00E9494
:10328000FD1E84E293E00E944B1F61E080E00E94FB
:10329000FD1E8BE50E941C1F61E087E00E94FD1E61
:1032A0008DE50E941C1F61E081E00E94FD1E80915F
:1032B000E60490E0069667E070E00E94842BB62E4C
:1032C00036E0A32EBB2099F1BA948FEF0E941C1F09
:1032D000AA94A110F7CF0C94110C159A60E080E02D
:1032E0000E94FD1E85EB92E00E944B1F61E080E092
:1032F0000E94FD1E8FB7F8942091DD043091DE040A
:103300008FBFADECBCEC0E94A12B9695879596954E
:103310008795969587950E94D02061E085E00E9470
:10332000FD1E80E293E00E944B1F0C94110C80E282
:103330000E941C1FCDCF159A60E085E00E94FD1E03
:103340005110A1C089E40E941C1F60E080E00E942F
:10335000FD1E8091DA0480FD91C08091CD0483FD33
:103360008BC083E00E941C1F8A2D843608F083E600
:103370000E94212285E20E941C1F60E087E00E94DB
:10338000FD1EE1E04E1609F473C04E1608F46CC041
:10339000F2E04F1203C082E50E941C1F61E082E050
:1033A0000E94FD1E8091CD0482FD5CC083E00E94DE
:1033B0001C1F61E084E00E94FD1E8091CD0481FD10
:1033C0004FC080E20E941C1F61E085E00E94FD1E4C
:1033D0008091CD0480FD2FC080E20E941C1F61E01F
:1033E00087E00E94FD1E80910005813001F128F1E7
:1033F0008230C9F0833019F48AE20E941C1F61E018
:1034000080E00E94FD1E8091FE04813021F1F0F0E9
:103410008230B9F0833011F00C94110C8AE20E94D2
:103420001C1F0C94110C82E40E941C1FE8CF84E442
:103430000E941C1FE4CF82E0D0CF8DE20E941C1FAF
:10344000DECF82E40E941C1F0C94110C8DE20E94BE
:103450001C1F0C94110C84E40E941C1F0C94110C72
:1034600081E0B0CF84E0A3CF8EE40E941C1F96CFF2
:1034700086E40E941C1F92CF84E074CF81E391E028
:103480000E944B1F7ACF80E3850D0E941C1F5DCFE9
:103490008091B1078823B1F1159A60E080E00E9425
:1034A000FD1E80E893E00E944B1F61E080E00E94D7
:1034B000FD1E88E893E00E944B1F8091B107805D5C
:1034C0000E941C1F8EE70E941C1F0C94110C159A61
:1034D00060E080E00E94FD1E87E793E00E944B1FA2
:1034E00061E081E00E94FD1E8091B9070E94B11F3A
:1034F0008091B8070E94B11F8091B7070E94B11F49
:103500000C94110C0E940D1F60E080E00E94FD1ED3
:103510008FE893E00E944B1F0E946D05FFCF309112
:10352000D804313011F40C941D0C1F5F0E940D1F44
:1035300085E08093B1073091D9042BE00C944F08BB
:1035400027E00C944E0827E00C944B08159A60E095
:1035500080E00E94FD1E8EE693E00E944B1F61E01A
:1035600080E00E94FD1E80E097E00E944B1F0C94BB
:10357000110C2BE00C944E082BE00C944B08159A80
:1035800060E080E00E94FD1E86E693E00E944B1FF3
:1035900061E081E00E94FD1E8DEA0E94B11F87E17B
:1035A0000E94B11F8CE60E94B11F0C94110C81E0A7
:1035B000F501808398CC27E00C944F0840910401DA
:1035C0005091050180910601909107014817590714
:1035D00090F3D5018C918E37D8F58F5F8C9383CC87
:1035E000313049F73091D804313029F31F5F193059
:1035F00008F011E00E940D1F3091D90427E00C94CF
:1036000049083091D8043230B1F26091B20770911C
:10361000B307605E7F4F48E050E087EF96E00E947E
:10362000F82B0E944D030E940D1F60E081E00E9474
:10363000FD1E81EA91E00E944B1F87E090E00E940E
:10364000A2220E940D1F3091D90427E00C944B0850
:103650008EE7F501808347CC159A60E080E00E94F8
:10366000FD1E8BE391E00E944B1F61E080E00E9411
:10367000FD1E88E993E00E944B1F0C947F0D9090F3
:10368000DA049CAA8091E40489838091E5048A830A
:103690008FE08B8383E58E838091E2049091E30435
:1036A0009F8388878091DA0480FF4FC081E08987FB
:1036B000AA24A3944A1409F442C082E0B82E4B1401
:1036C000D9F139A93130D9F16DA16A877CA17B8705
:1036D0008BA18C879AA19D878091DA048E872AAF6F
:1036E0000E946C238F874B81BE016F5F7F4F84ECFC
:1036F00097E00E94D82A8FB7F8941092E0041092B5
:10370000DF048FBF8AA09BA0ACA0BDA08DAA9EAAFB
:10371000AFAAB8AE4BAA5AAA2AAD0C948409A895B0
:103720000E9423298FB7F894909101019093DC04B3
:103730008FBF2AAD0C94920952E059ABC5CF898551
:103740008068898741E049ABBFCF511012C019860C
:10375000AFCF159A60E080E00E94FD1E8BE391E000
:103760000E944B1F61E080E00E94FD1E03E00C946C
:103770007B0DE52DF0E0EA50F94F80818F5F89875E
:1037800097CFB12C0C94770A28E00C944E0828E0CF
:103790000C944B082AE00C944E0829E00C944B083A
:1037A00081E0A8A5B9A58C9304CB29E00C944F081F
:1037B000409104015091050180910601909107010B
:1037C0004817590790F3A8A5B9A58C918F3F11F020
:1037D0008F5F8C938E8D8A3410F089E48E8F8D8D5F
:1037E000803F08F4F0CA8FEE8D8FEDCA3130E9F6D4
:1037F0003091D8043130C9F21F5F0E940D1F309103
:10380000D90429E00C944F083091D804323069F281
:103810006E8D80E090E00E94022C6D8D8FE190E033
:103820000E94022C6C8D8EE190E00E94022C0E947E
:103830004D038091E5048E8F8091E4048D8F8091FB
:1038400000018C8F0E940D1F60E081E00E94FD1E30
:1038500081EA91E00E944B1F87E090E00E94A22243
:103860000E940D1F3091D90429E00C944B088EE979
:1038700092E00E944B1FBC8C3FEF61E082E0B316E8
:1038800009F442C00E94FD1E8CEA92E00E944B1F88
:103890008B2D0E94B11FBE01645E7F4F79A768A780
:1038A00067CA85E992E00E944B1F61E083E00E94B5
:1038B000FD1E8D8D805D0E944D229E01235E3F4F37
:1038C00039A728A755CA29E00C944E083091D8048E
:1038D000313009F4C4CA1F5F0E940D1F3091D90412
:1038E00028E00C944F088CE892E00E944B1F61E0A6
:1038F00084E00E94FD1E8E8D8F5E0E941C1FFE01C3
:103900007E96F9A7E8A734CA0E94FD1E87EA92E0D6
:103910000E944B1FAE01445E5F4F59A748A728CABB
:103920008091D804833009F49ACABBEB8B16B7E0B8
:103930009B0609F448C0FFEF8F16F6E09F06D9F109
:10394000F5018081D4018C9328E00C944F083091CC
:10395000D804323009F483CA6091B50780E290E060
:103960000E94022C6091B40781E290E00E94022C38
:103970006091BB0782E290E00E94022C6091FF06FA
:1039800083E290E00E94022C0E944D030E940D1FD2
:1039900060E081E00E94FD1E81EA91E00E944B1FE1
:1039A00087E090E00E94A2220E940D1F3091D9046E
:1039B00028E00C944B08D5018C9185508093FF062C
:1039C00028E00C944F08F50180818B5F8093BB0742
:1039D00028E00C944F0884E02CCA8DE20E941C1F42
:1039E0002ACA8BEC91E00E944B1F61E080E00E94AC
:1039F000FD1E82E892E00E944B1F4FEF842E46E0AE
:103A0000942E53E0A52E55E0B52E04CA8BEC91E020
:103A10000E944B1F61E080E00E94FD1E8EE792E055
:103A20000E944B1F6BEB862E67E0962E73E0A72E4D
:103A300075E0B72EEFC98BEC91E00E944B1FE4EBD1
:103A40008E2EE7E09E2EF3E0AF2EF5E0BF2EE2C90A
:103A500081EC91E00E944B1FA5EB8A2EA7E09A2EE5
:103A6000B2E0AB2EB5E0BB2ED5C9222351F086FFC4
:103A700008C08CE1F30180830C942D0D26E00C949A
:103A80004F0880E8D3018C930C942D0D40910401D4
:103A9000509105018091060190910701481759073F
:103AA00068F3D3018C9187FD2EC0982F9F719C31B4
:103AB000F8F48F5FF30180830C942D0D3130F1F613
:103AC0003091D8043130D1F28091D6048F5F809349
:103AD000D604823110F01092D60410920501109293
:103AE00004010E940D1F3091D90426E00C944F0868
:103AF000982F9074222351F086FD08C080E4D301F2
:103B00008C930C942D0D1C920C942D0D945EF3014E
:103B100090830C942D0D25E00C944E0826E00C9417
:103B20004E0826E00C944B0825E00C944B0880EEE0
:103B300091E00E944B1F4CCAB701A6010BAC04C018
:103B4000440F551F661F771F0A94D2F74095509572
:103B50006095709584239523A623B7238093CE0484
:103B60009093CF04A093D004B093D1048091D20459
:103B70009091D304A091D404B091D5044823592343
:103B80006A237B234093D2045093D3046093D404DC
:103B90007093D5047ACA25E00C944F084091040133
:103BA000509105018091060190910701481759072E
:103BB00090F34091D2045091D3046091D404709159
:103BC000D504DB01CA010BAC04C0B695A795979547
:103BD00087950A94D2F780FF54C08091CE049091CB
:103BE000CF04A091D004B091D104460157010BAC91
:103BF00004C0880C991CAA1CBB1C0A94D2F72196FD
:103C00008CAE9DAEAEAEBFAE219780949094A09442
:103C1000B094482159216A217B214093D2045093CA
:103C2000D3046093D4047093D50421964CAD5DAD5C
:103C30006EAD7FAD2197842B952BA62BB72B809350
:103C4000CE049093CF04A093D004B093D1041DCAA6
:103C5000313009F0A0CF3091D804313009F49BCF36
:103C60009FA19F5F9FA39D3108F01FA210920501A5
:103C7000109204010E940D1F3091D90425E00C948C
:103C80004F088091CE049091CF04A091D004B091C0
:103C9000D1044C015D010BAC04C0B694A794979479
:103CA00087940A94D2F78AA29BA2ACA2BDA280FC00
:103CB0009CCF460157010BAC04C0880C991CAA1C70
:103CC000BB1C0A94D2F721968CAE9DAEAEAEBFAEB1
:103CD000219780949094A094B09488219921AA214E
:103CE000BB218093CE049093CF04A093D004B093D3
:103CF000D10421968CAD9DADAEADBFAD2197482BC3
:103D0000592B6A2B7B2B4093D2045093D30460939E
:103D1000D4047093D504B9C93091D804323009F471
:103D20003ACF4091D2045091D3046091D404709161
:103D3000D5048091B2079091B30748960E94102C49
:103D40004091CE045091CF046091D0047091D10481
:103D50008091B2079091B3074C960E94102C0E945C
:103D60004D030E940D1F60E081E00E94FD1E81EA6C
:103D700091E00E944B1F87E090E00E94A2220E94E7
:103D80000D1F3091D90425E00C944B0886EB91E08F
:103D90000E944B1F1DC9662341F1429A439898B176
:103DA0009F7098B998B1282F207F922B98B9439A89
:103DB00044E04A95F1F7439898B19F7098B998B14B
:103DC00040E1849F90011124292B28B9439A94E063
:103DD0009A95F1F74398611103C08150833038F010
:103DE0009DED9A95F1F7000008954298D7CF89E9A3
:103DF00095E10197F1F700C00895660F660F660F11
:103E0000860F8093E7040895662321F060E08054D4
:103E10000C94CB1E80580C94CB1E60E081E00E9475
:103E2000CB1E1092E704E8EEF4E080E2819394E088
:103E3000E83FF907D9F70895CF939091E704482F09
:103E4000082E000C550BE92FF0E0E851FB4F2081C4
:103E500030E042175307A1F0C82F692F6695669589
:103E60006695892F87700E94041F61E08C2F0E9445
:103E7000CB1E9091E704E92FF0E0E851FB4FC0839F
:103E80009F5F903120F01092E704CF9108959093B6
:103E9000E704CF910895CF93DF93EC012196FC01C5
:103EA0008081882329F00E941C1F89918111FBCFFA
:103EB000DF91CF910895CF93C82F97B19C6F97B999
:103EC00042982FEF8FE593E0215080409040E1F73A
:103ED00000C00000439898B19F7098B998B1906362
:103EE00098B9439A24E02A95F1F743988FEF95E328
:103EF0000197F1F700C00000439A94E09A95F1F71A
:103F0000439881EF91E00197F1F700C0439A94E064
:103F10009A95F1F7439881EF91E00197F1F700C08E
:103F200098B19F7098B9459A439A94E09A95F1F7A1
:103F3000439881EF91E00197F1F700C060E088E2DB
:103F40000E94CB1E60E088E00E94CB1E0E940D1FE5
:103F500060E086E00E94CB1E60E08C2FCF910C9435
:103F6000CB1E1F93CF93DF93CDB7DEB760970FB60D
:103F7000F894DEBF0FBECDBF182F80E1E1E2F1E083
:103F8000DE01119601900D928A95E1F7812F8295BD
:103F90008F70E1E0F0E0EC0FFD1FE80FF11D808174
:103FA0000E941C1F1F70E1E0F0E0EC0FFD1FE10F0D
:103FB000F11D808160960FB6F894DEBF0FBECDBFB5
:103FC000DF91CF911F910C941C1F0F931F93CF93E0
:103FD000DF938C019C013695279536952795ABE7A5
:103FE000B4E10E94A12BFC01F695E7959F01ADEC91
:103FF000BCEC0E94A12BAC01569547955695479570
:1040000056954795CA01880F991F440F551F440FB5
:10401000551F440F551F480F591FCF01841B950B87
:10402000805D0E941C1F9801ADECBCEC0E94A12B8E
:10403000EC01D695C795D695C795D695C7959E019F
:104040000E94A12BAC0156954795569547955695DC
:104050004795CA01880F991F440F551F440F551FDC
:10406000440F551F480F591FCE01841B950B805DCF
:104070000E941C1FCE01880F991FCC0FDD1FCC0F93
:10408000DD1FCC0FDD1FC80FD91FC8018C1B9D0B76
:10409000805DDF91CF911F910F910C941C1FCF93E6
:1040A000DF93EC018436910508F46FC09C013695CE
:1040B000279536952795ABE7B4E10E94A12BFC012B
:1040C000F695E7959F01ADECBCEC0E94A12BAC01ED
:1040D000569547955695479556954795CA01880F29
:1040E000991F440F551F440F551F440F551F480F6C
:1040F000591FCF01841B950B805D0E941C1F9E01E0
:10410000ADECBCEC0E94A12BFC01F695E795F69571
:10411000E795F695E7959F010E94A12BAC01569576
:1041200047955695479556954795CA01880F991F0B
:10413000440F551F440F551F440F551F480F591F5B
:10414000CF01841B950B805D0E941C1F9E01ADEC6E
:10415000BCEC0E94A12B9695879596958795969590
:1041600087959C01220F331F880F991F880F991F75
:10417000880F991F820F931F9E01281B390BC901BD
:10418000805DDF91CF910C941C1F80E20E941C1F68
:10419000CA30D10508F0B3CF80E20E941C1FD6CFF1
:1041A000CF93DF93EC01883E23E0920708F49EC092
:1041B0009C01369527953695279536952795A5EC3C
:1041C000B0E20E94A12BFC01F295E295EF70EF277F
:1041D000FF70EF279F01ADECBCEC0E94A12BAC015E
:1041E000569547955695479556954795CA01880F18
:1041F000991F440F551F440F551F440F551F480F5B
:10420000591FCF01841B950B805D0E941C1F9E01CE
:104210003695279536952795ABE7B4E10E94A12BFB
:10422000FC01F695E7959F01ADECBCEC0E94A12B3B
:10423000AC01569547955695479556954795CA01B1
:10424000880F991F440F551F440F551F440F551FCA
:10425000480F591FCF01841B950B805D0E941C1FC6
:104260009E01ADECBCEC0E94A12BFC01F695E795FC
:10427000F695E795F695E7959F010E94A12BAC0175
:10428000569547955695479556954795CA01880F77
:10429000991F440F551F440F551F440F551F480FBA
:1042A000591FCF01841B950B805D0E941C1F9E012E
:1042B000ADECBCEC0E94A12B9695879596958795C1
:1042C000969587959C01220F331F880F991F880FA1
:1042D000991F880F991F820F931F9E01281B390B6E
:1042E000C901805DDF91CF910C941C1F80E20E9478
:1042F0001C1FC436D10508F08ACF80E20E941C1F23
:10430000CA30D10508F0ACCF80E20E941C1FCFCF8D
:104310000F931F93CF93DF938C019C0136952795C4
:104320003695279536952795A5ECB0E20E94A12BEE
:10433000FC01F295E295EF70EF27FF70EF279F01E8
:10434000ADECBCEC0E94A12BAC015695479556955F
:10435000479556954795CA01880F991F440F551FD9
:10436000440F551F440F551F480F591FCF01841B81
:10437000950B805D0E941C1F9801369527953695F8
:104380002795ABE7B4E10E94A12BFC01F695E795D8
:104390009F01ADECBCEC0E94A12BAC01569547955A
:1043A0005695479556954795CA01880F991F440F12
:1043B000551F440F551F440F551F480F591FCF015C
:1043C000841B950B805D0E941C1F9801ADECBCEC1A
:1043D0000E94A12BEC01D695C795D695C795D69589
:1043E000C7959E010E94A12B9695879596958795D6
:1043F000969587959C01220F331F880F991F880F70
:10440000991F880F991F820F931F9E01281B390B3C
:10441000C901805D0E941C1FCE01880F991FCC0F1F
:10442000DD1FCC0FDD1FCC0FDD1FC80FD91FC8014A
:104430008C1B9D0B805DDF91CF911F910F910C9490
:104440001C1FCF93C82F8A3098F480E20E941C1F53
:104450008DECC89F812D11248695869586959AE0CE
:10446000899FC01911248C2F805DCF910C941C1F43
:104470009DEC899F812D1124869586958695899F2F
:10448000912D11249695969596952AE0929F8019E4
:104490001124805D0E941C1FDBCFCF93DF93D82FA8
:1044A0009DEC899FC12D1124C695C695C695C99FBF
:1044B000912D11249695969596958C2F2AE0929F92
:1044C00080191124805D0E941C1F8D2F9AE0C99FC6
:1044D00080191124805DDF91CF910C941C1FCF9225
:1044E000DF92EF92FF921F93CF93DF931F92CDB78E
:1044F000DEB7F62E880F880F880F10E4180F60E0E3
:10450000812F79830E94CB1ECF2C7981D72E760103
:1045100088E0E80EF11C60E0812F0E94CB1E61E074
:10452000F60181916F010E94CB1E1F5FCE14DF0444
:1045300091F70F90DF91CF911F91FF90EF90DF9057
:10454000CF900895009789F020E030E0A8954FEFD4
:104550005FE563E0415050406040E1F700C000007B
:104560002F5F3F4F2817390789F7089564E474E0F7
:1045700081E00E946F226CE374E082E00C946F2271
:1045800064E374E083E00E946F226CE274E084E0F4
:104590000C946F22CF930E940D1F64E274E080E0C0
:1045A0000E946F226CE174E081E00E946F2264E15E
:1045B00074E082E00E946F226CE074E083E00E946D
:1045C0006F2264E074E084E00E946F2264EF73E085
:1045D00085E00E946F226CED73E086E00E946F22FE
:1045E00064EC73E087E00E946F2260E080E00E944C
:1045F000FD1EC0E08C2F0E941C1FCF5FC830D1F77A
:1046000061E080E00E94FD1E83EB93E00E944B1F5F
:1046100088E090E00E94A2226CEE73E085E00E94A8
:104620006F2264ED73E086E00E946F226CEB73E012
:1046300087E00E946F2284E090E00E94A2226CEF4B
:1046400073E084E00E946F2264EE73E085E00E94D4
:104650006F226CEC73E086E00E946F228FE090E0A6
:10466000CF910C94A2228CE00E945B1F159A0E94AD
:10467000CA220E940D1F0E9455230E94C0220E9440
:10468000A2250C94082680E681B912B889E084B985
:1046900085B1806F85B985B1866085B98FEF87B99F
:1046A00018B880EF8AB91BB8089580911C01813039
:1046B00071F040F0823029F46CE574E080E00C94F5
:1046C0006F2208956CE474E080E00C946F2264E53E
:1046D00074E080E00C946F2280910605089590911B
:1046E0001C0180911B01981731F00E945523809185
:1046F0001C0180931B0160E080E00E94FD1E80E0B1
:104700000C941C1F8091F904E1E0E80FE093F90498
:104710008E2F90E0FC013197E431F10530F4EA5539
:10472000FF4F0C94982B1092F90408958091BD07C7
:10473000853051F1873009F18111F7CF5E985F988C
:1047400008958091BD078430F9F020F18630A9F0FA
:10475000C8F08730A9F008958091BD078630B8F47D
:10476000843080F4813071F0823051F0089580916E
:10477000BD07843049F0863049F45E9A08955F9809
:104780005E9808955F9808955F9A08950895883017
:10479000B8F308958130C1F3823079F308951DBADA
:1047A000E9E6F0E08081856080835C9A8CEC9AE099
:1047B0000197F1F700C0000089B18C7090E09595E9
:1047C0008795959587958093BC0783E08DBB089569
:1047D0001DBA5C9808951F920F920FB60F92112484
:1047E0000BB60F922F933F934F935F938F939F93AB
:1047F000EF93FF93CF93DF93CDB7DEB72897DEBF5C
:10480000CDBF89B18C7090E09595879595958795EA
:1048100031E03D8343E04E831F8252E05887598345
:104820001A824B833C833091BC078317A1F03091EF
:10483000BC073370FE01E30FF11D3581381721F1FC
:104840003091BC073370FE01E30FF11D3181381741
:1048500029F1109205058093BC0728960FB6F894AD
:10486000DEBF0FBECDBFDF91CF91FF91EF919F9142
:104870008F915F914F913F912F910F900BBE0F90B1
:104880000FBE0F901F90189520910505222319F354
:1048900020910505215020930505DDCF20910505C8
:1048A0002830C8F6209105052F5F20930505D3CF4A
:1048B000E4E6F0E080818E7F80838FE880937E0045
:1048C00080E480937C00EAE7F0E086E38083109246
:1048D0007B008081886580831092FD0408951F927B
:1048E0000F920FB60F9211242F933F938F939F93A4
:1048F00080917800909179002091FB043091FC0424
:10490000820F931F9093FC048093FB048091FA0420
:104910008F5F8093FA048091FA04803428F08091AC
:104920007A008F7780937A009F918F913F912F919A
:104930000F900FBE0F901F90189580917A0087FD01
:1049400007C0E091F8048E2F90E08D30910508F0BB
:104950000895FC01E654FF4F0C94982B8091FB04C2
:104960009091FC040024880F991F001C880F991F48
:10497000001C892F902D9093FC048093FB04809160
:10498000FB049091FC04AC01440F551F440F551FCC
:10499000480F591F9A01A3E4B8E00E94A12B481BBD
:1049A000590B56954795840F951F929582958F7058
:1049B00089279F708927809306058E3608F09CC052
:1049C000843608F4ADC081E080931C018CE08093B4
:1049D000F804089587E480937C0080937C00109213
:1049E000FC041092FB041092FA0480917A00806C0F
:1049F00080937A008091F8048F5F8093F804089583
:104A00008091FB049091FC049093FF04913A08F08C
:104A100070C0913608F47EC081E08093FE048AE085
:104A20008093F80408955D9A82E4D7CF8091FB04C7
:104A30009091FC0490930105913A08F057C091368B
:104A400008F462C081E08093000588E08093F80458
:104A500008955D9A83E4C1CF8091FB049091FC049A
:104A6000892F80958093020586E08093F80408954D
:104A7000419A84E4B2CF8091FB049091FC0490931E
:104A8000030584E08093F8040895419A81E4A5CF5A
:104A90008091FB049091FC04892F99279093FC044A
:104AA0008093FB048091FB049091FC04C097D0F0AC
:104AB0008091FB049091FC048037910508F51092D9
:104AC000040582E08093F8040895409A80E485CF3D
:104AD0008091FD048F3F19F08F5F8093FD04109249
:104AE000F804089582E080930405EBCF109200054E
:104AF000ACCF1092FE0493CF82E080931C0166CF6E
:104B000081E080930405DDCF913268F082E08093EC
:104B100000059BCF913258F082E08093FE047FCF56
:104B200010921C0153CF83E0809300058ECF83E069
:104B30008093FE0474CF81E09091FD04913208F4DB
:104B400080E0089580910805813021F1C8F082301D
:104B500019F0833059F008956CE674E085E00E9406
:104B60006F2264E674E086E00C946F2264E674E0E1
:104B700085E00E946F2264E674E086E00C946F2268
:104B800064E774E085E00E946F2264E874E086E0E8
:104B90000C946F2264E774E085E00E946F226CE75A
:104BA00074E086E00C946F229091070580910805CF
:104BB000981731F00E94A22580910805809307057F
:104BC00060E087E00E94FD1E85E00E941C1F61E0FE
:104BD00087E00E94FD1E86E00C941C1F8091080552
:104BE000089580910805833020F48F5F8093080535
:104BF000089583E080930805089580910805815009
:104C0000833018F4809308050895109208050895DC
:104C100062EA74E081E00E946F226AE974E082E057
:104C20000C946F22FC01808170E0680F711D9181EE
:104C30006C3371055CF09F5F01C0922F6C5371095A
:104C400021E0290F6C337105C0F7918360832281C5
:104C50009C3350F02F5F01C0232F9C5331E0320F63
:104C60009C33D0F722839183283158F08BEA289F18
:104C7000812D112482958F7098E1899F201911242C
:104C800022830895EF92FF920F931F93CF93DF93A8
:104C900000D000D000D0CDB7DEB7FC0121813DECC3
:104CA000239F912D11249695969596954AE0949F71
:104CB00020191124205D2D83939F212D11242695E9
:104CC000269526958AE0289F90191124905D9C8353
:104CD0008AE38B83662359F02281211140C081E34E
:104CE000898382E38A8381E08E8389811BC09281DC
:104CF000939F812D11248695869586954AE0849F01
:104D000090191124905D9A83839F312D112436953B
:104D1000369536959AE0399F80191124805D8983F4
:104D200090E29E838E010E5F1F4F7E0127E0E20E10
:104D3000F11C03C0F80181918F010E941C1F0E1508
:104D40001F05C1F726960FB6F894DEBF0FBECDBF84
:104D5000DF91CF911F910F91FF90EF9008952D302B
:104D600050F5922F8DEC989F312D11243695369564
:104D70003695389F812D1124869586958695EAE093
:104D80008E9F30191124832F3323C1F0805D8983D6
:104D90003DEC939F312D1124369536953695FAE0EA
:104DA0003F9F90191124905D9A832C3008F49BCF7B
:104DB00092E09E83B7CF94EF920FD4CF80E2E7CFFB
:104DC00080910905882391F060911D05862F8370DD
:104DD000833081F060FD05C0647085E195E00C943E
:104DE000422668708DE095E00C9442268CE894E0B1
:104DF0000C944B1F83E994E00C944B1F80910905A0
:104E0000882319F081508093090580911D058370D6
:104E1000813009F0089540911E0150911F01E091E9
:104E20000B05F0910C059A01ADECBCEC0E94A12B96
:104E3000969587959695879596958795E80FF91F8E
:104E4000F0930C05E0930B0520910A05BC01660F59
:104E5000771F880F991F880F991F880F991F860F3A
:104E6000971F481B590B420F40930A0580910A0572
:104E70008B3080F280910B0590910C0501969093F8
:104E80000C0580930B0580910A058A5080930A05D2
:104E9000089580911D0580FF08C081FD06C08091A6
:104EA0000B0590910C050A9708F408954FB7F894F4
:104EB00020910B0530910C05ADECBCEC0E94A12BB0
:104EC00096958795969587959695879520910B054C
:104ED00030910C055AE0859F201931091124309337
:104EE0000C0520930B054FBF682F8DE095E00C94C7
:104EF0001226FC0186818093170587818093160511
:104F0000808580931505818580931D0582818E3073
:104F1000A0F0828580930F05838580930E0584859C
:104F200080930D05858590E0982F88272685820F30
:104F3000911D90931F0180931E0110920C051092F9
:104F40000B0510920A0580911D01809309050895B3
:104F50008A3038F08F3F49F08B3F58F480931D0121
:104F600008958AE080931D01089584E680931D01D1
:104F700008958AEF80931D01089580911D01089581
:104F800080911E0190911F0108951F920F920FB6FC
:104F90000F9211240BB60F922F933F934F935F9371
:104FA0006F937F938F939F93AF93BF93EF93FF93F1
:104FB0008091C000887191F08091C6008093620555
:104FC0001092620510921F058091C6008D3709F47A
:104FD0005CC08E3709F059C082E06DC08091C60078
:104FE0008D3709F47FC08E3709F462C090911F0598
:104FF00091FF4BC090FF05C020E282279E7F9093D7
:105000001F05909162059F3308F074C0E09162051E
:1050100091E09E0F90936205F0E0ED59FA4F808386
:1050200080916205843009F474C0809162058530F6
:1050300060F12091620580911E05281326C083E04F
:1050400080936205809162058217A0F490E0E09160
:105050006205F0E0ED59FA4F8081980F809162056A
:105060008F5F8093620580916205821780F39F3F76
:1050700009F455C0E3E6F5E080E4DF011D928A956E
:10508000E9F71092620510921F05FF91EF91BF9111
:10509000AF919F918F917F916F915F914F913F91D0
:1050A0002F910F900BBE0F900FBE0F901F90189571
:1050B00080911F0582601092620590E4E3E6F5E0BE
:1050C000DF011D929A95E9F780931F05E091620533
:1050D00081E08E0F80936205F0E0ED59FA4F8EE784
:1050E0008083D3CF80911F0581FFCFCF81608093D4
:1050F0001F05CBCF80911F058D7F80931F051092D8
:10510000620580E4E3E6F5E0DF011D928A95E9F7A8
:10511000BCCF809165058C5F80931E0586CF88E0AB
:105120008093620580916605803849F1813809F0E5
:10513000A1CFE0916205F0E0EF59FA4F2081E091B4
:105140006205F0E0ED59FA4F82818431E0F4E0919C
:105150006205F0E0ED59FA4F42816091620570E01E
:105160006D597A4F8EEB97E00E94D02AE09162054C
:10517000F0E0EF59FA4F8081809320017BCF8EE0E1
:1051800080936205D6CF44E1E8CF1F920F920FB60D
:105190000F9211240BB60F928F939F93EF93FF936F
:1051A000E091210581E08E0F80932105F0E0EE5D16
:1051B000FA4F80818093C60090912105809120054F
:1051C000981720F480912105803438F08091C10037
:1051D0008F7D8093C10010922105FF91EF919F91E7
:1051E0008F910F900BBE0F900FBE0F901F901895D0
:1051F0008FEF80932001569A5E988AB18C7F8AB98E
:105200001092620580E4E3E6F5E0DF01982F1D923D
:105210009A95E9F710922105E2E2F5E0DF011D928F
:105220008A95E9F785E090E09093C5008093C400EB
:105230001092C000E1ECF0E0108286E08093C200A2
:1052400088E980830895AF92BF92CF92DF92EF9268
:10525000FF920F931F93CF93DF93CDB7DEB76E9777
:105260000FB6F894DEBF0FBECDBF84EC97E00E946E
:10527000C82AE82E882349F08091C100282F207287
:10528000E22E85FF14C0EE24E3948E2D6E960FB6A9
:10529000F894DEBF0FBECDBFDF91CF911F910F916C
:1052A000FF90EF90DF90CF90BF90AF9008958E0168
:1052B0000F5F1F4F8EE1D8011D928A95E9F78EE7A7
:1052C000898381E08C838FEF8E838F8321E046E199
:1052D000BE01675F7F4F84EC97E00E94522BAB8446
:1052E00085E08A0D8B83B4E0BA1508F092C0FE0108
:1052F00039966F018DEFB82EBA0C9DEFF92E80E034
:1053000090E0F1E0FF1520F4D6016C910E940E2A86
:10531000F394BFEFCB1ADB0AFB10F3CF8C879D878A
:105320004A2D50E0BA01695F7F4F23E030E090E002
:1053300083E0F801E20FF31F2081920F8F5F282F87
:1053400030E062177307ACF7485F5F4FF801E40F76
:10535000F51F909590831092200580E4E2E2F5E03D
:10536000DF011D928A95E9F7E091200581E08E0F1B
:1053700080932005F0E0EE5DFA4F8EE7808321E018
:1053800030E081E07DE760E212C09131D9F0E09138
:10539000200521E02E0F20932005F0E0EE5DFA4F6E
:1053A00090838F5F282F30E04217530734F1F801C4
:1053B000E20FF31F9081933129F038F323E8290F8E
:1053C000223028F7E091200521E02E0F20932005C0
:1053D000F0E0EE5DFA4F7083E091200521E02E0FA2
:1053E00020932005F0E09627EE5DFA4F90838F5FC3
:1053F000282F30E042175307D4F61092210584EC91
:1054000097E00E945B2B8091C10080628093C10075
:105410003CCF84EC97E00E945B2B37CF41E04130DA
:1054200021F1292F22959295907F582F5295507FE8
:1054300026272F7030E0F901E654FB4F82958F70DC
:10544000982B80819827F901E655FB4F80818527AD
:10545000423011F04F5FE3CF292F30E0322F222767
:10546000A901480F511DCA010895E92FE627392FD8
:105470003295307F582F5295507FE295EF70F0E0D3
:10548000DF01A654BB4F82958F70832B9C91982788
:10549000E655FB4F808185274F5FC1CFFC012FB7B9
:1054A000F89490818181981B892F65810E94782BC7
:1054B000892F2FBF0895CF92DF92EF92FF920F9323
:1054C0001F93CF93DF931F92CDB7DEB76C014531A9
:1054D00008F044E1D6018C911396ED90FC9014975E
:1054E000B5E18B9FE00CF11C1124042F10E0A80102
:1054F000C70129830E94C42B44E150E0401B510B9B
:1055000060E070E0C701800F911F0E94CD2BF60173
:1055100080810380F481E02D95E1899FE00DF11DEC
:1055200011242981248BD6018C918F5F8C93159641
:105530009C911597891708F01C928FB7F894F60183
:1055400020819181291302C091E092838FBF81E075
:105550000F90DF91CF911F910F91FF90EF90DF900F
:10556000CF900895CF93FC01CB01CFB7F89474830B
:105570006383458311821082128225E1429FA0013C
:10558000112460E070E00E94CD2BCFBFCF91089531
:10559000FC012281222311F0858108950C944E2A6A
:1055A000FC013281332311F080E008950C945B2AD2
:1055B000FC012281222311F080E008950C945B2AE3
:1055C000AF92BF92CF92DF92EF92FF920F931F9311
:1055D000CF93DF93EC016B01B42EA22EE42EF12CBD
:1055E000A70160E070E0C6010E94CD2B01151105F6
:1055F00011F0F80110828A81882309F44FC08D814F
:105600008823A1F1EB81FC818981DF0195E1899FEC
:10561000A00DB11D112412968C91B81690F58981B8
:10562000BF0195E1899F600D711D1124A701C6017D
:105630000E94C42B0115110559F08981EB81FC8171
:1056400095E1899FE00DF11D11248489F801808383
:10565000A11022C08FB7F89499819F5F99832D8103
:10566000921708F019821A828FBF81E0DF91CF91E3
:105670001F910F91FF90EF90DF90CF90BF90AF9070
:1056800008958981DF0195E1899FA00DB11D112445
:105690001296EC90F12CC3CF81E0E8CFCE010E94AE
:1056A0004E2AAECF0F931F9300E010E00E94E02A35
:1056B0001F910F910895CF93DF93EC018A81882386
:1056C00099F08D81882359F08FB7F89499819F5F65
:1056D00099832D81921730F41A828FBF81E0DF9178
:1056E000CF9108951982F8CFCE010E944E2AEACFB9
:1056F000991B79E004C0991F961708F0961B881F24
:105700007A95C9F78095089597FB072E16F40094B3
:1057100007D077FD09D00E94B02B07FC05D03EF4DE
:10572000909581959F4F0895709561957F4F08954D
:10573000EE0FFF1F0024001C0BBE0790F691E02D1A
:105740000994A29FB001B39FC001A39F700D811D5A
:105750001124911DB29F700D811D1124911D08957A
:10576000AA1BBB1B51E107C0AA1FBB1FA617B70787
:1057700010F0A61BB70B881F991F5A95A9F78095A3
:105780009095BC01CD010895FB01DC0102C00190A0
:105790000D9241505040D8F70895DC0101C06D933F
:1057A00041505040E0F70895DC01CB01FC01F9992C
:1057B000FECF06C0F2BDE1BDF89A319600B40D925D
:1057C00041505040B8F70895F999FECF92BD81BD80
:1057D000F89A992780B50895A6E1B0E044E050E03A
:1057E0000C94D62BA8E1B0E042E050E00C94D62B0C
:1057F000DC01CB0103C02D910E94032C415050408D
:10580000D0F70895262FF999FECF1FBA92BD81BD1A
:1058100020BD0FB6F894FA9AF99A0FBE0196089532
:10582000242F0E94032C252F0E94032C0C94182C4B
:0E5830000E94022C272F0C94032CF894FFCF1B
:10583E00FF0F0A00320032000980808008808080CD
:10584E00060580060380030702FF050202960A0082
:10585E00FF303132333435363738394142434445DF
:10586E0046454D524700524556210020454E474968
:10587E004E45002020204F46462020002020204F5D
:10588E004E202020005354415254494E47004C495B
:10589E0047485420004C4F57202020004D45444986
:1058AE00554D0048454156592000574549474854E3
:1058BE00004C4F414420434E46003A20004C4F418D
:1058CE0044494E4700534554002D20204C4F434F22
:1058DE000053415645442100464F524345002D206A
:1058EE002046554E43002D2D2D00434F4E46494721
:1058FE0000484F524E0042454C4C004252414B45DF
:10590E000042524B204F46460041555800454E47E7
:10591E00204F4E00454E472053544F50005448528E
:10592E0020554E4C4B00462E44494D202331004607
:10593E002E44494D20233200462E48454144004610
:10594E002E444954434800522E44494D20233100E1
:10595E00522E44494D20233200522E4845414400D8
:10596E00522E44495443480055502042544E004450
:10597E004F574E2042544E002D2D20202020200027
:10598E004C4154004D4F4D004E4F544348002D2076
:10599E002020434647004E4F54434820005448525F
:1059AE0053484F4C44002D20202043414C004C4F77
:1059BE0057004849474800434F4D4D0054485254F4
:1059CE004C20494400424153452041445200544921
:1059DE004D45204144520020414C4C00307800503F
:1059EE005245465300534C45455000444C593A00DD
:1059FE0054494D454F555400434C4B3A0073005497
:105A0E005820494E54564C00545820484C444F464A
:105A1E00005641522042524B0042524B2050574D9D
:105A2E000042524B2045535450004C454420424CAA
:105A3E004E4B00524556205357415000524556206A
:105A4E004C4F434B00204F4E2000444941475300DA
:105A5E0073656300504B542054494D4500525353C7
:105A6E00490020202D0064426D20004E4F205349E6
:105A7E00474E4C00465420524154494F003A310093
:105A8E00424154544552590056455253494F4E00C7
:105A9E00302E392E3000474954205245560042418F
:105AAE00534520545950004241534520524556000B
:105ABE00464143544F5259005245534554200052CB
:105ACE0045534554212121004E4F542049444C4505
